:100000000C9418050C9440050C9440050C94400584
:100010000C9440050C9440050C9440050C94C31CB2
:100020000C9440050C9440050C9440050C9440053C
:100030000C9440050C9440050C9440050C9440052C
:100040000C945A1B0C9440050C94281B0C94021B16
:100050000C9440050C9440050C9440050C9440050C
:100060000C94A41B0C94400507634236B79BD8A799
:100070001A39685618AEBAAB558C1D3CB7CC5763CD
:10008000BD6DEDFD753EF6177231BF000000803F7B
:1000900008000000BE922449123EABAAAA2ABECD97
:1000A000CCCC4C3E00000080BEABAAAAAA3E000009
:1000B0000000BF000000803F000000000008417801
:1000C000D3BB4387D1133D190E3CC3BD4282AD2B38
:1000D0003E68EC8276BED98FE1A93E4C80EFFFBE30
:1000E00001C4FF7F3F000000000000407A10F35A77
:1000F00000A0724E18090010A5D4E80000E8764868
:10010000170000E40B54020000CA9A3B000000E113
:10011000F505000080969800000040420F000000A6
:10012000A08601000000102700000000E803000086
:1001300000006400000000000A0000000000010050
:10014000000000002C76D888DC674F0823DFC1DF71
:10015000AE59E1B1B796E5E3E453C63AE651997674
:1001600096E8E6C28426EB898C9B62ED407C6FFCAE
:10017000EFBC9C9F40F2BAA56FA5F490055A2AF7F0
:100180005C936B6CF9676DC11BFCE0E40D47FEF5F9
:1001900020E6B500D0ED902E030094357705008061
:1001A000841E080000204E0A000000C80C333333C0
:1001B000330F986E12831141EF8D2114893BE65560
:1001C00016CFFEE6DB18D1844B381BF77C1D901D43
:1001D000A4BBE424203284725E228100C9F124ECA5
:1001E000A1E53D2774300074617265000FA000091D
:1001F0003CF0C02B78830C231002D9B00EEAA00B80
:10020000008004432008EDD01104810C23D0C003EA
:100210002FF131A70E483083377883106C030CE040
:1002200000364308E18A2BAE082133F3F0FF12E5D4
:10023000F030C1040F122344000A2400A0F0F0F0B3
:10024000F0F0F0F0400500000000003E5B4F5B3E28
:100250003E6B4F6B3E1C3E7C3E1C183C7E3C181C8B
:10026000577D571C1C5E7F5E1C00183C1800FFE782
:10027000C3E7FF0018241800FFE7DBE7FF30483A28
:10028000060E2629792926407F050507407F05258A
:100290003F5A3CE73C5A7F3E1C1C08081C1C3E7F12
:1002A00014227F22145F5F005F5F06097F017F00D9
:1002B0006689956A606060606094A2FFA2940804F9
:1002C0007E040810207E201008082A1C08081C2A1A
:1002D00008081E101010100C1E0C1E0C30383E3872
:1002E00030060E3E0E06000000000000005F000019
:1002F0000007000700147F147F14242A7F2A12238A
:100300001308646236495620500008070300001C99
:100310002241000041221C002A1C7F1C2A08083EA2
:1003200008080080703000080808080800006060B5
:100330000020100804023E5149453E00427F400023
:1003400072494949462141494D331814127F1027FB
:10035000454545393C4A494931412111090736494A
:10036000494936464949291E00001400000040341E
:100370000000000814224114141414140041221423
:100380000802015909063E415D594E7C1211127C4A
:100390007F494949363E414141227F4141413E7FAB
:1003A000494949417F090909013E414151737F088B
:1003B00008087F00417F41002040413F017F081431
:1003C00022417F404040407F021C027F7F04081092
:1003D0007F3E4141413E7F090909063E4151215E70
:1003E0007F09192946264949493203017F01033F04
:1003F0004040403F1F2040201F3F4038403F631493
:1004000008146303047804036159494D43007F4194
:1004100041410204081020004141417F04020102D1
:1004200004404040404000030708002054547840F6
:100430007F284444383844444428384444287F388A
:100440005454541800087E090218A4A49C787F080C
:1004500004047800447D40002040403D007F102887
:10046000440000417F40007C047804787C08040448
:10047000783844444438FC1824241818242418FCE0
:100480007C08040408485454542404043F44243C85
:100490004040207C1C2040201C3C4030403C4428F4
:1004A0001028444C9090907C4464544C440008368E
:1004B00041000000770000004136080002010204FC
:1004C000023C2623263C1EA1A161123A4040207A1C
:1004D0003854545559215555794122545478422164
:1004E0005554784020545579400C1E52721239559B
:1004F0005555593954545459395554545800004598
:100500007C410002457D420001457C407D12111274
:100510007DF0282528F07C545545002054547C5407
:100520007C0A097F4932494949323A4444443A32C3
:100530004A4848303A4141217A3A42402078009D69
:10054000A0A07D3D4242423D3D4040403D3C24FF15
:100550002424487E4943662B2FFC2F2BFF0929F6C4
:1005600020C0887E090320545479410000447D4115
:100570003048484A32384040227A007A0A0A727D6E
:100580000D19317D2629292F282629292926304889
:100590004D4020380808080808080808382F10C8F7
:1005A000ACBA2F102834FA00007B000008142A147B
:1005B0002222142A14085500550055AA55AA55AAF6
:1005C000FF55FF55FF000000FF00101010FF001442
:1005D0001414FF001010FF00FF1010F010F014149E
:1005E00014FC001414F700FF0000FF00FF1414F4C3
:1005F00004FC141417101F10101F101F1414141FC4
:1006000000101010F0000000001F101010101F103C
:10061000101010F010000000FF101010101010103B
:100620001010FF10000000FF140000FF00FF00008A
:100630001F10170000FC04F414141710171414F4FE
:1006400004F40000FF00F714141414141414F70039
:10065000F7141414171410101F101F141414F4148A
:100660001010F010F000001F101F0000001F1400F9
:100670000000FC140000F010F01010FF10FF141424
:1006800014FF141010101F00000000F010FFFFFFF7
:10069000FFFFF0F0F0F0F0FFFFFF0000000000FFB0
:1006A000FF0F0F0F0F0F3844443844FC4A4A4A34B6
:1006B0007E02020606027E027E02635549416338CD
:1006C00044443C04407E201E2006027E020299A57E
:1006D000E7A5991C2A492A1C4C7201724C304A4DDC
:1006E0004D303048784830BC625A463D3E49494911
:1006F000007E0101017E2A2A2A2A2A44445F4444BA
:1007000040514A444040444A51400000FF0103E048
:1007100080FF000008086B6B083612362436060F7F
:10072000090F06000018180000001010003040FFEC
:100730000101001F01011E00191D1712003C3C3C65
:100740003C0000000000000103070F1F3F7F0080F6
:10075000C0E0F0F8FCFE0000000800020100000309
:1007600004070000000000000000DB40A4A62EAF3C
:100770002000A1C8D300408DAED580A8A220006D76
:10078000A00C050101E4708BA57A8A595475579322
:100790007446B36445D354356336633453385333A6
:1007A000532A5333431C5333431C4433331D4433C4
:1007B000331D4433331D5324341045420351341147
:1007C000324F2612325D3621325C272224793632AE
:1007D0002055230424350296246048059305326C85
:1007E0001000000000250028002B0000000000245D
:1007F0000027002A00040404040404040402020282
:100800000202020303030303030102040810204051
:10081000800102040810200102040810202D790232
:100820008C42121B0C030603163118020019901299
:10083000087598C5D472616253615461A5A6A6C5B6
:100840005461636271D2B49678050D069207510027
:100850001C8661188661188661187A148E120765E5
:1008600096B4B3625143526858686758586867072E
:100870001C1D3A158C130763A4B101316556373836
:10088000473A137675757565151B3A47188F120729
:10089000314354425451545154515451E4011EAB0C
:1008A000A5A5A5A5A5B4B454148D120774B3C1A110
:1008B000636767B7C2D151615831A402143B5937FD
:1008C000138D120756676666667666A6C3C151B277
:1008D000A3B302132C4A37128E120793021C8D8683
:1008E0009585958586858685869585A5831A901339
:1008F0000776B6D4635262536262C3B497B6D472B9
:1009000071616351C563F1E1C38604158D130773EB
:1009100095B361B1A39494B352C1C193675767660D
:100920006666480600000000000000000F8C1207F9
:1009300073A3011F1BD0A1B201130070A1730400A7
:10094000000000000000000000000000148D1406EC
:1009500064A4C2C101141C00111C2B3A587676768F
:100960007676958400000000000000000000000082
:1009700000000000118D0F0B6396A353515876A40D
:10098000B2011340C1C1B2480100000000000019CB
:100990008D1406324A58585858A8C2C1C101141CB7
:1009A0001C1C1C1516153524342434140A86120711
:1009B00051414E4201001825242300000000000090
:1009C000188D150B3161A3C2C161B1A3A3A3C2519C
:1009D000C1C1B1A25358585858494908000D8C0D4F
:1009E0000CA1B10118666675757575758574100A68
:1009F0008F0A8483424233313142C4C4C4438142AA
:100A0000330100000000001B8D150B313452525190
:100A100052515251B2B2B20130C1C152515758581D
:100A200067A2A39366042200FF21000088202C29DE
:100A300011241FBECFEFD8E0DEBFCDBF25E0AAEF67
:100A4000B1E001C01D92AD3AB207E1F711E0A0E0BC
:100A5000B1E0EEE7F4E602C005900D92AA3FB107BF
:100A6000D9F715E0C7E1D5E004C02197FE010E9447
:100A70002530C631D107C9F70E94B3210C94323218
:100A80000C940000EDE1F8E09491EEE1F8E044917F
:100A9000282F082E000C330B9217130609F0E4F4EC
:100AA000EFE1F8E050E0292F092E000C330B42173C
:100AB000530794F0891303C0CF0101960895249140
:100AC0009F5F211102C03196EECF249130E02C5F60
:100AD0003F4FE20FF31FE7CF90E080E0089590E0F2
:100AE000FC01E75FF74F24918B50984FFC018491F4
:100AF000882399F090E0880F991FFC01E551F84F89
:100B0000A591B491FC01EF51F84F859194918FB765
:100B1000F894EC91E22BEC938FBF0895FC012481B3
:100B200035816217730748F480819181009729F01D
:100B3000860F971FFC018081089580E00895089535
:100B4000AF92BF92CF92DF92EF92FF920F931F93DB
:100B5000CF93DF936C017B018B01040F151FEB0119
:100B60005E01AE18BF08C017D10759F06991D601D0
:100B7000ED91FC910190F081E02DC6010995892B42
:100B800079F7C501DF91CF911F910F91FF90EF9001
:100B9000DF90CF90BF90AF900895FC01448B558BB0
:100BA000668B778B40875187628773870895809122
:100BB0009A0290919B02891B990B089508950895BC
:100BC000FC01538D448D252F30E0842F90E0821B53
:100BD000930B541710F0CF96089501970895FC01D8
:100BE000918D828D981761F0A28DAE0FBF2FB11D30
:100BF0005D968C91928D9F5F9F73928F90E0089588
:100C00008FEF9FEF0895FC01918D828D981731F041
:100C1000828DE80FF11D858D90E008958FEF9FEF95
:100C20000895FC01918D228D892F90E0805C9F4F6B
:100C3000821B91098F73992708958EE993E00E9492
:100C4000110621E0892B09F420E0822F089580E02D
:100C500090E0892B29F00E941D0681110C94000060
:100C60000895FC01A48DA80FB92FB11DA35ABF4F41
:100C70002C91848D90E001968F739927848FA6899B
:100C8000B7892C93A089B1898C91837080648C93EF
:100C9000938D848D981306C00288F389E02D80819E
:100CA0008F7D80830895EF92FF920F931F93CF93D0
:100CB000DF93EC0181E0888F9B8D8C8D98131AC097
:100CC000E889F989808185FF15C09FB7F894EE897E
:100CD000FF896083E889F9898081837080648083DB
:100CE0009FBF81E090E0DF91CF911F910F91FF9026
:100CF000EF900895F62E0B8D10E00F5F1F4F0F73CE
:100D00001127E02E8C8D8E110CC00FB607FCFACF88
:100D1000E889F989808185FFF5CFCE010E943106EF
:100D2000F1CFEB8DEC0FFD2FF11DE35AFF4FF08259
:100D30009FB7F8940B8FEA89FB8980818062CFCFBF
:100D4000CF93DF93EC01888D8823B9F0AA89BB8902
:100D5000E889F9898C9185FD03C0808186FD0DC0ED
:100D60000FB607FCF7CF8C9185FFF2CF808185FF0E
:100D7000EDCFCE010E943106E9CFDF91CF910895EA
:100D800090E0FC01EA5AF84F2491FC01E75FF74F2D
:100D90003491FC01EB50F84FE491EE23C9F022238B
:100DA00039F0233001F1A8F4213019F1223029F172
:100DB000F0E0EE0FFF1FEF51F84FA591B4918FB700
:100DC000F894EC91611126C030953E233C938FBF7F
:100DD00008952730A9F02830C9F0243049F78091D0
:100DE00080008F7D03C0809180008F77809380008A
:100DF000DFCF84B58F7784BDDBCF84B58F7DFBCF0C
:100E00008091B0008F778093B000D2CF8091B000F6
:100E10008F7DF9CF3E2BDACF3FB7F89480916502F2
:100E200090916602A0916702B091680226B5A89BD6
:100E300005C02F3F19F00196A11DB11D3FBFBA2F6C
:100E4000A92F982F8827BC01CD01620F711D811D2C
:100E5000911D42E0660F771F881F991F4A95D1F7B1
:100E600008958F929F92AF92BF92CF92DF92EF92AE
:100E7000FF924B015C010E940C076B017C010E94F8
:100E80000C076C197D098E099F09683E7340810526
:100E90009105A8F321E0821A9108A108B10888EE13
:100EA000C80E83E0D81EE11CF11C81149104A1043A
:100EB000B10429F7FF90EF90DF90CF90BF90AF90F3
:100EC0009F908F9008952FB7F89460916102709170
:100ED000620280916302909164022FBF0895209175
:100EE0003D02260F3327331F21323105ECF42091C8
:100EF0009402FC0190E080E0243069F082E00895E3
:100F0000A0913D022191AC01435E5D4FA40FB52F2E
:100F1000B11D2C930196861798F380913D02680FBE
:100F200060933D0280E0089581E00895109294025C
:100F300081E08093930210928E0261E082E10E9430
:100F4000C00661E083E10E94C006E9EBF0E0808129
:100F50008E7F808380818D7F808388E48093B8003A
:100F600085E48093BC000895CF93DF9391E0909344
:100F70001C028823B9F0C091B800D091BA008091CA
:100F8000BC008A7B8093BC0060E082E10E94C006C6
:100F900060E083E10E94C0060E949607D093BA00E9
:100FA000C093B800DF91CF9108950895E0919B021E
:100FB00080919A02E81730F4F0E0E456FD4F80810A
:100FC00090E008958FEF9FEF089590919B0280919C
:100FD0009A022FEF3FEF981748F4E92FF0E0E4561C
:100FE000FD4F208130E09F5F90939B02C9010895DF
:100FF000CF92DF92EF92FF920F931F93CF93DF93E5
:101000007C01CB018A0120919D03222389F0EB0111
:101010006B01C40ED51ECC15DD0569F06991D701B1
:10102000ED91FC910190F081E02DC7010995F3CF7E
:10103000642F0E946F07C801DF91CF911F910F911C
:10104000FF90EF90DF90CF900895CF93DF931F92A2
:10105000CDB7DEB7698320919D032223F9F020915B
:101060009A03203258F021E030E0FC0133832283E0
:1010700090E080E00F90DF91CF91089580919B03E5
:10108000E82FF0E0E450FE4F998190838F5F8093CA
:101090009B0380939A0381E090E0ECCF61E0CE0166
:1010A00001960E946F07F7CFCF92DF92EF92FF92E7
:1010B0000F931F93CF93DF93D0919A0381E0D132A6
:1010C00008F09CC0C0919C030E940C076B017C013E
:1010D0008091940281116CC082E08093940281E03F
:1010E000809393028FEF8093920210929102D0939B
:1010F0009002ACEFB1E0EEE6F2E080E0D8138DC0F4
:1011000010928F0280918F02CC0FC82BC0938F0258
:1011100080918E02813009F084C010928E020E946C
:101120000C076B017C0180918F028093BB00809142
:10113000960290919702A0919802B0919902892B02
:101140008A2B8B2BA1F00E940C0700919602109124
:10115000970220919802309199026C197D098E09AD
:101160009F09061717072807390708F442C080911E
:10117000BC0083FDD8CF85EC8093BC000E940C0797
:101180006B017C0180919402823009F44CC0809103
:1011900092028F3F09F469C080919202803209F473
:1011A00066C080919202803309F463C084E026C057
:1011B0008091960290919702A0919802B091990225
:1011C000892B8A2B8B2B09F483CF0E940C0700916B
:1011D00096021091970220919802309199026C1911
:1011E0007D098E099F09061717072807390708F098
:1011F0006FCF809195020E94B40785E010929B0307
:1012000010929A0310929D03DF91CF911F910F913D
:10121000FF90EF90DF90CF9008959D9191938F5F15
:101220006DCF85EEA9CF8091960290919702A09103
:101230009802B0919902892B8A2B8B2B09F4A2CFAB
:101240000E940C070091960210919702209198023B
:10125000309199026C197D098E099F0906171707AD
:101260002807390708F08ECFC4CF80E0C7CF82E0CF
:10127000C5CF83E0C3CFFC016489758986899789CE
:1012800008950895CF92DF92EF92FF92CF93DF936C
:10129000EC01E881F981008CF18DE02D0995288918
:1012A00039894A895B890E94312D6B017C01C88A8A
:1012B000D98AEA8AFB8A6C857D858E859F856F5FDA
:1012C0007F4F8F4F9F4F6C877D878E879F876130C1
:1012D00071058105910551F00E94C62B9B01AC015F
:1012E000C701B6010E949D2D6B017C01C701B601AB
:1012F000DF91CF91FF90EF90DF90CF900895FC01A8
:10130000108A118A128A138A148615861686178601
:101310000895FC0195819F7071F00380F481E02DA8
:1013200080819181009739F0DC01ED91FC9100887A
:10133000F189E02D099460E070E0CB010895FC0193
:10134000178208950895CF93DF93EC018F81811167
:101350000DC0E881F981048CF58DE02DCE01099551
:10136000688779878A879B8781E08F8368857985FD
:101370008A859B85DF91CF910895CF93DF93EC0110
:101380008F8181110DC0E881F981008CF18DE02DF4
:10139000CE010995688779878A879B8781E08F834B
:1013A000688579858A859B85DF91CF910895FC01B9
:1013B00095819F7096171706B9F0B4F0660F771FE6
:1013C00083819481680F791FDB018D919C91009737
:1013D00059F0FC0122812F3039F40190F081E02D89
:1013E0000088F189E02D099460E070E0CB01089558
:1013F00080E0089530E020E04FE45EE420FD28C066
:1014000050937C0080917A00806480937A00809170
:101410007A0086FDFCCF8091780090917900892731
:101420009091FB01892780FB879587F98093FB01C9
:1014300090917A00880F86709068892B80937A004B
:101440002F5F3F4F24313105C9F68091FB0108958C
:1014500040937C00D7CF6F927F928F929F92AF92F2
:10146000BF92CF92DF92EF92FF920F931F93CF9391
:10147000DF93EC018B013A0169010E9463074B0184
:101480005C01780110E000E006151705A1F10E944B
:101490006307AB01BC01481959096A097B09F601C8
:1014A00080819181092E000CAA0BBB0B8417950734
:1014B000A607B70750F0E881F9810084F185E02D97
:1014C000CE0109951816190614F7E881F9810084F0
:1014D000F185E02DCE010995892B69F0E881F9812C
:1014E0000284F385E02DCE010995F70181937F01F8
:1014F0000F5F1F4FC9CF0E946307AB01BC014819A2
:1015000059096A097B09F60180819181841B950B39
:1015100091838083C801DF91CF911F910F91FF903C
:10152000EF90DF90CF90BF90AF909F908F907F9083
:101530006F900895CF93DF931F92CDB7DEB79B01D5
:10154000198241E050E0BE016F5F7F4F0E942B0A7D
:10155000019731F4898190E00F90DF91CF91089548
:101560008FEF9FEFF9CFEF92FF920F931F93CF93DF
:10157000DF93EC01EC80FD806E157F050CF070C0F0
:1015800057FF04C0240F351F50E040E08E819F813B
:10159000FA01E20FF31F8E179F071CF49C01241B16
:1015A000350B121613060CF05BC0922F842F869514
:1015B000869586958E9DD0018F9DB00D11246A0F62
:1015C0007B1FAF8DB8A1A60FB71F477049F188E008
:1015D000841B482F682F70E0FB01E25BF84FE49119
:1015E000281708F063C0621B71092FEF30E002C0BA
:1015F000359527956A95E2F7E2230130110539F018
:10160000B0F10230110561F58C91E82702C08C9190
:10161000E82BEC93941720F12C813D81A20FB31F8E
:10162000E92FE41BE83078F00230110521F58E2F08
:101630009C9190959C932C813D81A20FB31F885063
:101640008830B0F7E770EE2359F0F0E0EA5BF84F2E
:10165000E49101301105F9F010F10230110519F192
:10166000DF91CF911F910F91FF90EF900895E0953A
:101670008C91E823CECF81E00115110509F480E0BB
:1016800081959E2F8C932C813D81A20FB31F985082
:101690009830C0F7D7CF8C91E82BEC93E1CFE09551
:1016A0008C91E823FACF8C91E827F7CF0130110510
:1016B00009F4ADCFE0F20230110509F4A5CFAE0D6B
:1016C000BF1DAECF0F931F93CF93DF9377FF04C05F
:1016D000260F371F70E060E0DC011496CD91DC919D
:1016E000FB01E20FF31FCE17DF071CF49E01261B40
:1016F000370B121613064CF5FA0157FD3796A3E087
:10170000F595E795AA95E1F7EC9FD001ED9FB00D17
:10171000FC9FB00D11246A0F7B1FDC015F96ED91D9
:10172000FC91E60FF71F4770552781E090E001C05C
:10173000880F4A95EAF7482F0130110559F0A8F0B3
:101740002E0F3F1F02301105E1F0DF91CF911F9165
:101750000F9108952E0F3F1FE217F307B1F3819108
:10176000DF011197842B8C93F7CF80952E0F3F1FAD
:10177000E217F30751F39191DF01119798239C939E
:10178000F7CFE217F30709F38191DF01119784275F
:101790008C93F7CF0F931F93FA01DC0156964C916F
:1017A00056974230E9F04330A1F1413061F514968B
:1017B0004D915C91DA01AE1BBF0BFD01E21BF30BF7
:1017C00077FD0BC0DC0116964D915C91641775078F
:1017D00024F4AB01BF010E94620B1F910F91089589
:1017E00014964D915C91DA01A61BB70BBD016150B7
:1017F0007109DC0116964D915C91DA01AE1BBF0BAD
:10180000FD01E21BF30B77FDE8CFAF010E94B30AA5
:10181000E4CF16964D915C91DA01A61BB70BBD0182
:1018200061507109CDCF0F931F93FA01DC015696D9
:101830004C9156974230A9F0433091F1413019F55F
:1018400014964D915C91DA01AE1BBF0BFD013197EF
:10185000F7FD04C0AB01BF010E94B30A1F910F91B5
:10186000089514964D915C91DA01A61BB70BBD014A
:10187000DC0116964D915C91DA01AE1BBF0BFD01A8
:101880003197621B730BF7FDE9CFDC0116964D9182
:101890005C91E417F50714F7AF010E94620BDECFED
:1018A00016964D915C91DA01A61BB70BBD01621B28
:1018B000730BCECFFC0177FD64C0808591856817DE
:1018C00079070CF05EC057FD5CC082859385481790
:1018D00059070CF056C086898230B1F0833029F167
:1018E000813041F484819581841B950BAB01BC014F
:1018F000615071092130310509F108F443C02230EB
:10190000310509F463C0089584819581DC01A61B2B
:10191000B70BBD016150710986819781DC01A41B61
:10192000B50BAD0141505109E5CF86819781861BEA
:10193000970BBA01AC0141505109DCCFCA0157FDE8
:101940000796A3E095958795AA95E1F7A481B581BF
:101950008A9F90018B9F300D9A9F300D1124620F4A
:10196000731F078CF0A1E02DE60FF71F4770552776
:1019700021E030E001C0220F4A95EAF78081822BF6
:1019800080830895CA0157FD079633E095958795A2
:101990003A95E1F7A481B5818A9F90018B9F300D24
:1019A0009A9F300D1124620F731F078CF0A1E02D58
:1019B000E60FF71F4770552781E090E001C0880FC0
:1019C0004A95EAF7809590818923DACFCA0157FDBD
:1019D000079623E0959587952A95E1F7A481B5812F
:1019E0008A9F90018B9F300D9A9F300D1124620FBA
:1019F000731F078CF0A1E02DE60FF71F47705527E6
:101A000021E030E001C0220F4A95EAF78081822769
:101A1000B7CF2F923F924F925F926F927F928F92A9
:101A20009F92AF92BF92CF92DF92EF92FF920F936D
:101A30001F93CF93DF93CDB7DEB72A970FB6F894F5
:101A4000DEBF0FBECDBF7C015B01FC0184913196EE
:101A500024913196E491582EE89457F8622F6F73D1
:101A600030E0D90196E0B595A7959A95E1F7FA2F60
:101A7000F170FA8790E0880F892F881F990B880FE3
:101A8000991F220F232F221F330B822B082E000CAD
:101A9000990BDC01A25DBE4F4C9010E000E0712C70
:101AA000612C1986262E312C252D30E03A8329838E
:101AB000DC01A65DBE4FBC83AB839C012A5D3E4F1B
:101AC0003E832D83CA018E0F911D98878F83021547
:101AD00013050CF04EC0D12CC12C8F809884800E41
:101AE000911EA981BA81CA16DB060CF03FC0B985E8
:101AF000B11128C0772021F0EA85F1E0EF27EA87CD
:101B0000AB81BC816C91862D0E94CF2FE82FF0E035
:101B10003396EE0DFF1DE491AD81BE812C91F0E076
:101B2000949DC001112402C0F595E7958A95E2F7CE
:101B3000B22FBE23B98777247394B11102C02987CD
:101B4000712C6394E985E150E987FA85FF2351F010
:101B500021E030E0A401B6016A0D7B1D8EE594E022
:101B60000E945A0C2FEFC21AD20ABBCF0F5F1F4F31
:101B7000AECF852D2A960FB6F894DEBF0FBECDBF2F
:101B8000DF91CF911F910F91FF90EF90DF90CF9059
:101B9000BF90AF909F908F907F906F905F904F908D
:101BA0003F902F90089508958EBD00000DB407FE5C
:101BB000FDCF8EB50895EF92FF920F931F93CF93B1
:101BC000DF937C01C62F80917B0490917C04009769
:101BD00009F459C020917F0431E030939D03209394
:101BE0009C0310929B0310929A03DC01ED91FC91EF
:101BF0000190F081E02D60E009958701EE24E394E7
:101C0000F12CD1E0C15080917B0490917C04CF3FB6
:101C100091F1B0E2EB16F104D8F00E9454088091E3
:101C20007B0490917C0420917F04D0939D032093AA
:101C30009C0310929B0310929A03DC01ED91FC919E
:101C40000190F081E02D60E00995EE24E394F12C01
:101C500080917B0490917C04F8016491DC01ED910A
:101C6000FC910190F081E02D0995BFEFEB1AFB0A82
:101C70000F5F1F4FC7CFDF91CF911F910F91FF9043
:101C8000EF900C945408E0918B04F0918C049081B7
:101C9000809191048095892380838701C15008F445
:101CA00038C0F80184912091790430917A04232B73
:101CB00029F00E94D40D0F5F1F4FF0CF28E030E0D5
:101CC00040E8E0918704F091880490918F04582FA8
:101CD0005423D9F05081952B9083E0918904F091A1
:101CE0008A04908150919004952B9083E09189040F
:101CF000F0918A045081909190049095952390835F
:101D0000469521503109E9F6D6CF5081909595231B
:101D1000E3CFDF91CF911F910F91FF90EF90089546
:101D20001F93CF93DF93EC018D8D9E8D009721F152
:101D3000162F29A131E030939D0320939C0310922C
:101D40009B0310929A03DC01ED91FC910190F081CC
:101D5000E02D60E009958D8D9E8DDC01ED91FC916B
:101D60000190F081E02D612F09958D8D9E8DDF9181
:101D7000CF911F910C945408ADA5BEA59C918BA941
:101D8000809589238C938B8D9C8D892B31F0862FA8
:101D9000DF91CF911F910C94D40D28E030E080E8C2
:101DA000A9A5BAA599A9462F4823C1F04C91942B17
:101DB0009C93ABA5BCA59C914AA9942B9C93ABA5E5
:101DC000BCA54C919AA9909594239C9386952150FB
:101DD000310931F7DF91CF911F9108954C91909582
:101DE0009423E6CF8CBD9DBD0895DF92EF92FF92C4
:101DF0000F931F93CF93DF9380917B0490917C048A
:101E0000892B09F498C02091930430919404409157
:101E100095045091960460E074E284EF90E00E9493
:101E2000EF2F2051310941095109569547953795B2
:101E300027952093B80065E086E29AE00E94DB0DCA
:101E40006091620461508EE594E00E94900E2091B2
:101E5000640430916504C901079697FD079633E045
:101E6000959587953A95E1F7209162043091630446
:101E7000829F8001839F100D929F100D1124C091AD
:101E80007D04D0917E0480917B0490917C040C0FA2
:101E90001D1F009709F48FC020917F0431E030931B
:101EA0009D0320939C0310929B0310929A03DC01E4
:101EB000ED91FC910190F081E02D60E40995EE2414
:101EC000E394F12CDD24D39480917B0490917C04E5
:101ED0000C171D0709F446C0B0E2EB16F104D8F068
:101EE0000E94540880917B0490917C0420917F048F
:101EF000D0929D0320939C0310929B0310929A030F
:101F0000DC01ED91FC910190F081E02D60E40995F8
:101F1000EE24E394F12C80917B0490917C046991F0
:101F2000DC01ED91FC910190F081E02D0995BFEF6E
:101F3000EB1AFB0AC9CF8091790490917A04892B1E
:101F400031F080919C0490919D040E94F20EE091EA
:101F50008D04F0918E049081809192048095892364
:101F6000808369CF0E94540880917B0490917C0407
:101F7000892B09F461C02091970430919804409115
:101F8000990450919A0460E074E284EF90E00E941A
:101F9000EF2F205131094109510956954795379541
:101FA00027952093B800DF91CF911F910F91FF905B
:101FB000EF90DF900895E0918B04F0918C04808184
:101FC00090919104892B80830C171D0769F28991E8
:101FD0002091790430917A04232B19F00E94D40DBA
:101FE000F3CF28E030E040E8E0918704F0918804E6
:101FF00090918F04582F5423D9F05081952B9083C2
:10200000E0918904F0918A04908150919004952B7D
:102010009083E0918904F0918A045081909190041A
:10202000909595239083469521503109E9F6CCCFC0
:10203000508190959523E3CFE0918D04F0918E042B
:10204000808190919204892B8083ADCF1F93CF9391
:10205000DF93EC01162F8D8D9E8D892BB1F12DA96B
:102060003EA94FA958AD60E074E284EF90E00E9471
:10207000EF2F205131094109510956954795379560
:1020800027952093B80066EA111167EACE010E94F5
:10209000900E8D8D9E8D892B41F129AD3AAD4BADC2
:1020A0005CAD60E074E284EF90E00E94EF2F20517D
:1020B0003109410951095695479537952795209340
:1020C000B800DF91CF911F9108958B8D9C8D892B46
:1020D00021F08EAD9FAD0E94F20EEFA5F8A9908180
:1020E0008CA9809589238083CECFEFA5F8A9808124
:1020F0009CA9892B8083E5CF0895FC016370668BD2
:102100008481958126813781613039F0633029F0EF
:102110009187808733872287089531872087938727
:10212000828708952F923F924F925F926F927F9293
:102130008F929F92AF92BF92CF92DF92EF92FF92D7
:102140000F931F93CF93DF93CDB7DEB76A970FB688
:10215000F894DEBF0FBECDBF9A8F898F7A836983D3
:102160004A01D22E18870F833701BC2CDC01599607
:102170002D913C915A972115310509F015C11896FA
:102180008D919C911997681779070CF0D7C11A9611
:102190008D919C91481759070CF0D0C14C2C512CB3
:1021A000B6E0CB9E600D711D11247C876B871616DF
:1021B00017060CF0C3C1EA2DF0E0FA87E98793E037
:1021C000EE0FFF1F9A95E1F7F88BEF87CF01840F91
:1021D000951F181619060CF0B1C1A98DBA8D589625
:1021E0008C91811104C0BFEABD1508F4D394A98D68
:1021F000BA8DED91FC9111970284F385E02DCD010C
:102200000995B5E0DB9EC0011124E981FA81FC83C8
:10221000EB83312C212C9C012A5B3D4F388F2F8B77
:102220004A2D50E05E8B4D8BEF89F88DE20DF31D4A
:1022300044919E828D82D12CC12C69817A81620D5C
:10224000731D7A8B698B842F90E09C8B8B8BE98D2F
:10225000FA8DA081B18140FF82C0F1E0BF126FC052
:10226000AF126DC01C96ED91FC912F813885A401B1
:102270004C0D5D1D69897A89898D9A8D0995EB8947
:10228000FC89F595E7954E2F5FEFC51AD50A6D814C
:102290007E818D899E89680F791F7E836D8398E08A
:1022A000C916D10481F6AFEF2A1A3A0AEB81FC81F4
:1022B000E40DF51DFC83EB83F5E02F16310409F0E6
:1022C000B3CF2F81388526153705B9F0A98DBA8D82
:1022D000ED91FC91B1E0BB1257C0AB1255C06981C2
:1022E0007A816B5F7F4F0088F189E02D830128E0C0
:1022F00030E0A401898D9A8D0995A98DBA8DED9153
:10230000FC9111970688F789E02DCD016A960FB6EA
:10231000F894DEBF0FBECDBFDF91CF911F910F911B
:10232000FF90EF90DF90CF90BF90AF909F908F90F5
:102330007F906F905F904F903F902F9009941E96E2
:10234000ED91FC91EF80F88409851A8592014D8109
:102350005E816B817C81898D9A8D099590CF2F81CB
:1023600038852615370509F48ACF31E0B31207C046
:10237000A31205C01C96ED91FC91930178CF1E9697
:10238000ED91FC917301E0CF6B857C856419750933
:102390000684F785E02D73010F8518899201A40149
:1023A000898D9A8D0995A9CFF90134969491329728
:1023B00045915491D91AB7E0DB9E400D511D11246F
:1023C000F901259134913C8B2B8BFA0125903490A7
:1023D000FA013296749031963491398B329664902A
:1023E0003196449041E04C1518F04A1508F07FC032
:1023F000662D062C000C770B7C836B83842D042CBC
:10240000000C990B9E838D83A98DBA8DED91FC9163
:1024100011970284F385E02DCD010995512CD12C23
:10242000C12CEA2DF0E0FA87E9872B2D30E03C87BC
:102430002B87A401440D511D47FC5A95588F4F8B93
:1024400069817A81660D711D67FC7A957E876D873B
:102450007989C71608F051CF2C2D30E04D815E816F
:10246000420F531FA985BA854A9FC0014B9F900D0B
:102470005A9F900D1124FC01E80DF91DF88BEF8790
:10248000852D612C4F89588D420F531F5E8B4D8BCC
:10249000671408F050C044244394480E877041F4F8
:1024A000C1010196EB89FC89E20DF31DD4901C015A
:1024B000D7FE19C0A98DBA8DED91FC91662D70E003
:1024C000B1E0BB1219C0AB1217C02D853E85620F5B
:1024D000731F0484F585E02D2F8138854D895E8931
:1024E000898D9A8D0995DD0C6394842DD1CF1E8240
:1024F0001D821C821B8288CF4B815C81640F751FFB
:10250000AB85BC856A9FC0016B9F900D7A9F900D33
:10251000112469817A81680F791F0684F785E02D7F
:10252000EF80F88409851A859D014F855889898D2A
:102530009A8D0995D8CF570CC3948ACF6A960FB657
:10254000F894DEBF0FBECDBFDF91CF911F910F91E9
:10255000FF90EF90DF90CF90BF90AF909F908F90C3
:102560007F906F905F904F903F902F9008958F9243
:102570009F92AF92CF92EF92FF920F931F93CF93C0
:10258000DF93EC01262F898D9A8D009709F051C0B9
:102590006A30D1F41D861C868D8948E0849F9001A5
:1025A00011248E859F85820F931F9F878E8781E0E0
:1025B00090E0DF91CF911F910F91FF90EF90CF901E
:1025C000AF909F908F9008956D3089F3CC88AD883F
:1025D0008F898823C1F08C859D8536E0C39E800D50
:1025E000911D1124488559854817590764F44E8573
:1025F0005F851D861C8638E0A39EC0011124840FD0
:10260000951F9F878E87EA88FB88088919894E85E0
:102610005F856C857D85CE010E9492102C898C850A
:102620009D8546E0249F800D911D11249D878C87F8
:10263000BECF6A3069F41D861C86FC013896E49191
:102640002D898E859F85E29F800D911D1124ADCF30
:102650006D3009F4ACCFFC0134963491631708F463
:10266000A6CF3296E491E61708F4A1CFFC0132968A
:1026700085909490462F431B342F47E0349F800C65
:10268000911C1124F401329634913196E491332354
:10269000A9F1EE2399F1CC88F4013596E491AD8847
:1026A0004F89442301F10E2E000CFF0BE30FF11DA7
:1026B000CE9EA001CF9E500D11246C857D85460FC6
:1026C000571F68857985641775076CF44E855F859B
:1026D0001D861C86FC013896E491AE9E400D511D6E
:1026E00011245F874E87EA88FB88088919894E85FF
:1026F0005F856C857D85CE010E949210F401349631
:10270000E4912C898C859D85E29F800D911D11247B
:102710008DCF6F927F928F929F92AF92BF92CF9206
:10272000DF92EF92FF920F931F93CF93DF93EC0111
:102730006B015A0139014801E881F9810284F3856E
:10274000E02D0995E881F9810288F389E02D870160
:102750009301A501B601CE010995A501480D591DAA
:1027600041505109E881F9810288F389E02D9301F4
:10277000B601CE010995E881F9810088F189E02D43
:102780009401A501B601CE010995C60CD71CB6016E
:1027900061507109E881F9810088F189E02D940187
:1027A000A501CE010995E881F9810688F789E02D18
:1027B000CE01DF91CF911F910F91FF90EF90DF90AD
:1027C000CF90BF90AF909F908F907F906F90099423
:1027D0006F927F928F929F92AF92BF92CF92DF9231
:1027E000EF92FF920F931F93CF93DF935C01EB0166
:1027F0006A01490138018701DC01ED91FC91621702
:10280000730719F5641675062CF0962D872D3A017D
:10281000C92ED82E9601261937092F5F3F4F048CF9
:10282000F58DE02DA301BE01C5010995DF91CF9182
:102830001F910F91FF90EF90DF90CF90BF90AF90DE
:102840009F908F907F906F9008954615570591F453
:102850002617370724F0892D4B01C22FD82F9E0150
:10286000281939092F5F3F4F068CF78DE02DA601FF
:10287000B401DACF0284F385E02D0995D501ED91FD
:10288000FC910488F589E02D83019401A601BE0125
:10289000C5010995D501ED91FC910688F789E02DD8
:1028A000C501DF91CF911F910F91FF90EF90DF90C5
:1028B000CF90BF90AF909F908F907F906F90099432
:1028C0006F927F928F929F92AF92BF92CF92DF9240
:1028D000EF92FF920F931F93CF93DF938AEBA82E73
:1028E00084E0B82E98EDC92E94E0D92ED0E0C0E057
:1028F00020E8822E912CF501219131915F01215028
:102900003109F12CE12C8E01AE0170E060E08EE522
:1029100094E00E94E8133E01F0E16F0E711CF60195
:1029200020813181215031098301A30170E060E0F1
:102930008EE594E00E94E813F50132978081918141
:102940009401281B390B8E01AE016FE770E08EE514
:1029500094E00E94E813F601808191819401281B84
:10296000390B8301A3016FE770E08EE594E00E94CC
:10297000E8132196F2E0CF1AD108C031D10509F051
:10298000BACFDF91CF911F910F91FF90EF90DF9021
:10299000CF90BF90AF909F908F907F906F90089551
:1029A000EF92FF920F931F93DC011A960D911C91E9
:1029B0001B9718962D913C911997ED91FC9100A0D1
:1029C000F1A1E02D7B0150E040E070E060E009956E
:1029D0001F910F91FF90EF9008954F925F926F9229
:1029E0007F928F929F92AF92BF92CF92DF92EF929F
:1029F000FF920F931F93CF93DF936C012B015A012A
:102A000039014801DC01ED91FC910284F385E02D50
:102A10000995E201640C751CD601ED91FC91C61577
:102A2000D7055CF40088F189E02D87019401A501A8
:102A3000BE01C60109952196EFCF0688F789E02DE2
:102A4000C601DF91CF911F910F91FF90EF90DF9022
:102A5000CF90BF90AF909F908F907F906F905F903E
:102A60004F9009948F929F92AF92BF92CF92DF9234
:102A7000EF92FF920F931F93CF93DF93EC015B01D3
:102A80004A016901E881F9810284F385E02D099505
:102A900095012C0D3D1D21503109E881F9810488F3
:102AA000F589E02D78018401A401B501CE010995D5
:102AB000E881F9810688F789E02DCE01DF91CF9179
:102AC0001F910F91FF90EF90DF90CF90BF90AF904C
:102AD0009F908F9009948F929F92AF92BF92CF92C6
:102AE000DF92EF92FF920F931F93CF93DF93EC014E
:102AF0005B014A0169017801E881F9810284F3856B
:102B0000E02D0995C80CD91C860101501109E881F6
:102B1000F9810488F589E02D9501A401B501CE0164
:102B20000995E881F9810688F789E02DCE01DF91CA
:102B3000CF911F910F91FF90EF90DF90CF90BF90BA
:102B4000AF909F908F900994EF92FF920F931F93F5
:102B5000DC01ED91FC9100A0F1A1E02D09951F9100
:102B60000F91FF90EF9008950F931F93DC01ED916B
:102B7000FC91068CF78DE02D09951F910F9108951A
:102B80000F931F93DC01ED91FC91048CF58DE02DEA
:102B900009951F910F910895DC01ED91FC9100843E
:102BA000F185E02D09942F923F924F925F926F92A0
:102BB0007F928F929F92AF92BF92CF92DF92EF92CD
:102BC000FF920F931F93CF93DF9300D000D000D0DC
:102BD000CDB7DEB73C016A013E832D83FC82EB82D8
:102BE0005801A41AB50AB7FE03C0B194A194B10864
:102BF0008D809E80861A970A97FE03C091948194D7
:102C000091088A149B045CF0902F812F0D811E8106
:102C10009D838E839C2D8D2D6B01692F782F0C1534
:102C20001D055CF09D818E817E836D83692F782FD9
:102C3000902F812F8601C92ED82E1601201A310A15
:102C40002B012D813E81421A530A57FE03C0519435
:102C500041945108710137FE03C03FEFE31AF30AB4
:102C6000F594E7948D819E81861797075CF5A1E026
:102C7000B0E0BA83A983C016D1064CF1D301ED911F
:102C8000FC910484F585E02D2B813C81A8016D81A8
:102C90007E818A149B041CF04D815E81B801C301C2
:102CA0000995E418F508F7FE0AC02D813E81898157
:102CB0009A81280F391F3E832D83E20CF31C0F5F8E
:102CC0001F4FD9CF2FEF3FEF3A832983D4CF2696DA
:102CD0000FB6F894DEBF0FBECDBFDF91CF911F912D
:102CE0000F91FF90EF90DF90CF90BF90AF909F90AB
:102CF0008F907F906F905F904F903F902F900895AE
:102D00006F927F928F929F92AF92BF92CF92DF92FB
:102D1000EF92FF920F931F93CF93DF938C015B0190
:102D20006A014901F90184918F73E82EF12C712C0D
:102D3000612CC0E0F601848195816816790698F4CB
:102D4000B301C6010E948E05803229F4C85FFFEFEF
:102D50006F1A7F0AEFCF0E944205FC018491CE5F7B
:102D60008F77C80FF4CFCE0DDF2DD11D2396005CD9
:102D70001F4FBE0175956795600F711F6E197F0912
:102D8000A501C4010E94090DD595C7950C1B1D0B0B
:102D9000F12CE12CD0E0C0E0F60184819581E816A9
:102DA000F906C0F4B701C6010E948E05803229F4ED
:102DB0002896FFEFEF1AFF0AEFCF0E944205B801F5
:102DC0006C0F7D1FA5010E94090D90E00296C80FAF
:102DD000D91FEFCFDF91CF911F910F91FF90EF900F
:102DE000DF90CF90BF90AF909F908F907F906F902B
:102DF000089590E080E00895CF93DF93EC018881FF
:102E00009981009711F00E94C730198218821D82A3
:102E10001C821B821A82DF91CF910895FC01808170
:102E20009181009711F00C94C7300895CF92DF92F2
:102E3000EF92FF920F931F93CF93DF937C0110E0EB
:102E400000E036E8C32E31E0D32ED70115968C91E1
:102E500015978F7080171106F9F0F4F01396ED9125
:102E6000FC91C801880F991FE80FF91FC081D1811B
:102E7000209779F08A818F3061F4D982C8828B8162
:102E80009C81892B19F0CE010E941617CE010E9459
:102E9000C7300F5F1F4FD9CFDF91CF911F910F9197
:102EA000FF90EF90DF90CF900895EF92FF920F93F5
:102EB0001F93CF93DF93FC0125812617170609F195
:102EC00004F18A01660F771FE380F480E60EF71E97
:102ED000F701C081D181209789F08A818F3071F408
:102EE00086E891E0998388838B819C81892B19F0F6
:102EF000CE010E941617CE010E94C730F701118340
:102F00000083DF91CF911F910F91FF90EF90089573
:102F1000CF93DF93EC0186E891E0998388831A824E
:102F20001E82188619861A861B861C861D861E869A
:102F30001F86188A198A1A8A1B8A81E08D8382E08B
:102F400090E00E942B309C838B83FC0111821082C5
:102F5000DF91CF910895AF92BF92CF92DF92EF921F
:102F6000FF920F931F93CF93DF93DB01AA0FBB1F39
:102F7000EC01EB81FC81EA0FFB1FA081B18110976E
:102F8000C9F01296EC911297EF30A1F4ED91FC91FB
:102F900011970488F589E02DBA01A901CD01DF91CF
:102FA000CF911F910F91FF90EF90DF90CF90BF9046
:102FB000AF90099469017A015B018C0188E190E08E
:102FC0000E942B30EC010E9488178FE08A8388EAE8
:102FD00091E099838883CC8ADD8AEE8AFF8AD801C2
:102FE000ED91FC910480F581E02DAE01B501C801A1
:102FF000DF91CF911F910F91FF90EF90DF90CF90D5
:10300000BF90AF9009942091640430916504C90188
:10301000079697FD079623E0959587952A95E1F702
:103020002091620430916304829FA001839F500D20
:10303000929F500D112470E060E080917D0490918A
:103040007E040C941B32CF93DF93EC01A881B981ED
:10305000EB01E881F9811097F1F03097B1F4EC01C0
:103060008C819D81892BC9F08C9190E00BC0DB0194
:1030700014968D919C91892B81F0808190E091959F
:1030800081959109DF91CF910895BF01CD01DF9125
:10309000CF910C942232309751F790E080E0F2CF3C
:1030A0000F931F93CF93DF938C01EB01FC01808181
:1030B00091810097E1F06881798161157105A9F02E
:1030C000428153812C813D814217530770F00E9449
:1030D0002B328C819D81F801958384831D821C8213
:1030E000DF91CF911F910F9108950E94C730888181
:1030F0009981F801918380838A819B819383828364
:103100008C819D8195838483198218821B821A8207
:10311000E5CF0F931F93CF93DF93EC0188819981C3
:10312000009759F02A813B812617370730F081E05C
:10313000DF91CF911F910F9108958B016F5F7F4FAA
:103140000E945031009759F0998388831B830A832A
:103150002C813D81232B59F7FC011082E8CF80E0C0
:10316000E7CFEF92FF920F931F93CF93DF93EC0182
:103170008B016115710551F0CB010E947F297C0103
:10318000BC01CE010E94891881110BC0CE010E94A2
:10319000FC16CE01DF91CF911F910F91FF90EF9020
:1031A0000895FD82EC82B801888199810E94782976
:1031B000F0CFEF92FF921F93CF93DF9300D000D018
:1031C00000D0CDB7DEB77B011A8219821C821B8228
:1031D0001E821D8267EE71E0CE0101960E94B11839
:1031E000F701248135818D819E812817390749F4A3
:1031F000BE016F5F7F4FC7010E94231811E0892B2A
:1032000009F010E0CE0101960E940E171123F1F093
:1032100080918D0390918E03A0918F03B0919003C4
:10322000B0588093910390939203A0939303B0932B
:103230009403812F26960FB6F894DEBF0FBECDBF44
:10324000DF91CF911F91FF90EF9008951A8219821C
:103250001C821B821E821D8264EE71E0CE010196EB
:103260000E94B118F701248135818D819E81281734
:10327000390751F4BE016F5F7F4FC7010E942318C9
:1032800011E0892B09F010E0CE0101960E940E1783
:10329000112379F2109291031092920310929303EA
:1032A00010929403C6CFEF92FF920F931F93CF9388
:1032B000DF93EC017B018A01BA010E948918811118
:1032C0000BC0CE010E94FC16CE01DF91CF911F9161
:1032D0000F91FF90EF9008951D830C83B7018881B3
:1032E00099810E942B32F0CFFC011182108213824F
:1032F0001282158214826115710551F0FB01019053
:103300000020E9F73197AF01461B570B0C94531976
:103310000895CF93DF93EC016FEE71E00E94741972
:10332000CE01DF91CF910895EF92FF920F931F93FB
:10333000CF93DF93CDB7DEB7A1970FB6F894DEBF7A
:103340000FBECDBF7C01CB01BA01F7011182108203
:10335000138212821582148242E0420F8E010F5FA7
:103360001F4F0E945A290097C9F0FC0101900020CC
:10337000E9F73197AF01481B590BBC01C7010E9407
:103380005319A1960FB6F894DEBF0FBECDBFDF91E3
:10339000CF911F910F91FF90EF900895C7010E9468
:1033A000FC16EFCFCF92DF92EF92FF921F93CF9355
:1033B000DF93CDB7DEB72C970FB6F894DEBF0FBE04
:1033C000CDBF7C016B016FEE71E0CE0107960E94CC
:1033D000741910E08B859C85059750F52091910319
:1033E00030919203409193035091940360918D0327
:1033F00070918E0380918F03909190030E94312DE4
:1034000020E030E04AE754E40E949D2DAB01BC016E
:10341000212FCE0101960E949419BE016F5F7F4F4C
:10342000CE0107960E945018CE0101960E940E17F9
:103430001F5F133079F62CEE31E0AE01495F5F4F2C
:10344000B601C7010E948016CE0107960E940E1792
:103450002C960FB6F894DEBF0FBECDBFDF91CF9193
:103460001F91FF90EF90DF90CF900895CF92DF9261
:10347000EF92FF921F93CF93DF93CDB7DEB72C97D8
:103480000FB6F894DEBF0FBECDBF7C016B016FEEAF
:1034900071E0CE0107960E94741910E08B859C851F
:1034A000059750F520919103309192034091930339
:1034B0005091940360918D0370918E0380918F03DE
:1034C000909190030E94312D27E535E148E159E3C1
:1034D0000E94252CAB01BC01212FCE0101960E9438
:1034E0009419BE016F5F7F4FCE0107960E9450185E
:1034F000CE0101960E940E171F5F133079F62EE160
:1035000032E0AE01495F5F4FB601C7010E948016ED
:10351000CE0107960E940E172C960FB6F894DEBFC8
:103520000FBECDBFDF91CF911F91FF90EF90DF9045
:10353000CF9008950E940D3285ED8093BC0080915C
:10354000960290919702A0919802B09199020796E5
:10355000A11DB11D23E0B695A795979587952A954E
:10356000D1F72091BC0024FD03C01092940208956D
:103570004091960250919702609198027091990241
:10358000452B462B472B69F30097A105B10541F068
:103590002AE22A95F1F700C00197A109B109E1CF0C
:1035A000809195020C94B4070F931F93CF93DF93F0
:1035B000EC018B0188819981803A2FE0920748F4D1
:1035C0000E94E32CF8018083888199810196998378
:1035D0008883C801DF91CF911F910F910895CF93F8
:1035E000DF93EC0188819981803A2FE0920738F4CB
:1035F0000E94EB2C88819981019699838883DF91C1
:10360000CF9108951F920F920FB60F9211242F930E
:103610003F934F935F936F937F938F939F93AF935A
:10362000BF93EF93FF938EE993E00E943106FF91E1
:10363000EF91BF91AF919F918F917F916F915F912A
:103640004F913F912F910F900FBE0F901F901895A3
:103650001F920F920FB60F9211242F938F939F9367
:10366000EF93FF93E091AE03F091AF038081E0917F
:10367000B403F091B50382FD1BC090818091B70324
:103680008F5F8F732091B803821741F0E091B703E9
:10369000F0E0E256FC4F958F8093B703FF91EF91D6
:1036A0009F918F912F910F900FBE0F901F901895A3
:1036B0008081F4CF1F920F920FB60F9211242F9397
:1036C0003F938F939F93AF93BF93809161029091AB
:1036D0006202A0916302B09164023091600223E023
:1036E000230F2D3758F50196A11DB11D20936002BF
:1036F0008093610290936202A0936302B09364028C
:103700008091650290916602A0916702B091680273
:103710000196A11DB11D8093650290936602A0934E
:103720006702B0936802BF91AF919F918F913F91D3
:103730002F910F900FBE0F901F90189526E8230F22
:103740000296A11DB11DD2CF1F920F920FB60F92FC
:1037500011242F933F934F935F936F937F938F9396
:103760009F93AF93BF93EF93FF938091B900887FAE
:10377000803609F44AC0F0F5883209F4A7C018F57C
:10378000803109F49BC0B8F4882309F4F9C088306B
:1037900009F494C0FF91EF91BF91AF919F918F91E8
:1037A0007F916F915F914F913F912F910F900FBE3D
:1037B0000F901F901895883109F488C0803251F716
:1037C0008093920214C0803409F49DC040F4803389
:1037D000B9F38833F9F68093920285ECB0C0803556
:1037E00009F485C0883509F496C0883499F60E949A
:1037F0009C1AD0CF883909F48CC038F5883729F065
:1038000050F4883611F0803729F683E080939402D3
:1038100010925F0257C0883809F47BC0803919F0D4
:10382000803809F0B7CF80915F02803208F071C014
:10383000E0915F0281E08E0F80935F028091BB0078
:10384000F0E0E15CFD4F80833DC0803B39F0E0F467
:10385000803A09F479C0883A09F09CCF84E08093DB
:10386000940210923E0210923D02E0916C02F0919F
:103870006D02099580913D0281110FC081E0809316
:103880003D0210921D0209C0803C09F4A6CF883C7D
:1038900009F4A3CF883B09F07DCFE0913E0281E09F
:1038A0008E0F80933E02F0E0E35EFD4F80818093B7
:1038B000BB0090913E0280913D0229C080918F0211
:1038C0008093BB0085EC8093BC0064CF9091910203
:1038D00080919002981758F5E091910281E08E0F47
:1038E00080939102F0E0E259FD4F8081E9CFE091B1
:1038F000910281E08E0F809391028091BB00F0E0F5
:10390000E259FD4F80839091910280919002981727
:10391000C8F285E8D8CFE091910281E08E0F8093C4
:1039200091028091BB00F0E0E259FD4F80838091CD
:10393000930281115CCF81E080938E0284EA8093B0
:10394000BC001092940226CF85EC8093BC001092AC
:10395000940280915F02803230F4E0915F02F0E0E7
:10396000E15CFD4F108260915F0270E0E0916A02BD
:10397000F0916B028FE392E0099510925F020ACFFB
:103980001092920234CF1F920F920FB60F92112411
:103990004F925F926F927F928F929F92AF92BF925F
:1039A000CF92DF92EF92FF920F931F932F933F934B
:1039B0004F935F936F937F938F939F93AF93BF9337
:1039C000EF93FF93CF93DF93CDB7DEB76E97DEBF54
:1039D000CDBF7894809170008D7F8093700074E0EB
:1039E000672E712C80914B0590914C05DC01ED9177
:1039F000FC910084F185E02D0995059784F07E8E79
:103A00006D8E80914B0590914C05BE01635E7F4F9A
:103A10000E949A0A8A3A910571F197FFF2CF80913C
:103A200070008260809370006E960FB6F894DEBFCF
:103A30000FBECDBFDF91CF91FF91EF91BF91AF91BD
:103A40009F918F917F916F915F914F913F912F91B6
:103A50001F910F91FF90EF90DF90CF90BF90AF90AC
:103A60009F908F907F906F905F904F900F900FBEC0
:103A70000F901F90189580914B0590914C05BE01B9
:103A8000635E7F4F0E949A0A7C0197FDABCF8091C5
:103A90004B0590914C05BE01635E7F4F0E949A0AD0
:103AA0006C0197FF04C0E114F10409F09BCF8091F1
:103AB0004B0590914C05BE01635E7F4F0E949A0AB0
:103AC0004C0197FD8FCF80914B0590914C05BE0125
:103AD000635E7F4F0E949A0A5C0197FD83CF8091BD
:103AE0004B0590914C05BE01635E7F4F0E949A0A80
:103AF0008C0197FD77CFE114F10431F080914D05F1
:103B00008E151F0409F06ECFC114D10431F08091DD
:103B10004E058C151D0409F065CF4E2C5C2C982C9D
:103B20008C2D8E259AEA892788268A2480268091E2
:103B30004B0590914C0501151105B9F09E01235ECE
:103B40003F4FA801FE0131963F01BF010E942B0AA1
:103B50000817190709F063CFF30181918826CF0177
:103B60008619970980179107C4F380914B059091AE
:103B70004C05BE01635E7F4F0E949A0A97FD4FCFAE
:103B80008816190609F04BCFE114F10431F0809149
:103B90004D058E151F0409F042CFC114D10431F038
:103BA00080914E058C151D0409F039CFF1E09F126C
:103BB0004DC080914D05481203C081E0511001C0F5
:103BC00080E0909199059093510591E09093910533
:103BD00081112EC180914B0590914C05DC01ED9136
:103BE000FC910190F081E02D6A2D099580914B05A3
:103BF00090914C0560919105DC01ED91FC91019053
:103C0000F081E02D099580914B0590914C054091F4
:103C1000910550E0DC01ED91FC910280F381E02DF3
:103C200061E575E00995609191056A2590E080E075
:103C3000209191052817190609F00CF4B1C1FC0177
:103C4000EF5AFA4F208162270196F2CF62E0961276
:103C500014C02981422F50E090E080E0841795073E
:103C60004CF4FC01E95FFA4F3081E65BFF4F308393
:103C70000196F4CF20939105ADCF73E097121BC04E
:103C800011278FE080935105FE01319690E080E08E
:103C90008017910751F0DC01A95FBA4F3C91219147
:103CA000321739F08AEA8093510581E080939105BB
:103CB00091CF0196EDCF84E0981221C01A810B813B
:103CC00080914E059981981303C010929105A7CE5B
:103CD0000E94FA0965E60E94CF2F091768F08091CB
:103CE000A7059091A8059A8B898B612FCE014196EB
:103CF0000E94EF1A10934D05109291056BCFA6E02C
:103D00009A1203C080914E05CECFB5E09B1203C03E
:103D100010929D05F1CFEDE09E1214C0898190E0D4
:103D2000880F991F20919B0530919C05820F931F4E
:103D3000DC01ED91FC9182818093510581E08093BB
:103D4000910576C0B9E09B1217C0FE01319690E054
:103D500080E011278017910744F42191DC01A95FCD
:103D6000BA4F50962C930196F5CF095F1A4FF80180
:103D7000108A109291055CC0FAE09F1216C0FE01F5
:103D8000319690E080E011278017910744F421914B
:103D9000DC01A95FBA4F9A962C930196F5CF095F83
:103DA0001A4FD8019A961C92E4CFBBE09B126FC0C9
:103DB00019811092300510924A0567E175E0CE0135
:103DC00047960E94741961E375E0CE0141960E9406
:103DD0007419812F90E02091990530919A058217EE
:103DE000930708F052C0880F991F20919B053091CE
:103DF0009C05820F931FFC0180819181DC01ED9174
:103E0000FC910190F081E02DAE014F5E5F4FBE014D
:103E1000695E7F4F09958093510581E080939105FC
:103E2000CE0141960E940E17CE0147960E940E17B2
:103E300080919D0581110DC0E091A105F091A20531
:103E4000309721F081E080939D05099581E0809372
:103E50009D0580919E058111BDCE8091A705909111
:103E6000A80502969A8B898B67E3CE0141960E9442
:103E7000EF1A81E080939E05E091A305F091A405DF
:103E8000309709F4A7CE0995A5CE80E0C4CFBCE059
:103E90009B1240C019811092300567E175E0CE0198
:103EA00047960E947419812F90E0880F991F2091E6
:103EB0009B0530919C05820F931FFC0160817181ED
:103EC000DB01ED91FC910280F381E02DAE01495EB2
:103ED0005F4FCE01419609954D8969897A89242FD2
:103EE0003E8990E080E08217930789F0FB01E80F9C
:103EF000F91F6115710521F41092FA01EAEFF1E062
:103F00005081FC01EF5AFA4F50830196ECCF409359
:103F1000910586CFB8E09B1222C080914F05909109
:103F2000500501969093500580934F05898190E04C
:103F3000880F991F20919B0530919C05820F931F3C
:103F4000FC01808191814A815B816C817D81DC01F2
:103F5000ED91FC910488F589E02D09950ACFB7E031
:103F60009B1238CE898190E0880F991F20919B0584
:103F700030919C05820F931FFC0180819181DC01AF
:103F8000ED91FC91008CF18DE02D09956093510528
:103F900070935205809353059093540584E0CFCEDF
:103FA00080914B0590914C05DC01ED91FC910190C5
:103FB000F081E02D099533CDFC0124813581232B3F
:103FC00039F421E0FB018081882349F020E007C01B
:103FD000808191810E94223221E0892BB9F7822FC2
:103FE0000895CF93DF9300D000D000D0CDB7DEB7D7
:103FF00026E636E030935304209352042AE939E34D
:10400000309355042093540428E22093470440E859
:104010005EEF69EC77EC4093480450934904609359
:104020004A0470934B0440E85EEF69EC77E44093F8
:104030004C0450934D0460934E0470934F041A82C5
:1040400019821C821B821E821D82FC01608171818B
:104050006115710531F044815581CE0101960E94B0
:10406000531968EE71E0CE0101960E94DC1F88238F
:1040700089F01092510410925004CE0101960E94D2
:104080000E1726960FB6F894DEBF0FBECDBFDF9198
:10409000CF9108956DEE71E0CE0101960E94DC1F74
:1040A000882339F081E090E090935104809350048C
:1040B000E4CF6CEE71E0CE0101960E94DC1F8823F4
:1040C00019F082E090E0F0CF60EF71E0CE01019650
:1040D0000E94DC1F882319F083E090E0E5CF64EFB5
:1040E00071E0CE0101960E94DC1F882319F084E064
:1040F00090E0DACF65EF71E0CE0101960E94DC1FFF
:10410000882319F085E090E0CFCF86E090E0CCCF17
:10411000CF93DF9300D000D000D0CDB7DEB7EEE96B
:10412000F3E01382128248EE53E060E070E04483D3
:1041300055836683778386E391E09183808385EC62
:1041400090E09587848784EC90E09787868780EC61
:1041500090E0918B808B81EC90E0938B828B82EC52
:1041600090E0958B848B86EC90E0978B868B118EFC
:10417000128E138E148EABE3B4E013961C921E9233
:10418000129714964D935D936D937C93179788E4E3
:1041900091E011969C938E9310924D0510924E05CE
:1041A0001092500510924F051092920510929305AF
:1041B000109294051092960510929805109297050A
:1041C00010929A051092990510929C0510929B05E9
:1041D00010929D0510929E051092A00510929F05C9
:1041E0001092A2051092A1051092A4051092A305A9
:1041F0001092A6051092A5051092A8051092A70589
:10420000EEE5F4E01382128220E830E03583248367
:1042100080E290E097838683318720879387828727
:10422000168A158614861786168681E0858B848B00
:104230002FEF3FEF338B228B318B208B878B108EB0
:10424000128E118E148E138EB68FA58F10A2178E1C
:104250008FEF84A385A386A387A380A780E89AE134
:10426000A6E0B0E085AB96ABA7ABB0AF80EA96E82E
:10427000A1E0B0E081AF92AFA3AFB4AF80E586AF6D
:1042800017AE8AE591E09183808388EB9BE0909361
:104290009F0480939E0484E690E09093A104809311
:1042A000A0041092A3041092A2043093A5042093BA
:1042B000A4041092A6041092A7041092A8041092CD
:1042C000A9041092AA041092AB041092AC041092AC
:1042D000AD041092AE041092AF041092B00410928C
:1042E000B1041092B2041092B3041092B40410926C
:1042F000B5041092B6041092B7041092B80410924C
:10430000B90480E2E6E0F1E0AAEBB4E001900D929E
:104310008A95E1F71092DA046DEE71E0CE01019614
:104320000E947419CE0101960E94F11FCE010196E0
:104330000E940E178FEE94E00E948817EFEEF4E0D3
:10434000148A158A168A178A8AEC91E091838083F1
:104350008FE2828326960FB6F894DEBF0FBECDBFE4
:10436000DF91CF910895CF93DF93CDB7DEB72B9731
:104370000FB6F894DEBF0FBECDBF789484B58260CF
:1043800084BD84B5816084BD85B5826085BD85B5F9
:10439000816085BD80916E00816080936E00109277
:1043A00081008091810082608093810080918100F2
:1043B0008160809381008091800081608093800083
:1043C0008091B10084608093B1008091B0008160E1
:1043D0008093B00080917A00846080937A0080910D
:1043E0007A00826080937A0080917A008160809365
:1043F0007A0080917A00806880937A001092C100E0
:10440000E091AE03F091AF0382E08083E091AA03D4
:10441000F091AB031082E091AC03F091AD0380E129
:1044200080831092B603E091B203F091B30386E06B
:104430008083E091B003F091B1038081806180833B
:10444000E091B003F091B103808188608083E091B6
:10445000B003F091B103808180688083E091B00364
:10446000F091B10380818F7D808300919905109137
:104470009A05E0909705F09098050E151F05B9F57F
:10448000C8010896811520E49207C8F4880F991F87
:104490000097C1F00E942B306C0180919B05909198
:1044A0009C05DC01F60130E020E02017310769F0BF
:1044B0004D915D91419351932F5F3F4FF6CF8FEF19
:1044C0009FEFE8CF81E090E0E5CF1E141F0414F4C5
:1044D0000E94C730D0929C05C0929B0580919705A1
:1044E00090919805089690939805809397058091F0
:1044F000990590919A0520919B0530919C059C010E
:10450000220F331FE0919B05F0919C05E20FF31FF2
:104510002FEE34E031832083019690939A058093A7
:1045200099058EE993E090934C0580934B0510E03C
:1045300000E00E94FA09F801E95FFA4F80830F5FFB
:104540001F4F00311105A9F78091A7059091A8058B
:104550009C838B8380914D058F8380914E058E8344
:10456000BE01695F7F4FCE0103960E94D41ABE013F
:104570006A5F7F4FCE0103960E94D41A8E8180938A
:104580004E058F8180934D0580914D058A3F18F02F
:104590008FEF80934D051D82BE016B5F7F4FCE0173
:1045A00003960E94D41A8D81873319F481E0809399
:1045B0009E0580914D05882321F080914D058F3F08
:1045C000B1F40E94FA0990E069EF70E00E94DB2FDD
:1045D00011E0180F8091A7059091A8059A8389830F
:1045E000612FCE0101960E94EF1A10934D05809124
:1045F0004E05882321F080914E058F3FB9F40E942B
:10460000FA0990E069EF70E00E94DB2F11E0180FCB
:104610008091A7059091A80501969A838983612FBF
:10462000CE0101960E94EF1A10934E0582E080930E
:10463000B00086E08093B1008DE78093B300809155
:10464000700082608093700080917D0490917E0460
:10465000892B09F483C00E94031882E080938004B0
:1046600080917B0490917C04892B09F081C1809119
:1046700084040E946F05809185040E946F058091DB
:104680008404082E000C990BFC01EB50F84FE491C8
:10469000F0E0EE0FFF1FEF51F84F2591349130936A
:1046A0008C0420938B04FC01E75FF74FE491E093C7
:1046B000910480918504082E000C990BFC01EB50AD
:1046C000F84FE491F0E0EE0FFF1FEF51F84FA59186
:1046D000B491B0938E04A0938D04FC01E75FF74F73
:1046E000E491E09392048C91E82BEC93809179040F
:1046F00090917A04892B09F419C21FB7F89480911C
:104700006902811124C0EFEFF7E08491E3E1F8E062
:104710009491E82FF0E0EE0FFF1FE551F84FA591BF
:10472000B491EC91E92321F461E08AE00E94C00693
:104730008AE00E946F058CB580618CBD8CB5806469
:104740008CBD8DE00E946F058BE00E946F0580910B
:1047500069028F5F809369021FBF23C120916404A7
:1047600030916504C901079697FD079673E095950A
:1047700087957A95E1F72091620430916304AC014A
:10478000429FC001439F900D529F900D11240E94A3
:104790002B3090937E0480937D04892B09F05BCFAE
:1047A0000E94031861E070E080E090E00E94310711
:1047B00062E08EE594E00E947D1050E040E06FE200
:1047C00070E08CE797E00E94090D0E94F50E60ED05
:1047D00077E080E090E00E9431078091A204909100
:1047E000A304FC01EE0FFF1FE552FB4F22ED39E160
:1047F00031832083FC01EE0FFF1FE352FB4F26E3C2
:104800003AE13183208302969093A3048093A2041B
:104810005A9A0E94630712E0969587957795679557
:104820001A95D1F76093890370938A0380938B0361
:1048300090938C034A9BF2C1109299030E946307E4
:104840000E946307E2E09695879577956795EA95CC
:10485000D1F7C0908903D0908A03E0908B03F09049
:104860008C039B01AC012C193D094E095F09288777
:1048700039874A875B87812C912C540188859985DB
:10488000AA85BB8588169906AA06BB060CF03AC312
:10489000009147040E940C076B017C0180919402F7
:1048A000811106C291E09093940290939302AFEF2E
:1048B000A0939202109291029093900290938F0293
:1048C00080918F02000F082B00938F0280918E023F
:1048D000813009F038C210928E020E940C076B01E1
:1048E0007C0180918F028093BB0080919602909111
:1048F0009702A0919802B0919902892B8A2B8B2B59
:10490000A1F00E940C074090960250909702609090
:104910009802709099026C197D098E099F094616BC
:1049200057066806790608F4E4C18091BC0083FD4F
:10493000D8CFB5ECB093BC000E940C076B017C0192
:1049400080919402813009F402C28091910202E0C8
:10495000823010F400919102EEE6F2E0ACE9B2E0B0
:1049600080E0801709F4CAC191919D938F5FF9CFC0
:104970008CE380937F0410929B0210929A02109213
:104980009B0310929A030E9496078EED95E09093F8
:104990006D0280936C028FED95E090936B02809393
:1049A0006A028091860487FD1DC00E946F0561E048
:1049B000809186040E94C00661E070E080E090E093
:1049C0000E94310760E0809186040E94C0066AE080
:1049D00070E080E090E00E94310761E08091860401
:1049E0000E94C00680917B0490917C04892B09F47D
:1049F000DEC020919304309194044091950450912D
:104A0000960460E074E284EF90E00E94EF2F205162
:104A100031094109510956954795379527952093B6
:104A2000B80064E088E797E00E94DB0D60916404C1
:104A300061508EE594E00E94900E64E084E797E078
:104A40000E94DB0D8091800460E1813009F064E117
:104A50008EE594E00E94900E64E080E797E00E946B
:104A6000DB0D8FE880939B04809162049091630436
:104A70008038910509F0B4C0809164049091650478
:104A80008034910509F0BCC080918004813009F028
:104A9000A5C08FE980939B0412E16AED8EE594E056
:104AA0000E94900E612F8EE594E00E94900E61E8C6
:104AB0008EE594E00E94900E60919B048EE594E058
:104AC0000E94900E69ED8EE594E00E94900E809118
:104AD000800462E2813009F061EF8EE594E00E948B
:104AE000900E66E08AE697E00E94DB0D80917B04E1
:104AF00090917C04892B09F487C020919704309110
:104B000098044091990450919A0460E074E284EF13
:104B100090E00E94EF2F205131094109510956952B
:104B20004795379527952093B8003ACE8091820417
:104B30000E946F05809183040E946F05809182041A
:104B4000082E000C990BFC01EB50F84FE491F0E0BB
:104B5000EE0FFF1FEF51F84F2591349130938804E9
:104B600020938704FC01E75FF74FE491E0938F0403
:104B700080918304082E000C990BFC01EB50F84F38
:104B8000E491F0E0EE0FFF1FEF51F84FA591B491C3
:104B9000B0938A04A0938904FC01E75FF74FE49186
:104BA000E09390048C91E095E823EC93FACE809109
:104BB000790490917A04892B31F080919C04909132
:104BC0009D040E94F20EE0918D04F0918E0490817C
:104BD0008091920480958923808323CF8FEC5ACFD4
:104BE0008036910569F48091640490916504409742
:104BF00039F480918004813029F480E180939B0412
:104C000012E04BCF8FEAFACFE0918D04F0918E0441
:104C1000808190919204892B8083C2CD80919903E9
:104C200081110AC00E9463076093950370939603F5
:104C300080939703909398030E946307C090950315
:104C4000D0909603E0909703F09098036C197D093B
:104C50008E099F09693B7B408105910560F01092A8
:104C6000910310929203109293031092940381E0A7
:104C700080939903E3CD0E9463076C197D098E0927
:104C80009F09633371058105910588F380918D0338
:104C900090918E03A0918F03B0919003B0588093B0
:104CA000910390939203A0939303B0939403DFCF67
:104CB0008091960290919702A0919802B0919902EA
:104CC000892B8A2B8B2B09F4E9CD0E940C0740908D
:104CD00096025090970260909802709099026C1919
:104CE0007D098E099F09461657066806790608F061
:104CF000D5CD809195020E94B40700E010929B02EE
:104D000000939A0280919B02081709F442C08BE33A
:104D100094E00E94E5077C018BE394E00E94E507A4
:104D2000970156E0359527955A95E1F7237033277B
:104D300030935704209356049E2D9F7390935904EB
:104D400080935804DFCFE5EEE093BC00F5CD809171
:104D5000960290919702A0919802B0919902892BA6
:104D60008A2B8B2B09F4ECCD0E940C074090960205
:104D70005090970260909802709099026C197D098A
:104D80008E099F09461657066806790608F0D8CDA1
:104D9000B0CF609158047091590400915204109161
:104DA00053042090540430905504412C512C32016E
:104DB0006017710760F02616370608F4B101601B12
:104DC000710B90E080E00E94C42B2B013C01C0904D
:104DD0004804D0904904E0904A04F0904B04A701A5
:104DE000960160914C0470914D0480914E04909115
:104DF0004F040E94302DA30192010E94252C2B010B
:104E00003C01201A310AB10190E080E00E94C42BDD
:104E10009B01AC01C301B2010E949D2DA701960127
:104E20000E94312D2B013C0140925A0450925B04A8
:104E300060925C0470925D0400918803F4E00F02BC
:104E4000C00111249C0120543D4F7901D9012D91BD
:104E50003D914D915C916091BC027091BD02809139
:104E6000BE029091BF020E94302DA30192010E94C8
:104E7000312D6093BC027093BD028093BE0290936B
:104E8000BF02F70140825182628273820F5F023358
:104E9000B4F50093880320E030E048E452E40E9437
:104EA0009D2D60938D0370938E0380938F03909359
:104EB000900320919103309192034091930350917C
:104EC00094030E94312D6093030570930405809331
:104ED0000505909306056093F7047093F80480939A
:104EE000F9049093FA0461E070E080E090E00E94A1
:104EF0003107FFEF8F1A9F0AAF0ABF0ABFCC10928B
:104F00008803C9CF6091890370918A0380918B03D4
:104F100090918C03288539854A855B85620F731FC4
:104F2000841F951F6093890370938A0380938B037A
:104F300090938C036091A2047091A3041616170637
:104F40000CF095C08091DA048111CFC0C090B204FA
:104F5000D090B304E090B404F090B50420E030E0C9
:104F600040E05FE3C701B6010E94BF2B18160CF4A6
:104F70008DC0A7019601C701B6010E94312DA7017E
:104F800096010E94252C6B017C01AC019B0160E025
:104F900070E080E89FE30E94302D20E030E0A9011E
:104FA0000E94252C4B015C0120E030E04EEF52ECDA
:104FB000C701B6010E94252C9B01AC01C501B401BB
:104FC0000E94312D0E940F2E6B010E940318209128
:104FD000A4043091A50437FD0CC0220F331FF90142
:104FE000E552FB4F0190F081E02D70E060E0C601DA
:104FF00009953FE7C30ED11C8091A4049091A504AC
:1050000001966091A2047091A3040E94DB2FFC0121
:10501000EE0FFF1FE552FB4F0190F081E02D70E095
:1050200060E0C60109950E9460140E94F50E2DEC07
:105030003CEC4CE45DE36091B2047091B304809168
:10504000B4049091B5040E94312D6B017C012EEACD
:1050500037E441E85FE30E94452E1816C4F1C09280
:10506000B204D092B304E092B404F092B5040E946A
:10507000630780E090E0892B09F4DCCB0E941D06D9
:10508000882309F4D7CB0E940000D4CB20E030E085
:1050900040E05FE3C701B6010E94302D20E030E020
:1050A00040E05FE30E944A2E23EF34E045E35FE3F4
:1050B0000E949D2D20E030E040E05FE30E94252C1F
:1050C00020E030E040E05FE30E94312D5CCF1092A1
:1050D000B2041092B3041092B4041092B5048091FB
:1050E000DA048F5F8093DA04C2CF8130C9F5613072
:1050F000710591F18091A4049091A50401960E94FC
:10510000DB2FFC01EE0FFF1FE552FB4F0190F081FA
:10511000E02D70E060E090E080E009950E9460146E
:105120000E94F50E8091DA048F5F8093DA040E946A
:1051300063076093AA047093AB048093AC049093CC
:10514000AD040E9463076093AE047093AF04809334
:10515000B0049093B1048BCF42E04093DA0487CF40
:10516000823009F084CF0E946307C090AA04D090D7
:10517000AB04E090AC04F090AD04AB01BC014C1961
:105180005D096E097F0980919E0490919F04092E0C
:10519000000CAA0BBB0B84179507A607B707A8F44A
:1051A0006091A2047091A3046230710574F01092B2
:1051B000DA048091A4049091A50401960E94DB2F4B
:1051C0009093A5048093A40452CF0E946307C090DB
:1051D000AE04D090AF04E090B004F090B104AB0105
:1051E000BC014C195D096E097F098091A004909162
:1051F000A104092E000CAA0BBB0B84179507A60768
:10520000B70708F034CF0E9463076093AE04709331
:10521000AF048093B0049093B1040E94031880916E
:10522000A4049091A50401966091A2047091A30436
:105230000E94DB2FFC01EE0FFF1FE552FB4F019098
:10524000F081E02D70E060E090E080E009950E9440
:1052500060140E94F50E0BCF86E891E09093F00465
:105260008093EF048091F2049091F304892B21F054
:105270008FEE94E00E9416178AE591E090935F0408
:1052800080935E0480917D0490917E04009711F0DC
:105290000E94C730809197059091980518161906BD
:1052A00044F480919B0590919C05009711F00C941B
:1052B000C7300895EF920F931F93CF93DF93E801C8
:1052C00034E047FD34E1042E000C550B57FF03C0BA
:1052D000519541955109E32E022F242FAE010E94D2
:1052E0008829CE01DF91CF911F910F91EF90089502
:1052F000FB01DC0105900D920020E1F70895FC010F
:1053000005900020E9F7809590958E0F9F1F0895D6
:10531000A9E0B0E0EEE8F9E20C94FF2C6A01F22E6D
:10532000B02E102FFBE3AF2EA01608F41BE31F5F77
:10533000012F27E0AE014F5F5F4F0E94E72ABC01BB
:105340008981982F9970913009F43FC09BE2E1FC6C
:1053500004C09E2D9170E0FC3AC05E2D5071E82F84
:10536000E87083FF46C084E0911101C083E0EF2D17
:10537000E81B8F1508F0E0E0D6018E2F20E25523C0
:1053800051F1992329F0D6019C93C60101966C0135
:1053900096012D5F3F4FE2FE24C08EE4D6018C9330
:1053A00091E411969C93119712968C93D9018E2FAC
:1053B00090E281111BC0E20FF32FF11D10828EEFDE
:1053C0009FEF2996ECE00C941B2D9DE2C6CF90E256
:1053D000C4CF2D9381508111FCCFCE0ED11CE0E0C3
:1053E000D0CF8EE6D6018C9391E6DBCF9D93815092
:1053F000E0CF482F447082FF3DC084E0911101C08E
:1054000083E08F1510F4EF2DE81BD6018E2F20E2DC
:10541000552309F1992329F0D6019C93C6010196E1
:105420006C0196012D5F3F4FE2FE1BC089E4D6015F
:105430008C938EE411968C93119786E412968C933C
:10544000D9018E2F90E2882309F4B5CF9D93815026
:10545000FACF2D9381508111FCCFCE0ED11CE0E00C
:10546000D9CF89E6D6018C938EE611968C9311974D
:1054700086E6E4CF9B0177FF02C030E020E0A1E0A8
:10548000B0E0911102C0B0E0A0E0F9013196AE0F9A
:10549000BF1F8B2C912CBB2009F461C05401EFEF8E
:1054A000AE1ABE0AAA0DBB1DFA161B0619F014F09F
:1054B0004F2D4A1B511188C0E3FC59C07601A42F1F
:1054C000B0E2A1114FC0C40ED11C992309F45BC0F6
:1054D00040E0D6011196F60190836D01552309F441
:1054E00048C0012F060F9A81582F507184FF03C0C6
:1054F000913309F4015010160CF047C0093008F040
:1055000008E0EEE2FE2E5B01A01AB108850191943D
:10551000819491082F3F320729F4D601FC92F601BD
:1055200031966F016217730794F1021713077CF528
:10553000DB01A21BB30BAA24A394B12CAC0EBD1E9D
:10554000AA0DBB1D11968C9121503109D6011196DF
:1055500028153905F4F0F60180836D01DBCFB12CFD
:10556000A12CA0CFF701B1937F01A150AACF911137
:10557000B0CFD601942F50E302C05D9391509111AA
:10558000FCCFC40ED11C40E0ACCF01E0BACF80E329
:10559000DBCF6217730731F4963388F4953311F437
:1055A000552369F0F6018083FD01842F90E281117B
:1055B00008C0A40FB11D1C9290E080E002CF81E3EF
:1055C000F1CF91938150F3CF911183CF8ACF2830BF
:1055D00008F027E03327DA01990F311D87FD91602C
:1055E00000966105710539F432602E5F3D9330E31A
:1055F0002A95E1F708959F3F30F0803871056105E5
:1056000009F03C5F3C5F3D93913008F08068911D4C
:10561000DF93CF931F930F93FF92EF92192F987FF1
:105620009695E92F96959695E90FFF27EC5BFE4F2F
:1056300099273327EE24FF24A701E701059008945A
:10564000079428F4360FE71EF81E491F511D660FF8
:10565000771F881F991F0694A1F70590079428F4D7
:10566000E70EF81E491F561FC11D770F881F991F8F
:10567000661F0694A1F70590079428F4F80E491FB9
:10568000561FC71FD11D880F991F661F771F0694CD
:10569000A1F70590079420F4490F561FC71FD81F84
:1056A000990F661F771F881F0694A9F7849110959C
:1056B000177041F0D695C79557954795F794E7949D
:1056C0001A95C1F7EAEEF0E06894159015913591BE
:1056D0006591959105907FE27395E118F10A430B6E
:1056E000560BC90BD009C0F7E10CF11E431F561F22
:1056F000C91FD01D7EF4703311F48A95E6CFE8946B
:10570000015030F0080F0AF40027021708F4202F88
:105710002395022F7A3328F079E37D932A95E9F7D0
:1057200010C07D932A9589F60694979567953795CD
:1057300017951794E118F10A430B560BC90BD009C2
:1057400098F023957E9173957A3308F070E37C93FB
:105750002013B8F77E9170617D9330F0839571E3EB
:105760007D9370E32A95E1F71124EF90FF900F915C
:105770001F91CF91DF91992787FD909508950E9401
:10578000012C08F481E00895E89409C097FB3EF4E9
:1057900090958095709561957F4F8F4F9F4F99237E
:1057A000A9F0F92F96E9BB279395F69587957795FC
:1057B0006795B795F111F8CFFAF4BB0F11F460FFBC
:1057C0001BC06F5F7F4F8F4F9F4F16C0882311F014
:1057D00096E911C0772321F09EE8872F762F05C028
:1057E000662371F096E8862F70E060E02AF09A95C3
:1057F000660F771F881FDAF7880F9695879597F9B8
:105800000895990F0008550FAA0BE0E8FEEF161651
:105810001706E807F907C0F012161306E407F507A4
:1058200098F0621B730B840B950B39F40A2661F018
:10583000232B242B252B21F408950A2609F4A140BB
:10584000A6958FEF811D811D08950E94382C0C9420
:10585000A92C0E949B2C38F00E94A22C20F09523AA
:1058600011F00C94922C0C94982C11240C94DD2C97
:105870000E94BA2C70F3959FC1F3950F50E0551F0D
:10588000629FF001729FBB27F00DB11D639FAA2795
:10589000F00DB11DAA1F649F6627B00DA11D661FE4
:1058A000829F2227B00DA11D621F739FB00DA11D05
:1058B000621F839FA00D611D221F749F3327A00DBF
:1058C000611D231F849F600D211D822F762F6A2F5B
:1058D00011249F5750409AF0F1F088234AF0EE0FC0
:1058E000FF1FBB1F661F771F881F91505040A9F7ED
:1058F0009E3F510580F00C94922C0C94DD2C5F3F60
:10590000E4F3983ED4F3869577956795B795F79528
:10591000E7959F5FC1F7FE2B880F911D96958795A0
:1059200097F9089597F99F6780E870E060E008951F
:105930009FEF80EC089500240A94161617061806A7
:105940000906089500240A94121613061406050683
:105950000895092E0394000C11F4882352F0BB0F14
:1059600040F4BF2B11F460FF04C06F5F7F4F8F4F77
:105970009F4F089557FD9058440F551F59F05F3FB2
:1059800071F04795880F97FB991F61F09F3F79F061
:1059900087950895121613061406551FF2CF4695E3
:1059A000F1DF08C0161617061806991FF1CF869565
:1059B0007105610508940895E894BB276627772749
:1059C000CB0197F90895F999FECF92BD81BDF89A60
:1059D000992780B50895262FF999FECF1FBA92BD59
:1059E00081BD20BD0FB6F894FA9AF99A0FBE0196C0
:1059F00008952F923F924F925F926F927F928F9273
:105A00009F92AF92BF92CF92DF92EF92FF920F934D
:105A10001F93CF93DF93CDB7DEB7CA1BDB0B0FB657
:105A2000F894DEBF0FBECDBF09942A883988488814
:105A30005F846E847D848C849B84AA84B984C884AA
:105A4000DF80EE80FD800C811B81AA81B981CE0FA1
:105A5000D11D0FB6F894DEBF0FBECDBFED01089586
:105A60005058BB27AA270E94482D0C94A92C0E94AD
:105A70009B2C38F00E94A22C20F039F49F3F19F49F
:105A800026F40C94982C0EF4E095E7FB0C94922CE1
:105A9000E92F0E94BA2C58F3BA17620773078407DC
:105AA000950720F079F4A6F50C94DC2C0EF4E09523
:105AB0000B2EBA2FA02D0B01B90190010C01CA01C8
:105AC000A0011124FF27591B99F0593F50F4503E73
:105AD00068F11A16F040A22F232F342F4427585F65
