:100000000C9469000C9491000C9491000C94910054
:100010000C9491000C9491000C9491000C9491001C
:100020000C9491000C9491000C9491000C949807FE
:100030000C9491000C9491000C9491000C949100FC
:100040000C944E070C9491000C941C070C94F6062B
:100050000C9491000C94B70A0C9491000C949100AC
:100060000C9491000C94910063616C69620074615E
:1000700072650000000000240027002A0000000034
:1000800000250028002B0000000000230026002986
:100090000004040404040404040202020202020331
:1000A000030303030301020408102040800102043B
:1000B00008102001020408102000000008000201BE
:1000C0000000030407000000000000000000E60A32
:1000D000C60A11241FBECFEFD8E0DEBFCDBF24E09B
:1000E000A8EAB1E001C01D92A934B207E1F711E01E
:1000F000A0E0B1E0E2EFF9E202C005900D92A83A6B
:10010000B107D9F710E0C8E6D0E004C02197FE019E
:100110000E94EB12C736D107C9F70E945B0B0C9403
:10012000EC140C940000AF92BF92CF92DF92EF924A
:10013000FF920F931F93CF93DF936C017B018B0191
:10014000040F151FEB015E01AE18BF08C017D107E1
:1001500059F06991D601ED91FC910190F081E02D6B
:10016000C6010995892B79F7C501DF91CF911F91C0
:100170000F91FF90EF90DF90CF90BF90AF900895D8
:10018000FC01448B558B668B778B40875187628748
:100190007387089581E090E09093B4028093B30256
:1001A0000895FC01538D448D252F30E0842F90E07D
:1001B000821B930B541710F0CF9608950197089562
:1001C000FC01918D828D981761F0A28DAE0FBF2F2B
:1001D000B11D5D968C91928D9F5F9F73928F90E081
:1001E00008958FEF9FEF0895FC01918D828D9817F0
:1001F00031F0828DE80FF11D858D90E008958FEF2D
:100200009FEF0895FC01918D228D892F90E0805CF5
:100210009F4F821B91098F73992708958EEE92E06C
:100220000E94020121E0892B09F420E0822F089529
:1002300080E090E0892B29F00E940E0181110C943E
:1002400000000895FC01A48DA80FB92FB11DA35A79
:10025000BF4F2C91848D90E001968F739927848FE6
:10026000A689B7892C93A089B1898C918370806409
:100270008C93938D848D981306C00288F389E02DAA
:1002800080818F7D80830895EF92FF920F931F935B
:10029000CF93DF93EC0181E0888F9B8D8C8D981339
:1002A0001AC0E889F989808185FF15C09FB7F89445
:1002B000EE89FF896083E889F98980818370806491
:1002C00080839FBF81E090E0DF91CF911F910F91DC
:1002D000FF90EF900895F62E0B8D10E00F5F1F4FEB
:1002E0000F731127E02E8C8D8E110CC00FB607FCFA
:1002F000FACFE889F989808185FFF5CFCE010E9488
:100300002201F1CFEB8DEC0FFD2FF11DE35AFF4FD2
:10031000F0829FB7F8940B8FEA89FB898081806215
:10032000CFCFCF93DF93EC01888D8823B9F0AA89D2
:10033000BB89E889F9898C9185FD03C0808186FDA0
:100340000DC00FB607FCF7CF8C9185FFF2CF8081EF
:1003500085FFEDCFCE010E942201E9CFDF91CF9141
:100360000895833081F028F4813099F08230A9F02B
:1003700008958730A9F08830C9F08430B1F48091B5
:1003800080008F7D03C0809180008F7780938000F4
:10039000089584B58F7784BD089584B58F7DFBCF94
:1003A0008091B0008F778093B00008958091B00065
:1003B0008F7DF9CF1F93CF93DF93282F30E0F90182
:1003C000E754FF4F8491F901EB55FF4FD491F901A8
:1003D000EF56FF4FC491CC23A9F0162F81110E9434
:1003E000B101EC2FF0E0EE0FFF1FE358FF4FA59196
:1003F000B4918FB7F894EC91111108C0D095DE2319
:10040000DC938FBFDF91CF911F910895DE2BF8CF42
:10041000CF93DF9390E0FC01EB55FF4F24918F5673
:100420009F4FFC0184918823D1F090E0880F991FA1
:10043000FC01ED58FF4FA591B491FC01E358FF4F2B
:10044000C591D49161110EC09FB7F8948C91E22FA1
:10045000E0958E238C932881E223E8839FBFDF9170
:10046000CF9108958FB7F894EC91E22BEC938FBF66
:10047000F6CF2FB7F8946091AF027091B0028091DF
:10048000B1029091B2022FBF0895FC016489758971
:1004900086899789089508950895CF92DF92EF9203
:1004A000FF92CF93DF93EC01E881F981008CF18D0D
:1004B000E02D0995288939894A895B890E945C1158
:1004C0006B017C01C88AD98AEA8AFB8A6C857D85A2
:1004D0008E859F856F5F7F4F8F4F9F4F6C877D8786
:1004E0008E879F87613071058105910551F00E94CB
:1004F000D70F9B01AC01C701B6010E94C8116B0167
:100500007C01C701B601DF91CF91FF90EF90DF90A2
:10051000CF900895FC01108A118A128A138A1486DA
:100520001586168617860895FC0195819F7071F0D7
:100530000380F481E02D80819181009739F0DC0106
:10054000ED91FC910088F189E02D099460E070E064
:10055000CB010895FC01178208950895CF93DF938E
:10056000EC018F8181110DC0E881F981048CF58D3A
:10057000E02DCE010995688779878A879B8781E07E
:100580008F83688579858A859B85DF91CF910895D2
:10059000CF93DF93EC018F8181110DC0E881F98148
:1005A000008CF18DE02DCE010995688779878A87C7
:1005B0009B8781E08F83688579858A859B85DF911C
:1005C000CF910895FC0195819F7096171706B9F099
:1005D000B4F0660F771F83819481680F791FDB0168
:1005E0008D919C91009759F0FC0122812F3039F4B4
:1005F0000190F081E02D0088F189E02D099460E000
:1006000070E0CB01089580E0089530E020E04FE4F1
:100610005EE420FD28C050937C0080917A008064C5
:1006200080937A0080917A0086FDFCCF80917800DB
:100630009091790089279091A902892780FB87955D
:1006400087F98093A90290917A00880F867090684C
:10065000892B80937A002F5F3F4F24313105C9F6F3
:100660008091A902089540937C00D7CF6F927F922A
:100670008F929F92AF92BF92CF92DF92EF92FF92B2
:100680000F931F93CF93DF93EC018B013A01690124
:100690000E9439024B015C01780110E000E0061570
:1006A0001705A4F50E943902AB01BC01481959098C
:1006B0006A097B09F60180819181092E000CAA0B41
:1006C000BB0B84179507A607B70750F0E881F9819F
:1006D0000084F185E02DCE0109951816190614F74E
:1006E000E881F9810084F185E02DCE010995892BFF
:1006F00069F0E881F9810284F385E02DCE01099546
:10070000F70181937F010F5F1F4FC9CF0E9439020C
:10071000AB01BC01481959096A097B09F6018081BE
:100720009181841B950B91838083C801DF91CF91C8
:100730001F910F91FF90EF90DF90CF90BF90AF90FF
:100740009F908F907F906F900895CF93DF931F922B
:10075000CDB7DEB79B01198241E050E0BE016F5F6B
:100760007F4F0E943603019731F4898190E00F900A
:10077000DF91CF9108958FEF9FEFF9CF81E08093C4
:1007800010011092CE021092CF021092D00210925D
:10079000D102E0E0F1E0AEEBB2E08FEF93E08193C5
:1007A00091931D921D9221E0E031F207C1F7109262
:1007B000D6021092D7021092D8021092D90210924B
:1007C000D2021092D3021092D4021092D502089550
:1007D000CF92DF92EF92FF92CF93DF936B017C0178
:1007E0000E943902A70196010E948E129B01AC0162
:1007F000AEEFB1E00E940A11A70196010E948E128D
:100800002F3F31054105510521F11CF10E943902AC
:10081000A70196010E948E129B01AC01A2E0BEEFDF
:100820000E94B012A70196010E948E12E901C250E7
:10083000DE4F61E083E00E9408022097E1F460E06F
:1008400083E0DF91CF91FF90EF90DF90CF900C94F9
:10085000DA010E943902A70196010E948E129B01C3
:10086000AC01AEEFB1E00E940A11A70196010E940F
:100870008E12E901DECFCF3FD10511F461E0E0CF68
:10088000ECEBF0E0E491E33049F140F4E130B1F019
:10089000E230F9F0C038D1058CF7D1CFE73041F123
:1008A000E83071F1E430B1F780918000806280938C
:1008B0008000D0938B00C0938A0004C084B5806808
:1008C00084BDC7BDDF91CF91FF90EF90DF90CF90B7
:1008D000089584B5806284BDC8BDF4CF8091800046
:1008E000806880938000D0938900C0938800EACF0D
:1008F0008091B00080688093B000C093B300E2CFD5
:100900008091B00080628093B000C093B400DACFD1
:10091000CF93DF93EC0188819981009711F00E94B9
:100920008D13198218821D821C821B821A82DF910C
:10093000CF910895FC0180819181009711F00C9472
:100940008D130895CF92DF92EF92FF920F931F9332
:10095000CF93DF937C0110E000E035E4C32E31E05B
:10096000D32ED70115968C9115978F70801711068D
:10097000F9F0F4F01396ED91FC91C801880F991FDE
:10098000E80FF91FC081D181209779F08A818F30DB
:1009900061F4D982C8828B819C81892B19F0CE01A8
:1009A0000E94A204CE010E948D130F5F1F4FD9CF6A
:1009B000DF91CF911F910F91FF90EF90DF90CF903B
:1009C0000895EF92FF920F931F93CF93DF93FC0153
:1009D00025812617170609F104F18A01660F771F92
:1009E000E380F480E60EF71EF701C081D1812097E5
:1009F00089F08A818F3071F485E491E0998388834E
:100A00008B819C81892B19F0CE010E94A204CE011A
:100A10000E948D13F70111830083DF91CF911F9105
:100A20000F91FF90EF900895CF93DF93EC0185E451
:100A300091E0998388831A821E82188619861A8605
:100A40001B861C861D861E861F86188A198A1A8A8E
:100A50001B8A81E08D8382E090E00E94F1129C83EA
:100A60008B83FC0111821082DF91CF910895AF92A8
:100A7000BF92CF92DF92EF92FF920F931F93CF938B
:100A8000DF93DB01AA0FBB1FEC01EB81FC81EA0FB6
:100A9000FB1FA081B1811097C9F01296EC911297BB
:100AA000EF30A1F4ED91FC9111970488F589E02DC8
:100AB000BA01A901CD01DF91CF911F910F91FF9054
:100AC000EF90DF90CF90BF90AF90099469017A01C9
:100AD0005B018C0188E190E00E94F112EC010E9420
:100AE00014058FE08A8387E691E099838883CC8A16
:100AF000DD8AEE8AFF8AD801ED91FC910480F581B0
:100B0000E02DAE01B501C801DF91CF911F910F918A
:100B1000FF90EF90DF90CF90BF90AF900994CF936C
:100B2000DF93EC01A881B981EB01E881F98110978D
:100B3000F1F03097B1F4EC018C819D81892BC9F0E3
:100B40008C9190E00BC0DB0114968D919C91892BC8
:100B500081F0808190E0919581959109DF91CF910D
:100B60000895BF01CD01DF91CF910C94DC14309733
:100B700051F790E080E0F2CF0F931F93CF93DF9374
:100B8000EC0188819981009759F02A813B812617D1
:100B9000370730F081E0DF91CF911F910F910895D9
:100BA0008B016F5F7F4F0E941614009759F0998355
:100BB00088831B830A832C813D81232B59F7FC01F9
:100BC0001082E8CF80E0E7CFEF92FF920F931F9360
:100BD000CF93DF93EC018B016115710551F0CB01CF
:100BE0000E94C70F7C01BC01CE010E94BC0581118F
:100BF0000BC0CE010E948804CE01DF91CF911F91DE
:100C00000F91FF90EF900895FD82EC82B8018881EA
:100C100099810E94C00FF0CFFF920F931F93CF9343
:100C2000DF9300D000D000D0CDB7DEB78B011A82A1
:100C300019821C821B821E821D826EE670E0CE012C
:100C400001960E94E405F801248135818D819E8101
:100C50002817390751F4BE016F5F7F4FC8010E940A
:100C60008F05FF24F394892B09F0F12CCE01019616
:100C70000E949A04FF20A1F00E9439026F3C774045
:100C80008105910551F40E9439026093B502709379
:100C9000B6028093B7029093B80281E08093B902C4
:100CA0001A8219821C821B821E821D8268E670E0F5
:100CB000CE0101960E94E405F801248135818D81E1
:100CC0009E812817390749F4BE016F5F7F4FC80125
:100CD0000E948F0511E0892B09F010E0CE010196EA
:100CE0000E949A0411110E94BE03812F26960FB60E
:100CF000F894DEBF0FBECDBFDF91CF911F910F9152
:100D0000FF900895EF92FF920F931F93CF93DF937D
:100D1000EC01198218821B821A821D821C826115C5
:100D2000710521F18B01FB0101900020E9F731975A
:100D30007F01E61AF70AB7010E94BC05811109C0BC
:100D4000CE01DF91CF911F910F91FF90EF900C9406
:100D50008804FD82EC82B80188819981DF91CF916E
:100D60001F910F91FF90EF900C94E514DF91CF91BC
:100D70001F910F91FF90EF900895CF93DF93EC01B7
:100D800067EA71E00E948206CE01DF91CF9108955B
:100D90000F931F93CF93DF93EC018B01888199818F
:100DA000803A2FE0920748F40E94F410F801808303
:100DB00088819981019699838883C801DF91CF91B9
:100DC0001F910F910895CF93DF93EC018881998152
:100DD000803A2FE0920738F40E94FC1088819981B4
:100DE000019699838883DF91CF9108951F920F9286
:100DF0000FB60F9211242F933F934F935F936F93EE
:100E00007F938F939F93AF93BF93EF93FF938EEE58
:100E100092E00E942201FF91EF91BF91AF919F91CB
:100E20008F917F916F915F914F913F912F910F9093
:100E30000FBE0F901F9018951F920F920FB60F9232
:100E400011242F938F939F93EF93FF93E091FE02D2
:100E5000F091FF028081E0910403F091050382FD8F
:100E60001BC09081809107038F5F8F7320910803CF
:100E7000821741F0E0910703F0E0E251FD4F958FBA
:100E800080930703FF91EF919F918F912F910F9086
:100E90000FBE0F901F9018958081F4CF1F920F9274
:100EA0000FB60F9211242F933F938F939F93AF937D
:100EB000BF938091AF029091B002A091B102B09126
:100EC000B2023091AE0223E0230F2D3758F5019680
:100ED000A11DB11D2093AE028093AF029093B0028A
:100EE000A093B102B093B2028091AA029091AB029A
:100EF000A091AC02B091AD020196A11DB11D8093ED
:100F0000AA029093AB02A093AC02B093AD02BF9142
:100F1000AF919F918F913F912F910F900FBE0F90A6
:100F20001F90189526E8230F0296A11DB11DD2CF60
:100F30001F920F920FB60F9211244F925F926F92F1
:100F40007F928F929F92AF92BF92CF92DF92EF9259
:100F5000FF920F931F932F933F934F935F936F9342
:100F60007F938F939F93AF93BF93EF93FF93CF9311
:100F7000DF93CDB7DEB76E97DEBFCDBF80916F0038
:100F80008D7F80936F0078948091E7039091E803C0
:100F9000892B01F174E0672E712C8091E703909109
:100FA000E803DC01ED91FC910084F185E02D0995C9
:100FB000059784F07E8E6D8E8091E7039091E80313
:100FC000BE01635E7F4F0E94A5038A3A910571F1CD
:100FD00097FFF2CF80916F00826080936F006E96D2
:100FE0000FB6F894DEBF0FBECDBFDF91CF91FF915A
:100FF000EF91BF91AF919F918F917F916F915F9191
:101000004F913F912F911F910F91FF90EF90DF90A3
:10101000CF90BF90AF909F908F907F906F905F9098
:101020004F900F900FBE0F901F9018958091E7037F
:101030009091E803BE01635E7F4F0E94A5037C018F
:1010400097FDABCF8091E7039091E803BE01635E0B
:101050007F4F0E94A5036C0197FF04C0E114F104C7
:1010600009F09BCF8091E7039091E803BE01635E96
:101070007F4F0E94A5034C0197FD8FCF8091E7031E
:101080009091E803BE01635E7F4F0E94A5035C015F
:1010900097FD83CF8091E7039091E803BE01635EE3
:1010A0007F4F0E94A5038C0197FD77CFE114F104D7
:1010B00031F08091E9038E151F0409F06ECFC11441
:1010C000D10431F08091EA038C151D0409F065CF3D
:1010D0004E2C5C2C982C8C2D8E259AEA89278826FC
:1010E0008A2480268091E7039091E8030115110579
:1010F000B9F09E01235E3F4FA801FE0131963F01EA
:10110000BF010E9436030817190709F063CFF301E6
:1011100081918826CF018619970980179107C4F31A
:101120008091E7039091E803BE01635E7F4F0E94C8
:10113000A50397FD4FCF8816190609F04BCFE11490
:10114000F10431F08091E9038E151F0409F042CFBC
:10115000C114D10431F08091EA038C151D0409F00B
:1011600039CFF1E09F124DC08091E903481203C0CE
:1011700081E0511001C080E0909135049093ED031F
:1011800091E090932D0481112EC18091E7039091FD
:10119000E803DC01ED91FC910190F081E02D6A2DD6
:1011A00009958091E7039091E80360912D04DC019B
:1011B000ED91FC910190F081E02D09958091E7037C
:1011C0009091E80340912D0450E0DC01ED91FC91F9
:1011D0000280F381E02D6DEE73E0099560912D049E
:1011E0006A2590E080E020912D042817190609F067
:1011F0000CF4B1C1FC01E351FC4F20816227019640
:10120000F2CF62E0961214C02981422F50E090E0A4
:1012100080E0841795074CF4FC01ED55FC4F3081BC
:10122000E65BFF4F30830196F4CF20932D04ADCFC2
:1012300073E097121BC011278FE08093ED03FE012E
:10124000319690E080E08017910751F0DC01AD55B8
:10125000BC4F3C912191321739F08AEA8093ED031B
:1012600081E080932D0491CF0196EDCF84E0981218
:101270001FC01A810B818091EA039981981303C0E2
:1012800010922D04A7CE0E94050365E60E946E12FF
:101290000917B0F380914304909144049A8B898B91
:1012A000612FCE0141960E94E3061093E903E8CF37
:1012B000A6E09A1203C08091EA03D0CFB5E09B125A
:1012C00005C01092390410922D045FCFEDE09E12FC
:1012D00014C0898190E0880F991F209137043091C4
:1012E0003804820F931FDC01ED91FC918281809381
:1012F000ED0381E080932D0476C0B9E09B1217C006
:10130000FE01319690E080E011278017910744F4A8
:101310002191DC01AD55BC4F50962C930196F5CF31
:101320000D551C4FF801108A10922D045CC0FAE094
:101330009F1216C0FE01319690E080E011278017C1
:10134000910744F42191DC01AD55BC4F9A962C9342
:101350000196F5CF0D551C4FD8019A961C92E4CFFB
:10136000BBE09B126FC019811092CC031092E60370
:1013700063EB73E0CE0147960E9482066DEC73E04A
:10138000CE0141960E948206812F90E02091350483
:10139000309136048217930708F052C0880F991FC6
:1013A0002091370430913804820F931FFC01808113
:1013B0009181DC01ED91FC910190F081E02DAE0175
:1013C0004F5E5F4FBE01695E7F4F09958093ED03CD
:1013D00081E080932D04CE0141960E949A04CE01B3
:1013E00047960E949A048091390481110DC0E091C2
:1013F0003D04F0913E04309721F081E08093390460
:10140000099581E08093390480913A048111BDCE21
:10141000809143049091440402969A8B898B67E3F0
:10142000CE0141960E94E30681E080933A04E09168
:101430003F04F0914004309709F4A7CE0995A5CE5A
:1014400080E0C4CFBCE09B1240C019811092CC0355
:1014500063EB73E0CE0147960E948206812F90E0F5
:10146000880F991F2091370430913804820F931F01
:10147000FC0160817181DB01ED91FC910280F381BF
:10148000E02DAE01495E5F4FCE01419609954D8931
:1014900069897A89242F3E8990E080E0821793073A
:1014A00089F0FB01E80FF91F6115710521F4109215
:1014B000A802E8EAF2E05081FC01E351FC4F5083BE
:1014C0000196ECCF40932D0486CFB8E09B1222C04A
:1014D0008091EB039091EC0301969093EC03809341
:1014E000EB03898190E0880F991F20913704309198
:1014F0003804820F931FFC01808191814A815B81B6
:101500006C817D81DC01ED91FC910488F589E02DF1
:1015100009950ACFB7E09B1238CE898190E0880FF9
:10152000991F2091370430913804820F931FFC01DA
:1015300080819181DC01ED91FC91008CF18DE02D99
:1015400009956093ED037093EE038093EF039093FE
:10155000F00384E0CFCE8091E7039091E803DC01B3
:10156000ED91FC910190F081E02D099533CD1F9212
:101570000F920FB60F9211248F9381E08093ED02AA
:101580008F910F900FBE0F901F90189585E491E0FA
:1015900090938C0380938B0380918E0390918F03A3
:1015A000892B21F08BE893E00E94A2048091330400
:1015B000909134041816190644F4809137049091E0
:1015C0003804009711F00C948D130895EEEEF2E0BC
:1015D0001382128288EE93E0A0E0B0E084839583CA
:1015E000A683B78383E391E09183808385EC90E0C9
:1015F0009587848784EC90E09787868780EC90E0DD
:10160000918B808B81EC90E0938B828B82EC90E0CD
:10161000958B848B86EC90E0978B868B118E128E47
:10162000138E148E1092E8031092E7031092E903D0
:101630001092EA031092EC031092EB0310922E0426
:1016400010922F041092300410923204109234043D
:10165000109233041092360410923504109238041C
:10166000109237041092390410923A0410923C04FC
:1016700010923B0410923E0410923D0410924004DC
:1016800010923F04109242041092410410924404BC
:10169000109243048BE893E00E941405EBE8F3E01A
:1016A000148A158A168A178A89E891E091838083C3
:1016B0008DE182830895CF93DF93CDB7DEB7609736
:1016C0000FB6F894DEBF0FBECDBF789484B58260AC
:1016D00084BD84B5816084BD85B5826085BD85B5D6
:1016E000816085BD80916E00816080936E00109254
:1016F00081008091810082608093810080918100CF
:10170000816080938100809180008160809380005F
:101710008091B10084608093B1008091B0008160BD
:101720008093B00080917A00846080937A008091E9
:101730007A00826080937A0080917A008160809341
:101740007A0080917A00806880937A001092C100BC
:10175000E091FE02F091FF0282E08083E091FA02C4
:10176000F091FB021082E091FC02F091FD0280E119
:10177000808310920603E0910203F091030386E058
:101780008083E0910003F091010380818061808378
:10179000E0910003F0910103808188608083E091F3
:1017A0000003F0910103808180688083E091000351
:1017B000F091010380818F7D808360E084E00E944E
:1017C000080261E083E00E94080261E084E00E9478
:1017D000DA010091350410913604E0903304F09062
:1017E00034040E151F05B9F5C8010896811520E4CB
:1017F0009207C8F4880F991F0097C1F00E94F11258
:101800006C018091370490913804DC01F60130E0DE
:1018100020E02017310769F04D915D91419351937C
:101820002F5F3F4FF6CF8FEF9FEFE8CF81E090E043
:10183000E5CF1E141F0414F40E948D13D0923804B7
:10184000C0923704809133049091340408969093A9
:1018500034048093330480913504909136042091B0
:101860003704309138049C01220F331FE091370474
:10187000F0913804E20FF31F2BE833E0318320832B
:10188000019690933604809335041092800089E08D
:101890008093810080E09DE7909389008093880089
:1018A00082E080936F008AEC90E090933E048093F6
:1018B0003D048EEE92E09093E8038093E70310E0FE
:1018C00000E00E940503F801ED55FC4F80830F5F97
:1018D0001F4F00311105A9F78091430490914404F2
:1018E0009C838B838091E9038F838091EA038E83AD
:1018F000BE01695F7F4FCE0103960E94C806BE01FC
:101900006A5F7F4FCE0103960E94C8068E81809346
:10191000EA038F818093E9038091E9038A3F18F0FD
:101920008FEF8093E9031D82BE016B5F7F4FCE0175
:1019300003960E94C8068D81873319F481E0809355
:101940003A048091E903882321F08091E9038F3FD5
:10195000B1F40E94050390E069EF70E00E947A12F2
:1019600011E0180F80914304909144049A83898375
:10197000612FCE0101960E94E3061093E903809146
:10198000EA03882321F08091EA038F3FB9F40E9493
:10199000050390E069EF70E00E947A1211E0180FE1
:1019A000809143049091440401969A838983612F26
:1019B000CE0101960E94E3061093EA0380917A001B
:1019C000887F866080937A0080917A008068809317
:1019D0007A0080917A00886080937A008FB788605F
:1019E0008FBFE7E1F1E0A191B19180E08D938F5F2E
:1019F0008032E1F731E0E732F307A9F780EC80931A
:101A00007C0081E08093ED020E94BE038EEB92E0A9
:101A1000DC01A050B1406D01D594C7940D2C000C91
:101A2000EE08FF088091ED02882309F409C21092A4
:101A3000ED024091780080917900E091EC02F0E0B5
:101A40009F012F5F3F4F277033272093EC02295DC2
:101A50003E4FD9019C9190937C0090917A009064C4
:101A600090937A00DF01AC51BD4FEE0FFF1FE95E8E
:101A7000FE4F982F842F97FD079643E09595879505
:101A80004A95E1F78032910514F08FE190E02081D2
:101A90003181820F931FFC0180818C938091EC0235
:101AA0008111CEC124EE32E03A872987D90140E086
:101AB0002D91E42F042E000CFF0BEC51FD4F908173
:101AC000291708F4482F8F5F883091F7ACEDB2E00A
:101AD000CD0120E030E0E42FE30FE770F0E0EC51BF
:101AE000FD4F5081FC015193CF01250F3F5F3830EE
:101AF00091F727FD2F5F259580E0E0E06D91962F0F
:101B0000980F29170CF0DAC0022E000C330B281B9B
:101B1000310987FD3395FCE0F29FC001F39F900DE2
:101B20001124062E000C770B0E947A12EF9F600D95
:101B30001124FCE04F9F600D1124603608F0C5C0F1
:101B40006093DB023091DB022091DA028091D602B1
:101B50009091D702A091D802B091D902303308F009
:101B6000B6C020337CF0231B213360F0805A9F4F96
:101B7000AF4FBF4F8093D6029093D702A093D80265
:101B8000B093D9023093DA024090D6025090D70237
:101B90006090D8027090D902C301B201630F711D29
:101BA000811D911D0E94D70F2FE33BE248E85AE3C5
:101BB0000E94361060939F037093A0038093A1034B
:101BC0009093A2036093930370939403809395037F
:101BD0009093960380911001882309F431C180917C
:101BE000D2029091D302A091D402B091D5024816AE
:101BF00059066A067B0699F08091CE029091CF0239
:101C0000A091D002B091D1020196A11DB11D809387
:101C1000CE029093CF02A093D002B093D102409213
:101C2000D2025092D3026092D4027092D5024091B7
:101C3000CE025091CF026091D0027091D102493C06
:101C40005105610571050CF4D2C010921001A0E09D
:101C5000B1E0EEEBF2E0819191912D913D91821BEB
:101C6000930B40971CF440E050E0BA018EEC92E0F8
:101C70008E179F0781F74093CE025093CF02609357
:101C8000D0027093D10227E1A22E21E0B22E30E0E3
:101C9000232E31E0332E10E000E080E0282F30E0EA
:101CA000D1014D915C9124173507F4F4D501ED91E4
:101CB000FC91E20FF31F10828F5FF0CFEF5F892F4F
:101CC000E83009F01BCF60E034CF605639CF2033C5
:101CD0000CF058CF432F421B41330CF453CF8056A6
:101CE0009109A109B10946CF9801220F331FF901CB
:101CF000E254FD4F808191819927D901A95EBE4FA1
:101D0000803248F4ED91FC911197E80FF91F4FE1F3
:101D100040830196F5CFF901E050FF4F808188871D
:101D2000D901A254BD4FBC87AB87FE87ED87F9016F
:101D3000E95EFE4FF88BEF87F8858F2E912CAB85EF
:101D4000BC858D919C91881599050CF444C0ED8556
:101D5000FE8580819181B401681B790B072E000CF0
:101D6000880B990B0E94D70F2B013C01C701B601CC
:101D70000E94D70F9B01AC01C301B2010E94C811A0
:101D800020E030E048EF51E40E9436102B013C0186
:101D900020E030E048EF51E40E94D00F6FE187FF70
:101DA0000EC020E030E0A901C301B2010E94691217
:101DB00060E0181624F4C301B2010E943A12AF8504
:101DC000B8898D919C91880E991EF4016083F885E5
:101DD000FF5FF887B1CF0F5F1F4F22E0220E311C4B
:101DE00032E0A30EB11C0830110509F056CF4EEBBE
:101DF00052E0A0E0B1E0E985FA858191FA87E987B0
:101E000090E02D913D918217930734F49D0122506B
:101E10003109F90191838083FA0121913191AF0158
:101E20002817390734F49F0122503109F9019183B1
:101E300080832CEE32E089859A8528173907D9F6F8
:101E40000E9439020091BA021091BB022091BC029B
:101E50003091BD02601B710B820B930B63307105D7
:101E60008105910508F45FC00E9439026093BA02AF
:101E70007093BB028093BC029093BD02EDEBF0E047
:101E80008491E9EAF0E01491E5E9F0E004910111B0
:101E900057C00E9439026093B5027093B6028093D6
:101EA000B7029093B80281E08093B9028091B902A1
:101EB000882379F10E9439020091B5021091B6028F
:101EC0002091B7023091B802601B710B820B930B0B
:101ED000613D774081059105E0F01092B902809153
:101EE000DB0290E0919581959109092E000CAA0BD7
:101EF000BB0B8093D6029093D702A093D802B093E5
:101F0000D9028093D2029093D302A093D402B093CB
:101F1000D50280911001882319F16AEF70E080E00A
:101F200090E00E94E80380E090E0892B09F47ACDEC
:101F30000E940E01882309F475CD0E94000072CD25
:101F400081110E94B101E02FF0E0EE0FFF1FE95771
:101F5000FF4FA591B491EC911E2309F49ACFA6CF1F
:101F60008091B3029091B402892B29F460ED77E05F
:101F700080E090E0D6CF62E370E080E090E0D1CFE7
:101F8000FB01DC0105900D920020E1F70895FC01B2
:101F900005900020E9F7809590958E0F9F1F08957A
:101FA0000E94121008F481E00895E89409C097FB9C
:101FB0003EF490958095709561957F4F8F4F9F4F20
:101FC0009923A9F0F92F96E9BB279395F695879564
:101FD00077956795B795F111F8CFFAF4BB0F11F427
:101FE00060FF1BC06F5F7F4F8F4F9F4F16C08823CE
:101FF00011F096E911C0772321F09EE8872F762F04
:1020000005C0662371F096E8862F70E060E02AF044
:102010009A95660F771F881FDAF7880F9695879530
:1020200097F90895990F0008550FAA0BE0E8FEEF05
:1020300016161706E807F907C0F012161306E4078C
:10204000F50798F0621B730B840B950B39F40A2685
:1020500061F0232B242B252B21F408950A2609F463
:10206000A140A6958FEF811D811D08950E94491002
:102070000C94BA100E94AC1038F00E94B31020F0FB
:10208000952311F00C94A3100C94A91011240C9416
:10209000EE100E94CB1070F3959FC1F3950F50E0A6
:1020A000551F629FF001729FBB27F00DB11D639F0A
:1020B000AA27F00DB11DAA1F649F6627B00DA11DB0
:1020C000661F829F2227B00DA11D621F739FB00D56
:1020D000A11D621F839FA00D611D221F749F3327C6
:1020E000A00D611D231F849F600D211D822F762F5F
:1020F0006A2F11249F5750409AF0F1F088234AF03C
:10210000EE0FFF1FBB1F661F771F881F91505040A7
:10211000A9F79E3F510580F00C94A3100C94EE108B
:102120005F3FE4F3983ED4F3869577956795B7952E
:10213000F795E7959F5FC1F7FE2B880F911D969548
:10214000879597F9089597F99F6780E870E060E0B8
:1021500008959FEF80EC089500240A941616170640
:1021600018060906089500240A9412161306140688
:1021700005060895092E0394000C11F4882352F0EB
:10218000BB0F40F4BF2B11F460FF04C06F5F7F4FA3
:102190008F4F9F4F089557FD9058440F551F59F08A
:1021A0005F3F71F04795880F97FB991F61F09F3F44
:1021B00079F087950895121613061406551FF2CF6D
:1021C0004695F1DF08C0161617061806991FF1CFBD
:1021D00086957105610508940895E894BB276627E4
:1021E0007727CB0197F90895F999FECF92BD81BD6C
:1021F000F89A992780B50895262FF999FECF1FBA2E
:1022000092BD81BD20BD0FB6F894FA9AF99A0FBE1F
:10221000019608950E944C11A59F900DB49F900DBA
:10222000A49F800D911D112408952F923F924F92EB
:102230005F926F927F928F929F92AF92BF92CF9256
:10224000DF92EF92FF920F931F93CF93DF93CDB75F
:10225000DEB7CA1BDB0B0FB6F894DEBF0FBECDBFD7
:1022600009942A88398848885F846E847D848C84A8
:102270009B84AA84B984C884DF80EE80FD800C81B1
:102280001B81AA81B981CE0FD11D0FB6F894DEBF94
:102290000FBECDBFED010895A29FB001B39FC00155
:1022A000A39F700D811D1124911DB29F700D811D82
:1022B0001124911D08955058BB27AA270E9473111D
:1022C0000C94BA100E94AC1038F00E94B31020F0A9
:1022D00039F49F3F19F426F40C94A9100EF4E095FC
:1022E000E7FB0C94A310E92F0E94CB1058F3BA1708
:1022F000620773078407950720F079F4A6F50C941C
:10230000ED100EF4E0950B2EBA2FA02D0B01B901A4
:1023100090010C01CA01A0011124FF27591B99F05B
:10232000593F50F4503E68F11A16F040A22F232F67
:10233000342F4427585FF3CF469537952795A795B7
:10234000F0405395C9F77EF41F16BA0B620B730B5E
:10235000840BBAF09150A1F0FF0FBB1F661F771FCF
:10236000881FC2F70EC0BA0F621F731F841F48F484
:10237000879577956795B795F7959E3F08F0B0CF0D
:102380009395880F08F09927EE0F979587950895F4
:102390000E94DC110C94BA100E94B31058F00E94F5
:1023A000AC1040F029F45F3F29F00C94A3105111B8
:1023B0000C94EE100C94A9100E94CB1068F3992392
:1023C000B1F3552391F3951B550BBB27AA27621731
:1023D0007307840738F09F5F5F4F220F331F441F3E
:1023E000AA1FA9F335D00E2E3AF0E0E832D0915072
:1023F0005040E695001CCAF72BD0FE2F29D0660F5F
:10240000771F881FBB1F261737074807AB07B0E8A1
:1024100009F0BB0B802DBF01FF2793585F4F3AF0A7
:102420009E3F510578F00C94A3100C94EE105F3F82
:10243000E4F3983ED4F3869577956795B795F7952D
:102440009F5FC9F7880F911D9695879597F9089515
:10245000E1E0660F771F881FBB1F621773078407B1
:10246000BA0720F0621B730B840BBA0BEE1F88F7C0
:10247000E09508950E94D31088F09F5798F0B92FE7
:102480009927B751B0F0E1F0660F771F881F991FA9
:102490001AF0BA95C9F714C0B13091F00E94ED104E
:1024A000B1E008950C94ED10672F782F8827B85F5E
:1024B00039F0B93FCCF3869577956795B395D9F701
:1024C0003EF490958095709561957F4F8F4F9F4F0B
:1024D00008950E94121008F48FEF0895991B79E077
:1024E00004C0991F961708F0961B881F7A95C9F7A4
:1024F0008095089597FB072E16F4009407D077FD7A
:1025000009D00E94B51207FC05D03EF49095819544
:102510009F4F0895709561957F4F0895052E97FB05
:102520001EF400940E94A51257FD07D00E94C91204
:1025300007FC03D04EF40C94A512509540953095AD
:1025400021953F4F4F4F5F4F08959095809570951F
:1025500061957F4F8F4F9F4F0895B7FF0C940A11DD
:102560000E940A11821B930B0895AA1BBB1B51E109
:1025700007C0AA1FBB1FA617B70710F0A61BB70BF3
:10258000881F991F5A95A9F780959095BC01CD0198
:102590000895A1E21A2EAA1BBB1BFD010DC0AA1FA4
:1025A000BB1FEE1FFF1FA217B307E407F50720F0BC
:1025B000A21BB30BE40BF50B661F771F881F991F37
:1025C0001A9469F760957095809590959B01AC0180
:1025D000BD01CF010895EE0FFF1F0590F491E02D8E
:1025E00009940F931F93CF93DF938230910510F4DA
:1025F00082E090E0E0914704F091480430E020E070
:10260000B0E0A0E0309799F42115310509F44AC0F3
:10261000281B390B24303105D8F58A819B8161153F
:10262000710589F1FB0193838283FE0111C0408112
:1026300051810281138148175907E0F04817590763
:1026400099F4109761F012960C93129713961C93BD
:102650003296CF01DF91CF911F910F910895009392
:10266000470410934804F4CF2115310551F0421767
:10267000530738F0A901DB019A01BD01DF01F80120
:10268000C1CFEF01F9CF9093480480934704CDCF99
:10269000FE01E20FF31F8193919322503109398398
:1026A0002883D7CF2091450430914604232B41F451
:1026B0002091130130911401309346042093450476
:1026C00020911101309112012115310541F42DB7EE
:1026D0003EB74091150150911601241B350BE09136
:1026E0004504F0914604E217F307A0F42E1B3F0BBC
:1026F0002817390778F0AC014E5F5F4F2417350774
:1027000048F04E0F5F1F5093460440934504819359
:1027100091939FCFF0E0E0E09CCFCF93DF930097C1
:10272000E9F0FC01329713821282A0914704B09124
:102730004804ED0130E020E01097A1F420813181C0
:10274000820F931F209145043091460428173907C2
:1027500009F061C0F0934604E0934504DF91CF9106
:102760000895EA01CE17DF07E8F54A815B819E01F3
:1027700041155105B1F7E901FB83EA83499159916C
:10278000C40FD51FEC17FD0761F48081918102967B
:10279000840F951FE90199838883828193819B83AC
:1027A0008A83F0E0E0E012968D919C911397009758
:1027B000B9F52D913C911197CD010296820F931F8F
:1027C00020914504309146042817390739F630978F
:1027D00051F51092480410924704B0934604A09318
:1027E0004504BCCFD383C28340815181840F951FA0
:1027F000C817D90761F44E5F5F4F88819981480FF0
:10280000591F518340838A819B8193838283211541
:10281000310509F0B0CFF0934804E09347049ECF10
:10282000FD01DC01C0CF13821282D7CFB0E0A0E05F
:10283000ECE1F4E10C9417118C01009751F4CB01F9
:102840000E94F1128C01C801CDB7DEB7E0E10C9413
:102850003311FC01E60FF71F9C0122503109E217EA
:10286000F30708F49DC0D901CD91DC911197C617EB
:10287000D70798F0C530D10530F3CE0104978617FD
:10288000970708F3C61BD70B2297C193D1936D937B
:102890007C93CF010E948D13D6CF5B01AC1ABD0A89
:1028A0004C018C0E9D1EA0914704B0914804512C00
:1028B000412CF12CE12C109731F580914504909139
:1028C00046048815990509F05CC04616570608F0BD
:1028D00058C08091110190911201009741F48DB779
:1028E0009EB74091150150911601841B950BE81776
:1028F000F90708F055C0F0934604E0934504F90148
:1029000071836083A0CF8D919C91119712966C90EA
:10291000129713967C901397A815B90559F56C0179
:1029200042E0C40ED11CCA14DB0420F1AC014A19E8
:102930005B09DA011296159780F0628273825183E7
:102940004083D9016D937C93E114F10471F0D701B8
:102950001396FC93EE93129776CF22968C0F9D1FC1
:10296000F90191838083F301EFCFF0934804E09362
:10297000470469CF4816590608F42C017D01D3019C
:102980009ACFCB010E94F1127C01009749F0AE0171
:10299000B8010E94D314C8010E948D13870153CF40
:1029A00010E000E050CFFB01DC0102C001900D926D
:1029B00041505040D8F70895FB01DC018D91019002
:1029C00080190110D9F3990B0895FB01DC010190E6
:1029D0000D920020E1F7089510E0C8E6D0E004C0B1
:1029E000FE010E94EB122196C936D107C9F7F8946F
:0229F000FFCF17
:1029F200FF03FF03FF03FF03FF03FF03FF03FF03C5
:102A02000100004904800088026802480228020886
:102A120002E801C801A801C0C1C2C3C4C5C6C7003B
:102A220000000044019300D10091010201E000F492
:102A320000000000000303BD06E1043705E2024C7A
:102A4200024C024B02C802AE02AD02AA0294028AF2
:102A5200024D02000000000303BD06E1043705E257
:102A6200024C024C024B024502AE02C0004B024530
:102A7200028A024D02000000000C06BD06E1043786
:102A820005E2024C024C024B024502AE02C0004B70
:082A92000245028A024D020018
:00000001FF
