:100000000C941C010C9444010C9444010C94440184
:100010000C9444010C9444010C9444010C94280E5B
:100020000C9444010C9444010C9444010C9444013C
:100030000C9444010C9444010C9444010C9444012C
:100040000C94DE0D0C9444010C94AC0D0C94860DB4
:100050000C9444010C9444010C9444010C9444010C
:100060000C9444010C9444014E414E494E4954595C
:10007000494E46CDCCCC3D0AD7233C17B7D1387773
:10008000CC2B329595E6241FB14F0A000020410089
:1000900000C84200401C4620BCBE4CCA1B0E5AAED3
:1000A000C59D7400407A10F35A00A0724E180900E2
:1000B00010A5D4E80000E87648170000E40B5402CD
:1000C0000000CA9A3B000000E1F505000080969808
:1000D00000000040420F000000A086010000001058
:1000E0002700000000E8030000000064000000009A
:1000F000000A00000000000100000000002C76D87B
:1001000088DC674F0823DFC1DFAE59E1B1B796E560
:10011000E3E453C63AE651997696E8E6C28426EBC4
:10012000898C9B62ED407C6FFCEFBC9C9F40F2BAD7
:10013000A56FA5F490055A2AF75C936B6CF9676D6F
:10014000C11BFCE0E40D47FEF520E6B500D0ED90C4
:100150002E0300943577050080841E080000204E91
:100160000A000000C80C333333330F986E1283112A
:1001700041EF8D2114893BE65516CFFEE6DB18D101
:10018000844B381BF77C1D901DA4BBE424203284D3
:10019000725E228100C9F124ECA1E53D2772656100
:1001A000647900627573790074696D656F757400A8
:1001B00063616C696220666163746F720073657459
:1001C000206772616D730063616C696220666163B0
:1001D000746F7200746172650000000000240027D3
:1001E000002A0000000000250028002B000000006D
:1001F000002300260029000404040404040404026B
:1002000002020202020303030303030102040810B3
:100210002040800102040810200102040810200080
:1002200000000800020100000304070000000000B5
:1002300000000000730E590E11241FBECFEFD8E04E
:10024000DEBFCDBF23E0A4E8B1E001C01D92A13420
:10025000B207E1F711E0A0E0B1E0E4EBF6E302C0A1
:1002600005900D92A438B107D9F711E0CBE1D1E0A8
:1002700004C02197FE010E944C19CA31D107C9F769
:100280000E940F0F0C944D1B0C940000AF92BF9274
:10029000CF92DF92EF92FF920F931F93CF93DF9352
:1002A0006C017B018B01040F151FEB015E01AE1881
:1002B000BF08C017D10759F06991D601ED91FC91A3
:1002C0000190F081E02DC6010995892B79F7C501D0
:1002D000DF91CF911F910F91FF90EF90DF90CF9022
:1002E000BF90AF90089581E090E090938F0180934C
:1002F0008E01089510928F0110928E010895FC01D5
:10030000538D448D252F30E0842F90E0821B930B7A
:10031000541710F0CF96089501970895FC01918D20
:10032000828D981761F0A28DAE0FBF2FB11D5D9623
:100330008C91928D9F5F9F73928F90E008958FEFC5
:100340009FEF0895FC01918D828D981731F0828D79
:10035000E80FF11D858D90E008958FEF9FEF0895D0
:10036000FC01918D228D892F90E0805C9F4F821B34
:1003700091098F739927089581E991E00E94B00156
:1003800021E0892B09F420E0822F089580E090E09D
:10039000892B29F00E94BC0181110C940000089562
:1003A000FC01A48DA80FB92FB11DA35ABF4F2C91EA
:1003B000848D90E001968F739927848FA689B789E1
:1003C0002C93A089B1898C91837080648C93938DD8
:1003D000848D981306C00288F389E02D80818F7D7B
:1003E00080830895EF92FF920F931F93CF93DF9333
:1003F000EC0181E0888F9B8D8C8D98131AC0E88961
:10040000F989808185FF15C09FB7F894EE89FF892F
:100410006083E889F98980818370806480839FBFCD
:1004200081E090E0DF91CF911F910F91FF90EF90CD
:100430000895F62E0B8D10E00F5F1F4F0F731127DD
:10044000E02E8C8D8E110CC00FB607FCFACFE88918
:10045000F989808185FFF5CFCE010E94D001F1CFCF
:10046000EB8DEC0FFD2FF11DE35AFF4FF0829FB78C
:10047000F8940B8FEA89FB8980818062CFCFCF937C
:10048000DF93EC01888D8823B9F0AA89BB89E889BC
:10049000F9898C9185FD03C0808186FD0DC00FB662
:1004A00007FCF7CF8C9185FFF2CF808185FFEDCFE0
:1004B000CE010E94D001E9CFDF91CF910895833022
:1004C00081F028F4813099F08230A9F008958730C6
:1004D000A9F08830C9F08430B1F4809180008F7D1C
:1004E00003C0809180008F7780938000089584B549
:1004F0008F7784BD089584B58F7DFBCF8091B00048
:100500008F778093B00008958091B0008F7DF9CFF0
:10051000CF93DF93282F30E0F901E15EFD4F849106
:10052000F901E55FFD4FD491F901E950FE4FC49107
:10053000CC23A1F081110E945F02EC2FF0E0EE0FBE
:10054000FF1FE351FE4FA591B491EC91ED2381E0A3
:1005500090E009F480E0DF91CF91089580E090E091
:10056000FACF1F93CF93DF93282F30E0F901E15E9C
:10057000FD4F8491F901E55FFD4FD491F901E950F8
:10058000FE4FC491CC23A9F0162F81110E945F0267
:10059000EC2FF0E0EE0FFF1FED51FE4FA591B4914F
:1005A0008FB7F894EC91111108C0D095DE23DC933D
:1005B0008FBFDF91CF911F910895DE2BF8CFCF939E
:1005C000DF9390E0FC01E55FFD4F249189509E4F41
:1005D000FC0184918823D1F090E0880F991FFC01E1
:1005E000E752FE4FA591B491FC01ED51FE4FC5912C
:1005F000D49161110EC09FB7F8948C91E22FE095D1
:100600008E238C932881E223E8839FBFDF91CF91D3
:1006100008958FB7F894EC91E22BEC938FBFF6CF4F
:100620003FB7F89480918A0190918B01A0918C0141
:10063000B0918D0126B5A89B05C02F3F19F00196FA
:10064000A11DB11D3FBFBA2FA92F982F8827BC012C
:10065000CD01620F711D811D911D42E0660F771F54
:10066000881F991F4A95D1F708952FB7F894609184
:1006700086017091870180918801909189012FBF37
:100680000895FC0164897589868997890895FC011C
:10069000448B558B668B778B408751876287738736
:1006A000089508950895CF92DF92EF92FF92CF932D
:1006B000DF93EC01E881F981008CF18DE02D099543
:1006C000288939894A895B890E94E7176B017C0177
:1006D000C88AD98AEA8AFB8A6C857D858E859F8542
:1006E0006F5F7F4F8F4F9F4F6C877D878E879F8770
:1006F000613071058105910551F00E945F169B01E3
:10070000AC01C701B6010E9453186B017C01C701FF
:10071000B601DF91CF91FF90EF90DF90CF900895D9
:10072000FC01108A118A128A138A1486158616868D
:1007300017860895FC0195819F7071F00380F48104
:10074000E02D80819181009739F0DC01ED91FC91E1
:100750000088F189E02D099460E070E0CB010895F4
:10076000FC01178208950895CF93DF93EC018F81E8
:1007700081110DC0E881F981048CF58DE02DCE0149
:100780000995688779878A879B8781E08F83688549
:1007900079858A859B85DF91CF910895CF93DF93EB
:1007A000EC018F8181110DC0E881F981008CF18D00
:1007B000E02DCE010995688779878A879B8781E03C
:1007C0008F83688579858A859B85DF91CF91089590
:1007D000FC0195819F7096171706B9F0B4F0660F6B
:1007E000771F83819481680F791FDB018D919C9124
:1007F000009759F0FC0122812F3039F40190F081EB
:10080000E02D0088F189E02D099460E070E0CB01D3
:10081000089580E0089530E020E04FE45EE420FD9C
:1008200028C050937C0080917A00806480937A0085
:1008300080917A0086FDFCCF8091780090917900BC
:10084000892790918401892780FB879587F9809378
:10085000840190917A00880F86709068892B80932C
:100860007A002F5F3F4F24313105C9F68091840112
:10087000089540937C00D7CF6F927F928F929F9282
:10088000AF92BF92CF92DF92EF92FF920F931F939E
:10089000CF93DF93EC018B013A0169010E9435038C
:1008A0004B015C01780110E000E006151705A1F18D
:1008B0000E943503AB01BC01481959096A097B093B
:1008C000F60180819181092E000CAA0BBB0B8417C5
:1008D0009507A607B70750F0E881F9810084F185F4
:1008E000E02DCE0109951816190614F7E881F98153
:1008F0000084F185E02DCE010995892B69F0E8810E
:10090000F9810284F385E02DCE010995F7018193E9
:100910007F010F5F1F4FC9CF0E943503AB01BC01A0
:10092000481959096A097B09F60180819181841B64
:10093000950B91838083C801DF91CF911F910F9117
:10094000FF90EF90DF90CF90BF90AF909F908F90EF
:100950007F906F900895CF93DF931F92CDB7DEB74E
:100960009B01198241E050E0BE016F5F7F4F0E9402
:100970003C04019731F4898190E00F90DF91CF9191
:1009800008958FEF9FEFF9CF4F925F926F927F9212
:100990008F929F92AF92BF92CF92DF92EF92FF928F
:1009A0000F931F93CF93AC01FC01ED5BFF4F0190C0
:1009B000F081E02D3196C0E0C12CD12C7601882445
:1009C0008A94982CA82CB12C60E070E0CB012C2FDD
:1009D00030E0E217F307DCF1220F331F220F331F41
:1009E000DA01A20FB31F1D964D905D906D907C9023
:1009F0005097481459046A047B0434F41D968D9072
:100A00009D90AD90BC905097DA01A20FB31F1D9638
:100A10004D905D906D907C905097C414D504E60481
:100A2000F70434F41D96CD90DD90ED90FC90509736
:100A3000240F351FD9011D960D911D912D913C91CB
:100A40005097600F711F821F931FCF5FC0CF68192F
:100A500079098A099B096C197D098E099F09CF9133
:100A60001F910F91FF90EF90DF90CF90BF90AF90CC
:100A70009F908F907F906F905F904F900895CF924E
:100A8000DF92EF92FF92CF930E941003C090550225
:100A9000D0905602E0905702F09058026C197D09F0
:100AA0008E099F096093590270935A0280935B02EA
:100AB00090935C020E94100360935502709356025B
:100AC000809357029093580210926B02C0E0C12CA1
:100AD000D12C76018091360290E04796C81719060E
:100AE00009F0ECF461E0809134020E94B102C83157
:100AF00078F4809135020E948802CC0CDD1CEE1C3B
:100B0000FF1C882329F08FEFC81AD80AE80AF80AD0
:100B100060E0809134020E94B102CF5FDBCF809110
:100B200053029091540220917102309172022F5F12
:100B30003F4F8217930781F510925402109253028F
:100B4000C114D10480E8E806F10401F180916B0240
:100B50008F5F80936B02E0915302F091540280E822
:100B6000E826EE0FFF1FEE0FFF1FE25DFD4FC5866B
:100B7000D686E786F08A80916102882339F08091D9
:100B80005E02843078F48F5F80935E02CF91FF9095
:100B9000EF90DF90CF900895019690935402809348
:100BA0005302CECF8EE292E00E94C40420915F02F5
:100BB00004C095958795779567952A95D2F76093A8
:100BC0004F02709350028093510290935202109200
:100BD0005E021092610281E080936C0280916B0250
:100BE0008F5F80936B02D2CF4F925F926F927F9212
:100BF0008F929F92AF92BF92CF92DF92EF92FF922D
:100C0000CF93DF93EC010E94C404FE01EB5BFF4F26
:100C1000608371838283938329A94B015C0104C0A3
:100C2000B594A794979487942A95D2F7C9A0DAA08F
:100C3000EBA0FCA08C189D08AE08BF08C984DA841C
:100C4000EB84FC84A7019601C701B6010E94CA1873
:100C5000811121C026013701E89477F82FEF3FEF8B
:100C60004FE75FE7C301B2010E94CA1881110AC0B1
:100C70002FEF3FEF4FE75FE7C301B2010E94581625
:100C800018164CF020E030E0A901C701B6010E941F
:100C90005816811108C080E090E0A0E8BFE3898782
:100CA0009A87AB87BC87C501B4010E945F1629856E
:100CB0003A854B855C850E945318DF91CF91FF9058
:100CC000EF90DF90CF90BF90AF909F908F907F90EC
:100CD0006F905F904F900895CF93DF93EC0181E088
:100CE0008D8318828BAB18AAFE01EF5BFF4F108239
:100CF0000E943503FE01FF9620813181620F731F30
:100D0000811D911D69837A838B839C83DF91CF91B1
:100D10000895CF92DF92EF92FF92CF93DF936B0112
:100D20007C010E943503A70196010E94EF189B01E8
:100D3000AC01AEEFB1E00E949517A70196010E94A9
:100D4000EF182F3F31054105510521F11CF10E949B
:100D50003503A70196010E94EF189B01AC01A2E0A8
:100D6000BEEF0E941119A70196010E94EF18E90138
:100D7000C250DE4F61E089E00E94DF022097E1F47B
:100D800060E089E0DF91CF91FF90EF90DF90CF900E
:100D90000C94B1020E943503A70196010E94EF183E
:100DA0009B01AC01AEEFB1E00E949517A70196013F
:100DB0000E94EF18E901DECFCF3FD10511F461E0C9
:100DC000E0CFE8E2F2E0E491E33049F140F4E130D1
:100DD000B1F0E230F9F0C038D1058CF7D1CFE7306F
:100DE00041F1E83071F1E430B1F780918000806228
:100DF00080938000D0938B00C0938A0004C084B598
:100E0000806884BDC7BDDF91CF91FF90EF90DF90E8
:100E1000CF90089584B5806284BDC8BDF4CF809121
:100E20008000806880938000D0938900C093880000
:100E3000EACF8091B00080688093B000C093B30087
:100E4000E2CF8091B00080628093B000C093B40084
:100E5000DACFFC01608D718D828D938D0895CF93D3
:100E6000DF93EC0188819981009711F00E94EE19BF
:100E7000198218821D821C821B821A82DF91CF91F7
:100E80000895FC0180819181009711F00C94EE1976
:100E90000895EF92FF920F931F93CF93DF93EC018E
:100EA0008AE091E0998388838B819C81892B09F169
:100EB00010E000E08D818F7080171106D1F0CCF02A
:100EC000EB81FC81C801880F991FE80FF91FE080B2
:100ED000F180E114F10451F0F70182818F3031F497
:100EE000C7010E944907C7010E94EE190F5F1F4FFB
:100EF000E1CFDF91CF911F910F91FF90EF90089577
:100F0000EF92FF920F931F93CF93DF93FC01258104
:100F100026171706C9F0C4F08A01660F771FC38130
:100F2000D481C60FD71FE880F980E114F10451F095
:100F3000F70182818F3031F4C7010E944907C70150
:100F40000E94EE1919830883DF91CF911F910F91B1
:100F5000FF90EF900895CF93DF93EC018AE091E04A
:100F6000998388831A821E82188619861A861B86A0
:100F70001C861D861E861F86188A198A1A8A1B8A55
:100F800081E08D8382E090E00E9452199C838B83E4
:100F9000FC0111821082DF91CF910895AF92BF9230
:100FA000CF92DF92EF92FF920F931F93CF93DF9335
:100FB000DB01AA0FBB1FEC01EB81FC81EA0FFB1FD9
:100FC000A081B1811097C9F01296EC911297EF3081
:100FD000A1F4ED91FC9111970488F589E02DBA01F7
:100FE000A901CD01DF91CF911F910F91FF90EF905B
:100FF000DF90CF90BF90AF90099469017A015B01B7
:101000008C0188E190E00E945219EC010E94AB072C
:101010008FE08A838EE391E099838883CC8ADD8A8E
:10102000EE8AFF8AD801ED91FC910480F581E02DD4
:10103000AE01B501C801DF91CF911F910F91FF90D3
:10104000EF90DF90CF90BF90AF900994FC01248186
:101050003581FB014481558124173507E1F4FC01FA
:1010600080819181FB01608171810097D1F06115D0
:101070007105A1F4232BC1F0FC01808190E008C030
:10108000232B91F0FB01808190E09195819591094E
:1010900021E0892B09F020E0822F08950E943D1B5A
:1010A000F7CF6115710561F721E0F6CF0F931F931C
:1010B000CF93DF93EC0188819981009759F02A81C1
:1010C0003B812617370730F081E0DF91CF911F91E8
:1010D0000F9108958B016F5F7F4F0E94771A0097E1
:1010E00059F0998388831B830A832C813D81232BAC
:1010F00059F7FC011082E8CF80E0E7CFEF92FF9232
:101100000F931F93CF93DF93EC01198218821B82F8
:101110001A821D821C826115710509F18B01CB01B8
:101120000E94A7127C01BC01CE010E9456088111C9
:1011300009C0CE01DF91CF911F910F91FF90EF90E9
:101140000C942F07FD82EC82B80188819981DF9190
:10115000CF911F910F91FF90EF900C94A012DF910F
:10116000CF911F910F91FF90EF900895EF92FF9212
:101170000F931F93CF93DF93EC01198218821B8288
:101180001A821D821C826115710521F18B01FB0100
:1011900001900020E9F731977F01E61AF70AB701BD
:1011A0000E945608811109C0CE01DF91CF911F9195
:1011B0000F91FF90EF900C942F07FD82EC82B80105
:1011C00088819981DF91CF911F910F91FF90EF90CE
:1011D0000C94461BDF91CF911F910F91FF90EF90E0
:1011E0000895CF93DF93EC0162E871E00E94B608A6
:1011F000CE01DF91CF9108950C948717CF93DF93A1
:10120000EC0188819981803A2FE0920738F40E949E
:10121000FC0888819981019699838883DF91CF9119
:1012200008954F925F926F927F928F929F92AF92AA
:10123000BF92CF92DF92EF92FF920F931F93CF93C3
:10124000DF93CDB7DEB76E970FB6F894DEBF0FBE53
:10125000CDBF74E0672E712C8091DD029091DE028B
:10126000DC01ED91FC910084F185E02D0995059755
:1012700084F07E8E6D8E8091DD029091DE02BE0143
:10128000635E7F4F0E94AB048A3A9105C9F097FFD5
:10129000F2CF6E960FB6F894DEBF0FBECDBFDF91D2
:1012A000CF911F910F91FF90EF90DF90CF90BF9063
:1012B000AF909F908F907F906F905F904F90089528
:1012C0008091DD029091DE02BE01635E7F4F0E943D
:1012D000AB047C0197FDC0CF8091DD029091DE02CE
:1012E000BE01635E7F4F0E94AB046C0197FF04C098
:1012F000E114F10409F0B0CF8091DD029091DE029B
:10130000BE01635E7F4F0E94AB044C0197FDA4CFEA
:101310008091DD029091DE02BE01635E7F4F0E94EC
:10132000AB045C0197FD98CF8091DD029091DE02C5
:10133000BE01635E7F4F0E94AB048C0197FD8CCF92
:10134000E114F10431F08091DF028E151F0409F0E1
:1013500083CFC114D10431F08091E0028C151D04BB
:1013600009F07ACF4E2C5C2C982C8C2D8E259AEA85
:10137000892788268A2480268091DD029091DE02CA
:1013800001151105B9F09E01235E3F4FA801FE0132
:1013900031963F01BF010E943C040817190709F06C
:1013A00078CFF30181918826CF018619970980179C
:1013B0009107C4F38091DD029091DE02BE01635E6D
:1013C0007F4F0E94AB0497FD64CF8816190609F081
:1013D00060CFE114F10431F08091DF028E151F041B
:1013E00009F057CFC114D10431F08091E0028C157F
:1013F0001D0409F04ECFF1E09F124DC08091DF0235
:10140000481203C081E0511001C080E090912B038D
:101410009093E30291E09093230381112EC1809178
:10142000DD029091DE02DC01ED91FC910190F081F2
:10143000E02D6A2D09958091DD029091DE02609188
:101440002303DC01ED91FC910190F081E02D0995E1
:101450008091DD029091DE024091230350E0DC0197
:10146000ED91FC910280F381E02D63EE72E009952D
:10147000609123036A2590E080E0209123032817E0
:10148000190609F00CF4B1C1FC01ED51FD4F2081AA
:1014900062270196F2CF62E0961214C02981422F92
:1014A00050E090E080E0841795074CF4FC01E7568B
:1014B000FD4F3081E65BFF4F30830196F4CF2093E0
:1014C0002303ADCF73E097121BC011278FE08093E9
:1014D000E302FE01319690E080E08017910751F021
:1014E000DC01A756BD4F3C912191321739F08AEAB1
:1014F0008093E30281E08093230391CF0196EDCFA7
:1015000084E098121FC01A810B818091E0029981BA
:10151000981303C010922303BCCE0E940B0465E60F
:101520000E94CF180917B0F38091390390913A03C4
:101530009A8B898B612FCE0141960E94FE081093F1
:10154000DF02E8CFA6E09A1203C08091E002D0CF7C
:10155000B5E09B1205C010922F03109223035FCFBA
:10156000EDE09E1214C0898190E0880F991F2091B0
:101570002D0330912E03820F931FDC01ED91FC911E
:1015800082818093E30281E08093230376C0B9E0F7
:101590009B1217C0FE01319690E080E01127801762
:1015A000910744F42191DC01A756BD4F50962C932E
:1015B0000196F5CF07561D4FF801108A10922303AC
:1015C0005CC0FAE09F1216C0FE01319690E080E008
:1015D00011278017910744F42191DC01A756BD4FD4
:1015E0009A962C930196F5CF07561D4FD8019A96DF
:1015F0001C92E4CFBBE09B126FC019811092C20213
:101600001092DC0269EA72E0CE0147960E94B608A9
:1016100063EC72E0CE0141960E94B608812F90E003
:1016200020912B0330912C038217930708F052C0AE
:10163000880F991F20912D0330912E03820F931F45
:10164000FC0180819181DC01ED91FC910190F081A0
:10165000E02DAE014F5E5F4FBE01695E7F4F099581
:101660008093E30281E080932303CE0141960E94A0
:101670004107CE0147960E94410780912F038111B7
:101680000DC0E0913303F0913403309721F081E0F5
:1016900080932F03099581E080932F03809130037D
:1016A0008111BDCE8091390390913A0302969A8BB5
:1016B000898B67E3CE0141960E94FE0881E080930A
:1016C0003003E0913503F0913603309709F4A7CE4B
:1016D0000995A5CE80E0C4CFBCE09B1240C0198123
:1016E0001092C20269EA72E0CE0147960E94B608E3
:1016F000812F90E0880F991F20912D0330912E03A8
:10170000820F931FFC0160817181DB01ED91FC91DF
:101710000280F381E02DAE01495E5F4FCE0141961C
:1017200009954D8969897A89242F3E8990E080E066
:101730008217930789F0FB01E80FF91F6115710506
:1017400021F410929001E0E9F1E05081FC01ED51AB
:10175000FD4F50830196ECCF4093230386CFB8E032
:101760009B1222C08091E1029091E2020196909337
:10177000E2028093E102898190E0880F991F209115
:101780002D0330912E03820F931FFC0180819181E4
:101790004A815B816C817D81DC01ED91FC91048843
:1017A000F589E02D09950ACFB7E09B1238CE8981E3
:1017B00090E0880F991F20912D0330912E03820F06
:1017C000931FFC0180819181DC01ED91FC91008CE3
:1017D000F18DE02D09956093E3027093E40280930C
:1017E000E5029093E60284E0CFCE8091DD029091F5
:1017F000DE02DC01ED91FC910190F081E02D099574
:1018000048CD0C947F170F931F93CF93DF93EC0178
:101810008B0188819981803A2FE0920748F40E94D9
:10182000010CF801808388819981019699838883CE
:10183000C801DF91CF911F910F910895BF92CF9270
:10184000DF92EF92FF920F931F93CF93DF9300D01D
:1018500000D000D0CDB7DEB78C017B016A0164ED0A
:1018600071E0CE0101960E947E08BE016F5F7F4F3E
:10187000C7010E942608B82ECE0101960E9441079A
:10188000BB20B9F0D8015C968D919C910E946C06AA
:1018900081E026960FB6F894DEBF0FBECDBFDF9174
:1018A000CF911F910F91FF90EF90DF90CF90BF905D
:1018B000089567EC71E0CE0101960E947E08BE019A
:1018C0006F5F7F4FC7010E942608B82ECE01019698
:1018D0000E944107BB20A1F0F801048D158DD601AF
:1018E0008D919C91009741F00E949C12F8016187B4
:1018F000728783879487CCCF60E070E0CB01F6CF0E
:101900006DEB71E0CE0101960E947E08BE016F5F13
:101910007F4FC7010E942608F82ECE0101960E9433
:10192000410780E0FF2009F4B4CFD6018D919C914E
:10193000C12CD12C7601009721F00E949C126B01E2
:101940007C01F801848D958D40E050E060E87FE3F4
:10195000DC0119964D935D936D937C931C970E94C7
:10196000F4059058A70196010E9453186B017C0161
:10197000F801C68ED78EE0A2F1A281E090E00E942D
:10198000FC0899278F2D7E2D6D2D82E090E00E941E
:10199000FC08B7018827992783E090E00E94FC08A3
:1019A0006F2D77278827992784E090E00E94FC0814
:1019B000D8015C962D913C915D975E968D919D919D
:1019C0000D90BC91A02DF90181879287A387B487E0
:1019D0005FCFBF92CF92DF92EF92FF920F931F9350
:1019E000CF93DF93CDB7DEB7A1970FB6F894DEBFE4
:1019F0000FBECDBF7C016B018A0160EB71E0CE01AF
:101A000001960E947E08BE016F5F7F4FC8010E9451
:101A10002608B82ECE0101960E944107BB2009F48A
:101A200046C0D6015C96ED91FC91618572858385F7
:101A30009485F7011182108213821282158214821A
:101A40008E010F5F1F4F25E047E00E947E126C0160
:101A5000009771F0FC0101900020E9F731978F01A8
:101A6000081B190BB801C7010E945608811114C048
:101A7000C7010E942F07C701A1960FB6F894DEBFD9
:101A80000FBECDBFDF91CF911F910F91FF90EF90CF
:101A9000DF90CF90BF900895D70115961C930E93B9
:101AA0001497B6018D919C910E94461BE4CFF801DA
:101AB00084819581892BF9F06EE771E080819181B5
:101AC0000E943D1B892BB9F4D6015C96ED91FC91E7
:101AD000DF01AF5BBF4F8C9168EA71E0811107C0F5
:101AE000858163EA71E0811102C06DE971E0C7018F
:101AF0000E947E08C0CF62E871E0CE0101960E948C
:101B0000B608CE0101960E944107B5CF1F920F92F1
:101B10000FB60F9211242F933F934F935F936F93C0
:101B20007F938F939F93AF93BF93EF93FF9381E93D
:101B300091E00E94D001FF91EF91BF91AF919F91F1
:101B40008F917F916F915F914F913F912F910F9066
:101B50000FBE0F901F9018951F920F920FB60F9205
:101B600011242F938F939F93EF93FF93E091A10103
:101B7000F091A2018081E091A701F091A80182FD7E
:101B80001BC090818091AA018F5F8F732091AB0160
:101B9000821741F0E091AA01F0E0EF56FE4F958FD9
:101BA0008093AA01FF91EF919F918F912F910F90B8
:101BB0000FBE0F901F9018958081F4CF1F920F9247
:101BC0000FB60F9211242F933F938F939F93AF9350
:101BD000BF938091860190918701A0918801B09177
:101BE00089013091850123E0230F2D3758F50196A7
:101BF000A11DB11D209385018093860190938701DB
:101C0000A0938801B093890180918A0190918B0102
:101C1000A0918C01B0918D010196A11DB11D809301
:101C20008A0190938B01A0938C01B0938D01BF9199
:101C3000AF919F918F913F912F910F900FBE0F9079
:101C40001F90189526E8230F0296A11DB11DD2CF33
:101C50001F920F920FB60F9211242F933F934F9321
:101C60005F936F937F938F939F93AF93BF93CF9324
:101C7000DF93EF93FF93C0E7D0E088818D7F888367
:101C800078940E941109888182608883FF91EF9186
:101C9000DF91CF91BF91AF919F918F917F916F9184
:101CA0005F914F913F912F910F900FBE0F901F901A
:101CB00018958EE391E0909378028093770287E7FE
:101CC00092E00E9449078091290390912A031816F7
:101CD000190644F480912D0390912E03009711F082
:101CE0000C94EE190895E1E9F1E01382128288EE76
:101CF00093E0A0E0B0E084839583A683B7838CE271
:101D000091E09183808385EC90E09587848784ECD3
:101D100090E09787868780EC90E0918B808B81ECB8
:101D200090E0938B828B82EC90E0958B848B86EC99
:101D300090E0978B868B118E128E138E148E1092DC
:101D4000DF021092E0021092E2021092E102109281
:101D50002403109225031092260310922803109258
:101D60002A031092290310922C0310922B03109235
:101D70002E0310922D0310922F0310923003109215
:101D800032031092310310923403109233031092F5
:101D900036031092350310923803109237031092D5
:101DA0003A031092390387E792E00E94AB07E7E716
:101DB000F2E0148A158A168A178A80E691E09183E8
:101DC0008083108E118E128E138E80E09EE7A5E622
:101DD000BAE4868F978FA0A3B1A384E28283EEE258
:101DE000F2E010821182128213821482158216A2EE
:101DF00015A281E087A781AB82AB88E592E0909342
:101E00006E0280936D021092700282E090E09093D7
:101E1000720280937102878383E086830895CF9353
:101E2000DF93CDB7DEB7A7970FB6F894DEBF0FBE2E
:101E3000CDBF789484B5826084BD84B5816084BD53
:101E400085B5826085BD85B5816085BD80916E0058
:101E5000816080936E001092810080918100826089
:101E600080938100809181008160809381008091C6
:101E700080008160809380008091B10084608093B5
:101E8000B1008091B00081608093B00080917A00B1
:101E9000846080937A0080917A00826080937A00D7
:101EA00080917A00816080937A0080917A008068C6
:101EB00080937A001092C10060E084E00E94DF020B
:101EC00061E084E00E94B102CE0101960E94AB075E
:101ED0001D8A1E8A1F8A188E198E1A8E1B8E1C8EC2
:101EE00080E09EE7A5E6BAE48F8F98A3A9A3BAA3E2
:101EF00044E24B832EE232E03E8F2D8F40937902F5
:101F00004C815D8150937B0240937A024E814093D5
:101F10007C024F8140937D02488540937E02498533
:101F20005A856B857C8540937F0250938002609335
:101F30008102709382024D855E856F85788940931A
:101F400083025093840260938502709386024989CC
:101F50005A896B897C8940938702509388026093E9
:101F6000890270938A0210928B0210928C02109256
:101F70008D0210928E0210928F0210929002109297
:101F800091021092920230939402209393028093D4
:101F9000950290939602A0939702B09398028EE3D5
:101FA00091E09A838983CE0101960E94490761E0FE
:101FB00089E00E94DF02E091A101F091A20182E09C
:101FC0008083E0919D01F0919E011082E0919F013C
:101FD000F091A00180E180831092A901E091A50118
:101FE000F091A60186E08083E091A301F091A40125
:101FF000808180618083E091A301F091A4018081C0
:1020000088608083E091A301F091A40180818068C1
:102010008083E091A301F091A40180818F7D808372
:102020008AE090E090933A038093390300912B0368
:1020300010912C03E0902903F0902A030E151F0540
:10204000B9F5C8010896811520E49207C8F4880FF5
:10205000991F0097C1F00E9452196C0180912D03C5
:1020600090912E03DC01F60130E020E020173107CB
:1020700069F04D915D91419351932F5F3F4FF6CFA2
:102080008FEF9FEFE8CF81E090E0E5CF1E141F04B3
:1020900014F40E94EE19D0922E03C0922D03809169
:1020A000290390912A03089690932A038093290389
:1020B00080912B0390912C0320912D0330912E03BE
:1020C0009C01220F331FE0912D03F0912E03E20FAC
:1020D000F31F27E732E031832083019690932C038E
:1020E00080932B0383E791E0909334038093330331
:1020F0008AE791E0909338038093370381E090E082
:102100000E94010C182F82E090E00E94010CC82E62
:1021100083E090E00E94010C082F84E090E00E9490
:10212000010CD12CF12CE12CFE2CED2CDC2CCC2440
:10213000402F50E070E060E0BA0155274427C40EFC
:10214000D51EE61EF71EC10ED11CE11CF11C90E04D
:10215000B0E0A0E0B82FAA2799278827C80ED91E7B
:10216000EA1EFB1EA7019601C701B6010E94CA180C
:10217000811152C146015701E894B7F82FEF3FEFA4
:102180004FE75FE7C501B4010E94CA1881110BC077
:102190002FEF3FEF4FE75FE7C501B4010E945816EC
:1021A00018160CF439C120E030E0A901C701B601CE
:1021B0000E945816882309F42FC1C0929502D0922C
:1021C0009602E0929702F092980261E080913402C8
:1021D0000E94DF0260E0809135020E94DF0281E010
:1021E0008093360260E0809134020E94B1020E9426
:1021F00010034B015C0188ECC82ED12CE12CF12C92
:102200000E941003681979098A099B09683E734086
:1022100081059105A8F381E0C81AD108E108F10809
:1022200028EE820E23E0921EA11CB11CC114D10421
:10223000E104F10429F780916F02811110C08091AF
:10224000950290919602A0919702B0919802809386
:10225000370290933802A0933902B0933A028EE28B
:1022600092E00E946C0681E991E09093DE028093F7
:10227000DD0210E000E00E940B04F801E756FD4F7C
:1022800080830F5F1F4F00311105A9F7809139033B
:1022900090913A039CA38BA38091DF028FA380913E
:1022A000E0028EA3BE01695D7F4FCE0183960E943E
:1022B000030CBE016A5D7F4FCE0183960E94030C22
:1022C0008EA18093E0028FA18093DF028091DF02D4
:1022D0008A3F18F08FEF8093DF021DA2BE016B5D75
:1022E0007F4FCE0183960E94030C8DA1873319F492
:1022F00081E0809330038091DF02882321F0809178
:10230000DF028F3FB1F40E940B0490E069EF70E0B0
:102310000E94DB1811E0180F8091390390913A0365
:102320009A838983612FCE0101960E94FE08109343
:10233000DF028091E002882321F08091E0028F3F4C
:10234000B9F40E940B0490E069EF70E00E94DB1882
:1023500011E0180F8091390390913A0301969A8306
:102360008983612FCE0101960E94FE081093E0023E
:1023700000E010E0BB24B3940E94110984E00E94A5
:102380008802892B21F48EE292E00E946C068091F3
:102390008E0190918F01009709F04BC060ED77E0BE
:1023A00080E090E00E94890680913302882309F43E
:1023B0004FC080912E02823009F1809135020E9437
:1023C0008802811142C00E943F0580916B02809378
:1023D0002E0280917002811111C00E943503C090BD
:1023E0002F02D0903002E0903102F0903202C616F7
:1023F000D706E806F90610F4B0926F021092330285
:102400000115110509F4B8CF0E94BC01882309F415
:10241000B3CF0E940000B0CF80E090E0A0E8BFE31F
:102420008093950290939602A0939702B09398029E
:10243000CCCE019729F46AEF70E080E090E0B2CF53
:1024400062E370E080E090E0ADCF10926B02BDCF10
:10245000809135020E94880281114DC00E943F0583
:1024600080916B02882361F28EE292E00E94F40573
:102470006B017C0120E030E44CE956EC0E94C51869
:1024800018160CF0BDCF20E030E44CE956E4C7014B
:10249000B6010E94581687FFB3CF2DEC3CEC4CECF4
:1024A0005DE360918F027091900280919102909112
:1024B00092020E94BE162B013C01C701B601905842
:1024C00020E030E04AE754E40E94531826E636E65E
:1024D00046E65FE30E94BE169B01AC01C301B20158
:1024E0000E94E71760938F0270939002809391028D
:1024F0009093920285CF10926B02B2CFEF920F931E
:102500001F93CF93DF93E80134E047FD34E1042EBD
:10251000000C550B57FF03C0519541955109E32E0F
:10252000022F242FAE010E94B012CE01DF91CF9175
:102530001F910F91EF900895662777270C940F1441
:10254000FB01DC0105900D920020E1F70895FC01EC
:1025500005900020E9F7809590958E0F9F1F0895B4
:10256000A9E0B0E0E6EBF2E10C94A6176A01F22EC6
:10257000B02E102FFBE3AF2EA01608F41BE31F5F55
:10258000012F27E0AE014F5F5F4F0E945F15BC0136
:102590008981982F9970913009F43FC09BE2E1FC4A
:1025A00004C09E2D9170E0FC3AC05E2D5071E82F62
:1025B000E87083FF46C084E0911101C083E0EF2DF5
:1025C000E81B8F1508F0E0E0D6018E2F20E255239E
:1025D00051F1992329F0D6019C93C60101966C0113
:1025E00096012D5F3F4FE2FE24C08EE4D6018C930E
:1025F00091E411969C93119712968C93D9018E2F8A
:1026000090E281111BC0E20FF32FF11D10828EEFBB
:102610009FEF2996ECE00C94C2179DE2C6CF90E2A2
:10262000C4CF2D9381508111FCCFCE0ED11CE0E0A0
:10263000D0CF8EE6D6018C9391E6DBCF9D9381506F
:10264000E0CF482F447082FF3DC084E0911101C06B
:1026500083E08F1510F4EF2DE81BD6018E2F20E2BA
:10266000552309F1992329F0D6019C93C6010196BF
:102670006C0196012D5F3F4FE2FE1BC089E4D6013D
:102680008C938EE411968C93119786E412968C931A
:10269000D9018E2F90E2882309F4B5CF9D93815004
:1026A000FACF2D9381508111FCCFCE0ED11CE0E0EA
:1026B000D9CF89E6D6018C938EE611968C9311972B
:1026C00086E6E4CF9B0177FF02C030E020E0A1E086
:1026D000B0E0911102C0B0E0A0E0F9013196AE0F78
:1026E000BF1F8B2C912CBB2009F461C05401EFEF6C
:1026F000AE1ABE0AAA0DBB1DFA161B0619F014F07D
:102700004F2D4A1B511188C0E3FC59C07601A42FFC
:10271000B0E2A1114FC0C40ED11C992309F45BC0D3
:1027200040E0D6011196F60190836D01552309F41E
:1027300048C0012F060F9A81582F507184FF03C0A3
:10274000913309F4015010160CF047C0093008F01D
:1027500008E0EEE2FE2E5B01A01AB108850191941B
:10276000819491082F3F320729F4D601FC92F6019B
:1027700031966F016217730794F1021713077CF506
:10278000DB01A21BB30BAA24A394B12CAC0EBD1E7B
:10279000AA0DBB1D11968C9121503109D6011196BD
:1027A00028153905F4F0F60180836D01DBCFB12CDB
:1027B000A12CA0CFF701B1937F01A150AACF911115
:1027C000B0CFD601942F50E302C05D939150911188
:1027D000FCCFC40ED11C40E0ACCF01E0BACF80E307
:1027E000DBCF6217730731F4963388F4953311F415
:1027F000552369F0F6018083FD01842F90E2811159
:1028000008C0A40FB11D1C9290E080E002CF81E3CC
:10281000F1CF91938150F3CF911183CF8ACFB0E064
:10282000A0E0E5E1F4E10C94A6175C017B016115E1
:10283000710519F0DB018D939C9385010F5F1F4F8C
:10284000F501D0818D2F90E00E9437166C01892B05
:10285000B9F5DD32B9F50F5F1F4FD5011196DC9147
:10286000C1E05801F1E0AF1AB10843E050E060E781
:1028700070E0C5010E944016892B69F5680182E06D
:10288000C80ED11C45E050E06BE670E0C6010E9426
:102890004016892B21F4680197E0C90ED11CE11480
:1028A000F10419F0D701CD92DC9260E070E080E88D
:1028B0009FEFC111FFC060E070E080E89FE7FAC0C1
:1028C0005801BBCFDB3229F485010E5F1F4FF501A4
:1028D000D181C0E0C6CF43E050E068E670E0C501BA
:1028E0000E944016892BE9F0F80110E000E020E09A
:1028F00030E0A9015F01B0ED8B2E8D0E89E08815C7
:10290000C8F19C2E689491F88C2F8870C2FF16C075
:10291000811102C00F5F1F4F3196D501DC91C92D87
:10292000E9CFE114F10429F00E5F1F4FF701118385
:10293000008360E070E080EC9FE7BCC0882311F06A
:1029400001501109A5E0B0E00E9495179B01AC0170
:10295000220F331F441F551F280D311D411D511DCE
:10296000283999E93907490799E15907A8F2C6605A
:102970009C2ED2CFAEEF8A1206C0C3FD3CC09C2E67
:10298000689493F8C9CFDF7DD534A9F580818D3265
:1029900039F4C061DF011296818162E070E006C007
:1029A000DF018B32C1F3119661E070E080535D016D
:1029B000A61AB70A8A30F8F4E0E8CE16ECE0DE0694
:1029C0005CF4B601660F771F660F771FC60ED71E21
:1029D000CC0CDD1CC80ED11C5D01FFEFAF1ABF0A85
:1029E0008C9180538A30A8F1C4FF03C0D194C19464
:1029F000D1080C0D1D1DC1FF09C0E114F10431F017
:102A000081E0A81AB108D701AD92BC92CA01B90100
:102A10000E945D16C370C33009F490584B015C01ED
:102A200020E030E0A9010E945816882309F440C034
:102A3000CFE9D0E017FF05C0119501951109C7E84E
:102A4000D0E06E01B8E1CB1AD10880E2E82EF12C7B
:102A50000FC0D501B1CFFE0125913591459154911B
:102A60000E191F09C501B4010E94BE164B015C017D
:102A7000D501C4010E151F0574F72497F594E7944A
:102A8000CC16DD06A9F78A2F880F8B2F881F8F3F62
:102A900049F020E030E0A901C501B4010E945816B8
:102AA000811106C082E290E090933C0380933B0347
:102AB000C501B401CDB7DEB7ECE00C94C2172830E5
:102AC00008F027E03327DA01990F311D87FD916067
:102AD00000966105710539F432602E5F3D9330E355
:102AE0002A95E1F708959F3F30F080387105610520
:102AF00009F03C5F3C5F3D93913008F08068911D88
:102B0000DF93CF931F930F93FF92EF92192F987F2C
:102B10009695E92F96959695E90FFF27E350FF4F7D
:102B200099273327EE24FF24A701E7010590089495
:102B3000079428F4360FE71EF81E491F511D660F33
:102B4000771F881F991F0694A1F70590079428F412
:102B5000E70EF81E491F561FC11D770F881F991FCA
:102B6000661F0694A1F70590079428F4F80E491FF4
:102B7000561FC71FD11D880F991F661F771F069408
:102B8000A1F70590079420F4490F561FC71FD81FBF
:102B9000990F661F771F881F0694A9F784911095D7
:102BA000177041F0D695C79557954795F794E794D8
:102BB0001A95C1F7E3EAF0E0689415901591359104
:102BC0006591959105907FE27395E118F10A430BA9
:102BD000560BC90BD009C0F7E10CF11E431F561F5D
:102BE000C91FD01D7EF4703311F48A95E6CFE894A6
:102BF000015030F0080F0AF40027021708F4202FC4
:102C00002395022F7A3328F079E37D932A95E9F70B
:102C100010C07D932A9589F6069497956795379508
:102C200017951794E118F10A430B560BC90BD009FD
:102C300098F023957E9173957A3308F070E37C9336
:102C40002013B8F77E9170617D9330F0839571E326
:102C50007D9370E32A95E1F71124EF90FF900F9197
:102C60001F91CF91DF91992787FD9095089591113C
:102C70000C942B17803219F089508550C8F70895AD
:102C8000FB01DC014150504088F08D9181341CF0F3
:102C90008B350CF4805E659161341CF06B350CF45F
:102CA000605E861B611171F3990B0895881BFCCF40
:102CB0000E949A1608F481E00895E89409C097FBF1
:102CC0003EF490958095709561957F4F8F4F9F4F03
:102CD0009923A9F0F92F96E9BB279395F695879547
:102CE00077956795B795F111F8CFFAF4BB0F11F40A
:102CF00060FF1BC06F5F7F4F8F4F9F4F16C08823B1
:102D000011F096E911C0772321F09EE8872F762FE6
:102D100005C0662371F096E8862F70E060E02AF027
:102D20009A95660F771F881FDAF7880F9695879513
:102D300097F90895990F0008550FAA0BE0E8FEEFE8
:102D400016161706E807F907C0F012161306E4076F
:102D5000F50798F0621B730B840B950B39F40A2668
:102D600061F0232B242B252B21F408950A2609F446
:102D7000A140A6958FEF811D811D08950E94D11657
:102D80000C9445170E94371738F00E943E1720F028
:102D9000952311F00C942E170C94341711240C94D5
:102DA00079170E94561770F3959FC1F3950F50E065
:102DB000551F629FF001729FBB27F00DB11D639FED
:102DC000AA27F00DB11DAA1F649F6627B00DA11D93
:102DD000661F829F2227B00DA11D621F739FB00D39
:102DE000A11D621F839FA00D611D221F749F3327A9
:102DF000A00D611D231F849F600D211D822F762F42
:102E00006A2F11249F5750409AF0F1F088234AF01E
:102E1000EE0FFF1FBB1F661F771F881F915050408A
:102E2000A9F79E3F510580F00C942E170C9479174A
:102E30005F3FE4F3983ED4F3869577956795B79511
:102E4000F795E7959F5FC1F7FE2B880F911D96952B
:102E5000879597F9089599278827089597F99F6787
:102E600080E870E060E008959FEF80EC0895002412
:102E70000A941616170618060906089500240A94DF
:102E800012161306140605060895092E0394000C65
:102E900011F4882352F0BB0F40F4BF2B11F460FFF4
:102EA00004C06F5F7F4F8F4F9F4F089557FD90581D
:102EB000440F551F59F05F3F71F04795880F97FBFE
:102EC000991F61F09F3F79F08795089512161306B8
:102ED0001406551FF2CF4695F1DF08C016161706E7
:102EE0001806991FF1CF869571056105089408951C
:102EF000E894BB2766277727CB0197F90895F999BE
:102F0000FECF92BD81BDF89A992780B50895262FEE
:102F1000F999FECF1FBA92BD81BD20BD0FB6F894BE
:102F2000FA9AF99A0FBE019608950E94D717A59FA5
:102F3000900DB49F900DA49F800D911D11240895B4
:102F40002F923F924F925F926F927F928F929F92B9
:102F5000AF92BF92CF92DF92EF92FF920F931F93A7
:102F6000CF93DF93CDB7DEB7CA1BDB0B0FB6F89458
:102F7000DEBF0FBECDBF09942A88398848885F8498
:102F80006E847D848C849B84AA84B984C884DF8009
:102F9000EE80FD800C811B81AA81B981CE0FD11DED
:102FA0000FB6F894DEBF0FBECDBFED010895A29F0E
:102FB000B001B39FC001A39F700D811D1124911D0D
:102FC000B29F700D811D1124911D08955058BB278B
:102FD000AA270E94FE170C9445170E94371738F055
:102FE0000E943E1720F039F49F3F19F426F40C9408
:102FF00034170EF4E095E7FB0C942E17E92F0E948E
:10300000561758F3BA17620773078407950720F01D
:1030100079F4A6F50C9478170EF4E0950B2EBA2FE0
:10302000A02D0B01B90190010C01CA01A0011124CE
:10303000FF27591B99F0593F50F4503E68F11A167A
:10304000F040A22F232F342F4427585FF3CF46950B
:1030500037952795A795F0405395C9F77EF41F162D
:10306000BA0B620B730B840BBAF09150A1F0FF0FF7
:10307000BB1F661F771F881FC2F70EC0BA0F621FE3
:10308000731F841F48F4879577956795B795F795D3
:103090009E3F08F0B0CF9395880F08F09927EE0F68
:1030A0009795879508950E9467180C9445170E947C
:1030B0003E1758F00E94371740F029F45F3F29F07F
:1030C0000C942E1751110C9479170C9434170E94FC
:1030D000561768F39923B1F3552391F3951B550BBC
:1030E000BB27AA2762177307840738F09F5F5F4FDB
:1030F000220F331F441FAA1FA9F335D00E2E3AF01A
:10310000E0E832D091505040E695001CCAF72BD031
:10311000FE2F29D0660F771F881FBB1F2617370782
:103120004807AB07B0E809F0BB0B802DBF01FF27B4
:1031300093585F4F3AF09E3F510578F00C942E174C
:103140000C9479175F3FE4F3983ED4F38695779516
:103150006795B795F7959F5FC9F7880F911D96956D
:10316000879597F90895E1E0660F771F881FBB1FC9
:10317000621773078407BA0720F0621B730B840B76
:10318000BA0BEE1F88F7E09508950E949A1608F48E
:103190008FEF08950E949A16880B990B0895991B3A
:1031A00079E004C0991F961708F0961B881F7A953E
:1031B000C9F78095089597FB072E16F4009407D061
:1031C00077FD09D00E94161907FC05D03EF49095B2
:1031D00081959F4F0895709561957F4F0895052EB5
:1031E00097FB1EF400940E94061957FD07D00E9419
:1031F0002A1907FC03D04EF40C94061950954095FB
:10320000309521953F4F4F4F5F4F08959095809592
:10321000709561957F4F8F4F9F4F0895B7FF0C9426
:1032200095170E949517821B930B0895AA1BBB1B31
:1032300051E107C0AA1FBB1FA617B70710F0A61BB6
:10324000B70B881F991F5A95A9F780959095BC01D7
:10325000CD010895A1E21A2EAA1BBB1BFD010DC0D2
:10326000AA1FBB1FEE1FFF1FA217B307E407F50736
:1032700020F0A21BB30BE40BF50B661F771F881F12
:10328000991F1A9469F760957095809590959B01A8
:10329000AC01BD01CF010895EE0FFF1F0590F49121
:1032A000E02D09940F931F93CF93DF938230910504
:1032B00010F482E090E0E0913F03F091400330E0B1
:1032C00020E0B0E0A0E0309799F42115310509F431
:1032D0004AC0281B390B24303105D8F58A819B81DF
:1032E0006115710589F1FB0193838283FE0111C091
:1032F000408151810281138148175907E0F0481736
:10330000590799F4109761F012960C93129713963F
:103310001C933296CF01DF91CF911F910F910895A9
:1033200000933F0310934003F4CF2115310551F072
:103330004217530738F0A901DB019A01BD01DF01F3
:10334000F801C1CFEF01F9CF9093400380933F0381
:10335000CDCFFE01E20FF31F8193919322503109EB
:1033600039832883D7CF20913D0330913E03232B0F
:1033700041F4209102013091030130933E032093E8
:103380003D0320910001309101012115310541F4E7
:103390002DB73EB74091040150910501241B350B18
:1033A000E0913D03F0913E03E217F307A0F42E1BDA
:1033B0003F0B2817390778F0AC014E5F5F4F241799
:1033C000350748F04E0F5F1F50933E0340933D0377
:1033D000819391939FCFF0E0E0E09CCFCF93DF9378
:1033E0000097E9F0FC01329713821282A0913F030B
:1033F000B0914003ED0130E020E01097A1F420816E
:103400003181820F931F20913D0330913E03281795
:10341000390709F061C0F0933E03E0933D03DF916B
:10342000CF910895EA01CE17DF07E8F54A815B8165
:103430009E0141155105B1F7E901FB83EA834991EA
:103440005991C40FD51FEC17FD0761F4808191815C
:103450000296840F951FE901998388838281938165
:103460009B838A83F0E0E0E012968D919C91139704
:103470000097B9F52D913C911197CD010296820FDD
:10348000931F20913D0330913E032817390739F6E9
:10349000309751F51092400310923F03B0933E03D2
:1034A000A0933D03BCCFD383C28340815181840F5D
:1034B000951FC817D90761F44E5F5F4F88819981C6
:1034C000480F591F518340838A819B819383828354
:1034D0002115310509F0B0CFF0934003E0933F038D
:1034E0009ECFFD01DC01C0CF13821282D7CFB0E0A6
:1034F000A0E0EDE7FAE10C94A2178C01009751F4DB
:10350000CB010E9452198C01C801CDB7DEB7E0E1B2
:103510000C94BE17FC01E60FF71F9C0122503109E5
:10352000E217F30708F49DC0D901CD91DC91119702
:10353000C617D70798F0C530D10530F3CE010497F0
:103540008617970708F3C61BD70B2297C193D19311
:103550006D937C93CF010E94EE19D6CF5B01AC1A1C
:10356000BD0A4C018C0E9D1EA0913F03B0914003FB
:10357000512C412CF12CE12C109731F580913D0319
:1035800090913E038815990509F05CC046165706D0
:1035900008F058C08091000190910101009741F41A
:1035A0008DB79EB74091040150910501841B950B86
:1035B000E817F90708F055C0F0933E03E0933D0388
:1035C000F90171836083A0CF8D919C911197129620
:1035D0006C90129713967C901397A815B90559F51E
:1035E0006C0142E0C40ED11CCA14DB0420F1AC0112
:1035F0004A195B09DA011296159780F0628273828C
:1036000051834083D9016D937C93E114F10471F0EF
:10361000D7011396FC93EE93129776CF22968C0FD8
:103620009D1FF90191838083F301EFCFF093400355
:10363000E0933F0369CF4816590608F42C017D0139
:10364000D3019ACFCB010E9452197C01009749F017
:10365000AE01B8010E94341BC8010E94EE19870117
:1036600053CF10E000E050CFFB01DC0102C001901D
:103670000D9241505040D8F70895FB01DC018D9127
:10368000019080190110D9F3990B0895FB01DC0119
:1036900001900D920020E1F7089511E0CBE1D1E017
:1036A00004C0FE010E944C192196CC31D107C9F704
:0436B000F894FFCFBC
:1036B400000041038000000000000904F1088007B5
:1036C400CE07E803520352035103CE03B403B303FA
:1036D400B0039A039003530300000000F201460173
:1036E4007F013F02B0018E01A20100000000090425
:1036F400F1088007CE07E803520352035103410344
:10370400B403470351034103900353030000000033
:103714001E0CE90C8007CE07E80352035203510341
:103724004103B4034703510329079003530374610E
:0437340072650000BA
:00000001FF
