:100000000C945D000C9485000C9485000C94850084
:100010000C9485000C9485000C9485000C944F0979
:100020000C9485000C9485000C9485000C9485003C
:100030000C9485000C9485000C9485000C9485002C
:100040000C9492070C9485000C9402080C94DC0725
:100050000C9485000C9485000C9485000C9485000C
:100060000C9434080C94850074300074617265003F
:1000700000000000250028002B00040404040404F0
:100080000404020202020202030303030303010247
:100090000408102040800102040810200102040816
:1000A0001020000000080002010000030407000007
:1000B000000000000000810C3A1111241FBECFEF98
:1000C000D8E0DEBFCDBF11E0A0E0B1E0E8E1FDE2A5
:1000D00002C005900D92A63AB107D9F723E0A6EA2F
:1000E000B1E001C01D92AB3DB207E1F710E0CCE5F5
:1000F000D0E004C02197FE010E949F13CB35D107A9
:10010000C9F70E944E0D0C947F160C94000090E0ED
:10011000FC01EE55FF4F2491FC01E257FF4F349153
:10012000FC01E658FF4FE491EE23C9F0222339F099
:10013000233001F1A8F4213019F1223029F1F0E047
:10014000EE0FFF1FE059FF4FA591B4918FB7F894C0
:10015000EC91611126C030953E233C938FBF0895EA
:100160002730A9F02830C9F0243049F78091800069
:100170008F7D03C0809180008F7780938000DFCFD8
:1001800084B58F7784BDDBCF84B58F7DFBCF809125
:10019000B0008F778093B000D2CF8091B0008F7D78
:1001A000F9CF3E2BDACF3FB7F89480914B02909174
:1001B0004C02A0914D02B0914E0226B5A89B05C0FD
:1001C0002F3F19F00196A11DB11D3FBFBA2FA92FD6
:1001D000982F8827BC01CD01620F711D811D911DD3
:1001E00042E0660F771F881F991F4A95D1F708953F
:1001F000CF92DF92EF92FF920E94D3006B017C01BD
:100200000E94D3006C197D098E099F09683E7340D6
:1002100081059105A8F3FF90EF90DF90CF900895AE
:100220002FB7F8946091470270914802809149027B
:1002300090914A022FBF0895FC01448B558B668B29
:10024000778B408751876287738708958091170263
:1002500090911802891B990B0895AF92BF92CF928B
:10026000DF92EF92FF920F931F93CF93DF936C0176
:100270007B018B01040F151FEB015E01AE18BF0857
:10028000C017D10759F06991D601ED91FC91019009
:10029000F081E02DC6010995892B79F7C501DF9121
:1002A000CF911F910F91FF90EF90DF90CF90BF9073
:1002B000AF900895FC01538D448D252F30E0842F9D
:1002C00090E0821B930B541710F0CF96089501977E
:1002D0000895FC01918D828D981761F0A28DAE0F6B
:1002E000BF2FB11D5D968C91928D9F5F9F73928FF2
:1002F00090E008958FEF9FEF0895FC01918D828D1E
:10030000981731F0828DE80FF11D858D90E00895EA
:100310008FEF9FEF0895FC01918D228D892F90E042
:10032000805C9F4F821B91098F73992708958FE4FA
:1003300092E00E948B0121E0892B09F420E0822FBA
:10034000089580E090E0892B29F00E9497018111A7
:100350000C9400000895FC01A48DA80FB92FB11DC5
:10036000A35ABF4F2C91848D90E001968F739927EB
:10037000848FA689B7892C93A089B1898C918370C9
:1003800080648C93938D848D981306C00288F389C2
:10039000E02D80818F7D80830895EF92FF920F93EF
:1003A0001F93CF93DF93EC0181E0888F9B8D8C8D21
:1003B00098131AC0E889F989808185FF15C09FB715
:1003C000F894EE89FF896083E889F98980818370D8
:1003D000806480839FBF81E090E0DF91CF911F9187
:1003E0000F91FF90EF900895F62E0B8D10E00F5FA8
:1003F0001F4F0F731127E02E8C8D8E110CC00FB67E
:1004000007FCFACFE889F989808185FFF5CFCE0115
:100410000E94AB01F1CFEB8DEC0FFD2FF11DE35AE4
:10042000FF4FF0829FB7F8940B8FEA89FB89808198
:100430008062CFCFCF93DF93EC01888D8823B9F012
:10044000AA89BB89E889F9898C9185FD03C08081DF
:1004500086FD0DC00FB607FCF7CF8C9185FFF2CF5C
:10046000808185FFEDCFCE010E94AB01E9CFDF9106
:10047000CF9108951F93CF93DF93C1E0C093A7015D
:10048000882399F1D091B8001091BA008091BC00F6
:100490008A7B8093BC0060E082E10E94870060E07C
:1004A00083E10E94870010921102C0931002109203
:1004B0000B0261E082E10E94870061E083E10E941B
:1004C00087008091B9008E7F8093B9008091B90038
:1004D0008D7F8093B90088E48093B80085E4809391
:1004E000BC001093BA00D093B800DF91CF911F9158
:1004F00008952091C801260F3327331F213231057B
:10050000ECF420911102FC0190E080E0243069F0CD
:1005100082E00895A091C8012191AC0148555E4F39
:10052000A40FB52FB11D2C930196861798F38091D7
:10053000C801680F6093C80180E0089581E00895C4
:100540000895E091180280911702E81730F4F0E066
:10055000E75EFD4F808190E008958FEF9FEF089553
:1005600090911802809117022FEF3FEF981748F4EF
:10057000E92FF0E0E75EFD4F208130E09F5F909330
:100580001802C9010895CF93DF93CB01EA01642FCC
:100590000E947902CE01DF91CF910895CF93DF932E
:1005A0001F92CDB7DEB7698361E0CE0101960E944C
:1005B000790281E090E00F90DF91CF91089590E073
:1005C00080E008956F927F928F929F92AF92BF9238
:1005D000CF92DF92EF92FF920F931F93CF93DF930F
:1005E000EC018B013A0169010E9410014B015C0191
:1005F000780110E000E006151705A1F10E94100136
:10060000AB01BC01481959096A097B09F6018081CF
:100610009181092E000CAA0BBB0B84179507A60726
:10062000B70750F0E881F9810084F185E02DCE0113
:1006300009951816190614F7E881F9810084F185E7
:10064000E02DCE010995892B69F0E881F9810284BA
:10065000F385E02DCE010995F70181937F010F5FAE
:100660001F4FC9CF0E941001AB01BC0148195909A5
:100670006A097B09F60180819181841B950B918326
:100680008083C801DF91CF911F910F91FF90EF9070
:10069000DF90CF90BF90AF909F908F907F906F90A2
:1006A0000895CF93DF931F92CDB7DEB79B011982D8
:1006B00041E050E0BE016F5F7F4F0E94E202019770
:1006C00031F4898190E00F90DF91CF9108958FEF01
:1006D0009FEFF9CFFC016489758986899789089510
:1006E0000895CF92DF92EF92FF92CF93DF93EC01C8
:1006F000E881F9810088F189E02D099528893989F7
:100700004A895B890E94A6136B017C01C88AD98A39
:10071000EA8AFB8A6C857D858E859F856F5F7F4F1A
:100720008F4F9F4F6C877D878E879F8761307105C4
:100730008105910551F00E94CE119B01AC01C701CA
:10074000B6010E9412146B017C01C701B601DF9152
:10075000CF91FF90EF90DF90CF900895CF92DF92EE
:10076000EF92FF92CF93DF93EC01E881F981008C47
:10077000F18DE02D0995288939894A895B890E9484
:10078000A6136B017C01C88AD98AEA8AFB8A6C8528
:100790007D858E859F856F5F7F4F8F4F9F4F6C87C5
:1007A0007D878E879F87613071058105910551F0A6
:1007B0000E94CE119B01AC01C701B6010E94121428
:1007C0006B017C01C701B601DF91CF91FF90EF90E3
:1007D000DF90CF900895FC01108A118A128A138A43
:1007E00014861586168617860895FC0195819F70DC
:1007F00071F00380F481E02D80819181009739F0C0
:10080000DC01ED91FC910088F189E02D099460E014
:1008100070E0CB010895FC01178208950895CF93ED
:10082000DF93EC018F8181110DC0E881F981008C8B
:10083000F18DE02DCE010995688779878A879B879E
:1008400081E08F83688579858A859B85DF91CF914B
:100850000895FC0195819F7096171706B9F0B4F0C2
:10086000660F771F83819481680F791FDB018D915B
:100870009C91009759F0FC0122812F3039F40190AE
:10088000F081E02D0088F189E02D099460E070E0AE
:10089000CB01089580E00895CF93DF93EC01888128
:1008A0009981009711F00E942015198218821D82EB
:1008B0001C821B821A82DF91CF910895FC018081F6
:1008C0009181009711F00C9420150895CF92DF923A
:1008D000EF92FF920F931F93CF93DF937C0110E071
:1008E00000E032E3C32E31E0D32ED70115968C9170
:1008F00015978F7080171106F9F0F4F01396ED91AB
:10090000FC91C801880F991FE80FF91FC081D181A0
:10091000209779F08A818F3061F4D982C8828B81E7
:100920009C81892B19F0CE010E946604CE010E94A1
:1009300020150F5F1F4FD9CFDF91CF911F910F91DE
:10094000FF90EF90DF90CF900895EF92FF920F937A
:100950001F93CF93DF93FC0125812617170609F11A
:1009600004F18A01660F771FE380F480E60EF71E1C
:10097000F701C081D181209789F08A818F3071F48D
:1009800082E391E0998388838B819C81892B19F084
:10099000CE010E946604CE010E942015F70111834A
:1009A0000083DF91CF911F910F91FF90EF900895F9
:1009B0008F929F92AF92BF92EF92FF920F931F93ED
:1009C000CF93DF93DB01AA0FBB1FEC01EB81FC810E
:1009D000EA0FFB1FA081B1811097C9F01296EC912C
:1009E0001297EF30A1F4ED91FC9111970488F589ED
:1009F000E02DBA01A901CD01DF91CF911F910F9197
:100A0000FF90EF90BF90AF909F908F900994490115
:100A10005A017B018C0188E190E00E948414EC0172
:100A20001E82188619861A861B861C861D861E86BF
:100A30001F86188A198A1A8A1B8A81E08D8382E0B0
:100A400090E00E9484149C838B83FC0111821082AD
:100A50008FE08A8384E591E0998388838C8A9D8ADC
:100A6000AE8ABF8AD801ED91FC910480F581E02D1A
:100A7000AE01B701C801DF91CF911F910F91FF9097
:100A8000EF90BF90AF909F908F900994CF93DF939A
:100A9000EC01A881B981EB01E881F9811097F1F0AF
:100AA0003097B1F4EC018C819D81892BC9F08C9138
:100AB00090E00BC0DB0114968D919C91892B81F005
:100AC000808190E0919581959109DF91CF91089572
:100AD000BF01CD01DF91CF910C946F16309751F784
:100AE00090E080E0F2CF0F931F93CF93DF93EC0160
:100AF00088819981009759F02A813B812617370711
:100B000030F081E0DF91CF911F910F9108958B011B
:100B10006F5F7F4F0E94A915009759F099838883D2
:100B20001B830A832C813D81232B59F7FC01108202
:100B3000E8CF80E0E7CFEF92FF920F931F93CF9320
:100B4000DF9300D000D000D0CDB7DEB726E636E088
:100B500030930403209303032AE939E33093060317
:100B60002093050328E22093F80240E85EEF69EC49
:100B700077EC4093F9025093FA026093FB02709372
:100B8000FC0240E85EEF69EC77E44093FD0250938D
:100B9000FE026093FF02709300031A8219821C8286
:100BA0001B821E821D82FC0100811181011511052D
:100BB00069F0E480F580B701CE0101960E947305CB
:100BC000811121C0CE0101960E944C0464E971E0BC
:100BD000CE0101960E946C0C8823E9F0109202036A
:100BE00010920103CE0101960E945E0426960FB674
:100BF000F894DEBF0FBECDBFDF91CF911F910F9153
:100C0000FF90EF900895FE82ED82B80189819A816C
:100C10000E947816DBCF69E971E0CE0101960E944F
:100C20006C0C882339F081E090E09093020380936C
:100C30000103D8CF68E971E0CE0101960E946C0CE7
:100C4000882319F082E090E0F0CF6CE971E0CE01EA
:100C500001960E946C0C882319F083E090E0E5CFA8
:100C600060EA71E0CE0101960E946C0C882319F0B5
:100C700084E090E0DACF61EA71E0CE0101960E9453
:100C80006C0C882319F085E090E0CFCF86E090E0EF
:100C9000CCCFEF92FF920F931F93CF93DF93EC0192
:100CA0008B016115710551F0CB010E94C3117C01CC
:100CB000BC01CE010E94730581110BC0CE010E94C0
:100CC0004C04CE01DF91CF911F910F91FF90EF90D7
:100CD0000895FD82EC82B801888199810E94BC113F
:100CE000F0CFEF92FF921F93CF93DF9300D000D00D
:100CF00000D0CDB7DEB77B011A8219821C821B821D
:100D00001E821D826BE670E0CE0101960E944906AC
:100D1000F701248135818D819E812817390749F497
:100D2000BE016F5F7F4FC7010E94460511E0892B0E
:100D300009F010E0CE0101960E945E041123C9F073
:100D400080E090E0A0E0B0E880933D0290933E0206
:100D5000A0933F02B0934002812F26960FB6F894DD
:100D6000DEBF0FBECDBFDF91CF911F91FF90EF90FF
:100D700008951A8219821C821B821E821D8268E6D7
:100D800070E0CE0101960E944906F7012481358169
:100D90008D819E812817390751F4BE016F5F7F4F07
:100DA000C7010E94460511E0892B09F010E0CE0131
:100DB00001960E945E04112379F210923D02109276
:100DC0003E0210923F0210924002C6CFEF92FF9275
:100DD0000F931F93CF93DF93EC01198218821B822C
:100DE0001A821D821C826115710521F18B01FB01A4
:100DF00001900020E9F731977F01E61AF70AB70161
:100E00000E947305811109C0CE01DF91CF911F911E
:100E10000F91FF90EF900C944C04FD82EC82B8018E
:100E200088819981DF91CF911F910F91FF90EF9071
:100E30000C947816DF91CF911F910F91FF90EF9056
:100E40000895CF93DF93EC016BE971E00E94E60611
:100E5000CE01DF91CF91089585ED8093BC00809104
:100E6000130290911402A0911502B09116020796F8
:100E7000A11DB11D23E0B695A795979587952A9555
:100E8000D1F72091BC0024FD03C0109211020895F7
:100E90004091130250911402609115027091160254
:100EA000452B462B472B69F30097A105B10541F06F
:100EB00025E32A95F1F700000197A109B109E1CFD7
:100EC000809112020C943A020F931F93CF93DF93F9
:100ED000EC018B0188819981803A2FE0920748F4D8
:100EE0000E94C712F80180838881998101969983B5
:100EF0008883C801DF91CF911F910F910895CF93FF
:100F0000DF93EC0188819981803A2FE0920738F4D1
:100F10000E94CF1288819981019699838883DF91FD
:100F2000CF9108951F920F920FB60F9211242F9315
:100F30003F938F939F93AF93BF938091470290917C
:100F40004802A0914902B0914A023091460223E042
:100F5000230F2D3758F50196A11DB11D2093460290
:100F60008093470290934802A0934902B0934A02AB
:100F700080914B0290914C02A0914D02B0914E0293
:100F80000196A11DB11D80934B0290934C02A0933A
:100F90004D02B0934E02BF91AF919F918F913F91BF
:100FA0002F910F900FBE0F901F90189526E8230FDA
:100FB0000296A11DB11DD2CF1F920F920FB60F92B4
:100FC00011242F933F934F935F936F937F938F934E
:100FD0009F93AF93BF93EF93FF938FE492E00E94B0
:100FE000AB01FF91EF91BF91AF919F918F917F9155
:100FF0006F915F914F913F912F910F900FBE0F9086
:101000001F9018951F920F920FB60F9211242F93D5
:101010008F939F93EF93FF93E0915F02F0916002B3
:101020008081E0916502F091660282FD1BC0908193
:10103000809168028F5F8F7320916902821741F05F
:10104000E0916802F0E0E15BFD4F958F80936802CC
:10105000FF91EF919F918F912F910F900FBE0F9065
:101060001F9018958081F4CF1F920F920FB60F92A8
:1010700011242F933F934F935F936F937F938F939D
:101080009F93AF93BF93EF93FF938091B900887FB5
:10109000803609F44AC0F0F5883209F4A5C018F585
:1010A000803109F499C0B8F4882309F4F5C0883078
:1010B00009F492C0FF91EF91BF91AF919F918F91F1
:1010C0007F916F915F914F913F912F910F900FBE44
:1010D0000F901F901895883109F486C0803251F71F
:1010E00080930F0214C0803409F49BC040F4803315
:1010F000B9F38833F9F680930F0285ECAEC08035E2
:1011000009F483C0883509F494C0883499F60E94A4
:101110002C07D0CF883909F48AC038F5883729F0F0
:1011200050F4883611F0803729F683E0809311025D
:101130001092EA0155C0883809F479C0803919F055
:10114000803809F0B7CF8091EA01803208F06FC093
:10115000E091EA0181E08E0F8093EA018091BB006B
:10116000F0E0E653FE4F80833BC0803B39F0D0F483
:10117000803A09F477C0883A09F09CCF84E08093E4
:1011800011021092C9011092C801F0E0E0E0099547
:101190008091C80181110FC081E08093C801109235
:1011A000A80109C0803C09F4A8CF883C09F4A5CF68
:1011B000883B09F07FCFE091C90181E08E0F8093D9
:1011C000C901F0E0E855FE4F80818093BB0090910B
:1011D000C9018091C80129C080910C028093BB0095
:1011E00085EC8093BC0066CF90910E0280910D0239
:1011F000981758F5E0910E0281E08E0F80930E0251
:10120000F0E0E551FE4F8081E9CFE0910E0281E0F0
:101210008E0F80930E028091BB00F0E0E551FE4FEF
:10122000808390910E0280910D029817C8F285E894
:10123000D8CFE0910E0281E08E0F80930E02809154
:10124000BB00F0E0E551FE4F8083809110028111D8
:101250005ECF81E080930B0284EA8093BC00109201
:10126000110228CF85EC8093BC001092110280916E
:10127000EA01803230F4E091EA01F0E0E653FE4FFB
:1012800010826091EA0170E08AEC91E0F0E0E0E029
:1012900009951092EA010ECF10920F0238CF1F92DB
:1012A0000F920FB60F9211244F925F926F927F921E
:1012B0008F929F92AF92BF92CF92DF92EF92FF9266
:1012C0000F931F932F933F934F935F936F937F934E
:1012D0008F939F93AF93BF93EF93FF93CF93DF933E
:1012E000CDB7DEB76E97DEBFCDBF7894809170002A
:1012F0008D7F8093700074E0672E712C809179034C
:1013000090917A03DC01ED91FC910084F185E02D50
:101310000995059784F07E8E6D8E8091790390916A
:101320007A03BE01635E7F4F0E9451038A3A9105A2
:1013300071F197FFF2CF809170008260809370000E
:101340006E960FB6F894DEBF0FBECDBFDF91CF9182
:10135000FF91EF91BF91AF919F918F917F916F918D
:101360005F914F913F912F911F910F91FF90EF90BF
:10137000DF90CF90BF90AF909F908F907F906F90B5
:101380005F904F900F900FBE0F901F901895809117
:10139000790390917A03BE01635E7F4F0E945103EF
:1013A0007C0197FDABCF8091790390917A03BE01C8
:1013B000635E7F4F0E9451036C0197FF04C0E114EC
:1013C000F10409F09BCF8091790390917A03BE01DB
:1013D000635E7F4F0E9451034C0197FD8FCF809138
:1013E000790390917A03BE01635E7F4F0E9451039F
:1013F0005C0197FD83CF8091790390917A03BE01C0
:10140000635E7F4F0E9451038C0197FD77CFE114FB
:10141000F10431F080917B038E151F0409F06ECF2B
:10142000C114D10431F080917C038C151D0409F0A6
:1014300065CF4E2C5C2C982C8C2D8E259AEA892712
:1014400088268A2480268091790390917A03011559
:101450001105B9F09E01235E3F4FA801FE013196B0
:101460003F01BF010E94E2020817190709F063CF8C
:10147000F30181918826CF0186199709801791077A
:10148000C4F38091790390917A03BE01635E7F4F2C
:101490000E94510397FD4FCF8816190609F04BCFD4
:1014A000E114F10431F080917B038E151F0409F0E3
:1014B00042CFC114D10431F080917C038C151D04FE
:1014C00009F039CFF1E09F124DC080917B034812A3
:1014D00003C081E0511001C080E09091C703909358
:1014E0007F0391E09093BF03811132C18091790312
:1014F00090917A03DC01ED91FC910190F081E02D57
:101500006A2D09958091790390917A036091BF03C8
:10151000DC01ED91FC910190F081E02D0995809125
:10152000790390917A034091BF0350E0DC01ED9183
:10153000FC910280F381E02D6FE773E009956091E3
:10154000BF036A2590E080E02091BF0328171906A9
:1015500009F00CF4B5C1FC01E158FC4F2081622771
:101560000196F2CF62E0961214C02981422F50E01A
:1015700090E080E0841795074CF4FC01EB5CFC4F95
:101580003081E65BFF4F30830196F4CF2093BF0399
:10159000ADCF73E097121BC011278FE080937F03BC
:1015A000FE01319690E080E08017910751F0DC0158
:1015B000AB5CBC4F3C912191321739F08AEA8093A1
:1015C0007F0381E08093BF0391CF0196EDCF84E04C
:1015D000981225C0FA800B8110E080917C039981DC
:1015E000981303C01092BF03A6CE0E94AC1165E60B
:1015F00070E00E9477138017110609F06CF4809157
:10160000D5039091D6039A8B898B6F2DCE0141968D
:101610000E947F07F0927B031092BF0367CFA6E082
:101620009A1203C080917C03CACFB5E09B1203C01D
:101630001092CB03F1CFEDE09E1214C0898190E0AF
:10164000880F991F2091C9033091CA03820F931FFD
:10165000DC01ED91FC91828180937F0381E0809396
:10166000BF0376C0B9E09B1217C0FE01319690E02F
:1016700080E011278017910744F42191DC01AB5CD5
:10168000BC4F50962C930196F5CF0B5C1C4FF80184
:10169000108A1092BF035CC0FAE09F1216C0FE01D0
:1016A000319690E080E011278017910744F4219152
:1016B000DC01AB5CBC4F9A962C930196F5CF0B5C8A
:1016C0001C4FD8019A961C92E4CFBBE09B126FC0CE
:1016D000198110925E031092780365E473E0CE01E5
:1016E00047960E94E6066FE573E0CE0141960E94A0
:1016F000E606812F90E02091C7033091C80382173E
:10170000930708F052C0880F991F2091C9033091A8
:10171000CA03820F931FFC0180819181DC01ED914E
:10172000FC910190F081E02DAE014F5E5F4FBE0154
:10173000695E7F4F099580937F0381E08093BF03AB
:10174000CE0141960E945E04CE0147960E945E043F
:101750008091CB0381110DC0E091CF03F091D003B4
:10176000309721F081E08093CB03099581E080934D
:10177000CB038091CC038111B9CE8091D503909198
:10178000D60302969A8B898B67E3CE0141960E941D
:101790007F0781E08093CC03E091D103F091D203E5
:1017A000309709F4A3CE0995A1CE80E0C4CFBCE068
:1017B0009B1240C0198110925E0365E473E0CE0174
:1017C00047960E94E606812F90E0880F991F20918E
:1017D000C9033091CA03820F931FFC01608171819C
:1017E000DB01ED91FC910280F381E02DAE01495EB9
:1017F0005F4FCE01419609954D8969897A89242FD9
:101800003E8990E080E08217930789F0FB01E80FA2
:10181000F91F6115710521F41092A601E6EAF1E0C5
:101820005081FC01E158FC4F50830196ECCF40936E
:10183000BF0386CFB8E09B1222C080917D039091B8
:101840007E03019690937E0380937D03898190E0CF
:10185000880F991F2091C9033091CA03820F931FEB
:10186000FC01808191814A815B816C817D81DC01F9
:10187000ED91FC910488F589E02D09950ACFB7E038
:101880009B1234CE898190E0880F991F2091C90363
:101890003091CA03820F931FFC0180819181DC018A
:1018A000ED91FC91008CF18DE02D099560937F0303
:1018B00070938003809381039093820384E0CFCE62
:1018C0008091790390917A03DC01ED91FC91019074
:1018D000F081E02D09952FCDFC0124813581232B4A
:1018E00039F421E0FB018081882349F020E007C022
:1018F000808191810E946F1621E0892BB9F7822F98
:1019000008950F931F93CF93DF9300D000D000D0A2
:10191000CDB7DEB7EFE4F2E01382128288EE93E0F7
:10192000A0E0B0E084839583A683B7832EE031E006
:101930003183208325EC30E03587248724EC30E0A8
:101940003787268720EC30E0318B208B21EC30E08C
:10195000338B228B22EC30E0358B248B26EC30E06D
:10196000378B268B118E128E138E148EECEEF2E0D6
:101970001382128284839583A683B78380E291E0E9
:101980009183808310927B0310927C0310927E03DC
:1019900010927D031092C0031092C1031092C203F3
:1019A0001092C4031092C6031092C5031092C8038C
:1019B0001092C7031092CA031092C9031092CB036E
:1019C0001092CC031092CE031092CD031092D0034C
:1019D0001092CF031092D2031092D1031092D4032D
:1019E0001092D3031092D6031092D5030FE013E0A8
:1019F000F8011482158216821782118610861386CA
:101A00001286158614868AE090E09183808388E2AE
:101A100090E00E948414F801938382830DE113E027
:101A2000F801168210861186128613861486158692
:101A300016861786108A118A128A138A81E0858396
:101A400082E090E00E948414F80194838383FC0177
:101A500011821082F801148A158A168A178A86E77D
:101A600091E0918380838FE2828369E971E0CE0106
:101A700001960E94E606CE0101960E949B05CE01CA
:101A800001960E945E0426960FB6F894DEBF0FBE44
:101A9000CDBFDF91CF911F910F910895CF93DF9329
:101AA000CDB7DEB72F970FB6F894DEBF0FBECDBF10
:101AB000789484B5826084BD84B5816084BD85B529
:101AC000826085BD85B5816085BD80916E00816035
:101AD00080936E00109281008091810082608093DB
:101AE00081008091810081608093810080918000DD
:101AF0008160809380008091B10084608093B10008
:101B00008091B00081608093B00080917A00846001
:101B100080937A0080917A00826080937A0080912D
:101B20007A00816080937A0080917A008068809347
:101B30007A001092C100E0915F02F091600282E0B1
:101B40008083E0915B02F0915C021082E0915D0283
:101B5000F0915E0280E1808310926702E09163025F
:101B6000F091640286E08083E0916102F09162026C
:101B7000808180618083E0916102F09162028081C6
:101B800088608083E0916102F091620280818068C8
:101B90008083E0916102F091620280818F7D808379
:101BA0000091C7031091C803E090C503F090C603ED
:101BB0000E151F0591F5C8010896811520E49207BE
:101BC000B8F4880F991F0E9484146C018091C90396
:101BD0009091CA03DC01F60130E020E020173107C4
:101BE00051F04D915D91419351932F5F3F4FF6CF4F
:101BF0008FEF9FEFE8CF1E141F0414F40E942015EE
:101C0000D092CA03C092C9038091C5039091C603C4
:101C100008969093C6038093C5038091C703909163
:101C2000C8032091C9033091CA039C01220F331FBE
:101C3000E091C903F091CA03E20FF31F2DE133E0F5
:101C40003183208301969093C8038093C7038FE468
:101C500092E090937A038093790310E000E00E9471
:101C6000AC11F801EB5CFC4F80830F5F1F4F00311C
:101C70001105A9F78091D5039091D6039C838B839E
:101C800080917B038F8380917C038E83BE01695F8B
:101C90007F4FCE0103960E946407BE016A5F7F4FAB
:101CA000CE0103960E9464078E8180937C038F810E
:101CB00080937B0380917B038A3F18F08FEF8093A2
:101CC0007B031D82BE016B5F7F4FCE0103960E9496
:101CD00064078D81873319F481E08093CC03809170
:101CE0007B03882321F080917B038F3FA9F40E941E
:101CF000AC1169EF70E00E94771311E0180F80912A
:101D0000D5039091D6039A838983612FCE010196E2
:101D10000E947F0710937B0380917C03882321F02E
:101D200080917C038F3FB1F40E94AC1169EF70E0A9
:101D30000E94771311E0180F8091D5039091D6037C
:101D400001969A838983612FCE0101960E947F07B5
:101D500010937C0382E08093B00086E08093B10012
:101D60008DE78093B3008091700082608093700053
:101D70000E94F8005A9A0E94100123E030E040E0EF
:101D800050E00E9446132093390230933A02409368
:101D90003B0250933C02E0E02E2EE0E03E2EFF247A
:101DA000F394EE24EA944A9B9FC0109245020E944D
:101DB00010010E94100123E030E040E050E00E945A
:101DC00046138091390290913A02A0913B02B09162
:101DD0003C0259016A01A81AB90ACA0ADB0AAC8690
:101DE000BD86CE86DF86188619861A861B86AC8449
:101DF000BD84CE84DF84288539854A855B852A1594
:101E00003B054C055D050CF00FC21091F8020E94D5
:101E1000D3004B015C01809111028111A9C0F092A5
:101E20001102F0921002E0920F0210920E02F09254
:101E30000D02F0920C0280910C02110F182B1093DE
:101E40000C0280910B02813009F0DDC010920B0270
:101E50000E94D3004B015C0180910C028093BB0077
:101E60008091130290911402A0911502B091160274
:101E7000892B8A2B8B2BA1F00E94D3000091130297
:101E800010911402209115023091160268197909F7
:101E90008A099B09061717072807390708F489C01C
:101EA0008091BC0083FDD8CF35EC3093BC000E94FC
:101EB000D3004B015C0180911102813009F4A7C06D
:101EC00080910E0272E0D72E823010F4D0900E0274
:101ED000ABEEB1E0E9E1F2E080E08D1509F46EC00F
:101EE0009D9191938F5FF9CF8091450281110AC036
:101EF0000E9410016093410270934202809343025A
:101F0000909344020E9410018090410290904202FE
:101F1000A0904302B0904402681979098A099B098C
:101F2000693B7B408105910558F010923D0210926B
:101F30003E0210923F0210924002F092450237CFCB
:101F40000E941001681979098A099B096333710598
:101F50008105910590F380E090E0A0E0B0E88093E7
:101F60003D0290933E02A0933F02B0934002E5CF22
:101F70008091130290911402A0911502B091160263
:101F8000892B8A2B8B2B09F446CF0E94D3004090DB
:101F90001302509014026090150270901602681996
:101FA00079098A099B09461657066806790608F0DA
:101FB00032CF809112020E943A02D12C1092180264
:101FC000D092170280911802D81609F442C08CEE04
:101FD00092E00E94B0028C018CEE92E00E94B0026E
:101FE000980166E0359527956A95E1F723703327C8
:101FF0003093080320930703902F9F7390930A0355
:1020000080930903DFCF45EE4093BC0050CF809111
:10201000130290911402A0911502B0911602892B1F
:102020008A2B8B2B09F447CF0E94D3000091130217
:102030001091140220911502309116026819790945
:102040008A099B09061717072807390708F033CFB5
:10205000B0CF6091090370910A03C0900303D09040
:1020600004030091050310910603412C512C320109
:102070006C157D0560F00617170708F4B8016C1998
:102080007D0990E080E00E94CC112B013C01809002
:10209000F9029090FA02A090FB02B090FC02A50118
:1020A00094016091FD027091FE028091FF02909177
:1020B00000030E94A513A30192010E9409122B01A3
:1020C0003C010C191D09B80190E080E00E94CC1180
:1020D0009B01AC01C301B2010E941214A50194013D
:1020E0000E94A61360930B0370930C0380930D035F
:1020F00090930E030091110310911203C0901B03E3
:10210000D0901C03F601EE0FFF1FEE0FFF1FE00F34
:10211000F11F608371838283938320911303309135
:10212000140340911503509116030E94A613609367
:102130001303709314038093150390931603209157
:10214000170330911803A9014F5F5F4F5093180395
:1021500040931703AFEFCA1ADA0AD0921C03C09259
:102160001B03E0910F03F0911003CE16DF0624F05D
:1021700010921C0310921B03E417F5074CF53093E3
:1021800018032093170320911B0330911C0337FF82
:1021900006C02E0F3F1F30931C0320931B0320917A
:1021A0001B0330911C03220F331F220F331F020F1A
:1021B000131FF80120813181428153810E94A513B0
:1021C0006093130370931403809315039093160385
:1021D00020E030E0A90160913D0270913E028091C3
:1021E0003F02909140020E94A613609331037093C6
:1021F00032038093330390933403609325037093E9
:10220000260380932703909328030E94F8002885D3
:1022100039854A855B852F5F3F4F4F4F5F4F28873A
:1022200039874A875B87E3CD2091390230913A02A2
:1022300040913B0250913C02AC84BD84CE84DF844B
:102240002A0D3B1D4C1D5D1D2093390230933A022F
:1022500040933B0250933C020E9410012114310430
:1022600009F4A1CD0E949701882309F49CCD0E9416
:10227000000099CD82E391E090931E0380931D03AB
:102280008091200390912103892B21F08DE193E02F
:102290000E94660480911103909112030E94201500
:1022A0008091C5039091C6031816190644F48091D5
:1022B000C9039091CA03009711F00C94201508955A
:1022C0008F929F92AF92BF92CF92DF92EF92FF9246
:1022D000CF93DF93EC01688179818A819B816115BD
:1022E00071058105910521F464E279ED8BE597E0B4
:1022F0002DE133EF41E050E00E94DD1249015A0127
:102300009B01AC01A7EAB1E40E94FC126B017C01C5
:10231000ACEEB4EFA50194010E940A13DC01CB01DD
:102320008C0D9D1DAE1DBF1DB7FF03C00197A109F8
:10233000B04888839983AA83BB839F77DF91CF912D
:10234000FF90EF90DF90CF90BF90AF909F908F90D5
:1023500008950E946011089580E091E00E9460114C
:102360000895B0E0A0E08093000190930101A09354
:102370000201B09303010895FB01DC0105900D9269
:102380000020E1F70895FC0105900020E9F7809511
:1023900090958E0F9F1F0895E89409C097FB3EF417
:1023A00090958095709561957F4F8F4F9F4F9923A2
:1023B000A9F0F92F96E9BB279395F6958795779520
:1023C0006795B795F111F8CFFAF4BB0F11F460FFE0
:1023D0001BC06F5F7F4F8F4F9F4F16C0882311F038
:1023E00096E911C0772321F09EE8872F762F05C04C
:1023F000662371F096E8862F70E060E02AF09A95E7
:10240000660F771F881FDAF7880F9695879597F9DB
:1024100008950E941C120C948D120E947F1238F0B5
:102420000E94861220F0952311F00C9476120C94E1
:102430007C1211240C94C1120E949E1270F3959F7D
:10244000C1F3950F50E0551F629FF001729FBB27AB
:10245000F00DB11D639FAA27F00DB11DAA1F649F47
:102460006627B00DA11D661F829F2227B00DA11DFA
:10247000621F739FB00DA11D621F839FA00D611D80
:10248000221F749F3327A00D611D231F849F600DA1
:10249000211D822F762F6A2F11249F5750409AF0CA
:1024A000F1F088234AF0EE0FFF1FBB1F661F771F56
:1024B000881F91505040A9F79E3F510580F00C9421
:1024C00076120C94C1125F3FE4F3983ED4F38695E4
:1024D00077956795B795F795E7959F5FC1F7FE2BC1
:1024E000880F911D9695879597F9089597F99F679D
:1024F00080E870E060E008959FEF80EC089500248C
:102500000A941616170618060906089500240A9458
:1025100012161306140605060895092E0394000CDE
:1025200011F4882352F0BB0F40F4BF2B11F460FF6D
:1025300004C06F5F7F4F8F4F9F4F089557FD905896
:10254000440F551F59F05F3F71F04795880F97FB77
:10255000991F61F09F3F79F0879508951216130631
:102560001406551FF2CF4695F1DF08C01616170660
:102570001806991FF1CF8695710561050894089595
:10258000E894BB2766277727CB0197F90895F99937
:10259000FECF92BD81BDF89A992780B50895262F68
:1025A000F999FECF1FBA92BD81BD20BD0FB6F89438
:1025B000FA9AF99A0FBE01960895052E97FB1EF41C
:1025C00000940E94F41257FD07D00E94461307FCA6
:1025D00003D04EF40C94F41250954095309521950B
:1025E0003F4F4F4F5F4F089590958095709561953F
:1025F0007F4F8F4F9F4F08950E946813A59F900DA6
:10260000B49F900DA49F800D911D11240895B7FFD4
:102610000C94FC120E94FC12821B930B08952F92C3
:102620003F924F925F926F927F928F929F92AF9262
:10263000BF92CF92DF92EF92FF920F931F93CF93AF
:10264000DF93CDB7DEB7CA1BDB0B0FB6F894DEBF46
:102650000FBECDBF09942A88398848885F846E846C
:102660007D848C849B84AA84B984C884DF80EE80B6
:10267000FD800C811B81AA81B981CE0FD11D0FB6BF
:10268000F894DEBF0FBECDBFED010895A1E21A2E72
:10269000AA1BBB1BFD010DC0AA1FBB1FEE1FFF1F06
:1026A000A217B307E407F50720F0A21BB30BE40B56
:1026B000F50B661F771F881F991F1A9469F760959D
:1026C0007095809590959B01AC01BD01CF01089557
:1026D000A29FB001B39FC001A39F700D811D112463
:1026E000911DB29F700D811D1124911D089597FBBE
:1026F000072E16F4009407D077FD09D00E948B13A3
:1027000007FC05D03EF4909581959F4F08957095F4
:1027100061957F4F0895AA1BBB1B51E107C0AA1FFB
:10272000BB1FA617B70710F0A61BB70B881F991F72
:102730005A95A9F780959095BC01CD010895EE0FAB
:10274000FF1F0590F491E02D09945058BB27AA274C
:102750000E94BD130C948D120E947F1238F00E94CB
:10276000861220F039F49F3F19F426F40C947C1261
:102770000EF4E095E7FB0C947612E92F0E949E126E
:1027800058F3BA17620773078407950720F079F4A6
:10279000A6F50C94C0120EF4E0950B2EBA2FA02DC6
:1027A0000B01B90190010C01CA01A0011124FF27FE
:1027B000591B99F0593F50F4503E68F11A16F040F9
:1027C000A22F232F342F4427585FF3CF46953795F8
:1027D0002795A795F0405395C9F77EF41F16BA0BBD
:1027E000620B730B840BBAF09150A1F0FF0FBB1F6B
:1027F000661F771F881FC2F70EC0BA0F621F731FB4
:10280000841F48F4879577956795B795F7959E3F10
:1028100008F0B0CF9395880F08F09927EE0F9795A1
:10282000879508950E9426140C948D120E9486129A
:1028300058F00E947F1240F029F45F3F29F00C9479
:10284000761251110C94C1120C947C120E949E12AB
:1028500068F39923B1F3552391F3951B550BBB27CF
:10286000AA2762177307840738F09F5F5F4F220F14
:10287000331F441FAA1FA9F335D00E2E3AF0E0E80B
:1028800032D091505040E695001CCAF72BD0FE2F55
:1028900029D0660F771F881FBB1F261737074807E9
:1028A000AB07B0E809F0BB0B802DBF01FF279358A1
:1028B0005F4F3AF09E3F510578F00C9476120C94DD
:1028C000C1125F3FE4F3983ED4F386957795679500
:1028D000B795F7959F5FC9F7880F911D96958795D6
:1028E00097F90895E1E0660F771F881FBB1F6217F5
:1028F00073078407BA0720F0621B730B840BBA0BB3
:10290000EE1F88F7E09508950F931F93CF93DF9301
:102910008230910510F482E090E0E091D903F091CB
:10292000DA0330E020E0B0E0A0E0309799F4211520
:10293000310509F44AC0281B390B24303105D8F57C
:102940008A819B816115710589F1FB0193838283E3
:10295000FE0111C04081518102811381481759073E
:10296000E0F04817590799F4109761F012960C930C
:10297000129713961C933296CF01DF91CF911F913E
:102980000F9108950093D9031093DA03F4CF211522
:10299000310551F04217530738F0A901DB019A01C4
:1029A000BD01DF01F801C1CFEF01F9CF9093DA0348
:1029B0008093D903CDCFFE01E20FF31F8193919352
:1029C0002250310939832883D7CF2091D703309102
:1029D000D803232B41F42091060130910701309355
:1029E000D8032093D70320910401309105012115CC
:1029F000310541F42DB73EB74091080150910901CE
:102A0000241B350BE091D703F091D803E217F307AD
:102A1000A0F42E1B3F0B2817390778F0AC014E5F4E
:102A20005F4F2417350748F04E0F5F1F5093D803B0
:102A30004093D703819391939FCFF0E0E0E09CCF48
:102A4000CF93DF930097E9F0FC0132971382128253
:102A5000A091D903B091DA03ED0130E020E01097A6
:102A6000A1F420813181820F931F2091D7033091EF
:102A7000D8032817390709F061C0F093D803E09311
:102A8000D703DF91CF910895EA01CE17DF07E8F56C
:102A90004A815B819E0141155105B1F7E901FB8334
:102AA000EA8349915991C40FD51FEC17FD0761F4D2
:102AB000808191810296840F951FE9019983888313
:102AC000828193819B838A83F0E0E0E012968D916E
:102AD0009C9113970097B9F52D913C911197CD01D9
:102AE0000296820F931F2091D7033091D8032817A5
:102AF000390739F6309751F51092DA031092D9035D
:102B0000B093D803A093D703BCCFD383C2834081B3
:102B10005181840F951FC817D90761F44E5F5F4F2D
:102B200088819981480F591F518340838A819B81F5
:102B3000938382832115310509F0B0CFF093DA0336
:102B4000E093D9039ECFFD01DC01C0CF1382128236
:102B5000D7CFB0E0A0E0EFEAF5E10C9411138C01BF
:102B6000009751F4CB010E9484148C01C801CDB7A9
:102B7000DEB7E0E10C942D13FC01E60FF71F9C017A
:102B800022503109E217F30708F49DC0D901CD9115
:102B9000DC911197C617D70798F0C530D10530F3EF
:102BA000CE0104978617970708F3C61BD70B229709
:102BB000C193D1936D937C93CF010E942015D6CF02
:102BC0005B01AC1ABD0A4C018C0E9D1EA091D9036D
:102BD000B091DA03512C412CF12CE12C109731F5F6
:102BE0008091D7039091D8038815990509F05CC0AE
:102BF0004616570608F058C08091040190910501CF
:102C0000009741F48DB79EB740910801509109019A
:102C1000841B950BE817F90708F055C0F093D8030B
:102C2000E093D703F90171836083A0CF8D919C91CC
:102C3000119712966C90129713967C901397A81583
:102C4000B90559F56C0142E0C40ED11CCA14DB046D
:102C500020F1AC014A195B09DA011296159780F050
:102C60006282738251834083D9016D937C93E11416
:102C7000F10471F0D7011396FC93EE93129776CF7F
:102C800022968C0F9D1FF90191838083F301EFCF72
:102C9000F093DA03E093D90369CF4816590608F494
:102CA0002C017D01D3019ACFCB010E9484147C01B9
:102CB000009749F0AE01B8010E946616C8010E9453
:102CC0002015870153CF10E000E050CFFB01DC015D
:102CD00002C001900D9241505040D8F70895FB0179
:102CE000DC018D91019080190110D9F3990B0895A1
:102CF000FB01DC0101900D920020E1F7089510E046
:102D0000CCE5D0E004C0FE010E949F132196CD3592
:082D1000D107C9F7F894FFCFC9
:102D1800010000000000DB03800000000000CD017E
:102D28002D015A011A028B0169017D010000000082
:102D3800CE02C302DF02A0022601B002A1020000F7
:102D480000004A042107A504D8042904700370036D
:102D5800A0020F0471030E040B04F503EB03AE038A
:102D6800000000004A042107A504D80429047003C0
:102D78007003A0026A0371031C01A0026A03EB033B
:102D8800AE030000000071062107A504D804290439
:102D980070037003A0026A0371031C01A0026A0396
:102DA800EB03AE03707369006B7061006D706100B6
:062DB8006D626172000073
:00000001FF
