:100000000C947D000C94A5000C94A5000C94A50004
:100010000C94A5000C94A5000C94A5000C94F40B72
:100020000C94A5000C94A5000C94A5000C94A500BC
:100030000C94A5000C94A5000C94A5000C94A500AC
:100040000C94370A0C94A5000C94A70A0C94810A0E
:100050000C94A5000C94A5000C94A5000C94A5008C
:100060000C94D90A0C94A5004E414E494E4954595E
:10007000494E46CDCCCC3D0AD7233C17B7D1387773
:10008000CC2B329595E6241FB14F0A000020410089
:1000900000C84200401C4620BCBE4CCA1B0E5AAED3
:1000A000C59D74743000746172650063006D00005A
:1000B000000000250028002B0004040404040404AC
:1000C0000402020202020203030303030301020407
:1000D00008102040800102040810200102040810CA
:1000E00020000000080002010000030407000000D7
:1000F0000000000000006A0F440F11241FBECFEF64
:10010000D8E0DEBFCDBF23E0A6E9B1E001C01D927B
:10011000A13FB207E1F711E0A0E0B1E0ECE8F5E3C0
:1001200002C005900D92A639B107D9F710E0CCE7CF
:10013000D0E004C02197FE010E94CF17CB37D10732
:10014000C9F70E9423100C94B91A0C94000090E097
:10015000FC01EF51FF4F2491FC01E353FF4F349119
:10016000FC01E754FF4FE491EE23C9F0222339F05C
:10017000233001F1A8F4213019F1223029F1F0E007
:10018000EE0FFF1FE155FF4FA591B4918FB7F89483
:10019000EC91611126C030953E233C938FBF0895AA
:1001A0002730A9F02830C9F0243049F78091800029
:1001B0008F7D03C0809180008F7780938000DFCF98
:1001C00084B58F7784BDDBCF84B58F7DFBCF8091E5
:1001D000B0008F778093B000D2CF8091B0008F7D38
:1001E000F9CF3E2BDACF3FB7F8948091F801909188
:1001F000F901A091FA01B091FB0126B5A89B05C0B9
:100200002F3F19F00196A11DB11D3FBFBA2FA92F95
:10021000982F8827BC01CD01620F711D811D911D92
:1002200042E0660F771F881F991F4A95D1F70895FE
:100230002FB7F8946091F4017091F5018091F60167
:100240009091F7012FBF0895FC01448B558B668B6D
:10025000778B40875187628773870895AF92BF92EB
:10026000CF92DF92EF92FF920F931F93CF93DF9382
:100270006C017B018B01040F151FEB015E01AE18B1
:10028000BF08C017D10759F06991D601ED91FC91D3
:100290000190F081E02DC6010995892B79F7C50100
:1002A000DF91CF911F910F91FF90EF90DF90CF9052
:1002B000BF90AF900895FC01538D448D252F30E001
:1002C000842F90E0821B930B541710F0CF96089563
:1002D00001970895FC01918D828D981761F0A28D90
:1002E000AE0FBF2FB11D5D968C91928D9F5F9F7356
:1002F000928F90E008958FEF9FEF0895FC01918D0C
:10030000828D981731F0828DE80FF11D858D90E078
:1003100008958FEF9FEF0895FC01918D228D892F15
:1003200090E0805C9F4F821B91098F7399270895FD
:100330008CE692E00E948C0121E0892B09F420E0F8
:10034000822F089580E090E0892B29F00E94980187
:1003500081110C9400000895FC01A48DA80FB92F01
:10036000B11DA35ABF4F2C91848D90E001968F73DD
:100370009927848FA689B7892C93A089B1898C91FC
:10038000837080648C93938D848D981306C002884B
:10039000F389E02D80818F7D80830895EF92FF9215
:1003A0000F931F93CF93DF93EC0181E0888F9B8D98
:1003B0008C8D98131AC0E889F989808185FF15C052
:1003C0009FB7F894EE89FF896083E889F989808175
:1003D0008370806480839FBF81E090E0DF91CF9144
:1003E0001F910F91FF90EF900895F62E0B8D10E066
:1003F0000F5F1F4F0F731127E02E8C8D8E110CC0D5
:100400000FB607FCFACFE889F989808185FFF5CF1F
:10041000CE010E94AC01F1CFEB8DEC0FFD2FF11D51
:10042000E35AFF4FF0829FB7F8940B8FEA89FB895C
:1004300080818062CFCFCF93DF93EC01888D8823BA
:10044000B9F0AA89BB89E889F9898C9185FD03C037
:10045000808186FD0DC00FB607FCF7CF8C9185FF1C
:10046000F2CF808185FFEDCFCE010E94AC01E9CFB4
:10047000DF91CF9108951F93CF93DF93C1E0C09395
:100480009801882399F1D091B8001091BA00809119
:10049000BC008A7B8093BC0060E082E10E94A700E0
:1004A00060E083E10E94A70010924202C0934102E3
:1004B00010921C0261E082E10E94A70061E083E1EA
:1004C0000E94A7008091B9008E7F8093B90080912F
:1004D000B9008D7F8093B90088E48093B80085E4EB
:1004E0008093BC001093BA00D093B800DF91CF91F5
:1004F0001F9108958F929F92AF92BF92CF92DF92F9
:10050000EF92FF920F931F93CF93DF93D0916B02E3
:10051000D13208F0D7C0182FC0916A020E94F300B0
:100520006B017C018091420281116BC082E080935B
:100530004202109341028FEF8093400210923F02DB
:10054000D0933E02AAE4B2E0EEE1F2E080E0D813FC
:1005500091C010921D0280911D02CC0FC82BC09338
:100560001D0280911C02813009F088C010921C028B
:100570000E94F3006B017C0180911D028093BB00FF
:100580008091440290914502A0914602B0914702A9
:10059000892B8A2B8B2BA1F00E94F300009144023F
:1005A0001091450220914602309147026C197D0955
:1005B0008E099F09061717072807390708F442C054
:1005C0008091BC0083FDD8CF85EC8093BC000E9455
:1005D000F3006B017C0180914202823009F450C02B
:1005E000809140028F3F09F46FC0809140028032B9
:1005F00009F46CC080914002803309F469C084E042
:1006000026C08091440290914502A0914602B0918B
:100610004702892B8A2B8B2B09F484CF0E94F3008D
:100620008090440290904502A0904602B09047020C
:100630006C197D098E099F0986169706A806B906CA
:1006400008F070CF809143020E943B0285E0109237
:10065000490210926B0210924802DF91CF911F91D4
:100660000F91FF90EF90DF90CF90BF90AF909F9051
:100670008F9008959D9191938F5F69CF85EEA5CF5F
:100680008091440290914502A0914602B0914702A8
:10069000892B8A2B8B2B09F49ECF0E94F3000091AB
:1006A00044021091450220914602309147026C1994
:1006B0007D098E099F09061717072807390708F0D3
:1006C0008ACFC0CF81E0C3CF80E0C1CF82E0BFCF6F
:1006D00083E0BDCF1F93CF93DF93162FC5E1D3E007
:1006E000A981BA819B8121E02093480290936A02FC
:1006F0001092490210926B02ED91FC9111970190BA
:10070000F081E02D682FCD01099589819A81DC0166
:10071000ED91FC910190F081E02D612F099581E030
:100720000E947A028883DF91CF911F910895CF9222
:10073000DF92EF92FF920F931F93CF93DF93D82F07
:10074000C62F613208F098C00E94F3006B017C0153
:100750008091420281116BC081E0809342028093BC
:1007600041029FEF9093400210923F029C0F9093A2
:100770003E0280931D0280911D02DD0FD82BD09385
:100780001D0280911C02813009F078C010921C0279
:100790000E94F3006B017C0180911D028093BB00DD
:1007A0008091440290914502A0914602B091470287
:1007B000892B8A2B8B2BA1F00E94F300009144021D
:1007C0001091450220914602309147026C197D0933
:1007D0008E099F09061717072807390708F448C02C
:1007E0008091BC0083FDD8CF85EC8093BC000E9433
:1007F000F3006B017C0180914202813009F440C01A
:1008000080913F028C1710F4C0913F02EEE1F2E0BC
:10081000ACEFB1E080E08C1355C08C2FDF91CF910D
:100820001F910F91FF90EF90DF90CF9008958091EE
:10083000440290914502A0914602B0914702892B53
:100840008A2B8B2B09F484CF0E94F3000091440281
:100850001091450220914602309147026C197D09A2
:100860008E099F09061717072807390708F070CF68
:10087000809143020E943B02C0E0CFCF85EEB5CF0E
:100880008091440290914502A0914602B0914702A6
:10089000892B8A2B8B2B09F4AECF0E94F300009199
:1008A00044021091450220914602309147026C1992
:1008B0007D098E099F09061717072807390708F0D1
:1008C0009ACFD6CF91919D938F5FA5CF2091B901FB
:1008D000260F3327331F21323105ECF420914202D9
:1008E000FC0190E080E0243069F082E00895A0915E
:1008F000B9012191AC0147565E4FA40FB52FB11D30
:100900002C930196861798F38091B901680F609334
:10091000B90180E0089581E008950895E091E10132
:100920008091E001E81730F4F0E0E450FE4F808160
:1009300090E008958FEF9FEF08959091E1018091ED
:10094000E0012FEF3FEF981748F4E92FF0E0E45073
:10095000FE4F208130E09F5F9093E101C90108952F
:100960008091E0019091E101891B990B0895CF924C
:10097000DF92EF92FF920F931F93CF93DF937C014F
:10098000CB018A0120914802222389F0EB016B01FF
:10099000C40ED51ECC15DD0569F06991D701ED9126
:1009A000FC910190F081E02DC7010995F3CF642FF0
:1009B0000E946604C801DF91CF911F910F91FF90B3
:1009C000EF90DF90CF900895CF93DF931F92CDB734
:1009D000DEB76983209148022223F9F020916B024F
:1009E000203258F021E030E0FC013383228390E094
:1009F00080E00F90DF91CF91089580914902E82F18
:100A0000F0E0E65BFD4F998190838F5F8093490210
:100A100080936B0281E090E0ECCF61E0CE01019623
:100A20000E946604F7CF90E080E008956F927F9275
:100A30008F929F92AF92BF92CF92DF92EF92FF92EE
:100A40000F931F93CF93DF93EC018B013A01690160
:100A50000E9418014B015C01780110E000E00615CE
:100A60001705A1F10E941801AB01BC0148195909F1
:100A70006A097B09F60180819181092E000CAA0B7D
:100A8000BB0B84179507A607B70750F0E881F981DB
:100A90000084F185E02DCE0109951816190614F78A
:100AA000E881F9810084F185E02DCE010995892B3B
:100AB00069F0E881F9810284F385E02DCE01099582
:100AC000F70181937F010F5F1F4FC9CF0E9418016B
:100AD000AB01BC01481959096A097B09F6018081FB
:100AE0009181841B950B91838083C801DF91CF9105
:100AF0001F910F91FF90EF90DF90CF90BF90AF903C
:100B00009F908F907F906F900895CF93DF931F9267
:100B1000CDB7DEB79B01198241E050E0BE016F5FA7
:100B20007F4F0E941605019731F4898190E00F9064
:100B3000DF91CF9108958FEF9FEFF9CFFC0164898A
:100B400075898689978908950895CF92DF92EF92EB
:100B5000FF92CF93DF93EC01E881F9810088F1895E
:100B6000E02D0995288939894A895B890E94D61721
:100B70006B017C01C88AD98AEA8AFB8A6C857D85EB
:100B80008E859F856F5F7F4F8F4F9F4F6C877D87CF
:100B90008E879F87613071058105910551F00E9414
:100BA00014169B01AC01C701B6010E9442186B01EB
:100BB0007C01C701B601DF91CF91FF90EF90DF90EC
:100BC000CF900895CF92DF92EF92FF92CF93DF9371
:100BD000EC01E881F981008CF18DE02D09952889DF
:100BE00039894A895B890E94D6176B017C01C88AC2
:100BF000D98AEA8AFB8A6C857D858E859F856F5FA1
:100C00007F4F8F4F9F4F6C877D878E879F87613087
:100C100071058105910551F00E9414169B01AC01EC
:100C2000C701B6010E9442186B017C01C701B601E1
:100C3000DF91CF91FF90EF90DF90CF900895FC016E
:100C4000108A118A128A138A1486158616861786C8
:100C50000895FC0195819F7071F00380F481E02D6F
:100C600080819181009739F0DC01ED91FC91008841
:100C7000F189E02D099460E070E0CB010895FC015A
:100C8000178208950895CF93DF93EC018F8181112E
:100C90000DC0E881F981008CF18DE02DCE01099520
:100CA000688779878A879B8781E08F8368857985C4
:100CB0008A859B85DF91CF910895FC0195819F7076
:100CC00096171706B9F0B4F0660F771F83819481E9
:100CD000680F791FDB018D919C91009759F0FC0101
:100CE00022812F3039F40190F081E02D0088F189C4
:100CF000E02D099460E070E0CB01089580E0089554
:100D000030E020E04FE45EE420FD28C050937C00FA
:100D100080917A00806480937A0080917A0086FDC9
:100D2000FCCF80917800909179008927909197016C
:100D3000892780FB879587F98093970190917A00A6
:100D4000880F86709068892B80937A002F5F3F4FC1
:100D500024313105C9F680919701089540937C00B4
:100D6000D7CFCF93DF93EC0188819981009711F061
:100D70000E945A19198218821D821C821B821A82B3
:100D8000DF91CF910895FC0180819181009711F04E
:100D90000C945A190895CF92DF92EF92FF920F931D
:100DA0001F93CF93DF937C0110E000E032E3C32E6A
:100DB00031E0D32ED70115968C9115978F7080173F
:100DC0001106F9F0F4F01396ED91FC91C801880F2B
:100DD000991FE80FF91FC081D181209779F08A818E
:100DE0008F3061F4D982C8828B819C81892B19F064
:100DF000CE010E94CB06CE010E945A190F5F1F4FF1
:100E0000D9CFDF91CF911F910F91FF90EF90DF909D
:100E1000CF900895EF92FF920F931F93CF93DF939C
:100E2000FC0125812617170609F104F18A01660FD6
:100E3000771FE380F480E60EF71EF701C081D181B1
:100E4000209789F08A818F3071F482E391E0998351
:100E500088838B819C81892B19F0CE010E94CB065F
:100E6000CE010E945A19F70111830083DF91CF91BF
:100E70001F910F91FF90EF9008958F929F92AF92E4
:100E8000BF92EF92FF920F931F93CF93DF93DB01FB
:100E9000AA0FBB1FEC01EB81FC81EA0FFB1FA081B5
:100EA000B1811097C9F01296EC911297EF30A1F42E
:100EB000ED91FC9111970488F589E02DBA01A90103
:100EC000CD01DF91CF911F910F91FF90EF90BF90D7
:100ED000AF909F908F90099449015A017B018C013A
:100EE00088E190E00E94BE18EC011E8218861986E7
:100EF0001A861B861C861D861E861F86188A198ADE
:100F00001A8A1B8A81E08D8382E090E00E94BE18DD
:100F10009C838B83FC01118210828FE08A8384E59D
:100F200091E0998388838C8A9D8AAE8ABF8AD80192
:100F3000ED91FC910480F581E02DAE01B701C8016F
:100F4000DF91CF911F910F91FF90EF90BF90AF90E5
:100F50009F908F9009940C9434170F931F93CF9305
:100F6000DF93EC018B0188819981803A2FE0920711
:100F700048F40E94AB07F80180838881998101962B
:100F800099838883C801DF91CF911F910F910895B4
:100F9000FC0180819181009711F00C94881460E02D
:100FA00070E0CB010895FC0124813581FB0144816F
:100FB000558124173507E1F4FC0180819181FB0103
:100FC000608171810097D1F061157105A1F4232B27
:100FD000C1F0FC01808190E008C0232B91F0FB015F
:100FE000808190E091958195910921E0892B09F00C
:100FF00020E0822F08950E94A91AF7CF611571058C
:1010000061F721E0F6CF0F931F93CF93DF93EC01AD
:1010100088819981009759F02A813B8126173707EB
:1010200030F081E0DF91CF911F910F9108958B01F6
:101030006F5F7F4F0E94E319009759F0998388836F
:101040001B830A832C813D81232B59F7FC011082DD
:10105000E8CF80E0E7CFEF92FF920F931F93CF93FB
:10106000DF93EC018B016115710551F0CB010E94FA
:1010700093147C01BC01CE010E94030881110BC0B6
:10108000CE010E94B106CE01DF91CF911F910F9149
:10109000FF90EF900895FD82EC82B80188819981DC
:1010A0000E948C14F0CFEF92FF920F931F93CF9377
:1010B000DF93EC01198218821B821A821D821C8226
:1010C0006115710521F18B01FB0101900020E9F709
:1010D00031977F01E61AF70AB7010E9403088111D0
:1010E00009C0CE01DF91CF911F910F91FF90EF903A
:1010F0000C94B106FD82EC82B80188819981DF9160
:10110000CF911F910F91FF90EF900C94B21ADF9145
:10111000CF911F910F91FF90EF900895CF93DF93A0
:10112000EC0164E971E00E945308CE01DF91CF9198
:10113000089585ED8093BC00809144029091450212
:10114000A0914602B09147020796A11DB11D23E070
:10115000B695A795979587952A95D1F72091BC00CC
:1011600024FD03C010924202089540914402509120
:1011700045026091460270914702452B462B472B52
:1011800069F30097A105B10541F025E32A95F1F730
:1011900000000197A109B109E1CF809143020C94AD
:1011A0003B020C943C170F931F93CF93DF9300D017
:1011B000CDB7DEB78091E9039091EA0303969A8355
:1011C000898360EC0E94D10889819A816AE3019643
:1011D0000E94D10889819A816FE802960E94D10805
:1011E00089819A8169E403960E94D1088091E9037C
:1011F0009091EA0307969A83898310E000E080913A
:10120000DB039091DC0308171907C0F4C801880FAD
:10121000991FE091DD03F091DE03E80FF91F808153
:101220009181DC01ED91FC910284F385E02DBE01FA
:101230006F5F7F4F09950F5F1F4FE1CF0F900F90AA
:10124000DF91CF911F910F910895CF93DF93EC0120
:1012500088819981803A2FE0920738F40E94D10862
:1012600088819981019699838883DF91CF91089530
:101270009F92AF92BF92CF92DF92EF92FF920F9325
:101280001F93CF93DF935C017B018B01D0E0C0E023
:10129000F80191908F016501CC0EDD1EC6010E9400
:1012A0003417981621F0692DC6010E943C1721962B
:1012B000C430D10569F7C701DF91CF911F910F911C
:1012C000FF90EF90DF90CF90BF90AF909F900895E8
:1012D000DF92EF92FF920F931F93CF93DF9300D093
:1012E00000D000D0CDB7DEB78B017A011A82198207
:1012F0001C821B821E821D826DEA70E0CE01019667
:101300000E942B08BE016F5F7F4FC8010E94D30768
:10131000D82ECE0101960E94C306DD2041F1C701FF
:101320000E94C8076093000170930101809302013D
:1013300090930301C7010E94C80769837A838B8356
:101340009C83BE016F5F7F4F90E080E00E94380970
:1013500081E026960FB6F894DEBF0FBECDBFDF91B9
:10136000CF911F910F91FF90EF90DF9008951A8217
:1013700019821C821B821E821D826BEA70E0CE01E4
:1013800001960E942B08BE016F5F7F4FC8010E942B
:10139000D307D82ECE0101960E94C306DD20C1F0EE
:1013A000C7010E94C8076093DC017093DD01809340
:1013B000DE019093DF01C7010E94C80769837A8329
:1013C0008B839C83BE016F5F7F4F84E090E0BECF34
:1013D0001A8219821C821B821E821D8266EA70E0BC
:1013E000CE0101960E942B08BE016F5F7F4FC8019E
:1013F0000E94D307F82ECE0101960E94C306FF205B
:1014000091F08091E6019091E701A091E801B091FF
:10141000E901B0588093EA019093EB01A093EC01AD
:10142000B093ED0195CF1A8219821C821B821E8215
:101430001D8263EA70E0CE0101960E942B08BE0176
:101440006F5F7F4FC8010E94D307182FCE0101960E
:101450000E94C30680E0112309F47BCF1092EA01B9
:101460001092EB011092EC011092ED0171CF1F92DE
:101470000F920FB60F9211242F933F938F939F9348
:10148000AF93BF938091F4019091F501A091F60183
:10149000B091F7013091F30123E0230F2D3758F578
:1014A0000196A11DB11D2093F3018093F401909347
:1014B000F501A093F601B093F7018091F8019091A6
:1014C000F901A091FA01B091FB010196A11DB11D96
:1014D0008093F8019093F901A093FA01B093FB0176
:1014E000BF91AF919F918F913F912F910F900FBE20
:1014F0000F901F90189526E8230F0296A11DB11D8D
:10150000D2CF1F920F920FB60F9211242F933F93B9
:101510004F935F936F937F938F939F93AF93BF93FB
:10152000EF93FF938CE692E00E94AC01FF91EF9164
:10153000BF91AF919F918F917F916F915F914F91EB
:101540003F912F910F900FBE0F901F9018951F92F3
:101550000F920FB60F9211242F938F939F93EF93B7
:10156000FF93E0917C02F0917D028081E091820204
:10157000F091830282FD1BC09081809185028F5F74
:101580008F7320918602821741F0E0918502F0E08E
:10159000E459FD4F958F80938502FF91EF919F91C4
:1015A0008F912F910F900FBE0F901F9018958081F3
:1015B000F4CF1F920F920FB60F9211242F933F93E7
:1015C0004F935F936F937F938F939F93AF93BF934B
:1015D000EF93FF938091B900887F803609F44AC069
:1015E000F0F5883209F4A5C018F5803109F499C0E6
:1015F000B8F4882309F4F5C0883009F492C0FF914B
:10160000EF91BF91AF919F918F917F916F915F917A
:101610004F913F912F910F900FBE0F901F901895F3
:10162000883109F486C0803251F78093400214C09B
:10163000803409F49BC040F48033B9F38833F9F661
:101640008093400285ECAEC0803509F483C08835B4
:1016500009F494C0883499F60E949908D0CF88394B
:1016600009F48AC038F5883729F050F4883611F02B
:10167000803729F683E0809342021092DB0155C047
:10168000883809F479C0803919F0803809F0B7CF6B
:101690008091DB01803208F06FC0E091DB0181E0D6
:1016A0008E0F8093DB018091BB00F0E0E554FE4F8C
:1016B00080833BC0803B39F0D0F4803A09F477C096
:1016C000883A09F09CCF84E0809342021092BA01DC
:1016D0001092B901F0E0E0E009958091B901811123
:1016E0000FC081E08093B9011092990109C0803C3C
:1016F00009F4A8CF883C09F4A5CF883B09F07FCF37
:10170000E091BA0181E08E0F8093BA01F0E0E756D4
:10171000FE4F80818093BB009091BA018091B90106
:1017200029C080911D028093BB0085EC8093BC0092
:1017300066CF90913F0280913E02981758F5E09154
:101740003F0281E08E0F80933F02F0E0E25EFD4FAA
:101750008081E9CFE0913F0281E08E0F80933F02CC
:101760008091BB00F0E0E25EFD4F808390913F02EC
:1017700080913E029817C8F285E8D8CFE0913F02E9
:1017800081E08E0F80933F028091BB00F0E0E25E2B
:10179000FD4F80838091410281115ECF81E0809373
:1017A0001C0284EA8093BC001092420228CF85EC90
:1017B0008093BC00109242028091DB01803230F4B1
:1017C000E091DB01F0E0E554FE4F10826091DB0117
:1017D00070E08BEB91E0F0E0E0E009951092DB0126
:1017E0000ECF1092400238CF1F920F920FB60F9279
:1017F00011244F925F926F927F928F929F92AF923D
:10180000BF92CF92DF92EF92FF920F931F932F938D
:101810003F934F935F936F937F938F939F93AF9378
:10182000BF93EF93FF93CF93DF93CDB7DEB76E9760
:10183000DEBFCDBF809170008D7F80937000789463
:10184000E4E06E2E712C80918D0390918E03DC016B
:10185000ED91FC910084F185E02D0995059784F0C8
:101860007E8E6D8E80918D0390918E03BE01635E9E
:101870007F4F0E9485058A3A910571F197FFF2CF5B
:10188000809170008260809370006E960FB6F8941D
:10189000DEBF0FBECDBFDF91CF91FF91EF91BF9122
:1018A000AF919F918F917F916F915F914F913F91F8
:1018B0002F911F910F91FF90EF90DF90CF90BF90ED
:1018C000AF909F908F907F906F905F904F900F9010
:1018D0000FBE0F901F90189580918D0390918E03ED
:1018E000BE01635E7F4F0E9485057C0197FDABCFF3
:1018F00080918D0390918E03BE01635E7F4F0E94A5
:1019000085056C0197FF04C0E114F10409F09BCF39
:1019100080918D0390918E03BE01635E7F4F0E9484
:1019200085054C0197FD8FCF80918D0390918E039B
:10193000BE01635E7F4F0E9485055C0197FD83CFEA
:1019400080918D0390918E03BE01635E7F4F0E9454
:1019500085058C0197FD77CFE114F10431F080917A
:101960008F038E151F0409F06ECFC114D10431F01E
:10197000809190038C151D0409F065CF4E2C5C2CD2
:10198000982C8C2D8E259AEA892788268A248026F1
:1019900080918D0390918E0301151105B9F09E0180
:1019A000235E3F4FA801FE0131963F01BF010E9417
:1019B00016050817190709F063CFF30181918826EE
:1019C000CF018619970980179107C4F380918D0381
:1019D00090918E03BE01635E7F4F0E94850597FD47
:1019E0004FCF8816190609F04BCFE114F10431F0FE
:1019F00080918F038E151F0409F042CFC114D104CA
:101A000031F0809190038C151D0409F039CFF1E07D
:101A10009F124DC080918F03481203C081E0511086
:101A200001C080E09091DB039093930391E0909349
:101A3000D303811165C180918D0390918E03DC01E8
:101A4000ED91FC910190F081E02D6A2D0995809136
:101A50008D0390918E036091D303DC01ED91FC9195
:101A60000190F081E02D099580918D0390918E0376
:101A70004091D30350E0DC01ED91FC910280F381B1
:101A8000E02D63E973E009956091D3036A2590E046
:101A900080E02091D3032817190609F00CF4E8C15F
:101AA000FC01ED56FC4F208162270196F2CF62E0E7
:101AB000961214C02981422F50E090E080E08417F4
:101AC00095074CF4FC01E75BFC4F3081E65BFF4F70
:101AD00030830196F4CF2093D303ADCF73E09712F8
:101AE0001BC011278FE080939303FE01319690E095
:101AF00080E08017910751F0DC01A75BBC4F3C915F
:101B00002191321739F08AEA8093930381E0809320
:101B1000D30391CF0196EDCF84E0981221C01A81B2
:101B20000B81809190039981981303C01092D30385
:101B3000A7CE0E94800665E60E949B17091768F0F1
:101B40008091E9039091EA039A8B898B612FCE01F2
:101B500041960E94250910938F031092D3036BCFF7
:101B6000A6E09A1203C080919003CECFB5E09B12FD
:101B700038C01092DF038091E9039091EA03029646
:101B80009A8B898B60E0CE0141960E9425091092C4
:101B9000E003E091E703F091E803309709F009953D
:101BA00010E000E08091DB039091DC030817190737
:101BB000A8F4C801880F991FE091DD03F091DE03BE
:101BC000E80FF91F80819181DC01ED91FC91068481
:101BD000F785E02D09950F5F1F4FE4CF0E94D308D2
:101BE000BCCFBDE09B1214C0898190E0880F991F83
:101BF0002091DD033091DE03820F931FDC01ED9114
:101C0000FC9182818093930381E08093D30378C019
:101C1000B9E09B1217C0FE01319690E080E01127D9
:101C20008017910744F42191DC01A75BBC4F5096CB
:101C30002C930196F5CF075B1C4FF801108A109288
:101C4000D3035EC0FAE09F1216C0FE01319690E009
:101C500080E011278017910744F42191DC01A75BF4
:101C6000BC4F9A962C930196F5CF075B1C4FD80179
:101C70009A961C92E4CFBBE09B1271C0198110921E
:101C8000720310928C0369E573E0CE0147960E94BF
:101C9000530863E773E0CE0141960E945308812FF9
:101CA00090E02091DB033091DC038217930708F06A
:101CB00054C0880F991F2091DD033091DE03820FFD
:101CC000931FFC0180819181DC01ED91FC910190D9
:101CD000F081E02DAE014F5E5F4FBE01695E7F4F28
:101CE0000995809393030E94D30881E08093D303E6
:101CF000CE0141960E94C306CE0147960E94C306BC
:101D00008091DF0381110DC0E091E303F091E403C2
:101D1000309721F081E08093DF03099581E0809383
:101D2000DF038091E003811186CE8091E9039091D9
:101D3000EA0302969A8B898B67E3CE0141960E9453
:101D4000250981E08093E003E091E503F091E6034B
:101D5000309709F470CE09956ECE80E0C2CFBCE01A
:101D60009B1240C019811092720369E573E0CE01A5
:101D700047960E945308812F90E0880F991F209169
:101D8000DD033091DE03820F931FFC0160817181BE
:101D9000DB01ED91FC910280F381E02DAE01495E03
:101DA0005F4FCE01419609954D8969897A89242F23
:101DB0003E8990E080E08217930789F0FB01E80FED
:101DC000F91F6115710521F410929601E6E9F1E021
:101DD0005081FC01ED56FC4F50830196ECCF4093AF
:101DE000D30386CFB8E09B1222C0809191039091DB
:101DF000920301969093920380939103898190E0DE
:101E0000880F991F2091DD033091DE03820F931F0D
:101E1000FC01808191814A815B816C817D81DC0143
:101E2000ED91FC910488F589E02D099508CFB7E084
:101E30009B1201CE898190E0880F991F2091DD03CC
:101E40003091DE03820F931FFC0180819181DC01C0
:101E5000ED91FC91008CF18DE02D09956093930339
:101E600070939403809395039093960384E0CDCE72
:101E700080918D0390918E03DC01ED91FC91019096
:101E8000F081E02D0995FCCC80913D0390913E03BB
:101E90000E945A1982E391E09093240380932303D4
:101EA0008091260390912703892B21F083E293E010
:101EB0000E94CB068091D9039091DA031816190677
:101EC00044F48091DD039091DE03009711F00C94AF
:101ED0005A190895CF93DF93ECE6F2E01382128251
:101EE00048EE53E060E070E0448355836683778377
:101EF0008EE091E09183808385EC90E095878487E4
:101F000084EC90E09787868780EC90E0918B808BC3
:101F100081EC90E0938B828B82EC90E0958B848BAC
:101F200086EC90E0978B868B118E128E138E148E1A
:101F3000A9E0B3E013961C921E92129714964D934B
:101F40005D936D937C93179780E291E011969C933B
:101F50008E9310928F03109290031092920310921E
:101F600091031092D4031092D5031092D6031092CD
:101F7000D8031092DA031092D9031092DC03109266
:101F8000DB031092DE031092DD031092DF03109248
:101F9000E0031092E2031092E1031092E403109226
:101FA000E3031092E6031092E5031092E803109207
:101FB000E7031092EA031092E903E5E1F3E0B2834C
:101FC000A18389E28383158214821682C3E2D3E05F
:101FD0001E82188619861A861B861C861D861E86FA
:101FE0001F86188A198A1A8A1B8A81E08D8382E0EB
:101FF00090E00E94BE189C838B83FC0111821082AA
:102000001C8A1D8A1E8A1F8A86E791E0998388832D
:1020100088E38A83CBE3D3E01C821D821E821F8269
:10202000198618861B861A861D861C868FE090E00E
:10203000998388838CE390E00E94BE189B838A83F7
:10204000DF91CF910895CF93DF9300D000D000D0DF
:102050001F92CDB7DEB7789484B5826084BD84B515
:10206000816084BD85B5826085BD85B5816085BD93
:1020700080916E00816080936E001092810080914B
:1020800081008260809381008091810081608093D3
:102090008100809180008160809380008091B100F8
:1020A00084608093B1008091B00081608093B00023
:1020B00080917A00846080937A0080917A008260B7
:1020C00080937A0080917A00816080937A00809179
:1020D0007A00806880937A001092C100E0917C02BF
:1020E000F0917D0282E08083E0917802F0917902A4
:1020F0001082E0917A02F0917B0280E1808310925D
:102100008402E0918002F091810286E08083E09178
:102110007E02F0917F02808180618083E0917E0267
:10212000F0917F02808188608083E0917E02F0914F
:102130007F02808180688083E0917E02F0917F023F
:1021400080818F7D80830091DB031091DC03C09040
:10215000D903D090DA030C151D0591F5C801089636
:10216000811520E49207B8F4880F991F0E94BE18C9
:102170005C018091DD039091DE03DC01F50130E02C
:1021800020E02017310751F04D915D91419351931B
:102190002F5F3F4FF6CF8FEF9FEFE8CF1C141D044A
:1021A00014F40E945A19B092DE03A092DD038091CC
:1021B000D9039091DA0308969093DA038093D903B8
:1021C0008091DB039091DC032091DD033091DE03ED
:1021D0009C01220F331FE091DD03F091DE03E20F3B
:1021E000F31F23E233E03183208301969093DC03D5
:1021F0008093DB0388E190E09093EA038093E90306
:102200008CE692E090938E0380938D0310E000E0C3
:102210000E948006F801E75BFC4F80830F5F1F4F31
:1022200000311105A9F78091E9039091EA039C839D
:102230008B8380918F038F83809190038E83BE0167
:10224000695F7F4FCE0103960E94AD07BE016A5FB2
:102250007F4FCE0103960E94AD078E81809390033D
:102260008F8180938F0380918F038A3F18F08FEFC7
:1022700080938F031D82BE016B5F7F4FCE0103965B
:102280000E94AD078D81873319F481E08093E003CC
:1022900080918F03882321F080918F038F3FB1F4C9
:1022A0000E94800690E069EF70E00E94A71711E09D
:1022B000180F8091E9039091EA039A838983612F33
:1022C000CE0101960E94250910938F0380919003FF
:1022D000882321F0809190038F3FB9F40E948006FB
:1022E00090E069EF70E00E94A71711E0180F80914D
:1022F000E9039091EA0301969A838983612FCE01C5
:1023000001960E942509109390030091E903109112
:10231000EA03C80103969A8389830E94AB07F82ECB
:10232000C80104960E94AB07D82EC80105960E94EA
:10233000AB07882EC80106960E94AB07482FC8013C
:1023400007969A8389838D2D90E0B0E0A0E0BA2FA4
:10235000A92F982F8827912CB12CA12C54019924B6
:102360008824880D991DAA1DBB1D8F0D911DA11DCF
:10237000B11D50E070E060E0742F662755274427B8
:10238000840F951FA61FB71F803C9A43AF48B944DE
:1023900009F40FC20E5F1F4F1A83098360E0CE015C
:1023A00001960E9425091092E00382E08093B0001C
:1023B00086E08093B1008DE78093B3008091700038
:1023C00082608093700085E090E0A0E0B0E08093B0
:1023D0000D0390930E03A0930F03B093100390E0AE
:1023E00080E00E9434178093000181E090E00E9419
:1023F00034178093010182E090E00E9434178093AB
:10240000020183E090E00E943417809303018090E2
:10241000000190900101A0900201B090030184E0BE
:1024200090E00E9434178093DC0185E090E00E94E8
:1024300034178093DD0186E090E00E94341780938A
:10244000DE0187E090E00E9434178093DF012DEBDE
:1024500037E346E855E3C501B4010E940D1687FD38
:1024600028C020E030E048EC52E4C501B4010E94ED
:10247000B4181816F4F0A5019401C501B4010E9426
:10248000B918811116C0E894B7F82FEF3FEF4FE766
:102490005FE7C501B4010E94B91881111EC02FEF7A
:1024A0003FEF4FE75FE7C501B4010E940D16181614
:1024B000A4F480E090E0A0E8BFE380930001909353
:1024C0000101A0930201B09303011092DC0110926C
:1024D000DD011092DE011092DF018CE08093B800E4
:1024E00084E690E090931A038093190361E080E8FA
:1024F0000E946A0361E08FEF0E946A0360E080E05F
:102500000E946A0360911E0381E90E946A0361E0F0
:1025100080E00E946A0360E08FEF0E946A0360E03F
:1025200080E80E946A0362E080E00E946A032A9ABF
:10253000FF24F394812C912C66E9A62E64E4B62E38
:102540001A9B59C11092F2010E94180170931D0349
:1025500060931C0380911603909117032091180338
:10256000F092480220936A021092490210926B0284
:10257000DC01ED91FC910190F081E02D63E1099582
:1025800081E00E947A028093150361E08091180334
:102590000E9497031092E1018093E001809116035D
:1025A00090911703DC01ED91FC910284F385E02DFD
:1025B0000995877009F068C18091190390911A03F9
:1025C000892B41F20E94180120911C0330911D03B8
:1025D000621B730B8091190390911A03861797075A
:1025E00008F0B8CFF0921B030FEF1FEFB80190E097
:1025F00080E00E941216C0903D03D0903E030091EF
:10260000470310914803F801EE0FFF1FEE0FFF1F65
:10261000EC0DFD1D608371838283938320913F03C2
:102620003091400340914103509142030E94D617DC
:1026300060933F0370934003809341039093420360
:102640002091430330914403A9014F5F5F4F5093A2
:102650004403409343030F5F1F4F109348030093BD
:102660004703E0913B03F0913C030E171F0724F052
:102670001092480310924703E417F5074CF5309386
:10268000440320934303209147033091480337FFCD
:1026900006C02E0F3F1F309348032093470320911D
:1026A000470330914803220F331F220F331FC20EFE
:1026B000D31EF60120813181428153810E94D517BA
:1026C00060933F03709340038093410390934203D0
:1026D0006091430370914403072E000C880B990B03
:1026E0000E9414169B01AC0160913F03709140035E
:1026F00080914103909142030E9442186093E2014D
:102700007093E3018093E4019093E50120911B0312
:1027100010921B03211108C020E030E046E954E488
:102720000E94B418181644F48092E2019092E301DA
:10273000A092E401B092E5016091E2017091E301A1
:102740008091E4019091E5016093E6017093E701C7
:102750008093E8019093E9012091EA013091EB0127
:102760004091EC015091ED010E94D61720E030E03D
:102770004AE754E40E944218609337037093380389
:102780008093390390933A0360932B0370932C0347
:1027900080932D0390932E0380E090E0892B09F421
:1027A000CFCE0E949801882309F4CACE0E9400006F
:1027B000C7CE10E000E08091DB039091DC030817A6
:1027C000190708F0F2CDC801880F991FE091DD03C9
:1027D000F091DE03E80FF91F80819181DC01ED911A
:1027E000FC910484F585E02DBE016F5F7F4F099554
:1027F0000F5F1F4FE0CF8091F20181110AC00E944C
:1028000018016093EE017093EF018093F0019093B3
:10281000F1010E9418014090EE015090EF0160908C
:10282000F0017090F1016419750986099709693BF7
:102830007B408105910558F01092EA011092EB015E
:102840001092EC011092ED01F092F2017DCE0E9407
:1028500018016419750986099709633371058105A3
:10286000910590F38091E6019091E701A091E80134
:10287000B091E901B0588093EA019093EB01A093E5
:10288000EC01B093ED01E0CF809116039091170316
:1028900020911803F092480220936A021092490294
:1028A00010926B02DC01ED91FC910190F081E02D22
:1028B0006EE1099581E00E947A028093150362E03F
:1028C000809118030E9497031092E1018093E00128
:1028D0008091160390911703DC01ED91FC91028425
:1028E000F385E02D0995382E212C809116039091C7
:1028F0001703DC01ED91FC910284F385E02D09952D
:102900008C010229132961E08BE00E946A036ECEDC
:10291000662777270C949C14FB01DC0105900D922F
:102920000020E1F70895FC0105900020E9F780956B
:1029300090958E0F9F1F0895B0E0A0E0E2EAF4E1C9
:102940000C945B175C017B016115710519F0DB01CB
:102950008D939C9385010F5F1F4FF501D0818D2FC3
:1029600090E00E94EC156C01892BB9F5DD32B9F5C8
:102970000F5F1F4FD5011196DC91C1E05801F1E0C6
:10298000AF1AB10843E050E060E770E0C5010E9473
:10299000F515892B69F5680182E0C80ED11C45E068
:1029A00050E06BE670E0C6010E94F515892B21F41A
:1029B000680197E0C90ED11CE114F10419F0D701A8
:1029C000CD92DC9260E070E080E89FEFC111FFC023
:1029D00060E070E080E89FE7FAC05801BBCFDB32CF
:1029E00029F485010E5F1F4FF501D181C0E0C6CFEC
:1029F00043E050E068E670E0C5010E94F515892BC0
:102A0000E9F0F80110E000E020E030E0A9015F010A
:102A1000B0ED8B2E8D0E89E08815C8F19C2E689440
:102A200091F88C2F8870C2FF16C0811102C00F5F11
:102A30001F4F3196D501DC91C92DE9CFE114F10486
:102A400029F00E5F1F4FF7011183008360E070E0F3
:102A500080EC9FE7BCC0882311F001501109A5E06C
:102A6000B0E00E944A179B01AC01220F331F441FA4
:102A7000551F280D311D411D511D283999E9390770
:102A8000490799E15907A8F2C6609C2ED2CFAEEF54
:102A90008A1206C0C3FD3CC09C2E689493F8C9CF2F
:102AA000DF7DD534A9F580818D3239F4C061DF0135
:102AB0001296818162E070E006C0DF018B32C1F3C3
:102AC000119661E070E080535D01A61AB70A8A3062
:102AD000F8F4E0E8CE16ECE0DE065CF4B601660F32
:102AE000771F660F771FC60ED71ECC0CDD1CC80ED5
:102AF000D11C5D01FFEFAF1ABF0A8C9180538A3061
:102B0000A8F1C4FF03C0D194C194D1080C0D1D1DC0
:102B1000C1FF09C0E114F10431F081E0A81AB10845
:102B2000D701AD92BC92CA01B9010E941216C370BE
:102B3000C33009F490584B015C0120E030E0A9015A
:102B40000E940D16882309F440C0CFE9D0E017FF9A
:102B500005C0119501951109C7E8D0E06E01B8E1F3
:102B6000CB1AD10880E2E82EF12C0FC0D501B1CFED
:102B7000FE0125913591459154910E191F09C5010A
:102B8000B4010E9473164B015C01D501C4010E15FE
:102B90001F0574F72497F594E794CC16DD06A9F782
:102BA0008A2F880F8B2F881F8F3F49F020E030E05D
:102BB000A901C501B4010E940D16811106C082E26F
:102BC00090E09093EC038093EB03C501B401CDB783
:102BD000DEB7ECE00C94771791110C94E01680327C
:102BE00019F089508550C8F70895FB01DC01415068
:102BF000504088F08D9181341CF08B350CF4805E50
:102C0000659161341CF06B350CF4605E861B6111BC
:102C100071F3990B0895881BFCCF0E944F1608F49E
:102C200081E00895E89409C097FB3EF49095809563
:102C3000709561957F4F8F4F9F4F9923A9F0F92F82
:102C400096E9BB279395F695879577956795B79500
:102C5000F111F8CFFAF4BB0F11F460FF1BC06F5FE6
:102C60007F4F8F4F9F4F16C0882311F096E911C0F8
:102C7000772321F09EE8872F762F05C0662371F019
:102C800096E8862F70E060E02AF09A95660F771F2D
:102C9000881FDAF7880F9695879597F90895990F09
:102CA0000008550FAA0BE0E8FEEF16161706E80716
:102CB000F907C0F012161306E407F50798F0621B37
:102CC000730B840B950B39F40A2661F0232B242B0C
:102CD000252B21F408950A2609F4A140A6958FEF2B
:102CE000811D811D08950E9486160C94FA160E947B
:102CF000EC1638F00E94F31620F0952311F00C9496
:102D0000E3160C94E91611240C942E170E940B174D
:102D100070F3959FC1F3950F50E0551F629FF0012E
:102D2000729FBB27F00DB11D639FAA27F00DB11D47
:102D3000AA1F649F6627B00DA11D661F829F2227D0
:102D4000B00DA11D621F739FB00DA11D621F839F57
:102D5000A00D611D221F749F3327A00D611D231F2D
:102D6000849F600D211D822F762F6A2F11249F577B
:102D700050409AF0F1F088234AF0EE0FFF1FBB1F7E
:102D8000661F771F881F91505040A9F79E3F51053D
:102D900080F00C94E3160C942E175F3FE4F3983EFA
:102DA000D4F3869577956795B795F795E7959F5FE7
:102DB000C1F7FE2B880F911D9695879597F9089579
:102DC00099278827089597F99F6780E870E060E069
:102DD00008959FEF80EC089500240A9416161706B4
:102DE00018060906089500240A94121613061406FC
:102DF00005060895092E0394000C11F4882352F05F
:102E0000BB0F40F4BF2B11F460FF04C06F5F7F4F16
:102E10008F4F9F4F089557FD9058440F551F59F0FD
:102E20005F3F71F04795880F97FB991F61F09F3FB7
:102E300079F087950895121613061406551FF2CFE0
:102E40004695F1DF08C0161617061806991FF1CF30
:102E500086957105610508940895E894BB27662757
:102E60007727CB0197F90895F999FECF92BD81BDDF
:102E7000F89A992780B50895262FF999FECF1FBAA1
:102E800092BD81BD20BD0FB6F894FA9AF99A0FBE93
:102E9000019608950E948C17A59F900DB49F900DE8
:102EA000A49F800D911D112408952F923F924F925F
:102EB0005F926F927F928F929F92AF92BF92CF92CA
:102EC000DF92EF92FF920F931F93CF93DF93CDB7D3
:102ED000DEB7CA1BDB0B0FB6F894DEBF0FBECDBF4B
:102EE00009942A88398848885F846E847D848C841C
:102EF0009B84AA84B984C884DF80EE80FD800C8125
:102F00001B81AA81B981CE0FD11D0FB6F894DEBF07
:102F10000FBECDBFED010895A29FB001B39FC001C8
:102F2000A39F700D811D1124911DB29F700D811DF5
:102F30001124911D0895991B79E004C0991F9617DB
:102F400008F0961B881F7A95C9F78095089597FB1E
:102F5000072E16F4009407D077FD09D00E94BB1706
:102F600007FC05D03EF4909581959F4F089570958C
:102F700061957F4F0895AA1BBB1B51E107C0AA1F93
:102F8000BB1FA617B70710F0A61BB70B881F991F0A
:102F90005A95A9F780959095BC01CD010895EE0F43
:102FA000FF1F0590F491E02D09945058BB27AA27E4
:102FB0000E94ED170C94FA160E94EC1638F00E944D
:102FC000F31620F039F49F3F19F426F40C94E91617
:102FD0000EF4E095E7FB0C94E316E92F0E940B1723
:102FE00058F3BA17620773078407950720F079F43E
:102FF000A6F50C942D170EF4E0950B2EBA2FA02DEC
:103000000B01B90190010C01CA01A0011124FF2795
:10301000591B99F0593F50F4503E68F11A16F04090
:10302000A22F232F342F4427585FF3CF469537958F
:103030002795A795F0405395C9F77EF41F16BA0B54
:10304000620B730B840BBAF09150A1F0FF0FBB1F02
:10305000661F771F881FC2F70EC0BA0F621F731F4B
:10306000841F48F4879577956795B795F7959E3FA8
:1030700008F0B0CF9395880F08F09927EE0F979539
:10308000879508950E9456180C94FA160E94F3161C
:1030900058F00E94EC1640F029F45F3F29F00C94A0
:1030A000E31651110C942E170C94E9160E940B177D
:1030B00068F39923B1F3552391F3951B550BBB2767
:1030C000AA2762177307840738F09F5F5F4F220FAC
:1030D000331F441FAA1FA9F335D00E2E3AF0E0E8A3
:1030E00032D091505040E695001CCAF72BD0FE2FED
:1030F00029D0660F771F881FBB1F26173707480781
:10310000AB07B0E809F0BB0B802DBF01FF27935838
:103110005F4F3AF09E3F510578F00C94E3160C9403
:103120002E175F3FE4F3983ED4F386957795679525
:10313000B795F7959F5FC9F7880F911D969587956D
:1031400097F90895E1E0660F771F881FBB1F62178C
:1031500073078407BA0720F0621B730B840BBA0B4A
:10316000EE1F88F7E09508950E944F1608F48FEF40
:1031700008950E944F16880B990B08950F931F9383
:10318000CF93DF938230910510F482E090E0E091DC
:10319000EF03F091F00330E020E0B0E0A0E03097E2
:1031A00099F42115310509F44AC0281B390B243044
:1031B0003105D8F58A819B816115710589F1FB0183
:1031C00093838283FE0111C040815181028113816A
:1031D00048175907E0F04817590799F4109761F01C
:1031E00012960C93129713961C933296CF01DF918F
:1031F000CF911F910F9108950093EF031093F00367
:10320000F4CF2115310551F04217530738F0A901C9
:10321000DB019A01BD01DF01F801C1CFEF01F9CF58
:103220009093F0038093EF03CDCFFE01E20FF31FE5
:10323000819391932250310939832883D7CF2091EC
:10324000ED033091EE03232B41F4209106013091E0
:1032500007013093EE032093ED0320910401309198
:1032600005012115310541F42DB73EB74091080104
:1032700050910901241B350BE091ED03F091EE0311
:10328000E217F307A0F42E1B3F0B2817390778F03D
:10329000AC014E5F5F4F2417350748F04E0F5F1F9C
:1032A0005093EE034093ED03819391939FCFF0E011
:1032B000E0E09CCFCF93DF930097E9F0FC013297D9
:1032C00013821282A091EF03B091F003ED0130E080
:1032D00020E01097A1F420813181820F931F20916B
:1032E000ED033091EE032817390709F061C0F09320
:1032F000EE03E093ED03DF91CF910895EA01CE173D
:10330000DF07E8F54A815B819E0141155105B1F760
:10331000E901FB83EA8349915991C40FD51FEC174A
:10332000FD0761F4808191810296840F951FE90168
:1033300099838883828193819B838A83F0E0E0E094
:1033400012968D919C9113970097B9F52D913C9110
:103350001197CD010296820F931F2091ED033091BA
:10336000EE032817390739F6309751F51092F0031C
:103370001092EF03B093EE03A093ED03BCCFD38381
:10338000C28340815181840F951FC817D90761F40A
:103390004E5F5F4F88819981480F591F5183408349
:1033A0008A819B81938382832115310509F0B0CFF7
:1033B000F093F003E093EF039ECFFD01DC01C0CF5B
:1033C00013821282D7CFB0E0A0E0E9EEF9E10C94CD
:1033D00057178C01009751F4CB010E94BE188C0145
:1033E000C801CDB7DEB7E0E10C947317FC01E60F1E
:1033F000F71F9C0122503109E217F30708F49DC022
:10340000D901CD91DC911197C617D70798F0C53037
:10341000D10530F3CE0104978617970708F3C61B32
:10342000D70B2297C193D1936D937C93CF010E94C8
:103430005A19D6CF5B01AC1ABD0A4C018C0E9D1EE9
:10344000A091EF03B091F003512C412CF12CE12C11
:10345000109731F58091ED039091EE038815990551
:1034600009F05CC04616570608F058C08091040168
:1034700090910501009741F48DB79EB740910801E6
:1034800050910901841B950BE817F90708F055C006
:10349000F093EE03E093ED03F90171836083A0CF15
:1034A0008D919C91119712966C90129713967C9027
:1034B0001397A815B90559F56C0142E0C40ED11C4B
:1034C000CA14DB0420F1AC014A195B09DA01129637
:1034D000159780F06282738251834083D9016D9386
:1034E0007C93E114F10471F0D7011396FC93EE93F1
:1034F000129776CF22968C0F9D1FF90191838083BE
:10350000F301EFCFF093F003E093EF0369CF481698
:10351000590608F42C017D01D3019ACFCB010E94FA
:10352000BE187C01009749F0AE01B8010E94A01AB4
:10353000C8010E945A19870153CF10E000E050CF14
:10354000FB01DC0102C001900D9241505040D8F7C0
:103550000895FB01DC018D91019080190110D9F3D0
:10356000990B0895FB01DC0101900D920020E1F719
:10357000089510E0CCE7D0E004C0FE010E94CF1710
:0C3580002196CD37D107C9F7F894FFCF92
:10358C000000803F0000F103800000000000CE012D
:10359C002E015B011B028C016A017E010000000000
:1035AC00E404B70413058D04B0049D048E040000DC
:1035BC0000007E068E080A073D075D06A405A405DB
:1035CC008D044306A50542063F0629061F06E205A3
:1035DC00000000007E068E080A073D075D06A40564
:1035EC00A4058D049E05A50524018D049E051F06CA
:1035FC00E2050000000068098E080A073D075D0619
:10360C00A405A4058D049E05A50524018D049E0525
:06361C001F06E20500009C
:00000001FF
