:100000000C941C010C9444010C9444010C94440184
:100010000C9444010C9444010C9444010C94450745
:100020000C9444010C9444010C9444010C9444013C
:100030000C9444010C9444010C9444010C9444012C
:100040000C948C050C9444010C940F040C94E9035B
:100050000C9444010C9444010C9444010C9444010C
:100060000C9444010C9444014E414E494E4954595C
:10007000494E46CDCCCC3D0AD7233C17B7D1387773
:10008000CC2B329595E6241FB14F0A000020410089
:1000900000C84200401C4620BCBE4CCA1B0E5AAED3
:1000A000C59D7400407A10F35A00A0724E180900E2
:1000B00010A5D4E80000E87648170000E40B5402CD
:1000C0000000CA9A3B000000E1F505000080969808
:1000D00000000040420F000000A086010000001058
:1000E0002700000000E8030000000064000000009A
:1000F000000A00000000000100000000002C76D87B
:1001000088DC674F0823DFC1DFAE59E1B1B796E560
:10011000E3E453C63AE651997696E8E6C28426EBC4
:10012000898C9B62ED407C6FFCEFBC9C9F40F2BAD7
:10013000A56FA5F490055A2AF75C936B6CF9676D6F
:10014000C11BFCE0E40D47FEF520E6B500D0ED90C4
:100150002E0300943577050080841E080000204E91
:100160000A000000C80C333333330F986E1283112A
:1001700041EF8D2114893BE65516CFFEE6DB18D101
:10018000844B381BF77C1D901DA4BBE424203284D3
:10019000725E228100C9F124ECA1E53D2772656100
:1001A000647900627573790074696D656F757400A8
:1001B00063616C696220666163746F720073657459
:1001C000206772616D730063616C696220666163B0
:1001D000746F7200746172650000000000240027D3
:1001E000002A0000000000250028002B000000006D
:1001F000002300260029000404040404040404026B
:1002000002020202020303030303030102040810B3
:100210002040800102040810200102040810200080
:1002200000000800020100000304070000000000B5
:1002300000000000DD11C31111241FBECFEFD8E074
:10024000DEBFCDBF11E0A0E0B1E0E4E5F7E302C01E
:1002500005900D92A838B107D9F723E0A8E8B1E0DE
:1002600001C01D92A434B207E1F711E0CBE1D1E067
:1002700004C02197FE010E949219CA31D107C9F723
:100280000E945D0E0C949D1B0C94000081E090E098
:10029000909392018093910108951092920110928F
:1002A00091010895089580E090E00895FC01538D38
:1002B000448D252F30E0842F90E0821B930B541740
:1002C00010F0CF96089501970895FC01918D828DCD
:1002D000981761F0828DDF01A80FB11D5D968C919A
:1002E000928D9F5F9F73928F90E008958FEF9FEFA5
:1002F0000895FC01918D828D981731F0828DE80F61
:10030000F11D858D90E008958FEF9FEF0895FC011A
:10031000918D228D892F90E0805C9F4F821B9109E7
:100320008F739927089584E991E00E94870121E065
:10033000892B09F420E0822F0895FC01848DDF01D0
:10034000A80FB11DA35ABF4F2C91848D90E0019648
:100350008F739927848FA689B7892C93A089B18937
:100360008C91837080648C93938D848D981306C0D8
:100370000288F389E02D80818F7D80830895EF923C
:10038000FF920F931F93CF93DF93EC0181E0888F4F
:100390009B8D8C8D981305C0E889F989808185FD36
:1003A00026C0F62E0B8D10E00F5F1F4F0F73112725
:1003B000E02E8C8DE8120CC00FB607FCFACFE8894E
:1003C000F989808185FFF5CFCE010E949D01F1CF93
:1003D0008B8DFE01E80FF11DE35AFF4FF0829FB7AE
:1003E000F8940B8FEA89FB89808180620AC09FB7ED
:1003F000F894EE89FF896083E889F98980818370A8
:10040000806480839FBF81E090E0DF91CF911F9156
:100410000F91FF90EF900895CF93DF93EC01888DBB
:100420008823C9F0EA89FB89808185FD05C0A889F8
:10043000B9898C9186FD0FC00FB607FCF5CF80817E
:1004400085FFF2CFA889B9898C9185FFEDCFCE01C8
:100450000E949D01E7CFDF91CF91089580E090E069
:10046000892B29F00E94930181110C9400000895BA
:10047000833081F028F4813099F08230A1F0089522
:100480008730A9F08830B9F08430D1F480918000B1
:100490008F7D03C0809180008F77809380000895C6
:1004A00084B58F7702C084B58F7D84BD0895809117
:1004B000B0008F7703C08091B0008F7D8093B00033
:1004C0000895CF93DF9390E0FC01E55FFD4F249109
:1004D000FC01E950FE4F8491882361F190E0880F80
:1004E000991FFC01E752FE4FC591D491FC01ED51DB
:1004F000FE4FA591B491611109C09FB7F89488810E
:10050000209582238883EC912E230BC0623061F406
:100510009FB7F8948881322F309583238883EC919C
:100520002E2B2C939FBF06C08FB7F894E8812E2BFB
:1005300028838FBFDF91CF910895FC01648975896D
:10054000868997890895FC01448B558B668B778B40
:100550004087518762877387089508950895CF92E1
:10056000DF92EF92FF92CF93DF93EC01E881F98164
:10057000008CF18DE02D0995288939894A895B899C
:100580000E9482186B017C01688B798B8A8B9B8B14
:100590008C859D85AE85BF85BC01CD016F5F7F4F8A
:1005A0008F4F9F4F6C877D878E879F876130710546
:1005B0008105910551F00E94B1169B01AC01C70164
:1005C000B6010E94EE186B017C01C701B601DF91F4
:1005D000CF91FF90EF90DF90CF900895FC01108AAB
:1005E000118A128A138A148615861686178608952C
:1005F000FC0195819F7071F00380F481E02D808172
:100600009181009739F0DC01ED91FC910088F1892E
:10061000E02D099460E070E0CB010895FC011782A1
:1006200008950895CF93DF93EC018F8181110DC060
:10063000E881F981048CF58DE02DCE01099568875C
:1006400079878A879B8781E08F83688579858A850A
:100650009B85DF91CF910895CF93DF93EC018F813C
:1006600081110DC0E881F981008CF18DE02DCE0162
:100670000995688779878A879B8781E08F8368855A
:1006800079858A859B85DF91CF910895DC01159648
:100690002C9115972F7030E062177307BCF4660F2A
:1006A000771F1396ED91FC911497E60FF71F808149
:1006B0009181009759F0FC0122812F3039F401908B
:1006C000F081E02D0088F189E02D099460E070E070
:1006D000CB01089580E00895FC01608D718D828DBD
:1006E000938D0895AF92BF92CF92DF92EF92FF92D7
:1006F0000F931F93CF93DF93FB01EE0FFF1FEC01CE
:10070000AB81BC81EA0FFB1FA081B1811097C9F0BA
:100710001296EC911297EF30A1F4ED91FC911197A4
:100720000488F589E02DBA01A901CD01DF91CF91AF
:100730001F910F91FF90EF90DF90CF90BF90AF90FF
:10074000099469017A015B018C0188E190E00E94C3
:100750009819EC010E94B20D8FE08A8382E491E047
:1007600099838883CC8ADD8AEE8AFF8AD801ED914D
:10077000FC910480F581E02DAE01B501C801DF9147
:10078000CF911F910F91FF90EF90DF90CF90BF908E
:10079000AF9009940C94D9170C94D1170F931F9311
:1007A000CF93DF93EC018B0188819981803A2FE010
:1007B000920748F40E94CC03F801808388819981D4
:1007C000019699838883C801DF91CF911F910F9182
:1007D00008951F920F920FB60F9211242F933F93FB
:1007E0004F935F936F937F938F939F93AF93BF9339
:1007F000EF93FF9384E991E00E949D01FF91EF91B7
:10080000BF91AF919F918F917F916F915F914F9128
:100810003F912F910F900FBE0F901F9018951F9230
:100820000F920FB60F9211242F938F939F93EF93F4
:10083000FF93E091A401F091A5018081E091AA01CC
:10084000F091AB0182FD12C090818091AD018F5F6C
:100850008F732091AE01821751F0E091AD01F0E06D
:10086000EC56FE4F958F8093AD0101C08081FF91C2
:10087000EF919F918F912F910F900FBE0F901F902E
:100880001895CF93DF93282F30E0F901E15EFD4FFB
:100890008491F901E55FFD4FD491F901E950FE4FD4
:1008A000C491CC2391F081110E943802EC2FF0E02A
:1008B000EE0FFF1FE351FE4FA591B491EC91ED2394
:1008C00081E090E021F480E002C080E090E0DF91E0
:1008D000CF9108951F93CF93DF93282F30E0F90134
:1008E000E15EFD4F8491F901E55FFD4FD491F9017F
:1008F000E950FE4FC491CC23C1F0162F81110E9404
:100900003802EC2FF0E0EE0FFF1FED51FE4FA591E6
:10091000B4919FB7F894111104C08C91D095D8234D
:1009200002C0EC91DE2BDC939FBFDF91CF911F9132
:1009300008953FB7F89480918D0190918E01A09118
:100940008F01B091900126B5A89B05C02F3F19F0EB
:100950000196A11DB11D3FBFBA2FA92F982F88273F
:10096000820F911DA11DB11DBC01CD0142E0660F9A
:10097000771F881F991F4A95D1F708952FB7F894CC
:100980006091890170918A0180918B0190918C0115
:100990002FBF0895CF93DF93EC0181E08D83188200
:1009A0008BAB18AAFE01EF5BFF4F10820E94BE04C2
:1009B000FE01FF9620813181DC01CB01820F931F64
:1009C000A11DB11D89839A83AB83BC83DF91CF9135
:1009D0000895CF92DF92EF92FF92CF93DF936B0156
:1009E0007C010E94BE04A70196010E94E7179B01AB
:1009F000AC01AEEFB1E00E940618A70196010E947B
:100A0000E7172F3F310541055105B1F0ACF00E94C9
:100A1000BE04A70196010E94E7179B01AC01AEEF4F
:100A2000B1E00E940618A70196010E94E717CEEFD9
:100A3000D1E0C21BD30B11C00E94BE04A7019601D6
:100A40000E94E7179B01AC01AEEFB1E00E940618CF
:100A5000A70196010E94E717E90161E089E00E9481
:100A60006102209711F460E004C0CF3FD10551F43A
:100A700061E089E0DF91CF91FF90EF90DF90CF9020
:100A80000C946A04E8E2F2E0E491E330F9F048F40F
:100A9000E130B9F0E230A1F584B5806284BDC8BD13
:100AA00034C0E730E9F0E83019F1E43049F58091DD
:100AB0008000806280938000D0938B00C0938A0076
:100AC00024C084B5806884BDC7BD1FC080918000EC
:100AD000806880938000D0938900C093880015C0FF
:100AE0008091B00080688093B000C093B3000DC0C7
:100AF0008091B00080628093B000C093B40005C0C4
:100B0000C038D1050CF0B4CFAECFDF91CF91FF90BC
:100B1000EF90DF90CF9008951F920F920FB60F9233
:100B200011242F933F938F939F93AF93BF93809103
:100B3000890190918A01A0918B01B0918C01309133
:100B4000880123E0230F2D3720F40196A11DB11D4C
:100B500005C026E8230F0296A11DB11D2093880130
:100B60008093890190938A01A0938B01B0938C01AB
:100B700080918D0190918E01A0918F01B091900193
:100B80000196A11DB11D80938D0190938E01A093BC
:100B90008F01B0939001BF91AF919F918F913F9141
:100BA0002F910F900FBE0F901F901895EF92FF920C
:100BB0000F931F93CF93DF93EC018EE091E0998325
:100BC00088838B819C81892B09F100E010E08D8165
:100BD0008F7090E008171907CCF4EB81FC81C801F5
:100BE000880F991FE80FF91FE080F180E114F104EC
:100BF00051F0F70182818F3031F4C7010E94D60590
:100C0000C7010E94301A0F5F1F4FE1CFDF91CF91D4
:100C10001F910F91FF90EF900895EF92FF920F9325
:100C20001F93CF93DF93FC01258130E06217730798
:100C3000C4F48A01660F771FC381D481C60FD71F02
:100C4000E880F980E114F10451F0F70182818F30DE
:100C500031F4C7010E94D605C7010E94301A1983DA
:100C60000883DF91CF911F910F91FF90EF9008952E
:100C7000CF93DF93EC0188819981803A2FE092072E
:100C800038F40E94CA0388819981019699838883E8
:100C9000DF91CF9108954F925F926F927F928F92E2
:100CA0009F92AF92BF92CF92DF92EF92FF920F93FB
:100CB0001F93CF93AC01FC01ED5BFF4F0190F081DE
:100CC000E02D3196C0E0C12CD12C760188248A9485
:100CD000982CA82CB12C60E070E0CB012C2F30E0D8
:100CE000E217F307DCF1220F331F220F331FDA0163
:100CF000A20FB31F1D964D905D906D907C90509704
:100D0000481459046A047B0434F41D968D909D9018
:100D1000AD90BC905097DA01A20FB31F1D964D9075
:100D20005D906D907C905097C414D504E604F70450
:100D300034F41D96CD90DD90ED90FC905097DA0143
:100D4000A20FB31F1D960D911D912D913C915097AF
:100D5000600F711F821F931FCF5FC0CFDC01CB01DB
:100D600088199909AA09BB09BC01CD016C197D0933
:100D70008E099F09CF911F910F91FF90EF90DF9007
:100D8000CF90BF90AF909F908F907F906F905F902B
:100D90004F9008954F925F926F927F928F929F92A1
:100DA000AF92BF92CF92DF92EF92FF92CF93DF93F9
:100DB000EC010E944B06FE01EB5BFF4F60837183E9
:100DC00082839383DC01CB0109A804C0B595A79564
:100DD000979587950A94D2F7C9A0DAA0EBA0FCA05A
:100DE0004C015D018C189D08AE08BF08C984DA84E7
:100DF000EB84FC84A7019601C701B6010E94651926
:100E000081113AC026013701E89477F82FEF3FEFC0
:100E10004FE75FE7C301B2010E94651981110AC063
:100E20002FEF3FEF4FE75FE7C301B2010E94AA1621
:100E3000181614F120E030E0A901C701B6010E94A4
:100E4000AA168823C9F0C501B4010E94B1162985EC
:100E50003A854B855C850E94EE18DF91CF91FF901B
:100E6000EF90DF90CF90BF90AF909F908F907F904A
:100E70006F905F904F90089580E090E0A0E8BFE30E
:100E800089879A87AB87BC87DECF1F920F920FB6F8
:100E90000F9211242F933F934F935F936F937F9300
:100EA0008F939F93AF93BF93CF93DF93EF93FF9372
:100EB000C0E7D0E088818D7F888378940E94850A7E
:100EC000888182608883FF91EF91DF91CF91BF91FC
:100ED000AF919F918F917F916F915F914F913F91D2
:100EE0002F910F900FBE0F901F901895CF93DF9307
:100EF000EC0166E871E00E944A0ACE01DF91CF91D1
:100F00000895BF92CF92DF92EF92FF920F931F93BB
:100F1000CF93DF9300D000D000D0CDB7DEB78C01E7
:100F20007B016A0164ED71E0CE0101960E94120A14
:100F3000BE016F5F7F4FC7010E94800DB82ECE01AA
:100F400001960E940D0ABB2041F0D8015C968D915C
:100F50009C915D970E94CA048EC067EC71E0CE013F
:100F600001960E94120ABE016F5F7F4FC7010E9467
:100F7000800DB82ECE0101960E940D0ABB20A9F06B
:100F8000F60180819181009719F00E94F51203C04B
:100F900060E070E0CB01D8015C96ED91FC915D972B
:100FA000618772878387948766C06DEB71E0CE019D
:100FB00001960E94120ABE016F5F7F4FC7010E9417
:100FC000800DF82ECE0101960E940D0AFF2009F433
:100FD00054C0F60180819181009729F00E94F5129A
:100FE0006B017C0103C0C12CD12C7601D8015C9629
:100FF0008D919C915D9740E050E060E87FE3FC01BB
:1010000041875287638774870E94CA069058A70158
:1010100096010E94EE186B017C01D8015E966D93DB
:101020007D938D939C93919781E090E00E94CA03F9
:1010300099278F2D7E2D6D2D82E090E00E94CA03AE
:10104000B7018827992783E090E00E94CA036F2D9B
:1010500077278827992784E090E00E94CA03F80147
:10106000248D358D868D978DA0A1B1A1F901818741
:101070009287A387B48781E001C080E026960FB6EF
:10108000F894DEBF0FBECDBFDF91CF911F910F91BE
:10109000FF90EF90DF90CF90BF900895BF92CF92D6
:1010A000DF92EF92FF920F931F93CF93DF93CDB711
:1010B000DEB7A1970FB6F894DEBF0FBECDBF7C019F
:1010C0006B018A0160EB71E0CE0101960E94120A69
:1010D000BE016F5F7F4FC8010E94800DB82ECE0108
:1010E00001960E940D0ABB20B9F1D6015C96ED91E4
:1010F000FC915D976185728583859485F7011182E6
:10110000108213821282158214828E010F5F1F4F8C
:1011100025E047E00E9479126C01009771F0FC0114
:1011200001900020E9F731978F01081B190BB801D6
:10113000C7010E94D409811104C0C7010E94FB09A4
:101140003CC0D70115961C930E931497B6018D9150
:101150009C910E94961B31C0F80184819581892B56
:1011600011F162E871E0808191810E948D1B892BD1
:10117000D1F4D6015C96ED91FC915D97DF01AF5BF8
:10118000BF4F8C91882319F068EA71E008C085810F
:10119000882319F063EA71E002C06DE971E0C701CC
:1011A0000E94120A0AC066E871E0CE0101960E9410
:1011B0004A0ACE0101960E940D0AC701A1960FB6F8
:1011C000F894DEBF0FBECDBFDF91CF911F910F917D
:1011D000FF90EF90DF90CF90BF900895CF92DF9275
:1011E000EF92FF920F931F93CF93DF936C017A01DD
:1011F0008B01C0E0D0E0CE15DF0581F0D8016D9104
:101200008D01D601ED91FC910190F081E02DC60198
:101210000995892B11F02196EECF7E01C701DF9150
:10122000CF911F910F91FF90EF90DF90CF90089595
:101230000E947F1BCF92DF92EF92FF92CF930E948A
:101240009904C0905802D0905902E0905A02F09050
:101250005B02DC01CB018C199D09AE09BF098093AB
:101260005C0290935D02A0935E02B0935F020E94C5
:101270009904609358027093590280935A02909394
:101280005B0210926E02C0E0C12CD12C76018091DD
:10129000390290E047962C2F30E082179307ECF04C
:1012A00061E0809137020E946A04C83178F480912D
:1012B00038020E944104CC0CDD1CEE1CFF1C88236C
:1012C00029F08FEFC81AD80AE80AF80A60E080917E
:1012D00037020E946A04CF5FDACF80E8E826809167
:1012E00056029091570220917402309175022F5F3F
:1012F0003F4F8217930729F410925702109256021B
:1013000005C001969093570280935602C114D104F0
:10131000E104F10409F442C080916E028F5F809372
:101320006E02E0915602F0915702EE0FFF1FEE0F92
:10133000FF1FEF5CFD4FC586D686E786F08A809159
:101340006402882359F180916102843020F48F5F18
:101350008093610223C081E392E00E944B06DC018E
:10136000CB010090620204C0B595A795979587952B
:101370000A94D2F78093520290935302A09354029E
:10138000B0935502109261021092640281E0809342
:101390006F0280916E028F5F80936E02CF91FF90FB
:1013A000EF90DF90CF9008950F931F93CF93DF932B
:1013B000EC0188819981009729F02A813B812617C9
:1013C000370788F48B016F5F7F4F0E94B91A00972F
:1013D00061F0998388831B830A832C813D81232BB1
:1013E00011F4FC01108281E001C080E0DF91CF9117
:1013F0001F910F910895CF93DF93EC01888199811C
:10140000009711F00E94301A198218821D821C82E6
:101410001B821A82DF91CF910895FC018081918116
:101420000C94301AEF92FF920F931F93CF93DF9398
:10143000EC01198218821B821A821D821C8261159E
:10144000710509F18B01CB010E9400137C01BC01E5
:10145000CE010E94D409811109C0CE01DF91CF9144
:101460001F910F91FF90EF900C94FB09FD82EC828D
:10147000B80188819981DF91CF911F910F91FF90E1
:10148000EF900C94F912DF91CF911F910F91FF9083
:10149000EF900895EF92FF920F931F93CF93DF93F6
:1014A000EC01198218821B821A821D821C8261152E
:1014B000710521F18B01FB0101900020E9F73197C3
:1014C0007F01E61AF70AB7010E94D409811109C009
:1014D000CE01DF91CF911F910F91FF90EF900C946F
:1014E000FB09FD82EC82B80188819981DF91CF915F
:1014F0001F910F91FF90EF900C94961BDF91CF916D
:101500001F910F91FF90EF9008955F926F927F92DD
:101510008F929F92AF92BF92CF92DF92EF92FF9203
:101520000F931F93CF93DF93CDB7DEB76E970FB6B0
:10153000F894DEBF0FBECDBF34E0832E912C809196
:10154000E0029091E102DC01ED91FC910084F185D3
:10155000E02D099505970CF4BDC29E8E8D8E80916D
:10156000E0029091E102BE01635E7F4F0E94440E53
:101570008A3A910519F097FDADC2F1CF8091E00252
:101580009091E102BE01635E7F4F0E94440E7C0198
:1015900097FDD5CF8091E0029091E102BE01635E9C
:1015A0007F4F0E94440E6C0197FF03C0E114F104C9
:1015B00031F68091E0029091E102BE01635E7F4FBF
:1015C0000E94440E3C0197FDBACF8091E0029091B9
:1015D000E102BE01635E7F4F0E94440E5C0197FDF5
:1015E000AECF8091E0029091E102BE01635E7F4F39
:1015F0000E94440E8C0197FDA2CFE114F10439F052
:101600008091E20290E0E816F90609F098CFC11443
:10161000D10439F08091E30290E0C816D90609F0B0
:101620008ECF9E2D9C258AEA892786258A25582ECD
:10163000502601151105D9F08091E0029091E10248
:101640009E01235E3F4FA801BE016F5F7F4F4B019C
:101650000E94D50D0817190709F03CC2F401219129
:1016600052269F012819390928173907C4F3809198
:10167000E0029091E102BE01635E7F4F0E94440E42
:1016800097FD28C2252D30E08217930709F022C26A
:10169000E114F10439F08091E20290E0E816F906D5
:1016A00009F018C2C114D10439F08091E30290E02E
:1016B0008C159D0509F00EC2862D813091F4809124
:1016C000E202E81203C081E0C11001C080E0909105
:1016D0002E039093E60291E090932603811184C13A
:1016E000AEC18230A1F42981422F50E080E090E029
:1016F000841795074CF4FC01E456FD4F3081E65BFE
:10170000FF4F30830196F4CF2093260398C1833096
:10171000B1F411278FE08093E602FE01319680E05C
:1017200090E080179107B1F1DC01A456BD4F3C91C8
:101730002191321711F08AEA2BC00196F2CF843042
:1017400019F5FA800B8110E08091E30299819813DA
:1017500003C010922603BEC10E94E51265E670E048
:101760000E946A19992708171907E4F080913C0331
:1017700090913D039A8B898B6F2DCE0141960E94EB
:101780003806F092E2020EC0863041F48091E30206
:101790008093E60281E08093260351C1853029F4CD
:1017A00010923203109226034AC18D3099F4898138
:1017B0002091300390913103E22FF92FE80FF11DB2
:1017C000E80FF11D0190F081E02D82818093E60207
:1017D00081E008C18930B9F49E012F5F3F4FF901C4
:1017E0001127CF01821B930B801791073CF4419185
:1017F000DC01A456BD4F50964C93F3CFF801E4564C
:10180000FD4F108AC2C08A30B9F49E012F5F3F4F4E
:10181000F9011127CF01821B930B801791073CF42C
:101820004191DC01A456BD4F9A964C93F3CFF80139
:10183000E456FD4F12A6A9C08B30C9F5198110924C
:10184000C5021092DF026CEA72E0CE0147960E9458
:101850004A0A66EC72E0CE0141960E944A0A812F44
:1018600090E020912E0330912F0382179307C0F44C
:10187000880F991FE0913003F0913103E80FF91FB1
:1018800080819181DC01ED91FC910190F081E02D4E
:10189000AE014F5E5F4FBE01695E7F4F099501C08B
:1018A00080E08093E60281E08093260342C08C3082
:1018B00009F048C019811092C5026CEA72E0CE01AD
:1018C00047960E944A0A9091300380913103E92F94
:1018D000F82FE10FF11DE10FF11D60817181DB0136
:1018E000ED91FC910280F381E02DAE01495E5F4FE6
:1018F000CE01419609954D8969897A89242F3E89BF
:1019000080E090E02817390791F06115710529F4FE
:1019100010929301E3E9F1E003C0FB01E80FF91F26
:101920005081FC01EA51FD4F50830196EBCF40936B
:101930002603CE0141960E940D0ACE0147960E94D1
:101940000D0A52C0883021F58091E4029091E502A1
:1019500001969093E5028093E402898120913003FF
:1019600090913103E22FF92FE80FF11DE80FF11DDF
:10197000808191814A815B816C817D81DC01ED9167
:10198000FC910488F589E02D0995109226032CC05E
:10199000873009F054C08981209130039091310340
:1019A000E22FF92FE80FF11DE80FF11D80819181E1
:1019B000DC01ED91FC91008CF18DE02D09959B01EE
:1019C000AB01BC01498B5A8B6B8B7C8B2093E6025D
:1019D0008A898093E7028B898093E8028C898093BF
:1019E000E90284E0809326038091320381110DC0C7
:1019F000E0913603F0913703309721F081E0809336
:101A00003203099581E08093320380913303811181
:101A100016C080913C0390913D0302969A8B898B6E
:101A200067E3CE0141960E94380681E0809333033C
:101A3000E0913803F0913903309709F009958091CE
:101A40002603882309F446C08091E0029091E102C8
:101A5000DC01ED91FC910190F081E02D6A2D09955A
:101A60008091E0029091E10260912603DC01ED910A
:101A7000FC910190F081E02D09958091E002909118
:101A8000E1024091260350E0DC01ED91FC910280DF
:101A9000F381E02D66EE72E00995609126036A25D8
:101AA00080E090E02091260330E0821793073CF419
:101AB000FC01EA51FD4F208162270196F3CF80910E
:101AC000E0029091E102DC01ED91FC910190F08146
:101AD000E02D09956E960FB6F894DEBF0FBECDBF10
:101AE000DF91CF911F910F91FF90EF90DF90CF90FA
:101AF000BF90AF909F908F907F906F905F90089570
:101B0000FC0124813581FB0144815581241735076F
:101B100021F5FC0180819181FB0160817181009739
:101B200019F061157105A1F46115710549F0232BB8
:101B3000B1F0FB01808190E09195819591090AC0F7
:101B4000009769F0232B59F0FC01808190E002C0DE
:101B50000E948D1B21E0892B19F020E001C021E0BB
:101B6000822F0895CF93DF93EC018EE091E099836B
:101B700088831A821E82188619861A861B861C86FE
:101B80001D861E861F86188A198A1A8A1B8A81E07A
:101B90008D8382E090E00E9498199C838B83FC01E6
:101BA00011821082DF91CF9108956F927F928F9270
:101BB0009F92AF92BF92CF92DF92EF92FF920F93DC
:101BC0001F93CF93DF93EC018B013A0169010E94CF
:101BD000BE044B015C01780100E010E0061517051A
:101BE000A4F50E94BE04AB01BC01481959096A0959
:101BF0007B09F60180819181092E000CAA0BBB0B99
:101C000084179507A607B70750F0E881F98100848B
:101C1000F185E02DCE0109951816190614F7E88113
:101C2000F9810084F185E02DCE010995892B69F0B9
:101C3000E881F9810284F385E02DCE010995F70151
:101C400081937F010F5F1F4FC9CF0E94BE04AB017C
:101C5000BC01481959096A097B09F6018081918103
:101C6000841B950B91838083C801DF91CF911F91D5
:101C70000F91FF90EF90DF90CF90BF90AF909F902B
:101C80008F907F906F900895CF93DF931F92CDB781
:101C9000DEB79B01198241E050E0BE016F5F7F4FCC
:101CA0000E94D50D019719F4898190E002C08FEF51
:101CB0009FEF0F90DF91CF910895CF93DF93CDB732
:101CC000DEB7A7970FB6F894DEBF0FBECDBF7894EE
:101CD00084B5826084BD84B5816084BD85B5826031
:101CE00085BD85B5816085BD80916E0081608093E2
:101CF0006E0010928100809181008260809381004B
:101D0000809181008160809381008091800081605A
:101D1000809380008091B10084608093B1008091B5
:101D2000B00081608093B00080917A0084608093DD
:101D30007A0080917A00826080937A0080917A00A4
:101D4000816080937A0080917A00806880937A0025
:101D50001092C10060E084E00E94610261E084E0D2
:101D60000E946A04CE0101960E94B20D1D8A1E8A4D
:101D70001F8A188E198E1A8E1B8E1C8E80E09EE78D
:101D8000A5E6BAE48F8F98A3A9A3BAA344E24B8334
:101D900021E332E03E8F2D8F40937C024C815D81A8
:101DA00050937E0240937D024E8140937F024F818B
:101DB0004093800248854093810249855A856B850E
:101DC0007C854093820250938302609384027093D7
:101DD00085024D855E856F85788940938602509394
:101DE0008702609388027093890249895A896B89B6
:101DF0007C8940938A0250938B0260938C0270938B
:101E00008D0210928E0210928F0210929002109208
:101E100091021092920210929302109294021092E8
:101E200095023093970220939602809398029093A4
:101E30009902A0939A02B0939B0282E491E09A8364
:101E40008983CE0101960E94D60561E089E00E9457
:101E50006102E091A401F091A50182E08083E0910C
:101E6000A001F091A1011082E091A201F091A301E3
:101E700080E180831092AC01E091A801F091A9016A
:101E800086E08083E091A601F091A70180818061C6
:101E90008083E091A601F091A70180818860808312
:101EA000E091A601F091A701808180688083E09194
:101EB000A601F091A70180818F7D80838AE090E068
:101EC00090933D0380933C0300912E0310912F03C8
:101ED000E0902C03F0902D030E151F0591F5C8011D
:101EE000089681382FE3920718F4880F991F02C0D3
:101EF0008FEF9FEF0E9498196C01809130039091B1
:101F00003103DC01F60120E030E02017310739F021
:101F10004D915D91419351932F5F3F4FF6CF1E142A
:101F20001F0414F40E94301AD0923103C09230037F
:101F300080912C0390912D03089690932D0380930C
:101F40002C0380912E0390912F0320913003309128
:101F500031039C01220F331FE0913003F0913103D4
:101F6000E20FF31F2AE732E031832083019690933A
:101F70002F0380932E0386E491E0909337038093A0
:101F800036038DE491E090933B0380933A0381E024
:101F900090E00E94CC03182F82E090E00E94CC03D6
:101FA000882E83E090E00E94CC03F82E84E090E03D
:101FB0000E94CC03912CA12CB12CBA2CA92C982CCA
:101FC00088244F2D50E060E070E0BA015527442787
:101FD00075016401C40ED51EE61EF71EC10ED11C8C
:101FE000E11CF11C90E0A0E0B0E0B82FAA279927EF
:101FF0008827C80ED91EEA1EFB1EA7019601C7013D
:10200000B6010E946519811180C146015701E8940B
:10201000B7F82FEF3FEF4FE75FE7C501B4010E942C
:10202000651981110BC02FEF3FEF4FE75FE7C50147
:10203000B4010E94AA1618160CF467C120E030E023
:10204000A901C701B6010E94AA16882309F45DC13F
:10205000C0929802D0929902E0929A02F0929B026A
:1020600061E0809137020E94610260E08091380255
:102070000E94610281E08093390260E08091370222
:102080000E946A040E9499044B015C0188ECC82EEE
:10209000D12CE12CF12C0E949904DC01CB01881990
:1020A0009909AA09BB09883E9340A105B10598F397
:1020B00081E0C81AD108E108F10828EE820E23E079
:1020C000921EA11CB11CC114D104E104F10419F742
:1020D00080917202811110C08091980290919902B2
:1020E000A0919A02B0919B0280933A0290933B0296
:1020F000A0933C02B0933D0281E392E00E94CA04A7
:1021000084E991E09093E1028093E00200E010E026
:102110000E94E512F801E456FD4F80830F5F1F4FC8
:1021200000311105A9F780913C0390913D039CA3D8
:102130008BA38091E2028FA38091E3028EA3BE0164
:10214000695D7F4FCE0183960E94CE03BE016A5D1A
:102150007F4FCE0183960E94CE038EA18093E3022F
:102160008FA18093E2028091E2028A3F08F0DAC0F8
:102170001DA2BE016B5D7F4FCE0183960E94CE03F0
:102180008DA1873319F481E0809333038091E202BB
:10219000882309F4CBC08091E2028F3F09F4C6C0C6
:1021A0008091E302882309F4D7C08091E3028F3F36
:1021B00009F4D2C011E00E94850A84E00E94410423
:1021C000892B21F481E392E00E94CA04809191015D
:1021D00090919201009729F460ED77E080E090E023
:1021E0000BC0019729F46AEF70E080E090E004C032
:1021F00062E370E080E090E00E94E90480913602A2
:10220000882359F180913102823021F18091380286
:102210000E944104811103C00E941A0902C0109259
:102220006E0280916E02809331028091730281115F
:1022300011C00E94BE04C0903202D0903302E090E0
:102240003402F0903502C616D706E806F90610F4F7
:10225000109372021092360255C0809138020E948B
:102260004104811103C00E941A0902C010926E023B
:1022700080916E02882309F445C081E392E00E94B8
:10228000CA066B017C0120E030E44CE956EC0E9468
:1022900060191816BCF520E030E44CE956E4C7019B
:1022A000B6010E94AA1687FF2DC02DEC3CEC4CEC29
:1022B0005DE36091920270919302809194029091FB
:1022C00095020E9410174B015C01C701B60190589E
:1022D00020E030E04AE754E40E94EE1826E636E6B5
:1022E00046E65FE30E9410179B01AC01C501B401F3
:1022F0000E948218609392027093930280939402DA
:10230000909395020E942E0256CF80E090E0A0E8C4
:10231000BFE38093980290939902A0939A02B0939E
:102320009B029ECE8FEF8093E20222CF0E94E512A5
:1023300069EF70E00E946A1911E0180F80913C0368
:1023400090913D039A838983612FCE0101960E946B
:1023500038061093E20224CF0E94E51269EF70E084
:102360000E946A1911E0180F80913C0390913D037F
:1023700001969A838983612FCE0101960E943806C7
:102380001093E30217CF82E491E090937B02809355
:102390007A028AE792E00E94D60580912C03909100
:1023A0002D031816190644F48091300390913103DF
:1023B000009711F00C94301A0895E4E9F1E01382CB
:1023C000128288EE93E0A0E0B0E084839583A68338
:1023D000B78380E391E09183808385EC90E09587DB
:1023E000848784EC90E09787868780EC90E0918BDF
:1023F000808B81EC90E0938B828B82EC90E0958BCC
:10240000848B86EC90E0978B868B118E128E138EC8
:10241000148E1092E2021092E3021092E5021092E2
:10242000E4021092270310922803109229031092BD
:102430002B0310922D0310922C0310922F03109255
:102440002E03109231031092300310923203109237
:102450003303109235031092340310923703109215
:102460003603109239031092380310923B031092F6
:102470003A0310923D0310923C038AE792E00E94D7
:10248000B20DEAE7F2E0148A158A168A178A84E602
:1024900091E091838083108E118E128E138E80E0D6
:1024A0009EE7A5E6BAE4868F978FA0A3B1A384E246
:1024B0008283E1E3F2E0108211821282138214829D
:1024C000158216A215A281E087A781AB82AB88E5B1
:1024D00092E090937102809370021092730282E0F6
:1024E00090E09093750280937402878383E08683E3
:1024F0000895EF920F931F93CF93DF93E80147FD69
:1025000002C034E001C034E1042E000C550B57FF2B
:1025100003C0519541955109E32E022F242FAE019E
:102520000E940913CE01DF91CF911F910F91EF907F
:1025300008958F929F92AF92BF92CF92DF92EF92C7
:10254000FF92CF93DF93EC01688179818A819B812F
:10255000611571058105910521F464E279ED8BE542
:1025600097E02DE133EF41E050E00E94E717490189
:102570005A019B01AC01A7EAB1E40E9406186B0165
:102580007C01ACEEB4EFA50194010E941418DC01AB
:10259000CB018C0D9D1DAE1DBF1DB7FF03C0019764
:1025A000A109B04888839983AA83BB839F77DF9171
:1025B000CF91FF90EF90DF90CF90BF90AF909F9022
:1025C0008F9008950E949912089580E091E00E94F2
:1025D00099120895A0E0B0E080930001909301016A
:1025E000A0930201B09303010895662777270C9406
:1025F0006314FB01DC0105900D920020E1F70895C2
:10260000FC0105900020E9F7809590958E0F9F1FA3
:102610000895A9E0B0E0EFE0F3E10C941F186A011F
:10262000122FB02E2BE3201720F0FF24F394F00E8E
:1026300002C02CE3F22E0F2D27E0AE014F5F5F4F5B
:102640000E94B115BC014981842F8970813031F01D
:10265000E1FC06C0E0FE06C090E205C09DE203C0BA
:102660009BE201C090E05E2D507143FF3CC0911190
:1026700002C083E001C084E0811718F4212F281BD9
:1026800001C020E051110BC0F601822F30E28823F7
:1026900019F031938150FBCFC20ED11C20E0992359
:1026A00029F0D6019C93F60131966F01C60103967D
:1026B000E2FE0AC03EE4D6013C9341E411964C93FD
:1026C000119712963C9306C03EE6F601308341E630
:1026D00041833283FC01322F40E2332309F442C0AC
:1026E00041933150FACF42FF44C0911102C083E0C0
:1026F00001C084E0811718F4212F281B01C020E0BD
:1027000051110BC0F601822F30E2882319F031936A
:102710008150FBCFC20ED11C20E0992329F0D601B5
:102720009C93F60131966F01C6010396E2FE0BC041
:1027300039E4D6013C933EE411963C93119736E47C
:1027400012963C9307C039E6F60130833EE63183AA
:1027500036E63283FC01322F40E2332319F04193F5
:102760003150FBCFFC01E20FF11D10828EEF9FEF85
:10277000A6C021E030E0911102C020E030E0161642
:1027800017061CF4FB01319602C0E1E0F0E02E0FC9
:102790003F1FBB2021F0EB2DF0E0319602C0E0E0BE
:1027A000F0E02E0F3F1FE12FF0E02E173F071CF443
:1027B000121B212F01C020E08E2D887159F4F601E3
:1027C000822F30E2882319F031938150FBCFC20E63
:1027D000D11C20E0992329F0D6019C93F601319673
:1027E0006F0151110BC0F601822F90E3882319F07D
:1027F00091938150FBCFC20ED11C20E00F2D060F0C
:102800009A81342F307144FF03C0913309F4015091
:10281000101624F4093018F008E001C001E0AB0103
:1028200077FF02C040E050E0FB01E41BF50BA1E0A4
:10283000B0E0AC0FBD1FEA0FFB1F8EE2A82E4B01CC
:10284000801A91080B2D10E01195019511094F3F49
:10285000BFEF5B0721F4D601AC9211966D016417AE
:1028600075072CF08416950614F4818101C080E36D
:10287000415051093196D60111967D0140175107FB
:1028800024F0D6018C936701E2CF6417750739F401
:10289000963320F4953319F4311101C081E3F60128
:1028A0008083F701822F90E2882319F09193815061
:1028B000FBCFF701E20FF11D108280E090E0299636
:1028C000ECE00C943B18A0E0B0E0E9E6F4E10C94F5
:1028D0001F18EC016B016115710519F0FB01918363
:1028E00080837E01FFEFEF1AFF0A0881802F90E0BE
:1028F0000E948916892B11F0E701F3CF0D3239F4CC
:102900007E0182E0E80EF11C098111E008C00B3263
:1029100029F47E0192E0E90EF11C098110E0E70143
:10292000219743E050E060E770E0CE010E949216EC
:10293000892BC1F4239645E050E06BE670E0CE01B0
:102940000E949216892B09F42596C114D10419F01E
:10295000F601D183C0831111F6C060E070E080E819
:102960009FE7FAC043E050E068E670E0CE010E94C5
:102970009216892B59F4C114D10409F4E9C0F2E08C
:10298000EF0EF11CF601F182E082E2C020E030E0BF
:10299000A901C0E0D0E0F70180EDA82EA00E89E0EB
:1029A0008A1530F1912F9260B92E812F887012FF15
:1029B00004C0811124C0219622C081112197A5E075
:1029C000B0E00E940618DC01CB01880F991FAA1FF6
:1029D000BB1F9C01AD012A0D311D411D511D283920
:1029E00089E93807480789E1580748F0166006C0AA
:1029F0009EEFA9120AC013FD40C01860B12E8FEFE0
:102A0000E81AF80A00811B2DC6CF802F8F7D8534F0
:102A1000A1F580818D3211F4106106C08B3221F056
:102A2000319661E070E004C08181329662E070E02E
:102A300080538A3018F0E61BF70B1FC060E070E08F
:102A400060389CE079075CF4DB01AA0FBB1FAA0F7A
:102A5000BB1F6A0F7B1F660F771F680F711D3196B2
:102A6000DF0111978C9180538A3050F314FF03C01B
:102A7000719561957109C60FD71F11FF08C0C11468
:102A8000D10429F0CF010197F60191838083CA0117
:102A9000B9010E94AF16212F2370233019F04B018A
:102AA0005C0106C04B015C01B7FAB094B7F8B09472
:102AB00020E030E0A901C501B4010E94AA168823D4
:102AC00009F43EC0D7FF06C0D195C195D10907E8EA
:102AD00010E002C00FE910E06801F8E1CF1AD10858
:102AE00090E2E92EF12CCE15DF0574F0F801259166
:102AF000359145915491C501B4010E9410174B01C5
:102B00005C01CE19DF09EFCF04501109F594E79469
:102B10000C151D0541F78A2D880F8B2D881F8F3FBF
:102B200049F020E030E0A901C501B4010E94AA16D5
:102B3000811106C082E290E090933F0380933E03B0
:102B4000C501B40109C060E070E080E89FEF04C0F7
:102B500060E070E080EC9FE7CDB7DEB7ECE00C946E
:102B60003B18283008F027E03327DA01990F311D90
:102B700087FD916000966105710539F432602E5F22
:102B80003D9330E32A95E1F708959F3F30F0803878
:102B90007105610509F03C5F3C5F3D93913008F0A1
:102BA0008068911DDF93CF931F930F93FF92EF9255
:102BB000192F987F9695E92F96959695E90FFF27FF
:102BC000E350FF4F99273327EE24FF24A701E701A5
:102BD00005900894079428F4360FE71EF81E491F45
:102BE000511D660F771F881F991F0694A1F7059046
:102BF000079428F4E70EF81E491F561FC11D770FD2
:102C0000881F991F661F0694A1F70590079428F462
:102C1000F80E491F561FC71FD11D880F991F661F29
:102C2000771F0694A1F70590079420F4490F561FCB
:102C3000C71FD81F990F661F771F881F0694A9F713
:102C400084911095177041F0D695C7955795479583
:102C5000F794E7941A95C1F7E3EAF0E068941590C9
:102C6000159135916591959105907FE27395E118E5
:102C7000F10A430B560BC90BD009C0F7E10CF11E4A
:102C8000431F561FC91FD01D7EF4703311F48A955F
:102C9000E6CFE894015030F0080F0AF4002702173D
:102CA00008F4202F2395022F7A3328F079E37D93BF
:102CB0002A95E9F710C07D932A9589F60694979591
:102CC0006795379517951794E118F10A430B560B42
:102CD000C90BD00998F023957E9173957A3308F04B
:102CE00070E37C932013B8F77E9170617D9330F090
:102CF000839571E37D9370E32A95E1F71124EF90BA
:102D0000FF900F911F91CF91DF91992787FD9095AB
:102D1000089591110C947D17803219F089508550D7
:102D2000C8F70895FB01DC014150504088F08D91B7
:102D300081341CF08B350CF4805E659161341CF09D
:102D40006B350CF4605E861B611171F3990B08956D
:102D5000881BFCCF0E94EC1608F481E00895E894EB
:102D600009C097FB3EF490958095709561957F4FD3
:102D70008F4F9F4F9923A9F0F92F96E9BB27939581
:102D8000F695879577956795B795F111F8CFFAF491
:102D9000BB0F11F460FF1BC06F5F7F4F8F4F9F4FC2
:102DA00016C0882311F096E911C0772321F09EE820
:102DB000872F762F05C0662371F096E8862F70E086
:102DC00060E02AF09A95660F771F881FDAF7880F60
:102DD0009695879597F90895990F0008550FAA0BB6
:102DE000E0E8FEEF16161706E807F907C0F012161E
:102DF0001306E407F50798F0621B730B840B950B21
:102E000039F40A2661F0232B242B252B21F4089575
:102E10000A2609F4A140A6958FEF811D811D089512
:102E20000E9423170C9497170E94891738F00E946C
:102E3000901720F0952311F00C9480170C948617AE
:102E400011240C94CB170E94A81770F3959FC1F31F
:102E5000950F50E0551F629FF001729FBB27F00D48
:102E6000B11D639FAA27F00DB11DAA1F649F66279D
:102E7000B00DA11D661F829F2227B00DA11D621FEC
:102E8000739FB00DA11D621F839FA00D611D221FA6
:102E9000749F3327A00D611D231F849F600D211D8A
:102EA000822F762F6A2F11249F5750409AF0F1F00D
:102EB00088234AF0EE0FFF1FBB1F661F771F881F76
:102EC00091505040A9F79E3F510580F00C94801717
:102ED0000C94CB175F3FE4F3983ED4F38695779537
:102EE0006795B795F795E7959F5FC1F7FE2B880F1C
:102EF000911D9695879597F90895992788270895A4
:102F000097F99F6780E870E060E008959FEF80EC9C
:102F1000089500240A94161617061806090608953F
:102F200000240A9412161306140605060895092EA5
:102F30000394000C11F4882352F0BB0F40F4BF2B14
:102F400011F460FF04C06F5F7F4F8F4F9F4F089554
:102F500057FD9058440F551F59F05F3F71F047954A
:102F6000880F97FB991F61F09F3F79F0879508952F
:102F7000121613061406551FF2CF4695F1DF08C04E
:102F8000161617061806991FF1CF8695710561056B
:102F900008940895E894BB2766277727CB0197F913
:102FA0000895F999FECF92BD81BDF89A992780B511
:102FB0000895262FF999FECF1FBA92BD81BD20BD7D
:102FC0000FB6F894FA9AF99A0FBE01960895052E55
:102FD00097FB1EF400940E94FE1757FD07D00E9435
:102FE000501807FC03D04EF40C94FE1750954095F2
:102FF000309521953F4F4F4F5F4F089590958095A5
:10300000709561957F4F8F4F9F4F08950E94721862
:10301000A59F900DB49F900DA49F800D911D11242C
:103020000895B7FF0C9406180E940618821B930B94
:1030300008952F923F924F925F926F927F928F925C
:103040009F92AF92BF92CF92DF92EF92FF920F9337
:103050001F93CF93DF93CDB7DEB7CA1BDB0B0FB641
:10306000F894DEBF0FBECDBF09942A8839884888FE
:103070005F846E847D848C849B84AA84B984C88494
:10308000DF80EE80FD800C811B81AA81B981CE0F8B
:10309000D11D0FB6F894DEBF0FBECDBFED01089570
:1030A000A1E21A2EAA1BBB1BFD010DC0AA1FBB1F4C
:1030B000EE1FFF1FA217B307E407F50720F0A21BBE
:1030C000B30BE40BF50B661F771F881F991F1A942B
:1030D00069F760957095809590959B01AC01BD0155
:1030E000CF010895A29FB001B39FC001A39F700DAF
:1030F000811D1124911DB29F700D811D1124911D00
:1031000008955058BB27AA270E9499180C94971726
:103110000E94891738F00E94901720F039F49F3FE1
:1031200019F426F40C9486170EF4E095E7FB0C9442
:103130008017E92F0E94A81758F3BA176207730780
:103140008407950720F079F4A6F50C94CA170EF4BD
:10315000E0950B2EBA2FA02D0B01B90190010C01A7
:10316000CA01A0011124FF27591B99F0593F50F4BF
:10317000503E68F11A16F040A22F232F342F442717
:10318000585FF3CF469537952795A795F04053950F
:10319000C9F77EF41F16BA0B620B730B840BBAF0DF
:1031A0009150A1F0FF0FBB1F661F771F881FC2F74A
:1031B0000EC0BA0F621F731F841F48F4879577955E
:1031C0006795B795F7959E3F08F0B0CF9395880F18
:1031D00008F09927EE0F9795879508950E94021998
:1031E0000C9497170E94901758F00E94891740F08E
:1031F00029F45F3F29F00C94801751110C94CB17E0
:103200000C9486170E94A81768F39923B1F35523ED
:1032100091F3951B550BBB27AA27621773078407E9
:1032200038F09F5F5F4F220F331F441FAA1FA9F37F
:1032300035D00E2E3AF0E0E832D091505040E6956D
:10324000001CCAF72BD0FE2F29D0660F771F881FCE
:10325000BB1F261737074807AB07B0E809F0BB0BC1
:10326000802DBF01FF2793585F4F3AF09E3F5105D5
:1032700078F00C9480170C94CB175F3FE4F3983EE2
:10328000D4F3869577956795B795F7959F5FC9F7BE
:10329000880F911D9695879597F90895E1E0660F3F
:1032A000771F881FBB1F621773078407BA0720F0B8
:1032B000621B730B840BBA0BEE1F88F7E095089521
:1032C0000E94EC1608F48FEF08950E94EC16880B0C
:1032D000990B089597FB072E16F4009407D077FDFD
:1032E00009D00E947E1907FC05D03EF49095819587
:1032F0009F4F0895709561957F4F0895AA1BBB1B42
:1033000051E107C0AA1FBB1FA617B70710F0A61BE5
:10331000B70B881F991F5A95A9F780959095BC0106
:10332000CD010895EE0FFF1F0590F491E02D099453
:103330000F931F93CF93DF938230910510F482E0B7
:1033400090E0E0914203F091430320E030E0A0E000
:10335000B0E0309719F14081518102811381481703
:103360005907C8F08417950769F4109731F0129641
:103370000C93129713961C9327C00093420310934B
:10338000430322C02115310519F04217530718F4E1
:103390009A01BD01EF01DF01F801DBCF21153105F5
:1033A000F9F0281B390B2430310580F48A819B8188
:1033B0006115710521F0FB019383828304C0909312
:1033C000430380934203FE01329644C0FE01E20FA4
:1033D000F31F8193919322503109398328833AC096
:1033E0002091400330914103232B41F420910601A9
:1033F0003091070130934103209340032091040151
:10340000309105012115310541F42DB73EB74091AA
:10341000080150910901241B350BE0914003F09104
:103420004103E217F307A0F42E1B3F0B28173907BF
:1034300078F0AC014E5F5F4F2417350748F04E0F10
:103440005F1F50934103409340038193919302C0C7
:10345000E0E0F0E0CF01DF91CF911F910F9108954F
:10346000CF93DF93009709F481C0FC013297138258
:103470001282A0914203B0914303109781F42081FE
:103480003181820F931F209140033091410328170F
:10349000390751F5F0934103E093400367C0ED0114
:1034A00020E030E0CE17DF0740F44A815B819E01C7
:1034B00041155105F1F0EA01F5CFD383C283408174
:1034C0005181840F951FC817D90759F488819981B4
:1034D000840F951F0296918380838A819B819383B9
:1034E00082832115310529F4F0934303E0934203CD
:1034F0003DC0E901FB83EA8349915991C40FD51F6F
:10350000EC17FD0761F480819181840F951F02966D
:10351000E90199838883828193819B838A83E0E098
:10352000F0E012968D919C911397009719F0FD0190
:10353000DC01F7CF8D919C9111979D012E5F3F4F3C
:10354000820F931F209140033091410328173907C0
:1035500069F4309729F4109243031092420302C099
:1035600013821282B0934103A0934003DF91CF9165
:103570000895A0E0B0E0EFEBFAE10C941D18EC0127
:10358000009721F4CB010E949819B4C0FC01E60F0A
:10359000F71F9C0122503109E217F30708F4A8C075
:1035A000D9010D911C91119706171707B0F005303E
:1035B000110508F49BC0C80104978617970708F403
:1035C00095C002501109061B170B019311936D93BF
:1035D0007C93CF010E94301A89C05B01A01AB10A06
:1035E0004C01800E911EA0914203B0914303612CC7
:1035F000712CE12CF12C109709F446C08D919C910F
:103600001197A815B905B1F56C0142E0C40ED11CA3
:10361000CA14DB0478F14C018A189B08640142E06B
:10362000C40ED11C1296BC9012971396AC91B5E0C3
:10363000CB16D10440F0B282A38391828082D9015B
:103640006D937C9309C00E5F1F4F800F911FF9018E
:1036500091838083EB2DFA2FE114F10431F0D7012F
:103660001396FC93EE93129741C0F0934303E093BB
:1036700042033CC06816790608F43C017D011296AD
:103680000D90BC91A02DB7CF809140039091410344
:1036900088169906E1F466167706C8F4809104014D
:1036A00090910501009741F48DB79EB740910801B4
:1036B00050910901841B950BE817F907C8F4F093A2
:1036C0004103E0934003F901718360830FC0CB0194
:1036D0000E9498197C01009759F0A801BE010E9430
:1036E000841BCE010E94301AC70104C0CE0102C063
:1036F00080E090E0CDB7DEB7EEE00C94391881E0C1
:1037000090E0F8940C949D1BFB01DC0102C0019039
:103710000D9241505040D8F70895FB01DC018D9186
:10372000019080190110D9F3990B0895FB01DC0178
:1037300001900D920020E1F7089511E0CBE1D1E076
:1037400004C0FE010E9492192196CC31D107C9F71D
:04375000F894FFCF1B
:1037540001000000000044038000000000006A0330
:1037640076070D0672034603AE02AE02AD022C03C9
:10377400120311030E03F802EE02AF020000000070
:10378400BF01EE0856010C028701650179010000B2
:1037940000006A0376070D0672034603AE02AE020A
:1037A400AD029D021203A302AD029D02EE02AF021E
:1037B4000000000081074E080D0672034603AE02A6
:1037C400AE02AD029D021203A302AD026C03EE022F
:0837D400AF0274617265000090
:00000001FF
