:100000000C9490040C94B8040C94B8040C94B804A8
:100010000C94B8040C94B8040C94B8040C94CB1E43
:100020000C94B8040C94B8040C94B8040C94B80460
:100030000C94B8040C94B8040C94B8040C94B80450
:100040000C9498180C94B8040C94D3170C94AD1716
:100050000C94B8040C94B8040C94B8040C94B80430
:100060000C94E2180C94B8044E414E494E49545930
:10007000494E46CDCCCC3D0AD7233C17B7D1387773
:10008000CC2B329595E6241FB14F0A000020410089
:1000900000C84200401C4620BCBE4CCA1B0E5AAED3
:1000A000C59D7400407A10F35A00A0724E180900E2
:1000B00010A5D4E80000E87648170000E40B5402CD
:1000C0000000CA9A3B000000E1F505000080969808
:1000D00000000040420F000000A086010000001058
:1000E0002700000000E8030000000064000000009A
:1000F000000A00000000000100000000002C76D87B
:1001000088DC674F0823DFC1DFAE59E1B1B796E560
:10011000E3E453C63AE651997696E8E6C28426EBC4
:10012000898C9B62ED407C6FFCEFBC9C9F40F2BAD7
:10013000A56FA5F490055A2AF75C936B6CF9676D6F
:10014000C11BFCE0E40D47FEF520E6B500D0ED90C4
:100150002E0300943577050080841E080000204E91
:100160000A000000C80C333333330F986E1283112A
:1001700041EF8D2114893BE65516CFFEE6DB18D101
:10018000844B381BF77C1D901DA4BBE424203284D3
:10019000725E228100C9F124ECA1E53D27DB40A479
:1001A000A62EAF2000A1C8D300408DAED580A8A256
:1001B00020006DA00C050101E4708BA57A8A5954CA
:1001C0007557937446B36445D354356336633453DB
:1001D000385333532A5333431C5333431C44333370
:1001E0001D4433331D4433331D532434104542031F
:1001F000513411324F2612325D3621325C272224CF
:10020000793632205523042435029624604805931C
:1002100005326C103533006D6D00000103070F1FB0
:100220003F7F0080C0E0F0F8FCFE00000000003ED0
:100230005B4F5B3E3E6B4F6B3E1C3E7C3E1C183C56
:100240007E3C181C577D571C1C5E7F5E1C00183CB2
:100250001800FFE7C3E7FF0018241800FFE7DBE7FB
:10026000FF30483A060E2629792926407F050507E2
:10027000407F05253F5A3CE73C5A7F3E1C1C08083E
:100280001C1C3E7F14227F22145F5F005F5F060903
:100290007F017F006689956A606060606094A2FF5C
:1002A000A29408047E040810207E201008082A1C4E
:1002B00008081C2A08081E101010100C1E0C1E0C1A
:1002C00030383E3830060E3E0E06000000000000BA
:1002D000005F00000007000700147F147F14242A29
:1002E0007F2A1223130864623649562050000807FB
:1002F0000300001C2241000041221C002A1C7F1C1C
:100300002A08083E0808008070300008080808081D
:10031000000060600020100804023E5149453E0084
:10032000427F400072494949462141494D331814E2
:10033000127F1027454545393C4A49493141211131
:1003400009073649494936464949291E0000140023
:100350000000403400000008142241141414141446
:10036000004122140802015909063E415D594E7CA4
:100370001211127C7F494949363E414141227F4159
:1003800041413E7F494949417F090909013E4141B7
:1003900051737F0808087F00417F41002040413FA2
:1003A000017F081422417F404040407F021C027FB1
:1003B0007F0408107F3E4141413E7F090909063E06
:1003C0004151215E7F0919294626494949320301D5
:1003D0007F01033F4040403F1F2040201F3F4038E7
:1003E000403F631408146303047804036159494DC2
:1003F00043007F4141410204081020004141417FF8
:10040000040201020440404040400003070800206D
:10041000545478407F28444438384444442838446D
:1004200044287F385454541800087E090218A4A4A4
:100430009C787F0804047800447D40002040403DC3
:10044000007F1028440000417F40007C047804783D
:100450007C080404783844444438FC1824241818D0
:10046000242418FC7C08040408485454542404042C
:100470003F44243C4040207C1C2040201C3C403019
:10048000403C44281028444C9090907C4464544C48
:1004900044000836410000007700000041360800A3
:1004A00002010204023C2623263C1EA1A161123A4D
:1004B0004040207A38545455592155557941225499
:1004C000547842215554784020545579400C1E529E
:1004D0007212395555555939545454593955545443
:1004E000580000457C410002457D420001457C40AA
:1004F0007D1211127DF0282528F07C5455450020EE
:1005000054547C547C0A097F4932494949323A445F
:1005100044443A324A4848303A4141217A3A4240CA
:100520002078009DA0A07D3D4242423D3D4040409C
:100530003D3C24FF2424487E4943662B2FFC2F2B6F
:10054000FF0929F620C0887E090320545479410010
:1005500000447D413048484A32384040227A007A8F
:100560000A0A727D0D19317D2629292F282629296D
:10057000292630484D40203808080808080808088F
:10058000382F10C8ACBA2F102834FA00007B0000B6
:1005900008142A142222142A14085500550055AABA
:1005A00055AA55AAFF55FF55FF000000FF00101087
:1005B00010FF00141414FF001010FF00FF1010F0C3
:1005C00010F0141414FC001414F700FF0000FF00D6
:1005D000FF1414F404FC141417101F10101F101F24
:1005E0001414141F00101010F0000000001F101051
:1005F00010101F10101010F010000000FF1010104D
:10060000101010101010FF10000000FF140000FF69
:1006100000FF00001F10170000FC04F41414171052
:10062000171414F404F40000FF00F7141414141445
:100630001414F700F7141414171410101F101F14BB
:100640001414F4141010F010F000001F101F00001C
:10065000001F14000000FC140000F010F01010FF48
:1006600010FF141414FF141010101F00000000F0ED
:1006700010FFFFFFFFFFF0F0F0F0F0FFFFFF0000C2
:10068000000000FFFF0F0F0F0F0F3844443844FCE9
:100690004A4A4A347E02020606027E027E02635500
:1006A0004941633844443C04407E201E2006027EBB
:1006B000020299A5E7A5991C2A492A1C4C720172CD
:1006C0004C304A4D4D303048784830BC625A463D37
:1006D0003E494949007E0101017E2A2A2A2A2A44EC
:1006E000445F444440514A444040444A5140000021
:1006F000FF0103E080FF000008086B6B083612362C
:100700002436060F090F060000181800000010100C
:10071000003040FF0101001F01011E00191D1712CA
:10072000003C3C3C3C0000000000000000002500B4
:1007300028002B0000000000240027002A000404E9
:100740000404040404040202020202020303030379
:100750000303010204081020408001020408102055
:10076000010204081020000000080002010000033C
:100770000407000000000000000074300074617283
:100780006500720062320062310062300061320046
:100790006131006130002D6D048E0315B1E2C1019D
:1007A0000306441A3000C6001E93170877BAD7E52F
:1007B000043127274717576D6D7C7C7C7C6D5D1756
:1007C0004627272810F4D5B77A0611079608610046
:1007D0000014C7711CC7711CC7711CC7A228051A59
:1007E00090160875B7C4E3E2726162624273697978
:1007F0006979787888878787330200124C1C8F18B4
:100800000774B6D3E1716161726869787786B5C49F
:1008100053616A6969697877E1D1C285051E9216CC
:1008200008414456626462646264626462646204A1
:10083000120080C26C6C6C6C6C6C6C6C4D4E06184B
:1008400090160895E3E2E1B2757979CAD4E3F252E1
:10085000726A6A41D502182E5D7A571790160858A9
:1008600079888787787878B9D5F201374D5C5B3C19
:100870002E162F4D6B4817911608A4F4013001A1D4
:10088000A7A6A7B6A6B6A6A7A6A7A6A7A6A7B6C5B3
:10089000A42393180886C9F5F473636364636473CF
:1008A00081F3D5B7C9E683817273716561D66661DC
:1008B00066718301325F8D781990170875B7D4E29D
:1008C00062D2C4B5B5C563F1F1E2B47969797888CB
:1008D0008787784A08000000000000000000000040
:1008E0000000000000000000000000000000000008
:1008F00000000000000000000000000000000000F8
:1009000000000000000000000B0B481556A9DACCCF
:100910006636B399CD9C992200FF2100E12FB92FB3
:1009200011241FBECFEFD8E0DEBFCDBF25E0A2EF80
:10093000B1E001C01D92A136B207E1F711E0A0E0DD
:10094000B1E0E2E4F3E702C005900D92A23FB107E7
:10095000D9F714E0CFE8D4E004C02197FE010E944B
:100960008237CE38D107C9F70E94AD240C94943950
:100970000C940000FC0111821082138212821582F5
:10098000148216820895EF92FF920F931F93CF93D4
:10099000DF938C01EB01E881F9810190F081E02D7A
:1009A000DC0116966C91CE010995F801678170857E
:1009B000161617063CF4E881F9810190F081E02DCC
:1009C000CE010995E881F9810190F081E02DD801EF
:1009D00012966C91CE010995F8014281538141151F
:1009E000510549F064817581E881F9810280F381C4
:1009F000E02DCE010995E881F981E080F180D801F0
:100A000012968C91129716966C9116976827282F3C
:100A100013963C9180E090E08217930749F0F8012B
:100A2000A481B581A80FB91F4C9164270196F4CF1A
:100A3000D80117968D919C911897181619060CF4E9
:100A40006827CE01F701DF91CF911F910F91FF90A1
:100A5000EF900994FC011182108213821282158298
:100A6000148216828FEF9FEF908787830895FC0191
:100A700077FDB9C080859185681779070CF0B3C000
:100A800057FDB1C082859385481759070CF008952A
:100A90008689823079F484819581DC01A61BB70BAD
:100AA000BD016150710986819781DC01A41BB50BE2
:100AB000AD010EC0833009F084C064277527CA01D8
:100AC000862797276827792746815781481B590B26
:100AD000415051092130310531F048F122303105C2
:100AE00009F44AC00895CA0157FD07969C01A3E086
:100AF00035952795AA95E1F7A481B5812A9FC00174
:100B00002B9F900D3A9F900D1124680F791F078C31
:100B1000F0A1E02DE60FF71F4770552781E090E028
:100B200001C0880F4A95EAF79081892B48C0CA0115
:100B300057FD07969C0193E0359527959A95E1F727
:100B4000A481B5812A9FC0012B9F900D3A9F900DE3
:100B50001124680F791F078CF0A1E02DE60FF71F15
:100B60004770552781E090E001C0880F4A95EAF769
:100B700080959081892323C0CA0157FD07969C0167
:100B800083E0359527958A95E1F7A481B5812A9F61
:100B9000C0012B9F900D3A9F900D1124680F791F73
:100BA000078CF0A1E02DE60FF71F4770552781E075
:100BB00090E001C0880F4A95EAF7908189278083E9
:100BC0000895813009F086CF642775274627572777
:100BD0006427752784819581DC01A61BB70BBD01B5
:100BE0006150710977CF0895FC012081318112167F
:100BF000130634F484819581009711F00C94203809
:100C00000895FC01208131811216130634F4848189
:100C10009581009711F00C9420380895DF92EF929F
:100C2000FF920F931F93CF93DF93EC01162FE88071
:100C3000F9808A819B81E816F90611F5C7010896AB
:100C40000E948837D82E092FE82FF92F80E090E0F6
:100C50008E159F0541F0AC81BD81A80FB91F2C9165
:100C600021930196F5CF892B21F08C819D810E94E3
:100C70002038DC820D838881998108969983888346
:100C8000EC81FD818A819B81E80FF91F10838A81A5
:100C90009B8101969B838A83812FDF91CF911F9146
:100CA0000F91FF90EF90DF900895CF92DF92EF9237
:100CB000FF920F931F93CF93DF934423A9F0611505
:100CC000710591F08B016C017B01C42FD0E0C7014D
:100CD000801B910B8C179D073CF4F70161917F01FC
:100CE000C6010E940E06F3CFDF91CF911F910F91A5
:100CF000FF90EF90DF90CF9008950C940E064F92E6
:100D00005F926F927F928F929F92AF92BF92CF929B
:100D1000DF92EF92FF920F931F93CF93DF9300D058
:100D2000CDB7DEB78C017B015A834983BE016F5F6B
:100D30007F4FC7010E9414218A3A910521F097FF45
:100D4000F5CF80E088C0BE016F5F7F4FC7010E9472
:100D500014214C0197FDF5CFBE016F5F7F4FC70196
:100D60000E9414215C0197FDECCFBE016F5F7F4FA5
:100D7000C7010E9414213C0197FDE3CFBE016F5FC4
:100D80007F4FC7010E9414212C0197FDDACFBE01CD
:100D90006F5F7F4FC7010E9414216C0197FDD1CF77
:100DA0008AEA88258A2586258425B82EBC24F80160
:100DB0008782A08661864682138212828081918119
:100DC0001816190664F484819581009729F00E9411
:100DD0002038F80115821482F80111821082812CCA
:100DE000912C8C149D0441F067E1C8010E940E060D
:100DF000FFEF8F1A9F0AF5CFC114D104D9F0F80183
:100E0000648175819E012F5F3F4FA601C7010E943B
:100E1000A520C816D90611F08FEF1DC0F8018481F6
:100E20009581FC012191B2269F01281B390B2C15BD
:100E30003D05C4F3BE016F5F7F4FC7010E941421BF
:100E400097FDEACF99272B2D30E08217930711F4F5
:100E500081E001C08EEF0F900F90DF91CF911F9135
:100E60000F91FF90EF90DF90CF90BF90AF909F9049
:100E70008F907F906F905F904F9008950F931F9386
:100E8000CF93DF93DC015696EC915697E23071F0E8
:100E9000E330E9F0E13079F5FB0114960D90BC9157
:100EA000A02DA41BB50BA21BB30B18C0EC01EC8149
:100EB000FD81E61BF70BBF0161507109EE81FF81D7
:100EC000DF01A41BB50BAD01421B530B14C0DA01AB
:100ED000EC01EE81FF81E61BF70B3197F7FD0DC0AA
:100EE000EC014E815F81E417F5073CF4AF01BD01D1
:100EF0000E94D21202C00E943913DF91CF911F913C
:100F00000F9108950F931F93DC015696EC9156971D
:100F1000E23061F0E33009F1E13081F51496ED91B2
:100F2000FC911597E41BF50B319723C0DC01149657
:100F3000ED91FC911597DF01A61BB70BBD01DC01FC
:100F40001696ED91FC911797DF01A41BB50BAD012F
:100F500041505109621B730B11C0FA01DC01169656
:100F60004D915C911797DA01A61BB70BBD01621B6F
:100F7000730BAB01BF010E9439130CC057FD0AC0AF
:100F8000DC011696ED91FC9117974E175F0714F44C
:100F90000E94D2121F910F910895FF920F931F93F9
:100FA000CF93DF9300D0CDB7DEB78C01F62EFC01D6
:100FB000E65AFF4F808191819A838983CE01019601
:100FC0000E94A51AF801EA5BFF4FF0820F900F9084
:100FD000DF91CF911F910F91FF9008951F93CF93B1
:100FE000DF93FC01858D968D009701F1162FEF019F
:100FF00061A10E94101A8D8D9E8DDC01ED91FC91F6
:101000000190F081E02D60E009958D8D9E8DDC01D1
:10101000ED91FC910190F081E02D612F09958D8D6E
:101020009E8DDF91CF911F910C942D21A5A5B6A582
:101030009C9183A9809589238C93838D948D892B92
:1010400031F0862FDF91CF911F910C949B1E28E0E9
:1010500030E080E8A1A5B2A591A9462F482319F058
:101060004C91942B03C04C91909594239C93A3A5F1
:10107000B4A54C9192A9942B9C93A3A5B4A54C9193
:1010800092A9909594239C9386952150310911F74C
:10109000DF91CF911F91089508951F93CF93DF9310
:1010A000EC01162F8D8D9E8D892BB1F02DA93EA9B7
:1010B0004FA958AD60E074E284EF90E00E9444379D
:1010C000DA01C9014097A109B109B695A79597958D
:1010D00087958093B8000FC08B8D9C8D892B21F054
:1010E0008EAD9FAD0E94A21EEFA5F8A990818CA99C
:1010F000809589238083111102C066EA01C067EAE6
:10110000CE010E94EE078D8D9E8D892BB1F029AD09
:101110003AAD4BAD5CAD60E074E284EF90E00E94CC
:101120004437DA01C9014097A109B109B695A795DD
:10113000979587958093B80006C0EFA5F8A9908190
:101140008CA9892B8083DF91CF911F910895EF9215
:10115000FF920F931F93CF93DF93CDB7DEB7C054A9
:10116000D1090FB6F894DEBF0FBECDBF9EAF8DAFD5
:10117000CE01CF96FC0171836083198289E090E0F3
:101180000E94AB248C01C8010E942A051A87098796
:10119000CE01CF96FC0180819181FC0186810E9465
:1011A000861A282F89859A850696622F0E94871AAB
:1011B000CE01CF96FC0180819181FC0181850E9446
:1011C000861A982F81E0913009F080E08823B1F1F0
:1011D000CE01CF96FC0180819181FC0187810E9424
:1011E000861A182F8DAD9EAD0E94EE1A181769F45D
:1011F000CE01CF96FC0180819181FC0180850E9407
:10120000861A882311F081E001C080E0882311F064
:1012100081E089838DAD9EAD865B9F4FFC0182810D
:1012200093810E94821A8CAF89859A859E01245CE5
:101230003F4F41E0B9010E945506C4C3CE01CF968D
:10124000FC0180819181FC0181850E94861A982F82
:1012500081E0923009F080E08823D9F0CE01CF966A
:10126000FC0180819181FC018481958160E070E0C6
:101270000E94831AFC018081882F90E09C8F8B8FC5
:101280004B8D2DAD3EAD89859A85B9010E945506DD
:1012900099C3CE01CF96FC0180819181FC018185AB
:1012A0000E94861A982F81E0933009F080E088230D
:1012B00009F444C0CE01CF96FC0180819181FC01EC
:1012C000828193810E94821A9A8F898F1B821A824F
:1012D0002A813B81898D9A8D281739074CF52DADD0
:1012E0003EAD8A819B81820F931FFC0110812A8170
:1012F0003B81CE01CF96FC0180819181FC018481EC
:101300009581B9010E94831AFC01908181E019172F
:1013100009F480E0882331F089859A856AEA0E9481
:101320007D0606C08A819B8101969B838A83D0CFEC
:1013300089859A856FE00E947D0644C3CE01CF96D1
:10134000FC0180819181FC0181850E94861A982F81
:1013500081E0943009F080E0882309F478C0CE0160
:10136000CF96FC0180819181FC018481958160E0B0
:1013700070E00E94831AFC018081882F90E09C8796
:101380008B87CE01CF96FC0180819181FC01848105
:10139000958161E070E00E94831AFC018081882FB2
:1013A00090E09E878D87CE01CF96FC018081918150
:1013B000FC018481958162E070E00E94831AFC0147
:1013C0008081882F90E0988B8F878DAD9EAD0E9495
:1013D000E91A282F30E041E08B859C8528173907D2
:1013E00009F040E0442371F009851A8501151105C3
:1013F00031F0C8010E94F405C8010E94A92480E0D0
:1014000090E04EC30E94B81A95E4899F912D112453
:10141000282F291B2695920F292F22952695269550
:10142000237095E6299F902D1124891B898B89892A
:10143000282F30E08F859889821793070CF4C1C25A
:101440002D858DAD9EAD622F0E94CD07BBC2CE0112
:10145000CF96FC0180819181FC0181850E94861AD2
:10146000982F81E0963009F080E0882359F08DAD07
:101470009EAD0E94E91A282F89859A85622F0E94C5
:101480007D06A0C2CE01CF96FC0180819181FC0136
:1014900081850E94861A982F81E0953009F080E0BE
:1014A000882339F08DAD9EAD805B9F4FFC0110828B
:1014B00089C2CE01CF96FC0180819181FC0181859A
:1014C0000E94861A982F81E09D3009F080E08823E1
:1014D00039F1CE01CF96FC0180819181FC0184819C
:1014E000958160E070E00E94831AFC018081282FC2
:1014F00030E08DAD9EAD865B9F4FFC018481958170
:10150000B9010E947D1AFC0180819181FC01228138
:1015100089859A85622F0E947D0681E0898352C267
:10152000CE01CF96FC0180819181FC0181850E94D2
:10153000861A982F81E0993009F080E0882309F419
:1015400049C01D821C82CE01CF96FC018081918111
:10155000FC01828193810E94821A9C018C819D8171
:1015600041E08217930708F040E04423F1F02C811A
:101570003D81CE01CF96FC0180819181FC01848167
:101580009581B9010E94831AFC0140812DAD3EADC9
:101590008C819D81820F931F4096FC0140838C813A
:1015A0009D8101969D838C83CECFCE01CF96FC0189
:1015B00080819181FC01828193810E94821A9C0129
:1015C0008DAD9EAD820F931F4096FC01108281E08D
:1015D0008983F8C1CE01CF96FC0180819181FC0105
:1015E00081850E94861A982F81E09A3009F080E068
:1015F000882309F449C01F821E82CE01CF96FC01C8
:1016000080819181FC01828193810E94821A9C01D8
:101610008E819F8141E08217930708F040E04423C8
:10162000F1F02E813F81CE01CF96FC018081918126
:10163000FC0184819581B9010E94831AFC014081DB
:101640002DAD3EAD8E819F81820F931F8A96FC0146
:1016500040838E819F8101969F838E83CECFCE0162
:10166000CF96FC0180819181FC01828193810E944F
:10167000821A9C018DAD9EAD820F931F8A96FC014C
:10168000108281E089839EC1CE01CF96FC018081CA
:101690009181FC0181850E94861A982F81E09B3000
:1016A00009F080E0882309F471C0CE01CF96FC01D7
:1016B00080819181FC018481958160E070E00E94CD
:1016C000831AFC0180818A8B8DAD9EADFC0111A631
:1016D0008DAD9EAD8D5B9F4FFC0110828DAD9EAD9B
:1016E0009C01205F3F4FCE01C096B9010E946E243D
:1016F0008DAD9EAD9C01265D3F4FCE01C696B901D2
:101700000E946E2418868A89082F10E08DAD9EAD48
:10171000865B9F4FFC01828193810E94821A21E0A7
:101720000817190708F020E02223F9F08A89282FEA
:1017300030E08DAD9EAD865B9F4FFC01848195812D
:10174000B9010E947D1AFC0180819181FC012081F8
:101750003181F90120813181AE014A5C5F4FBE01C8
:10176000605D7F4FF90109958887288589859A856D
:10177000622F0E947D0681E08983CE01C6960E9479
:101780005A14CE01C0960E945A141CC1CE01CF96A5
:10179000FC0180819181FC0181850E94861A982F2D
:1017A00081E09C3009F080E0882309F45BC0CE0121
:1017B000CF96FC0180819181FC018481958160E05C
:1017C00070E00E94831AFC018081882F90E09C8B3E
:1017D0008B8B8DAD9EADFC0111A68DAD9EAD9C0198
:1017E000205F3F4FCE018496B9010E946E242B8961
:1017F0003C898DAD9EAD865B9F4FFC0184819581B8
:10180000B9010E947D1AFC0180819181FC01208137
:1018100031812E5F3F4FF90120813181FE01BA965F
:10182000AE014C5D5F4FBC01CF01F90109958EA55A
:101830009FA50E94821A182F8AA59BA50E947C1A38
:101840009C0189859A85412FB9010E94550681E046
:101850008983CE018A960E945A14CE0184960E94F2
:101860005A14B0C0CE01CF96FC0180819181FC0159
:1018700081850E94861A982F81E0983009F080E0D7
:10188000882309F451C08DAD9EAD885B9F4FFC014C
:10189000808191819C012F5F3F4F8DAD9EAD885B14
:1018A0009F4FFC0131832083CE01CF96FC018081C4
:1018B0009181FC018481958160E070E00E94831A2F
:1018C000FC018081882F90E09E8B8D8B2D893E8935
:1018D0008DAD9EAD865B9F4FFC0184819581B901E2
:1018E0000E947D1AFC0100811181F80180819181A3
:1018F0004496FC01E080F180CE01CF96FC0180810E
:101900009181FC01848195810E947C1A0196FC01E1
:1019100080819181A281B381AC01BD01C801F70131
:10192000099581E089834EC0CE01CF96FC0180816C
:101930009181FC0181850E94861A982F81E0973061
:1019400009F080E08823F1F1CE01CF96FC0180817F
:101950009181FC018481958160E070E00E94831A8E
:10196000FC018081882F90E0988F8F8B2F89388D94
:101970008DAD9EAD865B9F4FFC0184819581B90141
:101980000E947D1AFC0180819181FC0120813181BE
:10199000285E3F4FF90120813181F9010995DC0171
:1019A000CB0188A399A3AAA3BBA389859A859E018D
:1019B000205E3F4F44E0B9010E94550681E08983D3
:1019C00001C000008981882309F468C08DAD9EADF7
:1019D000805B9F4FFC01908181E08927882351F132
:1019E0008DAD9EAD8C5A9F4FFC0180819181892BDA
:1019F000D1F08DAD9EAD805B9F4FFC01908181E069
:101A00008927882381F08DAD9EAD805B9F4F21E0BB
:101A1000FC0120838DAD9EAD8C5A9F4FFC018081CF
:101A20009181FC0109958DAD9EAD805B9F4F21E0BA
:101A3000FC0120838DAD9EAD8F5A9F4FFC0190819C
:101A400081E08927882351F187E38D8F8DAD9EAD8D
:101A5000865A9F4FFC018081918102969F8F8E8FC5
:101A6000CE014E966D8D0E94A51A8DAD9EAD8F5AFA
:101A70009F4F21E0FC0120838DAD9EAD8A5A9F4F80
:101A8000FC0180819181892B49F08DAD9EAD8A5AF0
:101A90009F4FFC0180819181FC01099589859A8580
:101AA000C05CDF4F0FB6F894DEBF0FBECDBFDF9135
:101AB000CF911F910F91FF90EF9008950F931F9377
:101AC000CF93DF93CDB7DEB72E970FB6F894DEBF76
:101AD0000FBECDBF9E878D878D859E858C5B9F4F6A
:101AE000FC0180819181FC01808191810896FC013B
:101AF000208131818D859E858C5B9F4FFC0180818B
:101B00009181F901099521E005970CF420E0222349
:101B100009F476C0CE0103960E94BA048D859E8595
:101B20008C5B9F4FFC0120813181CE01039644E004
:101B300050E0B9010E947F06982F81E0913009F0B2
:101B400080E0882309F453C08A850E94861A88237E
:101B500061F08A850E94861A182F8D859E850E94C5
:101B6000EE1A181711F081E001C080E0882319F007
:101B700000E010E03EC08B850E94861A882361F049
:101B80008B850E94861A182F8D859E850E94E91AE2
:101B9000181711F081E001C080E0882319F000E0FF
:101BA00010E027C09E012D5F3F4F8D859E85B901B6
:101BB0000E94A7089A8389838D859E858C5B9F4FA1
:101BC000FC012081318189819A81B9010E94C3047D
:101BD00089819A81892B59F009811A810115110592
:101BE00031F0C8010E94F405C8010E94A92401E057
:101BF00010E0CE0103960E940106012B09F46CCF80
:101C00002E960FB6F894DEBF0FBECDBFDF91CF91F9
:101C10001F910F910895CF92DF92EF92FF920F9351
:101C20001F93CF93DF937C016B0100E010E0C0E0D5
:101C3000D0E0F7018481958108171907B0F4B80145
:101C4000C7010E942924803211F428960BC00E94FB
:101C5000F823B6016C0F7D1F0E942E2390E00296A0
:101C6000C80FD91F0F5F1F4FE4CFDF91CF911F9196
:101C70000F91FF90EF90DF90CF900895FC01868147
:101C800097819C01295F3F4F37FF02C0295F3F4F7B
:101C900083E0359527958A95E1F784819581289F82
:101CA000A001299F500D389F500D112460E070E075
:101CB000878D90A10C947D3980917A038111FCCF9E
:101CC000413208F040E281E080937A038093790307
:101CD0009FEF9093780310927703940F909376037D
:101CE0008093550380915503660F682B60935503CD
:101CF00080915403813061F4109254038091550314
:101D00008093BB008091BC0083FDF8CF85EC01C0BF
:101D100085EE8093BC0080917A038130E1F380915D
:101D20007703841710F440917703E6E5F3E0A6EE1D
:101D3000B2E080E0841721F091919D938F5FFACFFC
:101D40001092E5028093E40208950F931F93CF93BE
:101D5000DF93182FC8E4D4E069818A819B810E94B7
:101D6000101A8A819B81DC01ED91FC910190F08138
:101D7000E02D612F09958A819B810E942D21888306
:101D800042E069818A819B810E945C0E8A819B81ED
:101D9000DC01ED91FC910284F385E02D099500E0D2
:101DA00010E0182F8A819B81DC01ED91FC91028467
:101DB000F385E02D0995802B912BDF91CF911F9119
:101DC0000F9108950F931F93CF93DF93082F162F32
:101DD000C8E4D4E069818A819B810E94101A8A81BB
:101DE0009B81DC01ED91FC910190F081E02D602F51
:101DF00009958A819B81DC01ED91FC910190F08134
:101E0000E02D612F09958A819B810E942D21888375
:101E1000DF91CF911F910F9108951F93CF93DF937F
:101E2000182FC8E4D4E069818A819B810E94101A2E
:101E30008A819B81DC01ED91FC910190F081E02D84
:101E4000612F09958A819B810E942D21888341E021
:101E500069818A819B810E945C0E8A819B81DC0161
:101E6000ED91FC910284F385E02D0995DF91CF91EE
:101E70001F91089590E0FC01EE5AF84F2491FC0167
:101E8000E25CF84F8491882399F090E0880F991FC5
:101E9000FC01EC5CF84FA591B491FC01E65DF84FB4
:101EA000859194918FB7F894EC91E22BEC938FBFCE
:101EB0000895FF920F931F93CF93DF93F82E162F61
:101EC000072FC8E4D4E069818A819B810E94101A9F
:101ED0008A819B81DC01ED91FC910190F081E02DE4
:101EE0006F2D09958A819B81DC01ED91FC91019018
:101EF000F081E02D602F09958A819B81DC01ED91B5
:101F0000FC910190F081E02D612F09958A819B81E0
:101F10000E942D218883DF91CF911F910F91FF9017
:101F200008958F929F92AF92BF92EF92FF920F937C
:101F30001F93CF93DF937C01EB0180E50E940D0F8F
:101F40008F5F880F90E09983888386E40E940D0F4D
:101F5000082F10E00F5F1F4F1D830C83A881B0E096
:101F600020E03FE24AE350E00E94EA356C507E4FA9
:101F70008F4F9F4F38EE832E33E0932EA12CB12C40
:101F8000A50194010E944437D8010E9466376C5025
:101F90007E4F8F4F9F4FA50194010E9444372A879F
:101FA0003B874C875D8781E50E94A50E8C01112738
:101FB00002C0000F111F9A95E2F70F5F1F4F1F839A
:101FC0000E83A881B0E020E03FE24AE350E00E94A7
:101FD000EA356C507E4F8F4F9F4FA50194010E94B0
:101FE0004437D8010E94EA356C507E4F8F4F9F4F87
:101FF000A50194010E9444372E873F87488B598B57
:1020000080E70E940D0F8F5F880F90E09B838A838B
:1020100081E70E94A50E9C01992702C0880F991F95
:102020003A95E2F7019699878887F7012381222361
:1020300031F02E813F81821B930B99878887AA817B
:10204000B0E020E03FE24AE350E00E94EA356C5005
:102050007E4F8F4F9F4F28EE822E23E0922EA12C91
:10206000B12CA50194010E944437A885B9850E942E
:10207000EA356C507E4F8F4F9F4FA50194010E940F
:1020800044372A8B3B8B4C8B5D8BDF91CF911F911B
:102090000F91FF90EF90BF90AF909F908F90089519
:1020A000CF93DF93EC0181E00E940D0F84FB992711
:1020B00090F9988383FB992790F99A8382FB99275B
:1020C00090F9998386FB992790F99B83881F88272D
:1020D000881F8C83DF91CF910895682F616080E025
:1020E0000E94E20E0E948C187093500460934F047B
:1020F00083E10E940D0F8770B9F480914C04909198
:102100004D04892BA9F30E948C1820914F04309123
:102110005004621B730B80914C0490914D04861700
:10212000970730F780E0089561E08BE00E94E20EAF
:1021300060E080E00E94E20E81E008952F923F92DD
:102140004F925F926F927F928F929F92AF92BF92C7
:10215000CF92DF92EF92FF920F931F93CF93DF9373
:10216000CDB7DEB76B970FB6F894DEBF0FBECDBF0D
:102170009B8F8A8F1B014A01D22E1987088737014E
:10218000A982DC0159962D913C915A972115310570
:1021900009F0FFC018968D919C91199768177907DF
:1021A0000CF0E7C11A968D919C911B97481759071F
:1021B0000CF0DFC1EC2DF0E0FB83EA839B0146E0ED
:1021C000C49E200D311D11243D872C871216130645
:1021D0000CF0CFC16A2D70E07B876A8783E0660FC1
:1021E000771F8A95E1F77F876E87CB01880D991D50
:1021F000181619060CF0BDC158968C91811104C0B7
:102200008FEA8D1508F4D394AA8DBB8DED91FC91C6
:1022100011970284F385E02DCD010995B5E0DB9E91
:10222000C0011124EC2DF0E0F98BE88B91012B5FBC
:102230003F4F3B8B2A8B3D822C822101AC014219FE
:1022400053095D8B4C8B7981672F70E07F8B6E8B90
:10225000C4010896998F888FEC89FD89E40DF51DDE
:10226000E65DFD4FD49054019F828E82D0FE16C051
:10227000AA8DBB8DED91FC91B1E0CB1209C02981F3
:10228000213031F40484F585E02D2885398519C085
:102290000684F785E02DE884F9841DC048855985BA
:1022A0004615570519F1AA8DBB8DED91FC91B1E052
:1022B000CB120DC02981213051F40484F585E02D25
:1022C0009301A501B2018A8D9B8D09950FC00684EB
:1022D000F785E02D73010A851B852A813B814E819C
:1022E0005F816C817D818A8D9B8D0995D6943FEFAE
:1022F000A31AB30A4E815F816E897F89460F571FEB
:102300005F834E83888D998DA816B90609F0AECFEC
:102310009FEF491A590AAC81BD81E889F989AE0F4E
:10232000BF1FBD83AC832A893B894216530609F03F
:1023300093CF488559854615570509F4F8C0AA8DED
:10234000BB8DED91FC91B1E0CB1211C02981213000
:1023500071F4B1016B5F7F4F0088F189E02D83013B
:1023600028E030E0A4018A8D9B8D0995E0C06C8542
:102370007D854A815B81641B750B0684F785E02DA2
:1023800073010E851F859A01A4018A8D9B8D099585
:10239000CEC0F9013496E491DE1AF90132968591A6
:1023A0009491B7E0DB9E800D911D1124F9012591D8
:1023B00034913B8B2A8BFC01259134915901FC010E
:1023C00032965490319634913C873296749031967F
:1023D000149141E04C1518F05981523068F0672D86
:1023E000072C000C770B7D836C83812F012E000C52
:1023F000990B9B838A8304C01B821A821D821C82D4
:10240000AA8DBB8DED91FC9111970284F385E02D8F
:10241000CD010995412CD12C612CF981EF2FF0E0F1
:10242000FF83EE832C2D30E03B872A87A401410FE8
:10243000511D17FD5A955F8B4E8BB101670D711DB4
:1024400077FC7A95798F688F7C85671608F06FC066
:10245000262D30E04A815B81420F531FAE81BF8140
:10246000A49FC001A59F900DB49F900D1124F4016D
:10247000E80FF91FF98BE88B842D712C4E895F8949
:10248000420F531F5D8B4C8B751408F04DC051E00B
:10249000580F5E87877041F4C5010196EA89FB8970
:1024A000EA0DFB1DD4905C01D7FE3AC061E0C61274
:1024B00016C07981713099F4AA8DBB8DED91FC9194
:1024C00011970484F585E02D288539854C895D892F
:1024D000688D798D670D711DCD01099521C08C81A5
:1024E0009D81870D911DEA85FB858E9FB0018F9F91
:1024F000700D9E9F700D1124620D731DAA8DBB8DF2
:10250000ED91FC9111970684F785E02DE884F9841C
:102510000E811F812A853B8548895989CD010995FE
:10252000DD0C73948E85B0CF450C63948DCFAA8D4E
:10253000BB8DED91FC9111970688F789E02DCD01B7
:102540006B960FB6F894DEBF0FBECDBFDF91CF9173
:102550001F910F91FF90EF90DF90CF90BF90AF90C1
:102560009F908F907F906F905F904F903F902F90B3
:1025700009946B960FB6F894DEBF0FBECDBFDF9106
:10258000CF911F910F91FF90EF90DF90CF90BF9070
:10259000AF909F908F907F906F905F904F903F9003
:1025A0002F9008950F931F93CF93DF9377FF04C06D
:1025B000260F371F60E070E0DC011496CD91DC91AE
:1025C0001597FB01E20FF31FCE17DF071CF49E01E6
:1025D000261B370B121613060CF046C0FA0157FDE6
:1025E0003796DF01E3E0B595A795EA95E1F7AC9F53
:1025F000F001AD9FF00DBC9FF00D11246E0F7F1FF9
:10260000DC015F96ED91FC919097E60FF71F477004
:10261000552781E090E001C0880F4A95EAF7482FDE
:102620000130110539F078F002301105E9F42E0F70
:102630003F1F13C02E0F3F1FE217F307A9F0808141
:10264000842B8193F9CF80952E0F3F1FE217F3075C
:1026500059F0908198239193F9CFE217F30721F075
:10266000808184278193F9CFDF91CF911F910F91C2
:102670000895EF92FF920F931F93CF93DF93EC0196
:1026800077FDA5C0EC80FD806E157F050CF09FC026
:1026900057FF04C0240F351F40E050E08E819F811A
:1026A000FA01E20FF31F8E179F071CF49C01241BF5
:1026B000350B121613060CF08AC0922F842F8695C4
:1026C000869586958E9DD0018F9DB00D11246A0F41
:1026D0007B1FAF8DB8A1A60FB71F4770B1F188E07F
:1026E000841B482F682F70E0FB01EE5DFD4FE491E5
:1026F000281798F4621B71092FEF30E002C035955E
:1027000027956A95E2F7E2230130110549F078F048
:102710000230110509F05BC00EC00130110519F43B
:102720008C91E82B0AC00130110508F049C0E095F2
:102730008C91E82302C08C91E827EC93941708F45D
:1027400046C02C813D81A20FB31FE92FE41BE83066
:10275000F8F00230110561F48E2F9C9190959C93B6
:102760002C813D81A20FB31F88508830B0F70FC075
:1027700081E00115110509F480E081959E2F8C936D
:102780002C813D81A20FB31F98509830C0F7E7709D
:10279000EE23E9F0F0E0E65EFD4FE4910130110533
:1027A00039F048F00230110591F48C91E82706C009
:1027B0008C91E82B03C0E0958C91E823EC9307C043
:1027C0000230110509F4B7CFAE0DBF1DBECFDF91AA
:1027D000CF911F910F91FF90EF900895FC018081A0
:1027E0009181009711F00C94F83060E070E0CB011B
:1027F00008950F931F93CF93DF93EC018881998104
:10280000009729F02A813B812617370788F48B012E
:102810006F5F7F4F0E94A938009761F0998388838A
:102820001B830A832C813D81232B11F4FC01108230
:1028300081E001C080E0DF91CF911F910F91089559
:10284000CF93DF93EC0188819981009711F00E946A
:102850002038198218821D821C821B821A82DF9105
:10286000CF910895EF92FF920F931F93CF93DF9331
:10287000EC018B016115710551F0CB010E94033110
:102880007C01BC01CE010E94F913811104C0CE016C
:102890000E94201407C0FD82EC82B80188819981D2
:1028A0000E94FC30CE01DF91CF911F910F91FF90DC
:1028B000EF900895FC01808191810C942038CF9293
:1028C000DF92EF92FF920F931F93CF93DF93CDB7D9
:1028D000DEB7A1970FB6F894DEBF0FBECDBF7C0167
:1028E000CB01BA01F7011182108213821282158284
:1028F000148242E0420F8E010F5F1F4F0E94D830BA
:102900006C01009771F0FC0101900020E9F731970C
:102910008F01081B190BB801C7010E94F91381111F
:1029200004C0C7010E94201408C0F7011583048366
:10293000B601808191810E948D39A1960FB6F894DD
:10294000DEBF0FBECDBFDF91CF911F910F91FF90E2
:10295000EF90DF90CF900895FC01538D448D252F8B
:1029600030E0842F90E0821B930B541710F0CF9629
:10297000089501970895FC01918D828D981761F05B
:10298000828DDF01A80FB11D5D968C91928D9F5FA6
:102990009F73928F90E008958FEF9FEF0895FC0151
:1029A000918D828D981731F0828DE80FF11D858D04
:1029B00090E008958FEF9FEF0895FC01918D228D97
:1029C000892F90E0805C9F4F821B91098F7399271C
:1029D00008958FE993E00E94DD1421E0892B09F42A
:1029E00020E0822F0895FC01848DDF01A80FB11D26
:1029F000A35ABF4F2C91848D90E001968F73992735
:102A0000848FA689B7892C93A089B1898C91837012
:102A100080648C93938D848D981306C00288F3890B
:102A2000E02D80818F7D80830895EF92FF920F9338
:102A30001F93CF93DF93EC0181E0888F9B8D8C8D6A
:102A4000981305C0E889F989808185FD26C0F62E96
:102A50000B8D10E00F5F1F4F0F731127E02E8C8D31
:102A6000E8120CC00FB607FCFACFE889F98980811B
:102A700085FFF5CFCE010E94F314F1CF8B8DFE01BF
:102A8000E80FF11DE35AFF4FF0829FB7F8940B8FC8
:102A9000EA89FB89808180620AC09FB7F894EE8939
:102AA000FF896083E889F9898081837080648083ED
:102AB0009FBF81E090E0DF91CF911F910F91FF9038
:102AC000EF900895CF93DF93EC01888D8823C9F0B0
:102AD000EA89FB89808185FD05C0A889B9898C9127
:102AE00086FD0FC00FB607FCF5CF808185FFF2CFC2
:102AF000A889B9898C9185FFEDCFCE010E94F3148E
:102B0000E7CFDF91CF91089580E090E0892B29F005
:102B10000E94E91481110C94000008953FB7F894C5
:102B200080914F0390915003A0915103B0915203B3
:102B300026B5A89B05C02F3F19F00196A11DB11D18
:102B40003FBFBA2FA92F982F8827820F911DA11D53
:102B5000B11DBC01CD0142E0660F771F881F991F90
:102B60004A95D1F7089585ED8093BC008091BC0013
:102B700084FDFCCF10927A03089540912703262FFD
:102B800030E0240F311D21323105DCF420917A032D
:102B90002430C9F4FC0180E090E0861758F43091AD
:102BA00027032191DC01A95FBC4FA30FB11D2C931A
:102BB0000196F3CF80912703680F6093270380E08D
:102BC000089581E0089582E0089508950895089594
:102BD000E091E5028091E402E81730F4F0E0EA5178
:102BE000FD4F808190E008958FEF9FEF08959091C1
:102BF000E5028091E402981750F4E92FF0E0EA51E1
:102C0000FD4F208130E09F5F9093E50202C02FEFDF
:102C10003FEFC90108958091E40290E02091E50220
:102C2000821B91090895CF92DF92EF92FF920F934A
:102C30001F93CF93DF937C01CB018A0120917B030B
:102C4000222389F0EB016B01C40ED51ECC15DD05E6
:102C500069F06991D701ED91FC910190F081E02D2F
:102C6000C7010995F3CF642F0E94BD15C801DF91FC
:102C7000CF911F910F91FF90EF90DF90CF9008952B
:102C8000CF93DF931F92CDB7DEB7698320917B038B
:102C90002223D1F020919E03203240F021E030E049
:102CA000FC013383228380E090E015C080917C0397
:102CB000E82FF0E0E358FC4F998190838F5F809379
:102CC0007C0380939E0305C061E0CE0101960E94C3
:102CD000BD1581E090E00F90DF91CF910895FC0148
:102CE00064897589868997890895FC01448B558B81
:102CF000668B778B40875187628773870895089525
:102D0000CF92DF92EF92FF92CF93DF93EC01E881B5
:102D1000F981008CF18DE02D0995288939894A893E
:102D20005B890E943C366B017C01688B798B8A8BB6
:102D30009B8B8C859D85AE85BF85BC01CD016F5F6A
:102D40007F4F8F4F9F4F6C877D878E879F87613026
:102D500071058105910551F00E94B4349B01AC01CD
:102D6000C701B6010E94A8366B017C01C701B601FC
:102D7000DF91CF91FF90EF90DF90CF900895FC010D
:102D8000108A118A128A138A148615861686178667
:102D90000895FC0195819F7071F00380F481E02D0E
:102DA00080819181009739F0DC01ED91FC910088E0
:102DB000F189E02D099460E070E0CB010895FC01F9
:102DC000178208950895CF93DF93EC018F818111CD
:102DD0000DC0E881F981048CF58DE02DCE010995B7
:102DE000688779878A879B8781E08F836885798563
:102DF0008A859B85DF91CF910895CF93DF93EC0176
:102E00008F8181110DC0E881F981008CF18DE02D59
:102E1000CE010995688779878A879B8781E08F83B0
:102E2000688579858A859B85DF91CF910895DC013E
:102E300015962C9115972F7030E062177307BCF42C
:102E4000660F771F1396ED91FC911497E60FF71F0D
:102E500080819181009759F0FC0122812F3039F453
:102E60000190F081E02D0088F189E02D099460E067
:102E700070E0CB01089580E008950E946F398F9231
:102E80009F92AF92BF92EF92FF920F931F93CF93B7
:102E9000DF93FB01EE0FFF1FEC01AB81BC81EA0F5A
:102EA000FB1FA081B1811097C9F01296EC91129787
:102EB000EF30A1F4ED91FC9111970488F589E02D94
:102EC000BA01A901CD01DF91CF911F910F91FF9020
:102ED000EF90BF90AF909F908F90099449015A0155
:102EE0007B018C0188E190E00E948837EC011E8212
:102EF000188619861A861B861C861D861E861F86C6
:102F0000188A198A1A8A1B8A81E08D8382E090E0F0
:102F10000E9488379C838B83FC01118210828FE092
:102F20008A8380EB91E0998388838C8A9D8AAE8A1C
:102F3000BF8AD801ED91FC910480F581E02DAE01AE
:102F4000B701C801DF91CF911F910F91FF90EF90D2
:102F5000BF90AF909F908F9009941F920F920FB6E1
:102F60000F9211242F933F934F935F936F937F930F
:102F70008F939F93AF93BF93EF93FF938FE993E06A
:102F80000E94F314FF91EF91BF91AF919F918F91A8
:102F90007F916F915F914F913F912F910F900FBE55
:102FA0000F901F9018951F920F920FB60F92112439
:102FB0002F938F939F93EF93FF93E091AF03F09143
:102FC000B0038081E091B503F091B60382FD12C099
:102FD00090818091B8038F5F8F732091B90382171E
:102FE00051F0E091B803F0E0E156FC4F958F8093EB
:102FF000B80301C08081FF91EF919F918F912F9134
:103000000F900FBE0F901F90189590E0FC01EA59A9
:10301000F84F2491FC01EE5AF84F3491FC01E25C28
:10302000F84FE491EE2309F43CC0222339F1233018
:1030300091F038F42130A9F0223001F584B58F7D6C
:1030400012C0273091F02830A1F02430B9F48091DB
:1030500080008F7D03C0809180008F7780938000F7
:103060000DC084B58F7784BD09C08091B0008F7783
:1030700003C08091B0008F7D8093B000F0E0EE0F30
:10308000FF1FE65DF84FA591B4919FB7F8946111C9
:1030900004C08C913095382302C0EC913E2B3C93B8
:1030A0009FBF08958F929F92AF92BF92CF92DF926F
:1030B000EF92FF926B017C010E948E154B015C0127
:1030C000C114D104E104F104F1F00E948E15DC0179
:1030D000CB0188199909AA09BB09883E9340A1052B
:1030E000B10570F321E0C21AD108E108F10888EEB9
:1030F000880E83E0981EA11CB11CC114D104E10408
:10310000F10419F7DDCFFF90EF90DF90CF90BF90E3
:10311000AF909F908F9008952FB7F89460914B03D4
:1031200070914C0380914D0390914E032FBF0895F1
:103130001F920F920FB60F9211242F933F938F93EC
:103140009F93AF93BF9380914B0390914C03A091B9
:103150004D03B0914E0330914A0323E0230F2D37E6
:1031600020F40196A11DB11D05C026E8230F02968B
:10317000A11DB11D20934A0380934B0390934C03F0
:10318000A0934D03B0934E0380914F039091500351
:10319000A0915103B09152030196A11DB11D8093DE
:1031A0004F0390935003A0935103B0935203BF91E8
:1031B000AF919F918F913F912F910F900FBE0F90E4
:1031C0001F9018951F920F920FB60F9211242F93F4
:1031D0003F934F935F936F937F938F939F93AF939F
:1031E000BF93EF93FF938091B900887F803609F4F5
:1031F0009CC068F5883209F45BC090F4803109F412
:1032000054C038F4882309F4F6C0883009F44DC05E
:10321000F6C0883109F44CC0803209F45DC0EFC0BB
:10322000803409F468C048F4803309F455C0883309
:1032300009F0E5C080937803D8C0803509F44FC009
:10324000883509F45DC0883409F0D9C0D6C0883902
:1032500009F4C7C0A8F4883709F467C038F4883681
:1032600009F463C0803709F460C0C9C0883809F424
:10327000B8C0803909F45FC0803809F0C0C05BC0B5
:10328000803B09F486C038F4803A09F466C0883A75
:1032900009F47FC0B4C0803C09F4A7C0883C09F49D
:1032A000A4C0883B09F48AC0AAC08091550310C00D
:1032B0009091770380917603981770F5E0917703EA
:1032C00081E08E0F80937703F0E0EA5AFC4F808113
:1032D0008093BB0085EC86C0809378038EC0E0911C
:1032E000770381E08E0F809377038091BB00F0E03D
:1032F000EA5AFC4F808390917703809176036EC0E9
:10330000E091770381E08E0F809377038091BB007B
:10331000F0E0EA5AFC4F80838091790381116DC0FF
:1033200081E08093540384EA61C083E080937A0350
:1033300010924903CFCF80914903803208F051C0E9
:10334000E091490381E08E0F809349038091BB0097
:10335000F0E0E75DFC4F8083BDCF85EC8093BC003F
:1033600010927A0380914903803230F4E09149034E
:10337000F0E0E75DFC4F10826091490370E0E0915E
:10338000F201F091F30189E293E00995109249036B
:1033900036C084E080937A031092280310922703AA
:1033A000E091F401F091F5010995809127038111D5
:1033B00005C081E08093270310920703E091280362
:1033C00081E08E0F80932803F0E0E95FFC4F80815D
:1033D0008093BB009091280380912703981708F4ED
:1033E00079CF85E88093BC000AC085EC8093BC004F
:1033F00010927A0304C0109278030E94B315FF91D3
:10340000EF91BF91AF919F918F917F916F915F915C
:103410004F913F912F910F900FBE0F901F901895D5
:1034200081E080937B0360939D0310927C03109254
:103430009E030895EF92FF920F931F93CF93DF9314
:10344000EC0182E691E0998388838B819C81892BB2
:1034500009F100E010E08D818F7090E008171907E6
:10346000CCF4EB81FC81C801880F991FE80FF91F8C
:10347000E080F180E114F10451F0F70182818F3096
:1034800031F4C7010E941A1AC7010E9420380F5F49
:103490001F4FE1CFDF91CF911F910F91FF90EF90E0
:1034A0000895EF92FF920F931F93CF93DF93FC0148
:1034B000258130E062177307C4F48A01660F771F15
:1034C000C381D481C60FD71FE880F980E114F104CD
:1034D00051F0F70182818F3031F4C7010E941A1A2E
:1034E000C7010E94203819830883DF91CF911F9173
:1034F0000F91FF90EF9008950895660F771F860F44
:10350000971F08950895860F971F08950895FC0149
:10351000608308950F931F93CF93DF93EC018B018A
:1035200088819981803A2FE0920748F40E94D4352F
:10353000F801808388819981019699838883C801E5
:10354000DF91CF911F910F910895CF93DF93EC01FD
:1035500088819981803A2FE0920738F40E94DC3507
:1035600088819981019699838883DF91CF9108950D
:1035700020E030E04FE45EE420FD03C050937C0087
:1035800002C040937C0080917A00806480937A002E
:1035900080917A0086FDFCCF90917800809179002F
:1035A000892790910603892780FB879587F9809367
:1035B000060390917A008370880F9068892B80931E
:1035C0007A002F5F3F4F24313105B1F68091060319
:1035D0000895895B9F4FFC01808108958A5B9F4F0E
:1035E000FC0180810895CF93DF93EC0160EF71E0DF
:1035F0000E946E24CE01DF91CF9108950895FC01C1
:103600006370668B8481958126813781613039F0C2
:10361000633029F091878087338722870895318727
:1036200020879387828708956F927F928F929F92CF
:10363000AF92BF92CF92DF92EF92FF920F931F93C0
:10364000CF93DF93EC014B015A0169013801E88106
:10365000F9810284F385E02D0995E881F9810288DA
:10366000F389E02D87019601A501B401CE010995EA
:10367000A501460D571D41505109E881F981028885
:10368000F389E02D9601B401CE010995E881F98115
:103690000088F189E02D9301A501B401CE010995BF
:1036A000C80CD91CB60161507109E881F981008804
:1036B000F189E02D9301A501CE010995E881F981F9
:1036C0000688F789E02DCE01DF91CF911F910F91F0
:1036D000FF90EF90DF90CF90BF90AF909F908F9032
:1036E0007F906F9009948F929F92AF92BF92CF92EA
:1036F000DF92EF92FF920F931F93CF93DF934C01D2
:103700006B015A01E901DC01ED91FC91621773072D
:1037100081F40417150724F48B2D5801042F182F5A
:103720000A191B0998012F5F3F4F048CF58DE02D7E
:1037300012C04017510709F52617370724F48D2DBD
:103740006901C62FD82F9E012C193D092F5F3F4FCD
:10375000068CF78DE02D8701A501B601C4010995FE
:10376000DF91CF911F910F91FF90EF90DF90CF905D
:10377000BF90AF909F908F9008950284F385E02DC5
:103780000995D401ED91FC910488F589E02D9E0105
:10379000A501B601C4010995D401ED91FC910688FB
:1037A000F789E02DC401DF91CF911F910F91FF9018
:1037B000EF90DF90CF90BF90AF909F908F90099443
:1037C000EF92FF920F931F93DC011A960D911C91BB
:1037D0001B9718962D913C911997ED91FC9100A0A3
:1037E000F1A1E02D7B0140E050E060E070E0099540
:1037F0001F910F91FF90EF9008954F925F926F92FB
:103800007F928F929F92AF92BF92CF92DF92EF9270
:10381000FF920F931F93CF93DF936C012B015A01FB
:1038200039014801DC01ED91FC910284F385E02D22
:103830000995E201640C751CD601ED91FC91C61549
:10384000D7055CF40088F189E02D87019401A5017A
:10385000BE01C60109952196EFCF0688F789E02DB4
:10386000C601DF91CF911F910F91FF90EF90DF90F4
:10387000CF90BF90AF909F908F907F906F905F9010
:103880004F9009948F929F92AF92BF92CF92DF9206
:10389000EF92FF920F931F93CF93DF93EC015B01A5
:1038A0004A016901E881F9810284F385E02D0995D7
:1038B00095012C0D3D1D21503109E881F9810488C5
:1038C000F589E02D78018401A401B501CE010995A7
:1038D000E881F9810688F789E02DCE01DF91CF914B
:1038E0001F910F91FF90EF90DF90CF90BF90AF901E
:1038F0009F908F9009948F929F92AF92BF92CF9298
:10390000DF92EF92FF920F931F93CF93DF93EC011F
:103910005B014A0169017801E881F9810284F3853C
:10392000E02D0995C80CD91C860101501109E881C8
:10393000F9810488F589E02D9501A401B501CE0136
:103940000995E881F9810688F789E02DCE01DF919C
:10395000CF911F910F91FF90EF90DF90CF90BF908C
:10396000AF909F908F900994EF92FF920F931F93C7
:10397000DC01ED91FC9100A0F1A1E02D09951F91D2
:103980000F91FF90EF9008950F931F93DC01ED913D
:10399000FC91068CF78DE02D09951F910F910895EC
:1039A0000F931F93DC01ED91FC91048CF58DE02DBC
:1039B00009951F910F910895DC01ED91FC91008410
:1039C000F185E02D09942F923F924F925F926F9272
:1039D0007F928F929F92AF92BF92CF92DF92EF929F
:1039E000FF920F931F93CF93DF9300D000D000D0AE
:1039F000CDB7DEB72C017E836D836A015901C80102
:103A0000FC82EB824801841A950A97FE03C09194C8
:103A10008194910835012D813E81621A730A77FEE7
:103A200003C0719461947108681479045CF43A2DB0
:103A30002B2D5C01832F922F3D812E81DE82CD8242
:103A4000C32ED22EAD81BE81AA16BB065CF43C2DDE
:103A50002D2D6C01832F922F3D812E81BE82AD8250
:103A6000A32EB22E85012D813E81021B130B1C015A
:103A70002C183D0837FE03C0319421943108780199
:103A800017FF03C03FEFE31AF30AF594E794C81653
:103A9000D9062CF08FEF9FEF9A83898304C0A1E0B1
:103AA000B0E0BA83A9832D813E81A216B30624F12A
:103AB000D201ED91FC910484F585E02D2B813C81B0
:103AC0006814790424F44D815E81B60103C0A60117
:103AD0006D817E81C2010995E218F308F7FE06C0E8
:103AE00029813A81C20ED31EE00EF11E8D819E8186
:103AF00001969E838D83D7CF26960FB6F894DEBFAE
:103B00000FBECDBFDF91CF911F910F91FF90EF902E
:103B1000DF90CF90BF90AF909F908F907F906F90ED
:103B20005F904F903F902F90089580E090E008952F
:103B30008F929F92AF92CF92EF92FF920F931F932B
:103B4000CF93DF93EC01262F898D9A8D009709F092
:103B500042C06A3059F41D861C862D898E859F854A
:103B600038E0239F800D911D112443C06D3009F46E
:103B7000AAC08F898823C9F03C898C859D8546E041
:103B8000349F800D911D1124488559854817590788
:103B900064F41D861C863D898E859F8548E0349F90
:103BA000800D911D11249F878E87EA88FB880889E4
:103BB00019894E855F856C857D85AD88CC88CE0161
:103BC0000E949E102C898C859D8536E0239F800D58
:103BD000911D11243EC06A3079F41D861C862D8902
:103BE000FC013896E4918E859F852E9F800D911D56
:103BF00011249F878E8767C06D3009F464C0FC0173
:103C000034963491631708F45EC03296E491E61757
:103C100008F459C0462F431B342FFC01329685907F
:103C2000949047E0349F800C911C1124F40132964B
:103C300034913196E491332311F0E1110DC0F40178
:103C40003496E4912C898C859D85E29F800D911D91
:103C500011249D878C8737C0F401359644915F8984
:103C6000552319F15C89E32FF0E0E40FF11D47FDC6
:103C7000FA955E9FB0015F9F700D11244C855D85A4
:103C8000460F571F688579856417750774F41D867C
:103C90001C863D89FC013896E4918E859F853E9F68
:103CA000800D911D11249F878E87EA88FB880889E3
:103CB00019894E855F856C857D85AD88CC88CE0160
:103CC0000E949E10BCCF81E090E0DF91CF911F91C8
:103CD0000F91FF90EF90CF90AF909F908F900895AD
:103CE000AF92BF92DF92EF92FF920F931F93CF9309
:103CF000DF93EC017B018B015C0184E0A80EB11C19
:103D0000F801D1908F01CE010E94D435D81621F050
:103D10006D2DCE010E94DC352196CA15DB0581F799
:103D2000C701DF91CF911F910F91FF90EF90DF902E
:103D3000BF90AF9008958EBD00000DB407FEFDCF7B
:103D40008EB508958CBD9DBD0895CF92DF92EF9200
:103D5000FF920F931F93CF93DF93EB017B0124E03E
:103D6000E20EF11C8B016C01C61AD70AC601800F46
:103D7000911F0E94D435F80181938F01EE15FF0544
:103D8000A9F7CE01DF91CF911F910F91FF90EF9096
:103D9000DF90CF9008951F920F920FB60F921124CB
:103DA0002F933F934F935F936F937F938F939F9343
:103DB000AF93BF93EF93FF93809170008D7F8093BB
:103DC0007000789480915303811109C081E0809341
:103DD00053038FEF94E00E945E0D10925303809185
:103DE0007000826080937000FF91EF91BF91AF915E
:103DF0009F918F917F916F915F914F913F912F9103
:103E00000F900FBE0F901F901895DF92EF92FF92C8
:103E10000F931F93CF93DF9300D000D000D0CDB786
:103E2000DEB77B018A0163E977E0CE0101960E944B
:103E30006524BE016F5F7F4FC7010E947320D82E9B
:103E4000CE0101960E945A14DD20C1F0C8010E94E3
:103E5000EE13609302027093030280930402909326
:103E60000502C8010E94EE1369837A838B839C83C9
:103E7000BE016F5F7F4F80E090E02AC060E977E08D
:103E8000CE0101960E946524BE016F5F7F4FC7017E
:103E90000E947320D82ECE0101960E945A14DD2074
:103EA000D1F0C8010E94EE136093040170930501E4
:103EB0008093060190930701C8010E94EE13698365
:103EC0007A838B839C83BE016F5F7F4F84E090E099
:103ED0000E94701EF7C06DE877E0CE0101960E9447
:103EE0006524BE016F5F7F4FC7010E947320D82EEB
:103EF000CE0101960E945A14DD2081F0C8010E9473
:103F0000EE13C8010E94EE1369837A838B839C832E
:103F1000BE016F5F7F4F88E090E0DACF6AE877E01C
:103F2000CE0101960E946524BE016F5F7F4FC701DD
:103F30000E947320D82ECE0101960E945A14DD20D3
:103F4000C1F0C8010E94EE136093FA017093FB0167
:103F50008093FC019093FD01C8010E94EE136983D8
:103F60007A838B839C83BE016F5F7F4F8CE090E0F0
:103F7000AFCF67E877E0CE0101960E946524BE01CD
:103F80006F5F7F4FC7010E947320D82ECE0101962C
:103F90000E945A14DD20C1F0C8010E94EE13609304
:103FA0000001709301018093020190930301C80105
:103FB0000E94EE1369837A838B839C83BE016F5FBB
:103FC0007F4F80E190E084CF64E877E0CE010196F6
:103FD0000E946524BE016F5F7F4FC7010E9473205E
:103FE000D82ECE0101960E945A14DD20C1F0C801DE
:103FF0000E94EE136093F6017093F7018093F8012D
:104000009093F901C8010E94EE1369837A838B8330
:104010009C83BE016F5F7F4F84E190E059CF62E8DF
:1040200077E0CE0101960E946524BE016F5F7F4F4D
:10403000C7010E947320182FCE0101960E945A14C6
:10404000111140C06DE777E0CE0101960E94652412
:10405000BE016F5F7F4FC7010E947320182FCE01F2
:1040600001960E945A14112391F0809106029091BA
:104070000702A0910802B0910902B05880930A0289
:1040800090930B02A0930C02B0930D021BC06AE741
:1040900077E0CE0101960E946524BE016F5F7F4FDD
:1040A000C7010E947320182FCE0101960E945A1456
:1040B000112351F010920A0210920B0210920C027E
:1040C00010920D0281E001C080E026960FB6F894B0
:1040D000DEBF0FBECDBFDF91CF911F910F91FF903B
:1040E000EF90DF900895FC0124813581FB0144812C
:1040F00055812417350721F5FC0180819181FB0151
:1041000060817181009719F061157105A1F4611545
:10411000710549F0232BB1F0FB01808190E091956E
:10412000819591090AC0009769F0232B59F0FC0191
:10413000808190E002C00E94843921E0892B19F02F
:1041400020E001C021E0822F08956F927F928F922C
:104150009F92AF92BF92CF92DF92EF92FF920F9316
:104160001F93CF93DF93EC018B013A0169010E9409
:104170008C184B015C01780100E010E00615170572
:10418000A4F50E948C18AB01BC01481959096A09B1
:104190007B09F60180819181092E000CAA0BBB0BD3
:1041A00084179507A607B70750F0E881F9810084C6
:1041B000F185E02DCE0109951816190614F7E8814E
:1041C000F9810084F185E02DCE010995892B69F0F4
:1041D000E881F9810284F385E02DCE010995F7018C
:1041E00081937F010F5F1F4FC9CF0E948C18AB01D5
:1041F000BC01481959096A097B09F601808191813E
:10420000841B950B91838083C801DF91CF911F910F
:104210000F91FF90EF90DF90CF90BF90AF909F9065
:104220008F907F906F900895CF93DF931F92CDB7BB
:10423000DEB79B01198241E050E0BE016F5F7F4F06
:104240000E94A520019719F4898190E002C08FEFA8
:104250009FEF0F90DF91CF91089530919E033132FF
:1042600008F04BC080917A038111FCCF90919D039F
:1042700022E020937A0321E0209379032FEF20930B
:1042800078031092770330937603EDE7F3E0A6E529
:10429000B3E020E0321721F041914D932F5FFACF28
:1042A0001092550320915503990F922B909355032B
:1042B00090915403913061F41092540390915503FE
:1042C0009093BB009091BC0093FDF8CF95EC01C09A
:1042D00095EE9093BC0090917A039230E1F3909127
:1042E00078039F3F79F080917803803241F080918C
:1042F0007803803331F084E005C081E003C082E0C0
:1043000001C083E010927C0310929E0310927B0305
:104310000895BF92CF92DF92EF92FF920F931F9377
:10432000CF93DF93EC01B62E072F142F8D8D9E8D2A
:10433000009709F449C069A10E94101A8D8D9E8DC5
:10434000DC01ED91FC910190F081E02D60E0099598
:10435000CB2CD02EF12E01E010E08D8D9E8DFF2014
:1043600041F10032110598F00E942D2169A18D8D37
:104370009E8D0E94101A8D8D9E8DDC01ED91FC9119
:104380000190F081E02D60E0099501E010E08D8D55
:104390009E8DF6016491DC01ED91FC910190F0811C
:1043A000E02D09950F5F1F4FFA94BFEFCB1ADB0A80
:1043B000D4CFDF91CF911F910F91FF90EF90DF90BD
:1043C000CF90BF900C942D21EDA5FEA590818BA9D7
:1043D000809589238083E62EF72E112379F1F7014A
:1043E00084912B8D3C8D232B39F00E949B1E115004
:1043F000EFEFEE1AFE0AF1CF28E030E040E8E9A541
:10440000FAA599A9582F542319F05081952B03C070
:104410005081909595239083EBA5FCA550819AA996
:10442000952B9083EBA5FCA550819AA99095952397
:10443000908346952150310911F7D9CFDF91CF9163
:104440001F910F91FF90EF90DF90CF90BF90089554
:10445000CF92DF92EF92FF920F931F93CF93DF9350
:10446000EC018D8D9E8D892BB1F02DA93EA94FA910
:1044700058AD60E074E284EF90E00E944437DA01C6
:10448000C9014097A109B109B695A7959795879558
:104490008093B8000FC08B8D9C8D892B21F08EAD41
:1044A0009FAD0E94A21EEFA5F8A990818CA98095CE
:1044B0008923808345E067E179E0CE010E9489216C
:1044C0006C816150CE010E94EE072E813F81C901AF
:1044D000079697FD079653E0959587955A95E1F7CE
:1044E0002C813D81829F7001839FF00C929FF00C84
:1044F00011240F8D18A18D8D9E8DE00EF11E009759
:1045000009F440C069A10E94101A8D8D9E8DDC01B6
:10451000ED91FC910190F081E02D60E40995CC24AF
:10452000C394D12C8D8D9E8DE016F10641F1B0E241
:10453000CB16D104A0F00E942D2169A18D8D9E8DF6
:104540000E94101A8D8D9E8DDC01ED91FC910190E1
:10455000F081E02D60E40995CC24C394D12C8D8D9D
:104560009E8DF80161918F01DC01ED91FC9101902C
:10457000F081E02D0995BFEFCB1ADB0AD3CF0E9463
:104580002D2135C0EDA5FEA590818BA9892B8083B7
:104590000E151F0561F1F80181918F012B8D3C8D66
:1045A000232B19F00E949B1EF3CF28E030E040E857
:1045B000E9A5FAA599A9582F542319F05081952BF4
:1045C00003C05081909595239083EBA5FCA5508165
:1045D0009AA9952B9083EBA5FCA550819AA990955B
:1045E0009523908346952150310911F7D1CF8D8DB8
:1045F0009E8D892BB1F029AD3AAD4BAD5CAD60E03D
:1046000074E284EF90E00E944437DA01C9014097D8
:10461000A109B109B695A795979587958093B8009C
:1046200014C0EFA5F8A990818CA9892B80838B8D6C
:104630009C8D892B51F0DF91CF911F910F91FF90AD
:10464000EF90DF90CF900C944C08DF91CF911F91A9
:104650000F91FF90EF90DF90CF9008952F923F92AF
:104660004F925F926F927F928F929F92AF92BF9282
:10467000CF92DF92EF92FF920F931F93CF93DF932E
:10468000CDB7DEB72A970FB6F894DEBF0FBECDBF09
:104690007C015B01FC018491319624913196E49177
:1046A000F82FFF775F2E422F4F7330E0B90196E06D
:1046B000759567959A95E1F7962F91709A8790E096
:1046C000880F892F881F990B880F991F220F232F7E
:1046D000221F330B282B822F220F990BDC01AA5C9F
:1046E000BE4F4C9000E010E0712C612C1986242EF6
:1046F000312CAF2FB0E0BA83A9839C012E5C3E4FD2
:104700003C832B83DC01A25DBE4FBE83AD832E2F85
:1047100030E038872F83021513050CF04FC0C12CF1
:10472000D12C8F809884800E911E89819A81C81621
:10473000D9060CF040C09985911129C0772021F04D
:10474000AA85B1E0AB27AA87EB81FC816081862D29
:104750000E942437E82FF0E03396EE0DFF1DE49120
:10476000AD81BE812C91F0E0499EC001112402C0B0
:10477000F595E7958A95E2F7B22FBE23B987B11177
:1047800003C02987712C02C0772473946394E98550
:10479000E150E987FA85FF2351F021E030E0A401E0
:1047A000B6016A0D7B1D86E594E00E9437052FEF68
:1047B000C21AD20ABACF0F5F1F4FADCF852D2A96EE
:1047C0000FB6F894DEBF0FBECDBFDF91CF911F9122
:1047D0000F91FF90EF90DF90CF90BF90AF909F90A0
:1047E0008F907F906F905F904F903F902F900895A3
:1047F000E6E9F7E09491E7E9F7E04491682F082EA5
:10480000000C770B292F30E062177307FCF09F5FD5
:104810008F5FE8E9F7E050E02FEF290F022E000C40
:10482000330B4217530794F0981303C0CF0101963E
:1048300008952491211103C031969F5FEDCF2491FB
:1048400030E02C5F3F4FE20FF31FF7CF80E090E0A6
:104850000895FC01248135816217730748F4808133
:104860009181009729F0FC01E60FF71F80810895E0
:1048700080E008950895CF92DF92EF92FF920F9318
:104880001F93CF93DF936C017A018B01C0E0D0E0DE
:10489000CE15DF0581F0D8016D918D01D601ED9126
:1048A000FC910190F081E02DC6010995892B11F052
:1048B0002196EECF7E01C701DF91CF911F910F911D
:1048C000FF90EF90DF90CF900895FC01118210824D
:1048D00013821282158214820C943214EF92FF928A
:1048E0000F931F93CF93DF93EC01198218821B82E1
:1048F0001A821D821C826115710521F18B01FB0159
:1049000001900020E9F731977F01E61AF70AB70115
:104910000E94F913811109C0CE01DF91CF911F913F
:104920000F91FF90EF900C942014FD82EC82B8015F
:1049300088819981DF91CF911F910F91FF90EF9026
:104940000C948D39DF91CF911F910F91FF90EF90D3
:1049500008950C9420380C948837CF93DF93CDB70B
:10496000DEB7A1970FB6F894DEBF0FBECDBF789427
:1049700084B5826084BD84B5816084BD85B5826064
:1049800085BD85B5816085BD80916E008160809315
:104990006E0010928100809181008260809381007E
:1049A000809181008160809381008091800081608E
:1049B000809380008091B10084608093B1008091E9
:1049C000B00081608093B00080917A008460809311
:1049D0007A0080917A00826080937A0080917A00D8
:1049E000816080937A0080917A00806880937A0059
:1049F0001092C100E091AF03F091B00382E0808398
:104A0000E091AB03F091AC031082E091AD03F09123
:104A1000AE0380E180831092B703E091B303F0917D
:104A2000B40386E08083E091B103F091B20380810A
:104A300080618083E091B103F091B203808188604E
:104A40008083E091B103F091B2038081806880831C
:104A5000E091B103F091B20380818F7D808300915A
:104A60004B0510914C05E0904905F0904A050E1554
:104A70001F0591F5C801089681382FE3920718F4B5
:104A8000880F991F02C08FEF9FEF0E9488376C013B
:104A900080914D0590914E05DC01F60120E030E05B
:104AA0000217130739F04D915D91419351932F5F98
:104AB0003F4FF6CF1E141F0414F40E942038D092EA
:104AC0004E05C0924D058091490590914A05089682
:104AD00090934A058093490580914B0590914C0530
:104AE00020914D0530914E059C01220F331FE0911E
:104AF0004D05F0914E05E20FF31F27EE34E03183B0
:104B00002083019690934C0580934B0588E190E0BB
:104B100090935A05809359058FE993E0909344054B
:104B2000809343050FEF14E00E94B81AD8018D93CB
:104B30008D01B5E00F301B07B9F7809159059091B1
:104B40005A05988F8F8B65E475E0CE0147960E94D9
:104B50008A1A66E475E0CE0147960E948A1A80910F
:104B600045058A3F18F08FEF809345051D8EBE01E5
:104B7000635E7F4FCE0147960E948A1A8D8D8733E0
:104B800019F481E0809350058091450581508E3F56
:104B900010F00C942A2E8091460581508E3F10F023
:104BA0000C94392E82E08093B00086E08093B100AF
:104BB0008DE78093B30080917000826080937000D5
:104BC0008091750490917604892B11F520915C04F5
:104BD00030915D04C901079697FD079673E095959E
:104BE00087957A95E1F720915A0430915B04FC0196
:104BF000E29FC001E39F900DF29F900D11240E944F
:104C000088379093760480937504892B09F41AC130
:104C100086E594E00E943E0E82E0809378048091C5
:104C2000730490917404892B11F40C94522E8CE32C
:104C3000809377041092E5021092E40210927C03B4
:104C400010929E0310927A0381E080937903109270
:104C5000540361E082E10E94051861E083E10E9453
:104C600005188091B9008E7F8093B9008091B900BA
:104C70008D7F8093B90088E48093B80085E48093A9
:104C8000BC0085EE95E19093F5018093F40186EEEA
:104C900095E19093F3018093F20180917E0487FD6A
:104CA0001DC00E943A0F61E080917E040E940518A9
:104CB00061E070E080E090E00E94521860E0809136
:104CC0007E040E9405186AE070E080E090E00E9497
:104CD000521861E080917E040E940518809173044F
:104CE00090917404892B11F40C940B2F20918B0458
:104CF00030918C0440918D0450918E0460E074E2F8
:104D000084EF90E00E944437DA01C9014097A1097D
:104D1000B109B695A795979587958093B80044E01B
:104D20006BEA71E086E594E00E94892160915C0461
:104D3000615086E594E00E94EE0744E067EA71E086
:104D400086E594E00E94892180917804813011F0F9
:104D50000C94232F60E186E594E00E94EE0744E086
:104D600063EA71E086E594E00E9489218FE88093F0
:104D7000930480915A0490915B048038910511F05E
:104D80000C94292F80915C0490915D0480349105EE
:104D900011F00C943B2F80917804813011F00C9429
:104DA000262F8FE98093930412E16AED86E594E063
:104DB0000E94EE07612F86E594E00E94EE0761E80D
:104DC00086E594E00E94EE076091930486E594E006
:104DD0000E94EE0769ED86E594E00E94EE0780915F
:104DE0007804813011F00C943E2F62E286E594E065
:104DF0000E94EE0746E06DE971E086E594E00E94CE
:104E000089218091730490917404892B11F40C947E
:104E1000412F20918F043091900440919104509142
:104E2000920460E074E284EF90E00E944437DA017B
:104E3000C9014097A109B109B695A795979587959E
:104E40008093B80086E594E00E943E0E62E086E51D
:104E500094E00E94FF1A6FE270E08FEA91E00E94F6
:104E60002E2386E594E00E94282260ED77E080E022
:104E700090E00E94521885E090E0A0E0B0E08093BE
:104E8000400490934104A0934204B093430462E031
:104E900072E080E090E00E94A51EFC01808191817B
:104EA000A281B3818093020290930302A093040233
:104EB000B093050264E071E084E090E00E94A51EDA
:104EC000FC0180819181A281B38180930401909340
:104ED0000501A0930601B093070164E071E088E04A
:104EE00090E00E94A51E6AEF71E08CE090E00E94C5
:104EF000A51EFC0180819181A281B3818093FA017A
:104F00009093FB01A093FC01B093FD0160E071E080
:104F100080E190E00E94A51EFC0180819181A28128
:104F2000B3818093000190930101A0930201B0939B
:104F3000030166EF71E084E190E00E94A51EFC0190
:104F400080819181A281B3818093F6019093F701D2
:104F5000A093F801B093F901C0900401D09005012D
:104F6000E0900601F09007012DEB37E346E855E3AA
:104F7000C701B6010E94AD3487FD98C720E030E03C
:104F800048EC52E4C701B6010E941A3718160CF417
:104F90008DC7A7019601C701B6010E941F37811175
:104FA00085C7E894F7F82FEF3FEF4FE75FE7C701BA
:104FB000B6010E941F3781110BC02FEF3FEF4FE763
:104FC0005FE7C701B6010E94AD3418160CF46EC736
:104FD0008CE08093B80060E38AE80E94E20E80E3F0
:104FE0008093490484E690E090934D0480934C04B0
:104FF00080EC0E940D0F8E3ED1F060EF71E0CE018B
:1050000001960E946E2464E172E0CE0101960E9436
:10501000321460E170E0CE0101960E940B0E86E52D
:1050200094E00E9428228DE00E943A0F2EC489E865
:105030000E940D0F682F616089E80E94E20E60E017
:1050400088E80E94E20E61E080E80E94E20E61E0E2
:105050008FEF0E94E20E60E080E00E94E20E81E9A4
:105060000E940D0F8093510461E080E00E94E20EE7
:1050700060E08FEF0E94E20E60E080E80E94E20EA6
:1050800080E60E940D0F682F626180E60E94E20EAA
:1050900060E270E084E40E94590F6FEF81E00E94AB
:1050A000E20E61E080E80E94E20E61E08FEF0E9474
:1050B000E20E60E080E00E94E20E66E08FEF0E9468
:1050C000E20E83E80E940D0F682F646083E80E945F
:1050D000E20E67E08FEF0E94E20E61E081E80E943D
:1050E000E20E61E080E80E94E20E6BE684E90E9435
:1050F000E20E60E083E80E94E20E0E948C1870933A
:10510000500460934F0483E80E940D0F811116C074
:1051100080914C0490914D04892BA9F30E948C1826
:1051200020914F0430915004621B730B80914C040A
:1051300090914D048617970730F75FCF61E083E8C1
:105140000E94E20E82E90E940D0FD82EF82FFF7701
:10515000EF2E60E081E80E94E20E66E08FEF0E9491
:10516000E20E83E80E940D0F682F6B7F83E80E9498
:10517000E20E61E08FEF0E94E20E61E080E00E94AB
:10518000E20E60E08FEF0E94E20E60E080E80E9495
:10519000E20E6091490480914A0490914B040E9470
:1051A000101A80914A0490914B04DC01ED91FC911E
:1051B0000190F081E02D60EB099580914A04909177
:1051C0004B040E942D218093480446E060914904DD
:1051D00080914A0490914B040E945C0E8E01095EFE
:1051E0001F4F5801B7E0FB2EFA94FF2079F0809111
:1051F0004A0490914B04DC01ED91FC910284F3850B
:10520000E02D0995F50181935F01EECF61E08FEF0D
:105210000E94E20E60E08FE40E94E20E6CE28EE4F7
:105220000E94E20E60E08FEF0E94E20E64EB86EBDC
:105230000E94E20ED7FE02C06CE001C060E090E088
:1052400080E041E050E0282F269526952695782F7E
:105250007770E7E1F0E0EC0FFD1FE20FF11D86171C
:1052600010F0E9120AC09A0101C0220F7A95EAF7FC
:10527000209530812323208309C0208130E002C0A3
:10528000359527957A95E2F720FD9F5F8F5F8033F4
:10529000D1F66091490480914A0490914B040E9498
:1052A000101A80914A0490914B04DC01ED91FC911D
:1052B0000190F081E02D60EB0995A7E0FA2EFA94B9
:1052C00080914A0490914B04FF2059F0F8016191BC
:1052D0008F01DC01ED91FC910190F081E02D0995A9
:1052E000EECF0E942D218093480461E08FEF0E9451
:1052F000E20E60E080E00E94E20E60E08FEF0E942C
:10530000E20E60E089E00E94E20E60E080E10E942F
:10531000E20E60E081E10E94E20E61E084E20E9420
:10532000E20E6FEF85E20E94E20E60E085E70E94E8
:10533000E20E61E08FEF0E94E20E6CE28EE40E94CA
:10534000E20E60E088E40E94E20E60E280E30E94E8
:10535000E20E60E08FEF0E94E20E69E080E30E94BF
:10536000E20E60E084E50E94E20E64E081E30E94C8
:10537000E20E63E082E30E94E20E63E880E40E94B2
:10538000E20E65E286E40E94E20E60E080E60E94A2
:10539000E20E60E087E20E94E20E66E080E50E9495
:1053A000E20E60E081E50E94E20E66E982E50E947D
:1053B000E20E68E086E50E94E20E60E387E50E9467
:1053C000E20E60E081E60E94E20E60E082E60E946A
:1053D000E20E60E084E60E94E20E60E085E60E9454
:1053E000E20E60EA86E60E94E20E61E08FEF0E9424
:1053F000E20E62E382E20E94E20E64E187E40E9430
:10540000E20E6FEF89E40E94E20E60E08AE40E94FF
:10541000E20E60E08FEF0E94E20E6AE08AE70E94EF
:10542000E20E60E08BE70E94E20E61E288E70E94F4
:10543000E20E61E08FEF0E94E20E64E383E20E94DD
:10544000E20E60E082E40E94E20E6FEF84E40E94CC
:10545000E20E66E285E40E94E20E65E086E40E94C8
:10546000E20E60E480E40E94E20E66E08EE00E94BC
:10547000E20E6AE180E20E94E20E60E483E40E94B0
:10548000E20E60E08FEF0E94E20E63E084E30E9490
:10549000E20E64E485E30E94E20E61E08FEF0E9479
:1054A000E20E64E081E30E94E20E69E08BE40E9478
:1054B000E20E65E08CE40E94E20E64E08DE40E945E
:1054C000E20E60E08FEF0E94E20E60E084E40E9452
:1054D000E20E60E285E40E94E20E68E087E40E944A
:1054E000E20E68E288E40E94E20E60E087E60E9435
:1054F000E20E64E080E70E94E20E61E081E70E9434
:10550000E20E6EEF82E70E94E20E60E086E70E9404
:10551000E20E60E087E70E94E20E61E08FEF0E94FA
:10552000E20E61E08DE00E94E20E60E08FEF0E94EB
:10553000E20E61E080E80E94E20E68EF81E00E94E6
:10554000E20E61E08FEF0E94E20E61E08EE80E94C1
:10555000E20E61E080E00E94E20E60E08FEF0E94C8
:10556000E20E60E080E80E94E20E64E08AE00E94C1
:10557000E20E84E80E940D0F682F6F7E84E80E947F
:10558000E20E61E08BE00E94E20ECE014D960E9499
:105590005010BE016F5F7F4FCE014D960E94910F5C
:1055A0008D8D882349F08B859C85AD85BE858C5774
:1055B000924FAF4FBF4F04C086E39BE0A0E0B0E046
:1055C0002F8D222369F04B855C856D857E854E5439
:1055D0005D4F6F4F7F4F440F551F661F771F0BC0E6
:1055E0002E8D222361F04B855C856D857E854C5622
:1055F0005D4F6F4F7F4F840F951FA61FB71F28A1C8
:10560000222361F04F85588969897A894C565D4F0C
:105610006F4F7F4F840F951FA61FB71F29A122230D
:1056200061F04B895C896D897E894A5D5D4F6F4F62
:105630007F4F840F951FA61FB71F8093520490932E
:105640005304A0935404B093550468EE81E00E9483
:10565000E20EC0905204D0905304E0905404F090B5
:105660005504B0E2CB16BEE4DB06E104F10408F415
:10567000C4C0CE014D960E945010BE016F5F7F4F97
:10568000CE014D960E94910F8D8D882349F08B8518
:105690009C85AD85BE858C57924FAF4FBF4F04C0E0
:1056A00086E39BE0A0E0B0E02F8D222369F04B85DC
:1056B0005C856D857E854E545D4F6F4F7F4F440FE7
:1056C000551F661F771F0BC02E8D222361F04B855F
:1056D0005C856D857E854C565D4F6F4F7F4F840F87
:1056E000951FA61FB71F18A1112361F04F85588978
:1056F00069897A894C565D4F6F4F7F4F840F951F94
:10570000A61FB71F29A1222309F477C04C015D0110
:10571000E6E28E0EE2E09E1EA11CB11CC814D90464
:10572000EA04FB0408F469C0AB81B0E020E03FE28A
:105730004AE350E00E94EA352B013C01F4EF4F0EA2
:10574000F1E05F1E611C711CA7019601281939093F
:105750004A095B09A8EEB3E00E94EA354B015C01FF
:10576000C301B20120ED37E040E050E00E94443731
:10577000820E931EA41EB51EC301B20128EE33E0B3
:1057800040E050E00E944437C501B4010E94443714
:10579000112331F08F819885280F391F411D511D2C
:1057A0002115310541055105D9F089019A010150B2
:1057B00011092109310960E070E0D901C801882789
:1057C000892B8A2B8B2B39F03695279517950795C2
:1057D0006F5F7F4FF2CF762F6627602B712B02C051
:1057E00060E070E081E70E94590FC0925204D092AD
:1057F0005304E0925404F092550461E081E00E9469
:10580000E20E80E40E946D10882309F4F6CB62E07A
:1058100081E00E94E20E80E00E946D10882309F46E
:10582000ECCB68EE81E00E94E20E61E080E80E942D
:10583000E20E61E08FEF0E94E20E60E080E00E94E5
:10584000E20E6091510481E90E94E20E61E080E085
:105850000E94E20E60E08FEF0E94E20E60E080E8BE
:105860000E94E20E62E080E00E94E20E2A9A412C41
:10587000512C86E9682E84E4782E93E1892E92E0FB
:10588000992E20E4A22EB12CC6C064EF71E080E016
:1058900090E00E94521860E08DE00E94051864EFCD
:1058A00071E080E090E00E94521861E08DE00E947B
:1058B0000518EBCF1A9BB8C01092E3020E948C1817
:1058C0007093500460934F0483E10E940D0F877022
:1058D00009F4F7C08EE10E94A50E8C0161E08BE017
:1058E0000E94E20EB80180E090E00E94B234609322
:1058F000DB027093DC028093DD029093DE02209144
:105900004E0410924E042111FEC220E030E046E920
:1059100054E40E941A3718160CF4F5C2E7EDF2E0D1
:10592000B291A2919291829184839583A683B78349
:105930008E169F06A9F76091DB027091DC028091C0
:10594000DD029091DE026093130270931402809343
:1059500015029093160207E112E0FF24F394D80198
:105960002D913D914D915D918D010E943C36F394B6
:10597000B9E1FB12F4CF20E030E048EC51E40E94A2
:10598000A8366093DB027093DC028093DD02909373
:10599000DE026093060270930702809308029093E0
:1059A000090220910A0230910B0240910C025091A1
:1059B0000D020E943C366B017C0120E030E04AE79A
:1059C00054E40E94A8366093FB047093FC04809317
:1059D000FD049093FE046093EF047093F0048093B1
:1059E000F1049093F2040E948C1800910F02109120
:1059F00010022091110230911202DC01CB01801BB8
:105A0000910BA20BB30B893C9105A105B10508F0E0
:105A100075C00E9484150E948C1862307105810542
:105A2000910508F047CFF5CF8091E30281110AC0BC
:105A30000E948C186093DF027093E0028093E10271
:105A40009093E2020E948C18C090DF02D090E00296
:105A5000E090E102F090E202DC01CB018C199D099B
:105A6000AE09BF09893B9B40A105B10548F01092E2
:105A70000A0210920B0210920C0210920D021DC02D
:105A80000E948C18DC01CB018C199D09AE09BF095D
:105A9000C397A105B10588F0809106029091070295
:105AA000A0910802B0910902B05880930A02909325
:105AB0000B02A0930C02B0930D0281E08093E302ED
:105AC000FDCE80914C0490914D04892B09F4FCCEBD
:105AD0000E948C1820914F0430915004621B730B6C
