:100000000C9418050C9440050C9440050C94400584
:100010000C9440050C9440050C9440050C946C0B1A
:100020000C9440050C9440050C9440050C9440053C
:100030000C9440050C9440050C9440050C9440052C
:100040000C9424130C9440050C945F120C943912F8
:100050000C9440050C9440050C9440050C9440050C
:100060000C946E130C94400507634236B79BD8A7D7
:100070001A39685618AEBAAB558C1D3CB7CC5763CD
:10008000BD6DEDFD753EF6177231BF000000803F7B
:1000900008000000BE922449123EABAAAA2ABECD97
:1000A000CCCC4C3E00000080BEABAAAAAA3E000009
:1000B0000000BF000000803F000000000008417801
:1000C000D3BB4387D1133D190E3CC3BD4282AD2B38
:1000D0003E68EC8276BED98FE1A93E4C80EFFFBE30
:1000E00001C4FF7F3F000000000000407A10F35A77
:1000F00000A0724E18090010A5D4E80000E8764868
:10010000170000E40B54020000CA9A3B000000E113
:10011000F505000080969800000040420F000000A6
:10012000A08601000000102700000000E803000086
:1001300000006400000000000A0000000000010050
:10014000000000002C76D888DC674F0823DFC1DF71
:10015000AE59E1B1B796E5E3E453C63AE651997674
:1001600096E8E6C28426EB898C9B62ED407C6FFCAE
:10017000EFBC9C9F40F2BAA56FA5F490055A2AF7F0
:100180005C936B6CF9676DC11BFCE0E40D47FEF5F9
:1001900020E6B500D0ED902E030094357705008061
:1001A000841E080000204E0A000000C80C333333C0
:1001B000330F986E12831141EF8D2114893BE65560
:1001C00016CFFEE6DB18D1844B381BF77C1D901D43
:1001D000A4BBE424203284725E228100C9F124ECA5
:1001E000A1E53D2774300074617265000FA000091D
:1001F0003CF0C02B78830C231002D9B00EEAA00B80
:10020000008004432008EDD01104810C23D0C003EA
:100210002FF131A70E483083377883106C030CE040
:1002200000364308E18A2BAE082133F3F0FF12E5D4
:10023000F030C1040F122344000A2400A0F0F0F0B3
:10024000F0F0F0F04005DB40A4A62EAF2000A1C8DE
:10025000D300408DAED580A8A220006DA00C050172
:1002600001E4708BA57A8A59547557937446B36428
:1002700045D354356336633453385333532A533399
:10028000431C5333431C4433331D4433331D443325
:10029000331D53243410454203513411324F26127A
:1002A000325D3621325C27222479363220552304F0
:1002B00024350296246048059305326C1000000036
:1002C0000800020100000304070000000000000015
:1002D000002D79028C42121B0C0306031631180202
:1002E00000199012087598C5D47261625361546107
:1002F000A5A6A6C55461636271D2B49678050D06B1
:10030000920751001C8661188661188661187A145C
:100310008E12076596B4B3625143526858686758A5
:10032000586867071C1D3A158C130763A4B1013187
:1003300065563738473A137675757565151B3A4714
:10034000188F12073143544254515451545154514F
:10035000E4011EABA5A5A5A5A5B4B454148D120740
:1003600074B3C1A1636767B7C2D151615831A402A8
:10037000143B5937138D120756676666667666A674
:10038000C3C151B2A3B302132C4A37128E12079382
:10039000021C8D869585958586858685869585A59D
:1003A000831A90130776B6D4635262536262C3B461
:1003B00097B6D47271616351C563F1E1C3860415C8
:1003C0008D13077395B361B1A39494B352C1C193D4
:1003D0006757676666664806000000000000000078
:1003E0000F8C120773A3011F1BD0A1B20113007061
:1003F000A1730400000000000000000000000000E5
:10040000148D140664A4C2C101141C00111C2B3AE3
:10041000587676767676958400000000000000001D
:100420000000000000000000118D0F0B6396A35325
:10043000515876A4B2011340C1C1B2480100000076
:10044000000000198D1406324A58585858A8C2C1E5
:10045000C101141C1C1C1C1516153524342434141D
:100460000A86120751414E4201001825242300003C
:1004700000000000188D150B3161A3C2C161B1A34A
:10048000A3A3C251C1C1B1A25358585858494908F1
:10049000000D8C0D0CA1B10118666675757575752A
:1004A0008574100A8F0A8483424233313142C4C4B6
:1004B000C4438142330100000000001B8D150B3145
:1004C0003452525152515251B2B2B20130C1C152A2
:1004D0005157585867A2A39366042200FF210000D9
:1004E0000103070F1F3F7F0080C0E0F0F8FCFE0013
:1004F000000000003E5B4F5B3E3E6B4F6B3E1C3E80
:100500007C3E1C183C7E3C181C577D571C1C5E7F93
:100510005E1C00183C1800FFE7C3E7FF0018241812
:1005200000FFE7DBE7FF30483A060E262979292647
:10053000407F050507407F05253F5A3CE73C5A7F31
:100540003E1C1C08081C1C3E7F14227F22145F5F87
:10055000005F5F06097F017F006689956A606060C1
:10056000606094A2FFA29408047E040810207E20FC
:100570001008082A1C08081C2A08081E1010101051
:100580000C1E0C1E0C30383E3830060E3E0E060097
:100590000000000000005F00000007000700147F5B
:1005A000147F14242A7F2A122313086462364956C2
:1005B00020500008070300001C2241000041221CBB
:1005C000002A1C7F1C2A08083E08080080703000A2
:1005D0000808080808000060600020100804023EB7
:1005E0005149453E00427F400072494949462141F8
:1005F000494D331814127F1027454545393C4A4967
:1006000049314121110907364949493646494929A5
:100610001E000014000000403400000008142241B5
:100620001414141414004122140802015909063E3E
:10063000415D594E7C1211127C7F494949363E4139
:100640004141227F4141413E7F494949417F09095A
:1006500009013E414151737F0808087F00417F41F5
:10066000002040413F017F081422417F404040402C
:100670007F021C027F7F0408107F3E4141413E7F84
:10068000090909063E4151215E7F0919294626497B
:1006900049493203017F01033F4040403F1F204052
:1006A000201F3F4038403F6314081463030478045C
:1006B000036159494D43007F414141020408102024
:1006C000004141417F04020102044040404040009B
:1006D0000307080020545478407F284444383844A5
:1006E000444428384444287F385454541800087E21
:1006F000090218A4A49C787F0804047800447D4073
:10070000002040403D007F1028440000417F400011
:100710007C047804787C080404783844444438FC29
:100720001824241818242418FC7C080404084854AD
:1007300054542404043F44243C4040207C1C20406A
:10074000201C3C4030403C44281028444C90909061
:100750007C4464544C44000836410000007700009B
:10076000004136080002010204023C2623263C1EFA
:10077000A1A161123A4040207A385454555921556C
:10078000557941225454784221555478402054558B
:1007900079400C1E527212395555555939545454DA
:1007A0005939555454580000457C410002457D425A
:1007B0000001457C407D1211127DF0282528F07C37
:1007C000545545002054547C547C0A097F493249D1
:1007D0004949323A4444443A324A4848303A41411D
:1007E000217A3A42402078009DA0A07D3D424242BD
:1007F0003D3D4040403D3C24FF2424487E49436623
:100800002B2FFC2F2BFF0929F620C0887E090320FF
:10081000545479410000447D413048484A323840C0
:1008200040227A007A0A0A727D0D19317D26292923
:100830002F28262929292630484D40203808080825
:100840000808080808382F10C8ACBA2F102834FA46
:1008500000007B000008142A142222142A140855D0
:1008600000550055AA55AA55AAFF55FF55FF00008F
:1008700000FF00101010FF00141414FF001010FFF0
:1008800000FF1010F010F0141414FC001414F70002
:10089000FF0000FF00FF1414F404FC141417101FD1
:1008A00010101F101F1414141F00101010F000005F
:1008B00000001F101010101F10101010F01000007A
:1008C00000FF101010101010101010FF100000008A
:1008D000FF140000FF00FF00001F10170000FC04C1
:1008E000F414141710171414F404F40000FF00F7A4
:1008F00014141414141414F700F714141417141007
:10090000101F101F141414F4141010F010F0000035
:100910001F101F0000001F14000000FC140000F056
:1009200010F01010FF10FF141414FF141010101FFB
:1009300000000000F010FFFFFFFFFFF0F0F0F0F00C
:10094000FFFFFF0000000000FFFF0F0F0F0F0F3829
:1009500044443844FC4A4A4A347E02020606027E77
:10096000027E0263554941633844443C04407E2082
:100970001E2006027E020299A5E7A5991C2A492A93
:100980001C4C7201724C304A4D4D30304878483022
:10099000BC625A463D3E494949007E0101017E2A1A
:1009A0002A2A2A2A44445F444440514A444040444D
:1009B0004A51400000FF0103E080FF000008086B7F
:1009C0006B083612362436060F090F060000181879
:1009D0000000001010003040FF0101001F01011E47
:1009E00000191D1712003C3C3C3C000000000000B8
:1009F000000000250028002B000000000024002734
:100A0000002A000404040404040404020202020292
:100A100002030303030303010204081020408001C2
:100A20000204081020010204081020005A26322671
:100A300011241FBECFEFD8E0DEBFCDBF25E0AAEF67
:100A4000B1E001C01D92A63AB207E1F711E0A0E0C3
:100A5000B1E0EEE7F2E602C005900D92AA3FB107C1
:100A6000D9F715E0C7E1D5E004C02197FE010E9447
:100A7000202FC631D107C9F70E943A1F0C9432319A
:100A80000C940000FC0177FDB9C080859185681742
:100A900079070CF0B3C057FDB1C082859385481724
:100AA00059070CF008958689823079F48481958104
:100AB000DC01A61BB70BBD016150710986819781CE
:100AC000DC01A41BB50BAD010EC0833009F084C05E
:100AD00064277527CA0186279727682779274681C3
:100AE0005781481B590B415051092130310531F0D4
:100AF00048F12230310509F44AC00895CA0157FD72
:100B000007969C01A3E035952795AA95E1F7A48166
:100B1000B5812A9FC0012B9F900D3A9F900D112403
:100B2000680F791F078CF0A1E02DE60FF71F4770C3
:100B3000552781E090E001C0880F4A95EAF790813F
:100B4000892B48C0CA0157FD07969C0193E0359553
:100B500027959A95E1F7A481B5812A9FC0012B9F23
:100B6000900D3A9F900D1124680F791F078CF0A10A
:100B7000E02DE60FF71F4770552781E090E001C098
:100B8000880F4A95EAF780959081892323C0CA018E
:100B900057FD07969C0183E0359527958A95E1F7E7
:100BA000A481B5812A9FC0012B9F900D3A9F900D83
:100BB0001124680F791F078CF0A1E02DE60FF71FB5
:100BC0004770552781E090E001C0880F4A95EAF709
:100BD0009081892780830895813009F086CF64272A
:100BE0007527462757276427752784819581DC015F
:100BF000A61BB70BBD016150710977CF0895089509
:100C0000FC016370668B8481958126813781613018
:100C100039F0633029F091878087338722870895E0
:100C2000318720879387828708956F927F928F9272
:100C30009F92AF92BF92CF92DF92EF92FF920F936B
:100C40001F93CF93DF93EC014B015A0169013801E7
:100C5000E881F9810284F385E02D0995E881F98125
:100C60000288F389E02D87019601A501B401CE0128
:100C70000995A501460D571D41505109E881F9819B
:100C80000288F389E02D9601B401CE010995E8812F
:100C9000F9810088F189E02D9301A501B401CE010D
:100CA0000995C80CD91CB60161507109E881F98118
:100CB0000088F189E02D9301A501CE010995E88115
:100CC000F9810688F789E02DCE01DF91CF911F9140
:100CD0000F91FF90EF90DF90CF90BF90AF909F90DB
:100CE0008F907F906F9009948F929F92AF92BF9256
:100CF000CF92DF92EF92FF920F931F93CF93DF93E8
:100D00004C016B015A01E901DC01ED91FC91621784
:100D1000730781F40417150724F48B2D5801042F51
:100D2000182F0A191B0998012F5F3F4F048CF58D6E
:100D3000E02D12C04017510709F52617370724F494
:100D40008D2D6901C62FD82F9E012C193D092F5FCB
:100D50003F4F068CF78DE02D8701A501B601C40138
:100D60000995DF91CF911F910F91FF90EF90DF9048
:100D7000CF90BF90AF909F908F9008950284F3859D
:100D8000E02D0995D401ED91FC910488F589E02DC1
:100D90009E01A501B601C4010995D401ED91FC9114
:100DA0000688F789E02DC401DF91CF911F910F9143
:100DB000FF90EF90DF90CF90BF90AF909F908F907B
:100DC0000994EF92FF920F931F93DC011A960D91F5
:100DD0001C911B9718962D913C911997ED91FC91C0
:100DE00000A0F1A1E02D7B0140E050E060E070E068
:100DF00009951F910F91FF90EF9008954F925F9288
:100E00006F927F928F929F92AF92BF92CF92DF921A
:100E1000EF92FF920F931F93CF93DF936C012B01FF
:100E20005A0139014801DC01ED91FC910284F385FE
:100E3000E02D0995E201640C751CD601ED91FC9141
:100E4000C615D7055CF40088F189E02D870194016F
:100E5000A501BE01C60109952196EFCF0688F78945
:100E6000E02DC601DF91CF911F910F91FF90EF9080
:100E7000DF90CF90BF90AF909F908F907F906F90BA
:100E80005F904F9009948F929F92AF92BF92CF92B2
:100E9000DF92EF92FF920F931F93CF93DF93EC01BA
:100EA0005B014A016901E881F9810284F385E02D43
:100EB000099595012C0D3D1D21503109E881F981DD
:100EC0000488F589E02D78018401A401B501CE01E3
:100ED0000995E881F9810688F789E02DCE01DF9137
:100EE000CF911F910F91FF90EF90DF90CF90BF9027
:100EF000AF909F908F9009948F929F92AF92BF92E4
:100F0000CF92DF92EF92FF920F931F93CF93DF93D5
:100F1000EC015B014A0169017801E881F9810284F1
:100F2000F385E02D0995C80CD91C860101501109E3
:100F3000E881F9810488F589E02D9501A401B501C6
:100F4000CE010995E881F9810688F789E02DCE0167
:100F5000DF91CF911F910F91FF90EF90DF90CF9095
:100F6000BF90AF909F908F900994EF92FF920F9354
:100F70001F93DC01ED91FC9100A0F1A1E02D0995FA
:100F80001F910F91FF90EF9008950F931F93DC0135
:100F9000ED91FC91068CF78DE02D09951F910F9135
:100FA00008950F931F93DC01ED91FC91048CF58D56
:100FB000E02D09951F910F910895DC01ED91FC91B1
:100FC0000084F185E02D09942F923F924F925F9219
:100FD0006F927F928F929F92AF92BF92CF92DF9249
:100FE000EF92FF920F931F93CF93DF9300D000D027
:100FF00000D0CDB7DEB72C017E836D836A01590125
:10100000C801FC82EB824801841A950A97FE03C04E
:1010100091948194910835012D813E81621A730A61
:1010200077FE03C0719461947108681479045CF4CC
:101030003A2D2B2D5C01832F922F3D812E81DE8254
:10104000CD82C32ED22EAD81BE81AA16BB065CF422
:101050003C2D2D2D6C01832F922F3D812E81BE8240
:10106000AD82A32EB22E85012D813E81021B130B72
:101070001C012C183D0837FE03C03194219431081F
:10108000780117FF03C03FEFE31AF30AF594E794E2
:10109000C816D9062CF08FEF9FEF9A83898304C07E
:1010A000A1E0B0E0BA83A9832D813E81A216B306E8
:1010B00024F1D201ED91FC910484F585E02D2B8182
:1010C0003C816814790424F44D815E81B60103C02B
:1010D000A6016D817E81C2010995E218F308F7FE31
:1010E00006C029813A81C20ED31EE00EF11E8D8109
:1010F0009E8101969E838D83D7CF26960FB6F89456
:10110000DEBF0FBECDBFDF91CF911F910F91FF903A
:10111000EF90DF90CF90BF90AF909F908F907F9097
:101120006F905F904F903F902F90089580E090E0F7
:1011300008950F931F93DC015696EC915697E23079
:1011400061F0E33009F1E13081F51496ED91FC9105
:101150001597E41BF50B319723C0DC011496ED9134
:10116000FC911597DF01A61BB70BBD01DC0116969C
:10117000ED91FC911797DF01A41BB50BAD01415018
:101180005109621B730B11C0FA01DC0116964D91D7
:101190005C911797DA01A61BB70BBD01621B730B9D
:1011A000AB01BF010E94051E0CC057FD0AC0DC0147
:1011B0001696ED91FC9117974E175F0714F40E9455
:1011C0009E1D1F910F9108958F929F92AF92CF9283
:1011D000EF92FF920F931F93CF93DF93EC01262F93
:1011E000898D9A8D009709F042C06A3059F41D86A6
:1011F0001C862D898E859F8538E0239F800D911D4B
:10120000112443C06D3009F4AAC08F898823C9F026
:101210003C898C859D8546E0349F800D911D11246D
:10122000488559854817590764F41D861C863D89F1
:101230008E859F8548E0349F800D911D11249F87E6
:101240008E87EA88FB88088919894E855F856C85B9
:101250007D85AD88CC88CE010E946A1B2C898C8547
:101260009D8536E0239F800D911D11243EC06A307C
:1012700079F41D861C862D89FC013896E4918E85B3
:101280009F852E9F800D911D11249F878E8767C09B
:101290006D3009F464C0FC0134963491631708F48E
:1012A0005EC03296E491E61708F459C0462F431BFE
:1012B000342FFC0132968590949047E0349F800C47
:1012C000911C1124F401329634913196E491332328
:1012D00011F0E1110DC0F4013496E4912C898C8554
:1012E0009D85E29F800D911D11249D878C8737C0BD
:1012F000F401359644915F89552319F15C89E32FF8
:10130000F0E0E40FF11D47FDFA955E9FB0015F9F8D
:10131000700D11244C855D85460F571F68857985B2
:101320006417750774F41D861C863D89FC01389688
:10133000E4918E859F853E9F800D911D11249F878E
:101340008E87EA88FB88088919894E855F856C85B8
:101350007D85AD88CC88CE010E946A1BBCCF81E020
:1013600090E0DF91CF911F910F91FF90EF90CF9080
:10137000AF909F908F90089508958EBD00000DB49A
:1013800007FEFDCF8EB508951F93CF93DF93FC0129
:10139000858D968D009729F1162FEF0121A131E05F
:1013A0003093730320939503109274031092960365
:1013B000DC01ED91FC910190F081E02D60E0099558
:1013C0008D8D9E8DDC01ED91FC910190F081E02DE1
:1013D000612F09958D8D9E8DDF91CF911F910C947A
:1013E0002016A5A5B6A59C9183A9809589238C93E9
:1013F000838D948D892B31F0862FDF91CF911F91B2
:101400000C94BD0928E030E080E8A1A5B2A591A91F
:10141000462F482319F04C91942B03C04C91909582
:1014200094239C93A3A5B4A54C9192A9942B9C932F
:10143000A3A5B4A54C9192A9909594239C938695CD
:101440002150310911F7DF91CF911F9108958CBD83
:101450009DBD0895EF92FF921F93CF93DF9300D02D
:1014600000D000D0CDB7DEB77B011A8219821C8272
:101470001B821E821D8267EE71E0CE0101960E94E2
:10148000BA1EF701248135818D819E812817390785
:1014900049F4BE016F5F7F4FC7010E94681511E0DC
:1014A000892B09F010E0CE0101960E94E21E112363
:1014B00091F08091210290912202A0912302B0919B
:1014C0002402B0588093250290932602A09327020D
:1014D000B09328022CC01A8219821C821B821E82A1
:1014E0001D8264EE71E0CE0101960E94BA1EF701E2
:1014F000248135818D819E812817390751F4BE01E1
:101500006F5F7F4FC7010E94681511E0892B09F0BA
:1015100010E0CE0101960E94E21E112341F01092CC
:101520002502109226021092270210922802812F83
:1015300026960FB6F894DEBF0FBECDBFDF91CF91D8
:101540001F91FF90EF900895CF92DF92EF92FF925C
:101550001F93CF93DF93CDB7DEB72C970FB6F894D8
:10156000DEBF0FBECDBF7C016B016FEE71E0CE011F
:1015700007960E94251F10E08B859C85059750F5E6
:101580002091250230912602409127025091280295
:101590006091210270912202809123029091240295
:1015A0000E942C2C27E535E148E159E30E94202BCD
:1015B000AB01BC01212FCE0101960E94E71EBE01A6
:1015C0006F5F7F4FCE0107960E94111BCE010196DF
:1015D0000E94E21E1F5F133079F62EE132E0AE0169
:1015E000495F5F4FB601C7010E94961ACE01079668
:1015F0000E94E21E2C960FB6F894DEBF0FBECDBF40
:10160000DF91CF911F91FF90EF90DF90CF900895E1
:10161000CF92DF92EF92FF921F93CF93DF93CDB7DC
:10162000DEB72C970FB6F894DEBF0FBECDBF7C019E
:101630006B016FEE71E0CE0107960E94251F10E04E
:101640008B859C85059750F52091250230912602C7
:10165000409127025091280260912102709122024C
:1016600080912302909124020E942C2C20E030E0F3
:101670004AE754E40E94982CAB01BC01212FCE0113
:1016800001960E94E71EBE016F5F7F4FCE01079655
:101690000E94111BCE0101960E94E21E1F5F1330B3
:1016A00079F62CEE31E0AE01495F5F4FB601C7011C
:1016B0000E94961ACE0107960E94E21E2C960FB643
:1016C000F894DEBF0FBECDBFDF91CF911F91FF9089
:1016D000EF90DF90CF9008951F920F920FB60F9268
:1016E00011245F926F927F928F929F92AF92BF92DE
:1016F000CF92DF92EF92FF920F931F932F933F931E
:101700004F935F936F937F938F939F93AF93BF9309
:10171000EF93FF93CF93DF93CDB7DEB76E97DEBF26
:10172000CDBF7894809170008D7F8093700034E0FD
:10173000832E912C8091440590914505DC01ED911B
:10174000FC910084F185E02D099505970CF47AC091
:101750009E8E8D8E8091440590914505BE01635EFD
:101760007F4F0E9407168A3A910519F097FD6AC0CB
:10177000F1CF8091440590914505BE01635E7F4F96
:101780000E9407167C0197FDD5CF8091440590916A
:101790004505BE01635E7F4F0E9407166C0197FFEF
:1017A00003C0E114F10431F68091440590914505A0
:1017B000BE01635E7F4F0E9407163C0197FDBACFC2
:1017C0008091440590914505BE01635E7F4F0E9464
:1017D00007165C0197FDAECF8091440590914505B9
:1017E000BE01635E7F4F0E9407168C0197FDA2CF5A
:1017F000E114F10439F08091460590E0E816F9060D
:1018000009F098CFC114D10439F08091470590E0D8
:10181000C816D90609F08ECF9E2D9C258AEA892705
:1018200086258A25582E502601151105B1F580917F
:10183000440590914505BE01635E7F4F0E940716E7
:1018400097FF46C0809170008260809370006E9612
:101850000FB6F894DEBF0FBECDBFDF91CF91FF91E1
:10186000EF91BF91AF919F918F917F916F915F9118
:101870004F913F912F911F910F91FF90EF90DF902B
:10188000CF90BF90AF909F908F907F906F905F9020
:101890000F900FBE0F901F90189580914405909166
:1018A00045059E01235E3F4FA801BE016F5F7F4F3C
:1018B0004B010E9498150817190721F6F401219190
:1018C00052269F012819390928173907C4F3AFCFC9
:1018D000252D30E08217930709F0B4CFE114F1040D
:1018E00039F08091460590E0E816F90609F0AACF94
:1018F000C114D10439F08091470590E08C159D0505
:1019000009F0A0CF862D813091F4809146058E118B
:1019100003C081E0C11001C080E0909192059093D6
:101920004A0591E090938A05811184C1AEC182304D
:10193000A1F42981422F50E080E090E084179507C0
:101940004CF4FC01E050FB4F3081E65BFF4F3083ED
:101950000196F4CF20938A0598C18330B1F4112702
:101960008FE080934A05FE01319680E090E0801779
:101970009107B1F1DC01A050BB4F3C91219132178E
:1019800011F08AEA2BC00196F2CF843019F5FA8063
:101990000B8110E0809147059981981303C0109244
:1019A0008A0550CF0E942C1565E60E94CA2E892F09
:1019B00090E008171907E4F08091A0059091A10527
:1019C0009A8B898B6F2DCE0141960E941915F0924A
:1019D00046050EC0863041F48091470580934A0544
:1019E00081E080938A0551C1853029F410929605D3
:1019F00010928A054AC18D3099F48981209194050D
:101A000090919505E22FF92FE80FF11DE80FF11DD8
:101A10000190F081E02D828180934A0581E008C128
:101A20008930B9F49E012F5F3F4FF9011127CF0193
:101A3000821B930B801791073CF44191DC01A0506D
:101A4000BB4F50964C93F3CFF801E050FB4F108AF8
:101A5000C2C08A30B9F49E012F5F3F4FF9011127B0
:101A6000CF01821B930B801791073CF44191DC015D
:101A7000A050BB4F9A964C93F3CFF801E050FB4F28
:101A800012A6A9C08B30C9F51981109229051092B0
:101A9000430560E175E0CE0147960E94251F6AE28A
:101AA00075E0CE0141960E94251F812F90E0209184
:101AB00092053091930582179307C0F4880F991F00
:101AC000E0919405F0919505E80FF91F80819181CF
:101AD000DC01ED91FC910190F081E02DAE014F5EB3
:101AE0005F4FBE01695E7F4F099501C080E0809322
:101AF0004A0581E080938A0542C08C3009F048C0D5
:101B000019811092290560E175E0CE0147960E9487
:101B1000251F9091940580919505E92FF82FE10FED
:101B2000F11DE10FF11D60817181DB01ED91FC91EF
:101B30000280F381E02DAE01495E5F4FCE014196F8
:101B400009954D8969897A89242F3E8980E090E042
:101B50002817390791F06115710529F41092FA01DF
:101B6000EAEFF1E003C0FB01E80FF91F5081FC012F
:101B7000E65BFA4F50830196EBCF40938A05CE0186
:101B800041960E94E21ECE0147960E94E21E52C07C
:101B9000883021F5809148059091490501969093F0
:101BA0004905809348058981209194059091950578
:101BB000E22FF92FE80FF11DE80FF11D80819181CF
:101BC0004A815B816C817D81DC01ED91FC9104880F
:101BD000F589E02D099510928A052CC0873009F00F
:101BE00054C089812091940590919505E22FF92F99
:101BF000E80FF11DE80FF11D80819181DC01ED916D
:101C0000FC91008CF18DE02D09959B01AB01BC018D
:101C1000498B5A8B6B8B7C8B20934A058A898093E6
:101C20004B058B8980934C058C8980934D0584E00E
:101C300080938A058091960581110DC0E0919A05E7
:101C4000F0919B05309721F081E0809396050995EE
:101C500081E08093960580919705811116C080914F
:101C6000A0059091A10502969A8B898B67E3CE011E
:101C700041960E94191581E080939705E0919C059B
:101C8000F0919D05309709F0099580918A05882388
:101C900009F4D8CD8091440590914505DC01ED9182
:101CA000FC910190F081E02D6A2D09958091440509
:101CB0009091450560918A05DC01ED91FC910190C0
:101CC000F081E02D09958091440590914505409162
:101CD0008A0550E0DC01ED91FC910280F381E02D5A
:101CE0006AE475E0099560918A056A2580E090E0D4
:101CF00020918A0530E0821793073CF4FC01E65BF3
:101D0000FA4F208162270196F3CF8091440590918C
:101D10004505DC01ED91FC910190F081E02D0995E4
:101D200091CD87E993E00E94CC0E21E0892B09F444
:101D300020E0822F0895FC01538D448D252F30E043
:101D4000842F90E0821B930B541710F0CF960895C8
:101D500001970895FC01918D828D981761F0828D15
:101D6000DF01A80FB11D5D968C91928D9F5F9F73CF
:101D7000928F90E008958FEF9FEF0895FC01918D71
:101D8000828D981731F0828DE80FF11D858D90E0DE
:101D900008958FEF9FEF0895FC01918D228D892F7B
:101DA00090E0805C9F4F821B91098F739927089563
:101DB000FC01848DDF01A80FB11DA35ABF4F2C91E8
:101DC000848D90E001968F739927848FA689B789B7
:101DD0002C93A089B1898C91837080648C93938DAE
:101DE000848D981306C00288F389E02D80818F7D51
:101DF00080830895EF92FF920F931F93CF93DF9309
:101E0000EC0181E0888F9B8D8C8D981305C0E8894B
:101E1000F989808185FD26C0F62E0B8D10E00F5FBD
:101E20001F4F0F731127E02E8C8DE8120CC00FB6D8
:101E300007FCFACFE889F989808185FFF5CFCE01CB
:101E40000E94D80EF1CF8B8DFE01E80FF11DE35AF1
:101E5000FF4FF0829FB7F8940B8FEA89FB8980814E
:101E600080620AC09FB7F894EE89FF896083E88991
:101E7000F98980818370806480839FBF81E090E0D6
:101E8000DF91CF911F910F91FF90EF900895CF9325
:101E9000DF93EC01888D8823C9F0EA89FB89808172
:101EA00085FD05C0A889B9898C9186FD0FC00FB644
:101EB00007FCF5CF808185FFF2CFA889B9898C9185
:101EC00085FFEDCFCE010E94D80EE7CFDF91CF91F5
:101ED000089580E090E0892B29F00E94910E8111F5
:101EE0000C94000008953FB7F894809148039091B6
:101EF0004903A0914A03B0914B0326B5A89B05C0A6
:101F00002F3F19F00196A11DB11D3FBFBA2FA92F78
:101F1000982F8827820F911DA11DB11DBC01CD01F5
:101F200042E0660F771F881F991F4A95D1F70895E1
:101F300085ED8093BC008091BC0084FDFCCF1092A5
:101F40007203089540912003262F30E0240F311DA5
:101F500021323105DCF4209172032430C9F4FC01F4
:101F600080E090E0861758F4309120032191DC0145
:101F7000A050BD4FA30FB11D2C930196F3CF8091BC
:101F80002003680F6093200380E0089581E00895A6
:101F900082E00895089508950895E09100028091E7
:101FA000FF01E81730F4F0E0EF5FFD4F808190E033
:101FB00008958FEF9FEF0895909100028091FF01A7
:101FC000981750F4E92FF0E0EF5FFD4F208130E0EB
:101FD0009F5F9093000202C02FEF3FEFC901089569
:101FE0008091FF0190E020910002821B91090895E9
:101FF000CF92DF92EF92FF920F931F93CF93DF93D5
:102000007C01CB018A0120917303222389F0EB012B
:102010006B01C40ED51ECC15DD0569F06991D701A1
:10202000ED91FC910190F081E02DC7010995F3CF6E
:10203000642F0E94A20FC801DF91CF911F910F91D1
:10204000FF90EF90DF90CF900895CF93DF931F9292
:10205000CDB7DEB76983209173032223D1F020919D
:102060009603203240F021E030E0FC0133832283EC
:1020700080E090E015C080917403E82FF0E0EB5809
:10208000FC4F998190838F5F8093740380939603B4
:1020900005C061E0CE0101960E94A20F81E090E0B0
:1020A0000F90DF91CF910895FC016489758986892D
:1020B00097890895FC01448B558B668B778B4087FD
:1020C00051876287738708950895CF92DF92EF92C8
:1020D000FF92CF93DF93EC01E881F981008CF18DC1
:1020E000E02D0995288939894A895B890E942C2C21
:1020F0006B017C01688B798B8A8B9B8B8C859D8592
:10210000AE85BF85BC01CD016F5F7F4F8F4F9F4F65
:102110006C877D878E879F8761307105810591056A
:1021200051F00E94C12A9B01AC01C701B6010E9477
:10213000982C6B017C01C701B601DF91CF91FF9014
:10214000EF90DF90CF900895FC01108A118A128AD7
:10215000138A14861586168617860895FC019581C4
:102160009F7071F00380F481E02D80819181009750
:1021700039F0DC01ED91FC910088F189E02D0994A2
:1021800060E070E0CB010895FC0117820895089586
:10219000CF93DF93EC018F8181110DC0E881F9812C
:1021A000048CF58DE02DCE010995688779878A87A3
:1021B0009B8781E08F83688579858A859B85DF9100
:1021C000CF910895CF93DF93EC018F8181110DC0E2
:1021D000E881F981008CF18DE02DCE0109956887A9
:1021E00079878A879B8781E08F83688579858A854F
:1021F0009B85DF91CF910895DC0115962C91159761
:102200002F7030E062177307BCF4660F771F1396C8
:10221000ED91FC911497E60FF71F80819181009753
:1022200059F0FC0122812F3039F40190F081E02D2A
:102230000088F189E02D099460E070E0CB010895F9
:1022400080E008950E940D318F929F92AF92BF92CD
:10225000EF92FF920F931F93CF93DF93FB01EE0F4B
:10226000FF1FEC01AB81BC81EA0FFB1FA081B18194
:102270001097C9F01296EC911297EF30A1F4ED91FE
:10228000FC9111970488F589E02DBA01A901CD01CF
:10229000DF91CF911F910F91FF90EF90BF90AF9082
:1022A0009F908F90099449015A017B018C0188E12C
:1022B00090E00E94262FEC011E82188619861A864D
:1022C0001B861C861D861E861F86188A198A1A8AF6
:1022D0001B8A81E08D8382E090E00E94262F9C8300
:1022E0008B83FC01118210828FE08A8388EA91E05F
:1022F000998388838C8A9D8AAE8ABF8AD801ED91A2
:10230000FC910480F581E02DAE01B701C801DF9199
:10231000CF911F910F91FF90EF90BF90AF909F9042
:102320008F9009941F93CF93DF93EC01162F8D8D1F
:102330009E8D892BB1F02DA93EA94FA958AD60E023
:1023400074E284EF90E00E94EA2EDA01C90140971E
:10235000A109B109B695A795979587958093B8007F
:102360000FC08B8D9C8D892B21F08EAD9FAD0E946F
:10237000270AEFA5F8A990818CA9809589238083ED
:10238000111102C066EA01C067EACE010E94C409C9
:102390008D8D9E8D892BB1F029AD3AAD4BAD5CADE5
:1023A00060E074E284EF90E00E94EA2EDA01C90155
:1023B0004097A109B109B695A79597958795809300
:1023C000B8000FC0EFA5F8A990818CA9892B808354
:1023D0008B8D9C8D892B29F0DF91CF911F910C94CF
:1023E000BC09DF91CF911F9108950F931F93CF9355
:1023F000DF93DC015696EC915697E23071F0E330B2
:10240000E9F0E13079F5FB0114960D90BC91A02D17
:10241000A41BB50BA21BB30B18C0EC01EC81FD8112
:10242000E61BF70BBF0161507109EE81FF81DF01EF
:10243000A41BB50BAD01421B530B14C0DA01EC0118
:10244000EE81FF81E61BF70B3197F7FD0DC0EC0124
:102450004E815F81E417F5073CF4AF01BD010E9496
:102460009E1D02C00E94051EDF91CF911F910F910A
:1024700008951F920F920FB60F9211242F933F933E
:102480004F935F936F937F938F939F93AF93BF937C
:10249000EF93FF9387E993E00E94D80EFF91EF91AD
:1024A000BF91AF919F918F917F916F915F914F916C
:1024B0003F912F910F900FBE0F901F9018951F9274
:1024C0000F920FB60F9211242F938F939F93EF9338
:1024D000FF93E091A703F091A8038081E091AD0301
:1024E000F091AE0382FD12C090818091B0038F5FA6
:1024F0008F732091B103821751F0E091B003F0E0A7
:10250000E956FC4F958F8093B00301C08081FF9105
:10251000EF919F918F912F910F900FBE0F901F9071
:10252000189590E0FC01E354FD4F2491FC01E95E15
:10253000F54F3491FC01ED5FF54FE491EE2309F482
:102540003CC0222339F1233091F038F42130A9F036
:10255000223001F584B58F7D12C0273091F02830EC
:10256000A1F02430B9F4809180008F7D03C0809168
:1025700080008F77809380000DC084B58F7784BDF5
:1025800009C08091B0008F7703C08091B0008F7D2B
:102590008093B000F0E0EE0FFF1FE151F64FA591E0
:1025A000B4919FB7F894611104C08C913095382391
:1025B00002C0EC913E2B3C939FBF08958F929F9257
:1025C000AF92BF92CF92DF92EF92FF926B017C01AC
:1025D0000E94730F4B015C01C114D104E104F104AA
:1025E000F1F00E94730FDC01CB0188199909AA0947
:1025F000BB09883E9340A105B10570F321E0C21AE2
:10260000D108E108F10888EE880E83E0981EA11C2D
:10261000B11CC114D104E104F10419F7DDCFFF901E
:10262000EF90DF90CF90BF90AF909F908F900895E4
:102630002FB7F8946091440370914503809146034D
:10264000909147032FBF08951F920F920FB60F92DC
:1026500011242F933F938F939F93AF93BF938091B8
:10266000440390914503A0914603B09147033091F4
:10267000430323E0230F2D3720F40196A11DB11D44
:1026800005C026E8230F0296A11DB11D2093430328
:102690008093440390934503A0934603B09347036C
:1026A0008091480390914903A0914A03B0914B0354
:1026B0000196A11DB11D8093480390934903A093F7
:1026C0004A03B0934B03BF91AF919F918F913F917C
:1026D0002F910F900FBE0F901F9018951F920F9281
:1026E0000FB60F9211242F933F934F935F936F93E5
:1026F0007F938F939F93AF93BF93EF93FF938091BB
:10270000B900887F803609F49CC068F5883209F4E6
:102710005BC090F4803109F454C038F4882309F484
:10272000F6C0883009F44DC0F6C0883109F44CC0B9
:10273000803209F45DC0EFC0803409F468C048F409
:10274000803309F455C0883309F0E5C080937003E5
:10275000D8C0803509F44FC0883509F45DC088348D
:1027600009F0D9C0D6C0883909F4C7C0A8F48837A1
:1027700009F467C038F4883609F463C0803709F477
:1027800060C0C9C0883809F4B8C0803909F45FC096
:10279000803809F0C0C05BC0803B09F486C038F4C3
:1027A000803A09F466C0883A09F47FC0B4C0803C1E
:1027B00009F4A7C0883C09F4A4C0883B09F48AC086
:1027C000AAC080914D0310C090916F0380916E0359
:1027D000981770F5E0916F0381E08E0F80936F037F
:1027E000F0E0E25BFC4F80818093BB0085EC86C00B
:1027F000809370038EC0E0916F0381E08E0F809311
:102800006F038091BB00F0E0E25BFC4F808390910E
:102810006F0380916E036EC0E0916F0381E08E0FB5
:1028200080936F038091BB00F0E0E25BFC4F8083FC
:102830008091710381116DC081E080934C0384EA23
:1028400061C083E08093720310924203CFCF8091E6
:102850004203803208F051C0E091420381E08E0FC4
:10286000809342038091BB00F0E0EE5DFC4F8083DB
:10287000BDCF85EC8093BC0010927203809142031F
:10288000803230F4E0914203F0E0EE5DFC4F1082C4
:102890006091420370E0E091FB01F091FC0182E263
:1028A00093E009951092420336C084E0809372034E
:1028B0001092210310922003E091FD01F091FE019E
:1028C000099580912003811105C081E08093200348
:1028D00010920003E091210381E08E0F8093210389
:1028E000F0E0E050FD4F80818093BB009091210388
:1028F00080912003981708F479CF85E88093BC0075
:102900000AC085EC8093BC001092720304C0109240
:1029100070030E94980FFF91EF91BF91AF919F912B
:102920008F917F916F915F914F913F912F910F9078
:102930000FBE0F901F901895EF92FF920F931F9369
:10294000CF93DF93EC018AE591E0998388838B81B3
:102950009C81892B09F100E010E08D818F7090E05F
:1029600008171907CCF4EB81FC81C801880F991F67
:10297000E80FF91FE080F180E114F10451F0F70154
:1029800082818F3031F4C7010E949C14C7010E94DC
:10299000BE2F0F5F1F4FE1CFDF91CF911F910F919E
:1029A000FF90EF900895EF92FF920F931F93CF93B4
:1029B000DF93FC01258130E062177307C4F48A01BC
:1029C000660F771FC381D481C60FD71FE880F980B7
:1029D000E114F10451F0F70182818F3031F4C70125
:1029E0000E949C14C7010E94BE2F19830883DF91A7
:1029F000CF911F910F91FF90EF9008950F931F9328
:102A0000CF93DF93EC018B0188819981803A2FE08D
:102A1000920748F40E94DE2BF80180838881998117
:102A2000019699838883C801DF91CF911F910F91FF
:102A30000895CF93DF93EC0188819981803A2FE04C
:102A4000920738F40E94E62B888199810196998338
:102A50008883DF91CF91089520E030E04FE45EE479
:102A600020FD03C050937C0002C040937C00809105
:102A70007A00806480937A0080917A0086FDFCCF92
:102A8000909178008091790089279091FF028927A1
:102A900080FB879587F98093FF0290917A0083707D
:102AA000880F9068892B80937A002F5F3F4F2431E5
:102AB0003105B1F68091FF020895CF93DF93EC01C9
:102AC0006FEE71E00E94251FCE01DF91CF91089536
:102AD000CF93DF93DC01ED91FC91EB01A881B981EB
:102AE000309711F01097C9F4109759F0EB012C8131
:102AF0003D81232B31F08C9190E091958195910946
:102B000014C0309781F0DC0114968D919C9115973B
:102B1000892B49F0808190E008C0BD01CF01DF9191
:102B2000CF910C94223180E090E0DF91CF91089515
:102B30006F927F928F929F92AF92BF92CF92DF92CD
:102B4000EF92FF920F931F93CF93DF93EC018B01D2
:102B50003A0169010E9418134B015C01780100E001
:102B600010E006151705A4F50E941813AB01BC016F
:102B7000481959096A097B09F60180819181092E5A
:102B8000000CAA0BBB0B84179507A607B70750F0DC
:102B9000E881F9810084F185E02DCE0109951816B0
:102BA000190614F7E881F9810084F185E02DCE0142
:102BB0000995892B69F0E881F9810284F385E02D7C
:102BC000CE010995F70181937F010F5F1F4FC9CF98
:102BD0000E941813AB01BC01481959096A097B0905
:102BE000F60180819181841B950B91838083C801BC
:102BF000DF91CF911F910F91FF90EF90DF90CF90D9
:102C0000BF90AF909F908F907F906F900895CF93DB
:102C1000DF931F92CDB7DEB79B01198241E050E0F0
:102C2000BE016F5F7F4F0E949815019719F489814B
:102C300090E002C08FEF9FEF0F90DF91CF9108954A
:102C400030919603313208F04BC0809172038111AC
:102C5000FCCF9091950322E02093720321E0209312
:102C600071032FEF2093700310926F0330936E0364
:102C7000E5E7F3E0AEE4B3E020E0321721F0419164
:102C80004D932F5FFACF10924D0320914D03990F72
:102C9000922B90934D0390914C03913061F41092DC
:102CA0004C0390914D039093BB009091BC0093FD19
:102CB000F8CF95EC01C095EE9093BC009091720313
:102CC0009230E1F3909170039F3F79F0809170030F
:102CD000803241F080917003803331F084E005C090
:102CE00081E003C082E001C083E01092740310927F
:102CF0009603109273030895EF92FF920F931F9320
:102D0000CF93DF937C01C62F80917404909175045A
:102D1000009709F459C02091780431E0309373038F
:102D2000209395031092740310929603DC01ED91A9
:102D3000FC910190F081E02D60E009958701EE247F
:102D4000E394F12CD1E08091740490917504CC232C
:102D500099F1B0E2EB16F104D8F00E9420168091B0
:102D60007804D093730380939503109274031092A8
:102D700096038091740490917504DC01ED91FC91AF
:102D80000190F081E02D60E00995EE24E394F12CB0
:102D90008091740490917504F8016491DC01ED91C7
:102DA000FC910190F081E02D0995BFEFEB1AFB0A31
:102DB000C1500F5F1F4FC7CFDF91CF911F910F9170
:102DC000FF90EF900C942016E0918404F09185041C
:102DD000908180918A048095892380838701CC2308
:102DE00009F439C0F8018491209172043091730480
:102DF000232B31F00E94BD09C1500F5F1F4FEFCF51
:102E000028E030E040E8E0918004F0918104909166
:102E10008804582F542319F05081952B03C05081FA
:102E2000909595239083E0918204F09183045081E2
:102E300090918904952B9083E0918204F091830412
:102E400050819091890490959523908346952150C7
:102E50003109C9F6D1CFDF91CF911F910F91FF902A
:102E6000EF900895DF92EF92FF920F931F93CF930D
:102E7000DF938091740490917504892BD1F0209197
:102E80008C0430918D0440918E0450918F0460E049
:102E900074E284EF90E00E94EA2EDA01C9014097C3
:102EA000A109B109B695A795979587958093B80024
:102EB00016C08091720490917304892B31F0809137
:102EC0009504909196040E94270AE0918604F0915F
:102ED0008704908180918B0480958923808365E0AD
:102EE0008AED94E00E947C1660915B04615087E556
:102EF00094E00E94C40920915D0430915E04C901F0
:102F0000079697FD079653E0959587955A95E1F7B3
:102F100020915B0430915C04829F8001839F100D9F
:102F2000929F100D1124C0917604D0917704809166
:102F30007404909175040C0F1D1F009709F451C083
:102F40002091780431E0309373032093950310921D
:102F5000740310929603DC01ED91FC910190F081D5
:102F6000E02D60E40995EE24E394F12CDD24D39464
:102F700080917404909175040C171D0779F1B0E2EB
:102F8000EB16F104D8F00E94201680917804D092BC
:102F900073038093950310927403109296038091AB
:102FA000740490917504DC01ED91FC910190F08125
:102FB000E02D60E40995EE24E394F12C80917404F3
:102FC000909175046991DC01ED91FC910190F08183
:102FD000E02D0995BFEFEB1AFB0ACACF0E9420161D
:102FE00041C0E0918404F0918504908180918A042D
:102FF000892B80830C171D07A9F1899120917204F8
:1030000030917304232B19F00E94BD09F3CF28E0FF
:1030100030E040E8E0918004F091810490918804D0
:10302000582F542319F05081952B03C0508190954F
:1030300095239083E0918204F091830450819091D4
:103040008904952B9083E0918204F0918304508150
:10305000909189049095952390834695215031094C
:10306000C9F6C8CF8091740490917504892BD1F072
:1030700020919004309191044091920450919304D6
:1030800060E074E284EF90E00E94EA2EDA01C90168
:103090004097A109B109B695A79597958795809313
:1030A000B80018C0E0918604F09187049081809167
:1030B0008B04892B80838091720490917304892BF7
:1030C00049F0DF91CF911F910F91FF90EF90DF902A
:1030D0000C94BC09DF91CF911F910F91FF90EF905D
:1030E000DF9008954F925F926F927F928F929F929E
:1030F000AF92BF92CF92DF92EF92FF920F931F9306
:10310000CF93DF9383EDA82E84E0B82E93EB692E46
:1031100094E0792EC0E0D0E020E8822E912C2301AB
:10312000F301219131913F0121503109E12CF12C22
:103130008E01AE0160E070E087E594E00E947406C5
:103140006E01F0E1CF0ED11CF501329122915F01A9
:10315000215031098601A60160E070E087E594E026
:103160000E947406F201808191819401281B390B21
:103170008E01AE016FE770E087E594E00E9474066F
:10318000F501808191819401281B390B8601A601EC
:103190006FE770E087E594E00E9474062196C031E5
:1031A000D10509F0BCCFDF91CF911F910F91FF9016
:1031B000EF90DF90CF90BF90AF909F908F907F90D7
:1031C0006F905F904F90089520915D0430915E0460
:1031D000C901079697FD079623E0959587952A954F
:1031E000E1F720915B0430915C04829FA001839FF2
:1031F000500D929F500D112460E070E08091760494
:10320000909177040C941B312F923F924F925F92D2
:103210006F927F928F929F92AF92BF92CF92DF92E6
:10322000EF92FF920F931F93CF93DF93CDB7DEB74B
:103230002A970FB6F894DEBF0FBECDBF7C015B01AD
:10324000FC018491319624913196E491F82FFF7717
:103250005F2E622F6F7330E0D90196E0B595A79588
:103260009A95E1F79A2F91709A8790E0880F892FAD
:10327000881F990B880F991F220F232F221F330BB2
:10328000282B822F220F990BDC01A25DBE4F4C90A0
:1032900000E010E0712C612C1986262E312CA52D12
:1032A000B0E0BA83A9839C01265D3E4F3C832B830B
:1032B000DC01AA5DBE4FBE83AD839A012E0F311D86
:1032C00038872F83021513050CF04FC0C12CD12C69
:1032D0008F809884800E911E89819A81C816D906A4
:1032E0000CF040C09985911129C0772021F0AA8562
:1032F000B1E0AB27AA87EB81FC816081862D0E941B
:10330000CA2EE82FF0E03396EE0DFF1DE491AD815B
:10331000BE812C91F0E0499EC001112402C0F595B8
:10332000E7958A95E2F7B22FBE23B987B11103C0A2
:103330002987712C02C0772473946394E985E15046
:10334000E987FA85FF2351F021E030E0A401B501BF
:103350006C0D7D1D87E594E00E9442052FEFC21A97
:10336000D20ABACF0F5F1F4FADCF852D2A960FB669
:10337000F894DEBF0FBECDBFDF91CF911F910F91AB
:10338000FF90EF90DF90CF90BF90AF909F908F9085
:103390007F906F905F904F903F902F900895E1ED58
:1033A000F2E09491E2EDF2E04491682F082E000CD7
:1033B000770B292F30E062177307FCF09F5F8F5F58
:1033C000E3EDF2E050E02FEF290F022E000C330B5B
:1033D0004217530794F0981303C0CF010196089544
:1033E0002491211103C031969F5FEDCF249130E0ED
:1033F0002C5F3F4FE20FF31FF7CF80E090E008957E
:10340000FC01248135816217730748F48081918122
:10341000009729F0FC01E60FF71F8081089580E0F6
:1034200008950895CF92DF92EF92FF920F931F932A
:10343000CF93DF936C017A018B01C0E0D0E0CE1511
:10344000DF0581F0D8016D918D01D601ED91FC91E0
:103450000190F081E02DC6010995892B11F021968C
:10346000EECF7E01C701DF91CF911F910F91FF90A9
:10347000EF90DF90CF900895CF93DF93EC01888198
:103480009981009711F00E94BE2F198218821D8227
:103490001C821B821A82DF91CF9108950F931F9394
:1034A000CF93DF93EC0188819981009729F02A81DD
:1034B0003B812617370788F48B016F5F7F4F0E948F
:1034C0004730009761F0998388831B830A832C819E
:1034D0003D81232B11F4FC01108281E001C080E0CA
:1034E000DF91CF911F910F910895EF92FF920F936B
:1034F0001F93CF93DF93EC017B018A01BA010E94F5
:103500004E1A811104C0CE010E943C1A07C01D83CF
:103510000C83B701888199810E942B31CE01DF9104
:10352000CF911F910F91FF90EF9008956F927F922E
:103530008F929F92AF92BF92CF92DF92EF92FF92C3
:103540000F931F93CF93DF934C016B017A015901C5
:10355000F90104910F7310E0C0E0D0E0712CF70185
:1035600084819581C817D90798F4BE01C7010E94CC
:10357000001A803219F4F8E07F0E08C00E94CF19BB
:10358000FC0184918F77780E739473942196E7CF22
:10359000C801870D911DEC01239690E4890E911CC2
:1035A000BE0175956795680D791D601B710BA601AD
:1035B000C5010E940419D7FD2196D595C7958C1A8F
:1035C0009D0A00E010E0C0E0D0E0F7018481958121
:1035D00008171907B8F4B801C7010E94001A803211
:1035E00011F428960CC00E94CF19B4016C0F7D1FF6
:1035F000A6010E94041990E00296C80FD91F0F5F20
:103600001F4FE3CFDF91CF911F910F91FF90EF906C
:10361000DF90CF90BF90AF909F908F907F906F90F2
:1036200008950F931F93CF93DF938C01EB01FC015F
:1036300080819181009739F06881798161157105E8
:10364000A1F40E94BE2F88819981F8019183808323
:103650008A819B81938382838C819D8195838483DE
:10366000198218821B821A820FC0F801428153818D
:103670002C813D814217530720F30E942B318C810E
:103680009D81F801958384831D821C82DF91CF91F7
:103690001F910F91089590E0FC01E95EF54F249190
:1036A000FC01ED5FF54F8491882399F090E0880F3D
:1036B000991FFC01E750F64FA591B491FC01E1512F
:1036C000F64F859194918FB7F894EC91E22BEC939F
:1036D0008FBF08952F923F924F925F926F927F9289
:1036E0008F929F92AF92BF92CF92DF92EF92FF9212
:1036F0000F931F93CF93DF93CDB7DEB76B970FB6C2
:10370000F894DEBF0FBECDBF9B8F8A8F1B014A018D
:10371000D22E198708873701A982DC0159962D918D
:103720003C915A972115310509F0FFC018968D91EB
:103730009C911997681779070CF0E7C11A968D913B
:103740009C911B97481759070CF0DFC1EC2DF0E056
:10375000FB83EA839B0146E0C49E200D311D1124AA
:103760003D872C87121613060CF0CFC16A2D70E02E
:103770007B876A8783E0660F771F8A95E1F77F87EB
:103780006E87CB01880D991D181619060CF0BDC166
:1037900058968C91811104C08FEA8D1508F4D3944A
:1037A000AA8DBB8DED91FC9111970284F385E02DDC
:1037B000CD010995B5E0DB9EC0011124EC2DF0E0B0
:1037C000F98BE88B91012B5F3F4F3B8B2A8B3D821E
:1037D0002C822101AC01421953095D8B4C8B7981FC
:1037E000672F70E07F8B6E8BC4010896998F888F4E
:1037F000EC89FD89E40DF51DE151FB4FD490540196
:103800009F828E82D0FE16C0AA8DBB8DED91FC9159
:10381000B1E0CB1209C02981213031F40484F5854F
:10382000E02D2885398519C00684F785E02DE884C8
:10383000F9841DC0488559854615570519F1AA8D8B
:10384000BB8DED91FC91B1E0CB120DC029812130EF
:1038500051F40484F585E02D9301A501B2018A8D10
:103860009B8D09950FC00684F785E02D73010A85AD
:103870001B852A813B814E815F816C817D818A8D90
:103880009B8D0995D6943FEFA31AB30A4E815F81B1
:103890006E897F89460F571F5F834E83888D998D70
:1038A000A816B90609F0AECF9FEF491A590AAC81A4
:1038B000BD81E889F989AE0FBF1FBD83AC832A891A
:1038C0003B894216530609F093CF48855985461522
:1038D000570509F4F8C0AA8DBB8DED91FC91B1E0BC
:1038E000CB1211C02981213071F4B1016B5F7F4F80
:1038F0000088F189E02D830128E030E0A4018A8D61
:103900009B8D0995E0C06C857D854A815B81641B38
:10391000750B0684F785E02D73010E851F859A01CE
:10392000A4018A8D9B8D0995CEC0F9013496E4914E
:10393000DE1AF901329685919491B7E0DB9E800DF5
:10394000911D1124F901259134913B8B2A8BFC01A7
:10395000259134915901FC0132965490319634915D
:103960003C87329674903196149141E04C1518F0D2
:103970005981523068F0672D072C000C770B7D833E
:103980006C83812F012E000C990B9B838A8304C0CA
:103990001B821A821D821C82AA8DBB8DED91FC9127
:1039A00011970284F385E02DCD010995412CD12C8E
:1039B000612CF981EF2FF0E0FF83EE832C2D30E0B6
:1039C0003B872A87A401410F511D17FD5A955F8B34
:1039D0004E8BB101670D711D77FC7A95798F688FD9
:1039E0007C85671608F06FC0262D30E04A815B8128
:1039F000420F531FAE81BF81A49FC001A59F900DB0
:103A0000B49F900D1124F401E80FF91FF98BE88B96
:103A1000842D712C4E895F89420F531F5D8B4C8B17
:103A2000751408F04DC051E0580F5E87877041F45F
:103A3000C5010196EA89FB89EA0DFB1DD4905C0162
:103A4000D7FE3AC061E0C61216C07981713099F490
:103A5000AA8DBB8DED91FC9111970484F585E02D25
:103A6000288539854C895D89688D798D670D711D33
:103A7000CD01099521C08C819D81870D911DEA851D
:103A8000FB858E9FB0018F9F700D9E9F700D11243E
:103A9000620D731DAA8DBB8DED91FC91119706846B
:103AA000F785E02DE884F9840E811F812A853B8506
:103AB00048895989CD010995DD0C73948E85B0CF65
:103AC000450C63948DCFAA8DBB8DED91FC91119720
:103AD0000688F789E02DCD016B960FB6F894DEBF0E
:103AE0000FBECDBFDF91CF911F910F91FF90EF904F
:103AF000DF90CF90BF90AF909F908F907F906F900E
:103B00005F904F903F902F9009946B960FB6F8946A
:103B1000DEBF0FBECDBFDF91CF911F910F91FF9000
:103B2000EF90DF90CF90BF90AF909F908F907F905D
:103B30006F905F904F903F902F9008950F931F9339
:103B4000CF93DF9377FF04C0260F371F60E070E04C
:103B5000DC011496CD91DC911597FB01E20FF31F68
:103B6000CE17DF071CF49E01261B370B1216130617
:103B70000CF046C0FA0157FD3796DF01E3E0B5953A
:103B8000A795EA95E1F7AC9FF001AD9FF00DBC9FC2
:103B9000F00D11246E0F7F1FDC015F96ED91FC91FB
:103BA0009097E60FF71F4770552781E090E001C01E
:103BB000880F4A95EAF7482F0130110539F078F05F
:103BC00002301105E9F42E0F3F1F13C02E0F3F1FC7
:103BD000E217F307A9F08081842B8193F9CF8095B8
:103BE0002E0F3F1FE217F30759F09081982391930E
:103BF000F9CFE217F30721F0808184278193F9CF71
:103C0000DF91CF911F910F910895EF92FF920F9343
:103C10001F93CF93DF93EC0177FDA5C0EC80FD806F
:103C20006E157F050CF09FC057FF04C0240F351F91
:103C300040E050E08E819F81FA01E20FF31F8E1762
:103C40009F071CF49C01241B350B121613060CF065
:103C50008AC0922F842F8695869586958E9DD00159
:103C60008F9DB00D11246A0F7B1FAF8DB8A1A60FD9
:103C7000B71F4770B1F188E0841B482F682F70E0B0
:103C8000FB01E951FB4FE491281798F4621B71097D
:103C90002FEF30E002C0359527956A95E2F7E223D1
:103CA0000130110549F078F00230110509F05BC0D0
:103CB0000EC00130110519F48C91E82B0AC00130B7
:103CC000110508F049C0E0958C91E82302C08C9161
:103CD000E827EC93941708F446C02C813D81A20F8D
:103CE000B31FE92FE41BE830F8F00230110561F44E
:103CF0008E2F9C9190959C932C813D81A20FB31F98
:103D000088508830B0F70FC081E00115110509F423
:103D100080E081959E2F8C932C813D81A20FB31F53
:103D200098509830C0F7E770EE23E9F0F0E0E152E8
:103D3000FB4FE4910130110539F048F002301105D4
:103D400091F48C91E82706C08C91E82B03C0E09594
:103D50008C91E823EC9307C00230110509F4B7CF2A
:103D6000AE0DBF1DBECFDF91CF911F910F91FF9080
:103D7000EF900895EF92FF920F931F93CF93DF93ED
:103D8000EC018B016115710551F0CB010E947F2878
:103D90007C01BC01CE010E944E1A811104C0CE01EB
:103DA0000E943C1A07C0FD82EC82B801888199818B
:103DB0000E947828CE01DF91CF911F910F91FF9043
:103DC000EF900895FC01808191810C94BE2FEF92B9
:103DD000FF920F931F93CF93DF93CDB7DEB7A197D9
:103DE0000FB6F894DEBF0FBECDBF7C01CB01BA0188
:103DF000F70111821082138212821582148242E02E
:103E0000420F8E010F5F1F4F0E945828009769F0E4
:103E1000FC0101900020E9F73197AF01481B590BD5
:103E2000BC01C7010E94751A03C0C7010E943C1A59
:103E3000A1960FB6F894DEBF0FBECDBFDF91CF9134
:103E40001F910F91FF90EF900895FC011182108255
:103E500013821282158214826115710551F0FB01E3
:103E600001900020E9F73197AF01461B570B0C94E6
:103E7000751A0895CF93DF93CDB7DEB727970FB6A6
:103E8000F894DEBF0FBECDBF789484B5826084BD48
:103E900084B5816084BD85B5826085BD85B581604E
:103EA00085BD80916E00816080936E0010928100CC
:103EB0008091810082608093810080918100816087
:103EC0008093810080918000816080938000809148
:103ED000B10084608093B1008091B00081608093D4
:103EE000B00080917A00846080937A0080917A009B
:103EF000826080937A0080917A00816080937A005A
:103F000080917A00806880937A001092C100E091DD
:103F1000A703F091A80382E08083E091A303F091CE
:103F2000A4031082E091A503F091A60380E18083B1
:103F30001092AF03E091AB03F091AC0386E0808375
:103F4000E091A903F091AA03808180618083E091D0
:103F5000A903F091AA03808188608083E091A9037E
:103F6000F091AA03808180688083E091A903F09199
:103F7000AA0380818F7D8083009192051091930523
:103F8000E0909005F09091050E151F0591F5C80180
:103F9000089681382FE3920718F4880F991F02C002
:103FA0008FEF9FEF0E94262F6C01809194059091D6
:103FB0009505DC01F60120E030E02017310739F0EB
:103FC0004D915D91419351932F5F3F4FF6CF1E145A
:103FD0001F0414F40E94BE2FD0929505C092940540
:103FE000809190059091910508969093910580930A
:103FF00090058091920590919305209194053091C0
:1040000095059C01220F331FE0919405F0919505D1
:10401000E20FF31F28EE34E0318320830196909362
:1040200093058093920587E993E0909345058093EB
:10403000440500E010E00E942C15F801E050FB4F11
:1040400080830F5F1F4F00311105A9F78091A005F4
:104050009091A1059C838B83809146058F838091ED
:1040600047058E83BE01695F7F4FCE0103960E9494
:10407000FE14BE016A5F7F4FCE0103960E94FE14BC
:104080008E81809347058F818093460580914605F8
:104090008A3F08F072C41D82BE016B5F7F4FCE0164
:1040A00003960E94FE148D81873319F481E080937A
:1040B000970580914605882309F463C480914605DD
:1040C0008F3F09F45EC480914705882309F470C4CA
:1040D000809147058F3F09F46BC482E08093B00064
:1040E00086E08093B1008DE78093B30080917000EB
:1040F0008260809370008091760490917704892B80
:1041000011F520915D0430915E04C901079697FD79
:104110000796B3E095958795BA95E1F720915B04F2
:1041200030915C04AC01429FC001439F900D529FAF
:10413000900D11240E94262F90937704809376048B
:10414000892B09F408C10E94E41882E08093790465
:104150008091740490917504892B09F441C48CE317
:1041600080937804109200021092FF011092740361
:10417000109296031092720381E080937103109263
:104180004C0361E082E10E94911261E083E10E94B0
:1041900091128091B9008E7F8093B9008091B9000F
:1041A0008D7F8093B90088E48093B80085E4809384
:1041B000BC008AEC9FE09093FE018093FD018BECA4
:1041C0009FE09093FC018093FB0180917F0487FD29
:1041D0001DC00E944B1B61E080917F040E949112E0
:1041E00061E070E080E090E00E94DE1260E080918B
:1041F0007F040E9491126AE070E080E090E00E94EB
:10420000DE1261E080917F040E949112809174041B
:1042100090917504892B09F49AC420918C043091F3
:104220008D0440918E0450918F0460E074E284EF1D
:1042300090E00E94EA2EDA01C9014097A109B10974
:10424000B695A795979587958093B80064E084E527
:1042500092E00E947C1660915D04615087E594E0D5
:104260000E94C40964E080E592E00E947C1680917F
:104270007904813009F482C464E187E594E00E9406
:10428000C40964E08CE492E00E947C168FE880937D
:10429000940480915B0490915C048038910509F04E
:1042A00071C480915D0490915E048034910509F0A1
:1042B0007BC480917904813009F462C48FEC8093CF
:1042C000940412E16AED87E594E00E94C409612F2D
:1042D00087E594E00E94C40961E887E594E00E94C4
:1042E000C4096091940487E594E00E94C40969EDD3
:1042F00087E594E00E94C40980917904813009F433
:1043000055C461EF87E594E00E94C40966E086E445
:1043100092E00E947C168091740490917504892B20
:1043200009F446C420919004309191044091920484
:104330005091930460E074E284EF90E00E94EA2ED2
:10434000DA01C9014097A109B109B695A7959795DA
:1043500087958093B8000E94E41861E070E080E0E7
:1043600090E00E94DE1262E087E594E00E94000681
:1043700040E050E06FE270E088E592E00E940419AE
:104380000E94321760ED77E080E090E00E94DE123C
:1043900080919B0490919C04FC01EE0FFF1FEC5256
:1043A000FB4F28E03BE031832083FC01EE0FFF1F31
:1043B000EA52FB4F24EA3AE031832083029690933D
:1043C0009C0480939B045A9AFF24F394B2E02B2E12
:1043D00015EE312E05ECE02E0E9418130091FB0221
:1043E0001091FC022091FD023091FE02DC01CB0114
:1043F000801B910BA20BB30B0297A105B10508F42A
:10440000B9C24A9B03C01092FA024BC08091FA02D3
:1044100081110AC00E9418136093F6027093F7028C
:104420008093F8029093F9020E9418134090F602CC
:104430005090F7026090F8027090F902DC01CB0115
:1044400084199509A609B709893B9B40A105B105C7
:1044500048F0109225021092260210922702109224
:1044600028021DC00E941813DC01CB018419950994
:10447000A609B709C397A105B10588F0809121026B
:1044800090912202A0912302B0912402B05880930F
:10449000250290932602A0932702B0932802F0925F
:1044A000FA0280914004909172039111FCCFF09236
:1044B0007203F09271039FEF9093700310926F0359
:1044C000F0926E03F0924D0390914D03880F892B6B
:1044D00080934D0380914C03813069F410924C031A
:1044E00080914D038093BB008091BC0083FDF8CF89
:1044F000E092BC0002C03092BC0080917203813017
:10450000E1F380916F03823018F4D0906F0302C002
:1045100062E0D62EEEE4F3E0A1E0B2E080E08D159B
:1045200021F091919D938F5FFACF10920002D0926B
:10453000FF0180910002D816E9F084E394E00E9424
:10454000DC0F8C0184E394E00E94DC0F11279801BA
:1045500046E0359527954A95E1F73093500420932E
:104560004F04102F0027082B1F7310935204009341
:104570005104DFCF8091510490915204C0904B04BC
:10458000D0904C0400914D0410914E048C159D0563
:1045900070F0B8018017910708F4BC016C197D090F
:1045A00080E090E00E94BF2A4B015C0103C0812C97
:1045B000912C540140904104509042046090430477
:1045C00070904404A30192016091450470914604E7
:1045D00080914704909148040E942B2CA5019401DE
:1045E0000E94202B4B015C01B8016C197D0980E011
:1045F00090E00E94BF2A9B01AC01C501B4010E945A
:10460000982CA30192010E942C2C60935304709368
:1046100054048093550490935604EEEEF2E0DF01CB
:104620003E912E911E910E9114960D931D932D93F4
:104630003C9317972AE232E02A173B0789F76093E9
:104640002A0270932B0280932C0290932D023291B8
:10465000229112910291048315832683378332E0DD
:10466000EA32F307A1F70EE212E0F801219131914D
:10467000419151918F010E942C2C22EF32E02017A2
:10468000310799F720E030E048E452E40E94982C8A
:104690006093F2027093F3028093F4029093F50218
:1046A000609321027093220280932302909324024C
:1046B0002091250230912602409127025091280234
:1046C0000E942C2C6093FC047093FD048093FE04E4
:1046D0009093FF046093F0047093F1048093F204CC
:1046E0009093F30460919B0470919C041616170636
:1046F0000CF036C18091D3048111C3C04090AB044B
:104700005090AC046090AD047090AE0420E030E0B6
:1047100040E05FE3C301B2010E94BA2A18166CF0B0
:10472000A3019201C301B2010E942C2C9B01AC0198
:10473000C301B2010E94202B20C020E030E040E005
:104740005FE3C301B2010E942B2C20E030E040E087
:104750005FE30E94452D23EF34E045E35FE30E94D1
:10476000982C20E030E040E05FE30E94202B20E026
:1047700030E040E05FE30E942C2C2B013C019B01C8
:10478000AC0160E070E080E89FE30E942B2C20E009
:1047900030E0A9010E94202B5B016C0120E030E099
:1047A0004EEF52ECC301B2010E94202B9B01AC01E1
:1047B000C601B5010E942C2C0E940A2D2B013C0140
:1047C0000E94E41880919D0490919E0497FD0CC076
:1047D000880F991FFC01EC52FB4F0190F081E02DF6
:1047E00060E070E0C20109953FE7430E511C8091E3
:1047F0009D0490919E04019660919B0470919C048D
:104800000E94D62EFC01EE0FFF1FEC52FB4F0190D1
:10481000F081E02D60E070E0C20109950E947218FD
:104820000E9432172DEC3CEC4CE45DE36091AB044C
:104830007091AC048091AD049091AE040E942C2C38
:104840002B013C012EEA37E441E85FE30E94402D52
:1048500018164CF04092AB045092AC046092AD0438
:104860007092AE047DC01092AB041092AC04109212
:10487000AD041092AE048091D3048F5F8093D30473
:104880006FC08130C1F56130710591F180919D0457
:1048900090919E0401960E94D62EFC01EE0FFF1F00
:1048A000EC52FB4F0190F081E02D60E070E080E081
:1048B00090E009950E9472180E9432178091D304EB
:1048C0008F5F8093D3040E9418136093A3047093A6
:1048D000A4048093A5049093A6040E9418136093E7
:1048E000A7047093A8048093A9049093AA0438C0E5
:1048F0002092D30435C0823099F50E94181300919C
:10490000A3041091A4042091A5043091A604AB0146
:10491000BC01401B510B620B730B8091970490916B
:104920009804092E000CAA0BBB0B84179507A60749
:10493000B70708F050C160919B0470919C046230ED
:1049400071050CF448C11092D30480919D0490919C
:104950009E0401960E94D62E90939E0480939D04FF
:104960000E9418136093FB027093FC028093FD0277
:104970009093FE020E94690F2FCD8FEF8093460522
:104980008ACB0E942C1590E069EF70E00E94D62E31
:1049900011E0180F8091A0059091A1059A83898359
:1049A000612FCE0101960E941915109346058BCBFD
:1049B0000E942C1590E069EF70E00E94D62E11E065
:1049C000180F8091A0059091A10501969A83898383
:1049D000612FCE0101960E941915109347057DCBDA
:1049E00080917D040E944B1B80917E040E944B1B92
:1049F00080917D04082E000C990BFC01ED5FF54FB2
:104A0000E491F0E0EE0FFF1FE151F64F2591349154
:104A10003093850420938404FC01E95EF54FE49112
:104A2000E0938A0480917E04082E000C990BFC010F
:104A3000ED5FF54FE491F0E0EE0FFF1FE151F64F0F
:104A4000A591B491B0938704A0938604FC01E95E1C
:104A5000F54FE491E0938B048C91E82BEC938091DB
:104A6000720490917304892B89F11FB7F894809197
:104A70002902811124C0EDE0FAE08491E1E2FAE03C
:104A80009491E82FF0E0EE0FFF1FE750F64FA5914D
:104A9000B491EC91E92321F461E08AE00E94911243
:104AA0008AE00E944B1B8CB580618CBD8CB5806404
:104AB0008CBD8DE00E944B1B8BE00E944B1B8091B4
:104AC00029028F5F809329021FBF7FCB80917B04D7
:104AD0000E944B1B80917C040E944B1B80917B04A5
:104AE000082E000C990BFC01ED5FF54FE491F0E00E
:104AF000EE0FFF1FE151F64F259134913093810461
:104B000020938004FC01E95EF54FE491E093880472
:104B100080917C04082E000C990BFC01ED5FF54F91
:104B2000E491F0E0EE0FFF1FE151F64FA591B49133
:104B3000B0938304A0938204FC01E95EF54FE491F5
:104B4000E09389048C91E095E823EC933ECB80912F
:104B5000720490917304892B31F0809195049091A7
:104B600096040E94270AE0918604F09187049081C0
:104B700080918B0480958923808368CB60E17DCB15
:104B80008FE99DCB8036910579F480915D049091F9
:104B90005E04409749F480917904813011F08FEAE6
:104BA00001C080E18093940412E08CCB62E2AACB36
:104BB000E0918604F0918704908180918B04892B89
:104BC00080838091720490917304892B09F4C3CB84
:104BD0000E94BC09C0CB0E9418130091A704109139
:104BE000A8042091A9043091AA04AB01BC01401B88
:104BF000510B620B730B8091990490919A04092ECA
:104C0000000CAA0BBB0B84179507A607B70708F083
:104C1000A7CE0E9418136093A7047093A8048093F2
:104C2000A9049093AA040E94E41880919D04909195
:104C30009E04019660919B0470919C040E94D62E64
:104C4000FC01EE0FFF1FEC52FB4F0190F081E02DB5
:104C500060E070E080E090E009950E9472180E9488
:104C600032177ECE88EA91E09093E9048093E804BD
:104C700088EE94E00E949C148CE791E09093580495
:104C8000809357048091760490917704009711F0F7
:104C90000E94BE2F809190059091910518161906DB
:104CA00044F48091940590919505009711F00C942F
:104CB000BE2F0895FF920F931F93CF93DF9300D0E1
:104CC00000D000D0CDB7DEB7E7E9F3E0138212825F
:104CD00048EE53E060E070E0448355836683778359
:104CE00086E391E09183808385EC90E095878487CB
:104CF00084EC90E09787868780EC90E0918B808BA6
:104D000081EC90E0938B828B82EC90E0958B848B8E
:104D100086EC90E0978B868B118E128E138E148EFC
:104D2000A4E3B4E013961C921E92129714964D932E
:104D30005D936D937C93179788E491E011969C9313
:104D40008E931092460510924705109249051092D5
:104D5000480510928B0510928C0510928D051092CB
:104D60008F05109291051092900510929305109264
:104D70009205109295051092940510929605109246
:104D80009705109299051092980510929B05109224
:104D90009A0510929D0510929C0510929F05109205
:104DA0009E051092A1051092A005E7E5F4E013829C
:104DB000128220E830E03583248380E290E09783FC
:104DC00086833187208793878287168A1586148683
:104DD00017861686FF24F394F58AF48A2FEF3FEFA7
:104DE000338B228B318B208BF78A108E128E118E93
:104DF000148E138EB68FA58F10A2178E8FEF84A3FB
:104E000085A386A387A380A780E89AE1A6E0B0E007
:104E100085AB96ABA7ABB0AF80EA96E8A1E0B0E077
:104E200081AF92AFA3AFB4AF80E586AF17AE8CE78A
:104E300091E09183808388EB9BE09093980480932A
:104E4000970484E690E090939A04809399041092DA
:104E50009C0410929B0430939E0420939D04109216
:104E60009F041092A0041092A1041092A204109228
:104E7000A3041092A4041092A5041092A604109208
:104E8000A7041092A8041092A9041092AA041092E8
:104E9000AB041092AC041092AD041092AE041092C8
:104EA000AF041092B0041092B1041092B20480E2E8
:104EB000E6E0F1E0A3EBB4E001900D928A95E1F712
:104EC0001092D3046DEE71E0CE0101960E94251F71
:104ED000CE0101960E94C127CE0101960E94E21EDA
:104EE00008EE14E0F80116821086118612861386E9
:104EF0001486158616861786108A118A128A138AD6
:104F0000F58282E090E00E94262FF801948383834B
:104F1000FC0111821082F801148A158A168A178AF8
:104F20008AEC91E0918380838FE2828326960FB68C
:104F3000F894DEBF0FBECDBFDF91CF911F910F91CF
:104F4000FF900895FC0124813581232B31F421E069
:104F500061157105A1F0FB0108C0FC018081918100
:104F60006115710531F421E0FC018081882339F05D
:104F700005C00E94223121E0892B09F020E0822F18
:104F80000895CF93DF9300D000D000D0CDB7DEB727
:104F900026E636E030934C0420934B042AE939E3AB
:104FA00030934E0420934D0428E22093400440E8BF
:104FB0005EEF69EC77EC40934104509342046093B8
:104FC00043047093440440E85EEF69EC77E4409357
:104FD00045045093460460934704709348041A8232
:104FE00019821C821B821E821D82FC0160817181DC
:104FF0006115710531F044815581CE0101960E9401
:10500000751A68EE71E0CE0101960E94A2278823EE
:1050100029F010924A04109249043DC06DEE71E0EF
:10502000CE0101960E94A227882319F081E090E02A
:105030002EC06CEE71E0CE0101960E94A22788235B
:1050400019F082E090E023C060EF71E0CE0101969C
:105050000E94A227882319F083E090E018C064EF33
:1050600071E0CE0101960E94A227882319F084E006
:1050700090E00DC065EF71E0CE0101960E94A2277D
:10508000882319F085E090E002C086E090E09093DC
:105090004A0480934904CE0101960E94E21E26969E
:1050A0000FB6F894DEBF0FBECDBFDF91CF9108954C
:1050B000EF920F931F93CF93DF93E80147FD02C058
:1050C00034E001C034E1042E000C550B57FF03C03F
:1050D000519541955109E32E022F242FAE010E94D4
:1050E0008828CE01DF91CF911F910F91EF90089505
:1050F000FB01DC0105900D920020E1F70895FC0111
:1051000005900020E9F7809590958E0F9F1F0895D8
:10511000A9E0B0E0EEE8F8E20C94FA2B6A01122F55
:10512000B02E2BE3201720F0FF24F394F00E02C0E2
:105130002CE3F22E0F2D27E0AE014F5F5F4F0E9450
:10514000E229BC014981842F8970813031F0E1FC72
:1051500006C0E0FE06C090E205C09DE203C09BE2EF
:1051600001C090E05E2D507143FF3CC0911102C020
:1051700083E001C084E0811718F4212F281B01C0AF
:1051800020E051110BC0F601822F30E2882319F084
:1051900031938150FBCFC20ED11C20E0992329F01E
:1051A000D6019C93F60131966F01C6010396E2FE8B
:1051B0000AC03EE4D6013C9341E411964C9311970A
:1051C00012963C9306C03EE6F601308341E64183E9
:1051D0003283FC01322F40E2332309F442C0419371
:1051E0003150FACF42FF44C0911102C083E001C0A8
:1051F00084E0811718F4212F281B01C020E05111F1
:105200000BC0F601822F30E2882319F031938150D0
:10521000FBCFC20ED11C20E0992329F0D6019C932C
:10522000F60131966F01C6010396E2FE0BC039E428
:10523000D6013C933EE411963C93119736E41296C6
:105240003C9307C039E6F60130833EE6318336E60B
:105250003283FC01322F40E2332319F04193315065
:10526000FBCFFC01E20FF11D10828EEF9FEFA6C075
:1052700021E030E0911102C020E030E01616170660
:105280001CF4FB01319602C0E1E0F0E02E0F3F1F5D
:10529000BB2021F0EB2DF0E0319602C0E0E0F0E021
:1052A0002E0F3F1FE12FF0E02E173F071CF4121BBB
:1052B000212F01C020E08E2D887159F4F601822F34
:1052C00030E2882319F031938150FBCFC20ED11CFC
:1052D00020E0992329F0D6019C93F60131966F01C5
:1052E00051110BC0F601822F90E3882319F091939E
:1052F0008150FBCFC20ED11C20E00F2D060F9A81EA
:10530000342F307144FF03C0913309F4015010165B
:1053100024F4093018F008E001C001E0AB0177FF88
:1053200002C040E050E0FB01E41BF50BA1E0B0E05F
:10533000AC0FBD1FEA0FFB1F8EE2A82E4B01801A97
:1053400091080B2D10E01195019511094F3FBFEF0A
:105350005B0721F4D601AC9211966D0164177507B5
:105360002CF08416950614F4818101C080E341502D
:1053700051093196D60111967D014017510724F04D
:10538000D6018C936701E2CF6417750739F4963321
:1053900020F4953319F4311101C081E3F6018083C3
:1053A000F701822F90E2882319F091938150FBCF6F
:1053B000F701E20FF11D108280E090E02996ECE009
:1053C0000C94162C283008F027E03327DA01990FC7
:1053D000311D87FD916000966105710539F43260D9
:1053E0002E5F3D9330E32A95E1F708959F3F30F01B
:1053F00080387105610509F03C5F3C5F3D93913059
:1054000008F08068911DDF93CF931F930F93FF9255
:10541000EF92192F987F9695E92F96959695E90F1B
:10542000FF27EC5BFE4F99273327EE24FF24A701CB
:10543000E70105900894079428F4360FE71EF81E3C
:10544000491F511D660F771F881F991F0694A1F7EA
:105450000590079428F4E70EF81E491F561FC11D3A
:10546000770F881F991F661F0694A1F70590079470
:1054700028F4F80E491F561FC71FD11D880F991F0A
:10548000661F771F0694A1F70590079420F4490F33
:10549000561FC71FD81F990F661F771F881F0694B6
:1054A000A9F784911095177041F0D695C795579537
:1054B0004795F794E7941A95C1F7EAEEF0E06894FF
:1054C0001590159135916591959105907FE27395B1
:1054D000E118F10A430B560BC90BD009C0F7E10CD8
:1054E000F11E431F561FC91FD01D7EF4703311F4E7
:1054F0008A95E6CFE894015030F0080F0AF40027AF
:10550000021708F4202F2395022F7A3328F079E32D
:105510007D932A95E9F710C07D932A9589F6069424
:1055200097956795379517951794E118F10A430BEE
:10553000560BC90BD00998F023957E9173957A3359
:1055400008F070E37C932013B8F77E9170617D932F
:1055500030F0839571E37D9370E32A95E1F7112490
:10556000EF90FF900F911F91CF91DF91992787FDC9
:10557000909508950E94FC2A08F481E00895E8942B
:1055800009C097FB3EF490958095709561957F4F8B
:105590008F4F9F4F9923A9F0F92F96E9BB27939539
:1055A000F695879577956795B795F111F8CFFAF449
:1055B000BB0F11F460FF1BC06F5F7F4F8F4F9F4F7A
:1055C00016C0882311F096E911C0772321F09EE8D8
:1055D000872F762F05C0662371F096E8862F70E03E
:1055E00060E02AF09A95660F771F881FDAF7880F18
:1055F0009695879597F90895990F0008550FAA0B6E
:10560000E0E8FEEF16161706E807F907C0F01216D5
:105610001306E407F50798F0621B730B840B950BD8
:1056200039F40A2661F0232B242B252B21F408952D
:105630000A2609F4A140A6958FEF811D811D0895CA
:105640000E94332B0C94A42B0E94962B38F00E94BE
:105650009D2B20F0952311F00C948D2B0C94932B03
:1056600011240C94D82B0E94B52B70F3959FC1F395
:10567000950F50E0551F629FF001729FBB27F00D00
:10568000B11D639FAA27F00DB11DAA1F649F662755
:10569000B00DA11D661F829F2227B00DA11D621FA4
:1056A000739FB00DA11D621F839FA00D611D221F5E
:1056B000749F3327A00D611D231F849F600D211D42
:1056C000822F762F6A2F11249F5750409AF0F1F0C5
:1056D00088234AF0EE0FFF1FBB1F661F771F881F2E
:1056E00091505040A9F79E3F510580F00C948D2BAE
:1056F0000C94D82B5F3FE4F3983ED4F386957795CE
:105700006795B795F795E7959F5FC1F7FE2B880FD3
:10571000911D9695879597F9089597F99F6780E869
:1057200070E060E008959FEF80EC089500240A94F3
:105730001616170618060906089500240A9412166C
:105740001306140605060895092E0394000C11F49F
:10575000882352F0BB0F40F4BF2B11F460FF04C04C
:105760006F5F7F4F8F4F9F4F089557FD9058440FA5
:10577000551F59F05F3F71F04795880F97FB991FB0
:1057800061F09F3F79F0879508951216130614066D
:10579000551FF2CF4695F1DF08C0161617061806FA
:1057A000991FF1CF86957105610508940895E894D5
:1057B000BB2766277727CB0197F90895F999FECF84
:1057C00092BD81BDF89A992780B50895262FF99941
:1057D000FECF1FBA92BD81BD20BD0FB6F894FA9AD4
:1057E000F99A0FBE019608952F923F924F925F92C1
:1057F0006F927F928F929F92AF92BF92CF92DF92E1
:10580000EF92FF920F931F93CF93DF93CDB7DEB745
:10581000CA1BDB0B0FB6F894DEBF0FBECDBF0994D9
:105820002A88398848885F846E847D848C849B8430
:10583000AA84B984C884DF80EE80FD800C811B813E
:10584000AA81B981CE0FD11D0FB6F894DEBF0FBE6D
:10585000CDBFED0108955058BB27AA270E94432CC5
:105860000C94A42B0E94962B38F00E949D2B20F0C4
:1058700039F49F3F19F426F40C94932B0EF4E09521
:10588000E7FB0C948D2BE92F0E94B52B58F3BA1728
:10589000620773078407950720F079F4A6F50C9446
:1058A000D72B0EF4E0950B2EBA2FA02D0B01B901CA
:1058B00090010C01CA01A0011124FF27591B99F086
:1058C000593F50F4503E68F11A16F040A22F232F92
:1058D000342F4427585FF3CF469537952795A795E2
:1058E000F0405395C9F77EF41F16BA0B620B730B89
:1058F000840BBAF09150A1F0FF0FBB1F661F771FFA
:10590000881FC2F70EC0BA0F621F731F841F48F4AE
:10591000879577956795B795F7959E3F08F0B0CF37
:105920009395880F08F09927EE0F9795879508951E
:105930000E94AC2C0C94A42B0E949D2B58F00E942A
:10594000962B40F029F45F3F29F00C948D2B5111D8
:105950000C94D82B0C94932B0E94B52B68F39923AD
:10596000B1F3552391F3951B550BBB27AA2762175B
:105970007307840738F09F5F5F4F220F331F441F68
:10598000AA1FA9F335D00E2E3AF0E0E832D091509C
:105990005040E695001CCAF72BD0FE2F29D0660F89
:1059A000771F881FBB1F261737074807AB07B0E8CC
:1059B00009F0BB0B802DBF01FF2793585F4F3AF0D2
:1059C0009E3F510578F00C948D2B0C94D82B5F3FA3
:1059D000E4F3983ED4F3869577956795B795F79558
:1059E0009F5FC9F7880F911D9695879597F9089540
:1059F000E1E0660F771F881FBB1F621773078407DC
:105A0000BA0720F0621B730B840BBA0BEE1F88F7EA
:105A1000E09508950E94112D6894B1110C94D82B33
:105A200008950E94BD2B88F09F5798F0B92F9927B1
:105A3000B751B0F0E1F0660F771F881F991F1AF079
:105A4000BA95C9F714C0B13091F00E94D72BB1E0DC
:105A500008950C94D72B672F782F8827B85F39F0DB
:105A6000B93FCCF3869577956795B395D9F73EF412
:105A700090958095709561957F4F8F4F9F4F0895BA
:105A80000E94FC2A08F48FEF0895FA01EE0FFF1F21
:105A9000309621053105A1F16115710561F4803859
:105AA000BFE39B0749F168949038810561F0803825
:105AB000BFEF9B0741F099234AF5FF3FE105310510
:105AC000210519F1E8940894E795D901AA2329F44E
:105AD000AB2FBE2FF85FD0F310C0FF5F70F4A69518
