:100000000C9469000C9491000C9491000C94910054
:100010000C9491000C9491000C9491000C9491001C
:100020000C9491000C9491000C9491000C94A105F7
:100030000C9491000C9491000C9491000C949100FC
:100040000C9490030C9491000C942D020C945F0A74
:100050000C9491000C94C6080C9491000C9491009F
:100060000C9491000C94910063616C69620074615E
:1000700072650000000000240027002A0000000034
:1000800000250028002B0000000000230026002986
:100090000004040404040404040202020202020331
:1000A000030303030301020408102040800102043B
:1000B00008102001020408102000000008000201BE
:1000C00000000304070000000000000000009F0A79
:1000D000850A11241FBECFEFD8E0DEBFCDBF11E0EF
:1000E000A0E0B1E0EAE0FAE202C005900D92AC3A7D
:1000F000B107D9F724E0ACEAB1E001C01D92AB34FE
:10010000B207E1F710E0C8E6D0E004C02197FE0195
:100110000E94ED12C736D107C9F70E94280B0C9434
:10012000F8140C940000089580E090E00895FC011C
:10013000538D448D252F30E0842F90E0821B930B4C
:10014000541710F0CF96089501970895FC01918DF2
:10015000828D981761F0828DDF01A80FB11D5D9629
:100160008C91928D9F5F9F73928F90E008958FEF97
:100170009FEF0895FC01918D828D981731F0828D4B
:10018000E80FF11D858D90E008958FEF9FEF0895A2
:10019000FC01918D228D892F90E0805C9F4F821B06
:1001A00091098F739927089580E090E0892B29F0B9
:1001B0000E94FF0881110C9400000895FC016489DD
:1001C0007589868997890895FC01448B558B668BC8
:1001D000778B4087518762877387089508950895C4
:1001E000CF92DF92EF92FF92CF93DF93EC01E88101
:1001F000F981008CF18DE02D0995288939894A898A
:100200005B890E94B3116B017C01688B798B8A8BAF
:100210009B8B8C859D85AE85BF85BC01CD016F5FB5
:100220007F4F8F4F9F4F6C877D878E879F87613071
:1002300071058105910551F00E94E50F9B01AC010C
:10024000C701B6010E941F126B017C01C701B601F4
:10025000DF91CF91FF90EF90DF90CF900895FC0158
:10026000108A118A128A138A1486158616861786B2
:100270000895FC0195819F7071F00380F481E02D59
:1002800080819181009739F0DC01ED91FC9100882B
:10029000F189E02D099460E070E0CB010895FC0144
:1002A000178208950895CF93DF93EC018F81811118
:1002B0000DC0E881F981048CF58DE02DCE01099502
:1002C000688779878A879B8781E08F8368857985AE
:1002D0008A859B85DF91CF910895CF93DF93EC01C1
:1002E0008F8181110DC0E881F981008CF18DE02DA5
:1002F000CE010995688779878A879B8781E08F83FC
:10030000688579858A859B85DF91CF910895DC0189
:1003100015962C9115972F7030E062177307BCF477
:10032000660F771F1396ED91FC911497E60FF71F58
:1003300080819181009759F0FC0122812F3039F49E
:100340000190F081E02D0088F189E02D099460E0B2
:1003500070E0CB01089580E0089581E090E09093F3
:10036000B7018093B60108958F929F92AF92BF928A
:10037000EF92FF920F931F93CF93DF93FB01EE0F4A
:10038000FF1FEC01AB81BC81EA0FFB1FA081B18193
:100390001097C9F01296EC911297EF30A1F4ED91FD
:1003A000FC9111970488F589E02DBA01A901CD01CE
:1003B000DF91CF911F910F91FF90EF90BF90AF9081
:1003C0009F908F90099449015A017B018C0188E12B
:1003D00090E00E94F312EC011E82188619861A869C
:1003E0001B861C861D861E861F86188A198A1A8AF5
:1003F0001B8A81E08D8382E090E00E94F3129C834F
:100400008B83FC01118210828FE08A838BE691E05E
:10041000998388838C8A9D8AAE8ABF8AD801ED91A0
:10042000FC910480F581E02DAE01B701C801DF9198
:10043000CF911F910F91FF90EF90BF90AF909F9041
:100440008F900994CF93DF93EC016BEA71E00E94E7
:10045000240ACE01DF91CF9108951F920F920FB61B
:100460000F9211242F938F939F93EF93FF93E0911B
:10047000E501F091E6018081E091EB01F091EC0162
:1004800082FD12C090818091EE018F5F8F73209169
:10049000EF01821751F0E091EE01F0E0EB52FE4FD8
:1004A000958F8093EE0101C08081FF91EF919F9124
:1004B0008F912F910F900FBE0F901F901895FC01F8
:1004C000848DDF01A80FB11DA35ABF4F2C91848DDD
:1004D00090E001968F739927848FA689B7892C9312
:1004E000A089B1898C91837080648C93938D848D65
:1004F000981306C00288F389E02D80818F7D808368
:100500000895EF92FF920F931F93CF93DF93EC0127
:1005100081E0888F9B8D8C8D981305C0E889F989BF
:10052000808185FD26C0F62E0B8D10E00F5F1F4FDA
:100530000F731127E02E8C8DE8120CC00FB607FC4C
:10054000FACFE889F989808185FFF5CFCE010E9435
:100550005F02F1CF8B8DFE01E80FF11DE35AFF4FD3
:10056000F0829FB7F8940B8FEA89FB8980818062C3
:100570000AC09FB7F894EE89FF896083E889F989FA
:1005800080818370806480839FBF81E090E0DF91F1
:10059000CF911F910F91FF90EF900895CF93DF932C
:1005A000EC01888D8823C9F0EA89FB89808185FD6B
:1005B00005C0A889B9898C9186FD0FC00FB607FCCC
:1005C000F5CF808185FFF2CFA889B9898C9185FF0D
:1005D000EDCFCE010E945F02E7CFDF91CF9108956A
:1005E000833081F028F4813099F08230A1F00895B1
:1005F0008730A9F08830B9F08430D1F48091800040
:100600008F7D03C0809180008F7780938000089554
:1006100084B58F7702C084B58F7D84BD08958091A5
:10062000B0008F7703C08091B0008F7D8093B000C1
:1006300008951F93CF93DF93282F30E0F901E754FB
:10064000FF4F8491F901EB55FF4FD491F901EF561B
:10065000FF4FC491CC23C1F0162F81110E94F002EC
:10066000EC2FF0E0EE0FFF1FE358FF4FA591B49180
:100670009FB7F894111104C08C91D095D82302C073
:10068000EC91DE2BDC939FBFDF91CF911F910895FA
:10069000CF93DF9390E0FC01EB55FF4F2491FC01D9
:1006A000EF56FF4F8491882361F190E0880F991FE6
:1006B000FC01ED58FF4FC591D491FC01E358FF4F69
:1006C000A591B491611109C09FB7F89488812095D4
:1006D00082238883EC912E230BC0623061F49FB794
:1006E000F8948881322F309583238883EC912E2BC8
:1006F0002C939FBF06C08FB7F894E8812E2B2883D8
:100700008FBFDF91CF9108952FB7F8946091B20118
:100710007091B3018091B4019091B5012FBF0895FC
:100720001F920F920FB60F9211242F933F938F9326
:100730009F93AF93BF938091B2019091B301A09129
:10074000B401B091B5013091B10123E0230F2D37F1
:1007500020F40196A11DB11D05C026E8230F0296C5
:10076000A11DB11D2093B1018093B2019093B301FB
:10077000A093B401B093B5018091AD019091AE0109
:10078000A091AF01B091B0010196A11DB11D809360
:10079000AD019093AE01A093AF01B093B001BF91B2
:1007A000AF919F918F913F912F910F900FBE0F901E
:1007B0001F901895EF92FF920F931F93CF93DF93A3
:1007C000EC0189E491E0998388838B819C81892B5A
:1007D00009F100E010E08D818F7090E00817190793
:1007E000CCF4EB81FC81C801880F991FE80FF91F39
:1007F000E080F180E114F10451F0F70182818F3043
:1008000031F4C7010E94DA03C7010E948B130F5F06
:100810001F4FE1CFDF91CF911F910F91FF90EF908C
:100820000895EF92FF920F931F93CF93DF93FC01F4
:10083000258130E062177307C4F48A01660F771FC1
:10084000C381D481C60FD71FE880F980E114F10479
:1008500051F0F70182818F3031F4C7010E94DA0331
:10086000C7010E948B1319830883DF91CF911F91D9
:100870000F91FF90EF9008950F931F93CF93DF9305
:10088000EC018B0188819981803A2FE0920748F42E
:100890000E940211F80180838881998101969983D1
:1008A0008883C801DF91CF911F910F910895CF9355
:1008B000DF93EC0188819981803A2FE0920738F428
:1008C0000E940A1188819981019699838883DF911A
:1008D000CF91089581E0809310011092C801109289
:1008E000C9011092CA011092CB01E0E0F1E0A8EB3F
:1008F000B1E08FEF93E0819391931D921D9221E0DF
:10090000E031F207C1F71092D0011092D10110929C
:10091000D2011092D3011092CC011092CD0110920D
:10092000CE011092CF010895FF920F931F93CF93A2
:10093000DF9300D000D000D0CDB7DEB78B011A8294
:1009400019821C821B821E821D826EE670E0CE011F
:1009500001960E94FC09F801248135818D819E81D8
:100960002817390751F4BE016F5F7F4FC8010E94FD
:10097000CC09FF24F394892B09F0F12C89819A8109
:100980000E948B13FF2041F01092D0011092D101F0
:100990001092D2011092D3011A8219821C821B82FA
:1009A0001E821D8268E670E0CE0101960E94FC095D
:1009B000F801248135818D819E812817390749F4FA
:1009C000BE016F5F7F4FC8010E94CC0911E0892BE7
:1009D00009F010E089819A810E948B1311110E9405
:1009E0006A04812F26960FB6F894DEBF0FBECDBFE6
:1009F000DF91CF911F910F91FF900895CF92DF92D9
:100A0000EF92FF92CF93DF936B017C010E948403EE
:100A1000A70196010E9418119B01AC01AEEFB1E055
:100A20000E943711A70196010E9418112F3F31052E
:100A300041055105B1F0ACF00E948403A701960175
:100A40000E9418119B01AC01AEEFB1E00E9437117A
:100A5000A70196010E941811CEEFD1E0C21BD30B63
:100A600011C00E948403A70196010E9418119B01E6
:100A7000AC01AEEFB1E00E943711A70196010E94D0
:100A80001811E90161E083E00E944803209711F406
:100A900060E004C0CF3FD10551F461E083E0DF9115
:100AA000CF91FF90EF90DF90CF900C941903ECEB77
:100AB000F0E0E491E330F9F048F4E130B9F0E230ED
:100AC000A1F584B5806284BDC8BD34C0E730E9F0CB
:100AD000E83019F1E43049F580918000806280931C
:100AE0008000D0938B00C0938A0024C084B58068B6
:100AF00084BDC7BD1FC08091800080688093800046
:100B0000D0938900C093880015C08091B0008068A0
:100B10008093B000C093B3000DC08091B00080629C
:100B20008093B000C093B40005C0C038D1050CF06C
:100B3000B4CFAECFDF91CF91FF90EF90DF90CF9009
:100B400008951F920F920FB60F9211245F926F9229
:100B50007F928F929F92AF92BF92CF92DF92EF924D
:100B6000FF920F931F932F933F934F935F936F9336
:100B70007F938F939F93AF93BF93EF93FF93CF9305
:100B8000DF93CDB7DEB76E97DEBFCDBF80916F002C
:100B90008D7F80936F00789434E0832E912C809128
:100BA000B6029091B702DC01ED91FC910084F185D1
:100BB000E02D099505970CF47AC09E8E8D8E80915C
:100BC000B6029091B702BE01635E7F4F0E94B309E7
:100BD0008A3A910519F097FD6AC0F1CF8091B6026B
:100BE0009091B702BE01635E7F4F0E94B3097C0102
:100BF00097FDD5CF8091B6029091B702BE01635E9A
:100C00007F4F0E94B3096C0197FF03C0E114F10408
:100C100031F68091B6029091B702BE01635E7F4FBC
:100C20000E94B3093C0197FDBACF8091B602909122
:100C3000B702BE01635E7F4F0E94B3095C0197FD5E
:100C4000AECF8091B6029091B702BE01635E7F4F36
:100C50000E94B3098C0197FDA2CFE114F10439F091
:100C60008091B80290E0E816F90609F098CFC11417
:100C7000D10439F08091B90290E0C816D90609F084
:100C80008ECF9E2D9C258AEA892786258A25582E77
:100C9000502601151105B1F58091B6029091B70269
:100CA000BE01635E7F4F0E94B30997FF46C08091EB
:100CB0006F00826080936F006E960FB6F894DEBF6F
:100CC0000FBECDBFDF91CF91FF91EF91BF91AF915B
:100CD0009F918F917F916F915F914F913F912F9154
:100CE0001F910F91FF90EF90DF90CF90BF90AF904A
:100CF0009F908F907F906F905F900F900FBE0F909E
:100D00001F9018958091B6029091B7029E01235EC4
:100D10003F4FA801BE016F5F7F4F4B010E94440906
:100D20000817190721F6F401219152269F0128196D
:100D3000390928173907C4F3AFCF252D30E08217C2
:100D4000930709F0B4CFE114F10439F08091B802AF
:100D500090E0E816F90609F0AACFC114D10439F0E1
:100D60008091B90290E08C159D0509F0A0CF862DE9
:100D7000813091F48091B8028E1103C081E0C110DE
:100D800001C080E0909104039093BC0291E09093A5
:100D9000FC02811184C1AEC18230A1F42981422FAD
:100DA00050E080E090E0841795074CF4FC01EE5889
:100DB000FD4F3081E65BFF4F30830196F4CF2093E7
:100DC000FC0298C18330B1F411278FE08093BC02FC
:100DD000FE01319680E090E080179107B1F1DC01CF
:100DE000AE58BD4F3C912191321711F08AEA2BC0C9
:100DF0000196F2CF843019F5FA800B8110E08091D2
:100E0000B9029981981303C01092FC0250CF0E943E
:100E1000BE0F65E670E00E94C512992708171907F2
:100E2000E4F080911203909113039A8B898B6F2DBC
:100E3000CE0141960E945704F092B8020EC086304F
:100E400041F48091B9028093BC0281E08093FC025E
:100E500051C1853029F4109208031092FC024AC156
:100E60008D3099F489812091060390910703E22F38
:100E7000F92FE80FF11DE80FF11D0190F081E02D31
:100E800082818093BC0281E008C18930B9F49E015F
:100E90002F5F3F4FF9011127CF01821B930B801762
:100EA00091073CF44191DC01AE58BD4F50964C93F4
:100EB000F3CFF801EE58FD4F108AC2C08A30B9F462
:100EC0009E012F5F3F4FF9011127CF01821B930B2A
:100ED000801791073CF44191DC01AE58BD4F9A96C2
:100EE0004C93F3CFF801EE58FD4F12A6A9C08B30FA
:100EF000D9F5198110929B021092B50262E872E056
:100F0000CE0147960E94240A6CE972E0CE01419618
:100F10000E94240A812F90E0209104033091050360
:100F200082179307C0F4880F991FE0910603F09190
:100F30000703E80FF91F80819181DC01ED91FC919D
:100F40000190F081E02DAE014F5E5F4FBE01695E02
:100F50007F4F099501C080E08093BC0281E08093BF
:100F6000FC0289899A8942C08C3009F046C01981F7
:100F700010929B0262E872E0CE0147960E94240A1A
:100F80009091060380910703E92FF82FE10FF11DDF
:100F9000E10FF11D60817181DB01ED91FC91028017
:100FA000F381E02DAE01495E5F4FCE014196099578
:100FB0006D8989899A89462F5E8920E030E0421741
:100FC000530791F0009729F41092AC01ECEAF1E09C
:100FD00003C0FC01E20FF31F7081F901E454FD4FDF
:100FE00070832F5F3F4FEBCF6093FC020E948B1307
:100FF0008F89988D0E948B1352C0883021F5809183
:10100000BA029091BB0201969093BB028093BA0200
:1010100089812091060390910703E22FF92FE80FB1
:10102000F11DE80FF11D808191814A815B816C8106
:101030007D81DC01ED91FC910488F589E02D099515
:101040001092FC022CC0873009F054C08981209195
:10105000060390910703E22FF92FE80FF11DE80F27
:10106000F11D80819181DC01ED91FC91008CF18D6D
:10107000E02D09959B01AB01BC01498B5A8B6B8B11
:101080007C8B2093BC028A898093BD028B898093DC
:10109000BE028C898093BF0284E08093FC02809121
:1010A000080381110DC0E0910C03F0910D033097FE
:1010B00021F081E080930803099581E08093080383
:1010C00080910903811116C080911203909113033E
:1010D00002969A8B898B67E3CE0141960E94570452
:1010E00081E080930903E0910E03F0910F033097A4
:1010F00009F009958091FC02882309F4D8CD8091EC
:10110000B6029091B702DC01ED91FC910190F08163
:10111000E02D6A2D09958091B6029091B7026091F9
:10112000FC02DC01ED91FC910190F081E02D09952C
:101130008091B6029091B7024091FC0250E0DC0130
:10114000ED91FC910280F381E02D6CEB72E009954A
:101150006091FC026A2580E090E02091FC0230E082
:10116000821793073CF4FC01E454FD4F2081622771
:101170000196F3CF8091B6029091B702DC01ED9118
:10118000FC910190F081E02D099591CD1F920F9275
:101190000FB60F9211248F9381E08093D4018F9129
:1011A0000F900FBE0F901F901895CF92DF92EF9285
:1011B000FF920F931F93CF93DF936C017A018B0102
:1011C000C0E0D0E0CE15DF0581F0D8016D918D0132
:1011D000D601ED91FC910190F081E02DC6010995B9
:1011E000892B11F02196EECF7E01C701DF91CF91BF
:1011F0001F910F91FF90EF90DF90CF90089585EDB4
:1012000091E00E94C80021E0892B09F420E0822FA0
:101210000895CF93DF93EC0188819981009711F0B5
:101220000E948B13198218821D821C821B821A82D3
:10123000DF91CF9108950E94DA140F931F93CF93FB
:10124000DF93EC0188819981009729F02A813B8105
:101250002617370788F48B016F5F7F4F0E941414A5
:10126000009761F0998388831B830A832C813D81D9
:10127000232B11F4FC01108281E001C080E0DF919A
:10128000CF911F910F9108956F927F928F929F92AD
:10129000AF92BF92CF92DF92EF92FF920F931F9384
:1012A000CF93DF93EC018B013A0169010E94840323
:1012B0004B015C01780100E010E006151705A4F56C
:1012C0000E948403AB01BC01481959096A097B09D2
:1012D000F60180819181092E000CAA0BBB0B8417AB
:1012E0009507A607B70750F0E881F9810084F185DA
:1012F000E02DCE0109951816190614F7E881F98139
:101300000084F185E02DCE010995892B69F0E881F3
:10131000F9810284F385E02DCE010995F7018193CF
:101320007F010F5F1F4FC9CF0E948403AB01BC0137
:10133000481959096A097B09F60180819181841B4A
:10134000950B91838083C801DF91CF911F910F91FD
:10135000FF90EF90DF90CF90BF90AF909F908F90D5
:101360007F906F900895CF93DF931F92CDB7DEB734
:101370009B01198241E050E0BE016F5F7F4F0E94E8
:101380004409019719F4898190E002C08FEF9FEF23
:101390000F90DF91CF910895CF93DF93DC01ED9112
:1013A000FC91EB01A881B981309711F01097C9F435
:1013B000109759F0EB012C813D81232B31F08C915A
:1013C00090E091958195910914C0309781F0DC01EE
:1013D00014968D919C911597892B49F0808190E00E
:1013E00008C0BD01CF01DF91CF910C94E81480E0DB
:1013F00090E0DF91CF910895EF92FF920F931F93AA
:10140000CF93DF93EC018B016115710551F0CB0196
:101410000E94D50F7C01BC01CE010E941D098111E3
:1014200004C0CE010E94090907C0FD82EC82B80108
:10143000888199810E94CE0FCE01DF91CF911F91BB
:101440000F91FF90EF900895EF92FF920F931F93EB
:10145000CF93DF93EC01198218821B821A821D82BE
:101460001C826115710521F18B01FB0101900020A7
:10147000E9F731977F01E61AF70AB7010E941D09C3
:10148000811109C0CE01DF91CF911F910F91FF9083
:10149000EF900C940909FD82EC82B8018881998152
:1014A000DF91CF911F910F91FF90EF900C94F11469
:1014B000DF91CF911F910F91FF90EF9008951F92B0
:1014C0000F920FB60F9211242F933F934F935F9378
:1014D0006F937F938F939F93AF93BF93EF93FF93FC
:1014E00085ED91E00E945F02FF91EF91BF91AF9176
:1014F0009F918F917F916F915F914F913F912F912C
:101500000F900FBE0F901F9018958BE691E090936F
:10151000300480932F048FE294E00E94DA038091DC
:101520000203909103031816190644F480910603F0
:1015300090910703009711F00C948B130895CF93AB
:10154000DF93E5EDF1E01382128288EE93E0A0E0F4
:10155000B0E084839583A683B78387E391E091838A
:10156000808385EC90E09587848784EC90E0978772
:10157000868780EC90E0918B808B81EC90E0938B60
:10158000828B82EC90E0958B848B86EC90E0978B3D
:10159000868B118E128E138E148E1092B8021092BA
:1015A000B9021092BB021092BA021092FD02109280
:1015B000FE021092FF021092010310920303109298
:1015C0000203109205031092040310920703109275
:1015D0000603109208031092090310920B03109255
:1015E0000A0310920D0310920C0310920F03109235
:1015F0000E03109211031092100310921303109215
:101600001203CFE2D4E01E82188619861A861B8642
:101610001C861D861E861F86188A198A1A8A1B8AAE
:1016200081E08D8382E090E00E94F3129C838B83A3
:10163000FC01118210821C8A1D8A1E8A1F8A8DE875
:1016400091E0998388838DE18A83DF91CF9108951A
:10165000CF93DF93CDB7DEB761970FB6F894DEBFB7
:101660000FBECDBF789484B5826084BD84B581609F
:1016700084BD85B5826085BD85B5816085BD80915D
:101680006E00816080936E001092810080918100D5
:1016900082608093810080918100816080938100CD
:1016A000809180008160809380008091B10084608F
:1016B0008093B1008091B00081608093B0008091F0
:1016C0007A00846080937A0080917A0082608093AF
:1016D0007A0080917A00816080937A0080917A000C
:1016E000806880937A001092C100E091E501F0914A
:1016F000E60182E08083E091E101F091E201108255
:10170000E091E301F091E40180E180831092ED012A
:10171000E091E901F091EA0186E08083E091E70140
:10172000F091E801808180618083E091E701F09190
:10173000E801808188608083E091E701F091E80111
:10174000808180688083E091E701F091E8018081E9
:101750008F7D808360E084E00E94480361E083E045
:101760000E94480361E084E00E9419030091040391
:1017700010910503E0900203F09003030E151F057E
:1017800091F5C801089681382FE3920718F4880F65
:10179000991F02C08FEF9FEF0E94F3126C0180919E
:1017A000060390910703DC01F60120E030E02017EA
:1017B000310739F04D915D91419351932F5F3F4F28
:1017C000F6CF1E141F0414F40E948B13D09207034B
:1017D000C0920603809102039091030308969093B0
:1017E00003038093020380910403909105032091E9
:1017F0000603309107039C01220F331FE09106037B
:10180000F0910703E20FF31F2FE234E031832083CE
:10181000019690930503809304031092800089E061
:101820008093810080E09DE79093890080938800F9
:1018300082E080936F008DEA91E090930D03809396
:101840000C0385ED91E09093B7028093B60200E01F
:1018500010E00E94BE0FF801EE58FD4F80830F5F2D
:101860001F4F00311105A9F78091120390911303C6
:101870009C838B838091B8028F838091B9028E8381
:10188000BE01695F7F4FCE0103960E943C04BE01FA
:101890006A5F7F4FCE0103960E943C048E81809345
:1018A000B9028F818093B8028091B8028A3F08F014
:1018B000DAC21D82BE016B5F7F4FCE0103960E948C
:1018C0003C048D81873319F481E080930903809172
:1018D000B802882309F4CBC28091B8028F3F09F483
:1018E000C6C28091B902882309F4D7C28091B90297
:1018F0008F3F09F4D2C280917A00887F86608093FE
:101900007A0080917A00806880937A0080917A00D2
:10191000886080937A008FB788608FBFEBE1F1E039
:10192000A191B19180E08D938F5F8032E1F731E03A
:10193000EB32F307A9F780EC80937C0081E0809381
:10194000D4010E946A0488EB91E0805091406C01C0
:10195000D594C7948FE1882E0D2C000CEE08FF085B
:101960008091D401811116C00E9484030091190452
:1019700010911A0420911B0430911C04DC01CB014E
:10198000801B910BA20BB30B0397A105B10508F4C3
:1019900067C204C21092D4018091780060917900EE
:1019A00020912E0430E0A9014F5F5F4F477055270B
:1019B00040932E04FA01E55DFE4F908190937C00E8
:1019C00090917A00906490937A00F901EE0FFF1FD6
:1019D000E55EFE4F4081518190E0962B883F910556
:1019E00044F497FD0796B3E095958795BA95E1F78E
:1019F00002C08FE190E0F901EA5DFB4FDA01A80F28
:101A0000B91F8C91808380912E048111ADCF46E265
:101A100054E059874887DA0140E02D91E42F042EE5
:101A2000000CFF0BEA5DFB4F9081291708F4482F4B
:101A30008F5F883091F72EE134E0D90150E0842F98
:101A4000042E000C990B8E519440FC01EA0FFB1FF1
:101A5000E770FF27EA5DFB4F60816D93560F66E2EA
:101A600074E06A177B0789F757FD5F5F559580E043
:101A7000E0E0D9016D919D01962F980F5917B4F4AC
:101A8000A52F550FBB0BA81BB10987FDB3952CE003
:101A90002A9FC0012B9F900D1124062E000C770B5E
:101AA0000E94C512E29F600D112405C0EF5F892FCF
:101AB000E830F9F660E0BCE04B9F600D1124603621
:101AC00008F0605620911D048091D0019091D101C1
:101AD000A091D201B091D301603350F42033D4F0FF
:101AE000261B2133B8F0805A9F4FAF4FBF4F0AC01B
:101AF000203384F4E62FE21BE13364F08056910931
:101B0000A109B1098093D0019093D101A093D20192
:101B1000B093D30160931D044090D0015090D10147
:101B20006090D2017090D301A3019201260F311D64
:101B3000411D511DCA01B9010E94E50F2FE33BE28F
:101B400048E85AE30E9444106093430470934404AD
:101B5000809345049093460460933704709338044F
:101B60008093390490933A0480911001882309F4FA
:101B7000FBCE8091CC019091CD01A091CE01B0918E
:101B8000CF01481659066A067B0699F08091C80174
:101B90009091C901A091CA01B091CB010196A11DFC
:101BA000B11D8093C8019093C901A093CA01B0935D
:101BB000CB014092CC015092CD016092CE01709247
:101BC000CF014091C8015091C9016091CA01709143
:101BD000CB01493C5105610571050CF44DC01092D3
:101BE0001001E8EBF1E0A0E0AA2EA1E0BA2ED501A9
:101BF000819191912D913D91821B930B40971CF403
:101C000040E050E0BA0188EC91E08E179F0781F721
:101C10004093C8015093C9016093CA017093CB01EE
:101C20003BE1232E31E0332E00E010E020E029C01C
:101C3000FC01E050FF4F90809C0128543E4F3D87AF
:101C40002C87AC01455E5E4F5F874E87F98BE88B32
:101C5000692D70E0AC85BD858D919C9186179707A5
:101C6000B4F50F5F1F4FF2E0AF0EB11C22E0220E61
:101C7000311C08301105D1F6E0E0F1E048EB51E00D
:101C80007FC0822F90E0D5014D915C91841795071C
:101C90004CF4F10140815181FA01E80FF91F1082E3
:101CA0002F5FEFCFC801880F991FFC01E854FE4F4A
:101CB0002081DC01A55EBE4F203208F0B9CFED9146
:101CC000FC911197E20FF11D80822F5FF5CFEE8519
:101CD000FF85808191819C01260F371F3B872A87D2
:101CE000A889B9898D919C91681B790B072E000CEE
:101CF000880B990B0E94E50F2B013C01C701B6012F
:101D00000E94E50F9B01AC01C301B2010E941F12AA
:101D100020E030E048EF51E40E9444102B013C01E8
:101D200020E030E048EF51E40E94DE0F87FF0BC057
:101D300020E030E0A901C301B2010E94C0121816D0
:101D400024F060E006C06FE104C0C301B2010E944C
:101D50009112EA85FB85608393947ACFDA012D9105
:101D60003C9111972817390714F48D939C93329660
:101D70004E5F5F4F20E131E02E173F0709F4F4CDAD
:101D8000A885B9858D91B987A88790E02081318198
:101D9000821793071CF791838083E0CF0E9484030E
:101DA0006093190470931A0480931B0490931C048D
:101DB000EDEBF0E08491E9EAF0E01491E5E9F0E080
:101DC0000491002309F480C081110E94F002E02FE9
:101DD000F0E0EE0FFF1FE957FF4FA591B491EC9192
:101DE0001E2309F471C080911001882329F06AEF45
:101DF00070E080E090E00FC08091B6019091B70153
:101E0000892B29F460ED77E080E090E004C062E384
:101E100070E080E090E00E94FE048091140488232A
:101E2000F9F00E948403009115041091160420918A
:101E3000170430911804DC01CB01801B910BA20B1D
:101E4000B30B813D9740A105B10550F010921404E9
:101E50001092D0011092D1011092D2011092D301B0
:101E60000E94D4007DCD8FEF8093B80222CD0E94D6
:101E7000BE0F69EF70E00E94C51211E0180F80914B
:101E80001203909113039A838983612FCE010196E7
:101E90000E9457041093B80224CD0E94BE0F69EF30
:101EA00070E00E94C51211E0180F8091120390910A
:101EB000130301969A838983612FCE0101960E94B4
:101EC00057041093B90217CD0E9484036093150440
:101ED00070931604809317049093180481E0809304
:101EE000140481CF8F929F92AF92BF92CF92DF92D4
:101EF000EF92FF92CF93DF93EC01688179818A8121
:101F00009B81611571058105910521F464E279EDEC
:101F10008BE597E02DE133EF41E050E00E9418118E
:101F200049015A019B01AC01A7EAB1E40E943711B3
:101F30006B017C01ACEEB4EFA50194010E94451148
:101F4000DC01CB018C0D9D1DAE1DBF1DB7FF03C075
:101F50000197A109B04888839983AA83BB839F779F
:101F6000DF91CF91FF90EF90DF90CF90BF90AF9037
:101F70009F908F9008950E94720F089581E191E0E3
:101F80000E94720F0895A0E0B0E080931101909339
:101F90001201A0931301B09314010895FB01DC0119
:101FA00005900D920020E1F70895FC0105900020B6
:101FB000E9F7809590958E0F9F1F08950E9420103D
:101FC00008F481E00895E89409C097FB3EF49095E9
:101FD0008095709561957F4F8F4F9F4F9923A9F002
:101FE000F92F96E9BB279395F69587957795679591
:101FF000B795F111F8CFFAF4BB0F11F460FF1BC0D5
:102000006F5F7F4F8F4F9F4F16C0882311F096E967
:1020100011C0772321F09EE8872F762F05C0662315
:1020200071F096E8862F70E060E02AF09A95660FCE
:10203000771F881FDAF7880F9695879597F9089587
:10204000990F0008550FAA0BE0E8FEEF16161706C9
:10205000E807F907C0F012161306E407F50798F031
:10206000621B730B840B950B39F40A2661F0232B4A
:10207000242B252B21F408950A2609F4A140A695C6
:102080008FEF811D811D08950E9457100C94C81078
:102090000E94BA1038F00E94C11020F0952311F070
:1020A0000C94B1100C94B71011240C94FC100E94E5
:1020B000D91070F3959FC1F3950F50E0551F629FA3
:1020C000F001729FBB27F00DB11D639FAA27F00D91
:1020D000B11DAA1F649F6627B00DA11D661F829FB8
:1020E0002227B00DA11D621F739FB00DA11D621F9D
:1020F000839FA00D611D221F749F3327A00D611DBA
:10210000231F849F600D211D822F762F6A2F11249B
:102110009F5750409AF0F1F088234AF0EE0FFF1FCE
:10212000BB1F661F771F881F91505040A9F79E3F25
:10213000510580F00C94B1100C94FC105F3FE4F357
:10214000983ED4F3869577956795B795F795E7957B
:102150009F5FC1F7FE2B880F911D9695879597F984
:10216000089597F99F6780E870E060E008959FEF19
:1021700080EC089500240A9416161706180609061E
:10218000089500240A9412161306140605060895ED
:10219000092E0394000C11F4882352F0BB0F40F475
:1021A000BF2B11F460FF04C06F5F7F4F8F4F9F4FB5
:1021B000089557FD9058440F551F59F05F3F71F037
:1021C0004795880F97FB991F61F09F3F79F087959E
:1021D0000895121613061406551FF2CF4695F1DF27
:1021E00008C0161617061806991FF1CF86957105B7
:1021F000610508940895E894BB2766277727CB01EB
:1022000097F90895F999FECF92BD81BDF89A992763
:1022100080B50895262FF999FECF1FBA92BD81BDD2
:1022200020BD0FB6F894FA9AF99A0FBE0196089558
:10223000052E97FB1EF400940E942F1157FD07D026
:102240000E94811107FC03D04EF40C942F1150957D
:102250004095309521953F4F4F4F5F4F0895909592
:102260008095709561957F4F8F4F9F4F08950E9485
:10227000A311A59F900DB49F900DA49F800D911D5B
:1022800011240895B7FF0C9437110E943711821B57
:10229000930B08952F923F924F925F926F927F928D
:1022A0008F929F92AF92BF92CF92DF92EF92FF9266
:1022B0000F931F93CF93DF93CDB7DEB7CA1BDB0B12
:1022C0000FB6F894DEBF0FBECDBF09942A883988B7
:1022D00048885F846E847D848C849B84AA84B984BE
:1022E000C884DF80EE80FD800C811B81AA81B981CA
:1022F000CE0FD11D0FB6F894DEBF0FBECDBFED01DE
:102300000895A1E21A2EAA1BBB1BFD010DC0AA1F36
:10231000BB1FEE1FFF1FA217B307E407F50720F04E
:10232000A21BB30BE40BF50B661F771F881F991FC9
:102330001A9469F760957095809590959B01AC0112
:10234000BD01CF010895A29FB001B39FC001A39F1B
:10235000700D811D1124911DB29F700D811D1124DE
:10236000911D08955058BB27AA270E94CA110C94AA
:10237000C8100E94BA1038F00E94C11020F039F441
:102380009F3F19F426F40C94B7100EF4E095E7FB88
:102390000C94B110E92F0E94D91058F3BA176207B4
:1023A00073078407950720F079F4A6F50C94FB10C9
:1023B0000EF4E0950B2EBA2FA02D0B01B901900160
:1023C0000C01CA01A0011124FF27591B99F0593FA4
:1023D00050F4503E68F11A16F040A22F232F342FEC
:1023E0004427585FF3CF469537952795A795F0403A
:1023F0005395C9F77EF41F16BA0B620B730B840B4F
:10240000BAF09150A1F0FF0FBB1F661F771F881F06
:10241000C2F70EC0BA0F621F731F841F48F487955E
:1024200077956795B795F7959E3F08F0B0CF939550
:10243000880F08F09927EE0F9795879508950E94C9
:1024400033120C94C8100E94C11058F00E94BA10A8
:1024500040F029F45F3F29F00C94B11051110C9415
:10246000FC100C94B7100E94D91068F39923B1F3B3
:10247000552391F3951B550BBB27AA2762177307AA
:10248000840738F09F5F5F4F220F331F441FAA1F3E
:10249000A9F335D00E2E3AF0E0E832D091505040FA
:1024A000E695001CCAF72BD0FE2F29D0660F771FA8
:1024B000881FBB1F261737074807AB07B0E809F08E
:1024C000BB0B802DBF01FF2793585F4F3AF09E3F13
:1024D000510578F00C94B1100C94FC105F3FE4F3BC
:1024E000983ED4F3869577956795B795F7959F5F56
:1024F000C9F7880F911D9695879597F90895E1E0A2
:10250000660F771F881FBB1F621773078407BA0700
:1025100020F0621B730B840BBA0BEE1F88F7E0955B
:1025200008950E94E11088F09F5798F0B92F9927DD
:10253000B751B0F0E1F0660F771F881F991F1AF0AE
:10254000BA95C9F714C0B13091F00E94FB10B1E008
:1025500008950C94FB10672F782F8827B85F39F007
:10256000B93FCCF3869577956795B395D9F73EF447
:1025700090958095709561957F4F8F4F9F4F0895EF
:102580000E94201008F48FEF089597FB072E16F491
:10259000009407D077FD09D00E94D91207FC05D01E
:1025A0003EF4909581959F4F0895709561957F4F6A
:1025B0000895AA1BBB1B51E107C0AA1FBB1FA6178A
:1025C000B70710F0A61BB70B881F991F5A95A9F7DC
:1025D00080959095BC01CD010895EE0FFF1F0590E9
:1025E000F491E02D09940F931F93CF93DF938230E2
:1025F000910510F482E090E0E0914904F0914A04E2
:1026000020E030E0A0E0B0E0309719F14081518146
:102610000281138148175907C8F08417950769F498
:10262000109731F012960C93129713961C9327C0B3
:102630000093490410934A0422C02115310519F072
:102640004217530718F49A01BD01EF01DF01F801A9
:10265000DBCF21153105F9F0281B390B243031056A
:1026600080F48A819B816115710521F0FB019383C0
:10267000828304C090934A0480934904FE013296F9
:1026800044C0FE01E20FF31F819391932250310960
:10269000398328833AC02091470430914804232B82
:1026A00041F4209117013091180130934804209390
:1026B000470420911501309116012115310541F48F
:1026C0002DB73EB74091190150911A01241B350BCB
:1026D000E0914704F0914804E217F307A0F42E1BA1
:1026E0003F0B2817390778F0AC014E5F5F4F241776
:1026F000350748F04E0F5F1F50934804409347043E
:102700008193919302C0E0E0F0E0CF01DF91CF919F
:102710001F910F910895CF93DF93009709F481C023
:10272000FC01329713821282A0914904B0914A04AD
:10273000109781F420813181820F931F20914704EB
:10274000309148042817390751F5F0934804E09375
:10275000470467C0ED0120E030E0CE17DF0740F40A
:102760004A815B819E0141155105F1F0EA01F5CFE7
:10277000D383C28340815181840F951FC817D90725
:1027800059F488819981840F951F029691838083E3
:102790008A819B81938382832115310529F4F093EB
:1027A0004A04E09349043DC0E901FB83EA8349916F
:1027B0005991C40FD51FEC17FD0761F480819181F9
:1027C000840F951F0296E901998388838281938102
:1027D0009B838A83E0E0F0E012968D919C911397A1
:1027E000009719F0FD01DC01F7CF8D919C911197B5
:1027F0009D012E5F3F4F820F931F20914704309120
:1028000048042817390769F4309729F410924A04CC
:102810001092490402C013821282B0934804A0931C
:102820004704DF91CF910895A0E0B0E0EAE1F4E140
:102830000C944E11EC01009721F4CB010E94F3128D
:10284000B4C0FC01E60FF71F9C0122503109E217CA
:10285000F30708F4A8C0D9010D911C911197061730
:102860001707B0F00530110508F49BC0C8010497A4
:102870008617970708F495C002501109061B170B1D
:10288000019311936D937C93CF010E948B1389C0A8
:102890005B01A01AB10A4C01800E911EA09149045F
:1028A000B0914A04612C712CE12CF12C109709F4A1
:1028B00046C08D919C911197A815B905B1F56C0191
:1028C00042E0C40ED11CCA14DB0478F14C018A1812
:1028D0009B08640142E0C40ED11C1296BC90129772
:1028E0001396AC91B5E0CB16D10440F0B282A3832D
:1028F00091828082D9016D937C9309C00E5F1F4F36
:10290000800F911FF90191838083EB2DFA2FE11441
:10291000F10431F0D7011396FC93EE93129741C066
:10292000F0934A04E09349043CC06816790608F421
:102930003C017D0112960D90BC91A02DB7CF8091E6
:1029400047049091480488169906E1F466167706C4
:10295000C8F48091150190911601009741F48DB74C
:102960009EB74091190150911A01841B950BE817ED
:10297000F907C8F4F0934804E0934704F901718320
:1029800060830FC0CB010E94F3127C01009759F0C5
:10299000A801BE010E94DF14CE010E948B13C70163
:1029A00004C0CE0102C080E090E0CDB7DEB7EEE01B
:1029B0000C946A1181E090E0F8940C94F814FB01F7
:1029C000DC0102C001900D9241505040D8F70895AB
:1029D000FB01DC018D91019080190110D9F3990B55
:1029E0000895FB01DC0101900D920020E1F70895AC
:1029F00010E0C8E6D0E004C0FE010E94ED1221966E
:0A2A0000C936D107C9F7F894FFCFDB
:102A0A00FF03FF03FF03FF03FF03FF03FF03FF03AC
:102A1A00010100000000004B048000F403D403B459
:102A2A000394037403540334031403C0C1C2C3C41C
:102A3A00C5C6C7000000008102D5089700CE02C8AB
:102A4A0000A600BA0000000000AB0122021104B483
:102A5A00018701EF00EF00EE006D01530152014FB3
:102A6A000139012F01F00000000000AB0122021120
:102A7A0004B4018701EF00EF00EE00DE005301E429
:102A8A0000EE00DE002F01F0000000000094042296
:102A9A00021104B4018701EF00EF00EE00DE0053DB
:0C2AAA0001E400EE00DE002F01F000004F
:00000001FF
