:100000000C9469000C9491000C9491000C94910054
:100010000C9491000C9491000C9491000C9491001C
:100020000C9491000C9491000C9491000C948C070A
:100030000C9491000C9491000C9491000C949100FC
:100040000C9442070C9491000C9410070C94EA064F
:100050000C9491000C94A50A0C9491000C949100BE
:100060000C9491000C94910063616C69620074615E
:1000700072650000000000240027002A0000000034
:1000800000250028002B0000000000230026002986
:100090000004040404040404040202020202020331
:1000A000030303030301020408102040800102043B
:1000B00008102001020408102000000008000201BE
:1000C0000000030407000000000000000000D40A44
:1000D000B40A11241FBECFEFD8E0DEBFCDBF24E0AD
:1000E000A8EAB1E001C01D92A834B207E1F711E01F
:1000F000A0E0B1E0ECE9F9E202C005900D92A83A67
:10010000B107D9F710E0C8E6D0E004C02197FE019E
:100110000E94C012C736D107C9F70E94450B0C9444
:10012000C1140C940000AF92BF92CF92DF92EF9275
:10013000FF920F931F93CF93DF936C017B018B0191
:10014000040F151FEB015E01AE18BF08C017D107E1
:1001500059F06991D601ED91FC910190F081E02D6B
:10016000C6010995892B79F7C501DF91CF911F91C0
:100170000F91FF90EF90DF90CF90BF90AF900895D8
:10018000FC01448B558B668B778B40875187628748
:100190007387089581E090E09093B4028093B30256
:1001A0000895FC01538D448D252F30E0842F90E07D
:1001B000821B930B541710F0CF9608950197089562
:1001C000FC01918D828D981761F0A28DAE0FBF2F2B
:1001D000B11D5D968C91928D9F5F9F73928F90E081
:1001E00008958FEF9FEF0895FC01918D828D9817F0
:1001F00031F0828DE80FF11D858D90E008958FEF2D
:100200009FEF0895FC01918D228D892F90E0805CF5
:100210009F4F821B91098F73992708958DEE92E06D
:100220000E94020121E0892B09F420E0822F089529
:1002300080E090E0892B29F00E940E0181110C943E
:1002400000000895FC01A48DA80FB92FB11DA35A79
:10025000BF4F2C91848D90E001968F739927848FE6
:10026000A689B7892C93A089B1898C918370806409
:100270008C93938D848D981306C00288F389E02DAA
:1002800080818F7D80830895EF92FF920F931F935B
:10029000CF93DF93EC0181E0888F9B8D8C8D981339
:1002A0001AC0E889F989808185FF15C09FB7F89445
:1002B000EE89FF896083E889F98980818370806491
:1002C00080839FBF81E090E0DF91CF911F910F91DC
:1002D000FF90EF900895F62E0B8D10E00F5F1F4FEB
:1002E0000F731127E02E8C8D8E110CC00FB607FCFA
:1002F000FACFE889F989808185FFF5CFCE010E9488
:100300002201F1CFEB8DEC0FFD2FF11DE35AFF4FD2
:10031000F0829FB7F8940B8FEA89FB898081806215
:10032000CFCFCF93DF93EC01888D8823B9F0AA89D2
:10033000BB89E889F9898C9185FD03C0808186FDA0
:100340000DC00FB607FCF7CF8C9185FFF2CF8081EF
:1003500085FFEDCFCE010E942201E9CFDF91CF9141
:100360000895833081F028F4813099F08230A9F02B
:1003700008958730A9F08830C9F08430B1F48091B5
:1003800080008F7D03C0809180008F7780938000F4
:10039000089584B58F7784BD089584B58F7DFBCF94
:1003A0008091B0008F778093B00008958091B00065
:1003B0008F7DF9CF1F93CF93DF93282F30E0F90182
:1003C000E754FF4F8491F901EB55FF4FD491F901A8
:1003D000EF56FF4FC491CC23A9F0162F81110E9434
:1003E000B101EC2FF0E0EE0FFF1FE358FF4FA59196
:1003F000B4918FB7F894EC91111108C0D095DE2319
:10040000DC938FBFDF91CF911F910895DE2BF8CF42
:10041000CF93DF9390E0FC01EB55FF4F24918F5673
:100420009F4FFC0184918823D1F090E0880F991FA1
:10043000FC01ED58FF4FA591B491FC01E358FF4F2B
:10044000C591D49161110EC09FB7F8948C91E22FA1
:10045000E0958E238C932881E223E8839FBFDF9170
:10046000CF9108958FB7F894EC91E22BEC938FBF66
:10047000F6CF2FB7F8946091AF027091B0028091DF
:10048000B1029091B2022FBF0895FC016489758971
:1004900086899789089508950895CF92DF92EF9203
:1004A000FF92CF93DF93EC01E881F981008CF18D0D
:1004B000E02D0995288939894A895B890E94311183
:1004C0006B017C01C88AD98AEA8AFB8A6C857D85A2
:1004D0008E859F856F5F7F4F8F4F9F4F6C877D8786
:1004E0008E879F87613071058105910551F00E94CB
:1004F000AC0F9B01AC01C701B6010E949D116B01BD
:100500007C01C701B601DF91CF91FF90EF90DF90A2
:10051000CF900895FC01108A118A128A138A1486DA
:100520001586168617860895FC0195819F7071F0D7
:100530000380F481E02D80819181009739F0DC0106
:10054000ED91FC910088F189E02D099460E070E064
:10055000CB010895FC01178208950895CF93DF938E
:10056000EC018F8181110DC0E881F981048CF58D3A
:10057000E02DCE010995688779878A879B8781E07E
:100580008F83688579858A859B85DF91CF910895D2
:10059000CF93DF93EC018F8181110DC0E881F98148
:1005A000008CF18DE02DCE010995688779878A87C7
:1005B0009B8781E08F83688579858A859B85DF911C
:1005C000CF910895FC0195819F7096171706B9F099
:1005D000B4F0660F771F83819481680F791FDB0168
:1005E0008D919C91009759F0FC0122812F3039F4B4
:1005F0000190F081E02D0088F189E02D099460E000
:1006000070E0CB01089580E0089530E020E04FE4F1
:100610005EE420FD28C050937C0080917A008064C5
:1006200080937A0080917A0086FDFCCF80917800DB
:100630009091790089279091A902892780FB87955D
:1006400087F98093A90290917A00880F867090684C
:10065000892B80937A002F5F3F4F24313105C9F6F3
:100660008091A902089540937C00D7CF6F927F922A
:100670008F929F92AF92BF92CF92DF92EF92FF92B2
:100680000F931F93CF93DF93EC018B013A01690124
:100690000E9439024B015C01780110E000E0061570
:1006A0001705A1F10E943902AB01BC014819590993
:1006B0006A097B09F60180819181092E000CAA0B41
:1006C000BB0B84179507A607B70750F0E881F9819F
:1006D0000084F185E02DCE0109951816190614F74E
:1006E000E881F9810084F185E02DCE010995892BFF
:1006F00069F0E881F9810284F385E02DCE01099546
:10070000F70181937F010F5F1F4FC9CF0E9439020C
:10071000AB01BC01481959096A097B09F6018081BE
:100720009181841B950B91838083C801DF91CF91C8
:100730001F910F91FF90EF90DF90CF90BF90AF90FF
:100740009F908F907F906F900895CF93DF931F922B
:10075000CDB7DEB79B01198241E050E0BE016F5F6B
:100760007F4F0E943603019731F4898190E00F900A
:10077000DF91CF9108958FEF9FEFF9CF81E08093C4
:1007800010011092CE021092CF021092D00210925D
:10079000D102E0E0F1E0AEEBB2E08FEF93E08193C5
:1007A00091931D921D9221E0E031F207C1F7109262
:1007B000D6021092D7021092D8021092D90210924B
:1007C000D2021092D3021092D4021092D502089550
:1007D000CF92DF92EF92FF92CF93DF936B017C0178
:1007E0000E943902A70196010E9463129B01AC018D
:1007F000AEEFB1E00E94DF10A70196010E946312E4
:100800002F3F31054105510521F11CF10E943902AC
:10081000A70196010E9463129B01AC01A2E0BEEF0A
:100820000E948512A70196010E946312E901C2503D
:10083000DE4F61E083E00E9408022097E1F460E06F
:1008400083E0DF91CF91FF90EF90DF90CF900C94F9
:10085000DA010E943902A70196010E9463129B01EE
:10086000AC01AEEFB1E00E94DF10A70196010E943B
:100870006312E901DECFCF3FD10511F461E0E0CF93
:10088000ECEBF0E0E491E33049F140F4E130B1F019
:10089000E230F9F0C038D1058CF7D1CFE73041F123
:1008A000E83071F1E430B1F780918000806280938C
:1008B0008000D0938B00C0938A0004C084B5806808
:1008C00084BDC7BDDF91CF91FF90EF90DF90CF90B7
:1008D000089584B5806284BDC8BDF4CF8091800046
:1008E000806880938000D0938900C0938800EACF0D
:1008F0008091B00080688093B000C093B300E2CFD5
:100900008091B00080628093B000C093B400DACFD1
:10091000CF93DF93EC0188819981009711F00E94B9
:100920006213198218821D821C821B821A82DF9137
:10093000CF910895FC0180819181009711F00C9472
:1009400062130895CF92DF92EF92FF920F931F935D
:10095000CF93DF937C0110E000E035E4C32E31E05B
:10096000D32ED70115968C9115978F70801711068D
:10097000F9F0F4F01396ED91FC91C801880F991FDE
:10098000E80FF91FC081D181209779F08A818F30DB
:1009900061F4D982C8828B819C81892B19F0CE01A8
:1009A0000E94A204CE010E9462130F5F1F4FD9CF95
:1009B000DF91CF911F910F91FF90EF90DF90CF903B
:1009C0000895EF92FF920F931F93CF93DF93FC0153
:1009D00025812617170609F104F18A01660F771F92
:1009E000E380F480E60EF71EF701C081D1812097E5
:1009F00089F08A818F3071F485E491E0998388834E
:100A00008B819C81892B19F0CE010E94A204CE011A
:100A10000E946213F70111830083DF91CF911F9130
:100A20000F91FF90EF900895CF93DF93EC0185E451
:100A300091E0998388831A821E82188619861A8605
:100A40001B861C861D861E861F86188A198A1A8A8E
:100A50001B8A81E08D8382E090E00E94C6129C8315
:100A60008B83FC0111821082DF91CF910895AF92A8
:100A7000BF92CF92DF92EF92FF920F931F93CF938B
:100A8000DF93DB01AA0FBB1FEC01EB81FC81EA0FB6
:100A9000FB1FA081B1811097C9F01296EC911297BB
:100AA000EF30A1F4ED91FC9111970488F589E02DC8
:100AB000BA01A901CD01DF91CF911F910F91FF9054
:100AC000EF90DF90CF90BF90AF90099469017A01C9
:100AD0005B018C0188E190E00E94C612EC010E944B
:100AE00014058FE08A8387E691E099838883CC8A16
:100AF000DD8AEE8AFF8AD801ED91FC910480F581B0
:100B0000E02DAE01B501C801DF91CF911F910F918A
:100B1000FF90EF90DF90CF90BF90AF900994CF936C
:100B2000DF93EC01A881B981EB01E881F98110978D
:100B3000F1F03097B1F4EC018C819D81892BC9F0E3
:100B40008C9190E00BC0DB0114968D919C91892BC8
:100B500081F0808190E0919581959109DF91CF910D
:100B60000895BF01CD01DF91CF910C94B11430975E
:100B700051F790E080E0F2CF0F931F93CF93DF9374
:100B8000EC0188819981009759F02A813B812617D1
:100B9000370730F081E0DF91CF911F910F910895D9
:100BA0008B016F5F7F4F0E94EB13009759F0998381
:100BB00088831B830A832C813D81232B59F7FC01F9
:100BC0001082E8CF80E0E7CFEF92FF920F931F9360
:100BD000CF93DF93EC018B016115710551F0CB01CF
:100BE0000E949C0F7C01BC01CE010E94BC058111BA
:100BF0000BC0CE010E948804CE01DF91CF911F91DE
:100C00000F91FF90EF900895FD82EC82B8018881EA
:100C100099810E94950FF0CFFF920F931F93CF936E
:100C2000DF9300D000D000D0CDB7DEB78B011A82A1
:100C300019821C821B821E821D826EE670E0CE012C
:100C400001960E94E405F801248135818D819E8101
:100C50002817390751F4BE016F5F7F4FC8010E940A
:100C60008F05FF24F394892B09F0F12CCE01019616
:100C70000E949A04FF2041F01092D6021092D702EF
:100C80001092D8021092D9021A8219821C821B82F9
:100C90001E821D8268E670E0CE0101960E94E40586
:100CA000F801248135818D819E812817390749F407
:100CB000BE016F5F7F4FC8010E948F0511E0892B35
:100CC00009F010E0CE0101960E949A0411110E94D1
:100CD000BE03812F26960FB6F894DEBF0FBECDBFA0
:100CE000DF91CF911F910F91FF900895EF92FF92A6
:100CF0000F931F93CF93DF93EC01198218821B820D
:100D00001A821D821C826115710521F18B01FB0184
:100D100001900020E9F731977F01E61AF70AB70141
:100D20000E94BC05811109C0CE01DF91CF911F91B6
:100D30000F91FF90EF900C948804FD82EC82B80133
:100D400088819981DF91CF911F910F91FF90EF9052
:100D50000C94BA14DF91CF911F910F91FF90EF90F7
:100D60000895CF93DF93EC0167EA71E00E94760665
:100D7000CE01DF91CF9108950F931F93CF93DF930F
:100D8000EC018B0188819981803A2FE0920748F429
:100D90000E94C910F8018083888199810196998306
:100DA0008883C801DF91CF911F910F910895CF9350
:100DB000DF93EC0188819981803A2FE0920738F423
:100DC0000E94D11088819981019699838883DF914F
:100DD000CF9108951F920F920FB60F9211242F9367
:100DE0003F934F935F936F937F938F939F93AF93B3
:100DF000BF93EF93FF938DEE92E00E942201FF914B
:100E0000EF91BF91AF919F918F917F916F915F9182
:100E10004F913F912F910F900FBE0F901F901895FB
:100E20001F920F920FB60F9211242F938F939F93BF
:100E3000EF93FF93E091FD02F091FE028081E0913B
:100E40000303F091040382FD1BC09081809106038F
:100E50008F5F8F7320910703821741F0E0910603A3
:100E6000F0E0E351FD4F958F80930603FF91EF91E2
:100E70009F918F912F910F900FBE0F901F901895FB
:100E80008081F4CF1F920F920FB60F9211242F93EF
:100E90003F938F939F93AF93BF938091AF029091B5
:100EA000B002A091B102B091B2023091AE0223E043
:100EB000230F2D3758F50196A11DB11D2093AE02C9
:100EC0008093AF029093B002A093B102B093B202AC
:100ED0008091AA029091AB02A091AC02B091AD02B8
:100EE0000196A11DB11D8093AA029093AB02A0931D
:100EF000AC02B093AD02BF91AF919F918F913F91A2
:100F00002F910F900FBE0F901F90189526E8230F7A
:100F10000296A11DB11DD2CF1F920F920FB60F9254
:100F200011244F925F926F927F928F929F92AF9215
:100F3000BF92CF92DF92EF92FF920F931F932F9366
:100F40003F934F935F936F937F938F939F93AF9351
:100F5000BF93EF93FF93CF93DF93CDB7DEB76E9739
:100F6000DEBFCDBF80916F008D7F80936F0078943E
:100F700074E0672E712C8091E6039091E703DC0109
:100F8000ED91FC910084F185E02D0995059784F0A1
:100F90007E8E6D8E8091E6039091E703BE01635EC5
:100FA0007F4F0E94A5038A3A910571F197FFF2CF16
:100FB00080916F00826080936F006E960FB6F894F8
:100FC000DEBF0FBECDBFDF91CF91FF91EF91BF91FB
:100FD000AF919F918F917F916F915F914F913F91D1
:100FE0002F911F910F91FF90EF90DF90CF90BF90C6
:100FF000AF909F908F907F906F905F904F900F90E9
:101000000FBE0F901F9018958091E6039091E70313
:10101000BE01635E7F4F0E94A5037C0197FDABCFAD
:101020008091E6039091E703BE01635E7F4F0E94CB
:10103000A5036C0197FF04C0E114F10409F09BCFF4
:101040008091E6039091E703BE01635E7F4F0E94AB
:10105000A5034C0197FD8FCF8091E6039091E703A4
:10106000BE01635E7F4F0E94A5035C0197FD83CFA5
:101070008091E6039091E703BE01635E7F4F0E947B
:10108000A5038C0197FD77CFE114F10431F0809135
:10109000E8038E151F0409F06ECFC114D10431F09E
:1010A0008091E9038C151D0409F065CF4E2C5C2C52
:1010B000982C8C2D8E259AEA892788268A248026CA
:1010C0008091E6039091E70301151105B9F09E01A7
:1010D000235E3F4FA801FE0131963F01BF010E94F0
:1010E00036030817190709F063CFF30181918826A9
:1010F000CF018619970980179107C4F38091E60301
:101100009091E703BE01635E7F4F0E94A50397FDA8
:101110004FCF8816190609F04BCFE114F10431F0D6
:101120008091E8038E151F0409F042CFC114D10449
:1011300031F08091E9038C151D0409F039CFF1E0FD
:101140009F124DC08091E803481203C081E0511006
:1011500001C080E0909134049093EC0391E090936F
:101160002C0481112EC18091E6039091E703DC01EC
:10117000ED91FC910190F081E02D6A2D099580910F
:10118000E6039091E70360912C04DC01ED91FC9162
:101190000190F081E02D09958091E6039091E7039D
:1011A00040912C0450E0DC01ED91FC910280F38130
:1011B000E02D6CEE73E0099560912C046A2590E0B7
:1011C00080E020912C042817190609F00CF4B1C115
:1011D000FC01E451FC4F208162270196F2CF62E0CE
:1011E000961214C02981422F50E090E080E08417CD
:1011F00095074CF4FC01EE55FC4F3081E65BFF4F48
:1012000030830196F4CF20932C04ADCF73E0971276
:101210001BC011278FE08093EC03FE01319690E014
:1012200080E08017910751F0DC01AE55BC4F3C9136
:101230002191321739F08AEA8093EC0381E08093A0
:101240002C0491CF0196EDCF84E098121FC01A8133
:101250000B818091E9039981981303C010922C04AB
:10126000A7CE0E94050365E60E9443120917B0F35A
:1012700080914204909143049A8B898B612FCE0117
:1012800041960E94D7061093E803E8CFA6E09A1291
:1012900003C08091E903D0CFB5E09B1205C0109246
:1012A000380410922C045FCFEDE09E1214C08981A7
:1012B00090E0880F991F2091360430913704820FF7
:1012C000931FDC01ED91FC9182818093EC0381E01E
:1012D00080932C0476C0B9E09B1217C0FE013196B2
:1012E00090E080E011278017910744F42191DC0100
:1012F000AE55BC4F50962C930196F5CF0E551C4F12
:10130000F801108A10922C045CC0FAE09F1216C0FB
:10131000FE01319690E080E011278017910744F498
:101320002191DC01AE55BC4F9A962C930196F5CFD6
:101330000E551C4FD8019A961C92E4CFBBE09B122D
:101340006FC019811092CB031092E50362EB73E03A
:10135000CE0147960E9476066CEC73E0CE01419672
:101360000E947606812F90E020913404309135045C
:101370008217930708F052C0880F991F20913604F6
:1013800030913704820F931FFC0180819181DC0131
:10139000ED91FC910190F081E02DAE014F5E5F4F29
:1013A000BE01695E7F4F09958093EC0381E08093D5
:1013B0002C04CE0141960E949A04CE0147960E94C9
:1013C0009A048091380481110DC0E0913C04F091A1
:1013D0003D04309721F081E080933804099581E045
:1013E00080933804809139048111BDCE80914204EC
:1013F0009091430402969A8B898B67E3CE014196C4
:101400000E94D70681E080933904E0913E04F09178
:101410003F04309709F4A7CE0995A5CE80E0C4CF4C
:10142000BCE09B1240C019811092CB0362EB73E0C9
:10143000CE0147960E947606812F90E0880F991F73
:101440002091360430913704820F931FFC01608194
:101450007181DB01ED91FC910280F381E02DAE0101
:10146000495E5F4FCE01419609954D8969897A8918
:10147000242F3E8990E080E08217930789F0FB01DA
:10148000E80FF91F6115710521F41092A802E8EA2E
:10149000F2E05081FC01E451FC4F50830196ECCF07
:1014A00040932C0486CFB8E09B1222C08091EA03BF
:1014B0009091EB0301969093EB038093EA0389816B
:1014C00090E0880F991F2091360430913704820FE5
:1014D000931FFC01808191814A815B816C817D81B8
:1014E000DC01ED91FC910488F589E02D09950ACF86
:1014F000B7E09B1238CE898190E0880F991F209128
:10150000360430913704820F931FFC018081918152
:10151000DC01ED91FC91008CF18DE02D099560933B
:10152000EC037093ED038093EE039093EF0384E05C
:10153000CFCE8091E6039091E703DC01ED91FC9121
:101540000190F081E02D099533CD1F920F920FB6D7
:101550000F9211248F9381E08093EC028F910F9072
:101560000FBE0F901F90189585E491E090938B0328
:1015700080938A0380918D0390918E03892B21F0B3
:101580008AE893E00E94A20480913204909133048F
:101590001816190644F48091360490913704009788
:1015A00011F00C9462130895EDEEF2E013821282B2
:1015B00088EE93E0A0E0B0E084839583A683B783B0
:1015C00083E391E09183808385EC90E09587848725
:1015D00084EC90E09787868780EC90E0918B808BFD
:1015E00081EC90E0938B828B82EC90E0958B848BE6
:1015F00086EC90E0978B868B118E128E138E148E54
:101600001092E8031092E9031092EB031092EA03A0
:1016100010922D0410922E0410922F041092310477
:101620001092330410923204109235041092340454
:101630001092370410923604109238041092390434
:1016400010923B0410923A0410923D0410923C0414
:1016500010923F0410923E041092410410924004F4
:1016600010924304109242048AE893E00E94140509
:10167000EAE8F3E0148A158A168A178A89E891E065
:10168000918380838DE182830895CF93DF93CDB7DB
:10169000DEB760970FB6F894DEBF0FBECDBF78946B
:1016A00084B5826084BD84B5816084BD85B5826067
:1016B00085BD85B5816085BD80916E008160809318
:1016C0006E00109281008091810082608093810081
:1016D0008091810081608093810080918000816091
:1016E000809380008091B10084608093B1008091EC
:1016F000B00081608093B00080917A008460809314
:101700007A0080917A00826080937A0080917A00DA
:10171000816080937A0080917A00806880937A005B
:101720001092C100E091FD02F091FE0282E0808300
:10173000E091F902F091FA021082E091FB02F0913F
:10174000FC0280E1808310920503E0910103F09197
:10175000020386E08083E091FF02F0910003808124
:1017600080618083E091FF02F091000380818860B6
:101770008083E091FF02F091000380818068808384
:10178000E091FF02F091000380818F7D808360E013
:1017900084E00E94080261E083E00E94080261E0A8
:1017A00084E00E94DA010091340410913504E09045
:1017B0003204F09033040E151F05B9F5C8010896E0
:1017C000811520E49207C8F4880F991F0097C1F093
:1017D0000E94C6126C018091360490913704DC019E
:1017E000F60130E020E02017310769F04D915D915E
:1017F000419351932F5F3F4FF6CF8FEF9FEFE8CF8D
:1018000081E090E0E5CF1E141F0414F40E946213DF
:10181000D0923704C0923604809132049091330400
:10182000089690933304809332048091340490910D
:10183000350420913604309137049C01220F331F68
:10184000E0913604F0913704E20FF31F2AE833E009
:101850003183208301969093350480933404109251
:10186000800089E08093810080E09DE7909389006B
:101870008093880082E080936F008AEC90E09093E0
:101880003D0480933C048DEE92E09093E7038093B7
:10189000E60310E000E00E940503F801EE55FC4F5E
:1018A00080830F5F1F4F00311105A9F7809142041B
:1018B000909143049C838B838091E8038F83809174
:1018C000E9038E83BE01695F7F4FCE0103960E94BC
:1018D000BC06BE016A5F7F4FCE0103960E94BC0624
:1018E0008E818093E9038F818093E8038091E803E0
:1018F0008A3F18F08FEF8093E8031D82BE016B5F73
:101900007F4FCE0103960E94BC068D81873319F468
:1019100081E0809339048091E803882321F080914D
:10192000E8038F3FB1F40E94050390E069EF70E097
:101930000E944F1211E0180F8091420490914304CD
:101940009A838983612FCE0101960E94D706109356
:10195000E8038091E903882321F08091E9038F3F18
:10196000B9F40E94050390E069EF70E00E944F1205
:1019700011E0180F809142049091430401969A83DC
:101980008983612FCE0101960E94D7061093E90347
:1019900080917A00887F866080937A0080917A00B7
:1019A000806880937A0080917A00886080937A00C2
:1019B0008FB788608FBFE7E1F1E0A191B19180E03E
:1019C0008D938F5F8032E1F731E0E732F307A9F7BB
:1019D00080EC80937C0081E08093EC020E94BE0347
:1019E0008EEB92E0AC01405051406A01D594C7940F
:1019F0000D2C000CEE08FF088091EC02882309F4FE
:101A000005C21092EC024091780080917900E0913B
:101A1000EB02F0E09F012F5F3F4F277033272093A9
:101A2000EB02295D3E4FD9019C9190937C009091EF
:101A30007A00906490937A00DF01AD51BD4FEE0FB4
:101A4000FF1FE95EFE4F982F842F97FD079643E016
:101A5000959587954A95E1F78032910514F08FE1CD
:101A600090E020813181820F931FFC0180818C9353
:101A70008091EB028111CAC123EE32E03A872987B7
:101A8000D90140E02D91E42F042E000CFF0BED5105
:101A9000FD4F9081291708F4482F8F5F883091F708
:101AA000ABEDB2E0CD0120E030E0E42FE30FE770D2
:101AB000F0E0ED51FD4F5081FC015193CF01250F16
:101AC0003F5F383091F727FD2F5F259580E0E0E0FC
:101AD0006D91962F980F29170CF0D8C0022E000C8C
:101AE000330B281B310987FD3395FCE0F29FC001C1
:101AF000F39F900D1124062E000C770B0E944F12BD
:101B0000EF9F600D1124FCE04F9F600D11246036A3
:101B100008F060562091DA028091D6029091D702A7
:101B2000A091D802B091D902603308F0B6C020333A
:101B30007CF0261B213360F0805A9F4FAF4FBF4F80
:101B40008093D6029093D702A093D802B093D90283
:101B50006093DA024090D6025090D7026090D8028B
:101B60007090D902A3019201260F311D411D511D14
:101B7000CA01B9010E94AC0F2FE33BE248E85AE3E7
:101B80000E940B1060939E0370939F038093A003A9
:101B90009093A103609392037093930380939403B3
:101BA0009093950380911001882309F42FC18091AF
:101BB000D2029091D302A091D402B091D5024816DE
:101BC00059066A067B0699F08091CE029091CF0269
:101BD000A091D002B091D1020196A11DB11D8093B8
:101BE000CE029093CF02A093D002B093D102409244
:101BF000D2025092D3026092D4027092D5024091E8
:101C0000CE025091CF026091D0027091D102493C36
:101C10005105610571050CF4D0C010921001A0E0CF
:101C2000B1E0EEEBF2E0819191912D913D91821B1B
:101C3000930B40971CF440E050E0BA018EEC92E028
:101C40008E179F0781F74093CE025093CF02609387
:101C5000D0027093D10227E1A22E21E0B22E30E013
:101C6000232E31E0332E10E000E080E0282F30E01A
:101C7000D1014D915C9124173507E4F4D501ED9124
:101C8000FC91E20FF31F10828F5FF0CFEF5F892F7F
:101C9000E83009F01DCF60E036CF20330CF058CF8C
:101CA000362F321B31330CF453CF80569109A109E2
:101CB000B10946CF9801220F331FF901E254FD4FBD
:101CC000808191819927D901A95EBE4F803248F465
:101CD000ED91FC911197E80FF91F4FE140830196B8
:101CE000F5CFF901E050FF4F50815887C901825468
:101CF0009D4F9C878B87FE87ED87D901A95EBE4FDC
:101D0000B88BAF87B8858B2E912CEB85FC858081B5
:101D10009181881599050CF444C0AD85BE858D91DF
:101D20009C91B401681B790B072E000C880B990B52
:101D30000E94AC0F2B013C01C701B6010E94AC0F01
:101D40009B01AC01C301B2010E949D1120E030E073
:101D500048EF51E40E940B102B013C0120E030E0E1
:101D600048EF51E40E94A50F6FE187FF0EC020E00D
:101D700030E0A901C301B2010E943E1260E01816D2
:101D800024F4C301B2010E940F12EF85F88980810B
:101D90009181880E991ED4016C93B885BF5FB88776
:101DA000B1CF0F5F1F4FE2E02E0E311CF2E0AF0EFD
:101DB000B11C0830110509F058CF4EEB52E0A0E0FD
:101DC000B1E0E985FA858191FA87E98790E02D9164
:101DD0003D918217930734F49D0122503109F90196
:101DE00091838083FA0121913191AF01281739073E
:101DF00034F49F0122503109F901918380832BEE45
:101E000032E089859A8528173907D9F60E94390268
:101E10000091BA021091BB022091BC023091BD0228
:101E2000601B710B820B930B63307105810591056B
:101E300008F44EC00E9439026093BA027093BB024C
:101E40008093BC029093BD02EDEBF0E08491E9EA4F
:101E5000F0E01491E5E9F0E00491011146C00E9420
:101E600039026093B6027093B7028093B8029093E0
:101E7000B90281E08093B50280911001882309F4B2
:101E800044C06AEF70E080E090E00E94E803809137
:101E9000B5028823E9F00E9439020091B602109140
:101EA000B7022091B8023091B902601B710B820B0E
:101EB000930B613D77408105910550F01092B5027A
:101EC0001092D6021092D7021092D8021092D90224
:101ED00080E090E0892B09F48FCD0E940E018823C9
:101EE00009F48ACD0E94000087CD81110E94B101C2
:101EF000E02FF0E0EE0FFF1FE957FF4FA591B491DF
:101F0000EC911E2309F4ABCFB7CF8091B30290912F
:101F1000B402892B29F460ED77E080E090E0B5CF42
:101F200062E370E080E090E0B0CFFB01DC0105905F
:101F30000D920020E1F70895FC0105900020E9F7DB
:101F4000809590958E0F9F1F08950E94E70F08F4CB
:101F500081E00895E89409C097FB3EF49095809540
:101F6000709561957F4F8F4F9F4F9923A9F0F92F5F
:101F700096E9BB279395F695879577956795B795DD
:101F8000F111F8CFFAF4BB0F11F460FF1BC06F5FC3
:101F90007F4F8F4F9F4F16C0882311F096E911C0D5
:101FA000772321F09EE8872F762F05C0662371F0F6
:101FB00096E8862F70E060E02AF09A95660F771F0A
:101FC000881FDAF7880F9695879597F90895990FE6
:101FD0000008550FAA0BE0E8FEEF16161706E807F3
:101FE000F907C0F012161306E407F50798F0621B14
:101FF000730B840B950B39F40A2661F0232B242BE9
:10200000252B21F408950A2609F4A140A6958FEF07
:10201000811D811D08950E941E100C948F100E9436
:10202000811038F00E94881020F0952311F00C9454
:1020300078100C947E1011240C94C3100E94A010F0
:1020400070F3959FC1F3950F50E0551F629FF0010B
:10205000729FBB27F00DB11D639FAA27F00DB11D24
:10206000AA1F649F6627B00DA11D661F829F2227AD
:10207000B00DA11D621F739FB00DA11D621F839F34
:10208000A00D611D221F749F3327A00D611D231F0A
:10209000849F600D211D822F762F6A2F11249F5758
:1020A00050409AF0F1F088234AF0EE0FFF1FBB1F5B
:1020B000661F771F881F91505040A9F79E3F51051A
:1020C00080F00C9478100C94C3105F3FE4F3983EBA
:1020D000D4F3869577956795B795F795E7959F5FC4
:1020E000C1F7FE2B880F911D9695879597F9089556
:1020F00097F99F6780E870E060E008959FEF80ECBB
:10210000089500240A94161617061806090608955D
:1021100000240A9412161306140605060895092EC3
:102120000394000C11F4882352F0BB0F40F4BF2B32
:1021300011F460FF04C06F5F7F4F8F4F9F4F089572
:1021400057FD9058440F551F59F05F3F71F0479568
:10215000880F97FB991F61F09F3F79F0879508954D
:10216000121613061406551FF2CF4695F1DF08C06C
:10217000161617061806991FF1CF86957105610589
:1021800008940895E894BB2766277727CB0197F931
:102190000895F999FECF92BD81BDF89A992780B52F
:1021A0000895262FF999FECF1FBA92BD81BD20BD9B
:1021B0000FB6F894FA9AF99A0FBE019608950E9404
:1021C0002111A59F900DB49F900DA49F800D911D8E
:1021D000112408952F923F924F925F926F927F92B7
:1021E0008F929F92AF92BF92CF92DF92EF92FF9227
:1021F0000F931F93CF93DF93CDB7DEB7CA1BDB0BD3
:102200000FB6F894DEBF0FBECDBF09942A88398877
:1022100048885F846E847D848C849B84AA84B9847E
:10222000C884DF80EE80FD800C811B81AA81B9818A
:10223000CE0FD11D0FB6F894DEBF0FBECDBFED019E
:102240000895A29FB001B39FC001A39F700D811D8F
:102250001124911DB29F700D811D1124911D0895AF
:102260005058BB27AA270E9448110C948F100E9437
:10227000811038F00E94881020F039F49F3F19F443
:1022800026F40C947E100EF4E095E7FB0C94781085
:10229000E92F0E94A01058F3BA176207730784074A
:1022A000950720F079F4A6F50C94C2100EF4E09591
:1022B0000B2EBA2FA02D0B01B90190010C01CA0100
:1022C000A0011124FF27591B99F0593F50F4503EAB
:1022D00068F11A16F040A22F232F342F4427585F9D
:1022E000F3CF469537952795A795F0405395C9F7B5
:1022F0007EF41F16BA0B620B730B840BBAF091506D
:10230000A1F0FF0FBB1F661F771F881FC2F70EC00B
:10231000BA0F621F731F841F48F4879577956795DE
:10232000B795F7959E3F08F0B0CF9395880F08F0CA
:102330009927EE0F9795879508950E94B1110C94F7
:102340008F100E94881058F00E94811040F029F4EC
:102350005F3F29F00C94781051110C94C3100C9429
:102360007E100E94A01068F39923B1F3552391F3D6
:10237000951B550BBB27AA2762177307840738F0F4
:102380009F5F5F4F220F331F441FAA1FA9F335D051
:102390000E2E3AF0E0E832D091505040E695001C05
:1023A000CAF72BD0FE2F29D0660F771F881FBB1FBF
:1023B000261737074807AB07B0E809F0BB0B802D9D
:1023C000BF01FF2793585F4F3AF09E3F510578F0C9
:1023D0000C9478100C94C3105F3FE4F3983ED4F350
:1023E000869577956795B795F7959F5FC9F7880F9D
:1023F000911D9695879597F90895E1E0660F771FEF
:10240000881FBB1F621773078407BA0720F0621B7F
:10241000730B840BBA0BEE1F88F7E09508950E94AA
:10242000A81088F09F5798F0B92F9927B751B0F0AE
:10243000E1F0660F771F881F991F1AF0BA95C9F748
:1024400014C0B13091F00E94C210B1E008950C9414
:10245000C210672F782F8827B85F39F0B93FCCF3C7
:10246000869577956795B395D9F73EF490958095C5
:10247000709561957F4F8F4F9F4F08950E94E70F92
:1024800008F48FEF0895991B79E004C0991F9617FF
:1024900008F0961B881F7A95C9F78095089597FBD9
:1024A000072E16F4009407D077FD09D00E948A12F7
:1024B00007FC05D03EF4909581959F4F0895709547
:1024C00061957F4F0895052E97FB1EF400940E949E
:1024D0007A1257FD07D00E949E1207FC03D04EF4DB
:1024E0000C947A1250954095309521953F4F4F4F5F
:1024F0005F4F089590958095709561957F4F8F4FB0
:102500009F4F0895B7FF0C94DF100E94DF10821BCD
:10251000930B0895AA1BBB1B51E107C0AA1FBB1F49
:10252000A617B70710F0A61BB70B881F991F5A955F
:10253000A9F780959095BC01CD010895A1E21A2ECE
:10254000AA1BBB1BFD010DC0AA1FBB1FEE1FFF1F57
:10255000A217B307E407F50720F0A21BB30BE40BA7
:10256000F50B661F771F881F991F1A9469F76095EE
:102570007095809590959B01AC01BD01CF010895A8
:10258000EE0FFF1F0590F491E02D09940F931F9318
:10259000CF93DF938230910510F482E090E0E091D8
:1025A0004604F091470430E020E0B0E0A0E030972E
:1025B00099F42115310509F44AC0281B390B243040
:1025C0003105D8F58A819B816115710589F1FB017F
:1025D00093838283FE0111C0408151810281138166
:1025E00048175907E0F04817590799F4109761F018
:1025F00012960C93129713961C933296CF01DF918B
:10260000CF911F910F9108950093460410934704B2
:10261000F4CF2115310551F04217530738F0A901C5
:10262000DB019A01BD01DF01F801C1CFEF01F9CF54
:102630009093470480934604CDCFFE01E20FF31F31
:10264000819391932250310939832883D7CF2091E8
:10265000440430914504232B41F42091130130911F
:1026600014013093450420934404209111013091CA
:1026700012012115310541F42DB73EB740911501E6
:1026800050911601241B350BE0914404F091450450
:10269000E217F307A0F42E1B3F0B2817390778F039
:1026A000AC014E5F5F4F2417350748F04E0F5F1F98
:1026B0005093450440934404819391939FCFF0E05D
:1026C000E0E09CCFCF93DF930097E9F0FC013297D5
:1026D00013821282A0914604B0914704ED0130E0CC
:1026E00020E01097A1F420813181820F931F209167
:1026F0004404309145042817390709F061C0F0936C
:102700004504E0934404DF91CF910895EA01CE1788
:10271000DF07E8F54A815B819E0141155105B1F75C
:10272000E901FB83EA8349915991C40FD51FEC1746
:10273000FD0761F4808191810296840F951FE90164
:1027400099838883828193819B838A83F0E0E0E090
:1027500012968D919C9113970097B9F52D913C910C
:102760001197CD010296820F931F2091440430915E
:1027700045042817390739F6309751F51092470468
:1027800010924604B0934504A0934404BCCFD38375
:10279000C28340815181840F951FC817D90761F406
:1027A0004E5F5F4F88819981480F591F5183408345
:1027B0008A819B81938382832115310509F0B0CFF3
:1027C000F0934704E09346049ECFFD01DC01C0CFA7
:1027D00013821282D7CFB0E0A0E0E1EFF3E10C94D6
:1027E000EC108C01009751F4CB010E94C6128C01B1
:1027F000C801CDB7DEB7E0E10C940811FC01E60F8B
:10280000F71F9C0122503109E217F30708F49DC01D
:10281000D901CD91DC911197C617D70798F0C53033
:10282000D10530F3CE0104978617970708F3C61B2E
:10283000D70B2297C193D1936D937C93CF010E94C4
:102840006213D6CF5B01AC1ABD0A4C018C0E9D1EE3
:10285000A0914604B0914704512C412CF12CE12C5D
:10286000109731F58091440490914504881599059D
:1028700009F05CC04616570608F058C08091110157
:1028800090911201009741F48DB79EB740911501C8
:1028900050911601841B950BE817F90708F055C0F5
:1028A000F0934504E0934404F90171836083A0CF61
:1028B0008D919C91119712966C90129713967C9023
:1028C0001397A815B90559F56C0142E0C40ED11C47
:1028D000CA14DB0420F1AC014A195B09DA01129633
:1028E000159780F06282738251834083D9016D9382
:1028F0007C93E114F10471F0D7011396FC93EE93ED
:10290000129776CF22968C0F9D1FF90191838083B9
:10291000F301EFCFF0934704E093460469CF4816E4
:10292000590608F42C017D01D3019ACFCB010E94F6
:10293000C6127C01009749F0AE01B8010E94A814AC
:10294000C8010E946213870153CF10E000E050CF0E
:10295000FB01DC0102C001900D9241505040D8F7BC
:102960000895FB01DC018D91019080190110D9F3CC
:10297000990B0895FB01DC0101900D920020E1F715
:10298000089510E0C8E6D0E004C0FE010E94C01225
:0C2990002196C936D107C9F7F894FFCF93
:10299C00FF03FF03FF03FF03FF03FF03FF03FF031B
:1029AC0001000048048000880268024802280208DE
:1029BC0002E801C801A801C0C1C2C3C4C5C6C70092
:1029CC0000000044019300D10091010201E000F4E9
:1029DC0000000000000303B106E1043705E2024CDD
:1029EC00024C024B02C802AE02AD02AA0294028A49
:1029FC00024D02000000000303B106E1043705E2BA
:102A0C00024C024C024B024502AE02C0004B024586
:102A1C00028A024D02000000000C06B106E10437E8
:102A2C0005E2024C024C024B024502AE02C0004BC6
:082A3C000245028A024D02006E
:00000001FF
