:100000000C9411050C9439050C9439050C943905A0
:100010000C9439050C9439050C9439050C94CC0AD0
:100020000C9439050C9439050C9439050C94390558
:100030000C9439050C9439050C9439050C94390548
:100040000C944A130C9439050C94DE0E0C94B80EE3
:100050000C9439050C9439050C9439050C94390528
:100060000C9494130C94390507634236B79BD8A7B8
:100070001A39685618AEBAAB558C1D3CB7CC5763CD
:10008000BD6DEDFD753EF6177231BF000000803F7B
:1000900008000000BE922449123EABAAAA2ABECD97
:1000A000CCCC4C3E00000080BEABAAAAAA3E000009
:1000B0000000BF000000803F000000000008417801
:1000C000D3BB4387D1133D190E3CC3BD4282AD2B38
:1000D0003E68EC8276BED98FE1A93E4C80EFFFBE30
:1000E00001C4FF7F3F000000000000407A10F35A77
:1000F00000A0724E18090010A5D4E80000E8764868
:10010000170000E40B54020000CA9A3B000000E113
:10011000F505000080969800000040420F000000A6
:10012000A08601000000102700000000E803000086
:1001300000006400000000000A0000000000010050
:10014000000000002C76D888DC674F0823DFC1DF71
:10015000AE59E1B1B796E5E3E453C63AE651997674
:1001600096E8E6C28426EB898C9B62ED407C6FFCAE
:10017000EFBC9C9F40F2BAA56FA5F490055A2AF7F0
:100180005C936B6CF9676DC11BFCE0E40D47FEF5F9
:1001900020E6B500D0ED902E030094357705008061
:1001A000841E080000204E0A000000C80C333333C0
:1001B000330F986E12831141EF8D2114893BE65560
:1001C00016CFFEE6DB18D1844B381BF77C1D901D43
:1001D000A4BBE424203284725E228100C9F124ECA5
:1001E000A1E53D27A01F0170044DC0068A304124BF
:1001F00004313312315F312331AD23414B5115327C
:1002000025344316414342432631934538923738CB
:1002100091393731424985333A4431344A42323494
:100220009B3234197144421942871A32691B324B8E
:100230002A323C1A324D19323E35335F48103606A9
:10024000D360093B102500430011A0004003648ED9
:10025000BB40614061F4614061409989670694192F
:100260005066F49901650694D97466409901654613
:100270009F19506640994D67066B0A7607F5C76966
:100280001A67679C9D719AC6DE4241C12EF00446F2
:100290000000000000240027002A00DB40A4A62E56
:1002A000AF2000A1C8D300408DAED580A8000000CB
:1002B00000250028002B00A220006DA00C050101E4
:1002C000E4708BA57A8A59547557937446B3644584
:1002D000D354356336633453385333532A5333433B
:1002E0001C5333431C4433331D4433331D443333D5
:1002F0001D53243410454203513411324F2612321B
:100300005D3621325C27222479363220552304249D
:10031000350296246048059305326C1000000008F1
:1003200000020100000304070000000000000000BC
:10033000000103070F1F3F7F0080C0E0F0F8FCFEC4
:1003400000000000003E5B4F5B3E3E6B4F6B3E1C6F
:100350003E7C3E1C183C7E3C181C577D571C1C5E86
:100360007F5E1C00183C1800FFE7C3E7FF0018245D
:100370001800FFE7DBE7FF30483A060E2629792907
:1003800026407F050507407F05253F5A3CE73C5A3C
:100390007F3E1C1C08081C1C3E7F14227F22145F19
:1003A0005F005F5F06097F017F006689956A606074
:1003B00060606094A2FFA29408047E040810207E6E
:1003C000201008082A1C08081C2A08081E101010F3
:1003D000100C1E0C1E0C30383E3830060E3E0E0639
:1003E000000000000000005F00000007000700148C
:1003F0007F147F14242A7F2A12231308646236494B
:100400005620500008070300001C22410000412232
:100410001C002A1C7F1C2A08083E08080080703037
:1004200000080808080800006060002010080402A6
:100430003E5149453E00427F4000724949494621AC
:1004400041494D331814127F1027454545393C4A20
:100450004949314121110907364949493646494937
:10046000291E00001400000040340000000814227F
:1004700041141414141400412214080201590906ED
:100480003E415D594E7C1211127C7F494949363EEE
:10049000414141227F4141413E7F494949417F09D4
:1004A0000909013E414151737F0808087F00417FDF
:1004B00041002040413F017F081422417F404040DD
:1004C000407F021C027F7F0408107F3E4141413E75
:1004D0007F090909063E4151215E7F0919294626F7
:1004E0004949493203017F01033F4040403F1F20FB
:1004F00040201F3F4038403F6314081463030478D2
:1005000004036159494D43007F41414102040810F1
:1005100020004141417F040201020440404040402C
:10052000000307080020545478407F28444438389A
:1005300044444428384444287F385454541800080C
:100540007E090218A4A49C787F0804047800447DE6
:1005500040002040403D007F1028440000417F4083
:10056000007C047804787C080404783844444438D7
:10057000FC1824241818242418FC7C0804040848B7
:100580005454542404043F44243C4040207C1C2008
:1005900040201C3C4030403C44281028444C909063
:1005A000907C4464544C44000836410000007700BD
:1005B00000004136080002010204023C2623263CCA
:1005C0001EA1A161123A4040207A38545455592155
:1005D000555579412254547842215554784020543D
:1005E0005579400C1E52721239555555593954548B
:1005F000545939555454580000457C410002457DFA
:10060000420001457C407D1211127DF0282528F022
:100610007C545545002054547C547C0A097F49324F
:10062000494949323A4444443A324A4848303A41C6
:1006300041217A3A42402078009DA0A07D3D42426F
:10064000423D3D4040403D3C24FF2424487E4943F8
:10065000662B2FFC2F2BFF0929F620C0887E09036B
:1006600020545479410000447D413048484A323892
:100670004040227A007A0A0A727D0D19317D2629BE
:10068000292F28262929292630484D4020380808B6
:10069000080808080808382F10C8ACBA2F102834EA
:1006A000FA00007B000008142A142222142A1408DD
:1006B0005500550055AA55AA55AAFF55FF55FF00EC
:1006C0000000FF00101010FF00141414FF001010A1
:1006D000FF00FF1010F010F0141414FC001414F7B5
:1006E00000FF0000FF00FF1414F404FC14141710A2
:1006F0001F10101F101F1414141F00101010F000F2
:100700000000001F101010101F10101010F010002B
:100710000000FF101010101010101010FF1000003B
:1007200000FF140000FF00FF00001F10170000FC76
:1007300004F414141710171414F404F40000FF0048
:10074000F714141414141414F700F71414141714D1
:1007500010101F101F141414F4141010F010F000D7
:10076000001F101F0000001F14000000FC140000F8
:10077000F010F01010FF10FF141414FF14101010DC
:100780001F00000000F010FFFFFFFFFFF0F0F0F08F
:10079000F0FFFFFF0000000000FFFF0F0F0F0F0F23
:1007A0003844443844FC4A4A4A347E02020606026F
:1007B0007E027E0263554941633844443C04407ED6
:1007C000201E2006027E020299A5E7A5991C2A494F
:1007D0002A1C4C7201724C304A4D4D3030487848DA
:1007E00030BC625A463D3E494949007E0101017EC6
:1007F0002A2A2A2A2A44445F444440514A44404019
:10080000444A51400000FF0103E080FF0000080857
:100810006B6B083612362436060F090F06000018D7
:10082000180000001010003040FF0101001F0101FE
:100830001E00191D1712003C3C3C3C00000000004B
:100840002546180E8E020A35616BE4AA92AAA429E5
:100850009AE94261A726A94AAAEEAA221DA400008D
:100860000000000000000306441A3000C6001E937A
:10087000170877BAD7E5043127274717576D6D7CDE
:100880007C7C7C6D5D174627272810F4D5B77A0647
:100890001107960861000014C7711CC7711CC7714D
:1008A0001CC7A228051A90160875B7C4E3E2726146
:1008B00062624273697969797878888787873302B9
:1008C00000124C1C8F180774B6D3E1716161726815
:1008D00069787786B5C453616A6969697877E1D1C7
:1008E000C285051E921608414456626462646264C1
:1008F000626462646204120080C26C6C6C6C6C6C2A
:100900006C6C4D4E061890160895E3E2E1B27579CD
:1009100079CAD4E3F252726A6A41D502182E5D7A1E
:1009200057179016085879888787787878B9D5F25C
:1009300001374D5C5B3C2E162F4D6B481791160806
:10094000A4F4013001A1A7A6A7B6A6B6A6A7A6A79C
:10095000A6A7A6A7B6C5A42393180886C9F5F4735D
:1009600063636463647381F3D5B7C9E6838172738B
:10097000716561D6666166718301325F8D78199009
:10098000170875B7D4E262D2C4B5B5C563F1F1E218
:10099000B479697978888787784A08000000000070
:1009A000000000001E8F1501426A883732373287F7
:1009B000683344537978373237323722382C3D3C0C
:1009C0003C2387684A0200001A8E16014269873666
:1009D0003236328667494083767786A413737786EA
:1009E000A4B3B3C3C25100000000230026002900B5
:1009F0002200FF210004040404040404040202028F
:100A0000020202030303030303010204081020404F
:100A10008001020408102001020408102000DC26D6
:100A2000022811241FBECFEFD8E0DEBFCDBF24E0E7
:100A3000A8ECB1E001C01D92A73BB207E1F711E0BD
:100A4000A0E0B1E0ECE2F2E602C005900D92A83C15
:100A5000B107D9F715E0C0E1D5E004C02197FE0148
:100A60000E94002FCF30D107C9F70E94DD200C94DF
:100A700009310C940000FC0177FDB9C08085918597
:100A8000681779070CF0B3C057FDB1C08285938514
:100A9000481759070CF008958689823079F48481CB
:100AA0009581DC01A61BB70BBD01615071098681E0
:100AB0009781DC01A41BB50BAD010EC0833009F09A
:100AC00084C064277527CA01862797276827792756
:100AD00046815781481B590B41505109213031053E
:100AE00031F048F12230310509F44AC00895CA01B5
:100AF00057FD07969C01A3E035952795AA95E1F748
:100B0000A481B5812A9FC0012B9F900D3A9F900D23
:100B10001124680F791F078CF0A1E02DE60FF71F55
:100B20004770552781E090E001C0880F4A95EAF7A9
:100B30009081892B48C0CA0157FD07969C0193E01C
:100B4000359527959A95E1F7A481B5812A9FC00133
:100B50002B9F900D3A9F900D1124680F791F078CE1
:100B6000F0A1E02DE60FF71F4770552781E090E0D8
:100B700001C0880F4A95EAF780959081892323C0A8
:100B8000CA0157FD07969C0183E0359527958A9504
:100B9000E1F7A481B5812A9FC0012B9F900D3A9F58
:100BA000900D1124680F791F078CF0A1E02DE60F3E
:100BB000F71F4770552781E090E001C0880F4A95E4
:100BC000EAF79081892780830895813009F086CFE4
:100BD00064277527462757276427752784819581C1
:100BE000DC01A61BB70BBD016150710977CF0895D9
:100BF0000895FC016370668B84819581268137811D
:100C0000613039F0633029F09187808733872287FC
:100C10000895318720879387828708956F927F9206
:100C20008F929F92AF92BF92CF92DF92EF92FF92FC
:100C30000F931F93CF93DF93EC014B015A0169018E
:100C40003801E881F9810284F385E02D0995E88176
:100C5000F9810288F389E02D87019601A501B4018D
:100C6000CE010995A501460D571D41505109E88156
:100C7000F9810288F389E02D9601B401CE0109952E
:100C8000E881F9810088F189E02D9301A501B40183
:100C9000CE010995C80CD91CB60161507109E881D3
:100CA000F9810088F189E02D9301A501CE01099514
:100CB000E881F9810688F789E02DCE01DF91CF9197
:100CC0001F910F91FF90EF90DF90CF90BF90AF906A
:100CD0009F908F907F906F9009948F929F92AF9288
:100CE000BF92CF92DF92EF92FF920F931F93CF9319
:100CF000DF934C016B015A01E901DC01ED91FC919C
:100D00006217730781F40417150724F48B2D58011B
:100D1000042F182F0A191B0998012F5F3F4F048CCD
:100D2000F58DE02D12C04017510709F5261737073A
:100D300024F48D2D6901C62FD82F9E012C193D0951
:100D40002F5F3F4F068CF78DE02D8701A501B6017F
:100D5000C4010995DF91CF911F910F91FF90EF9002
:100D6000DF90CF90BF90AF909F908F9008950284B6
:100D7000F385E02D0995D401ED91FC910488F58966
:100D8000E02D9E01A501B601C4010995D401ED91A4
:100D9000FC910688F789E02DC401DF91CF911F9166
:100DA0000F91FF90EF90DF90CF90BF90AF909F900A
:100DB0008F900994EF92FF920F931F93DC011A9684
:100DC0000D911C911B9718962D913C911997ED91BF
:100DD000FC9100A0F1A1E02D7B0140E050E060E03B
:100DE00070E009951F910F91FF90EF9008954F9239
:100DF0005F926F927F928F929F92AF92BF92CF92AB
:100E0000DF92EF92FF920F931F93CF93DF936C01CA
:100E10002B015A0139014801DC01ED91FC9102845A
:100E2000F385E02D0995E201640C751CD601ED9166
:100E3000FC91C615D7055CF40088F189E02D870187
:100E40009401A501BE01C60109952196EFCF068840
:100E5000F789E02DC601DF91CF911F910F91FF908F
:100E6000EF90DF90CF90BF90AF909F908F907F904A
:100E70006F905F904F9009948F929F92AF92BF9224
:100E8000CF92DF92EF92FF920F931F93CF93DF9356
:100E9000EC015B014A016901E881F9810284F38573
:100EA000E02D099595012C0D3D1D21503109E8815A
:100EB000F9810488F589E02D78018401A401B50148
:100EC000CE010995E881F9810688F789E02DCE01E8
:100ED000DF91CF911F910F91FF90EF90DF90CF9016
:100EE000BF90AF909F908F9009948F929F92AF92F6
:100EF000BF92CF92DF92EF92FF920F931F93CF9307
:100F0000DF93EC015B014A0169017801E881F98115
:100F10000284F385E02D0995C80CD91C8601015087
:100F20001109E881F9810488F589E02D9501A40172
:100F3000B501CE010995E881F9810688F789E02D90
:100F4000CE01DF91CF911F910F91FF90EF90DF9035
:100F5000CF90BF90AF909F908F900994EF92FF92A7
:100F60000F931F93DC01ED91FC9100A0F1A1E02D06
:100F700009951F910F91FF90EF9008950F931F9384
:100F8000DC01ED91FC91068CF78DE02D09951F9108
:100F90000F9108950F931F93DC01ED91FC91048C48
:100FA000F58DE02D09951F910F910895DC01ED91CC
:100FB000FC910084F185E02D09942F923F924F928D
:100FC0005F926F927F928F929F92AF92BF92CF92D9
:100FD000DF92EF92FF920F931F93CF93DF9300D096
:100FE00000D000D0CDB7DEB72C017E836D836A01BF
:100FF0005901C801FC82EB824801841A950A97FEC8
:1010000003C091948194910835012D813E81621A2B
:10101000730A77FE03C071946194710868147904AF
:101020005CF43A2D2B2D5C01832F922F3D812E8174
:10103000DE82CD82C32ED22EAD81BE81AA16BB0622
:101040005CF43C2D2D2D6C01832F922F3D812E8140
:10105000BE82AD82A32EB22E85012D813E81021B60
:10106000130B1C012C183D0837FE03C0319421944A
:101070003108780117FF03C03FEFE31AF30AF59434
:10108000E794C816D9062CF08FEF9FEF9A838983D7
:1010900004C0A1E0B0E0BA83A9832D813E81A216ED
:1010A000B30624F1D201ED91FC910484F585E02D85
:1010B0002B813C816814790424F44D815E81B60152
:1010C00003C0A6016D817E81C2010995E218F30873
:1010D000F7FE06C029813A81C20ED31EE00EF11E32
:1010E0008D819E8101969E838D83D7CF26960FB6E4
:1010F000F894DEBF0FBECDBFDF91CF911F910F914E
:10110000FF90EF90DF90CF90BF90AF909F908F9027
:101110007F906F905F904F903F902F90089508952B
:1011200080E090E008958F929F92AF92CF92EF92DD
:10113000FF920F931F93CF93DF93EC01262F898D9E
:101140009A8D009709F042C06A3059F41D861C86BA
:101150002D898E859F8538E0239F800D911D112458
:1011600043C06D3009F4AAC08F898823C9F03C8937
:101170008C859D8546E0349F800D911D1124488506
:1011800059854817590764F41D861C863D898E854C
:101190009F8548E0349F800D911D11249F878E8785
:1011A000EA88FB88088919894E855F856C857D856D
:1011B000AD88CC88CE010E9463192C898C859D85D1
:1011C00036E0239F800D911D11243EC06A3079F4D2
:1011D0001D861C862D89FC013896E4918E859F859D
:1011E0002E9F800D911D11249F878E8767C06D30C3
:1011F00009F464C0FC0134963491631708F45EC0AE
:101200003296E491E61708F459C0462F431B342F59
:10121000FC0132968590949047E0349F800C911C9D
:101220001124F401329634913196E491332311F074
:10123000E1110DC0F4013496E4912C898C859D85D3
:10124000E29F800D911D11249D878C8737C0F4018A
:10125000359644915F89552319F15C89E32FF0E0BD
:10126000E40FF11D47FDFA955E9FB0015F9F700D81
:1012700011244C855D85460F571F68857985641755
:10128000750774F41D861C863D89FC013896E4912F
:101290008E859F853E9F800D911D11249F878E878F
:1012A000EA88FB88088919894E855F856C857D856C
:1012B000AD88CC88CE010E946319BCCF81E090E05C
:1012C000DF91CF911F910F91FF90EF90CF90AF9052
:1012D0009F908F900895EF92FF920F931F93CF935B
:1012E000DF93CDB7DEB762970FB6F894DEBF0FBEBF
:1012F000CDBF8C017B014091D3015091D40160910D
:10130000D5017091D60121E0CE0101960E94D91C31
:10131000BE016F5F7F4FCE0107960E94171D6FE8D9
:1013200072E0CE0107960E94C918BC01CE010D964D
:101330000E94171DCE0107960E94D41CCE01019673
:101340000E94D41C29E432E0AE01435F5F4FB70135
:10135000C8010E946218CE010D960E94D41C6296AC
:101360000FB6F894DEBF0FBECDBFDF91CF911F91B6
:101370000F91FF90EF900895EF92FF920F931F93BC
:10138000CF93DF93CDB7DEB762970FB6F894DEBF89
:101390000FBECDBF8C017B014091D7015091D80188
:1013A0006091D9017091DA0121E0CE0101960E948D
:1013B000D91CBE016F5F7F4FCE0107960E94171D9B
:1013C00067E472E0CE0107960E94C918BC01CE0105
:1013D0000D960E94171DCE0107960E94D41CCE01C7
:1013E00001960E94D41C29E432E0AE01435F5F4FB6
:1013F000B701C8010E946218CE010D960E94D41C4C
:1014000062960FB6F894DEBF0FBECDBFDF91CF91CD
:101410001F910F91FF90EF900895EF92FF920F931D
:101420001F93CF93DF93CDB7DEB762970FB6F894D3
:10143000DEBF0FBECDBF8C017B014091CF0150912B
:10144000D0016091D1017091D20120E0CE010196CE
:101450000E94D91CBE016F5F7F4FCE0107960E948C
:10146000171D65E472E0CE0107960E94C918BC0101
:10147000CE010D960E94171DCE0107960E94D41C26
:10148000CE0101960E94D41C24EE31E0AE01435FF0
:101490005F4FB701C8010E946218CE010D960E94ED
:1014A000D41C62960FB6F894DEBF0FBECDBFDF919D
:1014B000CF911F910F91FF90EF90089508958EBDE9
:1014C00000000DB407FEFDCF8EB508951F93CF9396
:1014D000DF93FC01858D968D009729F1162FEF0182
:1014E00021A131E030937002209392021092710298
:1014F00010929302DC01ED91FC910190F081E02DBE
:1015000060E009958D8D9E8DDC01ED91FC9101903F
:10151000F081E02D612F09958D8D9E8DDF91CF910A
:101520001F910C94B91DA5A5B6A59C9183A9809582
:1015300089238C93838D948D892B31F0862FDF91B5
:10154000CF911F910C945F0A28E030E080E8A1A5BC
:10155000B2A591A9462F482319F04C91942B03C0B2
:101560004C91909594239C93A3A5B4A54C9192A9DA
:10157000942B9C93A3A5B4A54C9192A990959423E8
:101580009C9386952150310911F7DF91CF911F91DE
:1015900008958CBD9DBD08951F920F920FB60F92B6
:1015A00011245F926F927F928F929F92AF92BF921F
:1015B000CF92DF92EF92FF920F931F932F933F935F
:1015C0004F935F936F937F938F939F93AF93BF934B
:1015D000EF93FF93CF93DF93CDB7DEB76E97DEBF68
:1015E000CDBF7894809170008D7F8093700034E03F
:1015F000832E912C8091490490914A04DC01ED9155
:10160000FC910084F185E02D099505970CF47AC0D2
:101610009E8E8D8E8091490490914A04BE01635E36
:101620007F4F0E94A01D8A3A910519F097FD6AC06C
:10163000F1CF8091490490914A04BE01635E7F4FCF
:101640000E94A01D7C0197FDD5CF80914904909107
:101650004A04BE01635E7F4F0E94A01D6C0197FF8C
:1016600003C0E114F10431F68091490490914A04D9
:10167000BE01635E7F4F0E94A01D3C0197FDBACF63
:101680008091490490914A04BE01635E7F4F0E949D
:10169000A01D5C0197FDAECF8091490490914A0452
:1016A000BE01635E7F4F0E94A01D8C0197FDA2CFFB
:1016B000E114F10439F080914B0490E0E816F9064A
:1016C00009F098CFC114D10439F080914C0490E016
:1016D000C816D90609F08ECF9E2D9C258AEA892747
:1016E00086258A25582E502601151105B1F58091C1
:1016F000490490914A04BE01635E7F4F0E94A01D81
:1017000097FF46C0809170008260809370006E9653
:101710000FB6F894DEBF0FBECDBFDF91CF91FF9122
:10172000EF91BF91AF919F918F917F916F915F9159
:101730004F913F912F911F910F91FF90EF90DF906C
:10174000CF90BF90AF909F908F907F906F905F9061
:101750000F900FBE0F901F901895809149049091A3
:101760004A049E01235E3F4FA801BE016F5F7F4F79
:101770004B010E94311D0817190721F6F401219130
:1017800052269F012819390928173907C4F3AFCF0A
:10179000252D30E08217930709F0B4CFE114F1044E
:1017A00039F080914B0490E0E816F90609F0AACFD1
:1017B000C114D10439F080914C0490E08C159D0542
:1017C00009F0A0CF862D813091F480914B048E11C9
:1017D00003C081E0C11001C080E090919704909314
:1017E0004F0491E090938F04811184C1AEC1823087
:1017F000A1F42981422F50E080E090E08417950702
:101800004CF4FC01EB5FFB4F3081E65BFF4F308314
:101810000196F4CF20938F0498C18330B1F411273F
:101820008FE080934F04FE01319680E090E08017B6
:101830009107B1F1DC01AB5FBB4F3C9121913217B5
:1018400011F08AEA2BC00196F2CF843019F5FA80A4
:101850000B8110E080914C049981981303C0109281
:101860008F0450CF0E94521565E60E94AA2E892F40
:1018700090E008171907E4F08091A5049091A60460
:101880009A8B898B6F2DCE0141960E943F15F09265
:101890004B040EC0863041F480914C0480934F0479
:1018A00081E080938F0451C1853029F410929B040C
:1018B00010928F044AC18D3099F489812091990446
:1018C00090919A04E22FF92FE80FF11DE80FF11D16
:1018D0000190F081E02D828180934F0481E008C166
:1018E0008930B9F49E012F5F3F4FF9011127CF01D5
:1018F000821B930B801791073CF44191DC01AB5F95
:10190000BB4F50964C93F3CFF801EB5FFB4F108A1F
:10191000C2C08A30B9F49E012F5F3F4FF9011127F1
:10192000CF01821B930B801791073CF44191DC019E
:10193000AB5FBB4F9A964C93F3CFF801EB5FFB4F35
:1019400012A6A9C08B30C9F5198110922E041092ED
:10195000480465E174E0CE0147960E94A30E6FE251
:1019600074E0CE0141960E94A30E812F90E0209159
:1019700097043091980482179307C0F4880F991F39
:10198000E0919904F0919A04E80FF91F8081918108
:10199000DC01ED91FC910190F081E02DAE014F5EF4
:1019A0005F4FBE01695E7F4F099501C080E0809363
:1019B0004F0481E080938F0442C08C3009F048C00E
:1019C000198110922E0465E174E0CE0147960E94C1
:1019D000A30E9091990480919A04E92FF82FE10FBA
:1019E000F11DE10FF11D60817181DB01ED91FC9131
:1019F0000280F381E02DAE01495E5F4FCE0141963A
:101A000009954D8969897A89242F3E8980E090E083
:101A10002817390791F06115710529F41092C80152
:101A2000E8ECF1E003C0FB01E80FF91F5081FC0175
:101A3000E15BFB4F50830196EBCF40938F04CE01C7
:101A400041960E94D41CCE0147960E94D41C52C0DD
:101A5000883021F580914D0490914E040196909329
:101A60004E0480934D0489812091990490919A04A9
:101A7000E22FF92FE80FF11DE80FF11D8081918110
:101A80004A815B816C817D81DC01ED91FC91048850
:101A9000F589E02D099510928F042CC0873009F04C
:101AA00054C089812091990490919A04E22FF92FD2
:101AB000E80FF11DE80FF11D80819181DC01ED91AE
:101AC000FC91008CF18DE02D09959B01AB01BC01CF
:101AD000498B5A8B6B8B7C8B20934F048A89809324
:101AE00050048B89809351048C898093520484E044
:101AF00080938F0480919B0481110DC0E0919F041D
:101B0000F091A004309721F081E080939B04099527
:101B100081E080939B0480919C04811116C0809188
:101B2000A5049091A60402969A8B898B67E3CE0157
:101B300041960E943F1581E080939C04E091A104AE
:101B4000F091A204309709F0099580918F048823C1
:101B500009F4D8CD8091490490914A04DC01ED91BB
:101B6000FC910190F081E02D6A2D09958091490446
:101B700090914A0460918F04DC01ED91FC910190F9
:101B8000F081E02D09958091490490914A0440919B
:101B90008F0450E0DC01ED91FC910280F381E02D97
:101BA0006FE474E0099560918F046A2580E090E00D
:101BB00020918F0430E0821793073CF4FC01E15B35
:101BC000FB4F208162270196F3CF809149049091C9
:101BD0004A04DC01ED91FC910190F081E02D099522
:101BE00091CDCF92DF92EF92FF920F931F93CF93FD
:101BF000DF936C017A018B01C0E0D0E0CE15DF05E8
:101C000081F0D8016D918D01D601ED91FC9101908B
:101C1000F081E02DC6010995892B11F02196EECFB8
:101C20007E01C701DF91CF911F910F91FF90EF903F
:101C3000DF90CF900895FC01538D448D252F30E027
:101C4000842F90E0821B930B541710F0CF960895C9
:101C50000197089584E992E00E94320F21E0892BD8
:101C600009F420E0822F0895EF92FF920F931F93C3
:101C7000CF93DF93EC0181E0888F9B8D8C8D98133F
:101C800005C0E889F989808185FD26C0F62E0B8D77
:101C900010E00F5F1F4F0F731127E02E8C8DE8129D
:101CA0000CC00FB607FCFACFE889F989808185FF5F
:101CB000F5CFCE010E945912F1CF8B8DFE01E80FB6
:101CC000F11DE35AFF4FF0829FB7F8940B8FEA891A
:101CD000FB89808180620AC09FB7F894EE89FF89F2
:101CE0006083E889F98980818370806480839FBFE5
:101CF00081E090E0DF91CF911F910F91FF90EF90E5
:101D00000895CF93DF93EC01888D8823C9F0EA8989
:101D1000FB89808185FD05C0A889B9898C9186FDE4
:101D20000FC00FB607FCF5CF808185FFF2CFA889E1
:101D3000B9898C9185FFEDCFCE010E945912E7CF72
:101D4000DF91CF910895FC011182108213821282DB
:101D5000158214826115710551F0FB01019000207C
:101D6000E9F73197AF01461B570B0C94B31C08954C
:101D70001F920F920FB60F9211242F933F934F9300
:101D80005F936F937F938F939F93AF93BF93EF93E3
:101D9000FF9384E992E00E945912FF91EF91BF9165
:101DA000AF919F918F917F916F915F914F913F91F3
:101DB0002F910F900FBE0F901F9018951F920F92AA
:101DC0000FB60F9211242F938F939F93EF93FF934E
:101DD000E091A402F091A5028081E091AA02F09125
:101DE000AB0282FD12C090818091AD028F5F8F7334
:101DF0002091AE02821751F0E091AD02F0E0EC5676
:101E0000FD4F958F8093AD0201C08081FF91EF91CE
:101E10009F918F912F910F900FBE0F901F9018954B
:101E2000FC01918D828D981761F0828DDF01A80FE2
:101E3000B11D5D968C91928D9F5F9F73928F90E004
:101E400008958FEF9FEF0895FC01918D828D981773
:101E500031F0828DE80FF11D858D90E008958FEFB0
:101E60009FEF0895FC01918D228D892F90E0805C79
:101E70009F4F821B91098F739927089580E090E00E
:101E8000892B29F00E942A0E81110C9400000895DC
:101E90003FB7F8948091450290914602A091470285
:101EA000B091480226B5A89B05C02F3F19F00196B6
:101EB000A11DB11D3FBFBA2FA92F982F8827820FD0
:101EC000911DA11DB11DBC01CD0142E0660F771F20
:101ED000881F991F4A95D1F7089585ED8093BC001E
:101EE0008091BC0084FDFCCF10926F020895409158
:101EF0001D02262F30E0240F311D21323105DCF484
:101F000020916F022430C9F4FC0180E090E0861734
:101F100058F430911D022191DC01A350BE4FA30F54
:101F2000B11D2C930196F3CF80911D02680F609331
:101F30001D0280E0089581E0089582E008950895EB
:101F400008950895E091CE018091CD01E81730F415
:101F5000F0E0E352FE4F808190E008958FEF9FEF15
:101F600008959091CE018091CD01981750F4E92FFA
:101F7000F0E0E352FE4F208130E09F5F9093CE016E
:101F800002C02FEF3FEFC90108958091CD0190E08D
:101F90002091CE01821B91090895CF92DF92EF929A
:101FA000FF920F931F93CF93DF937C01CB018A01A4
:101FB00020917002222389F0EB016B01C40ED51E23
:101FC000CC15DD0569F06991D701ED91FC91019087
:101FD000F081E02DC7010995F3CF642F0E94770FA0
:101FE000C801DF91CF911F910F91FF90EF90DF908B
:101FF000CF900895CF93DF931F92CDB7DEB769835B
:10200000209170022223D1F020919302203240F0DF
:1020100021E030E0FC013383228380E090E015C0B2
:1020200080917102E82FF0E0EE58FD4F9981908386
:102030008F5F809371028093930205C061E0CE01AF
:1020400001960E94770F81E090E00F90DF91CF9191
:102050000895FC0164897589868997890895FC0132
:10206000448B558B668B778B40875187628773874C
:1020700008950895CF92DF92EF92FF92CF93DF936E
:10208000EC01E881F981008CF18DE02D099528891A
:1020900039894A895B890E940C2C6B017C01688B11
:1020A000798B8A8B9B8B8C859D85AE85BF85BC018A
:1020B000CD016F5F7F4F8F4F9F4F6C877D878E87DE
:1020C0009F87613071058105910551F00E94A12A19
:1020D0009B01AC01C701B6010E94782C6B017C0109
:1020E000C701B601DF91CF91FF90EF90DF90CF90C5
:1020F0000895FC01108A118A128A138A14861586A3
:10210000168617860895FC0195819F7071F00380F3
:10211000F481E02D80819181009739F0DC01ED910F
:10212000FC910088F189E02D099460E070E0CB011A
:102130000895FC01178208950895CF93DF93EC0171
:102140008F8181110DC0E881F981048CF58DE02D1E
:10215000CE010995688779878A879B8781E08F837D
:10216000688579858A859B85DF91CF910895CF9386
:10217000DF93EC018F8181110DC0E881F981008C22
:10218000F18DE02DCE010995688779878A879B8735
:1021900081E08F83688579858A859B85DF91CF91E2
:1021A0000895DC0115962C9115972F7030E0621779
:1021B0007307BCF4660F771F1396ED91FC9114978B
:1021C000E60FF71F80819181009759F0FC01228171
:1021D0002F3039F40190F081E02D0088F189E02D55
:1021E000099460E070E0CB01089580E008950E94BA
:1021F000ED308F929F92AF92BF92EF92FF920F932A
:102200001F93CF93DF93FB01EE0FFF1FEC01AB8118
:10221000BC81EA0FFB1FA081B1811097C9F0129613
:10222000EC911297EF30A1F4ED91FC911197048895
:10223000F589E02DBA01A901CD01DF91CF911F9160
:102240000F91FF90EF90BF90AF909F908F90099467
:1022500049015A017B018C0188E190E00E94062F20
:10226000EC011E82188619861A861B861C861D861E
:102270001E861F86188A198A1A8A1B8A81E08D8316
:1022800082E090E00E94062F9C838B83FC011182E8
:1022900010828FE08A8388EA91E0998388838C8A10
:1022A0009D8AAE8ABF8AD801ED91FC910480F581A8
:1022B000E02DAE01B701C801DF91CF911F910F91C1
:1022C000FF90EF90BF90AF909F908F9009941F93D5
:1022D000CF93DF93EC01162F8D8D9E8D892BB1F05E
:1022E0002DA93EA94FA958AD60E074E284EF90E0BB
:1022F0000E94CA2EDA01C9014097A109B109B69519
:10230000A795979587958093B8000FC08B8D9C8D6E
:10231000892B21F08EAD9FAD0E94C90AEFA5F8A9C7
:1023200090818CA9809589238083111102C066EA6F
:1023300001C067EACE010E94660A8D8D9E8D892BB1
:10234000B1F029AD3AAD4BAD5CAD60E074E284EF25
:1023500090E00E94CA2EDA01C9014097A109B10993
:10236000B695A795979587958093B8000FC0EFA570
:10237000F8A990818CA9892B80838B8D9C8D892BCA
:1023800029F0DF91CF911F910C945E0ADF91CF91DC
:102390001F9108950F931F93CF93DF93DC015696FF
:1023A000EC915697E23071F0E330E9F0E13079F5E5
:1023B000FB0114960D90BC91A02DA41BB50BA21B84
:1023C000B30B18C0EC01EC81FD81E61BF70BBF01DC
:1023D00061507109EE81FF81DF01A41BB50BAD01D6
:1023E000421B530B14C0DA01EC01EE81FF81E61BA6
:1023F000F70B3197F7FD0DC0EC014E815F81E417BB
:10240000F5073CF4AF01BD010E94971B02C00E947A
:10241000FE1BDF91CF911F910F9108950F931F9392
:10242000DC015696EC915697E23061F0E33009F109
:10243000E13081F51496ED91FC911597E41BF50BB5
:10244000319723C0DC011496ED91FC911597DF01C3
:10245000A61BB70BBD01DC011696ED91FC911797F9
:10246000DF01A41BB50BAD0141505109621B730B79
:1024700011C0FA01DC0116964D915C911797DA01B3
:10248000A61BB70BBD01621B730BAB01BF010E9402
:10249000FE1B0CC057FD0AC0DC011696ED91FC91A5
:1024A00017974E175F0714F40E94971B1F910F9107
:1024B0000895FC01848DDF01A80FB11DA35ABF4F01
:1024C0002C91848D90E001968F739927848FA68933
:1024D000B7892C93A089B1898C91837080648C9387
:1024E000938D848D981306C00288F389E02D808136
:1024F0008F7D8083089590E0FC01E45EFC4F249181
:10250000FC01E75FF54F3491FC01EB50F64FE4918D
:10251000EE2309F43CC0222339F1233091F038F442
:102520002130A9F0223001F584B58F7D12C027300B
:1025300091F02830A1F02430B9F4809180008F7D93
:1025400003C0809180008F77809380000DC084B598
:102550008F7784BD09C08091B0008F7703C08091D0
:10256000B0008F7D8093B000F0E0EE0FFF1FE355C9
:10257000FD4FA591B4919FB7F894611104C08C915F
:102580003095382302C0EC913E2B3C939FBF0895B9
:10259000CF93DF9390E0FC01E75FF54F2491FC01BE
:1025A000EB50F64F8491882361F190E0880F991FDA
:1025B000FC01EF56FD4FC591D491FC01E355FD4F51
:1025C000A591B491611109C09FB7F89488812095B5
:1025D00082238883EC912E230BC0623061F49FB775
:1025E000F8948881322F309583238883EC912E2BA9
:1025F0002C939FBF06C08FB7F894E8812E2B2883B9
:102600008FBFDF91CF9108958F929F92AF92BF922B
:10261000CF92DF92EF92FF926B017C010E94480FF4
:102620004B015C01C114D104E104F104F1F00E94FA
:10263000480FDC01CB0188199909AA09BB09883E1A
:102640009340A105B10570F321E0C21AD108E10859
:10265000F10888EE880E83E0981EA11CB11CC114FD
:10266000D104E104F10419F7DDCFFF90EF90DF9082
:10267000CF90BF90AF909F908F9008952FB7F89410
:102680006091410270914202809143029091440214
:102690002FBF08951F920F920FB60F9211242F9300
:1026A0003F938F939F93AF93BF93809141029091FB
:1026B0004202A0914302B09144023091400223E0D3
:1026C000230F2D3720F40196A11DB11D05C026E86A
:1026D000230F0296A11DB11D209340028093410259
:1026E00090934202A0934302B0934402809145022A
:1026F00090914602A0914702B09148020196A11D17
:10270000B11D8093450290934602A0934702B09377
:102710004802BF91AF919F918F913F912F910F9060
:102720000FBE0F901F9018951F920F920FB60F9229
:1027300011242F933F934F935F936F937F938F93C6
:102740009F93AF93BF93EF93FF938091B900887FDE
:10275000803609F49CC068F5883209F45BC090F4B7
:10276000803109F454C038F4882309F4F6C0883065
:1027700009F44DC0F6C0883109F44CC0803209F428
:102780005DC0EFC0803409F468C048F4803309F4B8
:1027900055C0883309F0E5C080936D02D8C08035FC
:1027A00009F44FC0883509F45DC0883409F0D9C0F8
:1027B000D6C0883909F4C7C0A8F4883709F467C0BF
:1027C00038F4883609F463C0803709F460C0C9C0A2
:1027D000883809F4B8C0803909F45FC0803809F03E
:1027E000C0C05BC0803B09F486C038F4803A09F46D
:1027F00066C0883A09F47FC0B4C0803C09F4A7C021
:10280000883C09F4A4C0883B09F48AC0AAC080911E
:102810004A0210C090916C0280916B02981770F57B
:10282000E0916C0281E08E0F80936C02F0E0E55B3A
:10283000FD4F80818093BB0085EC86C080936D0244
:102840008EC0E0916C0281E08E0F80936C028091CB
:10285000BB00F0E0E55BFD4F808390916C028091BE
:102860006B026EC0E0916C0281E08E0F80936C026F
:102870008091BB00F0E0E55BFD4F808380916E02AC
:1028800081116DC081E08093490284EA61C083E0D8
:1028900080936F0210923F02CFCF80913F0280322F
:1028A00008F051C0E0913F0281E08E0F80933F021B
:1028B0008091BB00F0E0E15EFD4F8083BDCF85ECF1
:1028C0008093BC0010926F0280913F02803230F4FE
:1028D000E0913F02F0E0E15EFD4F108260913F0227
:1028E00070E0E091C901F091CA018FE192E0099591
:1028F00010923F0236C084E080936F0210921E0255
:1029000010921D02E091CB01F091CC0109958091CC
:102910001D02811105C081E080931D021092FD010E
:10292000E0911E0281E08E0F80931E02F0E0E350E2
:10293000FE4F80818093BB0090911E0280911D020A
:10294000981708F479CF85E88093BC000AC085EC1D
:102950008093BC0010926F0204C010926D020E941E
:102960006D0FFF91EF91BF91AF919F918F917F91EB
:102970006F915F914F913F912F910F900FBE0F90EC
:102980001F901895EF92FF920F931F93CF93DF93B1
:10299000EC0186E391E0998388838B819C81892B6C
:1029A00009F100E010E08D818F7090E008171907A1
:1029B000CCF4EB81FC81C801880F991FE80FF91F47
:1029C000E080F180E114F10451F0F70182818F3051
:1029D00031F4C7010E94C214C7010E949E2F0F5FED
:1029E0001F4FE1CFDF91CF911F910F91FF90EF909B
:1029F0000895EF92FF920F931F93CF93DF93FC0103
:102A0000258130E062177307C4F48A01660F771FCF
:102A1000C381D481C60FD71FE880F980E114F10487
:102A200051F0F70182818F3031F4C7010E94C21446
:102A3000C7010E949E2F19830883DF91CF911F91B8
:102A40000F91FF90EF9008950F931F93CF93DF9313
:102A5000EC018B0188819981803A2FE0920748F43C
:102A60000E94BE2BF8018083888199810196998309
:102A70008883C801DF91CF911F910F910895CF9363
:102A8000DF93EC0188819981803A2FE0920738F436
:102A90000E94C62B88819981019699838883DF9152
:102AA000CF91089520E030E04FE45EE420FD03C0C4
:102AB00050937C0002C040937C0080917A00806437
:102AC00080937A0080917A0086FDFCCF9091780007
:102AD0008091790089279091DC01892780FB879577
:102AE00087F98093DC0190917A008370880F906859
:102AF000892B80937A002F5F3F4F24313105B1F647
:102B00008091DC010895CF93DF93EC0166EC71E0D6
:102B10000E94A30ECE01DF91CF910895E0E4F8E08A
:102B20009491E1E4F8E04491682F082E000C770BB3
:102B3000292F30E062177307FCF09F5F8F5FE2E49C
:102B4000F8E050E02FEF290F022E000C330B421754
:102B5000530794F0981303C0CF0101960895249170
:102B6000211103C031969F5FEDCF249130E02C5F9F
:102B70003F4FE20FF31FF7CF80E090E00895FC0194
:102B8000248135816217730748F480819181009711
:102B900029F0FC01E60FF71F8081089580E0089579
:102BA000CF93DF93EC0188819981009711F00E9407
:102BB0009E2F198218821D821C821B821A82DF912D
:102BC000CF9108950F931F93CF93DF93EC018881EA
:102BD0009981009729F02A813B812617370788F4CD
:102BE0008B016F5F7F4F0E942730009761F09983C0
:102BF00088831B830A832C813D81232B11F4FC01E4
:102C0000108281E001C080E0DF91CF911F910F9190
:102C10000895CF92DF92EF92FF920F931F93CF937D
:102C2000DF93CDB7DEB7C054D1400FB6F894DEBF06
:102C30000FBECDBF0E943E1300913A0310913B039B
:102C400020913C0330913D036B017C01C01AD10AF5
:102C5000E20AF30A40EDC41647E0D406E104F104A9
:102C600018F480914203CAC060933A0370933B0307
:102C700080933C0390933D031092350310923403EC
:102C800010923303109232031092310362E080916C
:102C900036030E94C81261E070E080E090E00E947C
:102CA000041361E0809136030E94C81260E08091B5
:102CB00036030E947B12809137038551823028F4BD
:102CC0008BE291E10197F1F706C064E170E080E0EA
:102CD00090E00E94041362E0809136030E94C812C3
:102CE0008091430390E08230910538F0880F991F5E
:102CF000880F991F05970197F1F7F89480E00E94DB
:102D00009D206F3F7F4F8F4F9F4F21F410924203C2
:102D1000789441C081E00E949D206F3F7F4F8F4F8C
:102D20009F4FA1F38E010F5F1F4F6E012FEBC21A51
:102D30002EEFD20A780180E00E949D20F701608387
:102D400071838283938381E00E949D20F7016483D5
:102D5000758386839783F8E0EF0EF11CEC14FD0475
:102D600051F7789420E030E0F801C080D180E28013
:102D7000F3804481558166817781FFEFCF16DF06AE
:102D8000EF06FF0631F04F3F8FEF580768077807CF
:102D900021F41092420380E031C0F90183E0F595FF
:102DA000E7958A95E1F7EF5CFC4F8081880FC416A8
:102DB000D506E606F70608F4816080832F5F3F4F53
:102DC000085F1F4F2832310579F62091350330E036
:102DD000409131038091320390E0840F911D409126
:102DE0003303840F911D40913403840F911D992763
:102DF0002817390771F681E080934203C05CDE4FEB
:102E00000FB6F894DEBF0FBECDBFDF91CF911F91FB
:102E10000F91FF90EF90DF90CF900895CF92DF92C7
:102E2000EF92FF92CF93DF93C82F809137038C30BE
:102E300009F446C018F48B30D1F06FC08551823050
:102E400008F06BC0D09133036D2F6F7770E0762F51
:102E5000662780913403682B80E090E00E949F2ACF
:102E60002DEC3CEC4CEC5DE30E94002B45C06091E6
:102E7000330370E080E090E00E949F2A6B017C01A8
:102E8000D0913403D7FF0AC09B01AC0160E070E031
:102E900080E89FEB0E940B2C6B017C016D2F6F7003
:102EA00070E080E090E00E94A12A2DEC3CEC4CEC1C
:102EB0005DE30E94002BA70196010E940C2C1EC00E
:102EC000D09133036D2F70E080E090E00E949F2A44
:102ED0006B017C01609134036F7070E080E090E0E2
:102EE0000E94A12A2DEC3CEC4CEC5DE30E94002BEF
:102EF000A70196010E940C2CD7FD9058CC2381F09D
:102F000026E636E646EE5FE30E94002B20E030E046
:102F100040E052E40E940C2C03C060E070E0CB0162
:102F2000DF91CF91FF90EF90DF90CF9008952F9297
:102F30003F924F925F926F927F928F929F92AF9249
:102F4000BF92CF92DF92EF92FF920F931F93CF9396
:102F5000DF93CDB7DEB72A970FB6F894DEBF0FBE6A
:102F6000CDBF7C015B01FC018491319624913196A7
:102F7000E491F82FFF775F2E622F6F7330E0D90155
:102F800096E0B595A7959A95E1F79A2F91709A8753
:102F900090E0880F892F881F990B880F991F220FA7
:102FA000232F221F330B282B822F220F990BDC019A
:102FB000A25FBE4F4C9000E010E0712C612C19868E
:102FC000262E312CA52DB0E0BA83A9839C01265F63
:102FD0003E4F3C832B83DC01AA5FBE4FBE83AD8393
:102FE0009A012E0F311D38872F83021513050CF01F
:102FF0004FC0C12CD12C8F809884800E911E898166
:103000009A81C816D9060CF040C09985911129C043
:10301000772021F0AA85B1E0AB27AA87EB81FC815C
:103020006081862D0E94AA2EE82FF0E03396EE0DE7
:10303000FF1DE491AD81BE812C91F0E0499EC0015D
:10304000112402C0F595E7958A95E2F7B22FBE23C9
:10305000B987B11103C02987712C02C077247394FA
:103060006394E985E150E987FA85FF2351F021E077
:1030700030E0A401B5016C0D7D1D84E493E00E9455
:103080003B052FEFC21AD20ABACF0F5F1F4FADCF49
:10309000852D2A960FB6F894DEBF0FBECDBFDF9107
:1030A000CF911F910F91FF90EF90DF90CF90BF9045
:1030B000AF909F908F907F906F905F904F903F90D8
:1030C0002F900895AF92BF92CF92DF92EF92FF922E
:1030D0000F931F93CF93DF938C015B016A01C901AA
:1030E000B8016B5F7F4FA5010E949717E12CF12C6F
:1030F000C0E0F60184819581E816F90698F4B701DD
:10310000C6010E94BF15803211F4C85F07C00E943B
:103110008E15FC0184918F77C80FCE5FFFEFEF1AF9
:10312000FF0AE7CF80E890E09C012C1B3109E90100
:10313000C00FD11F2A97E12CF12C00E010E0F6011E
:1031400084819581E816F906C8F4B701C6010E948A
:10315000BF15803219F4085F1F4F0CC00E948E15F6
:10316000BE01600F711FA5010E94971790E00296A3
:10317000080F191FFFEFEF1AFF0AE1CFDF91CF9180
:103180001F910F91FF90EF90DF90CF90BF90AF9085
:103190000895EF92FF920F931F93CF93DF93EC016B
:1031A0007B0161157105E1F0CB010E945F2800975A
:1031B000D1F02C813D818C01020F131FB801CE018B
:1031C0000E94E215882361F0288139818C819D81DC
:1031D000B701820F931F0E9458281D830C8303C0E0
:1031E000CE010E94D015CE01DF91CF911F910F919A
:1031F000FF90EF900895CF92DF92EF92FF920F939E
:103200001F93CF93DF93EC010091970410919804E2
:10321000E0909504F09096040E151F0591F5C801F5
:10322000089681382FE3920718F4880F991F02C07F
:103230008FEF9FEF0E94062F6C018091990490916F
:103240009A04DC01F60120E030E02017310739F064
:103250004D915D91419351932F5F3F4FF6CF1E14D7
:103260001F0414F40E949E2FD0929A04C0929904D5
:10327000809195049091960408969093960480937B
:10328000950480919704909198042091990430912D
:103290009A049C01220F331FE0919904F0919A0443
:1032A000E20FF31FD183C08301969093980480931B
:1032B0009704CE01DF91CF911F910F91FF90EF9076
:1032C000DF90CF9008952F923F924F925F926F922E
:1032D0007F928F929F92AF92BF92CF92DF92EF92A6
:1032E000FF920F931F93CF93DF93CDB7DEB76B970A
:1032F0000FB6F894DEBF0FBECDBF9B8F8A8F1B0128
:103300004A01D22E198708873701A982DC01599614
:103310002D913C915A972115310509F0FFC018965F
:103320008D919C911997681779070CF0E7C11A964F
:103330008D919C911B97481759070CF0DFC1EC2D1C
:10334000F0E0FB83EA839B0146E0C49E200D311D23
:1033500011243D872C87121613060CF0CFC16A2D5D
:1033600070E07B876A8783E0660F771F8A95E1F7B5
:103370007F876E87CB01880D991D181619060CF0F2
:10338000BDC158968C91811104C08FEA8D1508F447
:10339000D394AA8DBB8DED91FC9111970284F38596
:1033A000E02DCD010995B5E0DB9EC0011124EC2D87
:1033B000F0E0F98BE88B91012B5F3F4F3B8B2A8B21
:1033C0003D822C822101AC01421953095D8B4C8B4B
:1033D0007981672F70E07F8B6E8BC4010896998F7F
:1033E000888FEC89FD89E40DF51DE05CFC4FD490DD
:1033F00054019F828E82D0FE16C0AA8DBB8DED91A6
:10340000FC91B1E0CB1209C02981213031F4048450
:10341000F585E02D2885398519C00684F785E02DCE
:10342000E884F9841DC0488559854615570519F16A
:10343000AA8DBB8DED91FC91B1E0CB120DC029811D
:10344000213051F40484F585E02D9301A501B201EA
:103450008A8D9B8D09950FC00684F785E02D730139
:103460000A851B852A813B814E815F816C817D812C
:103470008A8D9B8D0995D6943FEFA31AB30A4E818E
:103480005F816E897F89460F571F5F834E83888DCA
:10349000998DA816B90609F0AECF9FEF491A590ABF
:1034A000AC81BD81E889F989AE0FBF1FBD83AC83B4
:1034B0002A893B894216530609F093CF48855985DE
:1034C0004615570509F4F8C0AA8DBB8DED91FC9106
:1034D000B1E0CB1211C02981213071F4B1016B5FD1
:1034E0007F4F0088F189E02D830128E030E0A401BE
:1034F0008A8D9B8D0995E0C06C857D854A815B81B5
:10350000641B750B0684F785E02D73010E851F85FE
:103510009A01A4018A8D9B8D0995CEC0F90134963C
:10352000E491DE1AF901329685919491B7E0DB9E21
:10353000800D911D1124F901259134913B8B2A8B2B
:10354000FC01259134915901FC0132965490319639
:1035500034913C87329674903196149141E04C1529
:1035600018F05981523068F0672D072C000C770B4A
:103570007D836C83812F012E000C990B9B838A83A2
:1035800004C01B821A821D821C82AA8DBB8DED9104
:10359000FC9111970284F385E02DCD010995412C12
:1035A000D12C612CF981EF2FF0E0FF83EE832C2DDD
:1035B00030E03B872A87A401410F511D17FD5A9522
:1035C0005F8B4E8BB101670D711D77FC7A95798FFA
:1035D000688F7C85671608F06FC0262D30E04A8121
:1035E0005B81420F531FAE81BF81A49FC001A59F85
:1035F000900DB49F900D1124F401E80FF91FF98B81
:10360000E88B842D712C4E895F89420F531F5D8B8F
:103610004C8B751408F04DC051E0580F5E878770D1
:1036200041F4C5010196EA89FB89EA0DFB1DD4909E
:103630005C01D7FE3AC061E0C61216C079817130D4
:1036400099F4AA8DBB8DED91FC9111970484F585B9
:10365000E02D288539854C895D89688D798D670DC8
:10366000711DCD01099521C08C819D81870D911D12
:10367000EA85FB858E9FB0018F9F700D9E9F700D18
:103680001124620D731DAA8DBB8DED91FC911197D4
:103690000684F785E02DE884F9840E811F812A8550
:1036A0003B8548895989CD010995DD0C73948E8538
:1036B000B0CF450C63948DCFAA8DBB8DED91FC915D
:1036C00011970688F789E02DCD016B960FB6F89417
:1036D000DEBF0FBECDBFDF91CF911F910F91FF9045
:1036E000EF90DF90CF90BF90AF909F908F907F90A2
:1036F0006F905F904F903F902F9009946B960FB60C
:10370000F894DEBF0FBECDBFDF91CF911F910F9117
:10371000FF90EF90DF90CF90BF90AF909F908F90F1
:103720007F906F905F904F903F902F9008950F93F0
:103730001F93CF93DF9377FF04C0260F371F60E0FE
:1037400070E0DC011496CD91DC911597FB01E20F3E
:10375000F31FCE17DF071CF49E01261B370B121632
:1037600013060CF046C0FA0157FD3796DF01E3E07F
:10377000B595A795EA95E1F7AC9FF001AD9FF00DE7
:10378000BC9FF00D11246E0F7F1FDC015F96ED9141
:10379000FC919097E60FF71F4770552781E090E066
:1037A00001C0880F4A95EAF7482F0130110539F01A
:1037B00078F002301105E9F42E0F3F1F13C02E0FD1
:1037C0003F1FE217F307A9F08081842B8193F9CF83
:1037D00080952E0F3F1FE217F30759F09081982331
:1037E0009193F9CFE217F30721F080818427819329
:1037F000F9CFDF91CF911F910F910895EF92FF9232
:103800000F931F93CF93DF93EC0177FDA5C0EC805E
:10381000FD806E157F050CF09FC057FF04C0240F7C
:10382000351F40E050E08E819F81FA01E20FF31FC7
:103830008E179F071CF49C01241B350B12161306D0
:103840000CF08AC0922F842F8695869586958E9D42
:10385000D0018F9DB00D11246A0F7B1FAF8DB8A1D1
:10386000A60FB71F4770B1F188E0841B482F682F5F
:1038700070E0FB01E85CFC4FE491281798F4621BB0
:1038800071092FEF30E002C0359527956A95E2F770
:10389000E2230130110549F078F00230110509F0FA
:1038A0005BC00EC00130110519F48C91E82B0AC0E1
:1038B0000130110508F049C0E0958C91E82302C061
:1038C0008C91E827EC93941708F446C02C813D8135
:1038D000A20FB31FE92FE41BE830F8F00230110506
:1038E00061F48E2F9C9190959C932C813D81A20F29
:1038F000B31F88508830B0F70FC081E00115110563
:1039000009F480E081959E2F8C932C813D81A20F3C
:10391000B31F98509830C0F7E770EE23E9F0F0E05D
:10392000E05DFC4FE4910130110539F048F00230C0
:10393000110591F48C91E82706C08C91E82B03C007
:10394000E0958C91E823EC9307C00230110509F44F
:10395000B7CFAE0DBF1DBECFDF91CF911F910F919D
:10396000FF90EF900895EF92FF920F931F93CF93E4
:10397000DF93EC017B018A01BA010E94E2158111FB
:1039800004C0CE010E94D01507C01D830C83B7016F
:10399000888199810E940231CE01DF91CF911F91E0
:1039A0000F91FF90EF900895FC01808191810C941C
:1039B0009E2FEF92FF920F931F93CF93DF93CDB77C
:1039C000DEB7A1970FB6F894DEBF0FBECDBF7C0166
:1039D000CB01BA01F7011182108213821282158283
:1039E000148242E0420F8E010F5F1F4F0E94382861
:1039F000009769F0FC0101900020E9F73197AF01D1
:103A0000481B590BBC01C7010E94B31C03C0C7016E
:103A10000E94D015A1960FB6F894DEBF0FBECDBFA1
:103A2000DF91CF911F910F91FF90EF900895FB01CF
:103A3000DC0111961C921E9213961C921E921297F4
:103A400015961C921E9214978617970749F060816D
:103A500071816115710521F0448155810C94B31C6D
:103A600008956F927F928F929F92AF92BF92CF9262
:103A7000DF92EF92FF920F931F93CF93DF93EC01AE
:103A80008B013A0169010E943E134B015C017801F0
:103A900000E010E006151705A4F50E943E13AB01E7
:103AA000BC01481959096A097B09F6018081918195
:103AB000092E000CAA0BBB0B84179507A607B707A6
:103AC00050F0E881F9810084F185E02DCE0109955F
:103AD0001816190614F7E881F9810084F185E02DA4
:103AE000CE010995892B69F0E881F9810284F3857B
:103AF000E02DCE010995F70181937F010F5F1F4FE4
:103B0000C9CF0E943E13AB01BC01481959096A098B
:103B10007B09F60180819181841B950B91838083C1
:103B2000C801DF91CF911F910F91FF90EF90DF902F
:103B3000CF90BF90AF909F908F907F906F9008959F
:103B4000CF93DF931F92CDB7DEB79B01198241E07F
:103B500050E0BE016F5F7F4F0E94311D019719F445
:103B6000898190E002C08FEF9FEF0F90DF91CF919E
:103B7000089530919302313208F04BC080916F026A
:103B80008111FCCF9091920222E020936F0221E0FC
:103B900020936E022FEF20936D0210926C023093EF
:103BA0006B02E2E7F2E0ABE4B2E020E0321721F092
:103BB00041914D932F5FFACF10924A0220914A0211
:103BC000990F922B90934A0290914902913061F49F
:103BD0001092490290914A029093BB009091BC00D0
:103BE00093FDF8CF95EC01C095EE9093BC009091B9
:103BF0006F029230E1F390916D029F3F79F08091D6
:103C00006D02803241F080916D02803331F084E0AA
:103C100005C081E003C082E001C083E01092710220
:103C200010929302109270020895EF92FF920F93F8
:103C30001F93CF93DF937C01C62F809161039091F6
:103C40006203009709F459C02091650331E0309375
:103C50007002209392021092710210929302DC0182
:103C6000ED91FC910190F081E02D60E009958701D4
:103C7000EE24E394F12CD1E08091610390916203F2
:103C8000CC2399F1B0E2EB16F104D8F00E94B91DF3
:103C900080916503D093700280939202109271021A
:103CA000109293028091610390916203DC01ED9187
:103CB000FC910190F081E02D60E00995EE24E39401
:103CC000F12C8091610390916203F8016491DC0111
:103CD000ED91FC910190F081E02D0995BFEFEB1A79
:103CE000FB0AC1500F5F1F4FC7CFDF91CF911F91CC
:103CF0000F91FF90EF900C94B91DE0917103F0913A
:103D00007203908180917703809589238083870156
:103D1000CC2309F439C0F801849120915F033091DC
:103D20006003232B31F00E945F0AC1500F5F1F4FC9
:103D3000EFCF28E030E040E8E0916D03F0916E03B2
:103D400090917503582F542319F05081952B03C07F
:103D50005081909595239083E0916F03F0917003CB
:103D6000508190917603952B9083E0916F03F091B1
:103D7000700350819091760390959523908346959A
:103D800021503109C9F6D1CFDF91CF911F910F9109
:103D9000FF90EF900895DF92EF92FF920F931F93A1
:103DA000CF93DF938091610390916203892BD1F0CF
:103DB0002091790330917A0340917B0350917C03E9
:103DC00060E074E284EF90E00E94CA2EDA01C9013B
:103DD0004097A109B109B695A795979587958093C6
:103DE000B80016C080915F0390916003892B31F079
:103DF00080918203909183030E94C90AE09173032A
:103E0000F091740390818091780380958923808359
:103E100065E080EF99E00E94151E609148036150B3
:103E200084E493E00E94660A20914A0330914B0398
:103E3000C901079697FD079653E0959587955A9582
:103E4000E1F72091480330914903829F8001839FCD
:103E5000100D929F100D1124C0916303D091640343
:103E600080916103909162030C0F1D1F009709F46C
:103E700051C02091650331E030937002209392028B
:103E80001092710210929302DC01ED91FC9101906D
:103E9000F081E02D60E40995EE24E394F12CDD241B
:103EA000D39480916103909162030C171D0779F1FF
:103EB000B0E2EB16F104D8F00E94B91D80916503C1
:103EC000D09270028093920210927102109293022B
:103ED0008091610390916203DC01ED91FC9101906E
:103EE000F081E02D60E40995EE24E394F12C8091BB
:103EF0006103909162036991DC01ED91FC91019065
:103F0000F081E02D0995BFEFEB1AFB0ACACF0E94A2
:103F1000B91D41C0E0917103F091720390818091CD
:103F20007703892B80830C171D07A9F189912091B4
:103F30005F0330916003232B19F00E945F0AF3CFD7
:103F400028E030E040E8E0916D03F0916E0390913D
:103F50007503582F542319F05081952B03C05081BD
:103F6000909595239083E0916F03F09170035081B9
:103F700090917603952B9083E0916F03F0917003FD
:103F8000508190917603909595239083469521508A
:103F90003109C9F6C8CF8091610390916203892BE2
:103FA000D1F020917D0330917E0340917F035091A9
:103FB000800360E074E284EF90E00E94CA2EDA0190
:103FC000C9014097A109B109B695A795979587951D
:103FD0008093B80018C0E0917303F091740390814E
:103FE00080917803892B808380915F039091600397
:103FF000892B49F0DF91CF911F910F91FF90EF90A6
:10400000DF900C945E0ADF91CF911F910F91FF908A
:10401000EF90DF9008954F925F926F927F928F9210
:104020009F92AF92BF92CF92DF92EF92FF920F9347
:104030001F93CF93DF9380ECA82E83E0B82E90EAF5
:10404000692E93E0792EC0E0D0E020E8822E912CFA
:104050002301F301219131913F0121503109E12CDC
:10406000F12C8E01AE0160E070E084E493E00E94E8
:104070006D066E01F0E1CF0ED11CF5013291229157
:104080005F01215031098601A60160E070E084E4FF
:1040900093E00E946D06F201808191819401281BBA
:1040A000390B8E01AE016FE770E084E493E00E946B
:1040B0006D06F501808191819401281B390B8601E1
:1040C000A6016FE770E084E493E00E946D062196FC
:1040D000C031D10509F0BCCFDF91CF911F910F9175
:1040E000FF90EF90DF90CF90BF90AF909F908F9018
:1040F0007F906F905F904F90089520914A03309188
:104100004B03C901079697FD079623E09595879580
:104110002A95E1F72091480330914903829FA0013D
:10412000839F500D929F500D112460E070E08091AC
:104130006303909164030C94FB30CF92DF92EF9273
:10414000FF92CF93DF93B0913803882311F0AB2F08
:1041500001C0A0E08091390390E0880F991F8A5137
:10416000964FC0903E03D0903F03E0904003F09004
:10417000410320E030E0FC01C591D491E881EB23BC
:10418000A90160E070E0EA130CC02F5F3F4F4C15AF
:104190005D056E057F0578F33FEF2FEF8FEF9FEF03
:1041A00003C0322F252FCB01632F722FDF91CF91C8
:1041B000FF90EF90DF90CF900895CF93DF93CDB72E
:1041C000DEB727970FB6F894DEBF0FBECDBF789449
:1041D00084B5826084BD84B5816084BD85B582600C
:1041E00085BD85B5816085BD80916E0081608093BD
:1041F0006E00109281008091810082608093810026
:104200008091810081608093810080918000816035
:10421000809380008091B10084608093B100809190
:10422000B00081608093B00080917A0084608093B8
:104230007A0080917A00826080937A0080917A007F
:10424000816080937A0080917A00806880937A0000
:104250001092C100E091A402F091A50282E0808357
:10426000E091A002F091A1021082E091A202F091EF
:10427000A30280E180831092AC02E091A802F09149
:10428000A90286E08083E091A602F091A7028081D6
:1042900080618083E091A602F091A702808188600E
:1042A0008083E091A602F091A702808180688083DC
:1042B000E091A602F091A70280818F7D808385ED39
:1042C00093E00E94FB188DEE93E00E94FB1884E9B6
:1042D00092E090934A048093490400E010E00E9429
:1042E0005215F801EB5FFB4F80830F5F1F4F0031CA
:1042F0001105A9F78091A5049091A6049C838B8356
:1043000080914B048F8380914C048E83BE01695F42
:104310007F4FCE0103960E942415BE016A5F7F4F36
:10432000CE0103960E9424158E8180934C048F81C8
:1043300080934B0480914B048A3F08F0CFC31D82C9
:10434000BE016B5F7F4FCE0103960E9424158D81C5
:10435000873319F481E080939C0480914B04882377
:1043600009F4C0C380914B048F3F09F4BBC3809113
:104370004C04882309F4CDC380914C048F3F09F489
:10438000C8C382E08093B00084E08093B10080EFE6
:104390008093B30080917000826080937000809160
:1043A000630390916403892B11F520914A033091A6
:1043B0004B03C901079697FD079643E095958795AE
:1043C0004A95E1F72091480330914903AC01429F9F
:1043D000C001439F900D529F900D11240E94062F03
:1043E0009093640380936303892B09F409C10E94AD
:1043F0007D2082E080936603809161039091620347
:10440000892B09F49EC38CE3809365031092CE013F
:104410001092CD01109271021092930210926F02CD
:1044200081E080936E021092490261E082E10E9475
:104430007B1261E083E10E947B128091B9008E7F44
:104440008093B9008091B9008D7F8093B90088E492
:104450008093B80085E48093BC008FE99FE090933F
:10446000CC018093CB0180EA9FE09093CA018093B6
:10447000C90180916C0387FD1EC061E00E94C812D3
:1044800061E080916C030E947B1261E070E080E04B
:1044900090E00E94041360E080916C030E947B1204
:1044A0006AE070E080E090E00E94041361E0809197
:1044B0006C030E947B128091610390916203892BAF
:1044C00009F4FEC32091790330917A0340917B0374
:1044D00050917C0360E074E284EF90E00E94CA2E69
:1044E000DA01C9014097A109B109B695A795979539
:1044F00087958093B80064E089EA92E00E94151ED7
:1045000060914A03615084E493E00E94660A64E08B
:1045100085EA92E00E94151E80916603813009F0C1
:10452000E6C360E184E493E00E94660A64E081EA05
:1045300092E00E94151E8FE88093810380914803CA
:10454000909149038038910509F0D5C380914A03C1
:1045500090914B038034910509F0DFC3809166038D
:10456000813009F0C6C38FE98093810312E16AEDBF
:1045700084E493E00E94660A612F84E493E00E9441
:10458000660A61E884E493E00E94660A6091810310
:1045900084E493E00E94660A69ED84E493E00E945B
:1045A000660A80916603813009F0B9C362E284E44F
:1045B00093E00E94660A66E08BE992E00E94151E75
:1045C0008091610390916203892B09F4AAC3209121
:1045D0007D0330917E0340917F035091800360E022
:1045E00074E284EF90E00E94CA2EDA01C90140977C
:1045F000A109B109B695A795979587958093B800BD
:104600000E947D2062E0809136030E94C8120E94C1
:104610003E13DC01CB01805D9740A109B109809375
:104620003A0390933B03A0933C03B0933D0387E38D
:104630008093430362E084E493E00E94F90540E044
:1046400050E06FE270E087EB92E00E9497170E94C3
:10465000CB1E60ED77E080E090E00E940413809133
:10466000880390918903FC01EE0FFF1FEF53FC4F6D
:104670002DE03AE031832083FC01EE0FFF1FED5364
:10468000FC4F2CEB39E031832083FC01EE0FFF1F40
:10469000EB53FC4F2BE639E0318320830396909354
:1046A00089038093880312E00E940916882331F061
:1046B00080E00E940E174B015C0103C0812C912CFD
:1046C00054018092D7019092D801A092D901B09262
:1046D000DA010E940916882321F081E00E940E175A
:1046E00003C060E070E0CB016093D3017093D4010C
:1046F0008093D5019093D6010E9409168823D1F1A9
:10470000809137038B30B0F18D30A8F08551823025
:1047100088F56091310370913203762767277627F9
:1047200080E090E00E949F2A2DEC3CEC4CEC5DE395
:104730000E94002B1CC06091320370E080E090E08A
:104740000E94A12A2DEC3CEC4CEC5DE30E94002B76
:104750006B017C016091310370E080E090E00E9489
:10476000A12A9B01AC01C701B6010E940C2C6B0170
:104770007C0103C0C12CD12C7601C092CF01D09214
:10478000D001E092D101F092D2012BE734E948E860
:1047900053E4C501B4010E940C2C6093E9037093AB
:1047A000EA038093EB039093EC036093DD03709333
:1047B000DE038093DF039093E00320E030E048ECD9
:1047C00052E4C701B6010E94782C609301047093F3
:1047D000020480930304909304046093F5037093A0
:1047E000F6038093F7039093F80360918803709128
:1047F0008903161617060CF06EC18091C003811153
:10480000C3C0C0909803D0909903E0909A03F090B1
:104810009B0320E030E040E05FE3C701B6010E9467
:104820009A2A18166CF0A7019601C701B6010E94DA
:104830000C2C9B01AC01C701B6010E94002B20C0CB
:1048400020E030E040E05FE3C701B6010E940B2C9E
:1048500020E030E040E05FE30E94252D23EF34E0CC
:1048600045E35FE30E94782C20E030E040E05FE326
:104870000E94002B20E030E040E05FE30E940C2C1F
:104880006B017C019B01AC0160E070E080E89FE37C
:104890000E940B2C20E030E0A9010E94002B4B016C
:1048A0005C0120E030E04EEF52ECC701B6010E94FF
:1048B000002B9B01AC01C501B4010E940C2C0E948D
:1048C000EA2C6B017C010E947D2020918A033091AB
:1048D0008B0337FD0CC0220F331FF901EF53FC4F40
:1048E0000190F081E02D60E070E0C60109955FE77E
:1048F000C50ED11C80918A0390918B030196609123
:104900008803709189030E94B62EFC01EE0FFF1FF1
:10491000EF53FC4F0190F081E02D60E070E0C601A4
:1049200009950E940B200E94CB1E2DEC3CEC4CE420
:104930005DE3609198037091990380919A0390913F
:104940009B030E940C2C6B017C012EEA37E441E8AA
:104950005FE30E94202D18164CF0C0929803D0926D
:104960009903E0929A03F0929B03B5C010929803CA
:104970001092990310929A0310929B038091C003A6
:104980008F5F8093C003A7C08130C1F5613071058E
:1049900091F180918A0390918B0301960E94B62E2B
:1049A000FC01EE0FFF1FEF53FC4F0190F081E02D53
:1049B00060E070E080E090E009950E940B200E948A
:1049C000CB1E8091C0038F5F8093C0030E943E1373
:1049D0006093900370939103809392039093930359
:1049E0000E943E1360939403709395038093960303
:1049F0009093970370C01093C0036DC0823009F08C
:104A00006AC00E943E13C0909003D0909103E09042
:104A10009203F0909303AB01BC014C195D096E0940
:104A20007F098091840390918503092E000CAA0BC5
:104A3000BB0B84179507A607B70740F4609188035E
:104A400070918903623071050CF07EC10E943E13A3
:104A5000C0909403D0909503E0909603F090970354
:104A6000AB01BC014C195D096E097F098091860379
:104A700090918703092E000CAA0BBB0B8417950796
:104A8000A607B70740F50E943E1360939403709306
:104A9000950380939603909397030E947D208091C5
:104AA0008A0390918B03019660918803709189032A
:104AB0000E94B62EFC01EE0FFF1FEF53FC4F01903A
:104AC000F081E02D60E070E080E090E009950E94C8
:104AD0000B200E94CB1E0E943E0FE6CD8FEF8093ED
:104AE0004B042DCC0E94521590E069EF70E00E94BB
:104AF000B62E11E0180F8091A5049091A6049A8318
:104B00008983612FCE0101960E943F1510934B04BB
:104B10002ECC0E94521590E069EF70E00E94B62EF4
:104B200011E0180F8091A5049091A60401969A8334
:104B30008983612FCE0101960E943F1510934C048A
:104B400020CC61E080916A030E94C81261E08091EC
:104B50006B030E94C81280916A03082E000C990B07
:104B6000FC01EB50F64FE491F0E0EE0FFF1FE35530
:104B7000FD4F259134913093720320937103FC0112
:104B8000E75FF54FE491E093770380916B03082E84
:104B9000000C990BFC01EB50F64FE491F0E0EE0FA6
:104BA000FF1FE355FD4FA591B491B0937403A093FB
:104BB0007303FC01E75FF54FE491E09378038C9178
:104BC000E82BEC9380915F0390916003892B09F4AB
:104BD00034C01FB7F8948091DB01811127C0EFEF3B
:104BE000F9E08491E3E1FAE09491E82FF0E0EE0F30
:104BF000FF1FEF56FD4FA591B491EC91E92321F4ED
:104C000061E08AE00E947B1261E08AE00E94C812A3
:104C10008CB580618CBD8CB580648CBD61E08DE00D
:104C20000E94C81261E08BE00E94C8128091DB01F3
:104C30008F5F8093DB011FBF1CCC61E08091680314
:104C40000E94C81261E0809169030E94C81280919D
:104C50006803082E000C990BFC01EB50F64FE49111
:104C6000F0E0EE0FFF1FE355FD4F25913491309397
:104C70006E0320936D03FC01E75FF54FE491E09331
:104C8000750380916903082E000C990BFC01EB5011
:104C9000F64FE491F0E0EE0FFF1FE355FD4FA591B5
:104CA000B491B0937003A0936F03FC01E75FF54FDD
:104CB000E491E09376038C91E095E823EC93D9CBD3
:104CC00080915F0390916003892B31F08091820382
:104CD000909183030E94C90AE0917303F0917403D9
:104CE00090818091780380958923808304CC64E14E
:104CF00019CC8FEC39CC8036910579F480914A0338
:104D000090914B03409749F480916603813011F4F0
:104D100080E101C08FEA8093810312E028CC61EF2B
:104D200046CCE0917303F0917403908180917803F5
:104D3000892B808380915F0390916003892B09F414
:104D40005FCC0E945E0A5CCC1092C00380918A0303
:104D500090918B0301960E94B62E90938B038093C3
:104D60008A03B9CE1F93CF93DF93EC01162F1E82D7
:104D7000188619861A861B861C861D861E861F8627
:104D8000188A198A1A8A1B8A81E08D8382E090E052
:104D90000E94062F9C838B83FC01118210821C8A47
:104DA0001D8A1E8A1F8A88EA91E0998388831A8364
:104DB000DF91CF911F910895CF93DF93E4E9F2E063
:104DC0001382128288EE93E0A0E0B0E084839583A2
:104DD000A683B78328E531E03183208325EC30E0DA
:104DE0003587248724EC30E03787268720EC30E0B5
:104DF000318B208B21EC30E0338B228B22EC30E0A6
:104E0000358B248B26EC30E0378B268B118E128E5F
:104E1000138E148EC7EAD4E01B821A828C839D8382
:104E2000AE83BF838AE691E09983888310924B0416
:104E300010924C0410924E0410924D041092900463
:104E4000109291041092920410929404109296047D
:104E500010929504109298041092970410929A045C
:104E60001092990410929B0410929C0410929E043C
:104E700010929D041092A00410929F041092A2041C
:104E80001092A1041092A4041092A3041092A604FC
:104E90001092A504A1E3B3E08EE015968C931597CC
:104EA0008BE016968C931697E7E1FAE0E49117965B
:104EB000EC931797E3E0FAE0E4911896EC931897D7
:104EC00040E85EE360E070E01D964D935D936D9366
:104ED0007C935097E4E4F3E01382128220E830E000
:104EE0003583248380E290E097838683318720870F
:104EF00093878287168A158614861786168681E020
:104F0000858B848B2FEF3FEF338B228B318B208B64
:104F1000878B108E128E118E148E138ED68FC58FA6
:104F200010A2178E8FEF84A385A386A387A380A7E3
:104F300080E89AE1A6E0B0E085AB96ABA7ABB0AF56
:104F400080EA96E8A1E0B0E081AF92AFA3AFB4AF42
:104F500080E586AF17AE8CE791E09183808388EB84
:104F60009BE0909385038093840384E690E0909384
:104F700087038093860310928903109288033093ED
:104F80008B0320938A0310928C0310928D0310924E
:104F90008E0310928F03109290031092910310923F
:104FA000920310929303109294031092950310921F
:104FB00096031092970310929803109299031092FF
:104FC0009A0310929B0310929C0310929D031092DF
:104FD0009E0310929F0380E2E2E1F1E0A0EAB3E0D9
:104FE00001900D928A95E1F71092C00369E385ED77
:104FF00093E00E94B2266AE38DEE93E0DF91CF91B9
:105000000C94B226CF93DF93C8EAD1E0D093EE039D
:10501000C093ED038DEE93E00E94C214D093D603AB
:10502000C093D50385ED93E00E94C2148CE791E014
:1050300090934503809344038091630390916403AC
:10504000009711F00E949E2F8091950490919604F4
:105050001816190654F48091990490919A040097B7
:1050600021F0DF91CF910C949E2FDF91CF91089585
:10507000EF920F931F93CF93DF93E80147FD02C098
:1050800034E001C034E1042E000C550B57FF03C07F
:10509000519541955109E32E022F242FAE010E9414
:1050A0006828CE01DF91CF911F910F91EF90089565
:1050B000FB01DC0105900D920020E1F70895FC0151
:1050C00005900020E9F7809590958E0F9F1F089519
:1050D000A9E0B0E0EEE6F8E20C94DA2B6A01122FB8
:1050E000B02E2BE3201720F0FF24F394F00E02C023
:1050F0002CE3F22E0F2D27E0AE014F5F5F4F0E9491
:10510000C229BC014981842F8970813031F0E1FCD2
:1051100006C0E0FE06C090E205C09DE203C09BE22F
:1051200001C090E05E2D507143FF3CC0911102C060
:1051300083E001C084E0811718F4212F281B01C0EF
:1051400020E051110BC0F601822F30E2882319F0C4
:1051500031938150FBCFC20ED11C20E0992329F05E
:10516000D6019C93F60131966F01C6010396E2FECB
:105170000AC03EE4D6013C9341E411964C9311974A
:1051800012963C9306C03EE6F601308341E6418329
:105190003283FC01322F40E2332309F442C04193B1
:1051A0003150FACF42FF44C0911102C083E001C0E8
:1051B00084E0811718F4212F281B01C020E0511131
:1051C0000BC0F601822F30E2882319F03193815011
:1051D000FBCFC20ED11C20E0992329F0D6019C936D
:1051E000F60131966F01C6010396E2FE0BC039E469
:1051F000D6013C933EE411963C93119736E4129607
:105200003C9307C039E6F60130833EE6318336E64B
:105210003283FC01322F40E2332319F041933150A5
:10522000FBCFFC01E20FF11D10828EEF9FEFA6C0B5
:1052300021E030E0911102C020E030E016161706A0
:105240001CF4FB01319602C0E1E0F0E02E0F3F1F9D
:10525000BB2021F0EB2DF0E0319602C0E0E0F0E061
:105260002E0F3F1FE12FF0E02E173F071CF4121BFB
:10527000212F01C020E08E2D887159F4F601822F74
:1052800030E2882319F031938150FBCFC20ED11C3C
:1052900020E0992329F0D6019C93F60131966F0105
:1052A00051110BC0F601822F90E3882319F09193DE
:1052B0008150FBCFC20ED11C20E00F2D060F9A812A
:1052C000342F307144FF03C0913309F4015010169C
:1052D00024F4093018F008E001C001E0AB0177FFC9
:1052E00002C040E050E0FB01E41BF50BA1E0B0E0A0
:1052F000AC0FBD1FEA0FFB1F8EE2A82E4B01801AD8
:1053000091080B2D10E01195019511094F3FBFEF4A
:105310005B0721F4D601AC9211966D0164177507F5
:105320002CF08416950614F4818101C080E341506D
:1053300051093196D60111967D014017510724F08D
:10534000D6018C936701E2CF6417750739F4963361
:1053500020F4953319F4311101C081E3F601808303
:10536000F701822F90E2882319F091938150FBCFAF
:10537000F701E20FF11D108280E090E02996ECE049
:105380000C94F62B283008F027E03327DA01990F28
:10539000311D87FD916000966105710539F4326019
:1053A0002E5F3D9330E32A95E1F708959F3F30F05B
:1053B00080387105610509F03C5F3C5F3D93913099
:1053C00008F08068911DDF93CF931F930F93FF9296
:1053D000EF92192F987F9695E92F96959695E90F5C
:1053E000FF27EC5BFE4F99273327EE24FF24A7010C
:1053F000E70105900894079428F4360FE71EF81E7D
:10540000491F511D660F771F881F991F0694A1F72A
:105410000590079428F4E70EF81E491F561FC11D7A
:10542000770F881F991F661F0694A1F705900794B0
:1054300028F4F80E491F561FC71FD11D880F991F4A
:10544000661F771F0694A1F70590079420F4490F73
:10545000561FC71FD81F990F661F771F881F0694F6
:10546000A9F784911095177041F0D695C795579577
:105470004795F794E7941A95C1F7EAEEF0E068943F
:105480001590159135916591959105907FE27395F1
:10549000E118F10A430B560BC90BD009C0F7E10C18
:1054A000F11E431F561FC91FD01D7EF4703311F427
:1054B0008A95E6CFE894015030F0080F0AF40027EF
:1054C000021708F4202F2395022F7A3328F079E36E
:1054D0007D932A95E9F710C07D932A9589F6069465
:1054E00097956795379517951794E118F10A430B2F
:1054F000560BC90BD00998F023957E9173957A339A
:1055000008F070E37C932013B8F77E9170617D936F
:1055100030F0839571E37D9370E32A95E1F71124D0
:10552000EF90FF900F911F91CF91DF91992787FD09
:10553000909508950E94DC2A08F481E00895E8948B
:1055400009C097FB3EF490958095709561957F4FCB
:105550008F4F9F4F9923A9F0F92F96E9BB27939579
:10556000F695879577956795B795F111F8CFFAF489
:10557000BB0F11F460FF1BC06F5F7F4F8F4F9F4FBA
:1055800016C0882311F096E911C0772321F09EE818
:10559000872F762F05C0662371F096E8862F70E07E
:1055A00060E02AF09A95660F771F881FDAF7880F58
:1055B0009695879597F90895990F0008550FAA0BAE
:1055C000E0E8FEEF16161706E807F907C0F0121616
:1055D0001306E407F50798F0621B730B840B950B19
:1055E00039F40A2661F0232B242B252B21F408956E
:1055F0000A2609F4A140A6958FEF811D811D08950B
:105600000E94132B0C94842B0E94762B38F00E945E
:105610007D2B20F0952311F00C946D2B0C94732BA3
:1056200011240C94B82B0E94952B70F3959FC1F315
:10563000950F50E0551F629FF001729FBB27F00D40
:10564000B11D639FAA27F00DB11DAA1F649F662795
:10565000B00DA11D661F829F2227B00DA11D621FE4
:10566000739FB00DA11D621F839FA00D611D221F9E
:10567000749F3327A00D611D231F849F600D211D82
:10568000822F762F6A2F11249F5750409AF0F1F005
:1056900088234AF0EE0FFF1FBB1F661F771F881F6E
:1056A00091505040A9F79E3F510580F00C946D2B0E
:1056B0000C94B82B5F3FE4F3983ED4F3869577952E
:1056C0006795B795F795E7959F5FC1F7FE2B880F14
:1056D000911D9695879597F9089597F99F6780E8AA
:1056E00070E060E008959FEF80EC089500240A9434
:1056F0001616170618060906089500240A941216AD
:105700001306140605060895092E0394000C11F4DF
:10571000882352F0BB0F40F4BF2B11F460FF04C08C
:105720006F5F7F4F8F4F9F4F089557FD9058440FE5
:10573000551F59F05F3F71F04795880F97FB991FF0
:1057400061F09F3F79F087950895121613061406AD
:10575000551FF2CF4695F1DF08C01616170618063A
:10576000991FF1CF86957105610508940895E89415
:10577000BB2766277727CB0197F90895F999FECFC4
:1057800092BD81BDF89A992780B50895262FF99981
:10579000FECF1FBA92BD81BD20BD0FB6F894FA9A14
:1057A000F99A0FBE019608952F923F924F925F9201
:1057B0006F927F928F929F92AF92BF92CF92DF9221
:1057C000EF92FF920F931F93CF93DF93CDB7DEB786
:1057D000CA1BDB0B0FB6F894DEBF0FBECDBF09941A
:1057E0002A88398848885F846E847D848C849B8471
:1057F000AA84B984C884DF80EE80FD800C811B817F
:10580000AA81B981CE0FD11D0FB6F894DEBF0FBEAD
:10581000CDBFED0108955058BB27AA270E94232C25
:105820000C94842B0E94762B38F00E947D2B20F064
:1058300039F49F3F19F426F40C94732B0EF4E09581
:10584000E7FB0C946D2BE92F0E94952B58F3BA17A8
:10585000620773078407950720F079F4A6F50C9486
:10586000B72B0EF4E0950B2EBA2FA02D0B01B9012A
:1058700090010C01CA01A0011124FF27591B99F0C6
:10588000593F50F4503E68F11A16F040A22F232FD2
:10589000342F4427585FF3CF469537952795A79522
:1058A000F0405395C9F77EF41F16BA0B620B730BC9
:1058B000840BBAF09150A1F0FF0FBB1F661F771F3A
:1058C000881FC2F70EC0BA0F621F731F841F48F4EF
:1058D000879577956795B795F7959E3F08F0B0CF78
:1058E0009395880F08F09927EE0F9795879508955F
:1058F0000E948C2C0C94842B0E947D2B58F00E94CB
:10590000762B40F029F45F3F29F00C946D2B511158
:105910000C94B82B0C94732B0E94952B68F399234D
:10592000B1F3552391F3951B550BBB27AA2762179B
:105930007307840738F09F5F5F4F220F331F441FA8
:10594000AA1FA9F335D00E2E3AF0E0E832D09150DC
:105950005040E695001CCAF72BD0FE2F29D0660FC9
:10596000771F881FBB1F261737074807AB07B0E80C
:1059700009F0BB0B802DBF01FF2793585F4F3AF012
:105980009E3F510578F00C946D2B0C94B82B5F3F23
:10599000E4F3983ED4F3869577956795B795F79598
:1059A0009F5FC9F7880F911D9695879597F9089580
:1059B000E1E0660F771F881FBB1F6217730784071C
:1059C000BA0720F0621B730B840BBA0BEE1F88F72B
:1059D000E09508950E94F12C6894B1110C94B82BB5
:1059E00008950E949D2B88F09F5798F0B92F992712
:1059F000B751B0F0E1F0660F771F881F991F1AF0BA
:105A0000BA95C9F714C0B13091F00E94B72BB1E03C
:105A100008950C94B72B672F782F8827B85F39F03B
:105A2000B93FCCF3869577956795B395D9F73EF452
:105A300090958095709561957F4F8F4F9F4F0895FA
:105A40000E94DC2A08F48FEF0895FA01EE0FFF1F81
:105A5000309621053105A1F16115710561F4803899
:105A6000BFE39B0749F168949038810561F0803865
:105A7000BFEF9B0741F099234AF5FF3FE105310550
:105A8000210519F1E8940894E795D901AA2329F48E
:105A9000AB2FBE2FF85FD0F310C0FF5F70F4A69558
:105AA000E0F7F73950F019F0FF3A38F49F779F93F9
:105AB0000DD00F9007FC9058089546F00C94732B6E
:105AC00060E070E080E89FE308954FE79F775F9381
:105AD0004F933F932F930E94202E2F913F914F91F0
