:100000000C9408010C9430010C9430010C943001D4
:100010000C9430010C9430010C9430010C94790F45
:100020000C9430010C9430010C9430010C9430018C
:100030000C9430010C9430010C9430010C9430017C
:100040000C94BC0D0C9430010C942C0E0C94060EE8
:100050000C9430010C9430010C9430010C9430015C
:100060000C945E0E0C9430014E414E494E49545949
:10007000494E46CDCCCC3D0AD7233C17B7D1387773
:10008000CC2B329595E6241FB14F0A000020410089
:1000900000C84200401C4620BCBE4CCA1B0E5AAED3
:1000A000C59D7400407A10F35A00A0724E180900E2
:1000B00010A5D4E80000E87648170000E40B5402CD
:1000C0000000CA9A3B000000E1F505000080969808
:1000D00000000040420F000000A086010000001058
:1000E0002700000000E8030000000064000000009A
:1000F000000A00000000000100000000002C76D87B
:1001000088DC674F0823DFC1DFAE59E1B1B796E560
:10011000E3E453C63AE651997696E8E6C28426EBC4
:10012000898C9B62ED407C6FFCEFBC9C9F40F2BAD7
:10013000A56FA5F490055A2AF75C936B6CF9676D6F
:10014000C11BFCE0E40D47FEF520E6B500D0ED90C4
:100150002E0300943577050080841E080000204E91
:100160000A000000C80C333333330F986E1283112A
:1001700041EF8D2114893BE65516CFFEE6DB18D101
:10018000844B381BF77C1D901DA4BBE424203284D3
:10019000725E228100C9F124ECA1E53D2766696CFD
:1001A0007465722073697A650063006D00743000B5
:1001B00066696C7465722073697A65007461726532
:1001C0000063006D0000000000250028002B0004E3
:1001D00004040404040404020202020202030303EE
:1001E00003030301020408102040800102040810E8
:1001F0002001020408102000000008000201000095
:10020000030407000000000000000000EF12C91204
:1002100011241FBECFEFD8E0DEBFCDBF23E0A6E99B
:10022000B1E001C01D92A13FB207E1F711E0A0E0EB
:10023000B1E0E0EEF9E402C005900D92A639B107F5
:10024000D9F711E0C7E0D1E004C02197FE010E9478
:10025000F921C630D107C9F70E9494130C94E32406
:100260000C94000090E0FC01E950FE4F2491FC0149
:10027000ED51FE4F3491FC01E153FE4FE491EE232A
:10028000C9F0222339F0233001F1A8F4213019F10B
:10029000223029F1F0E0EE0FFF1FEB53FE4FA59146
:1002A000B4918FB7F894EC91611126C030953E233C
:1002B0003C938FBF08952730A9F02830C9F024302F
:1002C00049F7809180008F7D03C0809180008F77F7
:1002D00080938000DFCF84B58F7784BDDBCF84B57A
:1002E0008F7DFBCF8091B0008F778093B000D2CF0D
:1002F0008091B0008F7DF9CF3E2BDACF3FB7F894D5
:100300008091F6019091F701A091F801B091F90167
:1003100026B5A89B05C02F3F19F00196A11DB11D60
:100320003FBFBA2FA92F982F8827BC01CD01620F9C
:10033000711D811D911D42E0660F771F881F991F57
:100340004A95D1F708952FB7F8946091F201709112
:10035000F3018091F4019091F5012FBF0895FC0104
:10036000448B558B668B778B408751876287738769
:100370000895AF92BF92CF92DF92EF92FF920F93C8
:100380001F93CF93DF936C017B018B01040F151F2B
:10039000EB015E01AE18BF08C017D10759F0699193
:1003A000D601ED91FC910190F081E02DC6010995F7
:1003B000892B79F7C501DF91CF911F910F91FF90A4
:1003C000EF90DF90CF90BF90AF900895FC01538DD8
:1003D000448D252F30E0842F90E0821B930B54171F
:1003E00010F0CF96089501970895FC01918D828DAC
:1003F000981761F0A28DAE0FBF2FB11D5D968C9145
:10040000928D9F5F9F73928F90E008958FEF9FEF83
:100410000895FC01918D828D981731F0828DE80F3F
:10042000F11D858D90E008958FEF9FEF0895FC01F9
:10043000918D228D892F90E0805C9F4F821B9109C6
:100440008F73992708958CE692E00E94170221E0AD
:10045000892B09F420E0822F089580E090E0892B19
:1004600029F00E94230281110C9400000895FC01E0
:10047000A48DA80FB92FB11DA35ABF4F2C91848D05
:1004800090E001968F739927848FA689B7892C9362
:10049000A089B1898C91837080648C93938D848DB5
:1004A000981306C00288F389E02D80818F7D8083B8
:1004B0000895EF92FF920F931F93CF93DF93EC0178
:1004C00081E0888F9B8D8C8D98131AC0E889F989FB
:1004D000808185FF15C09FB7F894EE89FF896083FE
:1004E000E889F98980818370806480839FBF81E07F
:1004F00090E0DF91CF911F910F91FF90EF900895C1
:10050000F62E0B8D10E00F5F1F4F0F731127E02E9B
:100510008C8D8E110CC00FB607FCFACFE889F989D3
:10052000808185FFF5CFCE010E943702F1CFEB8DA0
:10053000EC0FFD2FF11DE35AFF4FF0829FB7F894A7
:100540000B8FEA89FB8980818062CFCFCF93DF93C5
:10055000EC01888D8823B9F0AA89BB89E889F989DB
:100560008C9185FD03C0808186FD0DC00FB607FC10
:10057000F7CF8C9185FFF2CF808185FFEDCFCE0143
:100580000E943702E9CFDF91CF9108951F93CF9357
:10059000DF93C1E0C0939801882399F1D091B8000E
:1005A0001091BA008091BC008A7B8093BC0060E00F
:1005B00082E10E94320160E083E10E9432011092E8
:1005C0004202C093410210921C0261E082E10E944B
:1005D000320161E083E10E9432018091B9008E7F97
:1005E0008093B9008091B9008D7F8093B90088E431
:1005F0008093B80085E48093BC001093BA00D09338
:10060000B800DF91CF911F9108958F929F92AF9282
:10061000BF92CF92DF92EF92FF920F931F93CF93EF
:10062000DF93D0916B02D13208F0D7C0182FC09160
:100630006A020E947E016B017C018091420281115D
:100640006BC082E080934202109341028FEF80934F
:10065000400210923F02D0933E02AAE4B2E0EEE1E3
:10066000F2E080E0D81391C010921D0280911D022B
:10067000CC0FC82BC0931D0280911C02813009F061
:1006800088C010921C020E947E016B017C01809147
:100690001D028093BB008091440290914502A0917D
:1006A0004602B0914702892B8A2B8B2BA1F00E9426
:1006B0007E01009144021091450220914602309142
:1006C00047026C197D098E099F090617170728072D
:1006D000390708F442C08091BC0083FDD8CF85EC77
:1006E0008093BC000E947E016B017C0180914202DC
:1006F000823009F450C0809140028F3F09F46FC0EE
:1007000080914002803209F46CC0809140028033B5
:1007100009F469C084E026C08091440290914502AA
:10072000A0914602B0914702892B8A2B8B2B09F4AA
:1007300084CF0E947E018090440290904502A09058
:100740004602B09047026C197D098E099F098616F2
:100750009706A806B90608F070CF809143020E9460
:10076000C60285E01092490210926B021092480274
:10077000DF91CF911F910F91FF90EF90DF90CF907D
:10078000BF90AF909F908F9008959D9191938F5FB0
:1007900069CF85EEA5CF8091440290914502A0914A
:1007A0004602B0914702892B8A2B8B2B09F49ECFEE
:1007B0000E947E0100914402109145022091460260
:1007C000309147026C197D098E099F09061717079A
:1007D0002807390708F08ACFC0CF81E0C3CF80E077
:1007E000C1CF82E0BFCF83E0BDCF1F93CF93DF9314
:1007F000162FC5E1D3E0A981BA819B8121E0209326
:10080000480290936A021092490210926B02ED9195
:10081000FC9111970190F081E02D682FCD01099591
:1008200089819A81DC01ED91FC910190F081E02DAC
:10083000612F099581E00E9405038883DF91CF91A4
:100840001F9108950F931F93CF93DF93162F072FB8
:10085000C5E1D3E0A981BA819B8121E020934802C0
:1008600090936A021092490210926B02ED91FC91F2
:1008700011970190F081E02D682FCD0109958981B4
:100880009A81DC01ED91FC910190F081E02D602FC7
:10089000099589819A81DC01ED91FC910190F081AB
:1008A000E02D612F099581E00E9405038883DF9187
:1008B000CF911F910F910895CF92DF92EF92FF9207
:1008C0000F931F93CF93DF93D82FC62F613208F079
:1008D00098C00E947E016B017C01809142028111CF
:1008E0006BC081E080934202809341029FEF90931E
:1008F000400210923F029C0F90933E0280931D0293
:1009000080911D02DD0FD82BD0931D0280911C0217
:10091000813009F078C010921C020E947E016B01A8
:100920007C0180911D028093BB00809144029091D4
:100930004502A0914602B0914702892B8A2B8B2B4E
:10094000A1F00E947E010091440210914502209185
:100950004602309147026C197D098E099F090617DE
:1009600017072807390708F448C08091BC0083FDA9
:10097000D8CF85EC8093BC000E947E016B017C0186
:1009800080914202813009F440C080913F028C176F
:1009900010F4C0913F02EEE1F2E0ACEFB1E080E094
:1009A0008C1355C08C2FDF91CF911F910F91FF9029
:1009B000EF90DF90CF90089580914402909145028E
:1009C000A0914602B0914702892B8A2B8B2B09F408
:1009D00084CF0E947E010091440210914502209133
:1009E0004602309147026C197D098E099F0906174E
:1009F00017072807390708F070CF809143020E943B
:100A0000C602C0E0CFCF85EEB5CF80914402909171
:100A10004502A0914602B0914702892B8A2B8B2B6D
:100A200009F4AECF0E947E0100914402109145026C
:100A300020914602309147026C197D098E099F0969
:100A4000061717072807390708F09ACFD6CF9191D4
:100A50009D938F5FA5CF2091B901260F3327331FB8
:100A600021323105ECF420914202FC0190E080E05B
:100A7000243069F082E00895A091B9012191AC0180
:100A800047565E4FA40FB52FB11D2C9301968617C4
:100A900098F38091B901680F6093B90180E00895DF
:100AA00081E008950895E091FB018091FA01E81733
:100AB00030F4F0E0E450FE4F808190E008958FEF35
:100AC0009FEF08959091FB018091FA012FEF3FEF86
:100AD000981748F4E92FF0E0E450FE4F208130E011
:100AE0009F5F9093FB01C90108958091FA01909155
:100AF000FB01891B990B0895CF92DF92EF92FF9231
:100B00000F931F93CF93DF937C01CB018A01209138
:100B10004802222389F0EB016B01C40ED51ECC15CF
:100B2000DD0569F06991D701ED91FC910190F081AB
:100B3000E02DC7010995F3CF642F0E942B05C80152
:100B4000DF91CF911F910F91FF90EF90DF90CF90A9
:100B50000895CF93DF931F92CDB7DEB769832091BD
:100B600048022223F9F020916B02203258F021E054
:100B700030E0FC013383228390E080E00F90DF912E
:100B8000CF91089580914902E82FF0E0E65BFD4F98
:100B9000998190838F5F8093490280936B0281E0FB
:100BA00090E0ECCF61E0CE0101960E942B05F7CFDB
:100BB00090E080E008956F927F928F929F92AF9223
:100BC000BF92CF92DF92EF92FF920F931F93CF933A
:100BD000DF93EC018B013A0169010E94A3014B01F3
:100BE0005C01780110E000E006151705A1F10E94F4
:100BF000A301AB01BC01481959096A097B09F60137
:100C000080819181092E000CAA0BBB0B84179507DC
:100C1000A607B70750F0E881F9810084F185E02D3F
:100C2000CE0109951816190614F7E881F981008498
:100C3000F185E02DCE010995892B69F0E881F981D4
:100C40000284F385E02DCE010995F70181937F01A0
:100C50000F5F1F4FC9CF0E94A301AB01BC01481910
:100C600059096A097B09F60180819181841B950BE2
:100C700091838083C801DF91CF911F910F91FF90E5
:100C8000EF90DF90CF90BF90AF909F908F907F902C
:100C90006F900895CF93DF931F92CDB7DEB79B017E
:100CA000198241E050E0BE016F5F7F4F0E94DB057B
:100CB000019731F4898190E00F90DF91CF910895F1
:100CC0008FEF9FEFF9CFFC01648975898689978939
:100CD00008950895CF92DF92EF92FF92CF93DF9322
:100CE000EC01E881F9810088F189E02D09952889D6
:100CF00039894A895B890E9400226B017C01C88A7C
:100D0000D98AEA8AFB8A6C857D858E859F856F5F8F
:100D10007F4F8F4F9F4F6C877D878E879F87613076
:100D200071058105910551F00E9414209B01AC01D1
:100D3000C701B6010E946C226B017C01C701B6019C
:100D4000DF91CF91FF90EF90DF90CF900895CF92F9
:100D5000DF92EF92FF92CF93DF93EC01E881F9816C
:100D6000008CF18DE02D0995288939894A895B89A4
:100D70000E9400226B017C01C88AD98AEA8AFB8A18
:100D80006C857D858E859F856F5F7F4F8F4F9F4FD1
:100D90006C877D878E879F876130710581059105FE
:100DA00051F00E9414209B01AC01C701B6010E94C2
:100DB0006C226B017C01C701B601DF91CF91FF90DE
:100DC000EF90DF90CF900895FC01108A118A128A6B
:100DD000138A14861586168617860895FC01958158
:100DE0009F7071F00380F481E02D808191810097E4
:100DF00039F0DC01ED91FC910088F189E02D099436
:100E000060E070E0CB010895FC0117820895089519
:100E1000CF93DF93EC018F8181110DC0E881F981BF
:100E2000008CF18DE02DCE010995688779878A873E
:100E30009B8781E08F83688579858A859B85DF9193
:100E4000CF910895FC0195819F7096171706B9F010
:100E5000B4F0660F771F83819481680F791FDB01DF
:100E60008D919C91009759F0FC0122812F3039F42B
:100E70000190F081E02D0088F189E02D099460E077
:100E800070E0CB01089580E0089530E020E04FE469
:100E90005EE420FD28C050937C0080917A0080643D
:100EA00080937A0080917A0086FDFCCF8091780053
:100EB00090917900892790919701892780FB8795E8
:100EC00087F98093970190917A00880F86709068D7
:100ED000892B80937A002F5F3F4F24313105C9F66B
:100EE00080919701089540937C00D7CFCF93DF93F3
:100EF000EC0188819981009711F00E948423198266
:100F000018821D821C821B821A82DF91CF91089564
:100F1000FC0180819181009711F00C948423089545
:100F2000CF92DF92EF92FF920F931F93CF93DF93B5
:100F30007C0110E000E032E3C32E31E0D32ED70174
:100F400015968C9115978F7080171106F9F0F4F0B3
:100F50001396ED91FC91C801880F991FE80FF91FB6
:100F6000C081D181209779F08A818F3061F4D98254
:100F7000C8828B819C81892B19F0CE010E94900739
:100F8000CE010E9484230F5F1F4FD9CFDF91CF91F5
:100F90001F910F91FF90EF90DF90CF900895EF9207
:100FA000FF920F931F93CF93DF93FC0125812617A8
:100FB000170609F104F18A01660F771FE380F480B8
:100FC000E60EF71EF701C081D181209789F08A8152
:100FD0008F3071F482E391E0998388838B819C81C7
:100FE000892B19F0CE010E949007CE010E94842324
:100FF000F70111830083DF91CF911F910F91FF9033
:10100000EF9008950F931F93CF93DF93C5E1D3E043
:10101000A981BA819B8121E02093480290936A02C2
:101020001092490210926B02ED91FC911197019080
:10103000F081E02D682FCD01099581E00E94050324
:10104000888362E08B810E945C041092FB01809394
:10105000FA0189819A81DC01ED91FC910284F3858A
:10106000E02D099500E0182F89819A81DC01ED912E
:10107000FC910284F385E02D0995802B912BDF9163
:10108000CF911F910F910895CF93DF93C5E1D3E0E6
:10109000A981BA819B8121E02093480290936A0242
:1010A0001092490210926B02ED91FC911197019000
:1010B000F081E02D682FCD01099581E00E940503A4
:1010C000888361E08B810E945C041092FB01809315
:1010D000FA0189819A81DC01ED91FC910284F3850A
:1010E000E02D0995DF91CF910895CF93DF93EC0127
:1010F00081E00E94440884FB992790F9988383FB40
:10110000992790F99A8382FB992790F9998386FB16
:10111000992790F99B83881F8827881F8C83DF91EC
:10112000CF910895682F616080E00E94F5030E94CE
:10113000A30170931D0360931C0383E10E94440884
:101140008770B9F48091190390911A03892BA9F340
:101150000E94A30120911C0330911D03621B730B9D
:101160008091190390911A038617970730F780E052
:10117000089561E08BE00E94F50360E080E00E944A
:10118000F50381E008958F929F92AF92BF92EF9204
:10119000FF920F931F93CF93DF937C01EB0180E5C8
:1011A0000E9444088F5F880F90E09983888386E4CB
:1011B0000E944408082F10E00F5F1F4F1D830C830F
:1011C000A881B0E020E03FE24AE350E00E944A21DB
:1011D0006C507E4F8F4F9F4F38EE832E33E0932E0F
:1011E000A12CB12CA50194010E94BB21D8010E9421
:1011F000DD216C507E4F8F4F9F4FA50194010E94BF
:10120000BB212A873B874C875D8781E50E940208C6
:101210008C01112702C0000F111F9A95E2F70F5F92
:101220001F4F1F830E83A881B0E020E03FE24AE316
:1012300050E00E944A216C507E4F8F4F9F4FA50176
:1012400094010E94BB21D8010E944A216C507E4F1C
:101250008F4F9F4FA50194010E94BB212E873F878E
:10126000488B598B80E70E9444088F5F880F90E07D
:101270009B838A8381E70E9402089C01992702C010
:10128000880F991F3A95E2F7019699878887F701A9
:101290002381222331F02E813F81821B930B99877A
:1012A0008887AA81B0E020E03FE24AE350E00E9454
:1012B0004A216C507E4F8F4F9F4F28EE822E23E0A5
:1012C000922EA12CB12CA50194010E94BB21A885CE
:1012D000B9850E944A216C507E4F8F4F9F4FA501C8
:1012E00094010E94BB212A8B3B8B4C8B5D8BDF9141
:1012F000CF911F910F91FF90EF90BF90AF909F9073
:101300008F900895CF93DF93C1E0D0E097FD05C0A3
:10131000EC01C39714F0C2E3D0E0D0933003C09344
:101320002F0380912303909124030E948423CE01F4
:10133000880F991F880F991F009711F481E090E0A2
:101340000E94E822909324038093230310922C039D
:1013500010922B0310922E0310922D0310922A0349
:10136000109229031092250310922603109227034E
:1013700010922803DF91CF910895CF93DF93EC0172
:1013800082E391E0998388831A821E8218861986E7
:101390001A861B861C861D861E861F86188A198A39
:1013A0001A8A1B8A81E08D8382E090E00E94E82205
:1013B0009C838B83FC0111821082DF91CF91089571
:1013C000AF92BF92CF92DF92EF92FF920F931F9353
:1013D000CF93DF93DB01AA0FBB1FEC01EB81FC81F4
:1013E000EA0FFB1FA081B1811097C9F01296EC9112
:1013F0001297EF30A1F4ED91FC9111970488F589D3
:10140000E02DBA01A901CD01DF91CF911F910F917C
:10141000FF90EF90DF90CF90BF90AF90099469015B
:101420007A015B018C0188E190E00E94E822EC01E6
:101430000E94BD098FE08A8384E591E099838883C7
:10144000CC8ADD8AEE8AFF8AD801ED91FC91048076
:10145000F581E02DAE01B501C801DF91CF911F915B
:101460000F91FF90EF90DF90CF90BF90AF900994D5
:101470000C9434210F931F93CF93DF93EC018B01D6
:1014800088819981803A2FE0920748F40E94380AB7
:10149000F801808388819981019699838883C801A6
:1014A000DF91CF911F910F910895FC01808191816F
:1014B000009711F00C94E01B60E070E0CB01089500
:1014C000FC0124813581FB014481558124173507B6
:1014D000E1F4FC0180819181FB01608171810097C1
:1014E000D1F061157105A1F4232BC1F0FC018081BD
:1014F00090E008C0232B91F0FB01808190E0919552
:101500008195910921E0892B09F020E0822F08952F
:101510000E94D324F7CF6115710561F721E0F6CF62
:101520000F931F93CF93DF93EC01888199810097EC
:1015300059F02A813B812617370730F081E0DF918F
:10154000CF911F910F9108958B016F5F7F4F0E9484
:101550000D24009759F0998388831B830A832C817B
:101560003D81232B59F7FC011082E8CF80E0E7CFC3
:10157000EF92FF920F931F93CF93DF93EC017B01C8
:101580008A01BA010E94900A81110BC0CE010E940B
:101590007607CE01DF91CF911F910F91FF90EF90D1
:1015A00008951D830C83B701888199810E94DC24F2
:1015B000F0CFEF92FF920F931F93CF93DF93CDB7AE
:1015C000DEB7A1970FB6F894DEBF0FBECDBF7C018A
:1015D000CB01BA01F70111821082138212821582A7
:1015E00014828E010F5F1F4F28E04AE00E94C21B49
:1015F0000097C9F0FC0101900020E9F73197AF0195
:10160000481B590BBC01C7010E94B80AA1960FB62E
:10161000F894DEBF0FBECDBFDF91CF911F910F9128
:10162000FF90EF900895C7010E947607EFCFFC016D
:101630001182108213821282158214826115710543
:1016400051F0FB0101900020E9F73197AF01461BF3
:10165000570B0C94B80A0895CF93DF93EC0164E91B
:1016600071E00E94170BCE01DF91CF910895EF92A8
:10167000FF920F931F93CF93DF93EC01198218828F
:101680001B821A821D821C826115710509F18B0172
:10169000CB010E94121C7C01BC01CE010E94900A69
:1016A000811109C0CE01DF91CF911F910F91FF9061
:1016B000EF900C947607FD82EC82B80188819981C5
:1016C000DF91CF911F910F91FF90EF900C940B1C25
:1016D000DF91CF911F910F91FF90EF90089585EDCD
:1016E0008093BC008091440290914502A0914602F3
:1016F000B09147020796A11DB11D23E0B695A795AD
:10170000979587952A95D1F72091BC0024FD03C0B9
:101710001092420208954091440250914502609116
:10172000460270914702452B462B472B69F30097E1
:10173000A105B10541F02AE22A95F1F700C0019711
:10174000A109B109E1CF809143020C94C6020C9427
:101750003C210F931F93CF93DF9300D0CDB7DEB71B
:101760008091E9039091EA0303969A83898360EC60
:101770000E94A70B89819A816AE301960E94A70BB8
:1017800089819A816FE802960E94A70B89819A81CC
:1017900069E403960E94A70B8091E9039091EA0304
:1017A00007969A83898310E000E08091DB03909193
:1017B000DC0308171907C0F4C801880F991FE091CE
:1017C000DD03F091DE03E80FF91F80819181DC01D8
:1017D000ED91FC910284F385E02DBE016F5F7F4F98
:1017E00009950F5F1F4FE1CF0F900F90DF91CF91C1
:1017F0001F910F910895CF93DF93EC018881998118
:10180000803A2FE0920738F40E94A70B88819981D3
:10181000019699838883DF91CF9108959F92AF922B
:10182000BF92CF92DF92EF92FF920F931F93CF93CD
:10183000DF935C017B018B01D0E0C0E0F801919067
:101840008F016501CC0EDD1EC6010E943421981661
:1018500021F0692DC6010E943C212196C430D1059A
:1018600069F7C701DF91CF911F910F91FF90EF9022
:10187000DF90CF90BF90AF909F900895DF92EF924E
:10188000FF920F931F93CF93DF9300D000D000D02F
:10189000CDB7DEB78B017A0163EC71E0CE01019622
:1018A0000E94370BBE016F5F7F4FC8010E94600A24
:1018B000D82ECE0101960E948807DD2041F1C70194
:1018C0000E94550A60930001709301018093020108
:1018D00090930301C7010E94550A69837A838B8321
:1018E0009C83BE016F5F7F4F90E080E00E940E0CF2
:1018F00081E026960FB6F894DEBF0FBECDBFDF9114
:10190000CF911F910F91FF90EF90DF90089561ECC0
:1019100071E0CE0101960E94370BBE016F5F7F4FD1
:10192000C8010E94600AD82ECE0101960E94880745
:10193000DD20C1F0C7010E94550A6093DC0170935D
:10194000DD018093DE019093DF01C7010E94550AFB
:1019500069837A838B839C83BE016F5F7F4F84E0B2
:1019600090E0C4CF6CEB71E0CE0101960E94370B82
:10197000BE016F5F7F4FC8010E94600AD82ECE0162
:1019800001960E948807DD2091F08091E4019091FA
:10199000E501A091E601B091E701B0588093E8011C
:1019A0009093E901A093EA01B093EB01A1CF60EB22
:1019B00071E0CE0101960E94370BBE016F5F7F4F31
:1019C000C8010E94600AD82ECE0101960E948807A5
:1019D000DD2051F1F70180819181009709F10E948A
:1019E000E41BCB010E94820900912F031091300368
:1019F00088E090E00E943421081729F0602F88E0E9
:101A000090E00E943C2189E090E00E943421181768
:101A100009F46ECF612F89E090E00E943C2168CFED
:101A200060E070E0CB01DDCF6DEA71E0CE010196A0
:101A30000E94370BBE016F5F7F4FC8010E94600A92
:101A4000182FCE0101960E94880780E0112309F427
:101A500050CF1092E8011092E9011092EA01109221
:101A6000EB0146CFBF92CF92DF92EF92FF920F939E
:101A70001F93CF93DF93CDB7DEB762970FB6F8947D
:101A8000DEBF0FBECDBF7C016A016BEA71E08E0143
:101A90000F5F1F4FC8010E94370BB801C6010E949B
:101AA000600AB82EC8010E948807BB20E1F040916F
:101AB0000001509101016091020170910301C70181
:101AC0000E94D90AC70162960FB6F894DEBF0FBE16
:101AD000CDBFDF91CF911F910F91FF90EF90DF90DD
:101AE000CF90BF90089569EA71E0C8010E94370B5A
:101AF000B801C6010E94600AB82EC8010E9488077A
:101B0000BB2049F04091DC015091DD016091DE0184
:101B10007091DF01D4CF6DE971E0C8010E94370BED
:101B2000B801C6010E94600AD82EC8010E94880729
:101B3000DD20E1F080912F0390913003F7011182B5
:101B4000108213821282158214824AE0B8010E9428
:101B50001B1CF80101900020E9F73197AF01401BF1
:101B6000510BB801C7010E94B80AACCF64E971E01B
:101B7000C7010E94170BA6CF1F920F920FB60F92AC
:101B800011242F933F938F939F93AF93BF93809193
:101B9000F2019091F301A091F401B091F50130911F
:101BA000F10123E0230F2D3758F50196A11DB11D3A
:101BB0002093F1018093F2019093F301A093F4013B
:101BC000B093F5018091F6019091F701A091F80191
:101BD000B091F9010196A11DB11D8093F60190937A
:101BE000F701A093F801B093F901BF91AF919F91D4
:101BF0008F913F912F910F900FBE0F901F901895CE
:101C000026E8230F0296A11DB11DD2CF1F920F927D
:101C10000FB60F9211242F933F934F935F936F93BF
:101C20007F938F939F93AF93BF93EF93FF938CE634
:101C300092E00E943702FF91EF91BF91AF919F9187
:101C40008F917F916F915F914F913F912F910F9065
:101C50000FBE0F901F9018951F920F920FB60F9204
:101C600011242F938F939F93EF93FF93E0917C0226
:101C7000F0917D028081E0918202F091830282FDE9
:101C80001BC09081809185028F5F8F7320918602A7
:101C9000821741F0E0918502F0E0E459FD4F958F05
:101CA00080938502FF91EF919F918F912F910F90DB
:101CB0000FBE0F901F9018958081F4CF1F920F9246
:101CC0000FB60F9211242F933F934F935F936F930F
:101CD0007F938F939F93AF93BF93EF93FF938091E5
:101CE000B900887F803609F44AC0F0F5883209F4DB
:101CF000A5C018F5803109F499C0B8F4882309F417
:101D0000F5C0883009F492C0FF91EF91BF91AF9177
:101D10009F918F917F916F915F914F913F912F9103
:101D20000F900FBE0F901F901895883109F486C050
:101D3000803251F78093400214C0803409F49BC074
:101D400040F48033B9F38833F9F68093400285EC90
:101D5000AEC0803509F483C0883509F494C0883456
:101D600099F60E946F0BD0CF883909F48AC038F5F4
:101D7000883729F050F4883611F0803729F683E04F
:101D8000809342021092DB0155C0883809F479C073
:101D9000803919F0803809F0B7CF8091DB018032AB
:101DA00008F06FC0E091DB0181E08E0F8093DB01D2
:101DB0008091BB00F0E0E554FE4F80833BC0803B48
:101DC00039F0D0F4803A09F477C0883A09F09CCF12
:101DD00084E0809342021092BA011092B901F0E0BF
:101DE000E0E009958091B90181110FC081E08093F5
:101DF000B9011092990109C0803C09F4A8CF883C30
:101E000009F4A5CF883B09F07FCFE091BA0181E0CA
:101E10008E0F8093BA01F0E0E756FE4F80818093E9
:101E2000BB009091BA018091B90129C080911D0237
:101E30008093BB0085EC8093BC0066CF90913F02FD
:101E400080913E02981758F5E0913F0281E08E0F95
:101E500080933F02F0E0E25EFD4F8081E9CFE091A8
:101E60003F0281E08E0F80933F028091BB00F0E043
:101E7000E25EFD4F808390913F0280913E02981771
:101E8000C8F285E8D8CFE0913F0281E08E0F8093C1
:101E90003F028091BB00F0E0E25EFD4F80838091C5
:101EA000410281115ECF81E080931C0284EA80931D
:101EB000BC001092420228CF85EC8093BC001092A7
:101EC00042028091DB01803230F4E091DB01F0E0EE
:101ED000E554FE4F10826091DB0170E08BEB91E0E6
:101EE000F0E0E0E009951092DB010ECF1092400285
:101EF00038CF1F920F920FB60F9211244F925F921C
:101F00006F927F928F929F92AF92BF92CF92DF9209
:101F1000EF92FF920F931F932F933F934F935F93F3
:101F20006F937F938F939F93AF93BF93EF93FF93A1
:101F3000CF93DF93CDB7DEB76E97DEBFCDBF809175
:101F400070008D7F809370007894E4E06E2E712C89
:101F500080918D0390918E03DC01ED91FC910084C2
:101F6000F185E02D0995059784F07E8E6D8E809128
:101F70008D0390918E03BE01635E7F4F0E944A06DF
:101F80008A3A910571F197FFF2CF809170008260DB
:101F9000809370006E960FB6F894DEBF0FBECDBF73
:101FA000DF91CF91FF91EF91BF91AF919F918F9171
:101FB0007F916F915F914F913F912F911F910F9161
:101FC000FF90EF90DF90CF90BF90AF909F908F9059
:101FD0007F906F905F904F900F900FBE0F901F906B
:101FE000189580918D0390918E03BE01635E7F4FA3
:101FF0000E944A067C0197FDABCF80918D039091A2
:102000008E03BE01635E7F4F0E944A066C0197FFFC
:1020100004C0E114F10409F09BCF80918D039091ED
:102020008E03BE01635E7F4F0E944A064C0197FDFE
:102030008FCF80918D0390918E03BE01635E7F4FA1
:102040000E944A065C0197FD83CF80918D03909199
:102050008E03BE01635E7F4F0E944A068C0197FD8E
:1020600077CFE114F10431F080918F038E151F04B6
:1020700009F06ECFC114D10431F0809190038C151A
:102080001D0409F065CF4E2C5C2C982C8C2D8E25D0
:102090009AEA892788268A24802680918D03909148
:1020A0008E0301151105B9F09E01235E3F4FA80173
:1020B000FE0131963F01BF010E94DB050817190799
:1020C00009F063CFF30181918826CF018619970922
:1020D00080179107C4F380918D0390918E03BE0108
:1020E000635E7F4F0E944A0697FD4FCF8816190600
:1020F00009F04BCFE114F10431F080918F038E157C
:102100001F0409F042CFC114D10431F08091900333
:102110008C151D0409F039CFF1E09F124DC080915C
:102120008F03481203C081E0511001C080E09091FC
:10213000DB039093930391E09093D303811165C1E6
:1021400080918D0390918E03DC01ED91FC910190C3
:10215000F081E02D6A2D099580918D0390918E0379
:102160006091D303DC01ED91FC910190F081E02DB1
:10217000099580918D0390918E034091D30350E097
:10218000DC01ED91FC910280F381E02D63E973E0C5
:1021900009956091D3036A2590E080E02091D303F4
:1021A0002817190609F00CF4E8C1FC01ED56FC4FA4
:1021B000208162270196F2CF62E0961214C0298135
:1021C000422F50E090E080E0841795074CF4FC012A
:1021D000E75BFC4F3081E65BFF4F30830196F4CF25
:1021E0002093D303ADCF73E097121BC011278FE06C
:1021F00080939303FE01319690E080E08017910771
:1022000051F0DC01A75BBC4F3C912191321739F0B2
:102210008AEA8093930381E08093D30391CF019660
:10222000EDCF84E0981221C01A810B818091900338
:102230009981981303C01092D303A7CE0E9445073B
:1022400065E60E949B21091768F08091E90390914F
:10225000EA039A8B898B612FCE0141960E94FB0B7A
:1022600010938F031092D3036BCFA6E09A1203C092
:1022700080919003CECFB5E09B1238C01092DF035F
:102280008091E9039091EA0302969A8B898B60E032
:10229000CE0141960E94FB0B1092E003E091E70310
:1022A000F091E803309709F0099510E000E0809183
:1022B000DB039091DC0308171907A8F4C801880F05
:1022C000991FE091DD03F091DE03E80FF91F808193
:1022D0009181DC01ED91FC910684F785E02D099553
:1022E0000F5F1F4FE4CF0E94A90BBCCFBDE09B1234
:1022F00014C0898190E0880F991F2091DD033091EF
:10230000DE03820F931FDC01ED91FC9182818093AB
:10231000930381E08093D30378C0B9E09B1217C088
:10232000FE01319690E080E011278017910744F478
:102330002191DC01A75BBC4F50962C930196F5CF01
:10234000075B1C4FF801108A1092D3035EC0FAE0BD
:102350009F1216C0FE01319690E080E01127801791
:10236000910744F42191DC01A75BBC4F9A962C9312
:102370000196F5CF075B1C4FD8019A961C92E4CFCB
:10238000BBE09B1271C019811092720310928C03F2
:1023900069E573E0CE0147960E94170B63E773E08F
:1023A000CE0141960E94170B812F90E02091DB0314
:1023B0003091DC038217930708F054C0880F991FEF
:1023C0002091DD033091DE03820F931FFC01808199
:1023D0009181DC01ED91FC910190F081E02DAE0145
:1023E0004F5E5F4FBE01695E7F4F099580939303F7
:1023F0000E94A90B81E08093D303CE0141960E94F5
:102400008807CE0147960E9488078091DF038111DB
:102410000DC0E091E303F091E403309721F081E0F7
:102420008093DF03099581E08093DF038091E003CF
:10243000811186CE8091E9039091EA0302969A8BEE
:10244000898B67E3CE0141960E94FB0B81E080936C
:10245000E003E091E503F091E603309709F470CED4
:1024600009956ECE80E0C2CFBCE09B1240C01981BE
:102470001092720369E573E0CE0147960E94170B34
:10248000812F90E0880F991F2091DD033091DE03AA
:10249000820F931FFC0160817181DB01ED91FC9142
:1024A0000280F381E02DAE01495E5F4FCE0141967F
:1024B00009954D8969897A89242F3E8990E080E0C9
:1024C0008217930789F0FB01E80FF91F6115710569
:1024D00021F410929601E6E9F1E05081FC01ED56FD
:1024E000FC4F50830196ECCF4093D30386CFB8E0E6
:1024F0009B1222C080919103909192030196909338
:10250000920380939103898190E0880F991F209115
:10251000DD033091DE03820F931FFC0180819181E6
:102520004A815B816C817D81DC01ED91FC910488A5
:10253000F589E02D099508CFB7E09B1201CE89817E
:1025400090E0880F991F2091DD033091DE03820F08
:10255000931FFC0180819181DC01ED91FC91008C45
:10256000F18DE02D0995609393037093940380930C
:1025700095039093960384E0CDCE80918D03909146
:102580008E03DC01ED91FC910190F081E02D099525
:10259000FCCC82E391E090933203809331038091ED
:1025A000340390913503892B21F081E393E00E945D
:1025B000900780912303909124030E9484238091AB
:1025C000D9039091DA031816190644F48091DD03BB
:1025D0009091DE03009711F00C9484230895CF931B
:1025E000DF93ECE6F2E01382128248EE53E060E003
:1025F00070E044835583668377838EE091E0918316
:10260000808385EC90E09587848784EC90E09787C1
:10261000868780EC90E0918B808B81EC90E0938BAF
:10262000828B82EC90E0958B848B86EC90E0978B8C
:10263000868B118E128E138E148EA9E0B3E0139642
:102640001C921E92129714964D935D936D937C93FA
:10265000179780E291E011969C938E9310928F03CE
:102660001092900310929203109291031092D4034F
:102670001092D5031092D6031092D8031092DA0369
:102680001092D9031092DC031092DB031092DE0348
:102690001092DD031092DF031092E0031092E20328
:1026A0001092E1031092E4031092E3031092E60308
:1026B0001092E5031092E8031092E7031092EA03E8
:1026C0001092E903E5E1F3E0B283A18389E2838319
:1026D000158214821682C3E2D3E01A821B821C8206
:1026E0001D821F821E82198618861B861A868FE01D
:1026F00090E09D878C878CE390E00E94E82299838C
:10270000888381E393E00E94BD09E1E3F3E0148A4A
:10271000158A168A178A86E791E09183808388E379
:102720008283DF91CF910895CF93DF93CDB7DEB74A
:10273000A4970FB6F894DEBF0FBECDBF789484B5D2
:10274000826084BD84B5816084BD85B5826085BDAD
:1027500085B5816085BD80916E00816080936E003B
:10276000109281008091810082608093810080912D
:1027700081008160809381008091800081608093DE
:1027800080008091B10084608093B1008091B0009E
:1027900081608093B00080917A00846080937A0099
:1027A00080917A00826080937A0080917A008160C3
:1027B00080937A0080917A00806880937A001092EA
:1027C000C100E0917C02F0917D0282E08083E09183
:1027D0007802F09179021082E0917A02F0917B0206
:1027E00080E1808310928402E0918002F091810266
:1027F00086E08083E0917E02F0917F02808180619B
:102800008083E0917E02F0917F02808188608083E6
:10281000E0917E02F0917F02808180688083E09168
:102820007E02F0917F0280818F7D80830091DB03A7
:102830001091DC03E090D903F090DA030E151F0528
:10284000B9F5C8010896811520E49207C8F4880FED
:10285000991F0097C1F00E94E8226C018091DD036E
:102860009091DE03DC01F60130E020E02017310713
:1028700069F04D915D91419351932F5F3F4FF6CF9A
:102880008FEF9FEFE8CF81E090E0E5CF1E141F04AB
:1028900014F40E948423D092DE03C092DD03809161
:1028A000D9039091DA0308969093DA038093D903C1
:1028B0008091DB039091DC032091DD033091DE03F6
:1028C0009C01220F331FE091DD03F091DE03E20F44
:1028D000F31F21E333E03183208301969093DC03DF
:1028E0008093DB0388E190E09093EA038093E9030F
:1028F0008CE692E090938E0380938D0310E000E0CD
:102900000E944507F801E75BFC4F80830F5F1F4F74
:1029100000311105A9F78091E9039091EA03988F9E
:102920008F8B80918F038CA3809190038AA3BE012B
:102930006C5D7F4FCE0147960E943A0ABE016E5DE4
:102940007F4FCE0147960E943A0A8AA18093900356
:102950008CA180938F0380918F038A3F18F08FEFB3
:1029600080938F031D8EBE01635E7F4FCE0147961D
:102970000E943A0A8D8D873319F481E08093E00339
:1029800080918F03882321F080918F038F3FB1F4D2
:102990000E94450790E069EF70E00E94A72111E0D6
:1029A000180F8091E9039091EA039A838983612F3C
:1029B000CE0101960E94FB0B10938F038091900330
:1029C000882321F0809190038F3FB9F40E9445073E
:1029D00090E069EF70E00E94A72111E0180F80914C
:1029E000E9039091EA0301969A838983612FCE01CE
:1029F00001960E94FB0B109390030091E903109144
:102A0000EA03C80103969A8389830E94380AE82E54
:102A1000C80104960E94380AF82EC80105960E9443
:102A2000380A882EC80106960E94380A482FC80125
:102A300007969A8389838F2D90E0B0E0A0E0BA2FAB
:102A4000A92F982F8827912CB12CA12C54019924BF
:102A50008824880D991DAA1DBB1D8E0D911DA11DD9
:102A6000B11D50E070E060E0742F662755274427C1
:102A7000840F951FA61FB71F803C9A43AF48B944E7
:102A800009F485C20E5F1F4F1A83098360E0CE01EF
:102A900001960E94FB0B1092E00382E08093B0004D
:102AA00086E08093B1008DE78093B3008091700041
:102AB00082608093700085E090E0A0E0B0E08093B9
:102AC0000D0390930E03A0930F03B093100390E0B7
:102AD00080E00E9434218093000181E090E00E9418
:102AE00034218093010182E090E00E9434218093A0
:102AF000020183E090E00E94342180930301C090A2
:102B00000001D0900101E0900201F090030184E007
:102B100090E00E9434218093DC0185E090E00E94E7
:102B200034218093DD0186E090E00E94342180937F
:102B3000DE0187E090E00E9434218093DF012DEBDD
:102B400037E346E855E3C701B6010E940D2087FD33
:102B500028C020E030E048EC52E4C701B6010E94F2
:102B6000DE221816F4F0A7019601C701B6010E94F3
:102B7000E322811116C0E894F7F82FEF3FEF4FE7FB
:102B80005FE7C701B6010E94E32281111EC02FEF4B
:102B90003FEF4FE75FE7C701B6010E940D2018160F
:102BA000A4F480E090E0A0E8BFE38093000190935C
:102BB0000101A0930201B09303011092DC01109275
:102BC000DD011092DE011092DF0188E090E00E94AA
:102BD00034218AA389E090E00E9434218BA38AA14A
:102BE0009BA10E9482098CE08093B80089E093E069
:102BF000909317038093160384E690E090931A0352
:102C00008093190380EC0E9444088E3E09F086C030
:102C100089E80E944408682F616089E80E94F503F2
:102C200060E088E80E94F50361E080E80E94F50317
:102C300061E08FEF0E94F50360E080E00E94F50301
:102C400081E90E94440880931E0361E080E00E94B5
:102C5000F50360E08FEF0E94F50360E080E80E94DA
:102C6000F50380E60E944408682F626180E60E94B6
:102C7000F50360E270E084E40E9422046FEF81E0DB
:102C80000E94F50361E080E80E94F50361E08FEFA8
:102C90000E94F50360E080E00E94F50366E08FEF9C
:102CA0000E94F50383E80E944408682F646083E86B
:102CB0000E94F50367E08FEF0E94F50361E081E871
:102CC0000E94F50361E080E80E94F5036BE684E969
:102CD0000E94F50360E083E80E94F5030E94A301CF
:102CE00070931D0360931C0383E80E9444088111C4
:102CF00070C18091190390911A03892BA9F30E9446
:102D0000A30120911C0330911D03621B730B809162
:102D1000190390911A038617970730F761E080E84E
:102D20000E94F50361E08FEF0E94F50360E080E010
:102D30000E94F50360911E0381E90E94F50361E0A2
:102D400080E00E94F50360E08FEF0E94F50360E0F1
:102D500080E80E94F50362E080E00E94F5032A9A71
:102D600060E0C62E60E0D62E33243394812C912C63
:102D700076E9A72E74E4B72E1A9BB2C41092F00124
:102D80000E94A30170931D0360931C0383E10E94C2
:102D90004408877009F0EDC48091190390911A03DB
:102DA000892BA1F30E94A30120911C0330911D03E4
:102DB000621B730B8091190390911A038617970772
:102DC00028F730921B030FEF1FEFB80190E080E06F
:102DD0000E941220E0902303F090240300912D0321
:102DE00010912E03F801EE0FFF1FEE0FFF1FEE0DE7
:102DF000FF1D60837183828393832091250330912B
:102E0000260340912703509128030E9400226093DB
:102E10002503709326038093270390932803209122
:102E2000290330912A03A9014F5F5F4F50932A0372
:102E3000409329030F5F1F4F10932E0300932D0320
:102E4000E0912F03F09130030E171F0724F010922A
:102E50002E0310922D03E417F5074CF530932A0347
:102E60002093290320912D0330912E0337FF06C0B4
:102E70002E0F3F1F30932E0320932D0320912D03FF
:102E800030912E03220F331F220F331FE20EF31E49
:102E9000D7012D913D914D915C910E94FF2160934E
:102EA0002503709326038093270390932803609152
:102EB000290370912A03072E000C880B990B0E949E
:102EC00014209B01AC016091250370912603809131
:102ED0002703909128030E946C226093E001709375
:102EE000E1018093E2019093E30120911B03109292
:102EF0001B03211108C020E030E046E954E40E94A1
:102F0000DE22181644F48092E0019092E101A09232
:102F1000E201B092E3016091E0017091E1018091E2
:102F2000E2019091E3016093E4017093E5018093E5
:102F3000E6019093E7012091E8013091E901409189
:102F4000EA015091EB010E94002220E030E04AE7C4
:102F500054E40E946C22609345037093460380936F
:102F60004703909348036093390370933A03809327
:102F70003B0390933C03C114D10409F4FDCE0E949D
:102F80002302882309F4F8CE0E940000F5CE10E059
:102F900000E08091DB039091DC030817190708F02B
:102FA0007CCDC801880F991FE091DD03F091DE030D
:102FB000E80FF91F80819181DC01ED91FC9104847F
:102FC000F585E02DBE016F5F7F4F09950F5F1F4FA5
:102FD000E0CF61E083E80E94F50382E90E944408A3
:102FE000F82EE894F7F8D82EDD1CDD24DD1C60E017
:102FF00081E80E94F50366E08FEF0E94F50383E805
:103000000E944408682F6B7F83E80E94F50361E00B
:103010008FEF0E94F50361E080E00E94F50360E01D
:103020008FEF0E94F50360E080E80E94F503809135
:103030001603909117032091180331E03093480252
:1030400020936A021092490210926B02DC01ED910A
:10305000FC910190F081E02D60EB099581E00E94E8
:1030600005038093150366E0809118030E945C04B9
:103070001092FB018093FA018E01095E1F4F5801E7
:1030800027E0E22EEA94EE2079F0809116039091E9
:103090001703DC01ED91FC910284F385E02D099585
:1030A000F50181935F01EECF61E08FEF0E94F503A0
:1030B00060E08FE40E94F5036CE28EE40E94F50369
:1030C00060E08FEF0E94F50364EB86EB0E94F5034E
:1030D0009CE0E92ED11001C0E12C90E080E0E1E01D
:1030E000F0E0482F46954695469550E027E130E0C0
:1030F0002C0F3D1F240F351FD9012C91682F6770AD
:103100008E1510F0F9123FC0A7E1B0E0AC0FBD1F63
:103110004A0F5B1FDF0102C0AA0FBB1F6A95E2F7CF
:10312000BD0160952623DA012C938F5F8033C9F6A9
:1031300080911603909117032091180331E030938A
:10314000480220936A021092490210926B02DC013D
:10315000ED91FC910190F081E02D60EB099587E005
:10316000F82EFA94FF20C9F080911603909117036E
:10317000F80161918F01DC01ED91FC910190F081EA
:10318000E02D0995EECF30E002C0359527956A9580
:10319000E2F720FFCACF9F5FC8CF81E00E940503FE
:1031A0008093150361E08FEF0E94F50360E080E0FB
:1031B0000E94F50360E08FEF0E94F50360E089E074
:1031C0000E94F50360E080E10E94F50360E081E188
:1031D0000E94F50361E084E20E94F5036FEF85E24F
:1031E0000E94F50360E085E70E94F50361E08FEF40
:1031F0000E94F5036CE28EE40E94F50360E088E42F
:103200000E94F50360E280E30E94F50360E08FEF27
:103210000E94F50369E080E30E94F50360E084E525
:103220000E94F50364E081E30E94F50363E082E31A
:103230000E94F50363E880E40E94F50365E286E4FA
:103240000E94F50360E080E60E94F50360E087E2FB
:103250000E94F50366E080E50E94F50360E081E5E9
:103260000E94F50366E982E50E94F50368E086E5C1
:103270000E94F50360E387E50E94F50360E081E6C4
:103280000E94F50360E082E60E94F50360E084E6B8
:103290000E94F50360E085E60E94F50360EA86E699
:1032A0000E94F50361E08FEF0E94F50362E382E282
:1032B0000E94F50364E187E40E94F5036FEF89E45F
:1032C0000E94F50360E08AE40E94F50360E08FEF5E
:1032D0000E94F5036AE08AE70E94F50360E08BE74D
:1032E0000E94F50361E288E70E94F50361E08FEF39
:1032F0000E94F50364E383E20E94F50360E082E448
:103300000E94F5036FEF84E40E94F50366E285E412
:103310000E94F50365E086E40E94F50360E480E422
:103320000E94F50366E08EE00E94F5036AE180E208
:103330000E94F50360E483E40E94F50360E08FEFF0
:103340000E94F50363E084E30E94F50364E485E3EF
:103350000E94F50361E08FEF0E94F50364E081E3D2
:103360000E94F50369E08BE40E94F50365E08CE4BC
:103370000E94F50364E08DE40E94F50360E08FEFA6
:103380000E94F50360E084E40E94F50360E285E4B6
:103390000E94F50368E087E40E94F50368E288E490
:1033A0000E94F50360E087E60E94F50364E080E791
:1033B0000E94F50361E081E70E94F5036EEF82E76A
:1033C0000E94F50360E086E70E94F50360E087E76E
:1033D0000E94F50361E08FEF0E94F50361E08DE04C
:1033E0000E94F50360E08FEF0E94F50361E080E842
:1033F0000E94F50368EF81E00E94F50361E08FEF22
:103400000E94F50361E08EE80E94F50361E080E030
:103410000E94F50360E08FEF0E94F50360E080E812
:103420000E94F50364E08AE00E94F50384E80E94AC
:103430004408682F6F7E84E80E94F50361E08BE00A
:103440000E94F503CE014D960E947508BE016F5F84
:103450007F4FCE014D960E94C3088D8D882309F4BD
:10346000F3C08B859C85AD85BE858C57924FAF4F41
:10347000BF4F2F8D222309F4ECC04B855C856D85F1
:103480007E854E545D4F6F4F7F4F440F551F661F13
:10349000771F840F951FA61FB71F28A1222361F055
:1034A0004F85588969897A894C565D4F6F4F7F4F98
:1034B000840F951FA61FB71F29A1222361F04B89F6
:1034C0005C896D897E894A5D5D4F6F4F7F4F840FA8
:1034D000951FA61FB71F80931F0390932003A093EF
:1034E0002103B093220368EE81E00E94F503C090AF
:1034F0001F03D0902003E0902103F0902203CE011F
:103500004D960E947508BE016F5F7F4FCE014D96AC
:103510000E94C3088D8D882309F4A8C08B859C85E3
:10352000AD85BE858C57924FAF4FBF4F2F8D222355
:1035300009F4A1C04B855C856D857E854E545D4F39
:103540006F4F7F4F440F551F661F771F840F951FC6
:10355000A61FB71F18A1112361F04F8558896989EB
:103560007A894C565D4F6F4F7F4F840F951FA61F72
:10357000B71F29A1222309F49AC02C013D01E6E2DC
:103580004E0EE2E05E1E611C711CC414D504E604FC
:10359000F70408F48CC0AB81B0E020E03FE24AE3DE
:1035A00050E00E944A214B015C01F4EF8F0EF1E0E4
:1035B0009F1EA11CB11CA7019601241935094609BB
:1035C0005709A8EEB3E00E944A212B013C01C50136
:1035D000B40120ED37E040E050E00E94BB21420EF4
:1035E000531E641E751EC501B40128EE33E040E091
:1035F00050E00E94BB21C301B2010E94BB211123F4
:1036000031F08F819885280F391F411D511D70E0C1
:1036100060E02115310541055105F1F189019A015B
:10362000015011092109310970E060E0D901C80198
:103630008827892B8A2B8B2B59F13695279517953F
:1036400007956F5F7F4FF2CF86E39BE0A0E0B0E08D
:1036500010CF2E8D222309F420CF4B855C856D85FC
:103660007E854C565D4F6F4F7F4F13CF86E39BE0B7
:10367000A0E0B0E05BCF2E8D222309F46BCF4B8509
:103680005C856D857E854C565D4F6F4F7F4F5ECF5D
:10369000762F6627602B712B81E70E942204C0924F
:1036A0001F03D0922003E0922103F092220361E0F5
:1036B00081E00E94F50380E40E949208882309F4C7
:1036C0002DCB62E081E00E94F50380E00E94920829
:1036D000882309F423CB68EE81E00E94F5031ECB1A
:1036E0008091F00181110AC00E94A3016093EC0156
:1036F0007093ED018093EE019093EF010E94A3017E
:103700004090EC015090ED016090EE017090EF015F
:103710006419750986099709693B7B408105910504
:1037200058F01092E8011092E9011092EA0110920B
:10373000EB013092F00124CB0E94A30164197509BA
:1037400086099709633371058105910590F380918E
:10375000E4019091E501A091E601B091E701B05834
:103760008093E8019093E901A093EA01B093EB0103
:10377000E0CF8EE10E9402088C0161E08BE00E94A4
:10378000F50323CBEF920F931F93CF93DF93E801C1
:1037900034E047FD34E1042E000C550B57FF03C005
:1037A000519541955109E32E022F242FAE010E941D
:1037B000551CCE01DF91CF911F910F91EF9008958D
:1037C000662777270C94B41D1F93FC01992788273F
:1037D000BC01E89411911032E9F3193010F01E3059
:1037E000C8F31B3251F01D3249F4689406C00E94A0
:1037F000261C610F711D811D911D119110531A30EE
:10380000B0F33EF490958095709561957F4F8F4F02
:103810009F4F1F910895FB01DC0105900D92002040
:10382000E1F70895FC0105900020E9F78095909557
:103830008E0F9F1F0895BB274A3031F4992322F43D
:10384000BDE2909581959F4F0C943C1C592F482FB9
:10385000372F262F660F771F881F991F660F771F38
:10386000881F991F620F731F841F951F660F771F94
:10387000881F991F0895BB27FB015527AA27880F8A
:10388000991FAA1FA41710F0A41B83955051B9F7D4
:10389000A05DAA3308F0A95DA193009779F7B11153
:1038A000B1931192CB010C94FD1FA9E0B0E0EBE5C0
:1038B000FCE10C945B216A01F22EB02E102FFBE389
:1038C000AF2EA01608F41BE31F5F012F27E0AE0107
:1038D0004F5F5F4F0E94041FBC018981982F997030
:1038E000913009F43FC09BE2E1FC04C09E2D917031
:1038F000E0FC3AC05E2D5071E82FE87083FF46C0AF
:1039000084E0911101C083E0EF2DE81B8F1508F0D2
:10391000E0E0D6018E2F20E2552351F1992329F0C2
:10392000D6019C93C60101966C0196012D5F3F4F15
:10393000E2FE24C08EE4D6018C9391E411969C9310
:10394000119712968C93D9018E2F90E281111BC092
:10395000E20FF32FF11D10828EEF9FEF2996ECE01E
:103960000C9477219DE2C6CF90E2C4CF2D93815075
:103970008111FCCFCE0ED11CE0E0D0CF8EE6D60177
:103980008C9391E6DBCF9D938150E0CF482F44701C
:1039900082FF3DC084E0911101C083E08F1510F4D7
:1039A000EF2DE81BD6018E2F20E2552309F1992334
:1039B00029F0D6019C93C60101966C0196012D5FFA
:1039C0003F4FE2FE1BC089E4D6018C938EE4119632
:1039D0008C93119786E412968C93D9018E2F90E2E6
:1039E000882309F4B5CF9D938150FACF2D93815050
:1039F0008111FCCFCE0ED11CE0E0D9CF89E6D601F3
:103A00008C938EE611968C93119786E6E4CF9B01FA
:103A100077FF02C030E020E0A1E0B0E0911102C0E9
:103A2000B0E0A0E0F9013196AE0FBF1F8B2C912CB6
:103A3000BB2009F461C05401EFEFAE1ABE0AAA0D13
:103A4000BB1DFA161B0619F014F04F2D4A1B51111D
:103A500088C0E3FC59C07601A42FB0E2A1114FC089
:103A6000C40ED11C992309F45BC040E0D601119625
:103A7000F60190836D01552309F448C0012F060F0C
:103A80009A81582F507184FF03C0913309F401507B
:103A900010160CF047C0093008F008E0EEE2FE2EE8
:103AA0005B01A01AB10885019194819491082F3F80
:103AB000320729F4D601FC92F60131966F016217A4
:103AC000730794F1021713077CF5DB01A21BB30BFC
:103AD000AA24A394B12CAC0EBD1EAA0DBB1D119639
:103AE0008C9121503109D601119628153905F4F031
:103AF000F60180836D01DBCFB12CA12CA0CFF701A3
:103B0000B1937F01A150AACF9111B0CFD601942FCC
:103B100050E302C05D9391509111FCCFC40ED11CB3
:103B200040E0ACCF01E0BACF80E3DBCF6217730790
:103B300031F4963388F4953311F4552369F0F60186
:103B40008083FD01842F90E2811108C0A40FB11D74
:103B50001C9290E080E002CF81E3F1CF91938150FD
:103B6000F3CF911183CF8ACFB0E0A0E0EAEBFDE183
:103B70000C945B215C017B016115710519F0DB017F
:103B80008D939C9385010F5F1F4FF501D0818D2F81
:103B900090E00E94DC1F6C01892BB9F5DD32B9F58C
:103BA0000F5F1F4FD5011196DC91C1E05801F1E084
:103BB000AF1AB10843E050E060E770E0C5010E9431
:103BC000E51F892B69F5680182E0C80ED11C45E02C
:103BD00050E06BE670E0C6010E94E51F892B21F4DE
:103BE000680197E0C90ED11CE114F10419F0D70166
:103BF000CD92DC9260E070E080E89FEFC111FFC0E1
:103C000060E070E080E89FE7FAC05801BBCFDB328C
:103C100029F485010E5F1F4FF501D181C0E0C6CFA9
:103C200043E050E068E670E0C5010E94E51F892B83
:103C3000E9F0F80110E000E020E030E0A9015F01C8
:103C4000B0ED8B2E8D0E89E08815C8F19C2E6894FE
:103C500091F88C2F8870C2FF16C0811102C00F5FCF
:103C60001F4F3196D501DC91C92DE9CFE114F10444
:103C700029F00E5F1F4FF7011183008360E070E0B1
:103C800080EC9FE7BCC0882311F001501109A5E02A
:103C9000B0E00E944A219B01AC01220F331F441F58
:103CA000551F280D311D411D511D283999E939072E
:103CB000490799E15907A8F2C6609C2ED2CFAEEF12
:103CC0008A1206C0C3FD3CC09C2E689493F8C9CFED
:103CD000DF7DD534A9F580818D3239F4C061DF01F3
:103CE0001296818162E070E006C0DF018B32C1F381
:103CF000119661E070E080535D01A61AB70A8A3020
:103D0000F8F4E0E8CE16ECE0DE065CF4B601660FEF
:103D1000771F660F771FC60ED71ECC0CDD1CC80E92
:103D2000D11C5D01FFEFAF1ABF0A8C9180538A301E
:103D3000A8F1C4FF03C0D194C194D1080C0D1D1D7E
:103D4000C1FF09C0E114F10431F081E0A81AB10803
:103D5000D701AD92BC92CA01B9010E941220C37072
:103D6000C33009F490584B015C0120E030E0A90118
:103D70000E940D20882309F440C0CFE9D0E017FF4E
:103D800005C0119501951109C7E8D0E06E01B8E1B1
:103D9000CB1AD10880E2E82EF12C0FC0D501B1CFAB
:103DA000FE0125913591459154910E191F09C501C8
:103DB000B4010E9473204B015C01D501C4010E15B2
:103DC0001F0574F72497F594E794CC16DD06A9F740
:103DD0008A2F880F8B2F881F8F3F49F020E030E01B
:103DE000A901C501B4010E940D20811106C082E223
:103DF00090E09093EC038093EB03C501B401CDB741
:103E0000DEB7ECE00C947721283008F027E0332768
:103E1000DA01990F311D87FD9160009661057105EA
:103E200039F432602E5F3D9330E32A95E1F708952F
:103E30009F3F30F080387105610509F03C5F3C5FC1
:103E40003D93913008F08068911DDF93CF931F93CD
:103E50000F93FF92EF92192F987F9695E92F9695E1
:103E60009695E90FFF27E350FF4F99273327EE245C
:103E7000FF24A701E70105900894079428F4360F62
:103E8000E71EF81E491F511D660F771F881F991FD7
:103E90000694A1F70590079428F4E70EF81E491F31
:103EA000561FC11D770F881F991F661F0694A1F723
:103EB0000590079428F4F80E491F561FC71FD11DFF
:103EC000880F991F661F771F0694A1F70590079426
:103ED00020F4490F561FC71FD81F990F661F771F61
:103EE000881F0694A9F784911095177041F0D69514
:103EF000C79557954795F794E7941A95C1F7E3EA64
:103F0000F0E0689415901591359165919591059023
:103F10007FE27395E118F10A430B560BC90BD009E8
:103F2000C0F7E10CF11E431F561FC91FD01D7EF4C0
:103F3000703311F48A95E6CFE894015030F0080F01
:103F40000AF40027021708F4202F2395022F7A3352
:103F500028F079E37D932A95E9F710C07D932A959F
:103F600089F6069497956795379517951794E118F4
:103F7000F10A430B560BC90BD00998F023957E919B
:103F800073957A3308F070E37C932013B8F77E9131
:103F900070617D9330F0839571E37D9370E32A9592
:103FA000E1F71124EF90FF900F911F91CF91DF91D6
:103FB000992787FD9095089591110C94E020803207
:103FC00019F089508550C8F70895FB01DC01415074
:103FD000504088F08D9181341CF08B350CF4805E5C
:103FE000659161341CF06B350CF4605E861B6111C9
:103FF00071F3990B0895881BFCCFDC01FC01672F3E
:1040000071917723E1F7329704C07C916D937083AF
:104010006291AE17BF07C8F308950E944F2008F4BD
:1040200081E00895E89409C097FB3EF4909580954F
:10403000709561957F4F8F4F9F4F9923A9F0F92F6E
:1040400096E9BB279395F695879577956795B795EC
:10405000F111F8CFFAF4BB0F11F460FF1BC06F5FD2
:104060007F4F8F4F9F4F16C0882311F096E911C0E4
:10407000772321F09EE8872F762F05C0662371F005
:1040800096E8862F70E060E02AF09A95660F771F19
:10409000881FDAF7880F9695879597F90895990FF5
:1040A0000008550FAA0BE0E8FEEF16161706E80702
:1040B000F907C0F012161306E407F50798F0621B23
:1040C000730B840B950B39F40A2661F0232B242BF8
:1040D000252B21F408950A2609F4A140A6958FEF17
:1040E000811D811D08950E9486200C94FA200E9453
:1040F000EC2038F00E94F32020F0952311F00C946E
:10410000E3200C94E92011240C942E210E940B2111
:1041100070F3959FC1F3950F50E0551F629FF0011A
:10412000729FBB27F00DB11D639FAA27F00DB11D33
:10413000AA1F649F6627B00DA11D661F829F2227BC
:10414000B00DA11D621F739FB00DA11D621F839F43
:10415000A00D611D221F749F3327A00D611D231F19
:10416000849F600D211D822F762F6A2F11249F5767
:1041700050409AF0F1F088234AF0EE0FFF1FBB1F6A
:10418000661F771F881F91505040A9F79E3F510529
:1041900080F00C94E3200C942E215F3FE4F3983ED2
:1041A000D4F3869577956795B795F795E7959F5FD3
:1041B000C1F7FE2B880F911D9695879597F9089565
:1041C00099278827089597F99F6780E870E060E055
:1041D00008959FEF80EC089500240A9416161706A0
:1041E00018060906089500240A94121613061406E8
:1041F00005060895092E0394000C11F4882352F04B
:10420000BB0F40F4BF2B11F460FF04C06F5F7F4F02
:104210008F4F9F4F089557FD9058440F551F59F0E9
:104220005F3F71F04795880F97FB991F61F09F3FA3
:1042300079F087950895121613061406551FF2CFCC
:104240004695F1DF08C0161617061806991FF1CF1C
:1042500086957105610508940895E894BB27662743
:104260007727CB0197F90895F999FECF92BD81BDCB
:10427000F89A992780B50895262FF999FECF1FBA8D
:1042800092BD81BD20BD0FB6F894FA9AF99A0FBE7F
:10429000019608950E948C21A59F900DB49F900DCA
:1042A000A49F800D911D112408952F923F924F924B
:1042B0005F926F927F928F929F92AF92BF92CF92B6
:1042C000DF92EF92FF920F931F93CF93DF93CDB7BF
:1042D000DEB7CA1BDB0B0FB6F894DEBF0FBECDBF37
:1042E00009942A88398848885F846E847D848C8408
:1042F0009B84AA84B984C884DF80EE80FD800C8111
:104300001B81AA81B981CE0FD11D0FB6F894DEBFF3
:104310000FBECDBFED010895A29FB001B39FC001B4
:10432000A39F700D811D1124911DB29F700D811DE1
:104330001124911D0895991B79E004C0991F9617C7
:1043400008F0961B881F7A95C9F78095089597FB0A
:10435000072E16F4009407D077FD09D00E94E521BE
:1043600007FC05D03EF4909581959F4F0895709578
:1043700061957F4F0895A1E21A2EAA1BBB1BFD0178
:104380000DC0AA1FBB1FEE1FFF1FA217B307E40734
:10439000F50720F0A21BB30BE40BF50B661F771F8C
:1043A000881F991F1A9469F760957095809590956C
:1043B0009B01AC01BD01CF010895B7FF0C944A21C8
:1043C0000E944A21821B930B0895AA1BBB1B51E13B
:1043D00007C0AA1FBB1FA617B70710F0A61BB70B75
:1043E000881F991F5A95A9F780959095BC01CD011A
:1043F0000895EE0FFF1F0590F491E02D0994505899
:10440000BB27AA270E9417220C94FA200E94EC20B6
:1044100038F00E94F32020F039F49F3F19F426F47D
:104420000C94E9200EF4E095E7FB0C94E320E92FCF
:104430000E940B2158F3BA17620773078407950788
:1044400020F079F4A6F50C942D210EF4E0950B2EB6
:10445000BA2FA02D0B01B90190010C01CA01A001D6
:104460001124FF27591B99F0593F50F4503E68F131
:104470001A16F040A22F232F342F4427585FF3CF72
:10448000469537952795A795F0405395C9F77EF443
:104490001F16BA0B620B730B840BBAF09150A1F08C
:1044A000FF0FBB1F661F771F881FC2F70EC0BA0F12
:1044B000621F731F841F48F4879577956795B7959A
:1044C000F7959E3F08F0B0CF9395880F08F0992795
:1044D000EE0F9795879508950E9480220C94FA20FC
:1044E0000E94F32058F00E94EC2040F029F45F3F36
:1044F00029F00C94E32051110C942E210C94E92006
:104500000E940B2168F39923B1F3552391F3951B76
:10451000550BBB27AA2762177307840738F09F5FE4
:104520005F4F220F331F441FAA1FA9F335D00E2E51
:104530003AF0E0E832D091505040E695001CCAF7BE
:104540002BD0FE2F29D0660F771F881FBB1F261781
:1045500037074807AB07B0E809F0BB0B802DBF0158
:10456000FF2793585F4F3AF09E3F510578F00C9427
:10457000E3200C942E215F3FE4F3983ED4F386951C
:1045800077956795B795F7959F5FC9F7880F911D48
:104590009695879597F90895E1E0660F771F881F34
:1045A000BB1F621773078407BA0720F0621B730BE7
:1045B000840BBA0BEE1F88F7E09508950E944F20F8
:1045C00008F48FEF08950E944F20880B990B0895EF
:1045D0000F931F93CF93DF938230910510F482E005
:1045E00090E0E091EF03F091F00330E020E0B0E0E4
:1045F000A0E0309799F42115310509F44AC0281B31
:10460000390B24303105D8F58A819B8161157105FC
:1046100089F1FB0193838283FE0111C040815181A6
:104620000281138148175907E0F04817590799F498
:10463000109761F012960C93129713961C93329672
:10464000CF01DF91CF911F910F9108950093EF0358
:104650001093F003F4CF2115310551F042175307A1
:1046600038F0A901DB019A01BD01DF01F801C1CFDA
:10467000EF01F9CF9093F0038093EF03CDCFFE01CC
:10468000E20FF31F819391932250310939832883DC
:10469000D7CF2091ED033091EE03232B41F42091ED
:1046A0000601309107013093EE032093ED03209132
:1046B0000401309105012115310541F42DB73EB7B4
:1046C0004091080150910901241B350BE091ED0345
:1046D000F091EE03E217F307A0F42E1B3F0B28170F
:1046E000390778F0AC014E5F5F4F2417350748F06B
:1046F0004E0F5F1F5093EE034093ED038193919310
:104700009FCFF0E0E0E09CCFCF93DF930097E9F0FC
:10471000FC01329713821282A091EF03B091F00353
:10472000ED0130E020E01097A1F420813181820F6B
:10473000931F2091ED033091EE032817390709F0FC
:1047400061C0F093EE03E093ED03DF91CF91089504
:10475000EA01CE17DF07E8F54A815B819E0141152A
:104760005105B1F7E901FB83EA8349915991C40FDF
:10477000D51FEC17FD0761F4808191810296840FAB
:10478000951FE90199838883828193819B838A8322
:10479000F0E0E0E012968D919C9113970097B9F5A7
:1047A0002D913C911197CD010296820F931F20917C
:1047B000ED033091EE032817390739F6309751F59C
:1047C0001092F0031092EF03B093EE03A093ED0369
:1047D000BCCFD383C28340815181840F951FC817FA
:1047E000D90761F44E5F5F4F88819981480F591F47
:1047F000518340838A819B81938382832115310574
:1048000009F0B0CFF093F003E093EF039ECFFD01EA
:10481000DC01C0CF13821282D7CFB0E0A0E0E3E189
:10482000F4E20C9457218C01009751F4CB010E94C3
:10483000E8228C01C801CDB7DEB7E0E10C9473210A
:10484000FC01E60FF71F9C0122503109E217F30724
:1048500008F49DC0D901CD91DC911197C617D707F7
:1048600098F0C530D10530F3CE010497861797072D
:1048700008F3C61BD70B2297C193D1936D937C93FA
:10488000CF010E948423D6CF5B01AC1ABD0A4C0134
:104890008C0E9D1EA091EF03B091F003512C412C82
:1048A000F12CE12C109731F58091ED039091EE03FE
:1048B0008815990509F05CC04616570608F058C0DF
:1048C0008091040190910501009741F48DB79EB746
:1048D0004091080150910901841B950BE817F907D5
:1048E00008F055C0F093EE03E093ED03F9017183F6
:1048F0006083A0CF8D919C91119712966C90129726
:1049000013967C901397A815B90559F56C0142E0F0
:10491000C40ED11CCA14DB0420F1AC014A195B0996
:10492000DA011296159780F0628273825183408378
:10493000D9016D937C93E114F10471F0D7011396C2
:10494000FC93EE93129776CF22968C0F9D1FF90160
:1049500091838083F301EFCFF093F003E093EF03B3
:1049600069CF4816590608F42C017D01D3019ACF6E
:10497000CB010E94E8227C01009749F0AE01B8010A
:104980000E94CA24C8010E948423870153CF10E0EB
:1049900000E050CFFB01DC0102C001900D924150BC
:1049A0005040D8F70895FB01DC018D9101908019EA
:1049B0000110D9F3990B0895FB01DC0101900D92D0
:1049C0000020E1F7089511E0C7E0D1E004C0FE0146
:1049D0000E94F9212196C830D107C9F7F894FFCF7A
:1049E0000000803F0000F103800000000000590239
:1049F000B901E601A6021702F50109020000000054
:104A0000A9057C05D805520575056205530500000A
:104A1000000043072C0BCF07E0092207690669064F
:104A2000520508076A0607070407EE06E406A7060C
:104A30000000000043072C0BCF07E009220769069E
:104A40006906520563066A06AF0152056306E4066D
:104A5000A706000000003E0C320DCF07E009220738
:104A600069066906520563066A06AF0152056306C8
:064A7000E406A7060000A9
:00000001FF
