:100000000C942D010C9455010C9455010C94550140
:100010000C9455010C9455010C9455010C94550108
:100020000C9455010C9455010C9455010C945501F8
:100030000C9455010C9455010C9455010C945501E8
:100040000C9476060C9455010C9444060C941E06F0
:100050000C9455010C9455010C9455010C945501C8
:100060000C9455010C94550100407A10F35A00A0ED
:10007000724E18090010A5D4E80000E87648170071
:1000800000E40B54020000CA9A3B000000E1F505B1
:10009000000080969800000040420F000000A086FB
:1000A00001000000102700000000E803000000002D
:1000B0006400000000000A000000000001000000D1
:1000C00000002C76D888DC674F0823DFC1DFAE59EB
:1000D000E1B1B796E5E3E453C63AE651997696E87E
:1000E000E6C28426EB898C9B62ED407C6FFCEFBC02
:1000F0009C9F40F2BAA56FA5F490055A2AF75C932D
:100100006B6CF9676DC11BFCE0E40D47FEF520E662
:10011000B500D0ED902E0300943577050080841E45
:10012000080000204E0A000000C80C333333330FA0
:10013000986E12831141EF8D2114893BE65516CF3D
:10014000FEE6DB18D1844B381BF77C1D901DA4BB49
:10015000E424203284725E228100C9F124ECA1E5FE
:100160003D27000000080002010000030407000012
:10017000000000000000C00F0000E03F00007070B1
:10018000000018E000008CCF0100C4980100663028
:100190000300222003003200030022000300660057
:1001A00001008481010024800300C800040018FFBE
:1001B000010060FC0F0080031000200020002020C0
:1001C000002020002020202020202020202020206F
:1001D000002020202020202020202020200020205F
:1001E000536369656E7469666963002020516F739B
:1001F00061696E2020202000506879734869766F0D
:100200006C7400322E310020002000206B56004517
:100210004854204F7574707574000000000025006C
:1002200028002B0000000000240027002A000404FE
:10023000040404040404020202020202030303038E
:10024000030301020408102040800102040810206A
:10025000010204081020C0067C0C11241FBECFEF41
:10026000D8E0DEBFCDBF21E0A6E2B1E001C01D9223
:10027000A23FB207E1F711E0A0E0B1E0EAEDF6E25B
:1002800002C005900D92A632B107D9F711E0CCE279
:10029000D1E004C02197FE010E945F11CB32D1074B
:1002A000C9F70E941D070C9460130C94000090E0A5
:1002B000FC01EE5BFD4F2491825D9D4FFC0184911A
:1002C000882399F090E0880F991FFC01EC5DFD4FA9
:1002D000A591B491FC01E65EFD4F859194918FB795
:1002E000F894EC91E22BEC938FBF0895AF92BF92FC
:1002F000CF92DF92EF92FF920F931F93CF93DF93F2
:100300006C017B018B01040F151FEB015E01AE1820
:10031000BF08C017D10759F06991D601ED91FC9142
:100320000190F081E02DC6010995892B79F7C5016F
:10033000DF91CF911F910F91FF90EF90DF90CF90C1
:10034000BF90AF90089541E050E064E271E086ED27
:1003500091E00C947601FB014481558160817181AB
:100360000C947601FC01538D448D252F30E0842FB1
:1003700090E0821B930B541710F0CF9608950197CD
:100380000895FC01918D828D981761F0A28DAE0FBA
:10039000BF2FB11D5D968C91928D9F5F9F73928F41
:1003A00090E008958FEF9FEF0895FC01918D828D6D
:1003B000981731F0828DE80FF11D858D90E008953A
:1003C0008FEF9FEF0895FC01918D228D892F90E092
:1003D000805C9F4F821B91098F739927089583E357
:1003E00091E00E94E30121E0892B09F420E0822FB3
:1003F000089580E090E0892B29F00E94EF0181119F
:100400000C9400000895FC01A48DA80FB92FB11D14
:10041000A35ABF4F2C91848D90E001968F7399273A
:10042000848FA689B7892C93A089B1898C91837018
:1004300080648C93938D848D981306C00288F38911
:10044000E02D80818F7D80830895EF92FF920F933E
:100450001F93CF93DF93EC0181E0888F9B8D8C8D70
:1004600098131AC0E889F989808185FF15C09FB764
:10047000F894EE89FF896083E889F9898081837027
:10048000806480839FBF81E090E0DF91CF911F91D6
:100490000F91FF90EF900895F62E0B8D10E00F5FF7
:1004A0001F4F0F731127E02E8C8D8E110CC00FB6CD
:1004B00007FCFACFE889F989808185FFF5CFCE0165
:1004C0000E940302F1CFEB8DEC0FFD2FF11DE35ADB
:1004D000FF4FF0829FB7F8940B8FEA89FB898081E8
:1004E0008062CFCFCF93DF93EC01888D8823B9F062
:1004F000AA89BB89E889F9898C9185FD03C080812F
:1005000086FD0DC00FB607FCF7CF8C9185FFF2CFAB
:10051000808185FFEDCFCE010E940302E9CFDF91FC
:10052000CF91089590E0FC01EE59FE4F2491FC011B
:10053000EE5BFD4F3491FC01E25DFD4FE491EE2353
:10054000C9F0222339F0233001F1A8F4213019F148
:10055000223029F1F0E0EE0FFF1FE65EFD4FA5917E
:10056000B4918FB7F894EC91611126C030953E2379
:100570003C938FBF08952730A9F02830C9F024306C
:1005800049F7809180008F7D03C0809180008F7734
:1005900080938000DFCF84B58F7784BDDBCF84B5B7
:1005A0008F7DFBCF8091B0008F778093B000D2CF4A
:1005B0008091B0008F7DF9CF3E2BDACF3FB7F89412
:1005C00080912B0190912C01A0912D01B0912E01D1
:1005D00026B5A89B05C02F3F19F00196A11DB11D9E
:1005E0003FBFBA2FA92F982F8827BC01CD01620FDA
:1005F000711D811D911D42E0660F771F881F991F95
:100600004A95D1F708958F929F92AF92BF92CF9261
:10061000DF92EF92FF926B017C010E94DE024B01A0
:100620005C01C114D104E104F104B9F00E94DE02BE
:10063000681979098A099B09683E7340810591050B
:1006400080F321E0C21AD108E108F10888EE880E93
:1006500083E0981EA11CB11CE4CFFF90EF90DF90C7
:10066000CF90BF90AF909F908F900895089590E0A5
:1006700080E00895CF93DF93EC0160E08E810E94CB
:10068000920261E08E810E94920260E08E810E945F
:1006900092028BE891E00197F1F7DF91CF910895F5
:1006A000CF92DF92EF92FF920F931F93CF93DF933E
:1006B0006C017C0187E0E80EF11CD0E0C0E0062F61
:1006C00010E0B8010C2E02C0759567950A94E2F708
:1006D0006170F70181917F010E9492022196C430DE
:1006E000D10579F7C601DF91CF911F910F91FF904E
:1006F000EF90DF90CF900C943A03CF92DF92EF927D
:10070000FF920F931F93CF93DF93EC01F62E642F8C
:100710008C810E9492028D818F3F19F060E00E94CF
:1007200092020F2D10E08F8584FF25C06E0187E0B7
:10073000C80ED11CF12CE12CB8010E2C02C075950D
:1007400067950A94E2F76170F60181916F010E944A
:100750009202FFEFEF1AFF0A88E0E816F10461F752
:10076000CE01DF91CF911F910F91FF90EF90DF901D
:10077000CF900C943A03B80184E0759567958A95FB
:10078000E1F7CE010E9450036F2DCE01DF91CF9192
:100790001F910F91FF90EF90DF90CF900C9450033A
:1007A00040E0682F86ED91E00C947D03CF93DF93BA
:1007B000623029F49091E50198609093E50160938F
:1007C000E9011092EA0190E49093EB018093EC012F
:1007D000805C8093ED018091DA010E945701809145
:1007E000DB018F3F11F00E9457018091DC010E94D4
:1007F0005701C6EDD1E09E01265D31408091E501B3
:1008000084FD0AC084E090E02196281739073CF463
:100810008E810E945701EFCF88E090E0F5CF8BE307
:100820009DE00197F1F760E08091DA010E94920269
:1008300060E08091DC010E9492028091DB018F3F99
:1008400019F060E00E9492028091E50184FD39C0B8
:1008500063E086ED91E00E945003CBE4D6E4CE0144
:100860000197F1F763E086ED91E00E945003219734
:10087000F1F763E086ED91E00E94500383E592E09A
:100880000197F1F762E086ED91E00E9450038091BC
:10089000E50180620E94D00384E08093E6018CE051
:1008A0000E94D00381E00E94D0038BE39FE1019777
:1008B000F1F782E08093E70186E0DF91CF910C941D
:1008C000D00380620E94D0038BE496E40197F1F795
:1008D0008091E50180620E94D00383E592E0019758
:1008E000F1F78091E50180620E94D003D0CF909112
:1008F000E901691710F06FEF690FE62FF0E0EA5297
:10090000FE4F9489890F80680C94D00341E00E94C7
:100910007D0381E090E008950F931F93CF93DF93C1
:100920008C01D0E0C0E0F801EC0FFD1F649166235C
:1009300039F041E086ED91E00E947D032196F3CFEE
:10094000CE01DF91CF911F910F9108950F931F93C7
:10095000CF93DF93EC0188819981009759F02A8128
:100960003B812617370730F081E0DF91CF911F914F
:100970000F9108958B016F5F7F4F0E948A1200973D
:1009800059F0998388831B830A832C813D81232B13
:1009900059F7FC011082E8CF80E0E7CFEF92FF9299
:1009A0000F931F93CF93DF93EC017B01CB010E9448
:1009B000A50C0097A9F00C811D81080F191FB80123
:1009C000CE010E94A604882361F0288139818C81A0
:1009D0009D81B701820F931F0E949E0C1D830C8383
:1009E00081E0DF91CF911F910F91FF90EF900895DB
:1009F000EF92FF920F931F93CF93DF9361157105D1
:100A000041F480E0DF91CF911F910F91FF90EF9023
:100A1000089541155105B1F07B01EC010C811D8158
:100A2000040F151FB8010E94A604882351F32881E2
:100A300039818C819D81B701820F931F0E945913C8
:100A40001D830C8381E0DECFCF93DF93EC0188819F
:100A50009981009711F00E940112198218821D825B
:100A60001C821B821A82DF91CF910895CF93DF936E
:100A7000EC01FB0144815581608171810E94F80481
:100A8000811103C0CE010E942405CE01DF91CF91D8
:100A90000895EF92FF920F931F93CF93DF93EC0192
:100AA0007B018A01BA010E94A60481110BC0CE010C
:100AB0000E942405CE01DF91CF911F910F91FF90ED
:100AC000EF9008951D830C83B701888199810E945E
:100AD0005913F0CFAF92BF92CF92DF92EF92FF9275
:100AE0000F931F93CF93DF93EC016B015A017901B0
:100AF0002417350720F48B2D5901E42EF82E198286
:100B000018821B821A821D821C8250E040E065E23E
:100B100071E0CE010E944905D60114960D911C91F9
:100B2000A016B10628F5E016F10608F48701D601F3
:100B3000ED91FC911197E00FF11FF08010826D9103
:100B40007C916A0D7B1D61157105F1F0FB0101902F
:100B50000020E9F73197AF01461B570BCE010E94E9
:100B60004905F60180819181080F191FD801FC9277
:100B7000CE01DF91CF911F910F91FF90EF90DF9009
:100B8000CF90BF90AF900895CE010E942405E9CF89
:100B9000CF93DF93EC01FB018617970749F0608143
:100BA00071816115710541F0448155810E944905AB
:100BB000CE01DF91CF9108950E942405F9CFFC0169
:100BC0001182108213821282158214820C94C8053D
:100BD000EF92FF920F931F93CF93DF93EC018B0162
:100BE000198218821B821A821D821C82CB010E94EC
:100BF000A50C7C01BC01CE010E94A604811109C094
:100C0000CE01DF91CF911F910F91FF90EF900C9447
:100C10002405FD82EC82B80188819981DF91CF9112
:100C20001F910F91FF90EF900C949E0CFC0180811E
:100C30009181009711F00C94011208951F920F9268
:100C40000FB60F9211242F933F934F935F936F939F
:100C50007F938F939F93AF93BF93EF93FF9383E320
:100C600091E00E940302FF91EF91BF91AF919F919C
:100C70008F917F916F915F914F913F912F910F9045
:100C80000FBE0F901F9018951F920F920FB60F92E4
:100C900011242F938F939F93EF93FF93E091430140
:100CA000F09144018081E0914901F0914A0182FD77
:100CB0001BC0908180914C018F5F8F7320914D01FB
:100CC000821741F0E0914C01F0E0ED5CFE4F958F12
:100CD00080934C01FF91EF919F918F912F910F90F5
:100CE0000FBE0F901F9018958081F4CF1F920F9226
:100CF0000FB60F9211242F933F938F939F93AF932F
:100D0000BF938091270190912801A0912901B09172
:100D10002A013091260123E0230F2D3758F5019643
:100D2000A11DB11D209326018093270190932801D6
:100D3000A0932901B0932A0180912B0190912C015D
:100D4000A0912D01B0912E010196A11DB11D80939E
:100D50002B0190932C01A0932D01B0932E01BF91F4
:100D6000AF919F918F913F912F910F900FBE0F9058
:100D70001F90189526E8230F0296A11DB11DD2CF12
:100D8000E3E3F1E01382128288EE93E0A0E0B0E0AA
:100D900084839583A683B7838AE091E091838083DF
:100DA00085EC90E09587848784EC90E09787868730
:100DB00080EC90E0918B808B81EC90E0938B828B28
:100DC00082EC90E0958B848B86EC90E0978B868B01
:100DD000118E128E138E148EE6EDF1E013821282C4
:100DE0008CE191E09183808381E184838FEF85831F
:100DF00080E186839FE0978396E090879CE09187CF
:100E000097E092879BE0938798E094879AE0958794
:100E100099E09687878761E00E94D603E0EDF1E0D4
:100E200011821082138212821582148250E040E0F7
:100E300065E271E0CF010C944905CF93DF93CDB704
:100E4000DEB7CF58D1090FB6F894DEBF0FBECDBFC5
:100E5000789484B5826084BD84B5816084BD85B595
:100E6000826085BD85B5816085BD80916E008160A1
:100E700080936E0010928100809181008260809347
:100E80008100809181008160809381008091800049
:100E90008160809380008091B10084608093B10074
:100EA0008091B00081608093B00080917A0084606E
:100EB00080937A0080917A00826080937A0080919A
:100EC0007A00816080937A0080917A0080688093B4
:100ED0007A001092C100E0914301F091440182E058
:100EE0008083E0913F01F09140011082E091410147
:100EF000F091420180E1808310924B01E091470123
:100F0000F091480186E08083E0914501F09146012F
:100F1000808180618083E0914501F091460180816C
:100F200088608083E0914501F0914601808180686E
:100F30008083E0914501F091460180818F7D80831F
:100F400062E084E10E94D60363E072E0CE0189583A
:100F50009F4F0E94E80568EF71E0CE0183589F4FD4
:100F60000E94E80581E00E94D0038BE39FE1019796
:100F7000F1F76BEE71E0CE018F589F4F0E94E805AC
:100F80007E012BE6E20EF11C6EED71E0C7010E94BE
:100F9000E8054E0135E6830E911C61ED71E0C40158
:100FA0000E94E8055E014FE5A40EB11C64EC71E0FF
:100FB000C5010E94E805D12CC12C50EFCB57DF4F63
:100FC0005883C558D0408E010B5B1F4FCB57DF4F66
:100FD0008881C558D040712C87FF03C08A5F7A94FE
:100FE000FBCF26E731E0DE01119666E170E0681B79
:100FF000710987FD7395CD57DF4F79836883C35897
:10100000D040F901259035904590549090E080E0D3
:10101000812C912C5401CD57DF4FE881F981C358C1
:10102000D040E81BF90BB201A10104C07695679589
:1010300057954795EA95D2F7C457DF4F48835983B0
:101040006A837B83CC58D04040FF05C05FEF851A90
:10105000950AA50AB50A880C991CAA1CBB1C019606
:1010600087319105C1F68D929D92AD92BD922C5F14
:101070003F4F0A171B0709F0C4CF672D6195C8576A
:10108000DF4F6883C858D040CD57DF4F1882C35810
:10109000D040812C912C5401C657DF4F8882CA580A
:1010A000D040CD57DF4F7881C358D040C757DF4F6E
:1010B0007883C958D040672C512C412C1E0185E4FF
:1010C000280E311C9101285F3F4FFE013196CA570F
:1010D000DF4F39822882C658D04081149104A10480
:1010E000B10409F0B7C14081518162817381042C40
:1010F00004C076956795579547950A94D2F742951F
:1011000050E0CA0195958795959587958373440F0F
:10111000551F440F551F4C7C482B842F90E0AC0189
:10112000559547954575880F991F8A7A842B90E0CD
:10113000A3E095958795AA95E1F7CA57DF4FA88157
:10114000B981C658D0408D93CA57DF4FB983A88361
:10115000C658D04034962A173B0709F0BECFC8576F
:10116000DF4FB881C858D040B60DC557DF4FB883A0
:10117000CB58D040C757DF4F8881C958D0408064D2
:101180000E94D003F10161911F0186ED91E00E9460
:101190008604CA57DF4F28813981C658D0402215AE
:1011A000330581F7C657DF4F6881CA58D040862D76
:1011B0000E947704C557DF4F6881CB58D04086ED39
:1011C00091E00E9486046394C757DF4F3881C95865
:1011D000D040385FC757DF4F3883C958D04046E00A
:1011E000440E511C58E14516510409F067CF6FEFCA
:1011F000861A960AA60AB60AC857DF4F7881C858D9
:10120000D0407C5FC857DF4F7883C858D040CD5757
:10121000DF4F8881C358D040805ECD57DF4F888331
:10122000C358D040803409F037CFC60165E070E084
:101230000E94F6105B019B0150E040E0BE016F5838
:101240007F4FCE01835B9F4F0E946A05AB962EAD08
:101250003FADAB97A501BE016B597F4FCE01019603
:101260000E946A05BE016F5F7F4FC8010E94DF05C3
:10127000BE01635B7F4FC8010E943605BC01CE01F1
:10128000875A9F4F0E94DF05C8010E941606CE01B3
:1012900001960E941606CE01835B9F4F0E941606A0
:1012A00060E084E00E947704BE01675A7F4F86EDBC
:1012B00091E00E94AB01950150E040E0B701CE0102
:1012C000835B9F4F0E946A05A5962EAD3FADA59703
:1012D000A501BE01615A7F4FCE0101960E946A05A9
:1012E000BE016F5F7F4FC8010E94DF05BE01635BD7
:1012F0007F4FC8010E943605BC01CE018D5A9F4F19
:101300000E94DF05C8010E941606CE0101960E94C8
:101310001606CE01835B9F4F0E94160661E084E0B3
:101320000E947704BE016D5A7F4F86ED91E00E94C6
:10133000AB016BE470E080E090E00E940303CE011B
:101340008D5A9F4F0E941606CE01875A9F4F0E94CA
:101350001606CB57DF4F9881C558D0409F5FCB57BB
:10136000DF4F9883C558D040A4E0CA0ED11C9130FD
:1013700009F02CCEBE016F587F4FCE018B599F4F85
:101380000E94C805B701CE01815A9F4F0E94C8052F
:1013900061EC71E0CE0101960E94E805BE016F5F2D
:1013A0007F4FC8010E94DF05BE0163587F4FC8010F
:1013B0000E943605BC01CE018F589F4F0E94C80580
:1013C000C8010E941606CE0101960E9416066EEB19
:1013D00071E0CE0101960E94E805BE016F5F7F4F6C
:1013E000C8010E94DF05BE0169587F4FC8010E94F5
:1013F0003605BC01C7010E94C805C8010E94160637
:10140000CE0101960E941606E7968EAD9FADE79736
:101410000C9728F5BE016F587F4FCE0101960E94B0
:10142000DF056CEB71E0CE0101960E94CE048111C4
:1014300004C0CE0101960E942405BE016F5F7F4F5C
:10144000CE018F589F4F0E94C805CE0101960E9481
:101450001606DACF44A155A166A177A148CEF701BF
:10146000848195810C97E0F4B701CE0101960E942A
:10147000DF056AEB71E0CE0101960E94CE04811176
:1014800004C0CE0101960E942405BE016F5F7F4F0C
:10149000C7010E94C805CE0101960E941606DFCF43
:1014A00062EE74E080E090E00E940303C12CD12C36
:1014B0007601F5E04F2E512C612C712CC701B6013D
:1014C000A30192010E940A11490150E040E0BE01CF
:1014D0006F587F4FCE01835B9F4F0E946A05AB968A
:1014E0002EAD3FADAB97A401BE016B597F4FCE012E
:1014F00001960E946A05BE016F5F7F4FCE018B5B34
:101500009F4F0E94DF05BE01635B7F4FCE018B5B67
:101510009F4F0E943605BC01CE01875A9F4F0E9403
:10152000DF05CE018B5B9F4F0E941606CE01019610
:101530000E941606CE01835B9F4F0E94160660E054
:1015400084E00E947704BE01675A7F4F86ED91E0E8
:101550000E94AB01940150E040E0BE0165597F4F0D
:10156000CE01835B9F4F0E946A05A5962EAD3FADCD
:10157000A597A401BE01615A7F4FCE0101960E943A
:101580006A05BE016F5F7F4FCE018B5B9F4F0E944C
:10159000DF05BE01635B7F4FCE018B5B9F4F0E94D7
:1015A0003605BC01CE018D5A9F4F0E94DF05CE014A
:1015B0008B5B9F4F0E941606CE0101960E94160675
:1015C000CE01835B9F4F0E94160661E084E00E947B
:1015D0007704BE016D5A7F4F86ED91E00E94AB010A
:1015E0006BE470E080E090E00E940303CE018D5A2E
:1015F0009F4F0E941606CE01875A9F4F0E941606E3
:10160000F4E0CF0ED11CE11CF11C24E4C216D1047D
:10161000E104F10409F052CF62EE74E080E090E062
:101620000E940303CE01815A9F4F0E941606CE01ED
:101630008B599F4F0E941606CE0185599F4F0E94DD
:101640001606CE018F589F4F0E941606CE01835872
:101650009F4F0E941606CE0189589F4F0E94160682
:1016600060E4B62E74E1E72EF12CE0E0CE2EE0E04F
:10167000DE2E0CED15E0412C512C3201B0927C0095
:1016800080917A00806480937A0080917A0086FD50
:10169000FCCF6091780070917900072E000C880BC8
:1016A000990B0E94E70E9B01AC01C301B2010E949D
:1016B00018102B013C010150110901F720E030E81E
:1016C0004BEB54E40E94841020E030EC4FE754E4EC
:1016D0000E94841020E030E040EA50E40E94220F93
:1016E00020E030E040E251E40E94220F2DEC3CEC7F
:1016F0004CE45FE30E94220F2B013C012CEC3CECFC
:101700004CE45EE360912F017091300180913101D2
:10171000909132010E94220F9B01AC01C301B201E2
:101720000E94181060932F01709330018093310153
:101730009093320127961FAE1EAE279729961FAEB3
:101740001EAE29972B961FAE1EAE2B978E010F5FF4
:101750001F4F21E043E00E94800C009779F1FC01CB
:1017600001900020E9F73197AF01481B590BBC01EC
:10177000CE018B5B9F4F0E9449052B962EAD3FAD4E
:101780002B978091D4019091D5012817390741F505
:1017900027968EAD9FAD27976091D0017091D101B2
:1017A000009709F494C06115710509F06DC0232BF1
:1017B00009F491C0FC01808190E00FC0CE018B5BE9
:1017C0009F4F0E942405D9CF232B09F484C0DB014D
:1017D0008C9190E0919581959109892B09F47BC0BA
:1017E00062E084E10E94D60360E080E00E9477041A
:1017F0000E94A3010E94A3010E94A3010E94A301D1
:101800000E94A3018FE092E00E948C040E94A30139
:101810000E94A3010E94A3010E94A3010E94A301B0
:1018200061E080E00E947704BE016B5B7F4F80ED3A
:1018300091E00E94C8056BE072E0CE0101960E9423
:10184000E8054D815E8169817A81CE018B5B9F4F76
:101850000E94F804CE0101960E94160610E000E0F6
:101860002B968EAD9FAD2B979701281B390BC90185
:10187000969587950817190750F489E092E00E9421
:101880008C040F5F1F4FECCF0E945013A6CFBE01F8
:101890006B5B7F4F86ED91E00E94AB0110E000E0B2
:1018A0002B968EAD9FAD2B97A701481B590BCA01F4
:1018B0009A0136952795821B930B0817190758F440
:1018C00087E092E00E948C040F5F1F4FE9CF611503
:1018D000710509F079CFCE018B5B9F4F0E941606F0
:1018E000C114D10409F4C5CE0E94EF01882309F484
:1018F000C0CE0E940000BDCE80ED91E00C94160693
:10190000EF920F931F93CF93DF93E80134E047FDED
:1019100034E1042E000C550B57FF03C0519541953F
:101920005109E32E022F242FAE010E94AE0CCE01EE
:10193000DF91CF911F910F91EF900895FB01DC0192
:1019400005900D920020E1F70895FC01059000201C
:10195000E9F7809590958E0F9F1F0895A9E0B0E05C
:10196000E4EBFCE00C94E60F6A01F22EB02E102F8F
:10197000FBE3AF2EA01608F41BE31F5F012F27E047
:10198000AE014F5F5F4F0E940D0EBC018981982F01
:101990009970913009F43FC09BE2E1FC04C09E2D98
:1019A0009170E0FC3AC05E2D5071E82FE87083FF23
:1019B00046C084E0911101C083E0EF2DE81B8F1534
:1019C00008F0E0E0D6018E2F20E2552351F1992353
:1019D00029F0D6019C93C60101966C0196012D5FFA
:1019E0003F4FE2FE24C08EE4D6018C9391E4119621
:1019F0009C93119712968C93D9018E2F90E28111AE
:101A00001BC0E20FF32FF11D10828EEF9FEF29967E
:101A1000ECE00C9402109DE2C6CF90E2C4CF2D936F
:101A200081508111FCCFCE0ED11CE0E0D0CF8EE6EC
:101A3000D6018C9391E6DBCF9D938150E0CF482F68
:101A4000447082FF3DC084E0911101C083E08F1596
:101A500010F4EF2DE81BD6018E2F20E2552309F15B
:101A6000992329F0D6019C93C60101966C01960139
:101A70002D5F3F4FE2FE1BC089E4D6018C938EE4BC
:101A800011968C93119786E412968C93D9018E2F20
:101A900090E2882309F4B5CF9D938150FACF2D931E
:101AA00081508111FCCFCE0ED11CE0E0D9CF89E668
:101AB000D6018C938EE611968C93119786E6E4CF2F
:101AC0009B0177FF02C030E020E0A1E0B0E091117F
:101AD00002C0B0E0A0E0F9013196AE0FBF1F8B2C21
:101AE000912CBB2009F461C05401EFEFAE1ABE0A7D
:101AF000AA0DBB1DFA161B0619F014F04F2D4A1B38
:101B0000511188C0E3FC59C07601A42FB0E2A111A5
:101B10004FC0C40ED11C992309F45BC040E0D6012C
:101B20001196F60190836D01552309F448C0012FE9
:101B3000060F9A81582F507184FF03C0913309F426
:101B4000015010160CF047C0093008F008E0EEE232
:101B5000FE2E5B01A01AB108850191948194910831
:101B60002F3F320729F4D601FC92F60131966F011E
:101B70006217730794F1021713077CF5DB01A21BB0
:101B8000B30BAA24A394B12CAC0EBD1EAA0DBB1D91
:101B900011968C9121503109D601119628153905DD
:101BA000F4F0F60180836D01DBCFB12CA12CA0CF26
:101BB000F701B1937F01A150AACF9111B0CFD60107
:101BC000942F50E302C05D9391509111FCCFC40E4D
:101BD000D11C40E0ACCF01E0BACF80E3DBCF62178D
:101BE000730731F4963388F4953311F4552369F073
:101BF000F6018083FD01842F90E2811108C0A40FBB
:101C0000B11D1C9290E080E002CF81E3F1CF91936F
:101C10008150F3CF911183CF8ACF283008F027E08D
:101C20003327DA01990F311D87FD91600096610518
:101C3000710539F432602E5F3D9330E32A95E1F768
:101C400008959F3F30F080387105610509F03C5FD1
:101C50003C5F3D93913008F08068911DDF93CF93F6
:101C60001F930F93FF92EF92192F987F9695E92F6C
:101C700096959695E90FFF27EE53FF4F9927332747
:101C8000EE24FF24A701E70105900894079428F4A7
:101C9000360FE71EF81E491F511D660F771F881F5C
:101CA000991F0694A1F70590079428F4E70EF81EF3
:101CB000491F561FC11D770F881F991F661F069465
:101CC000A1F70590079428F4F80E491F561FC71F67
:101CD000D11D880F991F661F771F0694A1F70590E5
:101CE000079420F4490F561FC71FD81F990F661F6E
:101CF000771F881F0694A9F784911095177041F0FB
:101D0000D695C79557954795F794E7941A95C1F7D7
:101D1000E8E6F0E0689415901591359165919591FC
:101D200005907FE27395E118F10A430B560BC90B3E
:101D3000D009C0F7E10CF11E431F561FC91FD01D6B
:101D40007EF4703311F48A95E6CFE894015030F0B8
:101D5000080F0AF40027021708F4202F2395022FFA
:101D60007A3328F079E37D932A95E9F710C07D93C3
:101D70002A9589F606949795679537951795179440
:101D8000E118F10A430B560BC90BD00998F02395C3
:101D90007E9173957A3308F070E37C932013B8F743
:101DA0007E9170617D9330F0839571E37D9370E354
:101DB0002A95E1F71124EF90FF900F911F91CF9199
:101DC000DF91992787FD90950895E89409C097FBC6
:101DD0003EF490958095709561957F4F8F4F9F4F02
:101DE0009923A9F0F92F96E9BB279395F695879546
:101DF00077956795B795F111F8CFFAF4BB0F11F409
:101E000060FF1BC06F5F7F4F8F4F9F4F16C08823AF
:101E100011F096E911C0772321F09EE8872F762FE5
:101E200005C0662371F096E8862F70E060E02AF026
:101E30009A95660F771F881FDAF7880F9695879512
:101E400097F908950E94350F0C94A60F0E94980FE1
:101E500038F00E949F0F20F0952311F00C948F0F03
:101E60000C94950F11240C94DA0F0E94B70F70F3A5
:101E7000959FC1F3950F50E0551F629FF001729F2F
:101E8000BB27F00DB11D639FAA27F00DB11DAA1F3E
:101E9000649F6627B00DA11D661F829F2227B00D8B
:101EA000A11D621F739FB00DA11D621F839FA00D16
:101EB000611D221F749F3327A00D611D231F849F66
:101EC000600D211D822F762F6A2F11249F575040BD
:101ED0009AF0F1F088234AF0EE0FFF1FBB1F661F38
:101EE000771F881F91505040A9F79E3F510580F001
:101EF0000C948F0F0C94DA0F5F3FE4F3983ED4F309
:101F0000869577956795B795F795E7959F5FC1F7A4
:101F1000FE2B880F911D9695879597F9089597F94F
:101F20009F6780E870E060E008959FEF80EC08957F
:101F300000240A94161617061806090608950024A8
:101F40000A9412161306140605060895092E039422
:101F5000000C11F4882352F0BB0F40F4BF2B11F496
:101F600060FF04C06F5F7F4F8F4F9F4F089557FDF5
:101F70009058440F551F59F05F3F71F04795880FF7
:101F800097FB991F61F09F3F79F08795089512168E
:101F900013061406551FF2CF4695F1DF08C016163A
:101FA00017061806991FF1CF8695710561050894EB
:101FB0000895E894BB2766277727CB0197F9089502
:101FC0002F923F924F925F926F927F928F929F9249
:101FD000AF92BF92CF92DF92EF92FF920F931F9337
:101FE000CF93DF93CDB7DEB7CA1BDB0B0FB6F894E8
:101FF000DEBF0FBECDBF09942A88398848885F8428
:102000006E847D848C849B84AA84B984C884DF8098
:10201000EE80FD800C811B81AA81B981CE0FD11D7C
:102020000FB6F894DEBF0FBECDBFED010895505836
:10203000BB27AA270E942F100C94A60F0E94980F6E
:1020400038F00E949F0F20F039F49F3F19F426F4D6
:102050000C94950F0EF4E095E7FB0C948F0FE92F8D
:102060000E94B70F58F3BA176207730784079507E2
:1020700020F079F4A6F50C94D90F0EF4E0950B2E10
:10208000BA2FA02D0B01B90190010C01CA01A001CA
:102090001124FF27591B99F0593F50F4503E68F125
:1020A0001A16F040A22F232F342F4427585FF3CF66
:1020B000469537952795A795F0405395C9F77EF437
:1020C0001F16BA0B620B730B840BBAF09150A1F080
:1020D000FF0FBB1F661F771F881FC2F70EC0BA0F06
:1020E000621F731F841F48F4879577956795B7958E
:1020F000F7959E3F08F0B0CF9395880F08F0992789
:10210000EE0F9795879508950E9498100C94A60F4E
:102110000E949F0F58F00E94980F40F029F45F3FF3
:1021200029F00C948F0F51110C94DA0F0C94950F29
:102130000E94B70F68F39923B1F3552391F3951BD0
:10214000550BBB27AA2762177307840738F09F5FD8
:102150005F4F220F331F441FAA1FA9F335D00E2E45
:102160003AF0E0E832D091505040E695001CCAF7B2
:102170002BD0FE2F29D0660F771F881FBB1F261775
:1021800037074807AB07B0E809F0BB0B802DBF014C
:10219000FF2793585F4F3AF09E3F510578F00C941B
:1021A0008F0F0C94DA0F5F3FE4F3983ED4F38695DB
:1021B00077956795B795F7959F5FC9F7880F911D3C
:1021C0009695879597F90895E1E0660F771F881F28
:1021D000BB1F621773078407BA0720F0621B730BDB
:1021E000840BBA0BEE1F88F7E095089597FB072E36
:1021F00016F4009407D077FD09D00E94291107FC3E
:1022000005D03EF4909581959F4F08957095619506
:102210007F4F0895052E97FB1EF400940E94211114
:1022200057FD07D00E943D1107FC03D04EF40C94DB
:10223000211150954095309521953F4F4F4F5F4F5D
:10224000089590958095709561957F4F8F4F9F4F22
:102250000895AA1BBB1B51E107C0AA1FBB1FA617ED
:10226000B70710F0A61BB70B881F991F5A95A9F73F
:1022700080959095BC01CD010895A1E21A2EAA1B6C
:10228000BB1BFD010DC0AA1FBB1FEE1FFF1FA21726
:10229000B307E407F50720F0A21BB30BE40BF50B23
:1022A000661F771F881F991F1A9469F760957095AC
:1022B000809590959B01AC01BD01CF010895EE0F73
:1022C000FF1F0590F491E02D09940F931F93CF9376
:1022D000DF938230910510F482E090E0E091F0010C
:1022E000F091F10130E020E0B0E0A0E0309799F407
:1022F0002115310509F44AC0281B390B243031055A
:10230000D8F58A819B816115710589F1FB01938361
:102310008283FE0111C040815181028113814817DF
:102320005907E0F04817590799F4109761F0129691
:102330000C93129713961C933296CF01DF91CF9195
:102340001F910F9108950093F0011093F101F4CFC4
:102350002115310551F04217530738F0A901DB016F
:102360009A01BD01DF01F801C1CFEF01F9CF9093D0
:10237000F1018093F001CDCFFE01E20FF31F8193B5
:1023800091932250310939832883D7CF2091EE01D0
:102390003091EF01232B41F4209102013091030190
:1023A0003093EF012093EE01209100013091010163
:1023B0002115310541F42DB73EB7409104015091EC
:1023C0000501241B350BE091EE01F091EF01E217BE
:1023D000F307A0F42E1B3F0B2817390778F0AC0148
:1023E0004E5F5F4F2417350748F04E0F5F1F509325
:1023F000EF014093EE01819391939FCFF0E0E0E0F5
:102400009CCFCF93DF930097E9F0FC0132971382C2
:102410001282A091F001B091F101ED0130E020E0D5
:102420001097A1F420813181820F931F2091EE013A
:102430003091EF012817390709F061C0F093EF01DF
:10244000E093EE01DF91CF910895EA01CE17DF0707
:10245000E8F54A815B819E0141155105B1F7E9011B
:10246000FB83EA8349915991C40FD51FEC17FD07EF
:1024700061F4808191810296840F951FE90199830F
:102480008883828193819B838A83F0E0E0E01296C7
:102490008D919C9113970097B9F52D913C911197CF
:1024A000CD010296820F931F2091EE013091EF0132
:1024B0002817390739F6309751F51092F10110922B
:1024C000F001B093EF01A093EE01BCCFD383C283A0
:1024D00040815181840F951FC817D90761F44E5F61
:1024E0005F4F88819981480F591F518340838A81AA
:1024F0009B81938382832115310509F0B0CFF0933E
:10250000F101E093F0019ECFFD01DC01C0CF138209
:102510001282D7CFB0E0A0E0E0E9F2E10C94E20F44
:102520008C01009751F4CB010E9465118C01C80108
:10253000CDB7DEB7E0E10C94FE0FFC01E60FF71F0C
:102540009C0122503109E217F30708F49DC0D9011C
:10255000CD91DC911197C617D70798F0C530D105FA
:1025600030F3CE0104978617970708F3C61BD70BE5
:102570002297C193D1936D937C93CF010E94011256
:10258000D6CF5B01AC1ABD0A4C018C0E9D1EA091EA
:10259000F001B091F101512C412CF12CE12C10975C
:1025A00031F58091EE019091EF018815990509F0C0
:1025B0005CC04616570608F058C080910001909103
:1025C0000101009741F48DB79EB7409104015091ED
:1025D0000501841B950BE817F90708F055C0F09327
:1025E000EF01E093EE01F90171836083A0CF8D913B
:1025F0009C91119712966C90129713967C9013975A
:10260000A815B90559F56C0142E0C40ED11CCA14D5
:10261000DB0420F1AC014A195B09DA011296159727
:1026200080F06282738251834083D9016D937C93E1
:10263000E114F10471F0D7011396FC93EE93129715
:1026400076CF22968C0F9D1FF90191838083F30131
:10265000EFCFF093F101E093F00169CF48165906EE
:1026600008F42C017D01D3019ACFCB010E946511A2
:102670007C01009749F0AE01B8010E944713C801E0
:102680000E940112870153CF10E000E050CFFB0100
:10269000DC0102C001900D9241505040D8F70895DE
:1026A000FB01DC018D91019080190110D9F3990B88
:1026B0000895FB01DC0101900D920020E1F70895DF
:1026C00011E0CCE2D1E004C0FE010E945F1121962E
:0A26D000CD32D107C9F7F894FFCF0F
:1026DA000000F20180000000000025027601B2012C
:1026EA007202E301C101D5010000000086047601EF
:0626FA0037033603200047
:00000001FF
