:100000000C9463000C948B000C948B000C948B006C
:100010000C948B000C948B000C948B000C941208A5
:100020000C948B000C948B000C948B000C948B0024
:100030000C948B000C948B000C948B000C948B0014
:100040000C9470070C948B000C94E0070C94BA0786
:100050000C948B000C948B000C948B000C948B00F4
:100060000C948B000C948B000000000024002700EF
:100070002A0000000000250028002B0000000008D6
:10008000000201000003040700000000000000005F
:1000900000000000230026002900040404040404D6
:1000A0000404020202020202030303030303010227
:1000B00004081020408001020408102001020408F6
:1000C0001020630B2F0B11241FBECFEFD8E0DEBF33
:1000D000CDBF11E0A0E0B1E0E4E9F8E202C0059094
:1000E0000D92A236B107D9F723E0A2E6B1E001C034
:1000F0001D92AA31B207E1F710E0C2E6D0E004C0D9
:100100002197FE010E945C11C136D107C9F70E94F8
:10011000340C0C943D140C940000CF92DF92EF92BB
:10012000FF92CF93DF93B0911C02A0E08111AB2F1F
:1001300080911D0290E0880F991FAC0140575F4FDE
:10014000C0902202D0902302E0902402F090250279
:1001500030E020E0FA01C591D491E881B90190E046
:1001600080E0EB23EA130AC02F5F3F4F6C157D053B
:100170008E059F0578F36FEF7FEFCB01DF91CF9175
:10018000FF90EF90DF90CF900895CF93DF9390E0B2
:10019000FC01E255FF4F249186569F4FFC0184914C
:1001A0008823D1F090E0880F991FFC01E859FF4F98
:1001B000A591B491FC01EE58FF4FC591D4916230E6
:1001C00071F49FB7F8943C91822F809583238C9390
:1001D000E8812E2B28839FBFDF91CF9108958FB7A1
:1001E000F894EC912E2B2C938FBFF6CF3FB7F89459
:1001F0008091740190917501A0917601B091770181
:1002000026B5A89B05C02F3F19F00196A11DB11D71
:100210003FBFBA2FA92F982F8827BC01CD01620FAD
:10022000711D811D911D42E0660F771F881F991F68
:100230004A95D1F708958F929F92AF92BF92CF9235
:10024000DF92EF92FF924B015C010E94F6006B017E
:100250007C010E94F6006C197D098E099F09683E99
:10026000734081059105A8F321E0821A9108A10845
:10027000B10888EEC80E83E0D81EE11CF11C811481
:100280009104A104B10429F7FF90EF90DF90CF9083
:10029000BF90AF909F908F9008952FB7F894609182
:1002A00070017091710180917201909173012FBF63
:1002B00008958F929F92AF92BF92CF92DF92EF926A
:1002C000FF920F931F93CF93DF93CDB7DEB7C05448
:1002D000D1400FB6F894DEBF0FBECDBF0E944D01D6
:1002E00000911E0210911F022091200230912102E4
:1002F0006B017C01C01AD10AE20AF30A9701860158
:10030000003D174021053105B0F480912602C05C04
:10031000DE4F0FB6F894DEBF0FBECDBFDF91CF9199
:100320001F910F91FF90EF90DF90CF90BF90AF9013
:100330009F908F90089560931E0270931F02809388
:10034000200290932102109219021092180210922A
:100350001702109216021092150262E080911A02A2
:100360000E94C50061E070E080E090E00E941B0107
:1003700061E080911A020E94C50080911A0290E00B
:10038000FC01E458FF4F2491FC01E255FF4F3491EA
:10039000FC01E656FF4FE491EE23D9F0222359F0F9
:1003A000233009F44BC008F03EC0213009F44CC0A2
:1003B000223009F44DC0F0E0EE0FFF1FEE58FF4F62
:1003C000A591B4918FB7F894EC9130953E233C936E
:1003D0008FBF80911B028551823008F046C08BE2AE
:1003E00091E10197F1F762E080911A020E94C50045
:1003F0008091270290E08230910538F0880F991F94
:10040000880F991F05970197F1F7F89480E00E94F3
:100410008D006F3F7F4F8F4F9F4F71F510922602D7
:10042000789480E074CF2730B1F02830D1F02430B8
:1004300009F0C1CF809180008F7D03C08091800042
:100440008F7780938000B7CF84B58F7784BDB3CF8B
:1004500084B58F7DFBCF8091B0008F778093B00003
:10046000AACF8091B0008F7DF9CF64E170E080E089
:1004700090E00E941B01B7CF81E00E948D006F3F8A
:100480007F4F8F4F9F4F51F2CE0101967C015E014D
:100490009FEBA91A9EEFB90A870180E00E948D00A8
:1004A000F801608371838283938381E00E948D00D1
:1004B000F8016483758386839783085F1F4FA016B6
:1004C000B10659F7789430E020E0F7018080918000
:1004D000A280B3804481558166817781FFEF8F16BA
:1004E0009F06AF06BF0631F04F3F8FEF58076807F2
:1004F000780719F41092260294CFF90183E0F5955C
:10050000E7958A95E1F7EB5EFD4F8081880F8416B1
:100510009506A606B70618F180832F5F3F4F98E037
:10052000E90EF11C2832310581F640911902209123
:10053000150280911602280F3327331F809117026E
:10054000280F311D80911802820F932F911D99273A
:100550004817190679F681E080932602D8CE81608B
:10056000DBCFFC01448B558B668B778B40875187A3
:10057000628773870895AF92BF92CF92DF92EF9216
:10058000FF920F931F93CF93DF936C017B018B013D
:10059000040F151FEB015E01AE18BF08C017D1078D
:1005A00059F06991D601ED91FC910190F081E02D17
:1005B000C6010995892B79F7C501DF91CF911F916C
:1005C0000F91FF90EF90DF90CF90BF90AF90089584
:1005D000FC01538D448D252F30E0842F90E0821B49
:1005E000930B541710F0CF96089501970895FC01CE
:1005F000918D828D981761F0A28DAE0FBF2FB11D26
:100600005D968C91928D9F5F9F73928F90E008957D
:100610008FEF9FEF0895FC01918D828D981731F037
:10062000828DE80FF11D858D90E008958FEF9FEF8B
:100630000895FC01918D228D892F90E0805C9F4F61
:10064000821B91098F739927089588E791E00E9492
:10065000190321E0892B09F420E0822F089580E01E
:1006600090E0892B29F00E94250381110C94000051
:100670000895FC01A48DA80FB92FB11DA35ABF4F37
:100680002C91848D90E001968F739927848FA68991
:10069000B7892C93A089B1898C91837080648C93E5
:1006A000938D848D981306C00288F389E02D808194
:1006B0008F7D80830895EF92FF920F931F93CF93C6
:1006C000DF93EC0181E0888F9B8D8C8D98131AC08D
:1006D000E889F989808185FF15C09FB7F894EE8974
:1006E000FF896083E889F9898081837080648083D1
:1006F0009FBF81E090E0DF91CF911F910F91FF901C
:10070000EF900895F62E0B8D10E00F5F1F4F0F73C3
:100710001127E02E8C8D8E110CC00FB607FCFACF7E
:10072000E889F989808185FFF5CFCE010E943903E0
:10073000F1CFEB8DEC0FFD2FF11DE35AFF4FF0824F
:100740009FB7F8940B8FEA89FB8980818062CFCFB5
:10075000CF93DF93EC01888D8823B9F0AA89BB89F8
:10076000E889F9898C9185FD03C0808186FD0DC0E3
:100770000FB607FCF7CF8C9185FFF2CF808185FF04
:10078000EDCFCE010E943903E9CFDF91CF910895DB
:100790006F927F928F929F92AF92BF92CF92DF9291
:1007A000EF92FF920F931F93CF93DF93EC018B0196
:1007B0003A0169010E944D014B015C01780110E092
:1007C00000E006151705A1F10E944D01AB01BC0127
:1007D000481959096A097B09F60180819181092E1E
:1007E000000CAA0BBB0B84179507A607B70750F0A0
:1007F000E881F9810084F185E02DCE010995181674
:10080000190614F7E881F9810084F185E02DCE0105
:100810000995892B69F0E881F9810284F385E02D3F
:10082000CE010995F70181937F010F5F1F4FC9CF5B
:100830000E944D01AB01BC01481959096A097B09A5
:10084000F60180819181841B950B91838083C8017F
:10085000DF91CF911F910F91FF90EF90DF90CF909C
:10086000BF90AF909F908F907F906F900895CF939F
:10087000DF931F92CDB7DEB79B01198241E050E0B4
:10088000BE016F5F7F4F0E94C803019731F48981D9
:1008900090E00F90DF91CF9108958FEF9FEFF9CF08
:1008A000FC0164897589868997890895089508955A
:1008B000CF92DF92EF92FF92CF93DF93EC01E8812A
:1008C000F9810088F189E02D0995288939894A89BB
:1008D0005B890E9463116B017C01C88AD98AEA8A0C
:1008E000FB8A6C857D858E859F856F5F7F4F8F4FDF
:1008F0009F4F6C877D878E879F876130710581054B
:10090000910551F00E94670F9B01AC01C701B60130
:100910000E94CF116B017C01C701B601DF91CF911D
:10092000FF90EF90DF90CF900895CF92DF92EF92FB
:10093000FF92CF93DF93EC01E881F981008CF18D78
:10094000E02D0995288939894A895B890E946311BC
:100950006B017C01C88AD98AEA8AFB8A6C857D850D
:100960008E859F856F5F7F4F8F4F9F4F6C877D87F1
:100970008E879F87613071058105910551F00E9436
:10098000670F9B01AC01C701B6010E94CF116B013B
:100990007C01C701B601DF91CF91FF90EF90DF900E
:1009A000CF900895FC01108A118A128A138A148646
:1009B0001586168617860895FC0195819F7071F043
:1009C0000380F481E02D80819181009739F0DC0172
:1009D000ED91FC910088F189E02D099460E070E0D0
:1009E000CB010895FC01178208950895CF93DF93FA
:1009F000EC018F8181110DC0E881F981008CF18DAE
:100A0000E02DCE010995688779878A879B8781E0E9
:100A10008F83688579858A859B85DF91CF9108953D
:100A2000FC0195819F7096171706B9F0B4F0660F18
:100A3000771F83819481680F791FDB018D919C91D1
:100A4000009759F0FC0122812F3039F40190F08198
:100A5000E02D0088F189E02D099460E070E0CB0181
:100A6000089580E00895EF92FF920F931F93CF9324
:100A7000DF93EC01CB01BA01EA80FB800C851D8578
:100A8000F801EE0FFF1FEE0FFF1FEE0DFF1D60833D
:100A90007183828393832C813D814E815F810E948B
:100AA00063116C837D838E839F8328853985A9019B
:100AB0004F5F5F4F598748870F5F1F4F1D870C8718
:100AC000E881F9810E171F0714F01D861C86E417B4
:100AD000F507ECF4398728872C853D8537FF04C05E
:100AE0002E0F3F1F3D872C872C853D85220F331FFE
:100AF000220F331FE20EF31EF70120813181428164
:100B000053810E9462116C837D838E839F836885ED
:100B10007985072E000C880B990B0E94670F9B01AB
:100B2000AC016C817D818E819F810E94CF11DF910C
:100B3000CF911F910F91FF90EF900895FC0180815C
:100B40009181009711F00C94E7120895EF92FF92B3
:100B50000F931F93CF93DF93EC018EE091E0998385
:100B600088838B819C81892B09F110E000E08D81C5
:100B70008F7080171106D1F0CCF0EB81FC81C80199
:100B8000880F991FE80FF91FE080F180E114F1044C
:100B900051F0F70182818F3031F4C7010E94A60520
:100BA000C7010E94E7120F5F1F4FE1CFDF91CF9186
:100BB0001F910F91FF90EF900895EF92FF920F9386
:100BC0001F93CF93DF93FC01258126171706C9F0E9
:100BD000C4F08A01660F771FC381D481C60FD71F67
:100BE000E880F980E114F10451F0F70182818F303F
:100BF00031F4C7010E94A605C7010E94E7121983BC
:100C00000883DF91CF911F910F91FF90EF9008958E
:100C1000CF93DF93EC018EE091E0998388831A8271
:100C20001E82188619861A861B861C861D861E86BD
:100C30001F86188A198A1A8A1B8A81E08D8382E0AE
:100C400090E00E944B129C838B83FC0111821082E6
:100C5000DF91CF910895CF92DF92EF92FF920F93A1
:100C60001F93CF93DF93EC010091060310910703CC
:100C7000E0900403F09005030E151F0591F5C801DF
:100C80000896811520E49207B8F4880F991F0E94F6
:100C90004B126C018091080390910903DC01F6016D
:100CA00030E020E02017310751F04D915D914193E4
:100CB00051932F5F3F4FF6CF8FEF9FEFE8CF1E147A
:100CC0001F0414F40E94E712D0920903C092080393
:100CD00080910403909105030896909305038093F7
:100CE000040380910603909107032091080330913B
:100CF00009039C01220F331FE0910803F0910903BF
:100D0000E20FF31FD183C083019690930703809372
:100D10000603CE01DF91CF911F910F91FF90EF90CD
:100D2000DF90CF900895AF92BF92CF92DF92EF9273
:100D3000FF920F931F93CF93DF93DB01AA0FBB1F8B
:100D4000EC01EB81FC81EA0FFB1FA081B1811097C0
:100D5000C9F01296EC911297EF30A1F4ED91FC914D
:100D600011970488F589E02DBA01A901CD01DF9121
:100D7000CF911F910F91FF90EF90DF90CF90BF9098
:100D8000AF90099469017A015B018C0188E190E0E0
:100D90000E944B12EC010E9408068FE08A8382E4D5
:100DA00091E099838883CC8ADD8AEE8AFF8AD80114
:100DB000ED91FC910480F581E02DAE01B501C801F3
:100DC000DF91CF911F910F91FF90EF90DF90CF9027
:100DD000BF90AF900994EF92FF920F931F93CF9320
:100DE000DF93EC01198218821B821A821D821C82F9
:100DF00061157105A9F17B01FB0101900020E9F764
:100E000031978F01061B170BB8016F5F7F4F90E082
:100E100080E00E9470130097B9F0998388831B8348
:100E20000A832C813D81232B11F4FC0110821D8348
:100E30000C83B70188819981DF91CF911F910F9128
:100E4000FF90EF900C94361488819981009711F0EF
:100E50000E94E712198218821D821C821B821A824C
:100E6000DF91CF911F910F91FF90EF900895CF9355
:100E7000DF93EC0160E671E00E94EB06CE01DF91AA
:100E8000CF9108950F931F93CF93DF93EC018B01C4
:100E900088819981803A2FE0920748F40E9484105B
:100EA000F801808388819981019699838883C8019C
:100EB000DF91CF911F910F910895CF93DF93EC01B4
:100EC00088819981803A2FE0920738F40E948C1033
:100ED00088819981019699838883DF91CF910895C4
:100EE0001F920F920FB60F9211242F933F938F935F
:100EF0009F93AF93BF938091700190917101A091E6
:100F00007201B091730130916F0123E0230F2D37EF
:100F100058F50196A11DB11D20936F0180937001BA
:100F200090937101A0937201B09373018091740149
:100F300090917501A0917601B09177010196A11D64
:100F4000B11D8093740190937501A0937601B093C5
:100F50007701BF91AF919F918F913F912F910F900A
:100F60000FBE0F901F90189526E8230F0296A11D23
:100F7000B11DD2CF1F920F920FB60F9211242F9353
:100F80003F934F935F936F937F938F939F93AF9311
:100F9000BF93EF93FF9388E791E00E943903FF919D
:100FA000EF91BF91AF919F918F917F916F915F91E1
:100FB0004F913F912F910F900FBE0F901F9018955A
:100FC0001F920F920FB60F9211242F938F939F931E
:100FD000EF93FF93E0918801F09189018081E09186
:100FE0008E01F0918F0182FD1BC090818091910153
:100FF0008F5F8F7320919201821741F0E0919101F0
:10100000F0E0E858FE4F958F80939101FF91EF91AA
:101010009F918F912F910F900FBE0F901F90189559
:101020008081F4CF1F920F920FB60F9211244F922E
:101030005F926F927F928F929F92AF92BF92CF9268
:10104000DF92EF92FF920F931F932F933F934F9353
:101050005F936F937F938F939F93AF93BF93EF9320
:10106000FF93CF93DF93CDB7DEB76E97DEBFCDBFD3
:101070007894809170008D7F8093700074E0672E6B
:10108000712C8091B8029091B902DC01ED91FC9134
:101090000084F185E02D0995059784F07E8E6D8E94
:1010A0008091B8029091B902BE01635E7F4F0E94A9
:1010B00037048A3A910571F197FFF2CF8091700061
:1010C0008260809370006E960FB6F894DEBF0FBEFC
:1010D000CDBFDF91CF91FF91EF91BF91AF919F91E4
:1010E0008F917F916F915F914F913F912F911F91C0
:1010F0000F91FF90EF90DF90CF90BF90AF909F90B7
:101100008F907F906F905F904F900F900FBE0F90D9
:101110001F9018958091B8029091B902BE01635E4C
:101120007F4F0E9437047C0197FDABCF8091B802BE
:101130009091B902BE01635E7F4F0E9437046C013B
:1011400097FF04C0E114F10409F09BCF8091B8022D
:101150009091B902BE01635E7F4F0E9437044C013B
:1011600097FD8FCF8091B8029091B902BE01635E66
:101170007F4F0E9437045C0197FD83CF8091B802B6
:101180009091B902BE01635E7F4F0E9437048C01CB
:1011900097FD77CFE114F10431F08091BA028E15FA
:1011A0001F0409F06ECFC114D10431F08091BB024D
:1011B0008C151D0409F065CF4E2C5C2C982C8C2DC1
:1011C0008E259AEA892788268A2480268091B8026B
:1011D0009091B90201151105B9F09E01235E3F4FB0
:1011E000A801FE0131963F01BF010E94C803081704
:1011F000190709F063CFF30181918826CF01861981
:10120000970980179107C4F38091B8029091B902B1
:10121000BE01635E7F4F0E94370497FD4FCF881653
:10122000190609F04BCFE114F10431F08091BA02B4
:101230008E151F0409F042CFC114D10431F0809102
:10124000BB028C151D0409F039CFF1E09F124DC08F
:101250008091BA02481203C081E0511001C080E0C1
:10126000909106039093BE0291E09093FE0281114B
:1012700032C18091B8029091B902DC01ED91FC91EC
:101280000190F081E02D6A2D09958091B80290912E
:10129000B9026091FE02DC01ED91FC910190F081B8
:1012A000E02D09958091B8029091B9024091FE021B
:1012B00050E0DC01ED91FC910280F381E02D6EEBBA
:1012C00072E009956091FE026A2590E080E020912D
:1012D000FE022817190609F00CF4B5C1FC01E2540E
:1012E000FD4F208162270196F2CF62E0961214C072
:1012F0002981422F50E090E080E0841795074CF45C
:10130000FC01EC58FD4F3081E65BFF4F30830196C6
:10131000F4CF2093FE02ADCF73E097121BC01127CC
:101320008FE08093BE02FE01319690E080E080174E
:10133000910751F0DC01AC58BD4F3C91219132171F
:1013400039F08AEA8093BE0281E08093FE0291CF59
:101350000196EDCF84E0981225C0FA800B8110E051
:101360008091BB029981981303C01092FE02A6CE11
:101370000E94500F65E670E00E943411801711063C
:1013800009F06CF480911403909115039A8B898B6A
:101390006F2DCE0141960E945D07F092BA02109225
:1013A000FE0267CFA6E09A1203C08091BB02CACFAB
:1013B000B5E09B1203C010920A03F1CFEDE09E123C
:1013C00014C0898190E0880F991F20910803309103
:1013D0000903820F931FDC01ED91FC9182818093C0
:1013E000BE0281E08093FE0276C0B9E09B1217C076
:1013F000FE01319690E080E011278017910744F4B8
:101400002191DC01AC58BD4F50962C930196F5CF3D
:101410000C581D4FF801108A1092FE025CC0FAE0D1
:101420009F1216C0FE01319690E080E011278017D0
:10143000910744F42191DC01AC58BD4F9A962C934E
:101440000196F5CF0C581D4FD8019A961C92E4CF07
:10145000BBE09B126FC0198110929D021092B702DF
:1014600064E872E0CE0147960E94EB066EE972E0F6
:10147000CE0141960E94EB06812F90E02091060359
:10148000309107038217930708F052C0880F991F05
:101490002091080330910903820F931FFC01808182
:1014A0009181DC01ED91FC910190F081E02DAE0184
:1014B0004F5E5F4FBE01695E7F4F09958093BE020C
:1014C00081E08093FE02CE0141960E949E05CE01EE
:1014D00047960E949E0580910A0381110DC0E091FC
:1014E0000E03F0910F03309721F081E080930A03FF
:1014F000099581E080930A0380910B038111B9CE95
:10150000809114039091150302969A8B898B67E35F
:10151000CE0141960E945D0781E080930B03E0912C
:101520001003F0911103309709F4A3CE0995A1CED1
:1015300080E0C4CFBCE09B1240C0198110929D0294
:1015400064E872E0CE0147960E94EB06812F90E09E
:10155000880F991F2091080330910903820F931F70
:10156000FC0160817181DB01ED91FC910280F381CE
:10157000E02DAE01495E5F4FCE01419609954D8940
:1015800069897A89242F3E8990E080E08217930749
:1015900089F0FB01E80FF91F6115710521F4109224
:1015A0006201E2E6F1E05081FC01E254FD4F50831C
:1015B0000196ECCF4093FE0286CFB8E09B1222C08A
:1015C0008091BC029091BD0201969093BD028093E0
:1015D000BC02898190E0880F991F20910803309107
:1015E0000903820F931FFC01808191814A815B81F5
:1015F0006C817D81DC01ED91FC910488F589E02D01
:1016000009950ACFB7E09B1234CE898190E0880F0C
:10161000991F2091080330910903820F931FFC0149
:1016200080819181DC01ED91FC91008CF18DE02DA8
:1016300009956093BE027093BF028093C00290939D
:10164000C10284E0CFCE8091B8029091B902DC0152
:10165000ED91FC910190F081E02D09952FCDCF9374
:10166000DF93C2E4D1E0D0935D02C0935C028CE5CD
:1016700092E00E94A605D0934502C093440284E400
:1016800092E00E94A60580913802909139020E9452
:10169000E71280912A0290912B020E94E71280911A
:1016A0000403909105031816190654F48091080359
:1016B00090910903009721F0DF91CF910C94E712EC
:1016C000DF91CF9108950F931F93CF93DF93E8E7B6
:1016D000F1E01382128288EE93E0A0E0B0E0848310
:1016E0009583A683B78380E391E09183808385EC23
:1016F00090E09587848784EC90E09787868780ECDC
:1017000090E0918B808B81EC90E0938B828B82ECCC
:1017100090E0958B848B86EC90E0978B868B118E76
:10172000128E138E148E1092BA021092BB02109277
:10173000BD021092BC021092FF02109200031092A0
:1017400001031092030310920503109204031092F8
:1017500007031092060310920903109208031092D7
:101760000A0310920B0310920D0310920C031092B7
:101770000F0310920E031092110310921003109297
:101780001303109212031092150310921403C8E26F
:10179000D2E01C821D821E821F82198618861B863B
:1017A0001A861D861C8604E110E01983088380E5F3
:1017B00090E00E944B129B838A83C6E3D2E01C8296
:1017C0001D821E821F82198618861B861A861D8618
:1017D0001C861983088380E590E00E944B129B834E
:1017E0008A83A5E1B2E08EE015968C9315978BE085
:1017F00016968C931697ECEBF0E0E4911796EC9329
:101800001797E8EAF0E0E4911896EC93189740E80F
:101810005EE360E070E01D964D935D936D937C9365
:10182000509784E492E00E940806E4E4F2E0148A0F
:10183000158A168A178AC2E4D1E0D183C08389E36E
:1018400082838CE592E00E940806ECE5F2E0148ABF
:10185000158A168A178AD183C0838AE38283DF912F
:10186000CF911F910F910895CF93DF9300D000D0B7
:1018700000D01F92CDB7DEB7789484B5826084BD66
:1018800084B5816084BD85B5826085BD85B5816084
:1018900085BD80916E00816080936E001092810002
:1018A00080918100826080938100809181008160BD
:1018B000809381008091800081608093800080917E
:1018C000B10084608093B1008091B000816080930A
:1018D000B00080917A00846080937A0080917A00D1
:1018E000826080937A0080917A00816080937A0090
:1018F00080917A00806880937A001092C100E09114
:101900008801F091890182E08083E0918401F09167
:1019100085011082E0918601F091870180E180834A
:1019200010929001E0918C01F0918D0186E080830E
:10193000E0918A01F0918B01808180618083E09148
:101940008A01F0918B01808188608083E0918A0117
:10195000F0918B01808180688083E0918A01F09111
:101960008B0180818F7D808384E492E00E942B062E
:101970008CE592E00E942B0688E791E09093B902F3
:101980008093B80210E000E00E94500FF801EC587C
:10199000FD4F80830F5F1F4F00311105A9F7809124
:1019A0001403909115039C838B838091BA028F83DB
:1019B0008091BB028E83BE01695F7F4FCE0103968B
:1019C0000E944207BE016A5F7F4FCE0103960E94CC
:1019D00042078E818093BB028F818093BA028091EF
:1019E000BA028A3F18F08FEF8093BA021D82BE01BF
:1019F0006B5F7F4FCE0103960E9442078D81873334
:101A000019F481E080930B038091BA02882321F0BE
:101A10008091BA028F3FA9F40E94500F69EF70E0E5
:101A20000E94341111E0180F809114039091150356
:101A30009A838983612FCE0101960E945D071093DE
:101A4000BA028091BB02882321F08091BB028F3FB4
:101A5000B1F40E94500F69EF70E00E94341111E060
:101A6000180F809114039091150301969A8389832E
:101A7000612FCE0101960E945D071093BB0282E0A8
:101A80008093B00084E08093B10080EF8093B30036
:101A90008091700082608093700062E080911A02F1
:101AA0000E94C5000E944D01605D77408109910947
:101AB00060931E0270931F02809320029093210274
:101AC00087E38093270200E010E00E944D01C09060
:101AD0006B01D0906C01E0906D01F0906E016C197B
:101AE0007D098E099F09653671058105910508F408
:101AF0004EC00E944D0160936B0170936C01809306
:101B00006D0190936E014091670150916801609161
:101B1000690170916A0188E292E00E94330520E039
:101B200030E048EC52E40E94CF1160937002709351
:101B300071028093720290937302609364027093B7
:101B40006502809366029093670240916301509111
:101B50006401609165017091660186E392E00E94E4
:101B600033052BE734E948E853E40E94631160939E
:101B700058027093590280935A0290935B026093CB
:101B80004C0270934D0280934E0290934F020E943C
:101B90005901882309F480C080911B028C3009F41C
:101BA00091C048F48B3001F1C12CD12C90ECE92E7E
:101BB0009FE7F92E43C085518230B0F7B0901702ED
:101BC0006B2D70E0762F662766277F77809118024D
:101BD000682B90E080E00E94650F2DEC3CEC4CEC13
:101BE0005DE30E94C60F8AC06091170270E090E02A
:101BF00080E00E94650F4B015C01F0901802F7FE37
:101C00000AC0AC019B0160E070E080E89FEB0E949D
:101C100062114B015C016F2D6F7070E090E080E00D
:101C20000E94670F2DEC3CEC4CEC5DE30E94C60F6C
:101C3000A50194010E9463116B017C01A70196012B
:101C4000C701B6010E944612811126C025EE32EF6F
:101C50004FE75FE3609163017091640180916501DA
:101C6000909166010E94C60F4B015C0127E137EBA2
:101C700041E559E3C701B6010E94C60F9B01AC01C3
:101C8000C501B4010E946311609363017093640104
:101C900080936501909366010E945901882309F49D
:101CA00095C080911B028B3030F08D3080F18551D2
:101CB000823008F497C0C12CD12C80ECE82E8FE73D
:101CC000F82E43C0B09017026B2D70E090E080E0DA
:101CD0000E94650F6B017C01609118026F7070E0CB
:101CE00090E080E00E94670F2DEC3CEC4CEC5DE353
:101CF0000E94C60FA70196010E9463116B017C012F
:101D0000B7FE9CCFF7FAF094F7F8F09497CF609174
:101D1000160270E090E080E00E94670F2DEC3CEC32
:101D20004CEC5DE30E94C60F6B017C0160911502D3
:101D300070E090E080E00E94670F9B01AC01C7015A
:101D4000B6010E9463116B017C01A7019601C701D6
:101D5000B6010E944612811139C020E030E0A9018D
:101D6000C701B6010E94411287FD30C020E030E07B
:101D700048EC52E4C701B6010E94600F181634F116
:101D800025EE32EF4FE75FE36091670170916801E4
:101D90008091690190916A010E94C60F4B015C011C
:101DA00027E137EB41E559E3C701B6010E94C60FB1
:101DB0009B01AC01C501B4010E94631160936701EE
:101DC000709368018093690190936A010115110570
:101DD00009F47BCE0E942503882309F476CE0E9465
:101DE000000073CE60911502709116027627672766
:101DF000762790E080E00E94650F2DEC3CEC4CECE7
:101E00005DE30E94C60F9FCF8F929F92AF92BF92C9
:101E1000CF92DF92EF92FF92CF93DF93EC01688134
:101E200079818A819B81611571058105910521F474
:101E300064E279ED8BE597E02DE133EF41E050E08E
:101E40000E949A1049015A019B01AC01A7EAB1E432
:101E50000E94B9106B017C01ACEEB4EFA5019401B6
:101E60000E94C710DC01CB018C0D9D1DAE1DBF1D56
:101E7000B7FF03C00197A109B04888839983AA835B
:101E8000BB839F77DF91CF91FF90EF90DF90CF9052
:101E9000BF90AF909F908F9008950E94040F089577
:101EA00080E091E00E94040F0895B0E0A0E08093EC
:101EB000000190930101A0930201B09303010895E2
:101EC0000E94A20F08F481E00895E89409C097FBEE
:101ED0003EF490958095709561957F4F8F4F9F4F01
:101EE0009923A9F0F92F96E9BB279395F695879545
:101EF00077956795B795F111F8CFFAF4BB0F11F408
:101F000060FF1BC06F5F7F4F8F4F9F4F16C08823AE
:101F100011F096E911C0772321F09EE8872F762FE4
:101F200005C0662371F096E8862F70E060E02AF025
:101F30009A95660F771F881FDAF7880F9695879511
:101F400097F90895990F0008550FAA0BE0E8FEEFE6
:101F500016161706E807F907C0F012161306E4076D
:101F6000F50798F0621B730B840B950B39F40A2666
:101F700061F0232B242B252B21F408950A2609F444
:101F8000A140A6958FEF811D811D08950E94D90F54
:101F90000C944A100E943C1038F00E94431020F02C
:101FA000952311F00C9433100C94391011240C94D7
:101FB0007E100E945B1070F3959FC1F3950F50E067
:101FC000551F629FF001729FBB27F00DB11D639FEB
:101FD000AA27F00DB11DAA1F649F6627B00DA11D91
:101FE000661F829F2227B00DA11D621F739FB00D37
:101FF000A11D621F839FA00D611D221F749F3327A7
:10200000A00D611D231F849F600D211D822F762F3F
:102010006A2F11249F5750409AF0F1F088234AF01C
:10202000EE0FFF1FBB1F661F771F881F9150504088
:10203000A9F79E3F510580F00C9433100C947E104C
:102040005F3FE4F3983ED4F3869577956795B7950F
:10205000F795E7959F5FC1F7FE2B880F911D969529
:10206000879597F9089597F99F6780E870E060E099
:1020700008959FEF80EC089500240A941616170621
:1020800018060906089500240A9412161306140669
:1020900005060895092E0394000C11F4882352F0CC
:1020A000BB0F40F4BF2B11F460FF04C06F5F7F4F84
:1020B0008F4F9F4F089557FD9058440F551F59F06B
:1020C0005F3F71F04795880F97FB991F61F09F3F25
:1020D00079F087950895121613061406551FF2CF4E
:1020E0004695F1DF08C0161617061806991FF1CF9E
:1020F00086957105610508940895E894BB276627C5
:102100007727CB0197F90895F999FECF92BD81BD4C
:10211000F89A992780B50895262FF999FECF1FBA0E
:1021200092BD81BD20BD0FB6F894FA9AF99A0FBE00
:1021300001960895052E97FB1EF400940E94B1109D
:1021400057FD07D00E94031107FC03D04EF40C94F6
:10215000B11050954095309521953F4F4F4F5F4FAF
:10216000089590958095709561957F4F8F4F9F4F03
:1021700008950E942511A59F900DB49F900DA49FD6
:10218000800D911D11240895B7FF0C94B9100E9481
:10219000B910821B930B08952F923F924F925F923A
:1021A0006F927F928F929F92AF92BF92CF92DF9267
:1021B000EF92FF920F931F93CF93DF93CDB7DEB7CC
:1021C000CA1BDB0B0FB6F894DEBF0FBECDBF099460
:1021D0002A88398848885F846E847D848C849B84B7
:1021E000AA84B984C884DF80EE80FD800C811B81C5
:1021F000AA81B981CE0FD11D0FB6F894DEBF0FBEF4
:10220000CDBFED010895A1E21A2EAA1BBB1BFD0153
:102210000DC0AA1FBB1FEE1FFF1FA217B307E407C5
:10222000F50720F0A21BB30BE40BF50B661F771F1D
:10223000881F991F1A9469F76095709580959095FD
:102240009B01AC01BD01CF010895A29FB001B39FD6
:10225000C001A39F700D811D1124911DB29F700DAF
:10226000811D1124911D089597FB072E16F40094EB
:1022700007D077FD09D00E94481107FC05D03EF435
:10228000909581959F4F0895709561957F4F089522
:10229000AA1BBB1B51E107C0AA1FBB1FA617B7078C
:1022A00010F0A61BB70B881F991F5A95A9F78095A8
:1022B0009095BC01CD010895EE0FFF1F0590F4919C
:1022C000E02D09945058BB27AA270E947A110C943C
:1022D0004A100E943C1038F00E94431020F039F45C
:1022E0009F3F19F426F40C9439100EF4E095E7FBA7
:1022F0000C943310E92F0E945B1058F3BA17620751
:1023000073078407950720F079F4A6F50C947D10E7
:102310000EF4E0950B2EBA2FA02D0B01B901900100
:102320000C01CA01A0011124FF27591B99F0593F44
:1023300050F4503E68F11A16F040A22F232F342F8C
:102340004427585FF3CF469537952795A795F040DA
:102350005395C9F77EF41F16BA0B620B730B840BEF
:10236000BAF09150A1F0FF0FBB1F661F771F881FA7
:10237000C2F70EC0BA0F621F731F841F48F48795FF
:1023800077956795B795F7959E3F08F0B0CF9395F1
:10239000880F08F09927EE0F9795879508950E946A
:1023A000E3110C944A100E94431058F00E943C1014
:1023B00040F029F45F3F29F00C94331051110C9434
:1023C0007E100C9439100E945B1068F39923B1F3CE
:1023D000552391F3951B550BBB27AA27621773074B
:1023E000840738F09F5F5F4F220F331F441FAA1FDF
:1023F000A9F335D00E2E3AF0E0E832D0915050409B
:10240000E695001CCAF72BD0FE2F29D0660F771F48
:10241000881FBB1F261737074807AB07B0E809F02E
:10242000BB0B802DBF01FF2793585F4F3AF09E3FB3
:10243000510578F00C9433100C947E105F3FE4F358
:10244000983ED4F3869577956795B795F7959F5FF6
:10245000C9F7880F911D9695879597F90895E1E042
:10246000660F771F881FBB1F621773078407BA07A1
:1024700020F0621B730B840BBA0BEE1F88F7E095FC
:1024800008950E94A20F08F48FEF08950E94A20FF2
:10249000880B990B08950F931F93CF93DF9382308E
:1024A000910510F482E090E0E0911803F091190397
:1024B00030E020E0B0E0A0E0309799F4211531053C
:1024C00009F44AC0281B390B24303105D8F58A811C
:1024D0009B816115710589F1FB0193838283FE0164
:1024E00011C0408151810281138148175907E0F0E2
:1024F0004817590799F4109761F012960C931297A8
:1025000013961C933296CF01DF91CF911F910F91BB
:1025100008950093180310931903F4CF2115310582
:1025200051F04217530738F0A901DB019A01BD01B0
:10253000DF01F801C1CFEF01F9CF90931903809328
:102540001803CDCFFE01E20FF31F81939193225028
:10255000310939832883D7CF20911603309117038F
:10256000232B41F42091060130910701309317038A
:1025700020931603209104013091050121153105A6
:1025800041F42DB73EB74091080150910901241B39
:10259000350BE0911603F0911703E217F307A0F44F
:1025A0002E1B3F0B2817390778F0AC014E5F5F4FA9
:1025B0002417350748F04E0F5F1F509317034093C1
:1025C0001603819391939FCFF0E0E0E09CCFCF93EF
:1025D000DF930097E9F0FC01329713821282A091F9
:1025E0001803B0911903ED0130E020E01097A1F439
:1025F00020813181820F931F2091160330911703A0
:102600002817390709F061C0F0931703E093160308
:10261000DF91CF910895EA01CE17DF07E8F54A81EF
:102620005B819E0141155105B1F7E901FB83EA8306
:1026300049915991C40FD51FEC17FD0761F48081B2
:1026400091810296840F951FE90199838883828185
:1026500093819B838A83F0E0E0E012968D919C91B8
:1026600013970097B9F52D913C911197CD010296E2
:10267000820F931F209116033091170328173907F3
:1026800039F6309751F51092190310921803B09350
:102690001703A0931603BCCFD383C283408151811B
:1026A000840F951FC817D90761F44E5F5F4F88816B
:1026B0009981480F591F518340838A819B8193835D
:1026C00082832115310509F0B0CFF0931903E0930F
:1026D00018039ECFFD01DC01C0CF13821282D7CF39
:1026E000B0E0A0E0E6E7F3E10C94CE108C01009797
:1026F00051F4CB010E944B128C01C801CDB7DEB75B
:10270000E0E10C94EA10FC01E60FF71F9C01225057
:102710003109E217F30708F49DC0D901CD91DC918E
:102720001197C617D70798F0C530D10530F3CE0101
:1027300004978617970708F3C61BD70B2297C193F8
:10274000D1936D937C93CF010E94E712D6CF5B01AA
:10275000AC1ABD0A4C018C0E9D1EA0911803B091BD
:102760001903512C412CF12CE12C109731F580915B
:102770001603909117038815990509F05CC0461659
:10278000570608F058C08091040190910501009708
:1027900041F48DB79EB74091080150910901841B07
:1027A000950BE817F90708F055C0F0931703E0936D
:1027B0001603F90171836083A0CF8D919C911197CD
:1027C00012966C90129713967C901397A815B905E2
:1027D00059F56C0142E0C40ED11CCA14DB0420F18F
:1027E000AC014A195B09DA011296159780F06282F2
:1027F000738251834083D9016D937C93E114F1047A
:1028000071F0D7011396FC93EE93129776CF229630
:102810008C0F9D1FF90191838083F301EFCFF0931B
:102820001903E093180369CF4816590608F42C01E0
:102830007D01D3019ACFCB010E944B127C010097FE
:1028400049F0AE01B8010E942D14C8010E94E712A0
:10285000870153CF10E000E050CFFB01DC0102C044
:1028600001900D9241505040D8F70895FB01DC01D2
:1028700001900D920020E1F7089510E0C2E6D0E04B
:1028800004C0FE010E945C112196C336D107C9F72E
:04289000F894FFCFEA
:102894000100000000001A03800000000000310560
:1028A4003707DD0593061005570457045604F6044C
:1028B4005804F504F204DC04D2049504000000007A
:1028C4005B03BB02E802A8031903F7020B03000031
:1028D400000031053707DD0593061005570457043A
:1028E400560450045804B10256045004D20495040A
:0228F4000000E2
:00000001FF
