:100000000C9455010C947D010C947D010C947D01A0
:100010000C947D010C947D010C947D010C947D0168
:100020000C947D010C947D010C947D010C947D0158
:100030000C947D010C947D010C947D010C947D0148
:100040000C943E050C947D010C94C7040C94A104FF
:100050000C947D010C947D010C947D010C947D0128
:100060000C947D010C947D0100407A10F35A00A09D
:10007000724E18090010A5D4E80000E87648170071
:1000800000E40B54020000CA9A3B000000E1F505B1
:10009000000080969800000040420F000000A086FB
:1000A00001000000102700000000E803000000002D
:1000B0006400000000000A000000000001000000D1
:1000C00000002C76D888DC674F0823DFC1DFAE59EB
:1000D000E1B1B796E5E3E453C63AE651997696E87E
:1000E000E6C28426EB898C9B62ED407C6FFCEFBC02
:1000F0009C9F40F2BAA56FA5F490055A2AF75C932D
:100100006B6CF9676DC11BFCE0E40D47FEF520E662
:10011000B500D0ED902E0300943577050080841E45
:10012000080000204E0A000000C80C333333330FA0
:10013000986E12831141EF8D2114893BE65516CF3D
:10014000FEE6DB18D1844B381BF77C1D901DA4BB49
:10015000E424203284725E228100C9F124ECA1E5FE
:100160003D270000000023002600290000000008B1
:10017000000201000003040700000000000000006E
:10018000202020454854204F75747075742020201D
:1001900000506879734869766F6C7400322E3100B4
:1001A000506879734869766F6C7400322E30002085
:1001B0000020002C2000206D4100206B56002020E4
:1001C00020454854204F75747075742020200020FD
:1001D000002000206B5600202020454854204F75F9
:1001E0007470757420202000C00F0000E03F0000F4
:1001F0007070000018E000008CCF0100C49801006E
:1002000066300300222003003200030022000300B6
:10021000660001008481010024800300C8000400FE
:1002200018FF010060FC0F00800310002000200078
:1002300020200020200020202020202020202020FE
:1002400020200020202020202020202020202000EE
:100250002020536369656E746966696300202051CC
:100260006F7361696E2020202000000000002500CF
:1002700028002B0000000000240027002A000404AE
:10028000040404040404020202020202030303033E
:10029000030301020408102040800102040810201A
:1002A000010204081020030EFB0D11241FBECFEF26
:1002B000D8E0DEBFCDBF21E0A6E2B1E001C01D92D3
:1002C000AD3FB207E1F711E0A0E0B1E0EAE9FAE200
:1002D00002C005900D92A632B107D9F711E0C4E52E
:1002E000D1E004C02197FE010E943513C335D10728
:1002F000C9F70E94E60A0C9440150C940000CF92B6
:10030000DF92EF92FF920F931F93CF93DF936C01D5
:100310007A018B01C0E0D0E0CE15DF0581F0D80175
:100320006D918D01D601ED91FC910190F081E02D50
:10033000C6010995892B11F02196EECF7E01C701E8
:10034000DF91CF911F910F91FF90EF90DF90CF90B1
:100350000895FC01538D448D252F30E0842F90E0CB
:10036000821B930B541710F0CF96089501970895B0
:10037000FC01918D828D981761F0828DDF01A80FAD
:10038000B11D5D968C91928D9F5F9F73928F90E0CF
:1003900008958FEF9FEF0895FC01918D828D98173E
:1003A00031F0828DE80FF11D858D90E008958FEF7B
:1003B0009FEF0895FC01918D228D892F90E0805C44
:1003C0009F4F821B91098F739927089588E391E0CD
:1003D0000E94DA0121E0892B09F420E0822F0895A0
:1003E000FC01848DDF01A80FB11DA35ABF4F2C91D2
:1003F000848D90E001968F739927848FA689B789A1
:100400002C93A089B1898C91837080648C93938D97
:10041000848D981306C00288F389E02D80818F7D3A
:1004200080830895EF92FF920F931F93CF93DF93F2
:10043000EC0181E0888F9B8D8C8D981305C0E88935
:10044000F989808185FD26C0F62E0B8D10E00F5FA7
:100450001F4F0F731127E02E8C8DE8120CC00FB6C2
:1004600007FCFACFE889F989808185FFF5CFCE01B5
:100470000E94F001F1CF8B8DFE01E80FF11DE35AD0
:10048000FF4FF0829FB7F8940B8FEA89FB89808138
:1004900080620AC09FB7F894EE89FF896083E8897B
:1004A000F98980818370806480839FBF81E090E0C0
:1004B000DF91CF911F910F91FF90EF900895CF930F
:1004C000DF93EC01888D8823C9F0EA89FB8980815C
:1004D00085FD05C0A889B9898C9186FD0FC00FB62E
:1004E00007FCF5CF808185FFF2CFA889B9898C916F
:1004F00085FFEDCFCE010E94F001E7CFDF91CF91D4
:10050000089580E090E0892B29F00E94E601811196
:100510000C9400000895833081F028F4813099F024
:100520008230A1F008958730A9F08830B9F0843086
:10053000D1F4809180008F7D03C0809180008F77FF
:1005400080938000089584B58F7702C084B58F7D35
:1005500084BD08958091B0008F7703C08091B00072
:100560008F7D8093B00008958E3008F08E50877094
:10057000806480937C0080917A00806480937A000C
:1005800080917A0086FDFCCF8091780020917900DF
:1005900090E0922B08953FB7F89480912B019091B1
:1005A0002C01A0912D01B0912E0126B5A89B05C06C
:1005B0002F3F19F00196A11DB11D3FBFBA2FA92FE2
:1005C000982F8827820F911DA11DB11DBC01CD015F
:1005D00042E0660F771F881F991F4A95D1F708954B
:1005E0008F929F92AF92BF92CF92DF92EF92FF9243
:1005F0006B017C010E94CB024B015C01C114D10450
:10060000E104F104F1F00E94CB02DC01CB01881976
:100610009909AA09BB09883E9340A105B10570F369
:1006200021E0C21AD108E108F10888EE880E83E0C3
:10063000981EA11CB11CC114D104E104F10419F7E6
:10064000DDCFFF90EF90DF90CF90BF90AF909F9065
:100650008F900895089580E090E008950E942215FB
:10066000FC0124813581FB01448155812417350724
:1006700021F5FC0180819181FB01608171810097EE
:1006800019F061157105A1F46115710549F0232B6D
:10069000B1F0FB01808190E09195819591090AC0AC
:1006A000009769F0232B59F0FC01808190E002C093
:1006B0000E94301521E0892B19F020E001C021E0D3
:1006C000822F0895FC01808191810C94D3130F93A4
:1006D0001F93CF93DF93EC0188819981009729F0D4
:1006E0002A813B812617370788F48B016F5F7F4F84
:1006F0000E945C14009761F0998388831B830A83AE
:100700002C813D81232B11F4FC01108281E001C07A
:1007100080E0DF91CF911F910F910895EF92FF92AA
:100720000F931F93CF93DF936115710511F480E050
:100730001CC041155105C1F07B01EC018C819D81EC
:100740008A01080F191FB801CE010E946703882390
:1007500071F3288139818C819D81B701820F931FAC
:100760000E9439151D830C8381E0DF91CF911F9189
:100770000F91FF90EF900895CF93DF93EC01888164
:100780009981009711F00E94D313198218821D825B
:100790001C821B821A82DF91CF910895CF93DF9341
:1007A000EC01FB0144815581608171810E948E03BF
:1007B000811103C0CE010E94BC03CE01DF91CF9115
:1007C0000895EF92FF920F931F93CF93DF93EC0165
:1007D0007B018A01BA010E946703811104C0CE0126
:1007E0000E94BC0307C01D830C83B70188819981D7
:1007F0000E943915CE01DF91CF911F910F91FF908B
:10080000EF900895CF93DF93EC016115710559F0D6
:10081000FB0101900020E9F73197AF01461B570B10
:100820000E94E10302C00E94BC03CE01DF91CF9180
:100830000895EF92FF920F931F93CF93DF93CDB75D
:10084000DEB7A1970FB6F894DEBF0FBECDBF7C0117
:10085000CB01BA01F7011182108213821282158234
:1008600014828E010F5F1F4F21E043E00E94590E5A
:10087000BC01C7010E940204A1960FB6F894DEBF26
:100880000FBECDBFDF91CF911F910F91FF90EF90E1
:100890000895CF93DF93EC01FB018617970761F072
:1008A000608171816115710529F0448155810E9433
:1008B000E10302C00E94BC03CE01DF91CF910895F5
:1008C000FC011182108213821282158214820C9410
:1008D0004904EF92FF920F931F93CF93DF93EC01A4
:1008E000198218821B821A821D821C826115710571
:1008F00009F18B01CB010E94800E7C01BC01CE016D
:100900000E946703811109C0CE01DF91CF911F9131
:100910000F91FF90EF900C94BC03FD82EC82B80124
:1009200088819981DF91CF911F910F91FF90EF9076
:100930000C94790EDF91CF911F910F91FF90EF9062
:1009400008951F920F920FB60F9211242F933F9389
:100950004F935F936F937F938F939F93AF93BF93C7
:10096000EF93FF9388E391E00E94F001FF91EF91F4
:10097000BF91AF919F918F917F916F915F914F91B7
:100980003F912F910F900FBE0F901F9018951F92BF
:100990000F920FB60F9211242F938F939F93EF9383
:1009A000FF93E0914801F09149018081E0914E016F
:1009B000F0914F0182FD12C09081809151018F5FB3
:1009C0008F7320915201821751F0E0915101F0E0B4
:1009D000E85CFE4F958F8093510101C08081FF91AB
:1009E000EF919F918F912F910F900FBE0F901F90BD
:1009F00018951F93CF93DF93282F30E0F901E45926
:100A0000FE4F8491F901EE56FD4FD491F901E25861
:100A1000FD4FC491CC23C1F0162F81110E948B028F
:100A2000EC2FF0E0EE0FFF1FE659FD4FA591B491BA
:100A30009FB7F894111104C08C91D095D82302C0AF
:100A4000EC91DE2BDC939FBFDF91CF911F91089536
:100A5000CF93DF93EC0160E08E810E94F90461E0A6
:100A60008E810E94F90460E08E810E94F9048BE877
:100A700091E00197F1F7DF91CF9108951F920F92C6
:100A80000FB60F9211242F933F938F939F93AF93A1
:100A9000BF938091270190912801A0912901B091E5
:100AA0002A013091260123E0230F2D3720F40196EF
:100AB000A11DB11D05C026E8230F0296A11DB11D81
:100AC000209326018093270190932801A093290168
:100AD000B0932A0180912B0190912C01A0912D01BE
:100AE000B0912E010196A11DB11D80932B01909311
:100AF0002C01A0932D01B0932E01BF91AF919F9136
:100B00008F913F912F910F900FBE0F901F901895CE
:100B1000CF92DF92EF92FF920F931F93CF93DF93C9
:100B20006C017C0187E0E80EF11CC0E0D0E0062FEC
:100B300010E0B8010C2E02C0759567950A94E2F793
:100B40006170F70181917F010E94F9042196C43000
:100B5000D10579F7C601DF91CF911F910F91FF90D9
:100B6000EF90DF90CF900C942805CF92DF92EF9218
:100B7000FF920F931F93CF93DF93EC01F62E642F18
:100B80008C810E94F9048D818F3F19F060E00E94F2
:100B9000F9048F850F2D10E084FF25C06E0187E0DA
:100BA000C80ED11CE12CF12CB8010E2C02C0759599
:100BB00067950A94E2F76170F60181916F010E94D6
:100BC000F904FFEFEF1AFF0A88E0E816F10461F775
:100BD000CE01DF91CF911F910F91FF90EF90DF90A9
:100BE000CF900C942805B80184E0759567958A9597
:100BF000E1F7CE010E9488056F2DCE01DF91CF91E4
:100C00001F910F91FF90EF90DF90CF900C9488058B
:100C100041E00E94B50581E090E008952F923F9257
:100C20004F925F926F927F928F929F92AF92BF92FC
:100C3000CF92DF92EF92FF920F931F93CF93DF93A8
:100C4000CDB7DEB7C758D1090FB6F894DEBF0FBED7
:100C5000CDBFEF969FAF8EAFEF97C158DF4F79832F
:100C60006883CF57D04081E00E948F098BE39FE1DA
:100C70000197F1F77E0121E7E20EF11C6DE572E0CC
:100C8000C7010E94690460E572E0CE0185599F4F5B
:100C90000E94690463E472E0CE018B599F4F0E9469
:100CA000690466E372E0CE01815A9F4F0E94690495
:100CB000212C312C40EFEC964FAFEC978E010B5B63
:100CC0001F4FBE016F5D7F4FE9967FAF6EAFE99713
:100CD000C8010896CE57DF4F99838883C258D04009
:100CE000EC968FADEC97D12C87FF03C0DA948A5F26
:100CF000FBCF28EE31E0DE01119646E150E0481BC3
:100D0000510987FD5395EB965FAF4EAFEB97F90115
:100D1000459055906590749080E090E0812C912CE6
:100D20005401EB96EEADFFADEB97E81BF90BB30169
:100D3000A20104C07695679557954795EA95D2F735
:100D4000CC57DF4F488359836A837B83C458D04094
:100D500040FF05C05FEF851A950AA50AB50A880C01
:100D6000991CAA1CBB1C019687319105D1F68D9266
:100D70009D92AD92BD922C5F3F4FA017B10739F6FF
:100D8000EA961FAEEA97412C512C3201ED964FAEF8
:100D9000ED97EA96CFACEA97A12CB12C6D2D6C198A
:100DA000CF57DF4F6883C158D0404E0175E4870E9E
:100DB000911CFE013196D401411451046104710467
:100DC00029F4408151816281738104C044A155A1FD
:100DD00066A177A10A2C04C076956795579547952B
:100DE0000A94D2F74295842F8C7C8695869543731E
:100DF00094E0499FA0011124482B842F8A7A86957C
:100E00004575440F482B50E093E0559547959A95CA
:100E1000E1F74D933496E9964EAD5FADE997E4174F
:100E2000F50751F658E0C59EC001112480640E9468
:100E30008F09F40161914F0181EE91E00E94080653
:100E4000CE57DF4F48815981C258D040841695064D
:100E500081F7ED966FADED97CF57DF4F8881C15881
:100E6000D0408C0D0E949B0A6C2D81EE91E00E9477
:100E70000806C39456E0A50EB11C68E1A616B1049D
:100E800009F093CF7FEF471A570A670A770AEA9665
:100E90008FADEA978C5FEA968FAFEA97883009F0BA
:100EA00075CFC10165E070E00E94CC126B019B011F
:100EB00040E050E0B701CE0101960E94560AAB9681
:100EC0002EAD3FADAB97A601BE016B597F4FCE0152
:100ED000835B9F4F0E94560ABE01635B7F4FC80130
:100EE0000E946004BE016F5F7F4FC8010E94CE0365
:100EF000BC01CE01875A9F4F0E946004C8010E9426
:100F00006203CE01835B9F4F0E946203CE01019674
:100F10000E94620360E084E00E949B0ABE01675A5F
:100F20007F4F81EE91E00E94AD0A960140E050E0D3
:100F3000BE0165597F4FCE0101960E94560AA596C3
:100F40002EAD3FADA597A601BE01615A7F4FCE01E0
:100F5000835B9F4F0E94560ABE01635B7F4FC801AF
:100F60000E946004BE016F5F7F4FC8010E94CE03E4
:100F7000BC01CE018D5A9F4F0E946004C8010E949F
:100F80006203CE01835B9F4F0E946203CE010196F4
:100F90000E94620361E084E00E949B0ABE016D5AD8
:100FA0007F4F81EE91E00E94AD0A6BE470E080E03B
:100FB00090E00E94F002CE018D5A9F4F0E94620382
:100FC000CE01875A9F4F0E946203EC969FADEC972B
:100FD0009F5FEC969FAFEC97E4E02E0E311CF4E49B
:100FE0002F16310409F07CCEB701CE018B599F4FEB
:100FF0000E944904BE0165597F4FCE01815A9F4F1F
:101000000E94490463E372E0C8010E946904B801C8
:10101000CE0101960E946004EF966EAD7FADEF9712
:10102000CE0101960E94CE03BC01C7010E94490473
:10103000CE0101960E946203C8010E94620360E330
:1010400072E0C8010E946904B801CE0101960E94B5
:101050006004C158DF4F68817981CF57D040CE01FD
:1010600001960E94CE03BC01CE0185599F4F0E947C
:101070004904CE0101960E946203C8010E946203E6
:10108000F701848195810C97A0F4B701CE010196F8
:101090000E9460046EE272E0CE0101960E94B40AE2
:1010A000BC01C7010E944904CE0101960E9462035F
:1010B000E7CFE1968EAD9FADE1970C97C0F4BE01EE
:1010C00065597F4FCE0101960E9460046CE272E088
:1010D000CE0101960E94B40ABC01CE0185599F4FF2
:1010E0000E944904CE0101960E946203E2CF62EEA3
:1010F00074E080E090E00E94F002C12CD12C7601D7
:1011000085E0482E512C612C712CC701B601A3013A
:1011100092010E94E01249015A0140E050E0BE01F4
:101120006F587F4FCE0101960E94560AAB962EADA6
:101130003FADAB97A401BE016B597F4FCE01835BDE
:101140009F4F0E94560ABE01635B7F4FCE018B5BAF
:101150009F4F0E946004BE016F5F7F4FCE018B5B8B
:101160009F4F0E94CE03BC01CE01875A9F4F0E9421
:101170006004CE018B5B9F4F0E946203CE01835BB4
:101180009F4F0E946203CE0101960E94620360E0BD
:1011900084E00E949B0ABE01675A7F4F81EE91E076
:1011A0000E94AD0A940140E050E0BE0165597F4FB6
:1011B000CE0101960E94560AA5962EAD3FADA59789
:1011C000A401BE01615A7F4FCE01835B9F4F0E94F5
:1011D000560ABE01635B7F4FCE018B5B9F4F0E941F
:1011E0006004BE016F5F7F4FCE018B5B9F4F0E94FB
:1011F000CE03BC01CE018D5A9F4F0E946004CE01E8
:101200008B5B9F4F0E946203CE01835B9F4F0E94C6
:101210006203CE0101960E94620361E084E00E94B5
:101220009B0ABE016D5A7F4F81EE91E00E94AD0A8C
:101230006BE470E080E090E00E94F002CE018D5AF5
:101240009F4F0E946203CE01875A9F4F0E94620304
:10125000F4E0CF0ED11CE11CF11C24E4C216D10431
:10126000E104F10409F051CF62EE74E080E090E017
:101270000E94F002CE01815A9F4F0E946203CE016C
:101280008B599F4F0E946203CE0185599F4F0E9448
:101290006203CE018F589F4F0E946203C957DF4FF0
:1012A0000FB6F894DEBF0FBECDBFDF91CF911F9177
:1012B0000F91FF90EF90DF90CF90BF90AF909F90F5
:1012C0008F907F906F905F904F903F902F900895F8
:1012D0000F931F93CF93DF938C01C0E0D0E0F80110
:1012E000EC0FFD1F6491662339F041E081EE91E03F
:1012F0000E94B5052196F3CFCE01DF91CF911F91CA
:101300000F910895FC0111821082138212821582BE
:10131000148240E050E064E271E00C94E10340E0AC
:10132000682F81EE91E00C94B50590E0FC01EE563B
:10133000FD4F2491FC01E258FD4F8491882399F0E0
:1013400090E0880F991FFC01EC58FD4FA591B491D6
:10135000FC01E659FD4F859194918FB7F894EC917B
:10136000E22BEC938FBF0895CF93DF93823028F068
:101370009091F00198609093F0018093F4011092A5
:10138000F50180E48093F60180E18093F70180E528
:101390008093F8018091E5010E9495098091E60112
:1013A0008F3F11F00E9495098091E7010E949509F5
:1013B000C1EED1E09E01215E31408091F00184FDBB
:1013C00003C084E090E002C088E090E021962817F6
:1013D000390724F48E810E949509ECCF8BE39DE0C0
:1013E0000197F1F760E08091E5010E94F90460E067
:1013F0008091E7010E94F9048091E6018F3F19F086
:1014000060E00E94F9048091F00184FD20C063E057
:1014100081EE91E00E948805CBE4D6E4CE010197ED
:10142000F1F763E081EE91E00E9488052197F1F7E2
:1014300063E081EE91E00E94880583E592E00197E8
:10144000F1F762E081EE91E00E94880515C08062AC
:101450000E948F098BE496E40197F1F78091F001E7
:1014600080620E948F0983E592E00197F1F78091F5
:10147000F00180620E948F098091F00180620E94D9
:101480008F0984E08093F1018CE00E948F0981E054
:101490000E948F098BE39FE10197F1F782E080932F
:1014A000F20186E0DF91CF910C948F09AF92BF9249
:1014B000CF92DF92EF92FF920F931F93CF93DF9320
:1014C0006C015B018A0179012417350720F4812F13
:1014D0008901E42EF82EC6010E948209D5011496D6
:1014E000CD91DC9115970C171D07C8F4EC16FD067D
:1014F00008F4E701D501ED91FC911197EC0FFD1F68
:10150000F08010826D917C91600F711FC6010E9466
:101510000204F50180819181C80FD91FF882C601AC
:10152000DF91CF911F910F91FF90EF90DF90CF90BF
:10153000BF90AF900895643008F063E09091F4019B
:10154000691710F06FEF690FE62FF0E0EF51FE4FD3
:101550009489890F80680C948F09FB01448155811F
:10156000608171810C947F01EF92FF920F931F9322
:10157000CF93DF93EC017B0161157105E1F0CB01A5
:101580000E94800E0097D1F02C813D818C01020FCA
:10159000131FB801CE010E946703882361F02881E0
:1015A00039818C819D81B701820F931F0E94790E32
:1015B0001D830C8303C0CE010E94BC03CE01DF91CA
:1015C000CF911F910F91FF90EF900895CF93DF93EC
:1015D000CDB7DEB768970FB6F894DEBF0FBECDBFAC
:1015E000789484B5826084BD84B5816084BD85B5FE
:1015F000826085BD85B5816085BD80916E0081600A
:1016000080936E00109281008091810082608093AF
:1016100081008091810081608093810080918000B1
:101620008160809380008091B10084608093B100DC
:101630008091B00081608093B00080917A008460D6
:1016400080937A0080917A00826080937A00809102
:101650007A00816080937A0080917A00806880931C
:101660007A001092C100E0914801F091490182E0B6
:101670008083E0914401F09145011082E0914601A0
:10168000F091470180E1808310925001E0914C017C
:10169000F0914D0186E08083E0914A01F0914B0189
:1016A000808180618083E0914A01F0914B018081CB
:1016B00088608083E0914A01F0914B0180818068CD
:1016C0008083E0914A01F0914B0180818F7D80837E
:1016D00082E00E94950961E082E00E94F90484E0C2
:1016E0000E94950960E084E00E94F9046AE070E0DD
:1016F00080E090E00E94F002EFE6F1E08491E5E9FD
:10170000F2E00491E1E8F2E01491112381F08111FB
:101710000E948B02E12FF0E0EE0FFF1FEE59FE4F0B
:10172000A591B491EC91E02311F082E001C081E039
:101730008093370182E00E94B409809137018130A3
:1017400049F46BEA71E0CE0101960E94690460EAF7
:1017500071E00AC08230D9F46CE971E0CE010196E3
:101760000E94690461E971E0CE0107960E94690454
:10177000BE016F5F7F4FCE0107960E940E06CE011D
:1017800007960E946203CE0101960E94620360E008
:1017900080E00E949B0A80E891E00E94680900E1D5
:1017A00010E080913701FCEDAF2EF5E0BF2EC12C8B
:1017B000D12C7601813009F0BDC08EE00E94B402C8
:1017C000BC01990F880B990B0E94BD109B01AC01C5
:1017D000C701B6010E94EE116B017C0121E0A21A43
:1017E000B10859F720E030E84BEB54E40E945A125C
:1017F00020E030EC4FE754E40E945A1220E030E041
:1018000040EA50E40E94F81020E030E040E251E469
:101810000E94F8102DEC3CEC4CE45FE30E94F810C1
:101820006B017C012CEC3CEC4CE45EE360913301F9
:101830007091340180913501909136010E94F81029
:101840009B01AC01C701B6010E94EE11AB01BC01C6
:101850004093330150933401609335017093360106
:10186000CE0107960E9419046BED71E0CE01079638
:101870000E94300381115BC082E00E94B40960E0E5
:1018800080E00E949B0A87ED91E00E94680961E078
:1018900080E00E949B0ABE01695F7F4F8BED91E063
:1018A0000E94490463ED71E0CE0101960E94690433
:1018B0004D815E8169817A81CE0107960E948E03F7
:1018C000CE0101960E946203E12CF12C8B859C8550
:1018D0009801281B390BC90196958795E816F906DA
:1018E00040F481ED91E00E9468093FEFE31AF30AAA
:1018F000EDCFBE01695F7F4F81EE91E00E94AD0A9E
:10190000E12CF12C8B859C859801281B390BC90192
:1019100036952795821B930BE816F90640F48FEC59
:1019200091E00E9468093FEFE31AF30AEBCFCE0182
:101930000796CCC08EE00E94B402BC01990F880BC0
:10194000990B0E94BD109B01AC01C701B6010E941A
:10195000EE116B017C0181E0A81AB10859F720E073
:1019600030E84BEB54E4C701B6010E945A1220E064
:1019700030EC4FE754E40E945A1220E030E040EA95
:1019800050E40E94F81020E030E040E251E40E9470
:10199000F8102DEC3CEC4CE45FE30E94F8106B0176
:1019A0007C012CEC3CEC4CE45EE3609133017091E3
:1019B000340180913501909136010E94F8109B010D
:1019C000AC01C701B6010E94EE11AB01BC0140930E
:1019D0003301509334016093350170933601CE0189
:1019E00043960E9419046CEDA62E65E0B62EC12C1C
:1019F000D12C760185E10E94B402BC01990F880BBD
:101A0000990B0E94BD109B01AC01C701B6010E9459
:101A1000EE116B017C0121E0A21AB10859F720E018
:101A200030E84BEB54E40E945A1220E030EC4FE7D0
:101A300054E40E945A1220E030E040EA50E40E9450
:101A4000F8102DEC3CEC4CE45FE30E94F8106B01C5
:101A50007C012CEC3CEC4CE45EE360912F01709136
:101A6000300180913101909132010E94F8109B0168
:101A7000AC01C701B6010E94EE11AB01BC0140935D
:101A80002F01509330016093310170933201CE01E8
:101A90000D960E9419046BED71E0CE0143960E94F1
:101AA000300381110DC065ED71E0CE010D960E94ED
:101AB0003003882381F004C0CE0107960E946203A0
:101AC000CE010D960E946203CE0143960E946203EE
:101AD0000E94810266CE82E00E94B40960E080E04C
:101AE0000E949B0A8EEB91E00E94680961E080E011
:101AF0000E949B0ABE016D5E7F4F8BED91E00E94BC
:101B000049046AEB71E0CE0101960E9469044D819F
:101B10005E8169817A81CE0143960E948E03CE0157
:101B200001960E946203BE01635F7F4F85ED91E0E5
:101B30000E94490466EB71E0CE0101960E9469049F
:101B40004D815E8169817A81CE010D960E948E035E
:101B5000CE0101960E946203BE016D5E7F4FCE01F1
:101B600001960E94600463EB71E0CE0101960E9431
:101B7000B40ABE01635F7F4F0E94CE03BC01CE0159
:101B800007960E946004CE0101960E946203E12C38
:101B9000F12C8B859C859801281B390BC9019695E2
:101BA0008795E816F90640F481EB91E00E946809F8
:101BB0003FEFE31AF30AEDCFBE01695F7F4F81EE7D
:101BC00091E00E94AD0AE12CF12C8B859C85980157
:101BD000281B390BC90136952795821B930BE816F4
:101BE000F90608F069CF8FEA91E00E9468093FEF9B
:101BF000E31AF30AEACF85ED91E00E9462038BEDD0
:101C000091E00C946203E8E3F1E01382128288EE23
:101C100093E0A0E0B0E084839583A683B7838AE055
:101C200091E09183808385EC90E09587848784ECB4
:101C300090E09787868780EC90E0918B808B81EC99
:101C400090E0938B828B82EC90E0958B848B86EC7A
:101C500090E0978B868B118E128E138E148EE1EE90
:101C6000F1E0138212828CE191E09183808381E123
:101C700084838FEF858380E186839FE097839DE057
:101C800090879CE091879BE092879AE0938799E008
:101C9000948798E0958797E09687878781E00E94F0
:101CA000B4098BED91E00E94820985ED91E00C94DE
:101CB0008209EF920F931F93CF93DF93E80147FDC3
:101CC00002C034E001C034E1042E000C550B57FF74
:101CD00003C0519541955109E32E022F242FAE01E7
:101CE0000E94890ECE01DF91CF911F910F91EF904D
:101CF0000895FB01DC0105900D920020E1F70895A5
:101D0000FC0105900020E9F7809590958E0F9F1FAC
:101D10000895A9E0B0E0EFE8FEE00C94BC116A0180
:101D2000122FB02E2BE3201720F0FF24F394F00E97
:101D300002C02CE3F22E0F2D27E0AE014F5F5F4F64
:101D40000E94E30FBC014981842F8970813031F0FA
:101D5000E1FC06C0E0FE06C090E205C09DE203C0C3
:101D60009BE201C090E05E2D507143FF3CC0911199
:101D700002C083E001C084E0811718F4212F281BE2
:101D800001C020E051110BC0F601822F30E2882300
:101D900019F031938150FBCFC20ED11C20E0992362
:101DA00029F0D6019C93F60131966F01C601039686
:101DB000E2FE0AC03EE4D6013C9341E411964C9306
:101DC000119712963C9306C03EE6F601308341E639
:101DD00041833283FC01322F40E2332309F442C0B5
:101DE00041933150FACF42FF44C0911102C083E0C9
:101DF00001C084E0811718F4212F281B01C020E0C6
:101E000051110BC0F601822F30E2882319F0319373
:101E10008150FBCFC20ED11C20E0992329F0D601BE
:101E20009C93F60131966F01C6010396E2FE0BC04A
:101E300039E4D6013C933EE411963C93119736E485
:101E400012963C9307C039E6F60130833EE63183B3
:101E500036E63283FC01322F40E2332319F04193FE
:101E60003150FBCFFC01E20FF11D10828EEF9FEF8E
:101E7000A6C021E030E0911102C020E030E016164B
:101E800017061CF4FB01319602C0E1E0F0E02E0FD2
:101E90003F1FBB2021F0EB2DF0E0319602C0E0E0C7
:101EA000F0E02E0F3F1FE12FF0E02E173F071CF44C
:101EB000121B212F01C020E08E2D887159F4F601EC
:101EC000822F30E2882319F031938150FBCFC20E6C
:101ED000D11C20E0992329F0D6019C93F60131967C
:101EE0006F0151110BC0F601822F90E3882319F086
:101EF00091938150FBCFC20ED11C20E00F2D060F15
:101F00009A81342F307144FF03C0913309F401509A
:101F1000101624F4093018F008E001C001E0AB010C
:101F200077FF02C040E050E0FB01E41BF50BA1E0AD
:101F3000B0E0AC0FBD1FEA0FFB1F8EE2A82E4B01D5
:101F4000801A91080B2D10E01195019511094F3F52
:101F5000BFEF5B0721F4D601AC9211966D016417B7
:101F600075072CF08416950614F4818101C080E376
:101F7000415051093196D60111967D014017510704
:101F800024F0D6018C936701E2CF6417750739F40A
:101F9000963320F4953319F4311101C081E3F60131
:101FA0008083F701822F90E2882319F0919381506A
:101FB000FBCFF701E20FF11D108280E090E029963F
:101FC000ECE00C94D811283008F027E03327DA0130
:101FD000990F311D87FD916000966105710539F4F7
:101FE00032602E5F3D9330E32A95E1F708959F3FDD
:101FF00030F080387105610509F03C5F3C5F3D932E
:10200000913008F08068911DDF93CF931F930F9359
:10201000FF92EF92192F987F9695E92F96959695B6
:10202000E90FFF27EE53FF4F99273327EE24FF24B4
:10203000A701E70105900894079428F4360FE71EDE
:10204000F81E491F511D660F771F881F991F0694A0
:10205000A1F70590079428F4E70EF81E491F561FB4
:10206000C11D770F881F991F661F0694A1F7059061
:10207000079428F4F80E491F561FC71FD11D880F5B
:10208000991F661F771F0694A1F70590079420F407
:10209000490F561FC71FD81F990F661F771F881F2C
:1020A0000694A9F784911095177041F0D695C795BD
:1020B00057954795F794E7941A95C1F7E8E6F0E04D
:1020C00068941590159135916591959105907FE2F1
:1020D0007395E118F10A430B560BC90BD009C0F7F1
:1020E000E10CF11E431F561FC91FD01D7EF4703333
:1020F00011F48A95E6CFE894015030F0080F0AF405
:102100000027021708F4202F2395022F7A3328F096
:1021100079E37D932A95E9F710C07D932A9589F696
:10212000069497956795379517951794E118F10AD6
:10213000430B560BC90BD00998F023957E917395EC
:102140007A3308F070E37C932013B8F77E917061C6
:102150007D9330F0839571E37D9370E32A95E1F7E9
:102160001124EF90FF900F911F91CF91DF9199274C
:1021700087FD90950895E89409C097FB3EF49095EB
:102180008095709561957F4F8F4F9F4F9923A9F050
:10219000F92F96E9BB279395F695879577956795DF
:1021A000B795F111F8CFFAF4BB0F11F460FF1BC023
:1021B0006F5F7F4F8F4F9F4F16C0882311F096E9B6
:1021C00011C0772321F09EE8872F762F05C0662364
:1021D00071F096E8862F70E060E02AF09A95660F1D
:1021E000771F881FDAF7880F9695879597F90895D6
:1021F0000E940B110C947C110E946E1138F00E9409
:10220000751120F0952311F00C9465110C946B114D
:1022100011240C94B0110E948D1170F3959FC1F39D
:10222000950F50E0551F629FF001729FBB27F00D84
:10223000B11D639FAA27F00DB11DAA1F649F6627D9
:10224000B00DA11D661F829F2227B00DA11D621F28
:10225000739FB00DA11D621F839FA00D611D221FE2
:10226000749F3327A00D611D231F849F600D211DC6
:10227000822F762F6A2F11249F5750409AF0F1F049
:1022800088234AF0EE0FFF1FBB1F661F771F881FB2
:1022900091505040A9F79E3F510580F00C94651174
:1022A0000C94B0115F3FE4F3983ED4F38695779594
:1022B0006795B795F795E7959F5FC1F7FE2B880F58
:1022C000911D9695879597F9089597F99F6780E8EE
:1022D00070E060E008959FEF80EC089500240A9478
:1022E0001616170618060906089500240A941216F1
:1022F0001306140605060895092E0394000C11F424
:10230000882352F0BB0F40F4BF2B11F460FF04C0D0
:102310006F5F7F4F8F4F9F4F089557FD9058440F29
:10232000551F59F05F3F71F04795880F97FB991F34
:1023300061F09F3F79F087950895121613061406F1
:10234000551FF2CF4695F1DF08C01616170618067E
:10235000991FF1CF86957105610508940895E89459
:10236000BB2766277727CB0197F908952F923F92D5
:102370004F925F926F927F928F929F92AF92BF9295
:10238000CF92DF92EF92FF920F931F93CF93DF9341
:10239000CDB7DEB7CA1BDB0B0FB6F894DEBF0FBE9E
:1023A000CDBF09942A88398848885F846E847D84EB
:1023B0008C849B84AA84B984C884DF80EE80FD80ED
:1023C0000C811B81AA81B981CE0FD11D0FB6F89463
:1023D000DEBF0FBECDBFED0108955058BB27AA2721
:1023E0000E9405120C947C110E946E1138F00E941C
:1023F000751120F039F49F3F19F426F40C946B11F9
:102400000EF4E095E7FB0C946511E92F0E948D1105
:1024100058F3BA17620773078407950720F079F419
:10242000A6F50C94AF110EF4E0950B2EBA2FA02D4B
:102430000B01B90190010C01CA01A0011124FF2771
:10244000591B99F0593F50F4503E68F11A16F0406C
:10245000A22F232F342F4427585FF3CF469537956B
:102460002795A795F0405395C9F77EF41F16BA0B30
:10247000620B730B840BBAF09150A1F0FF0FBB1FDE
:10248000661F771F881FC2F70EC0BA0F621F731F27
:10249000841F48F4879577956795B795F7959E3F84
:1024A00008F0B0CF9395880F08F09927EE0F979515
:1024B000879508950E946E120C947C110E947511EC
:1024C00058F00E946E1140F029F45F3F29F00C94FF
:1024D000651151110C94B0110C946B110E948D1167
:1024E00068F39923B1F3552391F3951B550BBB2743
:1024F000AA2762177307840738F09F5F5F4F220F88
:10250000331F441FAA1FA9F335D00E2E3AF0E0E87E
:1025100032D091505040E695001CCAF72BD0FE2FC8
:1025200029D0660F771F881FBB1F2617370748075C
:10253000AB07B0E809F0BB0B802DBF01FF27935814
:102540005F4F3AF09E3F510578F00C9465110C9462
:10255000B0115F3FE4F3983ED4F386957795679585
:10256000B795F7959F5FC9F7880F911D9695879549
:1025700097F90895E1E0660F771F881FBB1F621768
:1025800073078407BA0720F0621B730B840BBA0B26
:10259000EE1F88F7E095089597FB072E16F4009438
:1025A00007D077FD09D00E94FF1207FC05D03EF44A
:1025B000909581959F4F0895709561957F4F0895EF
:1025C000052E97FB1EF400940E94F71257FD07D0CA
:1025D0000E94131307FC03D04EF40C94F71250958D
:1025E0004095309521953F4F4F4F5F4F08959095FF
:1025F0008095709561957F4F8F4F9F4F0895AA1BCF
:10260000BB1B51E107C0AA1FBB1FA617B70710F0DD
:10261000A61BB70B881F991F5A95A9F7809590950F
:10262000BC01CD010895A1E21A2EAA1BBB1BFD011E
:102630000DC0AA1FBB1FEE1FFF1FA217B307E407A1
:10264000F50720F0A21BB30BE40BF50B661F771FF9
:10265000881F991F1A9469F76095709580959095D9
:102660009B01AC01BD01CF010895EE0FFF1F059046
:10267000F491E02D09940F931F93CF93DF93823051
:10268000910510F482E090E0E091FB01F091FC01F3
:1026900020E030E0A0E0B0E0309719F140815181B6
:1026A0000281138148175907C8F08417950769F408
:1026B000109731F012960C93129713961C9327C023
:1026C0000093FB011093FC0122C02115310519F084
:1026D0004217530718F49A01BD01EF01DF01F80119
:1026E000DBCF21153105F9F0281B390B24303105DA
:1026F00080F48A819B816115710521F0FB01938330
:10270000828304C09093FC018093FB01FE0132960A
:1027100044C0FE01E20FF31F8193919322503109CF
:10272000398328833AC02091F9013091FA01232B93
:1027300041F420910201309103013093FA0120937A
:10274000F90120910001309101012115310541F479
:102750002DB73EB74091040150910501241B350B64
:10276000E091F901F091FA01E217F307A0F42E1BB2
:102770003F0B2817390778F0AC014E5F5F4F2417E5
:10278000350748F04E0F5F1F5093FA014093F9014F
:102790008193919302C0E0E0F0E0CF01DF91CF910F
:1027A0001F910F910895CF93DF93009709F481C093
:1027B000FC01329713821282A091FB01B091FC01BF
:1027C000109781F420813181820F931F2091F901AC
:1027D0003091FA012817390751F5F093FA01E09387
:1027E000F90167C0ED0120E030E0CE17DF0740F4CB
:1027F0004A815B819E0141155105F1F0EA01F5CF57
:10280000D383C28340815181840F951FC817D90794
:1028100059F488819981840F951F02969183808352
:102820008A819B81938382832115310529F4F0935A
:10283000FC01E093FB013DC0E901FB83EA83499180
:102840005991C40FD51FEC17FD0761F48081918168
:10285000840F951F0296E901998388838281938171
:102860009B838A83E0E0F0E012968D919C91139710
:10287000009719F0FD01DC01F7CF8D919C91119724
:102880009D012E5F3F4F820F931F2091F9013091E0
:10289000FA012817390769F4309729F41092FC01DE
:1028A0001092FB0102C013821282B093FA01A0932E
:1028B000F901DF91CF910895A0E0B0E0E2E6F4E104
:1028C0000C94BA11EC01009721F4CB010E943B1348
:1028D000B4C0FC01E60FF71F9C0122503109E2173A
:1028E000F30708F4A8C0D9010D911C9111970617A0
:1028F0001707B0F00530110508F49BC0C801049714
:102900008617970708F495C002501109061B170B8C
:10291000019311936D937C93CF010E94D31389C0CF
:102920005B01A01AB10A4C01800E911EA091FB011F
:10293000B091FC01612C712CE12CF12C109709F461
:1029400046C08D919C911197A815B905B1F56C0100
:1029500042E0C40ED11CCA14DB0478F14C018A1881
:102960009B08640142E0C40ED11C1296BC901297E1
:102970001396AC91B5E0CB16D10440F0B282A3839C
:1029800091828082D9016D937C9309C00E5F1F4FA5
:10299000800F911FF90191838083EB2DFA2FE114B1
:1029A000F10431F0D7011396FC93EE93129741C0D6
:1029B000F093FC01E093FB013CC06816790608F433
:1029C0003C017D0112960D90BC91A02DB7CF809156
:1029D000F9019091FA0188169906E1F466167706D6
:1029E000C8F48091000190910101009741F48DB7E6
:1029F0009EB74091040150910501841B950BE81787
:102A0000F907C8F4F093FA01E093F901F901718331
:102A100060830FC0CB010E943B137C01009759F0EB
:102A2000A801BE010E942715CE010E94D313C70141
:102A300004C0CE0102C080E090E0CDB7DEB7EEE08A
:102A40000C94D61181E090E0F8940C944015FB01B1
:102A5000DC0102C001900D9241505040D8F708951A
:102A6000FB01DC018D91019080190110D9F3990BC4
:102A70000895FB01DC0101900D920020E1F708951B
:102A800011E0C4E5D1E004C0FE010E943513219697
:0A2A9000C535D107C9F7F894FFCF50
:102A9A000000FD0180000000000012027F01A90170
:102AAA005F02DA01B801CC010000000008067F01CC
:062ABA002B032A030000BB
:00000001FF
