:100000000C9431010C9459010C9459010C94590130
:100010000C9459010C9459010C9459010C945901F8
:100020000C9459010C9459010C9459010C945901E8
:100030000C9459010C9459010C9459010C945901D8
:100040000C94E4060C9459010C94B2060C948C06A2
:100050000C9459010C9459010C9459010C945901B8
:100060000C9459010C94590100407A10F35A00A0E5
:10007000724E18090010A5D4E80000E87648170071
:1000800000E40B54020000CA9A3B000000E1F505B1
:10009000000080969800000040420F000000A086FB
:1000A00001000000102700000000E803000000002D
:1000B0006400000000000A000000000001000000D1
:1000C00000002C76D888DC674F0823DFC1DFAE59EB
:1000D000E1B1B796E5E3E453C63AE651997696E87E
:1000E000E6C28426EB898C9B62ED407C6FFCEFBC02
:1000F0009C9F40F2BAA56FA5F490055A2AF75C932D
:100100006B6CF9676DC11BFCE0E40D47FEF520E662
:10011000B500D0ED902E0300943577050080841E45
:10012000080000204E0A000000C80C333333330FA0
:10013000986E12831141EF8D2114893BE65516CF3D
:10014000FEE6DB18D1844B381BF77C1D901DA4BB49
:10015000E424203284725E228100C9F124ECA1E5FE
:100160003D27000000080002010000030407000012
:10017000000000000000C00F0000E03F00007070B1
:10018000000018E000008CCF0100C4980100663028
:100190000300222003003200030022000300660057
:1001A00001008481010024800300C800040018FFBE
:1001B000010060FC0F0080031000200020002020C0
:1001C000002020002020202020202020202020206F
:1001D000002020202020202020202020200020205F
:1001E000536369656E7469666963002020516F739B
:1001F00061696E2020202000506879734869766F0D
:100200006C7400322E3100206D41004C6F6164200F
:10021000493A2000206B56002045485420563A2089
:100220000000000000250028002B00000000002432
:100230000027002A00040404040404040402020247
:100240000202020303030303030102040810204017
:1002500080010204081020010204081020002E076B
:10026000D50C11241FBECFEFD8E0DEBFCDBF21E0FB
:10027000A6E2B1E001C01D92AC3FB207E1F711E088
:10028000A0E0B1E0E4E9F7E202C005900D92A632E9
:10029000B107D9F711E0C0E3D1E004C02197FE0116
:1002A0000E94BC11CF32D107C9F70E949A070C9463
:1002B000BD130C94000090E0FC01E75BFD4F24911E
:1002C0008B5C9D4FFC018491882399F090E0880F0E
:1002D000991FFC01E55DFD4FA591B491FC01EF5D17
:1002E000FD4F859194918FB7F894EC91E22BEC93AC
:1002F0008FBF0895AF92BF92CF92DF92EF92FF929D
:100300000F931F93CF93DF936C017B018B01040F3D
:10031000151FEB015E01AE18BF08C017D10759F0D9
:100320006991D601ED91FC910190F081E02DC6011B
:100330000995892B79F7C501DF91CF911F910F9115
:10034000FF90EF90DF90CF90BF90AF900895FB01AA
:1003500044815581608171810C947A01FC01538D37
:10036000448D252F30E0842F90E0821B930B54178F
:1003700010F0CF96089501970895FC01918D828D1C
:10038000981761F0A28DAE0FBF2FB11D5D968C91B5
:10039000928D9F5F9F73928F90E008958FEF9FEFF4
:1003A0000895FC01918D828D981731F0828DE80FB0
:1003B000F11D858D90E008958FEF9FEF0895FC016A
:1003C000918D228D892F90E0805C9F4F821B910937
:1003D0008F739927089587E391E00E94DF0121E060
:1003E000892B09F420E0822F089580E090E0892B8A
:1003F00029F00E94EB0181110C9400000895FC018A
:10040000A48DA80FB92FB11DA35ABF4F2C91848D75
:1004100090E001968F739927848FA689B7892C93D2
:10042000A089B1898C91837080648C93938D848D25
:10043000981306C00288F389E02D80818F7D808328
:100440000895EF92FF920F931F93CF93DF93EC01E8
:1004500081E0888F9B8D8C8D98131AC0E889F9896B
:10046000808185FF15C09FB7F894EE89FF8960836E
:10047000E889F98980818370806480839FBF81E0EF
:1004800090E0DF91CF911F910F91FF90EF90089531
:10049000F62E0B8D10E00F5F1F4F0F731127E02E0C
:1004A0008C8D8E110CC00FB607FCFACFE889F98944
:1004B000808185FFF5CFCE010E94FF01F1CFEB8D4A
:1004C000EC0FFD2FF11DE35AFF4FF0829FB7F89418
:1004D0000B8FEA89FB8980818062CFCFCF93DF9336
:1004E000EC01888D8823B9F0AA89BB89E889F9894C
:1004F0008C9185FD03C0808186FD0DC00FB607FC81
:10050000F7CF8C9185FFF2CF808185FFEDCFCE01B3
:100510000E94FF01E9CFDF91CF91089590E0FC01A7
:10052000EE59FE4F2491FC01E75BFD4F3491FC0135
:10053000EB5CFD4FE491EE23C9F0222339F0233028
:1005400001F1A8F4213019F1223029F1F0E0EE0F89
:10055000FF1FEF5DFD4FA591B4918FB7F894EC911B
:10056000611126C030953E233C938FBF08952730FC
:10057000A9F02830C9F0243049F7809180008F7DA0
:1005800003C0809180008F7780938000DFCF84B597
:100590008F7784BDDBCF84B58F7DFBCF8091B0009A
:1005A0008F778093B000D2CF8091B0008F7DF9CF4C
:1005B0003E2BDACF8E50806480937C0080917A004D
:1005C000806480937A0080917A0086FDFCCF8091D0
:1005D00078009091790008953FB7F89480912B01AD
:1005E00090912C01A0912D01B0912E0126B5A89BD0
:1005F00005C02F3F19F00196A11DB11D3FBFBA2FB5
:10060000A92F982F8827BC01CD01620F711D811D74
:10061000911D42E0660F771F881F991F4A95D1F7F9
:1006200008958F929F92AF92BF92CF92DF92EF92F6
:10063000FF926B017C010E94EC024B015C01C11432
:10064000D104E104F104B9F00E94EC0268197909BF
:100650008A099B09683E73408105910580F321E07A
:10066000C21AD108E108F10888EE880E83E0981ECE
:10067000A11CB11CE4CFFF90EF90DF90CF90BF9012
:10068000AF909F908F900895089590E080E0089536
:10069000CF93DF93EC0160E08E810E948E0261E0D7
:1006A0008E810E948E0260E08E810E948E028BE815
:1006B00091E00197F1F7DF91CF910895CF92DF920A
:1006C000EF92FF920F931F93CF93DF936C017C0106
:1006D00087E0E80EF11CD0E0C0E0062F10E0B80182
:1006E0000C2E02C0759567950A94E2F76170F701C8
:1006F00081917F010E948E022196C430D10579F745
:10070000C601DF91CF911F910F91FF90EF90DF9085
:10071000CF900C944803CF92DF92EF92FF920F9309
:100720001F93CF93DF93EC01F62E642F8C810E94F0
:100730008E028D818F3F19F060E00E948E020F2D96
:1007400010E08F8584FF25C06E0187E0C80ED11CA4
:10075000F12CE12CB8010E2C02C0759567950A9416
:10076000E2F76170F60181916F010E948E02FFEF46
:10077000EF1AFF0A88E0E816F10461F7CE01DF9175
:10078000CF911F910F91FF90EF90DF90CF900C943D
:100790004803B80184E0759567958A95E1F7CE0125
:1007A0000E945E036F2DCE01DF91CF911F910F91BB
:1007B000FF90EF90DF90CF900C945E0340E0682FA5
:1007C00080EE91E00C948B03CF93DF93823029F479
:1007D0009091EF0198609093EF018093F301109254
:1007E000F40180E48093F50180E18093F60180E5D7
:1007F0008093F7018091E4010E945B018091E50103
:100800008F3F11F00E945B018091E6010E945B0125
:10081000C0EED1E09E01205E31408091EF0184FD69
:100820000AC084E090E02196281739073CF48E81B5
:100830000E945B01EFCF88E090E0F5CF8BE39DE075
:100840000197F1F760E08091E4010E948E0260E080
:100850008091E6010E948E028091E5018F3F19F0A0
:1008600060E00E948E028091EF0184FD39C063E058
:1008700080EE91E00E945E03CBE4D6E4CE010197C6
:10088000F1F763E080EE91E00E945E032197F1F7BB
:1008900063E080EE91E00E945E0383E592E00197C1
:1008A000F1F762E080EE91E00E945E038091EF013B
:1008B00080620E94DE0384E08093F0018CE00E945D
:1008C000DE0381E00E94DE038BE39FE10197F1F7F5
:1008D00082E08093F10186E0DF91CF910C94DE03FA
:1008E00080620E94DE038BE496E40197F1F7809129
:1008F000EF0180620E94DE0383E592E00197F1F749
:100900008091EF0180620E94DE03D0CF9091F301CD
:10091000691710F06FEF690FE62FF0E0E052FE4F1D
:100920009489890F80680C94DE0341E00E948B0358
:1009300081E090E008950F931F93CF93DF938C0194
:10094000D0E0C0E0F801EC0FFD1F6491662339F0A0
:1009500041E080EE91E00E948B032196F3CFCE011F
:10096000DF91CF911F910F910895CF93DF93EC0109
:10097000A881B981EB01E881F9811097F1F03097F6
:10098000B1F4EC018C819D81892BC9F08C9190E0B0
:100990000BC0DB0114968D919C91892B81F0808195
:1009A00090E0919581959109DF91CF910895BF01D4
:1009B000CD01DF91CF910C94AD13309751F790E0BA
:1009C00080E0F2CF0F931F93CF93DF93EC018881E8
:1009D0009981009759F02A813B812617370730F01B
:1009E00081E0DF91CF911F910F9108958B016F5F8F
:1009F0007F4F0E94E712009759F0998388831B83E9
:100A00000A832C813D81232B59F7FC011082E8CF0A
:100A100080E0E7CFEF92FF920F931F93CF93DF9386
:100A2000EC017B01CB010E94020D0097A9F00C8123
:100A30001D81080F191FB801CE010E94E20488230E
:100A400061F0288139818C819D81B701820F931FCC
:100A50000E94FB0C1D830C8381E0DF91CF911F91DD
:100A60000F91FF90EF900895CF93DF93EC01888171
:100A70009981009711F00E945E12198218821D82DE
:100A80001C821B821A82DF91CF910895EF92FF9210
:100A90000F931F93CF93DF93EC01FB01E080F18074
:100AA000E114F10411F10481158101151105A9F07A
:100AB0008C819D81080F191FB801CE010E94E204AC
:100AC000882399F0288139818C819D81B701820F1B
:100AD000931F0E94B6131D830C83CE01DF91CF912B
:100AE0001F910F91FF90EF900895CE010E94340561
:100AF000F4CFEF92FF920F931F93CF93DF93EC010C
:100B00007B018A01BA010E94E20481110BC0CE016F
:100B10000E943405CE01DF91CF911F910F91FF907C
:100B2000EF9008951D830C83B701888199810E94FD
:100B3000B613F0CFAF92BF92CF92DF92EF92FF92B7
:100B40000F931F93CF93DF93EC016B015A0179014F
:100B50002417350720F48B2D5901E42EF82E198225
:100B600018821B821A821D821C8250E040E064E2DF
:100B700071E0CE010E947905D60114960D911C9169
:100B8000A016B10628F5E016F10608F48701D60193
:100B9000ED91FC911197E00FF11FF08010826D91A3
:100BA0007C916A0D7B1D61157105F1F0FB010190CF
:100BB0000020E9F73197AF01461B570BCE010E9489
:100BC0007905F60180819181080F191FD801FC92E7
:100BD000CE01DF91CF911F910F91FF90EF90DF90A9
:100BE000CF90BF90AF900895CE010E943405E9CF19
:100BF000CF93DF93EC01FB018617970749F06081E3
:100C000071816115710541F0448155810E9479051A
:100C1000CE01DF91CF9108950E943405F9CFFC01F8
:100C20001182108213821282158214820C94F805AC
:100C3000EF92FF920F931F93CF93DF93EC018B0101
:100C4000198218821B821A821D821C82CB010E948B
:100C5000020D7C01BC01CE010E94E204811109C099
:100C6000CE01DF91CF911F910F91FF90EF900C94E7
:100C70003405FD82EC82B80188819981DF91CF91A2
:100C80001F910F91FF90EF900C94FB0CFC01808161
:100C90009181009711F00C945E120895EF92FF92EB
:100CA0000F931F93CF93DF93CDB7DEB7A1970FB606
:100CB000F894DEBF0FBECDBF7C01CB01BA01F701B6
:100CC00011821082138212821582148242E0420F36
:100CD0008E010F5F1F4F0E94DD0C0097C9F0FC01D1
:100CE00001900020E9F73197AF01481B590BBC0177
:100CF000C7010E947905A1960FB6F894DEBF0FBE1A
:100D0000CDBFDF91CF911F910F91FF90EF9008958C
:100D1000C7010E943405EFCF1F920F920FB60F92BA
:100D200011242F933F934F935F936F937F938F93F0
:100D30009F93AF93BF93EF93FF9387E391E00E945C
:100D4000FF01FF91EF91BF91AF919F918F917F91A3
:100D50006F915F914F913F912F910F900FBE0F9028
:100D60001F9018951F920F920FB60F9211242F9378
:100D70008F939F93EF93FF93E0914701F091480188
:100D80008081E0914D01F0914E0182FD1BC0908168
:100D9000809150018F5F8F7320915101821741F034
:100DA000E0915001F0E0E95CFE4F958F8093500197
:100DB000FF91EF919F918F912F910F900FBE0F9008
:100DC0001F9018958081F4CF1F920F920FB60F924B
:100DD00011242F933F938F939F93AF93BF93809151
:100DE000270190912801A0912901B0912A01309109
:100DF000260123E0230F2D3758F50196A11DB11DC3
:100E0000209326018093270190932801A093290124
:100E1000B0932A0180912B0190912C01A0912D017A
:100E2000B0912E010196A11DB11D80932B019093CD
:100E30002C01A0932D01B0932E01BF91AF919F91F2
:100E40008F913F912F910F900FBE0F901F9018958B
:100E500026E8230F0296A11DB11DD2CFE7E3F1E0F2
:100E60001382128288EE93E0A0E0B0E08483958341
:100E7000A683B7838AE091E09183808385EC90E03C
:100E80009587848784EC90E09787868780EC90E054
:100E9000918B808B81EC90E0938B828B82EC90E045
:100EA000958B848B86EC90E0978B868B118E128EBF
:100EB000138E148EE0EEF1E0138212828CE191E049
:100EC0009183808381E184838FEF858380E18683B2
:100ED0009FE097839DE090879CE091879BE09287BD
:100EE0009AE0938799E0948798E0958797E09687B2
:100EF000878781E00E94E403EAEDF1E0118210822D
:100F0000138212821582148250E040E064E271E0A4
:100F1000CF010E947905E4EDF1E011821082138285
:100F200012821582148250E040E064E271E0CF0149
:100F30000C947905CF93DF93CDB7DEB7CF58D109A5
:100F40000FB6F894DEBF0FBECDBF789484B5826033
:100F500084BD84B5816084BD85B5826085BD85B55D
:100F6000816085BD80916E00816080936E001092DB
:100F70008100809181008260809381008091810056
:100F800081608093810080918000816080938000E7
:100F90008091B10084608093B1008091B000816045
:100FA0008093B00080917A00846080937A00809171
:100FB0007A00826080937A0080917A0081608093C9
:100FC0007A0080917A00806880937A001092C10044
:100FD000E0914701F091480182E08083E091430174
:100FE000F09144011082E0914501F091460180E1C9
:100FF000808310924F01E0914B01F0914C0186E00B
:101000008083E0914901F0914A0180818061808371
:10101000E0914901F0914A01808188608083E091EC
:101020004901F0914A01808180688083E091490103
:10103000F0914A0180818F7D808382E00E94E403E9
:1010400063E072E0CE0189589F4F0E94180668EF56
:1010500071E0CE0183589F4F0E94180681E00E94E4
:10106000DE038BE39FE10197F1F76BEE71E0CE01B8
:101070008F589F4F0E9418067E014BE6E40EF11C2C
:101080006EED71E0C7010E9418064E0155E6850E0F
:10109000911C61ED71E0C4010E9418065E016FE5CC
:1010A000A60EB11C64EC71E0C5010E941806D12C9B
:1010B000C12C70EFCB57DF4F7883C558D0408E01DD
:1010C0000B5B1F4FCB57DF4F8881C558D040712C29
:1010D00087FF03C08A5F7A94FBCF26E731E0DE0109
:1010E000119646E150E0481B510987FD5395CD57B5
:1010F000DF4F59834883C358D040F901259035907C
:101100004590549090E080E0812C912C5401CD5773
:10111000DF4FE881F981C358D040E81BF90BB201D9
:10112000A10104C07695679557954795EA95D2F742
:10113000C457DF4F488359836A837B83CC58D040A0
:1011400040FF05C05FEF851A950AA50AB50A880C0D
:10115000991CAA1CBB1C019687319105C1F68D9282
:101160009D92AD92BD922C5F3F4F0A171B0709F06D
:10117000C4CF672D6195C857DF4F6883C858D040EA
:10118000CD57DF4F1882C358D040812C912C540189
:10119000C657DF4F8882CA58D040CD57DF4F78817D
:1011A000C358D040C757DF4F7883C958D040672C09
:1011B000512C412C1E0185E4280E311C9101285F21
:1011C0003F4FFE013196CA57DF4F39822882C658F9
:1011D000D04081149104A104B10409F0B7C1408149
:1011E000518162817381042C04C07695679557956F
:1011F00047950A94D2F7429550E0CA019595879594
:10120000959587958373440F551F440F551F4C7C4C
:10121000482B842F90E0AC01559547954575880F74
:10122000991F8A7A842B90E043E0959587954A959B
:10123000E1F7CA57DF4FA881B981C658D0408D93D6
:10124000CA57DF4FB983A883C658D04034962A17AF
:101250003B0709F0BECFC857DF4FB881C858D04010
:10126000B60DC557DF4FB883CB58D040C757DF4FB7
:101270008881C958D04080640E94DE03F1016191E9
:101280001F0180EE91E00E949504CA57DF4F48810C
:101290005981C658D0404215530581F7C657DF4FD4
:1012A0006881CA58D040862D0E948604C557DF4FFA
:1012B0006881CB58D04080EE91E00E949504639401
:1012C000C757DF4F5881C958D040585FC757DF4FC5
:1012D0005883C958D04066E0460E511C78E1471645
:1012E000510409F067CF8FEF881A980AA80AB80A44
:1012F000C857DF4F9881C858D0409C5FC857DF4F10
:101300009883C858D040CD57DF4FA881C358D040EC
:10131000A05ECD57DF4FA883C358D040A03409F05A
:1013200037CFC60165E070E00E9453115B019B015D
:1013300050E040E0BE016F587F4FCE01835B9F4F6E
:101340000E949A05AB962EAD3FADAB97A501BE01AD
:101350006B597F4FCE0101960E949A05BE016F5FC7
:101360007F4FC8010E940F06BE01635B7F4FC8011B
:101370000E944605BC01CE01875A9F4F0E940F066E
:10138000C8010E944606CE0101960E944606CE0183
:10139000835B9F4F0E94460660E084E00E948604C3
:1013A000BE01675A7F4F80EE91E00E94A701950130
:1013B00050E040E0B701CE01835B9F4F0E949A0549
:1013C000A5962EAD3FADA597A501BE01615A7F4FF1
:1013D000CE0101960E949A05BE016F5F7F4FC80142
:1013E0000E940F06BE01635B7F4FC8010E94460545
:1013F000BC01CE018D5A9F4F0E940F06C8010E946A
:101400004606CE0101960E944606CE01835B9F4FA1
:101410000E94460661E084E00E948604BE016D5A87
:101420007F4F80EE91E00E94A7016BE470E080E0C6
:1014300090E00E941103CE018D5A9F4F0E944606F4
:10144000CE01875A9F4F0E944606CB57DF4FB88187
:10145000C558D040BF5FCB57DF4FB883C558D04089
:10146000E4E0CE0ED11CB13009F02CCEBE016F5895
:101470007F4FCE018B599F4F0E94F805B701CE01D7
:10148000815A9F4F0E94F80561EC71E0CE010196F0
:101490000E941806BE016F5F7F4FC8010E940F06B1
:1014A000BE0163587F4FC8010E944605BC01CE01B2
:1014B0008F589F4F0E94F805C8010E944606CE0132
:1014C00001960E9446066EEB71E0CE0101960E94E5
:1014D0001806BE016F5F7F4FC8010E940F06BE0154
:1014E00069587F4FC8010E944605BC01C7010E9490
:1014F000F805C8010E944606CE0101960E944606E4
:10150000E7968EAD9FADE7970C9728F5BE016F5813
:101510007F4FCE0101960E940F066CEB71E0CE0169
:1015200001960E940A05811104C0CE0101960E9415
:101530003405BE016F5F7F4FCE018F589F4F0E94D1
:10154000F805CE0101960E944606DACF44A155A1C6
:1015500066A177A148CED70114968D919C910C97E6
:10156000E0F4B701CE0101960E940F066AEB71E02C
:10157000CE0101960E940A05811104C0CE01019698
:101580000E943405BE016F5F7F4FC7010E94F805BE
:10159000CE0101960E944606DECF62EE74E080E046
:1015A00090E00E941103C12CD12C760195E0492EC8
:1015B000512C612C712CC701B601A30192010E942C
:1015C0006711490150E040E0BE016F587F4FCE01E6
:1015D000835B9F4F0E949A05AB962EAD3FADAB97B4
:1015E000A401BE016B597F4FCE0101960E949A055E
:1015F000BE016F5F7F4FCE018B5B9F4F0E940F0636
:10160000BE01635B7F4FCE018B5B9F4F0E944605FF
:10161000BC01CE01875A9F4F0E940F06CE018B5B03
:101620009F4F0E944606CE0101960E944606CE01BB
:10163000835B9F4F0E94460660E084E00E94860420
:10164000BE01675A7F4F80EE91E00E94A70194018E
:1016500050E040E0BE0165597F4FCE01835B9F4F54
:101660000E949A05A5962EAD3FADA597A401BE0197
:10167000615A7F4FCE0101960E949A05BE016F5FAD
:101680007F4FCE018B5B9F4F0E940F06BE01635BB5
:101690007F4FCE018B5B9F4F0E944605BC01CE0160
:1016A0008D5A9F4F0E940F06CE018B5B9F4F0E9469
:1016B0004606CE0101960E944606CE01835B9F4FEF
:1016C0000E94460661E084E00E948604BE016D5AD5
:1016D0007F4F80EE91E00E94A7016BE470E080E014
:1016E00090E00E941103CE018D5A9F4F0E94460642
:1016F000CE01875A9F4F0E944606B4E0CB0ED11C04
:10170000E11CF11CE4E4CE16D104E104F10409F07B
:1017100052CF62EE74E080E090E00E941103CE01AF
:10172000815A9F4F0E944606CE018B599F4F0E94BF
:101730004606CE0185599F4F0E944606CE018F581E
:101740009F4F0E944606CE0183589F4F0E94460637
:10175000CE0189589F4F0E94460680E0A82E80E067
:10176000B82E0CED15E0C12CD12C76018EE00E9434
:10177000DA02BC01990F880B990B0E94440F9B0160
:10178000AC01C701B6010E9475106B017C010150CC
:10179000110961F720E030E84BEB54E40E94E110BE
:1017A00020E030EC4FE754E40E94E11020E030E00C
:1017B00040EA50E40E947F0F20E030E040E251E434
:1017C0000E947F0F2DEC3CEC4CE45FE30E947F0F06
:1017D0006B017C012CEC3CEC4CE45EE3609133014A
:1017E0007091340180913501909136010E947F0FF4
:1017F0009B01AC01C701B6010E947510AB01BC0191
:101800004093330150933401609335017093360156
:1018100021E0CE018B5B9F4F0E944E060CED15E040
:10182000C12CD12C760184E10E94DA02BC01990F0F
:10183000880B990B0E94440F9B01AC01C701B601B4
:101840000E9475106B017C010150110961F720E0C5
:1018500030E84BEB54E40E94E11020E030EC4FE71D
:1018600054E40E94E11020E030E040EA50E40E949D
:101870007F0F2DEC3CEC4CE45FE30E947F0F6B018B
:101880007C012CEC3CEC4CE45EE360912F01709108
:10189000300180913101909132010E947F0F9B01B4
:1018A000AC01C701B6010E947510AB01BC014093A9
:1018B0002F0150933001609331017093320122E087
:1018C000CE0101960E944E062B962EAD3FAD2B9772
:1018D0008091DE019091DF0128173907D1F46AED7C
:1018E00071E0CE018B5B9F4F0E94B504892B89F478
:1018F0002D813E818091D8019091D9012817390717
:1019000041F464ED71E0CE0101960E94B504892B8B
:10191000B9F1BE016B5B7F4F8AED91E00E94F80543
:10192000BE016F5F7F4F84ED91E00E94F80582E079
:101930000E94E40360E080E00E94860488E192E077
:101940000E949B04BE016B5B7F4F80EE91E00E9482
:10195000A70184E192E00E949B0461E080E00E9484
:1019600086048BE092E00E949B04BE016F5F7F4F74
:1019700080EE91E00E94A70187E092E00E949B0424
:10198000CE0101960E944606CE018B5B9F4F0E94BE
:101990004606A114B10409F4E4CE0E94EB018823A9
:1019A00009F4DFCE0E940000DCCE84ED91E00E94BD
:1019B00046068AED91E00C944606EF920F931F9332
:1019C000CF93DF93E80134E047FD34E1042E000CAF
:1019D000550B57FF03C0519541955109E32E022F36
:1019E000242FAE010E940B0DCE01DF91CF911F91EC
:1019F0000F91EF900895FB01DC0105900D920020FE
:101A0000E1F70895FC0105900020E9F78095909595
:101A10008E0F9F1F0895A9E0B0E0E1E1FDE00C9476
:101A200043106A01F22EB02E102FFBE3AF2EA0164A
:101A300008F41BE31F5F012F27E0AE014F5F5F4FEC
:101A40000E946A0EBC018981982F9970913009F427
:101A50003FC09BE2E1FC04C09E2D9170E0FC3AC0C7
:101A60005E2D5071E82FE87083FF46C084E091112D
:101A700001C083E0EF2DE81B8F1508F0E0E0D601F0
:101A80008E2F20E2552351F1992329F0D6019C9302
:101A9000C60101966C0196012D5F3F4FE2FE24C006
:101AA0008EE4D6018C9391E411969C931197129633
:101AB0008C93D9018E2F90E281111BC0E20FF32F7E
:101AC000F11D10828EEF9FEF2996ECE00C945F10D1
:101AD0009DE2C6CF90E2C4CF2D9381508111FCCFFF
:101AE000CE0ED11CE0E0D0CF8EE6D6018C9391E6ED
:101AF000DBCF9D938150E0CF482F447082FF3DC0E3
:101B000084E0911101C083E08F1510F4EF2DE81BE4
:101B1000D6018E2F20E2552309F1992329F0D60111
:101B20009C93C60101966C0196012D5F3F4FE2FE2A
:101B30001BC089E4D6018C938EE411968C93119787
:101B400086E412968C93D9018E2F90E2882309F4B3
:101B5000B5CF9D938150FACF2D9381508111FCCF49
:101B6000CE0ED11CE0E0D9CF89E6D6018C938EE66B
:101B700011968C93119786E6E4CF9B0177FF02C004
:101B800030E020E0A1E0B0E0911102C0B0E0A0E0C0
:101B9000F9013196AE0FBF1F8B2C912CBB2009F49D
:101BA00061C05401EFEFAE1ABE0AAA0DBB1DFA16B2
:101BB0001B0619F014F04F2D4A1B511188C0E3FC8D
:101BC00059C07601A42FB0E2A1114FC0C40ED11CA0
:101BD000992309F45BC040E0D6011196F601908389
:101BE0006D01552309F448C0012F060F9A81582F23
:101BF000507184FF03C0913309F4015010160CF0AA
:101C000047C0093008F008E0EEE2FE2E5B01A01AA2
:101C1000B10885019194819491082F3F320729F4EE
:101C2000D601FC92F60131966F016217730794F1A9
:101C3000021713077CF5DB01A21BB30BAA24A394A4
:101C4000B12CAC0EBD1EAA0DBB1D11968C9121505E
:101C50003109D601119628153905F4F0F601808373
:101C60006D01DBCFB12CA12CA0CFF701B1937F0187
:101C7000A150AACF9111B0CFD601942F50E302C04A
:101C80005D9391509111FCCFC40ED11C40E0ACCFBC
:101C900001E0BACF80E3DBCF6217730731F49633EC
:101CA00088F4953311F4552369F0F6018083FD0122
:101CB000842F90E2811108C0A40FB11D1C9290E006
:101CC00080E002CF81E3F1CF91938150F3CF911166
:101CD00083CF8ACF283008F027E03327DA01990F25
:101CE000311D87FD916000966105710539F4326000
:101CF0002E5F3D9330E32A95E1F708959F3F30F042
:101D000080387105610509F03C5F3C5F3D9391307F
:101D100008F08068911DDF93CF931F930F93FF927C
:101D2000EF92192F987F9695E92F96959695E90F42
:101D3000FF27EE53FF4F99273327EE24FF24A701F7
:101D4000E70105900894079428F4360FE71EF81E63
:101D5000491F511D660F771F881F991F0694A1F711
:101D60000590079428F4E70EF81E491F561FC11D61
:101D7000770F881F991F661F0694A1F70590079497
:101D800028F4F80E491F561FC71FD11D880F991F31
:101D9000661F771F0694A1F70590079420F4490F5A
:101DA000561FC71FD81F990F661F771F881F0694DD
:101DB000A9F784911095177041F0D695C79557955E
:101DC0004795F794E7941A95C1F7E8E6F0E0689430
:101DD0001590159135916591959105907FE27395D8
:101DE000E118F10A430B560BC90BD009C0F7E10CFF
:101DF000F11E431F561FC91FD01D7EF4703311F40E
:101E00008A95E6CFE894015030F0080F0AF40027D5
:101E1000021708F4202F2395022F7A3328F079E354
:101E20007D932A95E9F710C07D932A9589F606944B
:101E300097956795379517951794E118F10A430B15
:101E4000560BC90BD00998F023957E9173957A3380
:101E500008F070E37C932013B8F77E9170617D9356
:101E600030F0839571E37D9370E32A95E1F71124B7
:101E7000EF90FF900F911F91CF91DF91992787FDF0
:101E800090950895E89409C097FB3EF4909580954D
:101E9000709561957F4F8F4F9F4F9923A9F0F92F30
:101EA00096E9BB279395F695879577956795B795AE
:101EB000F111F8CFFAF4BB0F11F460FF1BC06F5F94
:101EC0007F4F8F4F9F4F16C0882311F096E911C0A6
:101ED000772321F09EE8872F762F05C0662371F0C7
:101EE00096E8862F70E060E02AF09A95660F771FDB
:101EF000881FDAF7880F9695879597F908950E94BD
:101F0000920F0C9403100E94F50F38F00E94FC0F02
:101F100020F0952311F00C94EC0F0C94F20F112487
:101F20000C9437100E94141070F3959FC1F3950F15
:101F300050E0551F629FF001729FBB27F00DB11D4D
:101F4000639FAA27F00DB11DAA1F649F6627B00DDD
:101F5000A11D661F829F2227B00DA11D621F739FC6
:101F6000B00DA11D621F839FA00D611D221F749FD4
:101F70003327A00D611D231F849F600D211D822F1B
:101F8000762F6A2F11249F5750409AF0F1F0882342
:101F90004AF0EE0FFF1FBB1F661F771F881F91506F
:101FA0005040A9F79E3F510580F00C94EC0F0C9423
:101FB00037105F3FE4F3983ED4F3869577956795A5
:101FC000B795F795E7959F5FC1F7FE2B880F911D99
:101FD0009695879597F9089597F99F6780E870E03F
:101FE00060E008959FEF80EC089500240A9416168F
:101FF000170618060906089500240A9412161306F7
:10200000140605060895092E0394000C11F4882384
:1020100052F0BB0F40F4BF2B11F460FF04C06F5FA0
:102020007F4F8F4F9F4F089557FD9058440F551F76
:1020300059F05F3F71F04795880F97FB991F61F04A
:102040009F3F79F087950895121613061406551FC1
:10205000F2CF4695F1DF08C0161617061806991F2D
:10206000F1CF86957105610508940895E894BB2722
:1020700066277727CB0197F908952F923F924F92C9
:102080005F926F927F928F929F92AF92BF92CF9208
:10209000DF92EF92FF920F931F93CF93DF93CDB711
:1020A000DEB7CA1BDB0B0FB6F894DEBF0FBECDBF89
:1020B00009942A88398848885F846E847D848C845A
:1020C0009B84AA84B984C884DF80EE80FD800C8163
:1020D0001B81AA81B981CE0FD11D0FB6F894DEBF46
:1020E0000FBECDBFED0108955058BB27AA270E940F
:1020F0008C100C9403100E94F50F38F00E94FC0F16
:1021000020F039F49F3F19F426F40C94F20F0EF4EA
:10211000E095E7FB0C94EC0FE92F0E94141058F3A4
:10212000BA17620773078407950720F079F4A6F5BC
:102130000C9436100EF4E0950B2EBA2FA02D0B0147
:10214000B90190010C01CA01A0011124FF27591BFC
:1021500099F0593F50F4503E68F11A16F040A22F02
:10216000232F342F4427585FF3CF46953795279573
:10217000A795F0405395C9F77EF41F16BA0B620B72
:10218000730B840BBAF09150A1F0FF0FBB1F661FB9
:10219000771F881FC2F70EC0BA0F621F731F841FFC
:1021A00048F4879577956795B795F7959E3F08F022
:1021B000B0CF9395880F08F09927EE0F97958795E4
:1021C00008950E94F5100C9403100E94FC0F58F023
:1021D0000E94F50F40F029F45F3F29F00C94EC0FBA
:1021E00051110C9437100C94F20F0E94141068F3E4
:1021F0009923B1F3552391F3951B550BBB27AA27C0
:1022000062177307840738F09F5F5F4F220F331FF9
:10221000441FAA1FA9F335D00E2E3AF0E0E832D0C1
:1022200091505040E695001CCAF72BD0FE2F29D0C4
:10223000660F771F881FBB1F261737074807AB0796
:10224000B0E809F0BB0B802DBF01FF2793585F4F0B
:102250003AF09E3F510578F00C94EC0F0C94371037
:102260005F3FE4F3983ED4F3869577956795B795ED
:10227000F7959F5FC9F7880F911D9695879597F9F8
:102280000895E1E0660F771F881FBB1F6217730771
:102290008407BA0720F0621B730B840BBA0BEE1F86
:1022A00088F7E095089597FB072E16F4009407D061
:1022B00077FD09D00E94861107FC05D03EF4909569
:1022C00081959F4F0895709561957F4F0895052ED4
:1022D00097FB1EF400940E947E1157FD07D00E94C8
:1022E0009A1107FC03D04EF40C947E115095409542
:1022F000309521953F4F4F4F5F4F089590958095B2
:10230000709561957F4F8F4F9F4F0895AA1BBB1B00
:1023100051E107C0AA1FBB1FA617B70710F0A61BE5
:10232000B70B881F991F5A95A9F780959095BC0106
:10233000CD010895A1E21A2EAA1BBB1BFD010DC001
:10234000AA1FBB1FEE1FFF1FA217B307E407F50765
:1023500020F0A21BB30BE40BF50B661F771F881F41
:10236000991F1A9469F760957095809590959B01D7
:10237000AC01BD01CF010895EE0FFF1F0590F49150
:10238000E02D09940F931F93CF93DF938230910533
:1023900010F482E090E0E091FA01F091FB0130E06E
:1023A00020E0B0E0A0E0309799F42115310509F460
:1023B0004AC0281B390B24303105D8F58A819B810E
:1023C0006115710589F1FB0193838283FE0111C0C0
:1023D000408151810281138148175907E0F0481765
:1023E000590799F4109761F012960C93129713966F
:1023F0001C933296CF01DF91CF911F910F910895D9
:102400000093FA011093FB01F4CF2115310551F02F
:102410004217530738F0A901DB019A01BD01DF0122
:10242000F801C1CFEF01F9CF9093FB018093FA013E
:10243000CDCFFE01E20FF31F81939193225031091A
:1024400039832883D7CF2091F8013091F901232BCC
:1024500041F420910201309103013093F90120935E
:10246000F80120910001309101012115310541F45D
:102470002DB73EB74091040150910501241B350B47
:10248000E091F801F091F901E217F307A0F42E1B97
:102490003F0B2817390778F0AC014E5F5F4F2417C8
:1024A000350748F04E0F5F1F5093F9014093F80134
:1024B000819391939FCFF0E0E0E09CCFCF93DF93A7
:1024C0000097E9F0FC01329713821282A091FA0181
:1024D000B091FB01ED0130E020E01097A1F42081E4
:1024E0003181820F931F2091F8013091F901281753
:1024F000390709F061C0F093F901E093F801DF9129
:10250000CF910895EA01CE17DF07E8F54A815B8194
:102510009E0141155105B1F7E901FB83EA83499119
:102520005991C40FD51FEC17FD0761F4808191818B
:102530000296840F951FE901998388838281938194
:102540009B838A83F0E0E0E012968D919C91139733
:102550000097B9F52D913C911197CD010296820F0C
:10256000931F2091F8013091F9012817390739F6A6
:10257000309751F51092FB011092FA01B093F901D6
:10258000A093F801BCCFD383C28340815181840FD3
:10259000951FC817D90761F44E5F5F4F88819981F5
:1025A000480F591F518340838A819B819383828383
:1025B0002115310509F0B0CFF093FB01E093FA014A
:1025C0009ECFFD01DC01C0CF13821282D7CFB0E0D5
:1025D000A0E0EDEEF2E10C943F108C01009751F475
:1025E000CB010E94C2118C01C801CDB7DEB7E0E17A
:1025F0000C945B10FC01E60FF71F9C01225031097F
:10260000E217F30708F49DC0D901CD91DC91119731
:10261000C617D70798F0C530D10530F3CE0104971F
:102620008617970708F3C61BD70B2297C193D19340
:102630006D937C93CF010E945E12D6CF5B01AC1AE2
:10264000BD0A4C018C0E9D1EA091FA01B091FB01B8
:10265000512C412CF12CE12C109731F58091F8018F
:102660009091F9018815990509F05CC04616570646
:1026700008F058C08091000190910101009741F449
:102680008DB79EB74091040150910501841B950BB5
:10269000E817F90708F055C0F093F901E093F80145
:1026A000F90171836083A0CF8D919C91119712964F
:1026B0006C90129713967C901397A815B90559F54D
:1026C0006C0142E0C40ED11CCA14DB0420F1AC0141
:1026D0004A195B09DA011296159780F062827382BB
:1026E00051834083D9016D937C93E114F10471F01F
:1026F000D7011396FC93EE93129776CF22968C0F08
:102700009D1FF90191838083F301EFCFF093FB01CB
:10271000E093FA0169CF4816590608F42C017D01AF
:10272000D3019ACFCB010E94C2117C01009749F0DE
:10273000AE01B8010E94A413C8010E945E12870175
:1027400053CF10E000E050CFFB01DC0102C001904C
:102750000D9241505040D8F70895FB01DC018D9156
:10276000019080190110D9F3990B0895FB01DC0148
:1027700001900D920020E1F7089511E0C0E3D1E04F
:1027800004C0FE010E94BC112196C133D107C9F7D4
:04279000F894FFCFEB
:102794000000FC0180000000000021027A01AE016B
:1027A4006E02DF01BD01D1010000000095047A0131
:0627B40045034403000090
:00000001FF
