:100000000C94B70D0C94F70D0C94F70D0C94F70DA0
:100010000C94F70D0C94F70D0C94F70D0C94F70D50
:100020000C94F70D0C9473650C9473650C947365C4
:100030000C94F70D0C94F70D0C94F70D0C94F70D30
:100040000C94F70D0C94FA6B0C94F70D0C94F70DBF
:100050000C94F70D0C94C6660C94F70D0C94EF6598
:100060000C94F70D0C94436C0C94396C0C94F70DB4
:100070000C94F70D0C94F70D0C94F70D0C94F70DF0
:100080000C94F70D0C94F70D0C94F70D0C94F70DE0
:100090000C94F70D0C94F70D0C94F70D0C94F70DD0
:1000A0000C94F70D0C94F70D0C94F70D0C94F70DC0
:1000B0000C94F70D0C94F70D0C94F70D0C94F70DB0
:1000C0000C94F70D0C94F70D0C94F70D0C94F70DA0
:1000D0000C94F70D0C94F70D0C94F70D0C94F70D90
:1000E0000C94F70D084AD73B3BCE016E84BCBFFD94
:1000F000C12F3D6C74319ABD56833DDA3D00C77FF8
:1001000011BED9E4BB4C3E916BAAAABE0000008090
:100110003F07634236B79BD8A71A39685618AEBA5C
:10012000AB558C1D3CB7CC5763BD6DEDFD753EF6F0
:10013000177231BF000000803F05A84CCDB2D44EED
:10014000B93836A9020C50B9918688083CA6AAAAEB
:100150002ABE000000803F08000000BE9224491221
:100160003EABAAAA2ABECDCCCC4C3E00000080BE3D
:10017000ABAAAAAA3E00000000BF000000803F001A
:1001800000000000084178D3BB4387D1133D190E0E
:100190003CC3BD4282AD2B3E68EC8276BED98FE176
:1001A000A93E4C80EFFFBE01C4FF7F3F000000006E
:1001B00000004E414E494E495459494E46CDCCCC93
:1001C0003D0AD7233C17B7D13877CC2B329595E62B
:1001D000241FB14F0A000020410000C84200401C0B
:1001E0004620BCBE4CCA1B0E5AAEC59D74434F4D33
:1001F0004D554E49434154494F4E00445259525572
:100200004E004552524F525300494E464F0045430F
:10021000484F006563686F3A004572726F723A002A
:100220004C4F570048494748004F4B004572726F8A
:10023000723A20416C6C200020636F6E6E656374AF
:10024000696F6E2E2E2E200054657374696E6720C0
:10025000004C4F570048494748004F4B00457272C9
:100260006F723A20416C6C200020636F6E6E656384
:1002700074696F6E2E2E2E200054657374696E673C
:1002800020004C4F570048494748004F4B004572EB
:10029000726F723A20416C6C200020636F6E6E6545
:1002A0006374696F6E2E2E2E200054657374696E10
:1002B0006720004C4F570048494748004F4B0045C6
:1002C00072726F723A20416C6C200020636F6E6E08
:1002D000656374696F6E2E2E2E20005465737469E9
:1002E0006E67200020440020204D32303020530023
:1002F000202844697361626C6564293A0046696C20
:10030000616D656E742073657474696E6773002027
:10031000204D3230312058004D61782041636365B3
:100320006C65726174696F6E2028756E6974732FC5
:100330007332290020204D3230332058004D61782F
:10034000206665656472617465732028756E6974D2
:10035000732F73290020520020204D32303420505A
:1003600000416363656C65726174696F6E20287506
:100370006E6974732F7332292028503C7072696E35
:10038000742D616363656C3E20523C7265747261CA
:1003900063742D616363656C3E20543C74726176B6
:1003A000656C2D616363656C3E2900204A00205412
:1003B0000020530020204D32303520420041647629
:1003C000616E6365642028423C6D696E5F7365678A
:1003D0006D656E745F74696D655F75733E20533C27
:1003E0006D696E5F66656564726174653E20543C3C
:1003F0006D696E5F74726176656C5F666565647267
:100400006174653E204A3C6A756E635F6465763E42
:10041000290020496E76616C696420657874727574
:10042000646572200047322F473320626164207078
:100430006172616D65746572730A002569730025C8
:10044000696D20256973002569682025696D20255F
:10045000697300256964202569682025696D202558
:10046000697300256979202569642025696820253C
:10047000696D20256973005072696E742074696D0E
:10048000653A20006F6B006F6666000E020902027B
:1004900002FB01ED0144454255473A004D313133ED
:1004A000205300434F4E4649475F4558504F5254E2
:1004B000004D4541545041434B00434F4F4C455232
:1004C0005F54454D504552415455524500434841B3
:1004D0004D4245525F54454D504552415455524549
:1004E00000424142595354455050494E47004152F1
:1004F0004353004D4F54494F4E5F4D4F44455300B9
:10050000544845524D414C5F50524F544543544915
:100510004F4E00455854454E4445445F4D323000DF
:10052000435553544F4D5F4649524D574152455FD5
:1005300055504C4F4144004C464E5F57524954452C
:10054000004C4F4E475F46494C454E414D4500419A
:1005500055544F5245504F52545F53445F5354418A
:100560005455530053445F57524954450052455027
:10057000454154005344434152440050524F4D5062
:10058000545F535550504F525400484F53545F419D
:100590004354494F4E5F434F4D4D414E44530045E8
:1005A0004D455247454E43595F50415253455200C5
:1005B000434153455F4C494748545F42524947487D
:1005C000544E45535300544F47474C455F4C4947A1
:1005D00048545300534F4654574152455F504F576C
:1005E0004552004255494C445F50455243454E5494
:1005F000004C4556454C494E475F44415441005AD2
:100600005F50524F42450052554E4F555400415590
:10061000544F4C4556454C005052494E545F4A4F3A
:10062000420050524F4752455353004155544F5288
:1006300045504F52545F54454D50004155544F5210
:1006400045504F52545F504F5300564F4C554D45F7
:100650005452494300454550524F4D0042494E4186
:1006600052595F46494C455F5452414E534645529C
:100670000053455249414C5F584F4E5F584F4646D4
:10068000004649524D574152455F4E414D453A4D06
:1006900061726C696E206275676669782D322E31E1
:1006A0002E782028417072202035203230323320BD
:1006B00030393A31373A32382920534F5552434571
:1006C0005F434F44455F55524C3A676974687562A1
:1006D0002E636F6D2F4D61726C696E4669726D7716
:1006E0006172652F4D61726C696E2050524F544F8C
:1006F000434F4C5F56455253494F4E3A312E3020AE
:100700004D414348494E455F545950453A516F73E6
:1007100061696E204553530A20455854525544454B
:10072000525F434F554E543A3120555549443A6330
:10073000656465326132662D343161322D3437346F
:10074000382D396231322D633535633632663336B2
:10075000376666002F2F003F4A206F7574206F6642
:100760002072616E67652028302E303120746F2032
:10077000302E33290A004F4646004F4E003B2000E2
:1007800020204D61783A2000200020204D696E3AEB
:100790002000203B200020204D32313120530046E4
:1007A000523A0020466C6F773A2000486F6D652002
:1007B00025732573257320466972737400546F6F17
:1007C000206661722066726F6D2072656665726563
:1007D0006E636520706F696E740A00454550524F14
:1007E0004D2064697361626C65640A0020647269FB
:1007F0007665722063757272656E743A20002064AB
:1008000072697665722063757272656E743A200043
:10081000206472697665722063757272656E743ACF
:100820002000206472697665722063757272656E4D
:10083000743A20007370726561644379636C65007B
:10084000737465616C746843686F700020647269CA
:10085000766572206D6F64653A0900737072656128
:10086000644379636C6500737465616C7468436894
:100870006F700020647269766572206D6F64653AEE
:1008800009007370726561644379636C6500737409
:1008900065616C746843686F700020647269766586
:1008A00072206D6F64653A0900737072656164430C
:1008B00079636C6500737465616C746843686F700C
:1008C0000020647269766572206D6F64653A090074
:1008D000202E68737472743A2000202E68656E644E
:1008E0003A20002063686F70706572202E746F6606
:1008F000663A2000202E68737472743A2000202E0D
:1009000068656E643A20002063686F7070657220BD
:100910002E746F66663A2000202E68737472743AE3
:100920002000202E68656E643A20002063686F7096
:10093000706572202E746F66663A2000202E6873F0
:100940007472743A2000202E68656E643A2000208C
:1009500063686F70706572202E746F66663A20004F
:100960003F53206F7574206F662072616E6765203B
:1009700028312E2E38290A003F50206F7574206FC1
:10098000662072616E676520282D332E2E31322944
:100990000A003F4F206F7574206F662072616E678A
:1009A000652028312E2E3135290A00496E76616C7A
:1009B00069642065787472756465720A006F6B00F3
:1009C00020204D323036205800486F6D65206F660C
:1009D00066736574004361703A0020573A002048FE
:1009E00000204600204100205200204300205000FB
:1009F00020204D3330362045004D6F64656C2070EB
:100A000072656469637469766520636F6E74726F72
:100A10006C006F70656E005452494747455245441B
:100A2000003A20007A5F6D696E00795F6D696E0033
:100A3000785F6D696E005265706F7274696E6720C1
:100A4000656E6473746F70207374617475730A00DB
:100A50000000000000000000000000005761726EFE
:100A6000696E673A20486F6D696E672042756D70D8
:100A70002044697669736F72203C20310A000202BB
:100A800004000002430000F0420000C4420000A045
:100A9000400000A04000000040000002430000F0C1
:100AA000420000C4420000000000000000000000FE
:100AB0000048617264636F646564204465666175B3
:100AC0006C742053657474696E6773204C6F616435
:100AD00065640000007041000070410000A040000B
:100AE00000F04000002042000048430060854400C0
:100AF00000C844E8030000E8030000102700000AD3
:100B000000000020286D6D290020204D393036006E
:100B100020543020450053746570706572206472F3
:100B2000697665722063757272656E740020204D5F
:100B300035363920533100543020450020580044C8
:100B40007269766572207374657070696E67206D66
:100B50006F64650020204D3134392043203B2055FF
:100B60006E69747320696E2043656C736975730ACE
:100B70000054656D706572617475726520556E699B
:100B80007473002020473231203B004C696E656150
:100B90007220556E6974730020436F756E7420580F
:100BA0003A00544845524D414C2052554E41574110
:100BB0005900546865726D616C2052756E61776181
:100BC000790048656174696E67204661696C656487
:100BD0000048656174696E67206661696C656400D0
:100BE0004D3131322053687574646F776E004572F1
:100BF000723A204D415854454D50004D415854458E
:100C00004D50207472696767657265640045727241
:100C10003A204D494E54454D50004D494E54454D96
:100C2000502074726967676572656400202F002028
:100C3000403A0020696E7465727275707465642143
:100C40000A004D5043204175746F74756E650070D5
:100C5000012C0190012701B0012201C0011D01F00A
:100C60000118011002130130020E01600209019007
:100C7000020401C002FF000003FA004003F50080F7
:100C800003F000D003EB002004E6007004E100E074
:100C900004DC004005D700C005D2004006CD00D0DE
:100CA00006C8008007C3003008BE00F008B900C0C5
:100CB00009B400B00AAF00B00BAA00D00CA5000028
:100CC0000EA000500F9B00C0109600501291000023
:100CD000148C00C0158700B0178200B0197D00D0B9
:100CE0001B7800001E730040206E0090226900F007
:100CF00024640040275F0090295A00E02B55001023
:100D00002E500020304B0010324600E0334100905E
:100D1000353C001037370070383200A0392D00B054
:100D20003A2800A03B2300603C1E00103D190090B3
:100D30003D1400103E0F00703E0A00C03E0500004A
:100D40003F0000403FFBFF803FF6FFC03FF1FF2028
:100D500020506C616E6E657242756666657242798E
:100D60007465733A20002046726565204D656D6F8D
:100D700072793A200020436F6D70696C65643A2087
:100D800041707220203520323032330A00204C610D
:100D9000737420557064617465643A203230323265
:100DA0002D31322D3231207C20417574686F723ABA
:100DB00020286E6F6E652C2064656661756C7420EA
:100DC000636F6E666967290A004D61726C696E20F7
:100DD0006275676669782D322E312E780A002053AD
:100DE0006F6674776172652052657365740A0020BE
:100DF0005761746368646F672052657365740A0095
:100E00002042726F776E206F75742052657365741F
:100E10000A002045787465726E616C2052657365B6
:100E2000740A00506F77657255700A0073746172AE
:100E3000740A00205A3A0020593A0020583A0065B6
:100E40006E6473746F7073206869743A20000000D8
:100E50002100240027002A002D003000330001016A
:100E60000000040107010A0100000A0B02090C0D31
:100E70000E0807030401000000000000000000004D
:100E80000000000000000000000000000000000062
:100E9000000000001211100000000000000000001F
:100EA0000000000000000000000000000000000042
:100EB00020002300260029002C002F003200000112
:100EC000000003010601090100002200250028009E
:100ED0002B002E0031003400020100000501080142
:100EE0000B010505050507050808080802020202AE
:100EF0000A0A0808040404040101010101010101B6
:100F00000303030303030303040707070C0C0C0C80
:100F10000C0C0C0C02020202060606060606060669
:100F20000B0B0B0B0B0B0B0B0102102020080810F6
:100F30002040102040800201020108040201010249
:100F40000408102040808040201008040201800422
:100F5000020180402010080402010804020101027D
:100F6000040810204080010204081020408024F46E
:100F700004D9201BC40C5C0E9804C4095F026507E9
:100F80007101F405F900FB04B30048048700C103B4
:100F900069005803550003034500BE023A0084026D
:100FA000310053022A002902250004022000E40136
:100FB0001C00C8011900AF0117009801140084013A
:100FC0001300710110006101100051010E00430176
:100FD0000D0036010B002B010B0020010B00150149
:100FE00009000C01090003010800FB000800F300E0
:100FF0000800EB000700E4000600DE000600D80051
:101000000600D2000600CC000500C7000500C200A3
:101010000500BD000400B9000400B5000400B100E3
:101020000400AD000400A9000400A5000300A20014
:1010300003009F0004009B0003009800030095003C
:10104000020093000300900003008D0002008B005B
:101050000300880002008600020084000300810073
:1010600002007F0002007D0002007B000200790088
:101070000200770001007600020074000200720096
:101080000100710002006F0002006D0001006C00A1
:1010900002006A00010069000200670001006600AA
:1010A00001006500010064000200620001006100AF
:1010B0000100600001005F0002005D0001005C00B3
:1010C00001005B0001005A000100590001005800B6
:1010D00001005700010056000100550001005400B6
:1010E00001005300000053000100520001005100B4
:1010F0000100500001004F0001004E0000004E00B2
:1011000001004D0001004C0001004B0000004B00AD
:1011100001004A00010049000100480000004800A9
:1011200001004700010046000000460001004500A4
:10113000000045000100440001004300000043009E
:101140000100420000004200010041000000410097
:101150000100400001003F0000003F0001003E0090
:1011600000003E0001003D0000003D0001003C0089
:1011700000003C0000003C0001003B0000003B0080
:1011800001003A0000003A00010039000000390077
:10119000010038000000380000003800010037006E
:1011A0000000370001003600000036000000360065
:1011B000010035000000350000003500010034005A
:1011C0000000340000003400010033000000330050
:1011D0000000330001003200000032000000320045
:1011E000010031000000310000003100010030003A
:1011F000000030000000300001002F0000002F0030
:1012000000002F0000002F0001002E0000002E0023
:1012100000002E0001002D0000002D0000002D0018
:1012200000002D0001002C0000002C0000002C000C
:1012300000002C0001002B0000002B0000002B0000
:1012400000002B0001002A0000002A0000002A00F4
:1012500000002A00010029000000290000002900E8
:1012600000002900000029000100280000002800DB
:1012700000002800000028000000280001002700CE
:1012800000002700000027000000270000002700C2
:1012900001002600000026000000260000002600B5
:1012A00000002600010025000000250000002500A8
:1012B000000025000000250000002500010024009A
:1012C000000024000000240000002400000024008E
:1012D0000100230000002300000023000000230081
:1012E0000000230000002300000023000100220072
:1012F0000000220000002200000022000000220066
:101300000000220001002100000021000000210057
:101310000000210000002100000021000000210049
:10132000010020000000200000002000000020003C
:10133000000020000000200000002000000020002D
:1013400001001F0000001F0000001F0000001F0020
:1013500000001F0000001F0000001F0001001E0011
:1013600000001E0000001E0000001E00000024F40B
:10137000D43050C38E20C2A24017828B7011127AD3
:10138000910D816CD90AA861E108C75866076151BF
:1013900043061E4B5D05C145A7041A411104093DD2
:1013A0009803713931034036DB0265339102D43042
:1013B0005402802E1D02632CEE01752AC501B0284F
:1013C000A001102781018F2564012B244B01E0220D
:1013D0003401AC211F018D200D01801FFC00841EF3
:1013E000ED00971DDF00B81CD200E61BC600201BD5
:1013F000BC00641AB200B219A8000A19A0006A1849
:101400009900D117910040178B00B5168400311652
:101410007E00B31579003A157300C7146F00581495
:101420006A00EE1366008813630025135E00C7127E
:101430005B006C12570015125400C111510070115D
:101440004F0021114B00D61049008D104700461067
:10145000440002104200C00F4000800F3E00420FC7
:101460003C00060F3B00CB0E3800930E37005C0E9D
:101470003500270E3400F30D3200C10D3100900D00
:101480003000600D2E00320D2D00050D2C00D90C02
:101490002B00AE0C2900850C29005C0C2700350CB4
:1014A00027000E0C2600E80B2400C40B2400A00B20
:1014B00023007D0B23005A0B2100390B2100180B50
:1014C0002000F80A1F00D90A1E00BB0A1E009D0A50
:1014D0001D00800A1D00630A1C00470A1B002C0A1D
:1014E0001B00110A1A00F7091A00DD091900C409C6
:1014F0001900AB091900920917007B09180063094C
:1015000017004C09160036091600200916000A09B2
:101510001500F5081500E0081400CC081400B80800
:101520001400A4081400900813007D0812006B0832
:10153000130058081200460812003408110023084E
:1015400011001208110001081100F0071000E00757
:101550001000D0071000C0071000B0070F00A1074F
:10156000100091070E0083070F0074070F00650736
:101570000E0057070E0049070E003B070D002E070F
:101580000E0020070D0013070D0006070D00F906D9
:101590000C00ED060D00E0060C00D4060C00C80699
:1015A0000C00BC060C00B0060C00A4060B0099064B
:1015B0000C008D060B0082060B0077060B006C06F4
:1015C0000B0061060A0057060B004C060A00420693
:1015D0000A0038060A002E060A0024060A001A0627
:1015E0000A001006090007060A00FD050900F405B7
:1015F0000900EB050900E2050900D9050900D0053D
:101600000900C7050900BE050900B5050800AD05BC
:101610000800A50509009C050800940508008C0534
:101620000800840508007C050800740508006C05A6
:101630000700650508005D050700560508004E0512
:101640000700470507004005080038050700310579
:1016500007002A050700230507001C0506001605DC
:1016600007000F0507000805060002050700FB0438
:101670000600F5040700EE040600E8040600E20494
:101680000700DB040600D5040600CF040600C904E9
:101690000600C3040600BD040600B7040600B1043A
:1016A0000500AC040600A6040600A00405009B0487
:1016B000060095040500900406008A0405008504D0
:1016C0000500800406007A04050075040500700416
:1016D00005006B04050066040500610405005C0458
:1016E000050057040500520405004D040500480498
:1016F0000500430405003E0404003A0405003504D7
:101700000500300404002C04050027040400230411
:1017100005001E0404001A04040016040500110448
:1017200004000D040400090405000404040000047E
:101730000400FC030400F8030400F4030400F003B5
:101740000400EC030400E8030400E4030400E003E5
:101750000400DC030400D8030400D4030400D00315
:101760000400CC030400C8030300C50303003A2EA1
:1017700000007B1D0000181100004A090000DB0476
:1017800000007C02000041010000A100000047327F
:1017900038004D50435F414D4249454E545F5846D5
:1017A00045525F434F4546465F46414E32353520F0
:1017B000004D50435F414D4249454E545F584645A8
:1017C000525F434F45464620004D50435F53454EC0
:1017D000534F525F524553504F4E534956454E4515
:1017E000535320004D50435F424C4F434B5F48459D
:1017F00041545F4341504143495459200020666998
:101800006E69736865642120507574207468652062
:10181000636F6E7374616E74732062656C6F772092
:10182000696E746F20436F6E666967757261746963
:101830006F6E2E680A004D5043204175746F7475A9
:101840006E650054656D70657261747572652065B2
:1018500072726F720A004D6561737572696E6720EE
:10186000616D6269656E7420686561746C6F737315
:10187000206174200048656174696E6720746F2070
:101880006F76657220323030430A00436F6F6C69A7
:101890006E6720746F20616D6269656E740A002046
:1018A000737461727420666F722045004D5043203E
:1018B0004175746F74756E6500486F6D696E672051
:1018C0004661696C656400FFFFFFDB0FC93F45BCE3
:1018D000DA3F8FB30240FCF0274056946140FE4B44
:1018E0009B4084A5D840E0231841346A5641E8590A
:1018F000974164DBD5416E271742B4B75542CE1AE3
:101900009742C8AED542B5885A43D40684BFA65F75
:10191000A7BF7443E0BF10B11AC01C2C58C0E8F632
:1019200097C0B849D6C04E4E17C124D355C18024A4
:1019300097C1A0B5D5C1121A17C244AE55C27817C7
:1019400097C26CACD5C267885AC320453A00205A6A
:101950003A0020593A00583A00204500205A002009
:10196000590020204D39322058005374657073207F
:1019700070657220756E697400220A00556E6B6E78
:101980006F776E20636F6D6D616E643A2022006226
:101990007573793A2070617573656420666F722083
:1019A000696E7075740A00627573793A207061759A
:1019B00073656420666F7220757365720A006275C4
:1019C00073793A2070726F63657373696E670A008A
:1019D000746F6F206D75636820696E6163746976DA
:1019E000652074696D65202D2063757272656E7453
:1019F00020636F6D6D616E643A20002121204B4998
:101A00004C4C2063617573656420627920005072CC
:101A1000696E7465722073746F707065642064758C
:101A20006520746F206572726F72732E204669781C
:101A300020746865206572726F7220616E64207513
:101A40007365204D39393920746F20726573746164
:101A500072742E202854656D70657261747572659C
:101A60002069732072657365742E20536574206934
:101A70007420616674657220726573746172746932
:101A80006E67290A004E6F20436865636B73756D3E
:101A90002077697468206C696E65206E756D62656B
:101AA000722C204C617374204C696E653A2000637F
:101AB0006865636B73756D206D69736D61746368C0
:101AC0002C204C617374204C696E653A20004C697F
:101AD0006E65204E756D626572206973206E6F743D
:101AE000204C617374204C696E65204E756D626583
:101AF000722B312C204C617374204C696E653A2036
:101B0000004D3131300053657269616C207374612E
:101B1000747573206D69736D617463680A004500A4
:101B20002C2073797374656D2073746F70706564A5
:101B300021204865617465725F49443A20006F6BEB
:101B40000A00526573656E643A20005072696E74C3
:101B500065722068616C7465642E206B696C6C28FA
:101B6000292063616C6C6564210A0000316E1124C8
:101B70001FBECFEFD1E2DEBFCDBF00E00CBF84B708
:101B80008093220D14BE0FB6F894A8958091600042
:101B9000886180936000109260000FBE12E0A0E0A8
:101BA000B2E0E0E4F2E001E00BBF02C007900D926A
:101BB000AA3AB107D9F72DE0AAEAB2E001C01D9216
:101BC000A232B207E1F71DE0C7EBDDE000E006C09E
:101BD00021970109802FFE010E94057DC63BD10798
:101BE00080E00807A9F70E94CC6E0C941E810C942B
:101BF0000000DC01ED91FC910190F081E02D27E0E7
:101C000030E040E050E061E01994DC0114968C91E2
:101C10001497807F8A6014968C93149712962C9157
:101C2000129713963C911397482F4F7050E0ED9107
:101C3000FC9111970190F081E02D60E1CD011994A4
:101C4000CF92DF92EF92FF920F931F932EE637E130
:101C500041E0F901C590D590E590F490C616D706FD
:101C6000E806F90658F49695879577956795440F99
:101C70002C5F3F4F57E12A38350759F7409321042D
:101C8000613271058105910568F4EEE6F3E1659135
:101C9000749190E080E01F910F91FF90EF90DF90A2
:101CA000CF900895DC01CB018097A109B10981157E
:101CB00028E09207A105B105D8F044E0949F900177
:101CC00011242259304FF901329645915491F9016E
:101CD000259134916627859FF001849FE10DF61FC1
:101CE0000694E61FF61F11242E1B3F0BB901D1CF1E
:101CF0008C019D0136952795179507950C7F025904
:101D00001C4EF80125913491F80132964591549179
:101D1000682F6770649FC001659F900D112443E098
:101D2000969587954A95E1F7281B390BDFCF0F93DE
:101D30001F93CF93DF93582FFC0180E077E09191C0
:101D400048E0282F30E0A92FB0E08901000F012FD3
:101D5000001F110B9170C92F90E0D92F880F0C171D
:101D60001D0721F0C901880F991F8727B595A795F1
:101D70009A2F415031F79E2F951B961700F3DF9154
:101D8000CF911F910F910895AF92BF92CF92DF92A2
:101D9000EF92FF920F931F93CF93DF936C017B0120
:101DA0008B01040F151FEB015E01AE18BF08C017B1
:101DB000D10759F06991D601ED91FC910190F08124
:101DC000E02DC6011995892B79F7C501DF91CF91D7
:101DD0001F910F91FF90EF90DF90CF90BF90AF9049
:101DE000089520911F04309120042817390771F4B9
:101DF00090911E0480911D04981741F0E0911E04FB
:101E0000F0E0E352FC4F808190E008958FEF9FEF68
:101E100008950895EF92FF920F931F93CF93DF934E
:101E2000DC015C96ED90FC905D97E114F10479F48F
:101E300081E090E013969C938E93129790E080E05F
:101E4000DF91CF911F910F91FF90EF9008955196E0
:101E5000ED91FC91529750968C915097982F9095B8
:101E60000FB75E962C915E97122F127021FD609530
:101E7000F8942081112319F1282B2083E701219761
:101E8000F1F728E0462F50E0308160FF1AC0382B70
:101E90003083E7012197F1F7BA01759567952150D5
:101EA00089F7112381F08081892380830FBF5C969D
:101EB0008D919C910197F1F781E090E0C1CF2923AA
:101EC000DCCF3923E5CF9081892BEFCF20911F0400
:101ED000309120042817390769F480911D0420915E
:101EE0001E0490E0805C9F4F821B910960E470E0CB
:101EF0000C94F27C90E080E0089520911F043091D2
:101F0000200428173907B9F490911E0480911D040C
:101F1000981789F0E0911E04F0E0E352FC4F8081B5
:101F200020911E0430E02F5F3F4F2F733327209303
:101F30001E0490E008958FEF9FEF0895E0911F0435
:101F4000F0912004E817F90769F4A389B4899C91FA
:101F50008589809589238C931092200410921F0408
:101F600081E0089580E00895CF93DF93EC018A8D9E
:101F70009B8D892BF9F080911F04909120048C1780
:101F80009D07C1F0009709F0D9DF8E8D8E7F8E8F6F
:101F900010921D0410921E04D0932004C0931F04BD
:101FA000EB89FC8980819D89892B808381E0DF9189
:101FB000CF91089580E0FBCF90E080E00895282F36
:101FC00030E0F901E859F14F9491F901E85DF04FE3
:101FD00044912E51314FF9012491222309F435C047
:101FE000992311F191509231F8F4E92FF0E088270C
:101FF000E350F04F8F4F0C94057D2E1032100F10D0
:1020000026102A10141035103B103F1045104910AF
:102010004D105310571014105B1061106510809113
:1020200080008F7780938000E22FF0E0EE0FFF1F9B
:10203000E853F14FA591B4918FB7F894EC916111E9
:1020400048C040954E234C938FBF089580918000E7
:102050008F7DE8CF80918000877FE4CF84B58F7734
:1020600084BDE2CF84B58F7DFBCF8091B0008F77A8
:102070008093B000D9CF8091B0008F7DF9CF80914F
:1020800090008F7780939000CFCF809190008F7DCC
:10209000F9CF80919000877FF5CF8091A0008F7756
:1020A0008093A000C1CF8091A0008F7DF9CF809157
:1020B000A000877FF5CF809120018F77809320014A
:1020C000B3CF809120018F7DF9CF80912001877F50
:1020D000F5CF4E2BB8CFCF93DF9390E0FC01E85DB6
:1020E000F04F24918E51914FFC0184918823C9F0C7
:1020F00090E0880F991FFC01E25BF14FA591B4912C
:10210000FC01E853F14FC591D49161110DC09FB707
:10211000F8948C91209582238C938881282328839E
:102120009FBFDF91CF910895623051F49FB7F8942B
:102130003C91822F809583238C93E8812E2BEFCFC7
:102140008FB7F894EC912E2B2C938FBFEACFCF93BF
:10215000DF93EC01ECA5FDA5309709F46EC0138E5A
:10216000128E118E108E178A168A82E490E0958F57
:10217000848F848596EF980F943048F02EEC280FCA
:10218000243028F022EC280F283008F051C02FE02E
:1021900030E0378B268B20E430E0318F208F27E230
:1021A00030E0338F228F943050F02EEC280F243003
:1021B00030F022EC280FB0E0A0E0283010F4A8E6C0
:1021C000B0E02C91943028F032EC380F383008F41D
:1021D0003FC031E0232B943048F09EEC980F9430B0
:1021E00028F08E53B0E0A0E0883010F4A8E6B0E00C
:1021F0002C93248536EF320F343060F18EEC820F51
:10220000843040F182EC820F883038F190E080E039
:10221000948B838B343020F52650330B81E001C042
:10222000880F2A95EAF7858B848D958D0197F1F7B4
:10223000CF019ADE8CA59DA581DE8EA59FA5009776
:1022400009F161E0BCDE61E08EA5DF91CF9143CF63
:1022500034E0C0CF8BE690E0DBCF8DE690E0D8CFC6
:1022600088E0223301F384E02333E9F282E024336F
:10227000D1F282EC820F883018F42E53330BCECF7C
:1022800081E0D1CFDF91CF9108953FB7F89480914D
:10229000D9039091DA03A091DB03B091DC0326B55A
:1022A000A89B05C02F3F19F00196A11DB11D3FBF8E
:1022B000BA2FA92F982F8827BC01CD01620F711D5D
:1022C000811D911D42E0660F771F881F991F4A9557
:1022D000D1F708958F929F92AF92BF92CF92DF92E3
:1022E000EF92FF926B017C01D0DF4B015C01C114C6
:1022F000D104E104F104B1F0C8DF681979098A0951
:102300009B09683E73408105910588F321E0C21A5C
:10231000D108E108F10888EE880E83E0981EA11C20
:10232000B11CE5CFFF90EF90DF90CF90BF90AF90C2
:102330009F908F9008952FB7F8946091D503709176
:10234000D6038091D7039091D8032FBF0895CF93E0
:10235000DF93EC016C816170888131DE6C81669560
:1023600061708A81DF91CF912ACEDC0115966C9342
:102370001597262F30E050E040E0ED91FC91019060
:10238000F081E02D61E11994DC01ED91FC91008474
:10239000F185E02D1995611571058105910539F0DB
:1023A0006F3F7F4F8F4F9F4F21F080E0089582E075
:1023B000089581E00895CF92DF92EF92FF921F93EC
:1023C000CF93DF93EC0190E080E00E94C77825ED89
:1023D00034E045E352E40E94287920E030E04AE707
:1023E00054E40E94327E6B017C012AE037ED43EA1F
:1023F0005CE369857A858B859C850E94567DA70163
:1024000096010E94287926E636E646EA5EE30E94B7
:10241000327E20E030E040E85FE30E94557D0E947C
:10242000D07E162FE881F9810480F581E02D60319E
:1024300008F060C061E0CE0119952AE037ED43EA6B
:102440005CE369857A858B859C850E94567DA70112
:1024500096010E9428792CEE31E548E35EE30E9464
:10246000327E20E030E040E85FE30E94557D0E942C
:10247000D07E162F103208F01FE1912F9F718B81B3
:10248000807E892B8B832A81382F8C81482F4F7037
:1024900050E0E881F9810190F081E02D60E1CE010A
:1024A0001995612F70E090E080E00E94C9782D8539
:1024B0003E854F8558890E9428790E94D07E862FBC
:1024C0008F716A81607E682B6A83262F3B818C81A5
:1024D000482F4F7050E0E881F9810190F081E02DA4
:1024E00060E1CE01DF91CF911F91FF90EF90DF90DF
:1024F000CF90199460E0CE011995BCCFFC01A4A542
:10250000B5A5109749F0ED91FC9111970190F081DC
:10251000E02DCD011995089582A593A5009739F076
:10252000DC01ED91FC910190F081E02DF3CF80E092
:102530000895CF92DF92EF92FF920F931F93CF9364
:10254000DF9300D000D01F921F92CDB7DEB77C0181
:1025500018861F8285E08983F70182A98A836068D3
:102560006B835C834D833E832F8367E0CE010196AE
:10257000DEDB8887F70182A593A5892B29F080A946
:1025800091A9009709F0E3DE8E010F5F1F4F6E01E6
:10259000F9E0CF0ED11CF80161918F01C701AEDFC8
:1025A000F70121893289820F932F911D928B818BA4
:1025B0000C151D0581F762E070E080E090E08ADE96
:1025C00028960FB6F894DEBF0FBECDBFDF91CF9136
:1025D0001F910F91FF90EF90DF90CF900895FC0135
:1025E000A4A5B5A5109741F0ED91FC911197028437
:1025F000F385E02DCD01199482A593A5009739F0BC
:10260000DC01ED91FC910284F385E02DF4CF90E0A4
:1026100080E00895FC01A4A5B5A5109741F0ED91C7
:10262000FC9111970084F185E02DCD01199482A5CC
:1026300093A5009739F0DC01ED91FC910084F185C0
:10264000E02DF4CF90E080E008952F923F924F92DA
:102650005F926F927F928F929F92AF92BF92CF9232
:10266000DF92EF92FF920F931F93CF93DF93CDB73B
:10267000DEB761970FB6F894DEBF0FBECDBF1C0169
:102680001C861B8685E08987F10182A98A876B8772
:1026900063E0CE0109964BDB8C87F2E0F98B9E015B
:1026A000235F3F4F3E872D87F10184A595A50097B5
:1026B00049F05ADCC101AEDF181619066CF4C101ED
:1026C0008EDFF8CF82A593A5892BA1F380A991A9CC
:1026D000009781F33CDEEECFF10186A597A5009728
:1026E00031F061E06CDC61E0F10186A5F4DC8E0183
:1026F000075F1F4FF80161918F01C101FFDE2D853A
:102700003E8502171307B1F7F10186A597A500973B
:1027100011F062E0E0DC62E070E080E090E0DADDA1
:102720000ADE2B013C018985CB84D12CF12CE12CD4
:10273000DD24DA94E82A812C912C540105E010E084
:10274000FADD641575058605970531F0015011090C
:1027500009F46CC02B013C01C10141DF97FD0FC0A2
:102760007A2D692D582D44274C019924092C000CF1
:10277000AA08BB08842A952AA62AB72ABB24C8140B
:10278000D904EA04FB04E1F626013701812C912CDF
:102790005401D1DD6B017C0125E030E0388B2F87BF
:1027A00010E0C9DD6C157D058E059F0549F0EF85AC
:1027B000F8893197F88BEF87EF2BC1F16B017C0122
:1027C000C1010DDFDC0197FD1CC09201A301B40122
:1027D000C50108E00E941F7DBB27EB2FEE0FEE0B1B
:1027E000422E4A2A532E5B2A6E2E642A7E2E752A8A
:1027F0008E2E862A9E2E972AAE2EA82ABE2EB92A63
:102800001F5F153071F6F10186A597A5009731F08D
:1028100061E0D5DB61E0F10186A55DDCC101FADE96
:10282000181619065CF4C101DADEF8CF412C512CE0
:10283000612C712C812C912CA12CB12CF10184A53F
:1028400095A5009709F07ADB62E070E080E090E007
:1028500041DDF101178A9201A301B401C50108E32A
:102860000E943A7D29839201A301B401C50100E3CE
:102870000E943A7D2A839201A301B401C50108E2B6
:102880000E943A7D2B839201A301B401C50100E2AD
:102890000E943A7D2C839201A301B401C50108E195
:1028A0000E943A7D2D839201A301B401C50100E18C
:1028B0000E943A7D2E839201A301B401C50108E074
:1028C0000E943A7D2F83488667E0CE0101962FDA79
:1028D000481202C0411011C081E0F101878BF989D3
:1028E000F13019F021E0298BDFCE412C512C612CE5
:1028F000712C812C912CA12CB12C9201A301B4013B
:10290000C50108E00E943A7DB901CA0161960FB67F
:10291000F894DEBF0FBECDBFDF91CF911F910F9115
:10292000FF90EF90DF90CF90BF90AF909F908F90EF
:102930007F906F905F904F903F902F900895DC01B3
:1029400096964D935D936D937C939997ED91FC9141
:102950000190F081E02D9A01AB0160E71994DC0150
:10296000ED91FC910280F381E02D60E0199562FB0E
:10297000882780F908959A01AB01DC0158962C93C1
:102980005897632F63705996EC915997EC7FE62B1B
:102990005996EC935997ED91FC910190F081E02DBF
:1029A00060E01994DC01ED91FC910280F381E02D4F
:1029B0006FE61994262F2F70DC0195966C919597F0
:1029C000607F622B95966C93959792962D913D9191
:1029D0004D915C919597ED91FC910190F081E02DE6
:1029E0006CE61994DC0194962C91949760FB21F984
:1029F00094962C93949792962D913D914D915C9144
:102A00009597ED91FC910190F081E02D6CE6199481
:102A1000DC0193968C91939760FB87F993968C9346
:102A2000939761FB882780F994966C9194976E7FB9
:102A3000682B94966C93949792962D913D914D911D
:102A40005C919597ED91FC9111970190F081E02DAB
:102A50006CE6CD011994DC0192968C91929760FB03
:102A600087F992968C9392976695677093968C915E
:102A70009397887F682B93966C93939792962D915A
:102A80003D914D915C919597ED91FC91119701903D
:102A9000F081E02D6CE6CD0119946770262F229508
:102AA000207FDC0192966C9192976F78622B9296C0
:102AB0006C93929792962D913D914D915C91959743
:102AC000ED91FC910190F081E02D6CE61994DC0110
:102AD000ED91FC910280F381E02D6CE61994F7DF13
:102AE000892F8F700895F3DF869581700895EFDF49
:102AF000771F7727771F8170880F872B0895E7DF6F
:102B0000862F881F8827881F7770770F872B089557
:102B1000DEDF862F829587700895DC0192964D93B3
:102B20005D936D937C939597ED91FC910190F0816D
:102B3000E02D9A01AB016CE61994CF93DF93EC0181
:102B40002A813B818C81482F4F7050E0E881F981C8
:102B50000190F081E02D60E1CE0119956D81CE01EB
:102B600004DC2E813F818885482F4F7050E0E8813A
:102B7000F9810190F081E02D63E1CE011995488D36
:102B8000898D582F537070E060E0CE01F4DE2A8DFD
:102B90008B8D382F3F7022273F702A8F932F9F7085
:102BA000807F892B8B8F50E040E0E881F981019094
:102BB000F081E02D63E0CE0119952E8D3F8D48A167
:102BC00059A1E881F9810190F081E02D62E2CE0106
:102BD00019954AA15BA16CA17DA1CE019EDF4EA1FA
:102BE0005FA168A579A5CE01AADE2BA93CA98DA974
:102BF000482F4F7050E0E881F9810190F081E02D7D
:102C000064E1CE0119952EA930E050E040E0E88162
:102C1000F9810190F081E02D60E4CE0119952FA992
:102C200038AD50E040E0E881F9810190F081E02D7D
:102C300062E4CE01DF91CF911994CF93DF93C091DD
:102C4000F50AD091F60A209721F16091F10A70916E
:102C5000F20A8091F30A9091F40A0E94CB7E6E5F93
:102C60007F4F24976C177D07A4F470937B036093C8
:102C70007A0361DB605C73468F4F9F4F60937C03E8
:102C800070937D0380937E0390937F03DF91CF91B8
:102C9000089510927C0310927D0310927E0310928F
:102CA0007F03F4CFCF93DF9310927904CDEEDAE077
:102CB00019861886C2DF1A862C98DF91CF91089565
:102CC000FC0190E1A0E8BAE001900D929A95E1F73D
:102CD0000895BC012091590330915A034091590342
:102CE00050915A032417350731F481E0261737072E
:102CF00009F080E008959A01F1CF000080918403EB
:102D000080FF23C089988FEF809310038091840304
:102D100081FF1EC08F9A8FEF8093110380918403EF
:102D200082FF19C080910B01809582708093090108
:102D30008FEF809312038091840383FF13C0169852
:102D40008FEF8093130300000895899A81E0DCCF10
:102D50008F9881E0E1CF80910B018270809309010F
:102D600081E0E7CF169A81E0ECCF80910F03877F57
:102D700080930F03129A81E00895129880910F03B7
:102D8000886080930F03089521E030E0082E02C090
:102D9000220F331F0A94E2F72095309590910F038C
:102DA000292320930F03813061F020F0823071F0ED
:102DB00081E008955F9A809183038E7F80938303DF
:102DC000F7CF8A9A809183038D7FF8CF8091080195
:102DD0008095817080930601809183038B7FEECF75
:102DE00080E0D2DF81E0D0DF82E0CEDFBECF813075
:102DF00089F070F0823081F021E030E001C0220FD4
:102E00008A95EAF780910F03822B80930F03089530
:102E10005F98F2CF8A98F0CF9091080191709093CB
:102E20000601EACFCF93DF93EC01C43081E0D807ED
:102E300064F184E091E09093F60A8093F50AC4E08F
:102E4000D1E06091F10A7091F20A8091F30A9091B9
:102E5000F40A0E94CB7E6E5F7F4F24976C177D072C
:102E6000D4F470937B0360937A0365DA605C7346F5
:102E70008F4F9F4F60937C0370937D0380937E03FD
:102E800090937F03DF91CF910895D093F60AC0937A
:102E9000F50A2097B1F610927C0310927D031092F0
:102EA0007E0310927F03EECFAF92BF92CF92DF925C
:102EB000EF92FF920F931F93CF93DF93C0E9DAE075
:102EC00007E314E080EAA82E8AE0B82EC12CD12CAA
:102ED0007601C39469917991899199910E94C778FB
:102EE000288939894A895B890E9428790E94D07E85
:102EF000F80161937193819391938F01C616D70660
:102F0000E806F90610F46B017C01AC16BD0611F75A
:102F10006FEF7FEFCB01A70196010E94877C209382
:102F20004704309348044093490450934A04DF9186
:102F3000CF911F910F91FF90EF90DF90CF90BF90B6
:102F4000AF900895CF92DF92EF92FF9280910E039F
:102F5000882309F457C0C0900A03D0900B03E09077
:102F60000C03F0900D0320E030E0A901C701B60189
:102F70000E94C378882309F445C020E030E040E097
:102F80005FE3C701B6010E9428799B01AC010E9452
:102F900028792BED3FE049E450E40E9428799B0119
:102FA000AC0160E070E080E89FE30E94327E6B013C
:102FB0007C01C0920603D0920703E0920803F092CE
:102FC00009036091080270910902072E000C880B1A
:102FD000990B0E94C9782AE037ED43E25CE30E9436
:102FE0002879A70196010E94287960933402709392
:102FF00035028093360290933702FF90EF90DF9076
:10300000CF900895C12CD12C80E8E82E8FE3F82EC4
:10301000D0CF8091030D9091040D891B8F7019F40E
:1030200090E080E008959091000D992351F0833055
:1030300030F48FEF890F19F08093000DF1CF1092CB
:10304000000D8091040D27E4829FC0011124805F50
:10305000994FFC01208120FDE3CF2091040D2F5FCB
:103060002F702093010D3091040D2091020D321329
:1030700004C02091010D2093020D089590916F00DE
:1030800081E091FD02C080E0089590916F009D7FE6
:1030900090936F000895EFE6F0E080818260808376
:1030A00008954F925F926F927F928F929F92AF920C
:1030B000BF92CF92DF92EF92FF92CF93DF93CDB783
:1030C000DEB765970FB6F894DEBF0FBECDBF609137
:1030D000140B7091150B8091160B9091170B9B019F
:1030E000AC010E94E1808823A9F1C090F10AD09040
:1030F000F20AE090F30AF090F40A20E030E040EFAA
:1031000051E4B601C7010E94AD7F18160CF402C24B
:103110005C2D4D2D3E2D2F2D852F942FA32FB22FBB
:103120008093100B9093110BA093120BB093130B81
:10313000C601D7018093180B9093190BA0931A0B1B
:10314000B0931B0B8093140B9093150BA093160B4D
:10315000B093170BC090040BD090050BE090060BBA
:10316000F090070B6091EC0A70E090E080E00E9424
:10317000C97821E830E840E85BE30E942879209193
:10318000080B3091090B40910A0B50910B0B0E94D8
:103190002879A70196010E94567D69837A838B83E3
:1031A0009C836CDFC0908C0AD0908D0AE0908E0AD0
:1031B000F0908F0A81116FDF8091E80A9091E90AFF
:1031C000A091EA0AB091EB0AA7019601281B390BDE
:1031D0004A0B5B0BCA01B9010E94C9782091E40A2D
:1031E0003091E50A4091E60A5091E70A0E94287959
:1031F0002CEA35EC47E25EE30E94327E4B015C0133
:103200009F772091C00A3091C10A4091C20A509123
:10321000C30A0E94AD7F18160CF081C1C092E80A63
:10322000D092E90AE092EA0AF092EB0A3091F70AAA
:103230003D8B8091F80A9091F90AA091FA0AB09119
:10324000FB0A89879A87AB87BC872091FC0A30915B
:10325000FD0A4091FE0A5091FF0A2D833E834F8361
:1032600058873D89632F70E090E080E00E94C97824
:1032700029853A854B855C850E9428792CED37E1BC
:1032800049EA5AE30E9428792D813E814F81588571
:103290000E94327E4B015C018091100B9091110BCA
:1032A000A091120BB091130B8D879E87AF87B88BBF
:1032B000C090140BD090150BE090160BF090170BEC
:1032C000A7019601BC01CD010E94557D29813A815B
:1032D0004B815C810E9428792CEA35EC47E25EE361
:1032E0000E9428792D813E814F8158850E94327E2F
:1032F000A50194010E94567D698B7A8B8B8B9C8BE8
:103300009B01AC01C701B6010E94567D4B015C01D7
:10331000C090180BD090190BE0901A0BF0901B0B7B
:103320002CEA35EC47E25EE36091000B7091010BF3
:103330008091020B9091030B0E9428792B013C0194
:10334000A7019601C501B4010E94557D9B01AC0106
:10335000C301B2010E942879A70196010E94567DFF
:103360002B013C01AC019B016091F10A7091F20AC2
:103370008091F30A9091F40A0E94557D20E030E09C
:1033800040E05FE30E9428796B017C01AC019B0166
:10339000C501B4010E94567D4B015C018092140B63
:1033A0009092150BA092160BB092170BA7019601E5
:1033B000C301B2010E94567D6093180B7093190BE4
:1033C00080931A0B90931B0B9D8991509E3788F028
:1033D000A701960169897A898B899C890E94567D0B
:1033E0009F772CEA35EC47EA5DE30E94C37887FFBC
:1033F0002CC020E030E0A901C701B6010E94AD7FDA
:1034000018160CF0AFC02CEA35EC47E25EE3C701BA
:10341000B6010E94AD7F181644F02CEAC22E25ECAE
:10342000D22E27E2E22E2EE3F22EA70196016D8521
:103430007E858F8598890E94567D6093100B7093CE
:10344000110B8093120B9093130B6091F50A7091FE
:10345000F60A6115710509F498C0072E000C880B57
:10346000990B0E94C978A50194010E94557D2D8178
:103470003E814F8158850E94287920E030E040E06D
:103480005FE30E9428796B017C01A50194016091A2
:10349000100B7091110B8091120B9091130B0E94E5
:1034A000557D29813A814B815C810E9428799B015D
:1034B000AC01C701B6010E94557D20E030E04EE727
:1034C00053E40E94287929853A854B855C850E94C2
:1034D000327E20E030E040E85FE30E94567D6B01E1
:1034E0007C0120E030E0A9010E94C37887FD51C033
:1034F00020E030E048EC52E4C701B6010E94AD7F05
:1035000018160CF049C0C12CD12C88ECE82E82E4AE
:10351000F82E42C050E040E030EF21E4FDCD20E045
:1035200030E0A901C501B4010E94AD7F18160CF06E
:103530007DCE20910C0B30910D0B40910E0B5091D4
:103540000F0BC501B4010E9428799B01AC01698170
:103550007A818B819C810E94567D69837A838B83DB
:103560009C835CCE2CEA35EC47E25EEBC701B601EA
:103570000E94C37887FD59CF9CEAC92E95ECD92EBD
:1035800097E2E92E9EEBF92E50CF60E070E0CB0180
:1035900094CFC12CD12C7601C701B60165960FB628
:1035A000F894DEBF0FBECDBFDF91CF91FF90EF90BB
:1035B000DF90CF90BF90AF909F908F907F906F9053
:1035C0005F904F900895CF93C82F58DD94E0C99F26
:1035D00090011124F901E55AFC4F2058354FD901CB
:1035E0004D915D916D917C91408351836283738392
:1035F00091E090936703882311F0CF914CCDCF9148
:103600000895CF92DF92EF92FF92CF93DF93C82F6E
:1036100035DD94E0C99FE0011124FE01E058F54F2B
:10362000C080D180E280F380811135DDC852D54F52
:10363000C701B6010E94C978288139814A815B811E
:103640000E942879DF91CF91FF90EF90DF90CF908B
:103650000895CF92DF92EF92FF92CF93DF93C82F1E
:103660000DDD94E0C99FE0011124FE01E55AFC4FF5
:10367000C080D180E280F38081110DDDC852D54F2A
:10368000C701B6010E94C978288139814A815B81CE
:103690000E942879DF91CF91FF90EF90DF90CF903B
:1036A0000895FC017081472F50E0062E02C0559509
:1036B00047950A94E2F740FF14C04091E90250E0B8
:1036C000062E02C0559547950A94E2F740FF09C0BF
:1036D00021E030E001C0220F6A95EAF72095272308
:1036E00020830895CF93DF931F92CDB7DEB787E095
:1036F000898360E0CE010196D4DF61E0CE010196BE
:10370000D0DF62E0CE010196CCDF89810F90DF919E
:10371000CF910895CF93DF9324E0829FC0011124BD
:10372000EC01C15BDB4FFC01EB57FC4F86519D4F19
:10373000DC012D913D914D915C916081718182817F
:1037400093810E94567D688379838A839B83DF916E
:10375000CF9108958F929F92AF92BF92CF92DF92B6
:10376000EF92FF92CF93DF9320910A02222309F474
:103770008EC0EC018091E902E82E80FF2CC0809081
:103780000C0290900D02A0900E02B0900F022881C2
:1037900039814A815B81C501B4010E94AD7F181651
:1037A00024F488829982AA82BB8280901802909029
:1037B0001902A0901A02B0901B02288139814A8117
:1037C0005B81C501B4010E94C37887FF04C0888271
:1037D0009982AA82BB82E1FE2CC080901002909058
:1037E0001102A0901202B09013022C813D814E81F3
:1037F0005F81C501B4010E94AD7F181624F48C824C
:103800009D82AE82BF8280901C0290901D02A0908B
:103810001E02B0901F022C813D814E815F81C50147
:10382000B4010E94C37887FF04C08C829D82AE825F
:10383000BF82E2FE2CC0C0901402D0901502E0902E
:103840001602F0901702288539854A855B85C701E5
:10385000B6010E94AD7F181624F4C886D986EA8680
:10386000FB86C0902002D0902102E0902202F090CE
:103870002302288539854A855B85C701B6010E94E8
:10388000C37887FF04C0C886D986EA86FB86DF91A5
:10389000CF91FF90EF90DF90CF90BF90AF909F902F
:1038A0008F900895CF93DF938091E80265994AC085
:1038B00081608093E802909103018091E80291FD7C
:1038C00043C082608093E8028091E8024B9B3EC037
:1038D00084608093E802C0914C03C0FF0FC08091C8
:1038E000840380FF0BC08091E80280FF07C08091B5
:1038F000220481608093220480E065DEC1FF0FC056
:103900008091840381FF0BC08091E80281FF07C092
:103910008091220482608093220481E054DEC2FF01
:1039200017C08091840382FF13C08091E80282FF58
:103930000FC08091220484608093220482E0DF9192
:10394000CF9141CE8E7FB5CF8D7FBCCF8B7FC1CF46
:10395000DF91CF9108950F931F938091E7028130FB
:1039600019F50E949B110091DF021091E002209155
:10397000E1023091E202601B710B820B930B28EE87
:1039800033E040E050E00E94877C6091DB02709160
:10399000DC028091DD029091DE02620F731F841FB2
:1039A000951F1F910F9108956091E3027091E402B9
:1039B0008091E5029091E602D6CF1092E702109234
:1039C000DF021092E0021092E1021092E2021092E5
:1039D000E3021092E4021092E5021092E6021092C5
:1039E000DB021092DC021092DD021092DE020895DA
:1039F0008091E7028130E1F08230C1F4ACDF609366
:103A0000DB027093DC028093DD029093DE0281E0A2
:103A10008093E7020E949B116093DF027093E002A3
:103A20008093E1029093E20281E00895C6DFEFCF38
:103A300080E008958091E7028150823070F4109206
:103A4000E7020E949B116093E3027093E40280936B
:103A5000E5029093E60281E0089580E0089590E009
:103A600080E008952091B702833021F425FD0CC039
:103A700024FD0CC030E0A90102C0559547958A95F8
:103A8000E2F7CA018170089581E0089580E0089509
:103A90008091D20284FD0BC08091D40287FD07C0C3
:103AA0009091D502937081E019F480E0089581E04F
:103AB00008952FEB280F2A3108F047C0E22FF0E0DD
:103AC0008091D2029091D302A091D402B091D502FC
:103AD00004C0B695A795979587952A95D2F780FD4E
:103AE00002C081700895E854FD4FE081EE2341F15A
:103AF00080917A0490917B04E80FF92FF11D808169
:103B000090ED980F9A3030F08E3251F481818053CD
:103B10008A3098F4F093B602E093B50281E00895FC
:103B20008D3211F08B3249F4818190ED980F9A30EB
:103B300088F38E3211F48281EACFF0E0E0E0EACF40
:103B40001092B6021092B502E9CF80E00895B1DF7D
:103B5000882341F081E02091B5023091B602232BF9
:103B600009F480E0089581E00895CF93DF93EC019C
:103B7000E62F660FFF0BE859F14FE491E250E13177
:103B800008F0B0C0F0E08827E753F24E8F4F0C9456
:103B9000057DDA1D721E721E721E721E041EE61D47
:103BA000281E261E061E4C1E4A1E2A1E721E701E2F
:103BB0006E1E4E1E82E1ECE4F2E0DE0101900D92F9
:103BC0008A95E1F7CE01DF91CF91089581E020EB56
:103BD00030E03983288321EB30E03B832A831D8248
:103BE0001C8223EB30E03F832E8324EB30E03987C7
:103BF00028871B861A861D861C8692E09E878F87E3
:103C000081E0888B198ADECF80E0E1CF81E08F5F91
:103C100020E930E03983288321E930E03B832A839F
:103C200022E930E03D832C8328E930E03F832E8376
:103C30002AE930E0398728872CE930E03B872A875A
:103C400026E930E03D872C8793E0D8CF80E0DFCFB6
:103C500080E0DECF81E08F5F20EA30E03983288387
:103C600021EA30E03B832A8322EA30E03D832C8343
:103C700028EA30E03F832E832AEA30E0398728871C
:103C80002CEA30E03B872A8726EA30E03D872C8704
:103C900094E0B4CF80E0DFCF80E0DECF81E08F5FC3
:103CA00020E231E03983288321E231E03B832A831B
:103CB00022E231E03D832C8328E231E03F832E83F2
:103CC0002AE231E0398728872CE231E03B872A87D6
:103CD00026E231E03D872C8795E090CF80E0DFCF72
:103CE00080E0DECF82E1FE0111928A95E9F76ACF8A
:103CF000CF92DF92EF92FF920F931F93CF93DF93B8
:103D0000CDB7DEB762970FB6F894DEBF0FBECDBF5A
:103D10008C010E949B11F80120812223B9F030E030
:103D200050E040E02150310941095109AFEFB0E0C6
:103D30000E94C57C2EEF30E040E050E00E94A97C5C
:103D400069017A0189012115310511F460E08CC007
:103D500061E02F3F310509F487C069E0CE0101968B
:103D600004DF8989882309F47AC0E981FA819F8573
:103D70008889911136C0608190E023E030E0A9018C
:103D8000481B590B440F551F042E01C0220F0A94E3
:103D9000EAF72095262362E070E001C0660F4A959D
:103DA000EAF7262B2083FC013396EE0FFF1F21E05C
:103DB00030E02C0F3D1FE20FF31F0190F081E02D4A
:103DC000D182C08262960FB6F894DEBF0FBECDBF1F
:103DD000DF91CF911F910F91FF90EF90DF90CF90E7
:103DE00008952A892111EECFAFEFB0E0923029F08B
:103DF000AD85BE850D90BC91A02D608190E023E043
:103E000030E0A901481B590B440F551F042E01C077
:103E1000220F0A94EAF72095262362E070E001C0A1
:103E2000660F4A95EAF7262B20830396880F991F81
:103E3000E1E0F0E0EC0FFD1F8E0F9F1FFC01008101
:103E40001181A70196010E94C57C2FEF30E040E070
:103E500050E00E94877CF80131832083B3CF61E07A
:103E60000F37110508F472CF89E062960FB6F89407
:103E7000DEBF0FBECDBFDF91CF911F910F91FF909D
:103E8000EF90DF90CF900C94DF0F9091C00095FFE2
:103E9000FCCF8093C60008958F929F92AF92BF92FD
:103EA000EF92FF921F93CF93DF93CDB7DEB7A0972A
:103EB0000FB6F894DEBF0FBECDBF61157105810549
:103EC000910589F120E04AE0842E912CA12CB12C9F
:103ED00011E0120FEE24E394F12CEC0EFD1EE20E25
:103EE000F11C27FDFA94A50194010E94877CF7013B
:103EF0006083B901CA01212F611571058105910502
:103F000039F7115008F1E1E0F0E0EC0FFD1FE10F8F
:103F1000F11D17FDFA95908187E39A3008F480E34C
:103F2000890FB3DFEECF80E3A0960FB6F894DEBF23
:103F30000FBECDBFDF91CF911F91FF90EF90BF904B
:103F4000AF909F908F90A1CFA0960FB6F894DEBF50
:103F50000FBECDBFDF91CF911F91FF90EF90BF902B
:103F6000AF909F908F900895CF92DF92EF92FF9243
:103F70006B017C01F7FE0AC0F094E094D094C094E9
:103F8000C11CD11CE11CF11C8DE27FDFC701B60111
:103F9000FF90EF90DF90CF907FCF682F880F770B47
:103FA000880B990BE1CFBC01990F880B990BDCCFE3
:103FB0008F929F92AF92BF92CF92DF92EF92FF9239
:103FC000CF936B017C01B42E20E030E0A9010E9468
:103FD000C37887FF06C08DE258DFF7FAF094F7F850
:103FE000F09460E070E080E09FE3C0E02DEC3CECFA
:103FF0004CEC5DE30E942879CF5FBC12F7CFA7019C
:1040000096010E94567D6B017C010E94D07E4B017F
:104010005C010E94C7789B01AC01C701B6010E94F8
:10402000557D6B017C01C501B40136DF8EE22DDFC9
:10403000C150E0F020E030E040E251E4C701B601B9
:104040000E9428796B017C010E94D07E4B015C01AB
:1040500023DFC501B4010E94C7789B01AC01C701F1
:10406000B6010E94557D6B017C01E2CFCF91FF909C
:10407000EF90DF90CF90BF90AF909F908F9008957A
:10408000CF93DF93EC018991882311F0FEDEFBCF03
:10409000DF91CF910895F4DF8DE0F7DE8AE0F5CE71
:1040A000CF93DF93EC01FE0184912196882311F0D8
:1040B000ECDEF9CFDF91CF910895CF92DF92EF92AE
:1040C000FF92EEE1FBE080818183C090A00BD09055
:1040D000A10BE090A20BF090A30B8FEFC81AD80AA7
:1040E000E80AF80A82E49BE1DBDFC701B6013CDFA6
:1040F0008AE0CBDE8EE39BE1FF90EF90DF90CF90E4
:10410000CFCF8F929F92AF92BF92CF92DF92EF92DA
:10411000FF920F931F93CF93DF93C82F0DEE1AE0FA
:10412000F80160857185072E000C880B990B0E94A1
:10413000C9786B017C01F80184809580A680B780E6
:1041400080E2A3DE84E5A1DE8AE39FDE42E0C501D2
:10415000B4012EDF8CE29CE0A3DF42E0C701B60190
:1041600027DF62E070E080E090E00E946A118FE259
:10417000C802F0011124E351F54FC285D0E08FE26F
:104180009CE08EDFCE01DF91CF911F910F91FF90C8
:10419000EF90DF90CF90BF90AF909F908F9003CF24
:1041A000CF92DF92EF92FF92CF93DF93EC01C88022
:1041B000D980EA80FB8088E99BE072DFC701B60105
:1041C000D3DECC80DD80EE80FF8082E599E168DF80
:1041D000C701B601C9DEC884D984EA84FB848EE4B1
:1041E00099E15EDFC701B601BFDE8AE0DF91CF91C2
:1041F000FF90EF90DF90CF9048CE0F931F93CF9317
:104200008C01C62F85ED99E04BDFC80149DF8AE3B9
:104210003CDE80E38C0F39DE8AE0CF911F910F9155
:1042200034CECF93C62F3CDF6C2F70E090E080E05F
:1042300033DE8AE0CF9129CE89E192E031CF83E16C
:1042400092E02ECFCF93DF93FADFC0917A04D09122
:104250007B048CE799E124DFCE0112DF89E799E145
:10426000DF91CF911DCF0F931F93CF93811111C079
:10427000C42F8B01E4DF8DE797E012DFC80110DF68
:10428000CC2339F08AE301DE8AE0CF911F910F91B0
:10429000FCCDCF911F910F910895CF93C82F41E08E
:1042A000E2DFC11102C0CF91CACFCF910895CF9361
:1042B000C82F41E069EF79E0D6DFC11101C0BFDF4F
:1042C00080EF99E0EDDE80E068DE8DEE99E0E8DEDB
:1042D0006091F80A7091F90A8091FA0A9091FB0AAC
:1042E00042E066DE8AEE99E0DBDE6091FC0A7091C6
:1042F000FD0A8091FE0A9091FF0A42E059DE87EEA6
:1043000099E0CEDE6091000B7091010B8091020B61
:104310009091030B44E04CDE84EE99E0C1DE6091A5
:10432000040B7091050B8091060B9091070B44E0F4
:104330003FDE81EE99E0B4DE2091080B3091090B4D
:1043400040910A0B50910B0B6091040B7091050B7F
:104350008091060B9091070B0E94567D44E028DE69
:104360008EED99E09DDE60910C0B70910D0B8091AC
:104370000E0B90910F0B44E01BDE8AE0CF9185CDB0
:10438000CF92DF92EF92FF926A017B0189DE42E0D9
:10439000C701B601FF90EF90DF90CF9009CECF9389
:1043A000DF936AE679E179DFC0E9DAE04C895D897B
:1043B0006E897F8982E699E1E3DF488D598D6A8DA8
:1043C0007B8D8FE599E1DCDF4C8D5D8D6E8D7F8D72
:1043D0008CE599E1D5DF48A159A16AA17BA189E5C6
:1043E00099E1CEDF8AE0DF91CF914FCD4F925F927E
:1043F0006F927F928F929F92AF92BF92CF92DF92F5
:10440000EF92FF920F931F93CF93DF93CBE5D4E00E
:104410004C845D846E847F840FE414E0F801248171
:104420003581468157816C817D818E819F810E947B
:10443000567D4B015C01F80120853185428553850D
:10444000688579858A859B850E94567D6B017C01F4
:10445000F8012081318142815381688179818A818B
:104460009B810E94567DAB01BC0186E599E188DF06
:10447000B501A40182E599E183DFB701A6018EE4CD
:1044800099E17EDFB301A2018AE499E1DF91CF9146
:104490001F910F91FF90EF90DF90CF90BF90AF9062
:1044A0009F908F907F906F905F904F9069CFCF9348
:1044B000DF93CDB7DEB72C970FB6F894DEBF0FBEF3
:1044C000CDBF94DF0E943E189CE0E0E8FAE0DE01F8
:1044D000119601900D929A95E1F781110E944B1867
:1044E000CE0101965DDE2C960FB6F894DEBF0FBEAE
:1044F000CDBFDF91CF91089543DF8AE0C6CCCF9343
:10450000DF9369EC79E0C9DEC5E8D3E048815981E1
:104510006A817B8180EC99E033DF4C815D816E8123
:104520007F818FE599E12CDF488559856A857B85F8
:104530008CE599E1DF91CF91DFCFCF93C0910E034E
:1045400081110CC040E06DEF72E08DDEC11103C03F
:1045500080EF92E0A5DD8AE098DC71DE87EE92E0E4
:104560009FDD6C2F70E090E080E0FEDC40910A035C
:1045700050910B0360910C0370910D0384EE92E057
:10458000CF91BACF6DEB73E088DE6091A00A709195
:10459000A10A8091A20A9091A30A0E94C778AB0158
:1045A000BC0184EB93E0ECDE4091D00A5091D10A3B
:1045B0006091D20A7091D30A81EB93E0E1DE4091E1
:1045C000D40A5091D50A6091D60A7091D70A8EEA22
:1045D00093E0D6DE40912304509124046091250499
:1045E000709126048BEA93E087CFCF93DF9361E647
:1045F00073E053DEC0E9DAE04CA95DA96EA97FA99A
:1046000088E593E0BDDE48AD59AD6AAD7BAD85E58B
:1046100093E0B6DE4CAD5DAD6EAD7FAD8EEA93E05E
:10462000DF91CF9169CFCF93DF936DE373E035DEF8
:10463000C0E9DAE04CA15DA16EA17FA184E393E023
:104640009FDE48A559A56AA57BA58FE599E198DE6F
:104650004CA55DA56EA57FA58CE599E191DE48A9E5
:1046600059A96AA97BA989E599E1DF91CF9144CF46
:10467000CF93DF9368E173E010DEC0E9DAE0688190
:1046800079818A819B810E94C778AB01BC018FE050
:1046900093E076DE6C817D818E819F810E94C77858
:1046A000AB01BC018FE599E16BDE688579858A8570
:1046B0009B850E94C778AB01BC018CE599E160DE67
:1046C0006C857D858E859F850E94C778AB01BC0176
:1046D00089E599E1DF91CF910FCFCF93DF93EB0184
:1046E000DFDCBE0190E080E0D7DB8AE0DF91CF9194
:1046F000CCCBD6DC8AE0C9CBEC01162F0E94521637
:10470000209719F09CDDCE01F4DF96DD8BE49BE170
:10471000C7DC89EE93E0019739F000C00000EEE5B8
:10472000F9E03197F0F7F7CFF89489EE93E001972D
:1047300039F000C00000E6EEF3E03197F0F7F7CF74
:104740000E945216112321F00E94F016A895FECF68
:104750000E94B516FBCF0F931F93CF93DF938C016D
:10476000EB0180911D0B833088F066DDC80198DC79
:1047700080E29BE195DC8EE19BE192DC60E070E001
:10478000CB01F2DB8AE081DB8AE07FDB0E945216FC
:10479000A89580911C0B81110BC081E080931C0BAC
:1047A00082E080931D0B0E94521660E0CE01A4DFD0
:1047B000DF91CF911F910F910895CF93C82FCB0117
:1047C0006FDC81E29AE06CDC82E19AE0CC2311F0AC
:1047D00087E19AE0CF918DCFCF9386E39AE060DCBA
:1047E0008CB1C1E085FB882780F960E37AE08C27F3
:1047F000E4DF80910301869581706AE27AE08C277C
:10480000DCDF89B164E27AE083FB882780F9CF910D
:10481000D4CF0F931F93CF93DF93062F142FD22F54
:104820008823E9F088E492E03BDC88E52EDB88E32E
:1048300092E036DC84EC9CE00E94C411C82F8823EF
:1048400059F08CE292E02CDC84E292E0C13031F04D
:1048500080E292E0C23011F089E292E04ADF002368
:10486000E9F089E792E01CDC89E50FDB89E692E05C
:1048700017DC88E89CE00E94C411C82F882359F0F7
:104880008DE592E00DDC85E592E0C13031F081E507
:1048900092E0C23011F08AE592E02BDF1123E9F0BB
:1048A0008AEA92E0FDDB8AE5F0DA8AE992E0F8DB59
:1048B0008CE49CE00E94C411C82F882359F08EE834
:1048C00092E0EEDB86E892E0C13031F082E892E0DF
:1048D000C23011F08BE892E00CDFDD2309F18BEDA3
:1048E00092E0DEDB85E4D1DA8BEC92E0D9DB80E18B
:1048F0009CE00E94C411C82F882359F08FEB92E0EE
:10490000CFDB87EB92E0C13031F083EB92E0C23035
:1049100011F08CEB92E0DF91CF911F910F91E9CED6
:10492000DF91CF911F910F91089580911E0B90916F
:104930001F0B2FEF3FEF981751F0E92FF0E0E25EE9
:10494000F44F228130E09F5F9F7790931F0BC90146
:104950000895CF92DF92EF92FF920F931F93CF9320
:104960008C01C62F69DCC090A00BD090A10BE09009
:10497000A20BF090A30BC80193DBC701B601F4DAD8
:104980008AE083DAD2DF0196E9F78C2F96DB10926A
:10499000A50B1092A40BCF911F910F91FF90EF9058
:1049A000DF90CF9008958F929F92AF92BF92CF9257
:1049B000DF92EF92FF920F931F93CF93DF93B0E4B8
:1049C000A0E06A2F70E0AB014B0F511D5595479544
:1049D000411119C0E1E5FCE065917491072E000CCE
:1049E000880B990B0E94C978DF91CF911F910F918D
:1049F000FF90EF90DF90CF90BF90AF909F908F90FF
:104A00000895B42FE0CF4A1711F0B41303C0EDE4BA
:104A1000FDE0E2CF9A0121503109220F331F220F0E
:104A2000331FF901E15BF34FE590F490F901ED5A82
:104A3000F34FC591D4918E159F0518F3A42FC81775
:104A4000D90708F4BECFF901EF5AF34F059114913D
:104A5000F901EB5AF34FC590D4908E199F09BC0110
:104A600090E080E00E94C7784B015C01B601601BBA
:104A7000710B072E000C880B990B0E94C9789B01C3
:104A8000AC01C501B4010E9428794B015C01CE192B
:104A9000DF09BE0190E080E00E94C7789B01AC0175
:104AA000C501B4010E94327E6B017C01B801110F77
:104AB000880B990B0E94C9789B01AC01C701B60114
:104AC0000E94567D91CFCF93DF93A8958091EF0AF6
:104AD0009091F00A68DF6093F10A7093F20A809374
:104AE000F30A9093F40AC091EF0AD091F00A8091F2
:104AF0002D0290912E02C817D90728F46EEE7BE0A4
:104B00008BEF9BE028DE8091F50A9091F60A18164B
:104B1000190674F480912B0290912C028C179D073A
:104B200038F46DE07CE08AE19CE0DF91CF9113CE18
:104B3000DF91CF910895EF92FF920F931F93CF9340
:104B4000DF938C017B01EA010E949B11F8016083D5
:104B500071838283938380918003882381F0B3DF04
:104B6000109280038091F10A9091F20AA091F30AC9
:104B7000B091F40AF70180839183A283B383888183
:104B80009981AA81BB81F801408151816281738141
:104B9000481B590B6A0B7B0B77FD0CC088519C4F4F
:104BA000AF4FBF4F88839983AA83BB8380E0A9DA84
:104BB0008AE06BD9C0913302C11106C082E49CE047
:104BC0006FDA83E39CE06CDA8C2FDF91CF911F9139
:104BD0000F91FF90EF9008950F931F93CF93DF9362
:104BE000C82F41E06BE87BE03EDBC11101C027DB51
:104BF00083E89BE055DA83E09BE07BDD41E061E701
:104C00007BE08C2F30DBC11101C019DB84E59BE018
:104C100047DA8C2F92DC8C2FC2DB8C2F04DD8C2F9B
:104C200027DD8C2FE2DC8C2FADDC8C2F68DC41E0A3
:104C300066E17BE08C2F17DBC11101C000DB89E04E
:104C40009BE02EDA0091FD0C1091FE0C8CE39BE0B2
:104C500027DAB80190E080E01FD90091C10C1091D3
:104C6000C20C8FE599E11CDAB80190E080E014D91C
:104C70000091850C1091860C8CE599E111DAB80150
:104C800090E080E009D98AE000D9C11101C0D7DAEB
:104C900089E09BE005DA6091490C70914A0C80E153
:104CA0009BE01BDD8AE0F1D841E06FE37BE08C2FD5
:104CB000DADA1091FF0C0091C30CD091870C11111E
:104CC0001BC001111FC0D1111DC080914B0C882346
:104CD00069F0C11101C0B3DA8DE29BE0E1D980E255
:104CE000D4D887E39BE0DCD98AE0CFD88C2FDF9142
:104CF000CF911F910F91DBCACC2341F08DE29BE055
:104D0000CFD90AC08DE29BE0C11108C098DA8DE2CC
:104D10009BE0C6D9112319F08CE39BE0C1D9002395
:104D200019F08FE599E1BCD9DD2319F08CE599E103
:104D3000B7D98AE0AAD8C9CF8091B5029091B602BE
:104D4000009731F04AE050E070E060E00C940376A8
:104D500060E070E0CB010895EFDFCB010895CF93C1
:104D6000DF93EB010E94A71D882319F0DF91CF91FB
:104D7000F3CFCE01DF91CF910895DEDF97FD0AC01A
:104D8000DBDF6F3F71058105910509F02CF4D4DF5D
:104D9000862F089580E008958FEF0895CF9384E5DE
:104DA0000E94A71DC0E08823B1F0E7DFC82F1816C6
:104DB00094F445DA8DE469D86091D8027091D902F3
:104DC00090E080E069D882E194E06AD98C2FE5D840
:104DD0008AE05BD8CFEF8C2FCF9108958091B502F8
:104DE0009091B602892B39F0C8DF91E0811101C0A2
:104DF00090E0892F089591E0FCCFCF93DF93C82FE7
:104E0000D62F0E94A71D882319F0DF91CF91E6CFFE
:104E10008C2F0E94591D811101C08D2FDF91CF91E0
:104E200008954F925F926F927F92AF92BF92CF920E
:104E3000DF92EF92FF920F931F93CF93DF93109225
:104E4000D7021092D6022FE32093DA021092D902F1
:104E50001092D8021092D2021092D3021092D40271
:104E60001092D5029C01E90198812F5F3F4F90324B
:104E7000D1F39E34C9F4898190ED980F9A3020F0D7
:104E80008D3211F08B3281F422969E012F5F3F4FBD
:104E9000888180538A3008F46EC09E012F5F3F4F97
:104EA0008881803209F469C0D0937B04C0937A046E
:104EB0007E012FEFE21AF20A18816AE270E0C70160
:104EC0000E940181009731F0FC013197808180328E
:104ED000E1F311821D3421F0143511F01734E1F59E
:104EE000F70180819FEFE91AF90A8032C9F38053F4
:104EF0008A3090F51093DA0290E080E06AE0AF012A
:104F00004F5F5F4F689F9001699F300D1124C90169
:104F1000C0972081820F911D27FD9A95FA0120816B
:104F200020532A3060F39093D9028093D802DF0196
:104F300031962C912032D9F31D3459F58E319105DB
:104F400039F0E8F48731910519F08C31910509F5B4
:104F5000B093D702A093D602DF91CF911F910F910A
:104F6000FF90EF90DF90CF90BF90AF907F906F90C9
:104F70005F904F900895E90188CFE9018ECF853782
:104F8000910538F08737910518F3803AE3E09E07E2
:104F9000F9F240E050E0BA0130E020E0C12CD12C21
:104FA0007601C394FD0131960C91002309F48CC065
:104FB0000132F1F41D34E1F480329105C9F44093DB
:104FC000D2025093D3026093D4027093D502F0932F
:104FD000D702E093D60263E270E0CF010E94018124
:104FE000009709F4B9CFFC011082B6CFDF01DACF08
:104FF00001540A3108F063C0DF01BD90D0E2AD2E4C
:10500000BA1499F0A0EDAB0DAA3008F1AEE2BA12D5
:105010000EC0A181A053AA30D0F02115310519F49A
:105020009F0121503109B12C16C0FD01E5CFADE241
:10503000AA2EBA1419F0ABE2BA12EFCFA181B0EDEB
:10504000BA0FBA3020F0AE3241F7A281E3CFBE2EC4
:10505000BC1A309741F3A02FB0E02601370104C0FD
:10506000440C551C661C771C0A95D2F74429552917
:1050700066297729A854BD4FBC92A081A154AA31BA
:1050800008F4B4CFDF010191002309F48BCFD0EDF8
:10509000BD2EB00ED9E0AD2EAB14A0F7D3EDBD2ED2
:1050A000B00EAA24A394AB1468F70B3259F3FD0198
:1050B00031960C91003209F075CFDF01F8CF211540
:1050C0003105D9F69D01D9CF3093D7022093D6026E
:1050D0004093D2025093D3026093D4027093D502CE
:1050E0003BCF4F925F926F927F928F929F92AF923F
:1050F000BF92CF92DF92EF92FF92CF93DF93EC01BA
:105100002091B00A3091B10A4091B20A5091B30A8D
:105110006C857D858E859F850E9428790E943380CD
:105120006B017C012091AC0A3091AD0A4091AE0A2E
:105130005091AF0A688579858A859B850E94287978
:105140000E9433804B015C012091A80A3091A90A8A
:105150004091AA0A5091AB0A6C817D818E819F811A
:105160000E9428790E9433802B013C012091A40ADF
:105170003091A50A4091A60A5091A70A68817981C9
:105180008A819B810E9428790E9433806093090D57
:1051900070930A0D80930B0D90930C0D40920D0DA2
:1051A00050920E0D60920F0D7092100D8092110DA5
:1051B0009092120DA092130DB092140DC092150D85
:1051C000D092160DE092170DF092180D9091030DEC
:1051D0008091040D981779F0DF91CF91FF90EF90B7
:1051E000DF90CF90BF90AF909F908F907F906F9007
:1051F0005F904F90B0C5E7D50E943E18C82F89E058
:105200009DE00E946016CC2381F0DF91CF91FF904A
:10521000EF90DF90CF90BF90AF909F908F907F9056
:105220006F905F904F900C944B18DF91CF91FF904F
:10523000EF90DF90CF90BF90AF909F908F907F9036
:105240006F905F904F900895CF93DF93CDB7DEB707
:1052500060970FB6F894DEBF0FBECDBF80E1EBE5DF
:10526000F4E0DE01119601900D928A95E1F7CE01EE
:10527000019637DF60960FB6F894DEBF0FBECDBF44
:10528000DF91CF9108954F925F926F927F928F92AC
:105290009F92AF92BF92CF92DF92EF92FF92CF9305
:1052A00080911D0B81110FC0A895CF91FF90EF90B9
:1052B000DF90CF90BF90AF909F908F907F906F9036
:1052C0005F904F900895809176038111EECF81E039
:1052D0008093760380917503882321F061E080EE4E
:1052E0009BE00ADA80917403882309F467C0109266
:1052F00074030E943E189091040D9093030D9093B7
:10530000020D9093010D94E69093000D20ED33E093
:1053100030934D0420934C0481110E944B1881E07E
:105320008093670350D580E00E94011B2B013C0154
:10533000409268035092690360926A0370926B0313
:1053400081E00E94011B4B015C0180926C039092F2
:105350006D03A0926E03B0926F0382E00E94011B66
:105360006B017C01C0927003D0927103E0927203D2
:10537000F092730383E00E94011B40925B04509201
:105380005C0460925D0470925E0480925F0490926F
:105390006004A0926104B0926204C0926304D0924F
:1053A0006404E0926504F09266046093670470936D
:1053B00068048093690490936A0446DF80918003B7
:1053C000811103C01092760370CF7DDB10928003B1
:1053D0000E949B114B015C0160913102709132027D
:1053E000072E000C880B990B0E94C9782B013C01F9
:1053F000AC019B016091F10A7091F20A8091F30A6D
:105400009091F40A0E94AD7F18162CF46EEE7BE0AA
:105410008BEF9BE0A0D96091F50A7091F60A072EF8
:10542000000C880B990B0E94C9786B017C012091BC
:105430000C0C30910D0C40910E0C50910F0C0E94F1
:10544000C3788823A9F0C0920C0CD0920D0CE09286
:105450000E0CF0920F0CC1E020E030E0A901C70172
:10546000B6010E94AD7F18160CF0C0E0C0930B0C83
:1054700080910B0C8230E9F0833009F4ACC08130AC
:1054800009F045C020910C0C30910D0C40910E0C90
:1054900050910F0C6091F10A7091F20A8091F30A19
:1054A0009091F40A0E94C37887FD31C082E0809316
:1054B0000B0C0E949B116B017C0120E030E040E866
:1054C00050E460910C0C70910D0C80910E0C909139
:1054D0000F0C0E94557D9B01AC016091F10A709107
:1054E000F20A8091F30A9091F40A0E94AD7F87FD41
:1054F00061C080E4C80E8CE9D81EE11CF11CC0928A
:10550000070CD092080CE092090CF0920A0CC090A3
:10551000F10AD090F20AE090F30AF090F40A609158
:105520002F0270913002072E000C880B990B0E94FD
:10553000C9789B01AC01C701B6010E94AD7F181666
:105540000CF04FC0A7019601C301B2010E94AD7FCC
:1055500018160CF046C00E9451180E94CB7E75951B
:1055600067956093F70A80917C0390917D03A091E9
:105570007E03B0917F030097A105B10509F422CF06
:10558000881A990AAA0ABB0AB7FC1CCF6091F10AD3
:105590007091F20A8091F30A9091F40A0E94CB7EF6
:1055A00020917A0330917B0362177307E4F00E9425
:1055B0001D1608CF8091070C9091080CA091090C42
:1055C000B0910A0CC81AD90AEA0AFB0AF7FC9FCF65
:1055D00083E080930B0C62EA7BE082EB9BE0BBD81C
:1055E00096CF60E0BECF62EC7BE081ED9BE0B3D86C
:1055F000E9CE2F923F924F925F926F927F928F925D
:105600009F92AF92BF92CF92DF92EF92FF920F9351
:105610001F93CF93DF9380917C04843008F03DC1C9
:1056200011E601E080917C04843008F036C180915D
:105630001E0B90911F0B891B8F7709F42EC175D912
:1056400097FF0BC00E941C2186E09BE10E94502026
:1056500080911E0B80931F0BE5CF8A3019F08D309F
:1056600009F0DEC01092060C8091A40B9091A50B5E
:10567000FC01E056F44F1682892B11F404DED2CFE0
:105680001092A50B1092A40BC6EADBE0FE018191FB
:10569000803209F448C08E3409F07CC061E07BE1BF
:1056A000CE010E947A787C01892B41F06EE470E093
:1056B000CE0104960E940181009709F4CE014AE0D0
:1056C00050E070E060E001960E9403764B015C01BF
:1056D0008091A00B9091A10BA091A20BB091A30B74
:1056E000AC01BD014F5F5F4F6F4F7F4F8416950632
:1056F000A606B706D1F0EF28C1F4AC01BD014150B8
:1057000051096109710984169506A606B70634F099
:1057100088159905AA05BB050CF084CF60E08EECD6
:105720009AE117D97FCFEF01B1CF6AE270E0CE01E5
:105730000E9413819C01009709F1982F9C1BF12C6A
:10574000992339F09150FE01E90FF11D8081F8266F
:10575000F7CF4AE050E070E060E0C90101960E9496
:105760000376CF2CD12CF12CE12C6C157D058E0508
:105770009F0541F060E08FEA9AE1D3CF60E085E8D1
:105780009AE1CFCF8092A00B9092A10BA092A20B96
:10579000B092A30B80911D0B8130B9F467E470E0E7
:1057A000CE010E940181009781F04AE050E070E054
:1057B00060E001960E9403766430710581059105D1
:1057C00020F48EE09AE10E9450208091A60B8B334A
:1057D00009F428CF80917C04843008F023CF809195
:1057E0007E04819FC001112466EA7BE081589B4FB3
:1057F0000E940C8180917E04189FF0011124E152D7
:10580000FB4F10828F5F843040F480937E04809140
:105810007C048F5F80937C0405CF10927E04F7CFC9
:105820009091060C913009F4FDCE9430B0F0945074
:105830009093060C8830C9F48091A40B9091A50B2D
:10584000009709F4EFCE01979093A50B8093A40BDA
:105850008056944FFC011682E5CE8C35C9F49C5FCE
:105860009093060C943009F4DDCE2091A40B309176
:10587000A50BA9014F5F5F4F5093A50B4093A40B5D
:105880002056344FF90186834F3551051CF4CACE9A
:105890008B3381F60093060CC5CE0E949B116B01E1
:1058A0007C018091080690910906A0910A06B091AA
:1058B0000B060097A105B10579F140910C065091B6
:1058C0000D0660910E0670910F06840F951FA61F9E
:1058D000B71F97018601081B190B2A0B3B0BD90137
:1058E000C801B7FD19C00E941C218BEF99E10E94ED
:1058F0005020C0917A04D0917B0480ED99E10E9400
:105900005020CE010E9440208AE00E94451F60E0A6
:1059100090E080E00E947C239091030D8091040D23
:10592000981741F0C0920C06D0920D06E0920E0638
:10593000F0920F068090420290904302A0904402A1
:10594000B090450281149104A104B10429F0981784
:1059500009F4A1C0109207068091030690910406F5
:10596000A0910506B0910606A7019601281B390BE8
:105970004A0B5B0BDA01C901B7FD42C19091030DDF
:105980008091040D20914102981709F4ABC0E09179
:10599000040D37E4E39FF0011124EA5AF94F8081A6
:1059A000281731F08093410281E492E00E94781E32
:1059B00080917904882309F416C100913F02109167
:1059C0004002C80102972091F50A3091F60A281783
:1059D00039070CF408C13090040D812C912CA12CB6
:1059E000B12C87E4282E8091030D831509F47DC026
:1059F000832D90E0289EF001299EF00D1124E05F98
:105A0000F94F458956896789708D452B462B472B61
:105A100081F4418D528D638D748D452B462B472B20
:105A200041F4458D568D678D70A1452B462B472B34
:105A300069F1289EE001299ED00D1124C05FD94F45
:105A400069A17AA18BA19CA10E94C7782B013C017E
:105A50006DA17EA18FA198A50E94C7789B01AC0182
:105A6000C301B2010E94327E29813A814B815C815F
:105A70000E9428793B01D82FC92F9401A5010E94CB
:105A8000AD7F18161CF44301AD2EBC2E3394432D6C
:105A90004F70342EA8CF0E949B1100910C061091DC
:105AA0000D0620910E0630910F06800E911EA21E4B
:105AB000B31E681979098A099B0997FD4BCF80911C
:105AC0000706811149CF81E08093070680E00E949C
:105AD000C41681E00E94C41682E00E94C4160E948F
